:100000000C946C010C9484130C945D130C94940167
:100010000C9494010C9494010C9494010C9494010C
:100020000C9494010C9494010C9494010C949401FC
:100030000C9494010C94AB130C9494010C949401C3
:100040000C9413130C9494010C9492110C946C1155
:100050000C9494010C9494010C9494010C949401CC
:100060000C9494010C949401496E69742065657038
:10007000726F6D20746F2064656661756C74732097
:10008000616674657220666C6173680052656164B4
:10009000696E672076616C7565732066726F6D207E
:1000A000656570726F6D0072656365697665722053
:1000B000656E61626C6564005374617274696E6729
:1000C0002074696D65726A6F62005573696E67208E
:1000D000734649464F00636372656720777269749F
:1000E00065206261636B200073656E6420666169E0
:1000F0006C6564003B4D6465624669666F4C696D72
:1001000069743D003B6D634D696E4269744C656E68
:100110003D003B4D7553706C69745468726573682B
:100120003D005F4D53636E743D003B4D64656275E9
:10013000673D003B4D66696C743D31003B4C454466
:100140003D30003B4D7265643D003B4D433D003BFF
:100150004D553D004D533D00204353657400556E91
:10016000737570706F7274656420636F6D6D616E0E
:100170006400203D2000203A00454550524F4D205C
:1001800000556E737570706F7274656420636F6D67
:100190006D616E6400556E737570706F7274656416
:1001A00020636F6D6D616E640020557365206F6E06
:1001B00065206F6620005369676E616C3A20002CE1
:1001C0002073746174653A20002C206D7472756E12
:1001D000633A20002C204D43443A20002C207661C5
:1001E0006C636E743A20002C206D656E643A2000BA
:1001F0002C206D53746172743A20002C2050756C61
:1002000073653A20462F4C2F464C2F4C5020002C23
:1002100020506174744C656E3A200020616464441F
:10022000617461206F766572666C6F7721210020A2
:1002300062797465636E743D0076616C3D00206D7B
:1002400062206E6D20622070726F6320004D443D0D
:10025000006D4F766572666C6F7726737461746596
:100260003D30210000000000250028002B00040480
:10027000040404040404020202020202030303034E
:10028000030301020408102040800102040810202A
:100290000102040810200000000800020100000311
:1002A00004070000000000000000636D6420746F0C
:1002B000206C6F6E6721002073746172743D0020A2
:1002C000627566664D6F7665206F766572666C6FD7
:1002D00077210000F823F42311241FBECFEFD8E0CC
:1002E000DEBFCDBF12E0A0E0B1E0E0EAF9E502C078
:1002F00005900D92A033B107D9F724E0A0E3B2E056
:1003000001C01D92AE3DB207E1F711E0CBE6D1E0AE
:1003100004C02197FE010E94FC28CA36D107C9F704
:100320000E94B8170C94C32C0C9400002F923F929B
:100330004F925F926F927F928F929F92AF92BF92F5
:10034000CF92DF92EF92FF920F931F93CF93DF93A1
:10035000CDB7DEB7E7970FB6F894DEBF0FBECDBFBF
:10036000882E882321F081E08093DE0302C0109262
:10037000DE03809103049091DA03811104C0983266
:1003800010F40C94AC0D1092DD0381E09E3F09F057
:1003900080E08093DF0340E060E08BE393E00E9425
:1003A0001214F12C2F2C312CE09000048E2D90E0B3
:1003B0000197281639060CF007C1F101E55CFC4FE6
:1003C000CF010D962585F394222361F3EF2C910143
:1003D000220F331FA90140515C4F5C8F4B8F9E8FC2
:1003E0008D8F58A34F8F80910004E816D8F62E2DDC
:1003F00030E0B901655C7C4F788F6F8BDB011D9617
:100400008C91882309F4DEC0EB8DFC8D0081118175
:100410005901AA0CBB1CF501E051FC4F60817181B0
:10042000CB018027912797FDCDC04090EC035090E1
:10043000ED036090EE037090EF036B01C01AD10AD8
:10044000D7FE03C0D194C194D10877FF03C0719542
:1004500061957109072E000C880B990B0E94E52508
:10046000A30192010E94442669A37AA38BA39CA3B3
:10047000B80117FF03C0719561957109072E000C33
:10048000880B990B0E94E525A30192010E94442646
:100490009B01AC0169A17AA18BA19CA10E9462275A
:1004A00020E030E040E05FE30E9444260E944028C4
:1004B0006C157D050CF486C0D12CC12C0F89188DCC
:1004C000035F1F4F8091DA03D81608F041C0D801AE
:1004D0008C91C816E8F56D2D70E080E593E00E94E0
:1004E000D2138091D5038E1131C08091D203482F51
:1004F00050E0D89EC0011124FC0123E0F695E79559
:100500002A95E1F72091D403E217F8F4FF27E55C80
:10051000FC4F2091D30330E087709927082E02C04A
:10052000359527950A94E2F720953589232368E0CD
:1005300070E0641B750BAB01481B590BC10101C076
:10054000880F4A95EAF7282B258BC394D394BACF0A
:10055000ED8DFE8D1081AF89B88D1D960C91EF8DBC
:10056000F8A1A081B181950120513C4F6901F901A9
:10057000A080B180E12FF0E09F010E94F5282B01BF
:100580003C01402F50E09A01D5010E94F528640DEE
:10059000751D861D971DE40FF51F9F01FF0F440B6E
:1005A000550B0E94D628AF8DB8A12D933C93100F08
:1005B000ED8DFE8D1083AF89B88D1D961C92F601CE
:1005C00011821082E3940FCF1092E3031092E203A2
:1005D0008FEF80933B03F090DA03B0EFAB2EB3E0E4
:1005E000BB2E00E010E0CC24CA94DC2C4F2C512C04
:1005F000612C712C0E1508F061C0FFEFCF16DF06DD
:1006000031F5D5018D919C9197FD21C0F801E55CF4
:10061000FC4F658570E080E090E00E94E5256F8BDF
:10062000788F898F9A8FC301B2010E94E5252BE74D
:1006300034E14EE25EE30E9444269B01AC016F89E7
:10064000788D898D9A8D0E947628181684F1F5018F
:100650008081918197FD2CC0F601EE0FFF1FE051C4
:10066000FC4F208131818217930714F5F801E55C76
:10067000FC4F658570E080E090E00E94E5256F8B7F
:10068000788F898F9A8FC301B2010E94E5252BE7ED
:1006900034E14EE25EE30E9444269B01AC016F8987
:1006A000788D898D9A8D0E94762818160CF4680131
:1006B0000F5F1F4FF2E0AF0EB11C9CCF2FEFC216A1
:1006C000D20641F0C0923B0381E090E09093E303B7
:1006D0008093E2038091E2039091E303019709F094
:1006E000A3C080913E03882309F49EC08091050435
:1006F00081119AC08F2D90E08C3891051CF438ED53
:10070000F30E02C0E4E6FE2EEA9476E0772E7FEF49
:10071000E71609F487C00E2D0E2C000C110BF80102
:10072000E55CFC4F4585442309F47AC0F801EE0FDF
:10073000FF1FE051FC4F2081318137FF71C031959F
:1007400021953109283652E435070CF069C0E09153
:100750003B03EE0FFF0BE051FC4F0190F081E02DC9
:10076000C901BF010E948C286832710508F058C089
:100770007E9EC0017F9E900D11248217930708F082
:100780004FC0642F70E080E090E00E94E5255B019F
:100790006C016091DA0370E080E090E00E94E52552
:1007A0002AE037ED43EA5DE30E9444269B01AC0159
:1007B000C601B5010E94DE2587FF32C0A12CB12CF5
:1007C000AF1470F565016FEFC61AD60AB60180E561
:1007D00093E00E94D2138091D50390E08017910797
:1007E00011F00C94B50DB50180E593E00E94D21391
:1007F0002091D50330E080913B03082E000C990B2B
:100800002817390711F00C94B50DE092020482E02C
:1008100090E09093E3038093E203A092DB0304C093
:10082000EA9475CFE09202048091E2039091E30391
:10083000029709F025C28091DA03883208F420C2B9
:100840008091DB038E5F8093DC036091DC0370E0BA
:100850008091DA0390E001976817790744F56F5F9C
:100860007F4F80E593E00E94D2132091D50330E0C2
:1008700080910204082E000C990B28173907A1F467
:100880006091DC0370E080E593E00E94D213209138
:10089000D50330E080913B03082E000C990B2817FC
:1008A000390711F40C94B80D8091DC03CBCF10E024
:1008B0008091DC03282F30E09091DB03291B310964
:1008C00028323105DCF591E0980F9093DB038D5FC2
:1008D0008093DC036091DC0370E08091DA0390E0A8
:1008E0000197681779074CF56F5F7F4F80E593E0BC
:1008F0000E94D2132091D50330E080910204082E8B
:10090000000C990B28173907A1F46091DC0370E003
:1009100080E593E00E94D2132091D50330E08091CE
:100920003B03082E000C990B2817390711F40C947F
:10093000C00D8091DC038E5FCBCF10E08091DA0395
:100940009091DC03891710F0111103C0815080933E
:10095000DC034091DC036091DB038BE393E00E94B6
:1009600012148091DB03112351F09091DC03292FA5
:1009700030E0281B3109283231056CF471C1209117
:10098000DA032E3F08F05FC130E0281B310928321E
:1009900031050CF458C180913F03882309F4A0C0AD
:1009A00082E00E944E1689ED91E00E9416168BE3BC
:1009B0000E944E1620E0809100042817C8F5822F6F
:1009C00090E0FC01EE0FFF1FE051FC4F0081118110
:1009D0000115110559F1FC01E55CFC4F8585882363
:1009E00029F1622F17FF05C0606A11950195110961
:1009F00001C06068F02E07FD04C0802F8068F82ECB
:100A000001C0606184E992E02FAB0E94E10F6F2D7D
:100A100084E992E00E94E10F612F606884E992E02E
:100A20000E94E10F8BE30E944E162FA92F5FC3CFC8
:100A30008091DC0380FF03C08CED91E002C08EED5D
:100A400091E00E941616E091DB03E0FF16C0E15032
:100A5000E093DB03E6958091D403E81720F4F0E0FF
:100A6000E55CFC4F9588692D84E992E00E94E10FD6
:100A70008091DB038E5F8093DB031091DB03809119
:100A8000DC03811788F0E12FE6958091D403E81705
:100A900020F4F0E0E55CFC4F9588692D84E992E054
:100AA0000E94E10F1E5FEBCF8BE30E944E1683EF97
:100AB00091E00E94161680913B0360E170E0082EE1
:100AC000000C990B0E9459168BE30E944E1681EE82
:100AD00091E00E9416168091020460E170E06CC003
:100AE00082E00E944E1680EE91E00E9416168BE383
:100AF0000E944E1610E080910004181750F5812FC7
:100B000090E09C01220F331FD901A051BC4F7D0101
:100B10002D913C91232BD9F0FC01E55CFC4F8585A0
:100B20008823A9F080E50E944E166AE070E0812FCC
:100B30000E9402168DE30E944E166AE070E0F701F3
:100B4000808191810E9459168BE30E944E161F5F8F
:100B5000D2CF83EE91E00E9416161091DB038091B4
:100B6000DC03811770F0612F70E080E593E00E9454
:100B7000D2136AE070E08091D5030E9402161F5FD5
:100B8000EECF8BE30E944E1686EE91E00E94161681
:100B900080913B036AE070E0082E000C990B0E94E4
:100BA00059168BE30E944E168AEE91E00E941616AB
:100BB000809102046AE070E0082E000C990B0E94FC
:100BC00059168BE30E944E168091DF03882339F07B
:100BD0008EEE91E00E9416168BE30E944E16109244
:100BE000DE038091DC032091DA0330E0281B310919
:100BF00028323105ECF0909143039923C9F09150CC
:100C0000909343038F5F0E94C1161092DB03809183
:100C10004003882369F080EF91E00E9416166AE095
:100C200070E0809143030E9402168BE30E944E16EF
:100C300083E00E944E1680E691E00E94161681E045
:100C4000809347031AC08823A1F02091DC0330E091
:100C50002D3F310574F0811007C01092DE030DC0E6
:100C60009E3F38F481E0890F0E94C1161092DB0389
:100C700004C08BE393E00E94741481E08093DD0351
:100C80008091DD03811152C780913C03F0913D03B7
:100C9000F9A7811103C0FF2309F448C729A522231E
:100CA00009F437C580914302811129C082E3809302
:100CB000870291E090938502109250021092820276
:100CC0001092830287E08093840280E880938602FA
:100CD0008FEF80938B0280938C0280938D028093A0
:100CE0008E02109293022BE333E030938A0220931A
:100CF00089021092900210928F0290934302809189
:100D00000304882399F08091890290918A02FC0162
:100D1000ED55FF4F108233971082D12C11E0CC2477
:100D2000C39499249A9487E0582EDBC18FEF809367
:100D30008B0280938C0280938D0280938E0210929E
:100D400093021092900210928F0210925002109211
:100D500082021092830287E08093840280910604CD
:100D6000809391020091890210918A02F801EB535D
:100D7000FF4FF08033E03F1508F0C0C4B6976081A4
:100D800070E080E090E00E94E5252AE037ED43E244
:100D90005DE30E9444262B013C0120E030E0A901E4
:100DA0000E94762820E030E040E05FE387FD05C048
:100DB000C301B2010E94622704C0C301B2010E94B4
:100DC00061270E944028A801435F5F4FD801AB54C0
:100DD000BF4FA12C70E0FA018191AF01861758F145
:100DE000EA2C8E2D90E0EE20F1F0FE01E80FF91FC5
:100DF000D08098012D0D311D2D0D311DF901EB54C1
:100E0000FF4F2D913C9111970190F081E02D2E170D
:100E10003F074CF4E1E0F0E0EC0FFD1FE80FF91F95
:100E2000D082EA94DECFE1E0F0E0EC0FFD1FE80FA6
:100E3000F91F7083A3947F5F12967F11CCCF9E0120
:100E40002F5F3F4F3A8B298B3EA32DA3BE01675FD7
:100E50007F4F7C8B6B8BCE010D969E8B8D8B8C5F29
:100E60008EAB898989AB8DA19989891B8A1508F078
:100E700045C4ADA1BEA12D91BEA3ADA340918902F1
:100E800030918A02842F932F820F911D820F911D22
:100E9000FC01EB54FF4F208131813C8F2B8F1216C8
:100EA0001306FCF68FEF80938B0280938C02809365
:100EB0008D0280938E02359527953EA72DA7AE0112
:100EC0004F5F5F4F5AA349A31FA218A66FEF7FEF92
:100ED000788F6F8B8B8D9C8D092E000CAA0BBB0B12
:100EE0008AAB9BABACABBDAB89A179A9871B8A153B
:100EF00008F0B7CFA9A1BAA1BD90BAA3A9A3309118
:100F0000890220918A02832F922F8B0D911D8B0DC8
:100F1000911DFC01EB54FF4F008111816AA97BA94F
:100F20008CA99DA90E94E5252B013C01680117FFB2
:100F300004C0CC24DD24C01AD10AEDA4FEA4EC1810
:100F4000FD08F7FE03C0F194E194F1082DEC3CECB0
:100F50004CE45EE3C301B2010E9444260E94402893
:100F60006E157F050CF0A3C2EB8CFC8CEC18FD0811
:100F7000F7FE03C0F194E194F1082DEC3CEC4CEC4D
:100F80005EE3C301B2010E9444260E9440286E1510
:100F90007F050CF0FDC5A8CF8D2D0E946E17E09047
:100FA0008902F0908A02F701E056FF4F9082B50166
:100FB00061507109C70145960E94D213F701E656A8
:100FC000FF4F808190E020918D02022E000C330BA8
:100FD0008217930709F457C620918E02022E000C47
:100FE000330B8217930709F44EC6E0918902F09102
:100FF0008A02E056FF4F80818F3F09F40083009101
:101000009202C0929302A0908902B0908A02F501E8
:10101000E156FF4F8081081708F0F5C0E02EF12C53
:10102000B701C50145960E94D213F501E656FF4F60
:10103000808190E020918B02022E000C330B8217EE
:10104000930709F48EC620918C02022E000C330BFC
:101050008217930709F485C6A0908902B0908A028E
:10106000F501E156FF4F208130E021503109E216B1
:10107000F3060CF0C8C0DD2009F4BCC020918E023C
:10108000022E000C330B8217930709F4A5C6102F0C
:10109000DD24D3948091890290918A02FC01E1566B
:1010A000FF4F2081021710F411E0100F40918302CE
:1010B00050E020919102022E000C330BFC014217EC
:1010C00053070CF0A8C0E653FF4F2081222309F4F8
:1010D0009CC0109250021092820210928302509291
:1010E00084022091890230918A02412F50E0F90157
:1010F000E156FF4F808190E04E97481759070CF05A
:10110000FDC2F901E753FF4FC082A12EB12CE09040
:101110008902F0908A02F701E156FF4F808190E04A
:101120000197A816B9060CF053C0B501C701459642
:101130000E94D213F701E656FF4F6080712C809118
:101140008C02082E000C990B68167906A1F180918B
:101150008B02082E000C990B6816790651F5E09069
:101160008902F0908A02B50161507109C701459664
:101170000E94D213F701E656FF4F8081E80EF11C62
:10118000E80EF11CF701EB54FF4F209189023091DA
:101190008A0280918C02880F990B820F931FDC01C9
:1011A000AB54BF4F808191812D913C912817390715
:1011B00014F41F5FAACF80918C02082E000C990BAB
:1011C000DD24D3946816790609F0D12C109392028D
:1011D000012F2091890230918A02F901E156FF4FD7
:1011E000808190E00197A816B9060CF4D5CEBA9686
:1011F000108284C220918D02022E000C330B8217C4
:10120000930709F4B4C5102F45CF193208F461CF04
:10121000BA97108373C2EF55FF4F108382E00E948C
:101220004E1682EF91E00E9416168BE30E944E1636
:1012300085EF91E00E941616E0918B02EE0FFF0BF6
:10124000E051FC4F6AE070E0808191810E94591664
:101250008BE30E944E1689EF91E00E941616E091F2
:101260008C02EE0FFF0BE051FC4F6AE070E08081D2
:1012700091810E9459168BE30E944E168DEF91E0EA
:101280000E941616E0918D02EE0FFF0BE051FC4F0D
:101290006AE070E0808191810E9459168BE30E9480
:1012A0004E1681E092E00E941616E0918E02EE0F3B
:1012B000FF0BE051FC4F6AE070E0808191810E9459
:1012C00059168BE30E944E1683EE91E00E9416168B
:1012D00080E390E3A0E089839A83AB83D12C9E01C5
:1012E0002F5F3F4F790115E0A12E12E0B12E0D2D99
:1012F00010E08091820290E0209187020817190780
:10130000DCF4D21628F4F801E05BFD4F808101C0C7
:1013100080E01F928F93BF92AF92FF92EF920E9454
:10132000222AC7010E941616D3940F900F900F9097
:101330000F900F900F90DBCFD21628F4F801E05BEE
:10134000FD4F30813FA78FA582958F701F928F939D
:101350008AE092E09F938F93FF92EF920E94222A5D
:10136000C7010E94161680918302877081500F90EA
:101370000F900F900F900F900F908430F0F08091AD
:101380008702D81628F4F801E05BFD4F408148AB96
:1013900088A98F701F928F938AE092E09F938F931A
:1013A000FF92EF920E94222AC7010E9416160F9008
:1013B0000F900F900F900F900F908BE30E944E169E
:1013C0008FE092E00E9416166AE070E080918F0232
:1013D000909190020E9459168BE30E944E1686EF60
:1013E00091E00E9416166AE070E0809183020E94EC
:1013F00002168BE30E944E1680914003882349F128
:1014000080910404811107C082E192E00E941616C7
:101410008BE30E944E16809192028823D1F08AEDD0
:1014200091E00E9416166AE070E0809192020E949C
:1014300002168BE30E944E1684E192E00E9416167B
:101440006AE070E08091DB030E9402168BE30E9449
:101450004E161092030481E08093DD0380934703CE
:101460008091DC03811008C02091DA0330E0281B52
:101470003109283231059CF081500E94C11610922A
:10148000DB0381E08093050480914003882339F0D9
:1014900086E192E00E9416168BE30E944E1683E0CE
:1014A0000E944E1680E691E00E94161632C1101678
:1014B00011060CF0C7C4B0928E02B8A5BF5FB8A7E2
:1014C000EF89F88DE00FF11FF88FEF8B80918B0281
:1014D0008F3F09F409CD80918D028F3F09F404CD2F
:1014E00080918C028F3F09F4FFCC80918E028F3F58
:1014F00009F4FACC8FEF8D878E878F87888B898749
:101500008A878B878C8741E050E058A34F8F00E09B
:1015100010E0BB24BA94E0908902F0908A02F701AF
:10152000E156FF4F808190E0081719070CF0DCCCE2
:10153000B801C70145960E94D213F701E656FF4F46
:10154000D0808D2D90E020918B02022E000C330B69
:10155000E0908902F0908A028217930709F41FC372
:1015600020918C02022E000C330B8217930709F492
:1015700016C320918D02022E000C330B82179307A5
:1015800009F40DC320918E02022E000C330B82173A
:10159000930709F404C3F701E056FF4F60819801F7
:1015A000261B310980919102082E000C990B82179D
:1015B00093070CF020C331960083402FC7010E948F
:1015C00012148091890290918A0270908E029090FC
:1015D0008C0250918D025D8F60908B02FC01E70DB3
:1015E000F11D77FCFA952585FC01E90DF11D97FCAD
:1015F000FA95C584D12CC20ED11CFC01E50FF11D5A
:1016000057FDFA952585C21AD108FC01E60DF11D9A
:1016100067FCFA95258510929302C21AD108D7FE6D
:1016200003C0D194C194D1080D2C000CEE08FF0822
:10163000FC01E156FF4F8081A82FB0E0BBA7AAA70D
:10164000BD01BB0F880B990B0E94E5252AE037ED01
:1016500043E25DE30E9444261B012C0120E030E0C0
:10166000A9010E94762820E030E040E05FE387FD9A
:10167000A0C2C201B1010E9462270E9440286C15DD
:101680007D058E059F050CF42FCCBFA1E8A5BE13E8
:101690002BCC691409F428CCFD8DF71509F424CC62
:1016A0006F1609F421CC971409F41ECC671409F4C1
:1016B0001BCC9F1609F418CCDE011996FE013D964D
:1016C00091918D91981709F479C28F3F09F478C2EE
:1016D00081E09F3F09F072C22EA92E1373C28111BF
:1016E00074C28F89988D66E070E00E94A028709384
:1016F000900260938F0239A5311105CB80910304CC
:10170000882339F08091DE03882319F081E08093EB
:10171000DD0380913C03882309F408C28091E20331
:101720009091E303019709F001C28091DD038111DB
:10173000FDC18091DA03883208F4F8C18091450335
:1017400090914603892B09F49FC08091DB03882385
:1017500041F040E060E08BE393E00E9412141092AD
:10176000DB0310910004115017FD8EC0C12E012E15
:10177000000CDD08F601EE0FFF1FE051FC4F8081E9
:10178000918197FF03C0919581959109209145031F
:10179000309146038217930730F3F601E55CFC4F66
:1017A0008585882301F38130A9F4E12CF12CB70160
:1017B00080E593E00E94D2138091D50390E08C15D0
:1017C0009D0589F25FEFE51AF50A6AE0E616F10475
:1017D00071F702C0883038F688E28093DC0380918C
:1017E000DA03883208F450C018E2E12EF12C80911F
:1017F000DA0390E00197E816F9060CF045C0B7014E
:1018000080E593E00E94D213E091D503F0E0EE0F63
:10181000FF1FE051FC4F80819181B7011816190616
:1018200074F480E593E00E94D213E091D503F0E0D8
:10183000EE0FFF1FE051FC4F8081918110C080E5C9
:1018400093E00E94D213E091D503F0E0EE0FFF1F6A
:10185000E051FC4F80819181919581959109209172
:101860004503309146038217930760F01093DC0321
:101870004FEF410F60E08BE393E00E941214DD24F0
:10188000D39411C01F5FB1CF8091DA038093DC0342
:101890008091DB03882331F040E060E08BE393E04C
:1018A0000E941214D12C80913F03882309F476C042
:1018B00082E00E944E1688E192E00E9416168BE3A9
:1018C0000E944E1620E0809100042817C8F5822F50
:1018D00090E0FC01EE0FFF1FE051FC4F00811181F1
:1018E0000115110559F1FC01E55CFC4F8585882344
:1018F00029F1622F17FF05C0606A11950195110942
:1019000001C06068F02E07FD04C0702F7068F72ECC
:1019100001C0606184E992E02FAB0E94E10F6F2D5E
:1019200084E992E00E94E10F612F606884E992E00F
:101930000E94E10F8BE30E944E162FA92F5FC3CFA9
:101940008091DC0380FF06C08CED91E00E941616AA
:1019500010E014C08EED91E0F9CFE12FE695809173
:10196000D403E81728F4F0E0E55CFC4F85898CA7E8
:101970006CA584E992E00E94E10F1E5F8091DC0378
:10198000181758F38BE30E944E1683EF91E00E94E4
:10199000161680913B0360E170E05DC082E00E941A
:1019A0004E168BE192E00E9416168BE30E944E16B3
:1019B00010E080910004181760F5812F90E09C01E1
:1019C000220F331FD901A051BC4F7D012D913C91B5
:1019D000232BE9F0FC01E55CFC4F85858823B9F0F9
:1019E0008DEC91E00E9416166AE070E0812F0E9453
:1019F000021680E192E00E9416166AE070E0F7019C
:101A0000808191810E9459168BE30E944E161F5FC0
:101A1000D0CF83EE91E00E94161610E08091DC0397
:101A2000181770F4612F70E080E593E00E94D213E4
:101A30006AE070E08091D5030E9402161F5FEECF2E
:101A40008BE30E944E1686EE91E00E94161680915E
:101A50003B036AE070E0082E000C990B0E945916B7
:101A60008BE30E944E161092DE0381E080934703C1
:101A70008093DD03DD2081F1811009C08091DA03BC
:101A800090E02091DC03821B91098897D4F080912B
:101A900044038F5F809344038091DC030E94C1164E
:101AA0001092DB03809140038823B1F086E192E03D
:101AB0000E9416166AE070E0809144030E940216AC
:101AC00008C080914003882339F08EE192E00E94A3
:101AD00016168BE30E944E168091DF03882339F09F
:101AE0008EEE91E00E9416168BE30E944E168091B6
:101AF00040038823A1F0811007C081E292E00E9498
:101B000016168BE30E944E1680910404811107C0C3
:101B100082E192E00E9416168BE30E944E1683E04B
:101B20000E944E1680E691E00E9416168091DD0319
:101B3000811102C01092DE038091DA038E3F60F0C3
:101B40008091E2039091E303892B31F481E592E0E7
:101B50000E94A0161092DE038091DE03811181C1E4
:101B60008BE393E00E9474147CC156010C94E00353
:101B70008091DC0381508093DC0311E00C945804C5
:101B80008091DC0381508093DC0311E00C949E046F
:101B9000101611060CF062C1B0928C028ECCF701C7
:101BA000E156FF4F808190E001970817190731F542
:101BB000F2CCC201B1010E9461275FCD80E08CCDE3
:101BC00081E08ACD882309F47BCD8AA59BA5801B63
:101BD000910B20919102022E000C330B281739072C
:101BE0000CF082C9BD86B986BE86BA86BF86BB8622
:101BF000B88ABC863FC0109293020BC080919302BA
:101C0000811107C0F701E056FF4F008341E0409388
:101C100093026F8D78A1C70145960E94D213F701F8
:101C2000E656FF4F80815AE0D59E800D11248A3000
:101C300008F48C5900FD03C02D899E8902C02B89B0
:101C40009C89E22FF92F90E0482F50E06081262FE9
:101C5000062E000C330B2417350719F06F3F19F4CB
:101C60008083292F01C02FEF9F5F943019F03196A8
:101C70002F3F61F30F5F1F4F6F8D78A16F5F7F4F15
:101C800078A36F8F48CC0FEF010F023008F4ADC975
:101C9000E02EF12CA0908902B0908A02B701625028
:101CA0007109C50145960E94D213F501E656FF4F12
:101CB000808190E020918D02022E000C330BD70121
:101CC00011977D018217930741F020918E02022E19
:101CD000000C330B82179307F1F4A0908902B090A7
:101CE0008A02B701C50145960E94D213F501E65656
:101CF000FF4F808190E020918D02022E000C330B6B
:101D00008217930761F120918E02022E000C330B93
:101D10008217930721F1A0908902B0908A02B7013F
:101D2000C50145960E94D213F501E656FF4F20816A
:101D300030E080918E02082E000C990B281739078D
:101D400009F053C9E0918902F0918A02E056FF4FF1
:101D50000250008300E08D2D0E946E1796CF025036
:101D6000FACFDC240F5F8D2D0E946E174CC9BFEF98
:101D7000EB1AFB0AB701C50145960E94D213F50183
:101D8000E656FF4F208130E080918E02082E000C35
:101D9000990B2817390709F453C0A0908902B09015
:101DA0008A02B701C50145960E94D213F501E65695
:101DB000FF4F208130E080918C02082E000C990B9F
:101DC0002817390709F01FCAE0918902F0918A02A9
:101DD000E753FF4F108217CAEFEFEE1AFE0AB70162
:101DE000C50145960E94D213F501E656FF4F2081AA
:101DF00030E080918D02082E000C990B28173907CE
:101E0000F9F0A0908902B0908A02B701C501459609
:101E10000E94D213F501E656FF4F208130E08091F9
:101E20008B02082E000C990B2817390709F02FC9CF
:101E3000E0918902F0918A02E753FF4F108227C98F
:101E40000F5F90CFB0928D02FFA1FF5FFFA32F899C
:101E5000388D201B310B388F2F8B38CBB0928B02F3
:101E6000F3CFE7960FB6F894DEBF0FBECDBFDF917C
:101E7000CF911F910F91FF90EF90DF90CF90BF9087
:101E8000AF909F908F907F906F905F904F903F901A
:101E90002F900895CF92DF92EF92FF920F931F93AE
:101EA000CF93DF936C017A018B01C0E0D0E0CE15B7
:101EB000DF0589F0D8016D918D01D601ED91FC917E
:101EC0000190F081E02DC6010995892B11F47E0166
:101ED00002C02196ECCFC701DF91CF911F910F91E6
:101EE000FF90EF90DF90CF900895089580E090E00C
:101EF0000895FC01538D448D252F30E0842F90E010
:101F0000821B930B541710F0CF96089501970895F4
:101F1000FC01918D828D981761F0828DDF01A80FF1
:101F2000B11D5D968C91928D9F5F9F73928F90E013
:101F300008958FEF9FEF0895FC01918D828D981782
:101F400031F0828DE80FF11D858D90E008958FEFBF
:101F50009FEF0895FC01918D228D892F90E0805C88
:101F60009F4F821B91098F739927089584E992E00E
:101F70000E94AA0F21E0892B09F420E0822F089506
:101F8000FC01848DDF01A80FB11DA35ABF4F2C9116
:101F9000848D90E001968F739927848FA689B789E5
:101FA0002C93A089B1898C9180648C93938D848DBE
:101FB000981306C00288F389E02D80818F7D80838D
:101FC0000895EF92FF920F931F93CF93DF93EC014D
:101FD00081E0888F9B8D8C8D981305C0E889F989E5
:101FE000808185FD24C0F62E0B8D10E00F5F1F4F02
:101FF0000F731127E02E8C8DE8120CC00FB607FC72
:10200000FACFE889F989808185FFF5CFCE010E945A
:10201000C00FF1CF8B8DFE01E80FF11DE35AFF4F8A
:10202000F0820B8FEA89FB898081806207C0EE898C
:10203000FF896083E889F98980818064808381E0F9
:1020400090E0DF91CF911F910F91FF90EF90089555
:10205000CF93DF93EC01888D8823C9F0EA89FB894F
:10206000808185FD05C0A889B9898C9186FD0FC046
:102070000FB607FCF5CF808185FFF2CFA889B9891B
:102080008C9185FFEDCFCE010E94C00FE7CFDF918D
:10209000CF91089508950895FC0109940E94CC29D8
:1020A000FC0180819181009711F00C94A22560E0E1
:1020B00070E0CB010895FC0124813581232B31F49C
:1020C00021E061157105A1F0FB0108C0FC018081D0
:1020D00091816115710531F421E0FC018081882333
:1020E00039F005C00E94F82921E0892B09F020E091
:1020F000822F08950F931F93CF93DF93EC01888174
:102100009981009729F02A813B812617370788F4A7
:102110008B016F5F7F4F0E940229009761F09983C6
:1021200088831B830A832C813D81232B11F4FC01BE
:10213000108281E001C080E0DF91CF911F910F916B
:102140000895EF92FF920F931F93CF93DF93EC01CB
:102150007B018A01BA010E947A102881398181119C
:102160000DC02115310519F0C9010E940A251982F7
:1021700018821D821C821B821A8206C01D830C835A
:10218000B701C9010E94012ACE01DF91CF911F91B1
:102190000F91FF90EF900895CF93DF93EC016115BD
:1021A000710559F0FB0101900020E9F73197AF016B
:1021B000461B570B0E94A1100CC088819981009783
:1021C00011F00E940A25198218821D821C821B822E
:1021D0001A82CE01DF91CF910895FF920F931F9342
:1021E000CF93DF9300D0CDB7DEB7FF24F39484E91B
:1021F00092E00E94AA0F892B09F446C084E992E07C
:102200000E94880F8A3041F01CF4882329F007C00F
:102210008D3011F0833219F4F092370222C0898395
:102220001A820091390310913A030F5F1F4FB801D2
:1022300085E393E00E947A10882399F0209135037A
:10224000309136038091390390913A03BE016F5F5C
:102250007F4F820F931F0E94012A10933A0300932D
:1022600039038091390390913A038F35914008F4F6
:10227000BECF61E671E085E393E00E94CC108AEA6C
:1022800092E00E94A016B3CF0F900F90DF91CF91F4
:102290001F910F91FF9008950E94B60F81110C9429
:1022A000ED100895FC01808191810C940A25FC01B8
:1022B00011821082138212821582148261157105B7
:1022C00051F0FB0101900020E9F73197AF01461B67
:1022D000570B0C94A11008951F920F920FB60F92F6
:1022E00011242F933F934F935F936F937F938F931B
:1022F0009F93AF93BF93EF93FF9384E992E00E9483
:10230000C00FFF91EF91BF91AF919F918F917F91FE
:102310006F915F914F913F912F910F900FBE0F9052
:102320001F9018951F920F920FB60F9211242F93A2
:102330008F939F93EF93FF93E091A402F091A502F6
:102340008081E091AA02F091AB0282FD12C09081DF
:102350008091AD028F5F8F732091AE02821751F092
:10236000E091AD02F0E0EC56FD4F958F8093AD0209
:1023700001C08081FF91EF919F918F912F910F90DC
:102380000FBE0F901F9018953FB7F89480914C02A4
:1023900090914D02A0914E02B0914F0226B5A89B9C
:1023A00005C02F3F19F00196A11DB11D3FBFBA2FE7
:1023B000A92F982F8827820F911DA11DB11DBC0147
:1023C000CD0142E0660F771F881F991F4A95D1F70C
:1023D00008958F929F92AF92BF92CF92DF92EF9229
:1023E000FF926B017C010E94C4114B015C01C1147E
:1023F000D104E104F104F1F00E94C411DC01CB012D
:1024000088199909AA09BB09883E9340A105B1051D
:1024100070F321E0C21AD108E108F10888EE880EB5
:1024200083E0981EA11CB11CC114D104E104F10485
:1024300019F7DDCFFF90EF90DF90CF90BF90AF9076
:102440009F908F900895CF92DF92EF92FF920F931B
:102450001F930E94C4110091310310913203209107
:102460003303309134036B017C01C01AD10AE20AB4
:10247000F30A9701860160933103709332038093CE
:102480003303909334030A3511052105310578F1A2
:1024900081E0C8168DE7D806E104F10410F4960136
:1024A00002C021E03DE74A9B03C0319521953109E7
:1024B00080910F048436D8F480910F048F5F80934D
:1024C0000F048091100460910E040E948028909364
:1024D0001004E0911004F0E0EE0FFF1FEE5EFB4FE2
:1024E00031832083809110048F5F809310041F91AB
:1024F0000F91FF90EF90DF90CF9008950F931F936F
:102500000E94C411009131031091320320913303D2
:1025100030913403DC01CB01801B910BA20BB30B78
:1025200082309D47A105B10580F14A9903C02FEF84
:1025300032E802C021E03DE780910F048436D8F4F0
:1025400080910F048F5F80930F048091100460913D
:102550000E040E94802890931004E0911004F0E093
:10256000EE0FFF1FEE5EFB4F31832083809110043E
:102570008F5F809310040E94C411609331037093A5
:102580003203809333039093340320913602E3EABD
:10259000F2E09491EFE8F2E08491EBE7F2E0E4916D
:1025A000EE2309F43BC0992339F1933091F038F4CC
:1025B0009130A9F0923001F594B59F7D12C097300B
:1025C00091F09830A1F09430B9F4909180009F7D03
:1025D00003C0909180009F77909380000DC094B5C8
:1025E0009F7794BD09C09091B0009F7703C09091F0
:1025F000B0009F7D9093B000F0E0EE0FFF1FEC590C
:10260000FD4FA591B4919FB7F894EC91211103C0AF
:1026100080958E2301C08E2B8C939FBF1092360223
:102620001F910F9108951F920F920FB60F921124D0
:102630002F933F938F939F93AF93BF9380913202D9
:1026400090913302A0913402B091350230914B0247
:1026500023E0230F2D3720F40196A11DB11D05C0E5
:1026600026E8230F0296A11DB11D20934B028093F3
:10267000320290933302A0933402B09335028091DA
:102680004C0290914D02A0914E02B0914F020196E2
:10269000A11DB11D80934C0290934D02A0934E0258
:1026A000B0934F02BF91AF919F918F913F912F9126
:1026B0000F900FBE0F901F9018951F920F920FB69C
:1026C0000F9211242F933F934F935F936F937F93B8
:1026D0008F939F93AF93BF93EF93FF93E091040188
:1026E000F09105010995FF91EF91BF91AF919F91F5
:1026F0008F917F916F915F914F913F912F910F90AB
:102700000FBE0F901F9018951F920F920FB60F9249
:1027100011242F933F934F935F936F937F938F93E6
:102720009F93AF93BF93EF93FF93E0910201F091DA
:1027300003010995FF91EF91BF91AF919F918F9107
:102740007F916F915F914F913F912F910F900FBEAD
:102750000F901F9018951F920F920FB60F92112491
:102760002F933F934F935F936F937F938F939F9399
:10277000AF93BF93EF93FF93E0913002F09131025A
:102780000995FF91EF91BF91AF919F918F917F91AB
:102790006F915F914F913F912F910F900FBE0F90CE
:1027A0001F901895CF93DF93FC01EE57FF4F4081A8
:1027B000469FF001479FF00D11249F0153E036958D
:1027C00027955A95E1F7DC01AC57BF4F5C9125176F
:1027D00020F5DC01A20FB11DEC01CD57DF4F2881A0
:1027E00030E0E770FF2702C035952795EA95E2F7BC
:1027F0003C91232330E058E0541B469F402D112488
:102800004770541B02C0359527955A95E2F7322F31
:10281000FC01EB57FF4F208301C03FEF832FDF9177
:10282000CF910895FC01E156FF4F2081222309F446
:102830005AC0E259F109DC0155961192EA17FB07DB
:10284000E1F7411102C04FEF420F262F2695542F7A
:10285000569560FF13C0FC01E756FF4F60812617B5
:1028600020F4FC01E20FF11D3589632F6F70FC012C
:10287000E60FF11D65856F5F65872F5FDC01A75649
:10288000BF4F5217E8F06C91261720F4FC01E20FBD
:10289000F11D3589E32FF0E064E0F595E7956A9541
:1028A000E1F7E80FF91F65856F5F6587632F6F702C
:1028B000FC01E60FF11D65856F5F65872F5FE1CF36
:1028C00040FD11C0FC01E756FF4F2081521720F454
:1028D000FC01E50FF11D35893F70FC01E30FF11D8F
:1028E0008585815085870895CF93DF93FC01E1565C
:1028F000FF4F1082DC01AB53BF4F1C92B796108282
:10290000FC01158AEC56FF4F1082319610823196E9
:1029100027E02083719611821082B0962FEF2083DA
:10292000FC012083EB54FF4FEC012D961192119284
:102930001992EA17FB07D1F7FC01EE55FF4F108201
:10294000339626E930E0318320833C9640E050E026
:1029500060E87EE3408351836283738371971082C2
:102960003396108231961082B4961082319621E00F
:10297000208331961082B9971082DF91CF9108950C
:102980000C940D270C940527CF93C82F803120F489
:1029900083E292E00E94161660E170E08C2FCF91E6
:1029A0000C94021683E292E190930301809302015A
:1029B000E9E6F0E080818C7F81608083E89A089569
:1029C0008EBD0DB407FEFDCF8EB50895CF93DF9376
:1029D0002A981C99FECF8EE70E94E014C0E3D0E055
:1029E000CE010E94C2140E94E0142196C833D10582
:1029F000B9F72A9ADF91CF910895CF93DF931F9271
:102A0000CDB7DEB72A981C99FECF69830E94E014E7
:102A10006981862F0E94E0142A9A0F90DF91CF914E
:102A200008952A981C99FECF862B0E94E01480E01E
:102A30000E94E0142A9A08952A981C99FECF0E94B9
:102A4000E0141C99FECF2A9A0895CF93C82F8031A5
:102A500020F483E292E00E94161660E170E08C2F71
:102A6000CF910C94021690ED980F9A3070F09FE978
:102A7000980F963010F499EA05C09FEB980F9630A6
:102A800018F499EC980F01C0982F892F08951F937F
:102A9000CF93DF93C82FD0E0CE010E9418160E947A
:102AA0003315182F1295107FCE0101960E9418162B
:102AB0000E943315810FDF91CF911F9108950097E8
:102AC00069F0FC0101900020E9F73197AF01481B44
:102AD000590BBC0184E992E00C944A0F80E090E02D
:102AE0000895CF93DF930E945F15EC018FE591E08D
:102AF0000E945F158C0F9D1FDF91CF910895DF928B
:102B0000EF92FF920F931F93CF93DF937C018B0182
:102B1000EA014617570720F4812F8A01C62FD82FC4
:102B200061E671E0C7010E945711809139039091CD
:102B30003A0308171907E0F48C179D0708F4EC0115
:102B4000E0913503F0913603EC0FFD1FD080108229
:102B50006091350370913603600F711FC7010E94A9
:102B6000CC10E0913503F0913603EC0FFD1FD082BD
:102B7000C701DF91CF911F910F91FF90EF90DF90F0
:102B800008958F929F92AF92BF920F931F93CF930E
:102B9000DF93CDB7DEB7A1970FB6F894DEBF0FBEB7
:102BA000CDBF19A2423008F44AE08E010F5D1F4FDD
:102BB000842E912CA12CB12CA50194010E94B42843
:102BC000E62FB901CA0101501109EA3014F4E05DA1
:102BD00001C0E95CD801EC93232B242B252B61F752
:102BE000C8010E945F15A1960FB6F894DEBF0FBE14
:102BF000CDBFDF91CF911F910F91BF90AF909F906C
:102C00008F900895AB01672B59F4E0919402F091F5
:102C100095020190F081E02D682F84E992E00994FB
:102C2000682F70E080E090E00C94C1150C945F1563
:102C30002091390330913A038217930760F4209171
:102C40003503309136032115310529F0F901E80FDC
:102C5000F91F8081089580E008950F931F93CF930B
:102C6000DF938C01C0E0D0E0F801EC0FFD1F649110
:102C7000662371F0E0919402F09195020190F08149
:102C8000E02D84E992E00995892B11F02196ECCF93
:102C9000CE01DF91CF911F910F910895E0919402A1
:102CA000F09195020190F081E02D682F84E992E087
:102CB0000994CF92DF92EF92FF92CF93DF93611549
:102CC000710589F4E0919402F09195020190F081F0
:102CD000E02D682F84E992E0DF91CF91FF90EF9093
:102CE000DF90CF9009946C01990FEE08FF086A30CD
:102CF0007105D9F4F7FE17C08DE20E944E16EC0163
:102D000066277727CB016C197D098E099F094AE058
:102D10000E94C1158C0F9D1FDF91CF91FF90EF9006
:102D2000DF90CF9008954AE001C0462FC701B60159
:102D3000DF91CF91FF90EF90DF90CF900C94C11571
:102D4000CF93DF930E942D16EC018FE591E00E9456
:102D50005F158C0F9D1FDF91CF910895CF93DF9367
:102D6000682F70E080E090E04AE00E94C115EC011D
:102D70008FE591E00E945F158C0F9D1FDF91CF9131
:102D800008950F931F93CF931092DE03882309F4C5
:102D9000A1C09091DA03992309F49CC0C82F492F50
:102DA00050E0282F30E024173507A4F0981758F486
:102DB0008FEB92E00E942D1687EB92E00E942D1679
:102DC0008C2F0E94AE168BE393E0CF911F910F9151
:102DD0000C9474148091D003482F50E0421753078D
:102DE00008F46EC0B90176956795B62F241735079C
:102DF00039F4109250031092CF031092D0033BC0CD
:102E00004091CF03C0FF3DC000E513E0A62FAB1BF0
:102E1000641798F4E62FF0E0E55CFC4F2689522F0A
:102E200052955F70958970E1979F90011124252B31
:102E3000F80121938F016F5FE9CF80FD0CC0B0E0F6
:102E4000A55CBC4FE62FF0E0E55CFC4F95899295C0
:102E5000907F55969C938C1B8093D003482F50E015
:102E60009A012150310937FD9A0135952795209314
:102E7000CF0380FD02C087E001C083E08093D103CF
:102E800011C0461B4093CF0350E04F5F5F4F605B24
:102E90007C4F80E593E00E94E6298091D0038C1B53
:102EA0008093D00381E08093DE038091D0038093F0
:102EB000DA0381110FC01092EB031092EA030AC0EB
:102EC00085E292E00E9416168C2FCF911F910F91F0
:102ED0000C94AE16CF911F910F910895909184029A
:102EE000409183029730A9F4442399F0E091820243
:102EF0006E2F70E02091870230E021503109621777
:102F00007307A4F5EF5FE0938202F0E0E05BFD4F12
:102F1000108250918502652F70E0292F30E02F5FDD
:102F20003F4F261B370B1216130624F401C0880FDF
:102F30002A95EAF7E0918202F0E0E05BFD4F208104
:102F4000822B80834F5F40938302292F092E000C30
:102F5000330B261B370B37FD04C0951B909384025F
:102F600003C087E08093840281E0089580E00895A3
:102F7000CF93DF93CDB7DEB7C659D1090FB6F8941A
:102F8000DEBF0FBECDBF789484B5826084BD84B5AA
:102F9000816084BD85B5826085BD85B5816085BD54
:102FA00080916E00816080936E001092810080910C
:102FB0008100826080938100809181008160809394
:102FC0008100809180008160809380008091B100B9
:102FD00084608093B1008091B00081608093B000E4
:102FE00080917A00846080937A0080917A00826078
:102FF00080937A0080917A00816080937A0080913A
:103000007A00806880937A001092C100E091A40257
:10301000F091A50282E08083E091A402F091A502E4
:103020001082E091A002F091A1021082E091A20230
:10303000F091A30280E180831092AC02E091A8029B
:10304000F091A90286E08083E091A602F091A702A8
:10305000808180618083E091A602F091A702808147
:1030600088608083E091A602F091A7028081806849
:103070008083E091A602F091A70280818F7D8083FA
:103080008AEC90E00E94A0165298259A80E090E089
:103090000E94C214833339F481E090E00E94C2148C
:1030A0008D3209F4EFC76FEB8FEF90E00E94C014F0
:1030B00060E580EF90E00E94C01463E082EF90E052
:1030C0000E94C0146BE183EF90E00E94C01468E599
:1030D00084EF90E00E94C01460E081EF90E00E94D5
:1030E000C01488E690E00E94A01663E380E090E0C0
:1030F0000E94C0146DE281E090E00E94C0148FEF46
:1031000090E00E94C214982F917090933E0381FB2F
:10311000992790F990933C0382FB992790F990931B
:103120003D0383FB992790F990933F0384FB9927F4
:1031300090F99093400385FB992790F990930601AD
:1031400086FB882780F98093410380EF90E00E94FE
:10315000C2148093070182EF90E00E94C214809312
:10316000420383EF90E00E94C214182F84EF90E096
:103170000E94C214212F110F330B322F2227280F48
:10318000311D309346032093450381EF90E00E9468
:10319000C21480930604811103C081E18093060468
:1031A000239A80914003882321F088EB90E00E94CD
:1031B000A01662E370E080E090E00E94E91180E1F7
:1031C000809381001092800082E080933A0288E12F
:1031D00099E7909339028093380290938700809307
:1031E000860082E1809381008EE792E19093310224
:1031F0008093300281E080936F006EE571E085E39B
:1032000093E00E947A100E94D21480914003882398
:1032100021F087EA90E00E94A0168E010F5F1F4FF9
:103220001E012FE6220E311C8CE08219CE56DF4F94
:103230008883C259D04080913702882309F449C558
:103240001092370280E090E00E941816803549F411
:1032500080E291E00E9471158BEC97E00197F1F705
:103260002BC58F3309F043C00E944E1689EA91E0C6
:103270000E942D1686E50E944E1680E20E944E1690
:1032800082E50E944E1680E20E944E1684E70E945C
:103290004E1680E20E944E1688E50E944E1680E28D
:1032A0000E944E1686E40E944E1680E20E944E1640
:1032B00083E50E944E1680E20E944E1680E50E9431
:1032C0004E1680E20E944E1683E40E944E1680E263
:1032D0000E944E1682E70E944E1680E20E944E1611
:1032E00087E50E944E1680E20E944E1659C386352D
:1032F00049F483E291E00E9416168CE391E00E946B
:103300007115DAC4823531F58091DA049091DB04CD
:10331000009711F48EED94E06801C81AD90A0D2CBB
:10332000000CEE08FF08F7FE0BC08DE20E944E165F
:1033300066277727CB016C197D098E099F0969C320
:103340004AE0C701B6010E94C1158FE591E00E94D5
:103350005F15B2C4833509F026C3E8988AE490E18A
:103360009093030180930201A12CB12CDD24DA9407
:10337000CE57DF4F1882C258D040712C31E0C7576A
:10338000DF4F3883C958D040B6E1CB2E8BE0682E92
:103390005524539462E671E0C1010E945711809157
:1033A000390390913A03A816B90690F4809035033A
:1033B00090903603F10160817181C4018A0D9B1DDB
:1033C0000E94082A009721F07C01E818F90803C040
:1033D000EE24EA94FE2CC1010E945211FFEFEF1679
:1033E000FF0621F4EA961FAEEA9734C12FEFA2162A
:1033F000B206C1F3C5010E941816282F809301015F
:10340000C5010196CA56DF4F2883C659D0400E9495
:103410001816382F80930001CA56DF4F2881C659ED
:10342000D040233529F12035D9F4C5010296CB5679
:10343000DF4F3883C559D0400E941816CA56DF4F57
:103440002881C659D040CB56DF4F3881C559D0406E
:103450008D3309F0B5C0450163E0860E911C0AC0AA
:103460008D3309F0ADC0450172E0870E911C02C09A
:10347000812C912C57018FEFA81AB80A2335B9F483
:1034800065E0D61609F49CC0333409F496C03D3487
:1034900019F0323509F07ECFD394F801CD9CE00DC0
:1034A000F11D112411821082558A712C73CF22359F
:1034B00019F5772071F0A701B401C1010E947F15B1
:1034C000C1010E945010C757DF4F6883C958D040D0
:1034D00060C07FEFD71609F45DCFA701B401C10129
:1034E0000E947F15C1010E945010F801CD9CE00D93
:1034F000F11D1124658B4DC08FEFD81609F44ACF0A
:10350000203541F5A40141505109B40162507109BF
:10351000C1010E947F15C1010E945010462EC101B9
:103520000E94521198E0941508F44AC0A701B40112
:10353000C1010E947F15C1010E9450106D9CF001D5
:103540001124E40DF11DEE0FFF1FE00FF11F768334
:1035500065831FC0243461F4F801CD9CE00DF11D9A
:1035600011248282A1E0EA1AF108F482E38212CFE8
:10357000233499F4A701B401C1010E947F15C10150
:103580000E945010F801CD9CE00DF11D11247183B3
:103590006083C1010E945211FDCE263409F0FACE9B
:1035A000C5018819990997FD019695958795CE577C
:1035B000DF4F8883C258D040EDCE77247394EACE93
:1035C00088EE90E00E942D16E9C1A6E1E6968FAC48
:1035D000E697A89DC0011124F801E80FF91F20818A
:1035E0003181232B09F445C0F12C9F012B5E3F4F05
:1035F000C457DF4F39832883CC58D0404F01225124
:103600003109C257DF4F39832883CE58D04021502B
:103610003109C057DF4F39832883C059D040C45780
:10362000DF4FA881B981CC58D0408C91F81608F4AE
:10363000A2C02B98E6962FADE6972F5FE6962FAFA8
:10364000E697D21610F6EA962FADEA972F5FEA9624
:103650002FAFEA97EA963FADEA97C757DF4F8880CA
:10366000C958D040381509F45FC1E6961FAEE697F9
:10367000ACCFC12C9F012B5E3F4FEE963FAF2EAFDC
:10368000EE9705964801880E991EC258DF4F998221
:103690008882CE57D04022513109CD57DF4F398330
:1036A0002883C358D04021503109CB57DF4F39838D
:1036B0002883C558D040EE96AEADBFADEE978C9145
:1036C000C81608F0B6CFCD57DF4FA881B981C358CF
:1036D000D0400D90BC91A02DEC96BFAFAEAFEC9753
:1036E000CB57DF4FE881F981C558D040E0800E9478
:1036F000C4112B013C01F12CEC968EAC9FACEC97E5
:103700008E149F0478F1C7010E9418168053C25886
:10371000DF4FE881F981CE57D040E80FF11DE80F67
:10372000F11D80809180540197FE04C0AA24BB241F
:10373000A818B9080E94C411641575058605970577
:10374000C8F397FE02C02B9801C02B9AC501BB0C91
:10375000AA0BBB0B480E591E6A1E7B1EFFEFEF1A09
:10376000FF0ACACF0E94C411641575058605970526
:10377000C8F3C394A0CFFF2031F061E070E080E097
:1037800090E00E94E911D401AD90BC90C257DF4F88
:10379000E881F981CE58D040F081CD57DF4FF883D2
:1037A000C358D040C057DF4FA881B981C059D0401D
:1037B000EC900E94C4112B013C01B501BB0C880B9D
:1037C000990BC258DF4F688379838A839B83CE57D6
:1037D000D040660F771F881F991FCB57DF4F688334
:1037E00079838A839B83C558D040CD57DF4FA8800B
:1037F000C358D040AE1408F495C08E2D90E00E94BE
:1038000018168A3314F097E301C090E3891B24E073
:1038100030E0EC963FAF2EAFEC9728E0C22EA82EFA
:10382000880FBB08C657DF4FB982A882CA58D0405C
:10383000A3019201ED961FAEED97AC2CB12CC657AB
:10384000DF4F68817981CA58D040A622B722A114DF
:10385000B10409F449C02B98C258DF4F888199817F
:10386000AA81BB81CE57D040280F391F4A1F5B1F4A
:10387000CA56DF4F2883C659D040CB56DF4F388316
:10388000C559D040CD56DF4F4883C359D040CC56A0
:10389000DF4F5883C459D0400E94C411CA56DF4F2D
:1038A0002881C659D040CB56DF4F3881C559D0400A
:1038B000CD56DF4F4881C359D040CC56DF4F588199
:1038C000C459D040621773078407950788F2ED96B4
:1038D0009FADED97913051F061E0ED966FAFED97B0
:1038E000A114B10409F4B7CF2B9AB6CFCB57DF4F51
:1038F000688179818A819B81C558D040460E571EC8
:10390000681E791EC694EC962EAD3FADEC97215003
:103910003109EC963FAF2EAFEC97232B09F088CFFF
:10392000E39463CFF3947BCE4091390350913A03F3
:10393000609135037091360384E992E00E944A0F4A
:10394000CE57DF4F9880C258D040992039F186ED8C
:1039500090E00E942D1671018E2D8219CE57DF4FF7
:103960008880C258D0408815C8F4D7016D917D0178
:10397000862FCD56DF4F6883C359D0400E94C414B0
:10398000CD56DF4F6881C359D040CE56DF4F888176
:10399000C259D0408E0D0E94FD14DECF0E94D21479
:1039A00081E691E0ACCC8437B1F58FB7F894C09044
:1039B0003202D0903302E0903402F09035028FBF93
:1039C000C701B60128EE33E040E050E00E94B42881
:1039D000CA01B90180903D0290903E02A0903F0242
:1039E000B0904002C814D904EA04FB0450F42091BA
:1039F0003B0230913C022F5F3F4F30933C022093BB
:103A00003B02C0923D02D0923E02E0923F02F09211
:103A100040024AE098CC8835B9F481E090E00E94F9
:103A20001816813539F4E8988AE490E190930301FF
:103A30008093020181E090E00E941816853409F01D
:103A40003BC10E94D21438C1863409F435C1833495
:103A500009F08AC081E090E00E941816282F873470
:103A600009F07CC084E591E00E942D1680913E0310
:103A70006AE070E090E00E9459168FE491E00E94A5
:103A80002D1680913C036AE070E090E00E94591688
:103A90008AE491E00E942D1680913D036AE070E077
:103AA00090E00E94591683E491E00E942D168091C7
:103AB0003F036AE070E090E00E9459168091060191
:103AC000811104C08CE391E00E942D168091410386
:103AD000882321F083E391E00E942D168AE291E091
:103AE0000E942D16809140036AE070E090E00E94F1
:103AF000591682E291E00E942D166AE070E08091F2
:103B000042030E94021682E191E00E942D1660910C
:103B100045037091460380E090E04AE00E94C115A1
:103B200080910604813151F084E091E00E942D16CD
:103B30006AE070E0809106040E94021680914003C2
:103B4000882309F42DCF84EF90E00E942D166AE0BF
:103B500070E0809107010E94021622CF8CEB820F49
:103B6000823008F094C24FC0873589F581E090E03B
:103B70000E941816082E000C990B0E94D129892B3F
:103B800009F46FC382E090E00E941816082E000C22
:103B9000990B0E94D129892B09F463C383E090E03B
:103BA0000E941816082E000C990B0E94D129892B0F
:103BB00009F457C384E090E00E941816082E000C08
:103BC000990B0E94D129892B09F038C34AC3823747
:103BD00009F04AC381E090E00E941816082E000CFC
:103BE000990B0E94D129892B09F43EC382E090E011
:103BF0000E941816082E000C990B0E94D129892BBF
:103C000009F037C331C382E090E0CA56DF4F288302
:103C1000C659D0400E941816CA56DF4F2881C6598F
:103C2000D040833509F4DBC5853509F4C6C5833436
:103C300009F4C6C5823509F4C6C5843409F4C6C57D
:103C40008C3409F4C6C5863409F0C6C5E1E4F3E056
:103C5000253409F0C7C581E0808360913E03962F2B
:103C6000906860913C03660F692B90913D0324E0BE
:103C7000929FC0011124682B90913F0338E0939FDD
:103C8000F00111246E2B9091400370E1979FA001E9
:103C90001124642B9091060180E2989F90011124D9
:103CA000622B90914103A0E49A9FC0011124682BDC
:103CB0008FEF90E00E94C01480913702811106C0FE
:103CC00061E671E085E393E00E94CC1081E080938F
:103CD00036021092470397E0E92E80910F04882363
:103CE00009F4CDC180910F04815080930F0480911D
:103CF000110460910E040E94802890931104E091B9
:103D0000110481E08E0F80931104F0E0EE0FFF1F8D
:103D1000EE5EFB4F8081918190934202809341023D
:103D20001092DD036091DA036623E9F070E06150E0
:103D3000710980E593E00E94D2138091D50390E051
:103D4000880F991F80519C4F9093EB038093EA0357
:103D5000E091E803F091E903808191819093D90388
:103D60008093D80304C01092EB031092EA032091D1
:103D7000410230914202E091E803F091E90331837E
:103D800020838091DA03882361F0E091EA03F091C7
:103D9000EB03309731F0408151814227532757FF81
:103DA00003C02115334834F580E00E9496018091CC
:103DB000DA038111F9CF1092EB031092EA0380919C
:103DC0004203809343031092440320910104E09145
:103DD000E803F091E90380819181E22FF0E0EE0F9A
:103DE000FF1FE051FC4F918380832F5F20930104DC
:103DF000F12CFBC08E3F50F081E00E94960140E024
:103E000060E08BE393E00E94121435C0883299F58C
:103E1000E3E08E2E912C9092E3038092E203809156
:103E2000080490910904009751F420910A043091FC
:103E30000B04232B21F420910C0420FF1CC0E091E3
:103E40000A04F0910B0440910C0450910D049A0166
:103E50003595279540FF0AC0DC01A20FB31F4D9195
:103E60005C91E40FF51F0190F081E02D820F931F0C
:103E7000099580930704A090E803B090E903D50169
:103E8000CD90DC90B601D7FE04C0662777276C1969
:103E90007D09072E000C880B990B0E94E5252DEC5F
:103EA0003CEC4CE45EE30E9444260E944728AB01B0
:103EB0007093E1036093E00390900004E0EFF3E07F
:103EC00080E090E0F82E891500F521913191B9013B
:103ED0006C257D2577FD17C021153105A1F0DC018A
:103EE000A55CBC4F1D966C91662369F0B601621B00
:103EF000730B9B0177FF03C0319521953109421760
:103F000053070CF0EBC10196DDCFB8E09B1248C01F
:103F1000E0910104F0E0E55CFC4F8585833080F0A2
:103F20008091E2039091E303181619064CF481E0A6
:103F30000E94960140E060E08BE393E00E9412143F
:103F4000F090DA03FF2061F1FA94E0910104F0E0CF
:103F5000E55CFC4F8585882319F16F2D70E080E5C5
:103F600093E00E94D2139091D5038091010498139D
:103F70000BC081E08F0D0E94C11640E060E08BE332
:103F800093E00E9412140CC0E1E0FE12DDCF80919C
:103F9000DA038E3FC8F28EE392E00E94A016D4CFDF
:103FA000F0900104E091E803F091E90380819181B0
:103FB000EF2DF0E0EE0FFF1FE051FC4F9183808367
:103FC00081E08F0D883019F08093010406C01092B3
:103FD00001048093000410920304809101049091E5
:103FE0000004981710F4809300043F2D8091D103B2
:103FF0009091D0038730B1F49923A1F0E091CF03E1
:104000006E2F70E04091D40350E041505109641785
:1040100075070CF0C5C1EF5FE093CF03F0E0E55CFE
:10402000FC4F158A2091D203422F50E0682F70E098
:104030006F5F7F4F641B750B161617062CF43F2D10
:1040400001C0330F6A95EAF7E091CF03F0E0E55C39
:10405000FC4F6589362B358B9F5F9093D003682F7B
:10406000082E000C770B4B01841A950A97FC04C0AC
:10407000821B8093D1035AC1E092D10357C10E94A1
:104080004C11D9C88CE890E00E94A01638C823359E
:1040900009F0D1C048E050E062E070E0C8010E9441
:1040A0007F1564E671E0C8010E945B10F82EC8011C
:1040B0000E945211FF20E1F04091390350913A03E0
:1040C00068E070E0C8010E947F15C8010E9450108E
:1040D00060930604C8010E9452116091060481EFAA
:1040E00090E00E94C0146AE070E0809106042DC048
:1040F00048E050E062E070E0C8010E947F156BE686
:1041000071E0C8010E945B10F82EC8010E94521194
:10411000FF20F1F04091390350913A0368E070E0DC
:10412000C8010E947F15C8010E945010609342038D
:10413000C8010E9452116091420382EF90E00E94F8
:10414000C0146AE070E0809142030E94021670C0C1
:104150004CE050E062E070E0C8010E947F1562E729
:1041600071E0C8010E945B10F82EC8010E94521134
:10417000FF2021F14091390350913A036CE070E047
:10418000C8010E947F15C8010E945010609307016A
:10419000C801CD56DF4F6883C359D0400E945211E9
:1041A000CD56DF4F6881C359D04080EF90E00E9428
:1041B000C0146AE070E080910701C7CF4BE050E087
:1041C00062E070E0C8010E947F156DE771E0C801F0
:1041D0000E945B10F82EC8010E945211FF2041F18D
:1041E0004091390350913A036BE070E0C8010E949E
:1041F0007F15C8010E9450107093460360934503D9
:10420000C8010E9452116091460383EF90E00E9422
:10421000C0146091450384EF90E00E94C014609147
:1042200045037091460380E090E04AE00E94C1158A
:1042300088E591E01BC085E991E018C081E00E940B
:104240004715E82E83E00E944715F82E682F8E2D23
:1042500090E00E94C01470EFE7122ECDF09207019B
:104260002BCD81E891E002C08EE591E00E94A0167E
:1042700023CD81E00E944715E82E89E791E00E9456
:104280002D168E2D0E94C41483E090E00E94181613
:10429000F12C8E36C9F486E791E00E942D16C12CD0
:1042A000D12C88EB91E00E941616C6018E0D9F1D41
:1042B0000E94C2140E94C414BFEFCB1ADB0AE0E1D3
:1042C000CE16D10471F76CCB82E791E00E942D16D7
:1042D000C7010E94C2140E94C41462CBF7FC15CE21
:1042E0008F2D880F990BDC01A051BC4F6D016D9192
:1042F0007C91AB01770F660B770BF5018081918183
:10430000092E000CAA0BBB0B4A015B01880E991EFB
:10431000AA1EBB1EC501B40122E030E040E050E01F
:104320000E94D628D6012D933C935FCE8091DA036C
:104330008F5F8093DA03E091E803F091E9038081D5
:1043400091819093D7038093D603EF2DFF0CFF0B41
:10435000E55CFC4F85858F5F8587809140038823CE
:1043600089F080914703882369F0F0900F048091D1
:1043700007018F1538F48DE492E00E942D168F2DE1
:104380000E94AE1680914703882339F08091060180
:10439000882319F081E080933602109247039DCC68
:1043A00089E392E00E942D166AE070E08F2D0E9452
:1043B00002168FE292E00E942D166AE070E0809172
:1043C000CF030E9402168BE192E00E94A01682EDBC
:1043D00091E00E941616E0910204E7FDDBC0EE0FAB
:1043E000FF0BE051FC4F6AE070E0808191810E94F8
:1043F000591687E891E00E941616E0910204EE0F2C
:10440000FF0BE051FC4F60817181072E000C880B7F
:10441000990B0E94E5254B015C01E0913B03EE0FF7
:10442000FF0BE051FC4F60817181072E000C880B5F
:10443000990B0E94E5259B01AC01C501B4010E94C6
:10444000CE274B015C012B013C019B01AC010E947A
:104450007B28882319F086E991E021C0C501B401C9
:104460009F77E9966CAF7DAF8EAF9FAFE9972FEF47
:104470003FEF4FE75FE70E947B28811113C02FEFCA
:104480003FEF4FE75FE7E9966CAD7DAD8EAD9FAD39
:10449000E9970E94DE2518162CF48AE991E00E9423
:1044A0005F1574C02FEF3FEF4FE75FE4C501B40124
:1044B0000E94762818161CF48EE991E0F0CF2FEFB9
:1044C0003FEF4FE75FECC501B4010E94DE2587FD99
:1044D000F3CF20E030E0A901C501B4010E94DE2540
:1044E00087FF09C08DE20E944E162401350177FA3C
:1044F000709477F870942AE037ED43EA5BE3C301E8
:10450000B2010E9462272B013C010E9447284B0107
:104510005C010E94E3259B01AC01C301B2010E9432
:1045200061272B013C014AE0C501B4010E94C1157D
:104530008EE20E944E1620E030E040E251E4C301DA
:10454000B2010E9444264B015C010E9447282B01C6
:10455000612C712C4AE0C301B2010E94C115C30154
:10456000B2010E94E3259B01AC01C501B4010E9488
:10457000612720E030E040E251E40E9444260E949E
:10458000472880E090E04AE00E94C11582EA91E06D
:104590000E94161684EA91E00E941616E0913B03F1
:1045A000E7FD0BC0EE0FFF0BE051FC4F6AE070E03F
:1045B000808191810E94591604C08DEA91E00E9489
:1045C00016168FE092E00E942D166AE070E080914E
:1045D00000040E94021682EB91E00E9416166AE027
:1045E00070E0809101040E94021685EB91E00E9428
:1045F00016168BEF91E00E942D16E091E803F091E2
:10460000E9036AE070E0808191810E94591687EB8E
:1046100091E00E941616E091EA03F091EB036AE044
:1046200070E0808191810E94591687EB91E00E9491
:1046300016166AE070E08091D6039091D7030E942D
:10464000591687EB91E00E9416166AE070E080919F
:10465000D8039091D9030E94591680EF91E00E94EF
:104660002D166AE070E08091DB030E94021687EE4F
:1046700091E00E942D166AE070E08091DC030E94B8
:1046800002168CED91E00E942D166AE070E0809198
:10469000D0030E94021684ED91E00E942D168091B5
:1046A00003046AE070E090E00E94591689EC91E002
:1046B0000E942D168091DE036AE070E090E00E9477
:1046C00059168FEB91E00E942D166AE070E0809100
:1046D000E2039091E3030E9459168FE591E00E9456
:1046E0005F1586EB91E00E942D16D12C8091DA03A4
:1046F000D81688F46D2D70E080E593E00E94D21307
:104700008091D5036AE070E0082E000C990B0E949E
:104710005916D394EBCF8AEB91E00E9416168DEBDD
:1047200091E00E9416166AE070E08091DA030E9420
:10473000021680EC91E00E94711582EC91E00E94DB
:104740001616D12C80910004D81670F58CEC91E0EF
:104750000E9416166AE070E08D2D0E94021686ED0A
:1047600091E00E941616AD2CB12CF501E55CFC4FD2
:104770006AE070E085850E9402168FEC91E00E944D
:104780001616F501EE0FFF1FE051FC4F808191815D
:10479000009721F06AE070E00E94591680EC91E0E9
:1047A0000E941616D394CECF81E691E00E94711537
:1047B00081E691E00E947115BECDECE3F3E048CABA
:1047C000EDE3F3E045CAEFE3F3E042CAE0E4F3E0EF
:1047D0003FCAE6E0F1E03CCAE0E0F0E039CAEEE3CF
:1047E000F3E036CA108239CA85E393E00C94521183
:1047F000CF93DF93E4E9F2E01382128288EE93E034
:10480000A0E0B0E084839583A683B78382E191E042
:104810009183808385EC90E09587848784EC90E099
:104820009787868780EC90E0918B808B81EC90E07D
:10483000938B828B82EC90E0958B848B86EC90E05E
:10484000978B868B118E128E138E148EEEE0F4E011
:1048500084E68083118213821282CBE3D3E08FE758
:104860008093D40384E08093D2031D8A1092CF03F7
:104870001092D00387E08093D10380EF8093D3031D
:10488000E4EEF3E0F093E903E093E80386EE93E0CF
:104890009093EB038093EA031092090410920804AA
:1048A00010920B0410920A0410920D0410920C0442
:1048B00011821082CE010E94741481E1809306045B
:1048C0001886198661E671E085E393E00E9457112E
:1048D0000E94C411609331037093320380933303B9
:1048E00090933403DF91CF910895CF93DF9382307B
:1048F000910510F482E090E0E091DC04F091DD0499
:1049000020E030E0C0E0D0E0309711F140815181EB
:1049100048175907C0F04817590761F482819381FD
:10492000209719F09B838A832BC09093DD0480939A
:10493000DC0426C02115310519F04217530718F47D
:104940009A01BE01DF01EF010280F381E02DDCCF8F
:104950002115310509F1281B390B2430310590F45C
:1049600012968D919C9113976115710521F0FB01B1
:104970009383828304C09093DD048093DC04FD0163
:10498000329644C0FD01E20FF31F819391932250B0
:1049900031092D933C933AC02091DA043091DB0425
:1049A000232B41F420910A0130910B013093DB0459
:1049B0002093DA0420910801309109012115310575
:1049C00041F42DB73EB740910C0150910D01241BCD
:1049D000350BE091DA04F091DB04E217F307A0F461
:1049E0002E1B3F0B2817390778F0AC014E5F5F4F45
:1049F0002417350748F04E0F5F1F5093DB04409398
:104A0000DA048193919302C0E0E0F0E0CF01DF91FE
:104A1000CF9108950F931F93CF93DF93009709F4DD
:104A20008CC0FC013297138212820091DC04109139
:104A3000DD040115110581F420813181820F931F5E
:104A40002091DA043091DB042817390779F5F093C7
:104A5000DB04E093DA0471C0D80140E050E0AE1707
:104A6000BF0750F412962D913C911397AD0121157B
:104A7000310509F1D901F3CF9D01DA013383228396
:104A800060817181860F971F8217930769F4EC018B
:104A900028813981260F371F2E5F3F4F31832083B6
:104AA0008A819B8193838283452B29F4F093DD04D3
:104AB000E093DC0442C01396FC93EE931297ED0151
:104AC000499159919E01240F351FE217F30771F4A4
:104AD00080819181840F951F029611969C938E93ED
:104AE0008281938113969C938E931297E0E0F0E07D
:104AF000D80112968D919C911397009719F0F801A7
:104B00008C01F6CF8D919C9198012E5F3F4F820FC3
:104B1000931F2091DA043091DB042817390769F4D8
:104B2000309729F41092DD041092DC0402C0138245
:104B300012821093DB040093DA04DF91CF911F916E
:104B40000F9108951F93FC0199278827BC01E894D1
:104B500011911032E9F3193010F01E30C8F31B32F6
:104B600051F01D3249F4689406C00E94C925610FB6
:104B7000711D811D911D119110531A30B0F33EF437
:104B800090958095709561957F4F8F4F9F4F1F91A6
:104B90000895592F482F372F262F660F771F881F0C
:104BA000991F660F771F881F991F620F731F841F3D
:104BB000951F660F771F881F991F08950E94202652
:104BC00008F481E00895E89409C097FB3EF49095BD
:104BD0008095709561957F4F8F4F9F4F9923A9F0D6
:104BE000F92F96E9BB279395F69587957795679565
:104BF000B795F111F8CFFAF4BB0F11F460FF1BC0A9
:104C00006F5F7F4F8F4F9F4F16C0882311F096E93B
:104C100011C0772321F09EE8872F762F05C06623E9
:104C200071F096E8862F70E060E02AF09A95660FA2
:104C3000771F881FDAF7880F9695879597F908955B
:104C4000990F0008550FAA0BE0E8FEEF161617069D
:104C5000E807F907C0F012161306E407F50798F005
:104C6000621B730B840B950B39F40A2661F0232B1E
:104C7000242B252B21F408950A2609F4A140A6959A
:104C80008FEF811D811D08950E9457260C94CB261D
:104C90000E94BD2638F00E94C42620F0952311F012
:104CA0000C94B4260C94BA2611240C94FF260E946E
:104CB000DC2670F3959FC1F3950F50E0551F629F5E
:104CC000F001729FBB27F00DB11D639FAA27F00D65
:104CD000B11DAA1F649F6627B00DA11D661F829F8C
:104CE0002227B00DA11D621F739FB00DA11D621F71
:104CF000839FA00D611D221F749F3327A00D611D8E
:104D0000231F849F600D211D822F762F6A2F11246F
:104D10009F5750409AF0F1F088234AF0EE0FFF1FA2
:104D2000BB1F661F771F881F91505040A9F79E3FF9
:104D3000510580F00C94B4260C94FF265F3FE4F3F9
:104D4000983ED4F3869577956795B795F795E7954F
:104D50009F5FC1F7FE2B880F911D9695879597F958
:104D6000089599278827089597F99F6780E870E04C
:104D700060E008959FEF80EC089500240A941616D1
:104D8000170618060906089500240A941216130639
:104D9000140605060895092E0394000C11F48823C7
:104DA00052F0BB0F40F4BF2B11F460FF04C06F5FE3
:104DB0007F4F8F4F9F4F089557FD9058440F551FB9
:104DC00059F05F3F71F04795880F97FB991F61F08D
:104DD0009F3F79F087950895121613061406551F04
:104DE000F2CF4695F1DF08C0161617061806991F70
:104DF000F1CF86957105610508940895E894BB2765
:104E000066277727CB0197F90895F999FECF92BDD0
:104E100081BDF89A992780B50895262FF999FECF7C
:104E20001FBA92BD81BD20BD0FB6F894FA9AF99AC7
:104E30000FBE019608952F923F924F925F926F920C
:104E40007F928F929F92AF92BF92CF92DF92EF921A
:104E5000FF920F931F93CF93DF93CDB7DEB7CA1B9B
:104E6000DB0B0FB6F894DEBF0FBECDBF09942A88C6
:104E7000398848885F846E847D848C849B84AA846E
:104E8000B984C884DF80EE80FD800C811B81AA81FB
:104E9000B981CE0FD11D0FB6F894DEBF0FBECDBFC6
:104EA000ED010895A29FB001B39FC001A39F700DB3
:104EB000811D1124911DB29F700D811D1124911D22
:104EC00008955058BB27AA270E9479270C94CB2617
:104ED0000E94BD2638F00E94C42620F039F49F3F7E
:104EE00019F426F40C94BA260EF4E095E7FB0C9422
:104EF000B426E92F0E94DC2658F3BA17620773071D
:104F00008407950720F079F4A6F50C94FE260EF49C
:104F1000E0950B2EBA2FA02D0B01B90190010C01C9
:104F2000CA01A0011124FF27591B99F0593F50F4E1
:104F3000503E68F11A16F040A22F232F342F442739
:104F4000585FF3CF469537952795A795F040539531
:104F5000C9F77EF41F16BA0B620B730B840BBAF001
:104F60009150A1F0FF0FBB1F661F771F881FC2F76C
:104F70000EC0BA0F621F731F841F48F48795779580
:104F80006795B795F7959E3F08F0B0CF9395880F3A
:104F900008F09927EE0F9795879508950E94E227CC
:104FA0000C94CB260E94C42658F00E94BD2640F0E7
:104FB00029F45F3F29F00C94B42651110C94FF267C
:104FC0000C94BA260E94DC2668F39923B1F355238A
:104FD00091F3951B550BBB27AA276217730784070C
:104FE00038F09F5F5F4F220F331F441FAA1FA9F3A2
:104FF00035D00E2E3AF0E0E832D091505040E69590
:10500000001CCAF72BD0FE2F29D0660F771F881FF0
:10501000BB1F261737074807AB07B0E809F0BB0BE3
:10502000802DBF01FF2793585F4F3AF09E3F5105F7
:1050300078F00C94B4260C94FF265F3FE4F3983E7E
:10504000D4F3869577956795B795F7959F5FC9F7E0
:10505000880F911D9695879597F90895E1E0660F61
:10506000771F881FBB1F621773078407BA0720F0DA
:10507000621B730B840BBA0BEE1F88F7E095089543
:105080000E9447286894B1110C94FF2608950E944D
:10509000E42688F09F5798F0B92F9927B751B0F0C0
:1050A000E1F0660F771F881F991F1AF0BA95C9F7AC
:1050B00014C0B13091F00E94FE26B1E008950C9426
:1050C000FE26672F782F8827B85F39F0B93FCCF3D9
:1050D000869577956795B395D9F73EF49095809529
:1050E000709561957F4F8F4F9F4F08950E942026A6
:1050F00008F48FEF08950E942026880B990B0895DD
:10510000991B79E004C0991F961708F0961B881F19
:105110007A95C9F780950895AA1BBB1B51E107C07A
:10512000AA1FBB1FA617B70710F0A61BB70B881F37
:10513000991F5A95A9F780959095BC01CD010895C6
:1051400097FB072E16F4009407D077FD09D00E9434
:105150008C2807FC05D03EF4909581959F4F0895CB
:10516000709561957F4F0895A1E21A2EAA1BBB1B73
:10517000FD010DC0AA1FBB1FEE1FFF1FA217B30723
:10518000E407F50720F0A21BB30BE40BF50B661F39
:10519000771F881F991F1A9469F7609570958095FD
:1051A00090959B01AC01BD01CF010895052E97FBA1
:1051B0001EF400940E94ED2857FD07D00E94B428E9
:1051C00007FC03D04EF40C94ED2850954095309593
:1051D00021953F4F4F4F5F4F089590958095709563
:1051E00061957F4F8F4F9F4F08950E945227B7FFC1
:1051F0000895821B930B0895EE0FFF1F0590F49105
:10520000E02D0994A0E0B0E0E8E0F9E20C941F275B
:10521000EC01009721F4CB010E947524B8C0FC0179
:10522000E60FF71F9C0122503109E217F30708F43B
:10523000ACC0D9010D911C91119706171707B0F05A
:105240000530110508F49FC0C80104978617970719
:1052500008F499C002501109061B170B0193119312
:105260006D937C93CF010E940A258DC05B01A01A2B
:10527000B10A4C01800E911EA091DC04B091DD04B6
:1052800040E050E0E12CF12C109709F44AC0A81539
:10529000B905D1F56D907C901197630182E0C80E3D
:1052A000D11CCA14DB0480F1A3014A195B096A010D
:1052B00082E0C80ED11C1296BC9012971396AC9146
:1052C000B5E0CB16D10440F0B282A3835183408372
:1052D000D9016D937C930AC00E5F1F4FC301800FED
:1052E000911FF90191838083EB2DFA2FE114F104D2
:1052F00031F0D7011396FC93EE93129744C0F093CC
:10530000DD04E093DC043FC08D919C911197481718
:10531000590708F4AC017D0112960D90BC91A02DA7
:10532000B3CF8091DA049091DB0488159905E1F4FC
:1053300046175707C8F4809108019091090100971A
:1053400041F48DB79EB740910C0150910D01841B23
:10535000950BE817F907C8F4F093DB04E093DA043F
:10536000F901718360830FC0CB010E9475247C0119
:10537000009759F0A801BE010E94DD29CE010E94CC
:105380000A25C70104C0CE0102C080E090E0CDB77D
:10539000DEB7EEE00C943B2781E090E0F8940C94AB
:1053A000C32C91110C94B12680538A5028F0865C4E
:1053B000806281568650B0F70895FB01DC0102C07F
:1053C00001900D9241505040D8F708956817790721
:1053D00068F4FB01DC01E40FF51FA40FB51F02C048
:1053E00002900E9241505040D8F708950C94DD2958
:1053F000FB01DC018D91019080190110D9F3990B0B
:105400000895FB01DC0101900D920020E1F7089561
:10541000FB0151915523A9F0BF01DC014D914517C6
:105420004111E1F759F4CD010190002049F04D916F
:1054300040154111C9F3FB014111EFCF81E090E02C
:1054400001970895AEE0B0E0E8E2FAE20C94292773
:105450000D891E8986E08C831A8309838FEF9FE76D
:105460009E838D83AE01475E5F4F6F89788DCE013D
:1054700001960E94452A2F813885F801E20FF31F1B
:1054800010822E96E4E00C944527ACE0B0E0EBE40B
:10549000FAE20C941B277C016B018A01FC01178244
:1054A0001682838181FFBDC1CE0101964C01F701B7
:1054B0009381F60193FD859193FF81916F0188237C
:1054C00009F4ABC1853239F493FD859193FF819145
:1054D0006F01853229F4B70190E00E942D2CE7CFAF
:1054E000512C312C20E02032A0F48B3269F030F4C2
:1054F000803259F0833269F420612CC08D3239F04A
:10550000803339F4216026C02260246023C02860E3
:1055100021C027FD27C030ED380F3A3078F426FF40
:1055200006C0FAE05F9E300D1124532E13C08AE0AE
:10553000389E300D1124332E20620CC08E3221F49F
:1055400026FD6BC1206406C08C3611F4206802C0B1
:10555000883641F4F60193FD859193FF81916F01A7
:105560008111C1CF982F9F7D9554933028F40C5F03
:105570001F4FFFE3F9830DC0833631F0833771F09D
:10558000833509F05BC022C0F801808189830E5FFA
:105590001F4F44244394512C540115C03801F2E0AC
:1055A0006F0E711CF801A080B18026FF03C0652D2D
:1055B00070E002C06FEF7FEFC5012C870E94222CA4
:1055C0002C0183012C852F77222E17C03801F2E0A1
:1055D0006F0E711CF801A080B18026FF03C0652DFD
:1055E00070E002C06FEF7FEFC5012C870E94172C7F
:1055F0002C012C852068222E830123FC1BC0832DC7
:1056000090E048165906B0F4B70180E290E00E949D
:105610002D2C3A94F4CFF50127FC859127FE81913A
:105620005F01B70190E00E942D2C31103A94F1E017
:105630004F1A51084114510471F7E5C0843611F036
:10564000893639F5F80127FF07C0608171818281B1
:1056500093810C5F1F4F08C060817181072E000C81
:10566000880B990B0E5F1F4F2F76722E97FF09C084
:1056700090958095709561957F4F8F4F9F4F2068D3
:10568000722E2AE030E0A4010E94652CA82EA818F2
:1056900044C0853729F42F7EB22E2AE030E025C0A1
:1056A000F22FF97FBF2E8F36C1F018F4883579F0CC
:1056B000B4C0803719F0883721F0AFC02F2F206198
:1056C000B22EB4FE0DC08B2D8460B82E09C024FF0D
:1056D0000AC09F2F9660B92E06C028E030E005C0B2
:1056E00020E130E002C020E132E0F801B7FE07C05F
:1056F00060817181828193810C5F1F4F06C0608140
:10570000718180E090E00E5F1F4FA4010E94652C24
:10571000A82EA818FB2DFF777F2E76FE0BC0372D05
:105720003E7FA51450F474FE0AC072FC08C0372DE9
:105730003E7E05C0BA2C372D03C0BA2C01C0B52C53
:1057400034FF0DC0FE01EA0DF11D8081803311F49C
:10575000397E09C032FF06C0B394B39404C0832FCE
:10576000867809F0B39433FD13C030FF06C05A2C7D
:10577000B31418F4530C5B18B32CB31468F4B701CA
:1057800080E290E03C870E942D2CB3943C85F5CFBD
:10579000B31410F43B1801C0312C34FF12C0B70110
:1057A00080E390E03C870E942D2C3C8532FF17C09F
:1057B00031FD03C088E790E002C088E590E0B701C2
:1057C0000CC0832F867859F031FF02C08BE201C0F4
:1057D00080E237FD8DE2B70190E00E942D2CA514E8
:1057E00038F4B70180E390E00E942D2C5A94F7CF53
:1057F000AA94F401EA0DF11D8081B70190E00E94A6
:105800002D2CA110F5CF332009F451CEB70180E241
:1058100090E00E942D2C3A94F6CFF7018681978173
:1058200002C08FEF9FEF2C96E2E10C943727FC012A
:105830000590615070400110D8F7809590958E0FBB
:105840009F1F0895FC016150704001900110D8F72E
:10585000809590958E0F9F1F08950F931F93CF9360
:10586000DF93FB01238121FD03C08FEF9FEF28C051
:1058700022FF16C046815781248135814217530784
:1058800044F4A081B1819D012F5F3F4F318320837C
:105890008C93268137812F5F3F4F3783268310C03B
:1058A000EB01092F182F0084F185E02D0995892B34
:1058B000E1F68E819F8101969F838E83812F902FA9
:1058C000DF91CF911F910F910895FA01AA272830F7
:1058D00051F1203181F1E8946F936E7F6E5F7F4FBD
:1058E0008F4F9F4FAF4FB1E03ED0B4E03CD0670F39
:1058F000781F891F9A1FA11D680F791F8A1F911D8C
:10590000A11D6A0F711D811D911DA11D20D009F4DB
:1059100068943F912AE0269F11243019305D31931D
:10592000DEF6CF010895462F4770405D4193B3E006
:105930000FD0C9F7F6CF462F4F70405D4A3318F0AD
:10594000495D31FD4052419302D0A9F7EACFB4E05E
:10595000A6959795879577956795BA95C9F7009716
:105960006105710508959B01AC010A2E06945795B7
:10597000479537952795BA95C9F7620F731F841F0E
:10598000951FA01D089511E0CBE6D1E004C0FE01F3
:105990000E94FC282196CC36D107C9F7F894FFCF96
:1059A00020204A104A1001500000DE048000000050
:1059B0000000E10F4A0F790F2810AA0F880F9C0FE3
:1059C0004F4B005620332E332E322D6465762053F4
:1059D00049474E414C6475696E6F20002D20636FFE
:1059E0006D70696C6564206174204A616E20203797
:1059F00020323031382031393A32373A3039000DDF
:105A00000A003B006D636D626C3D006D73636E74E4
:105A10003D006669666F6C696D69743D006D7574F3
:105A200068726573683D00202D3E2053796E634691
:105A30006163743A20006E616E00696E66006F7675
:105A400066002C0020436C6F636B3A20004E554C6F
:105A50004C0020280029002C20002E2000205B0074
:105A60005D005061747465726E3A20002050002A07
:105A70005B0053796E633A20004D7300440064006C
:105A80004D5300443D0043503D0053503D004F00F6
:105A90006D004D43004C4C3D004C483D00534C3D87
:105AA0000053483D0025303258002530315800431E
:105AB0003D006900620077004D75004D5500772D5F
:105AC0000065003000206D6F766545727220000021
:00000001FF
