:100000000C94D3010C947E130C9457130C94FB01A5
:100010000C94FB010C94FB010C94FB010C94FB0170
:100020000C94FB010C94FB010C94FB010C94FB0160
:100030000C94FB010C94FD130C94FB010C94FB013C
:100040000C94451A0C94FB010C94CB130C94A5133F
:100050000C94FB010C94FB010C94FB010C94FB0130
:100060000C94FB010C94FB0152656164696E67207E
:1000700076616C7565732066726F6D206565707250
:100080006F6D00636331313031206973206E6F749E
:1000900020636F72726563746C79207365742E20AF
:1000A000506C6561736520646F20612066616374C4
:1000B0006F72792072657365742076696120636F51
:1000C0006D6D616E64206500726563656976657249
:1000D00020656E61626C6564005374617274696E50
:1000E000672074696D65726A6F6200206363506196
:1000F00072746E756D3D002063635665723D006FCE
:100100006B2E006E6F2043433131787820666F7517
:100110006E6421004343496E697420005573696E13
:100120006720734649464F006363726567207772A4
:10013000697465206261636B200073656E6420667C
:1001400061696C6564003B4D6465624669666F4C2D
:10015000696D69743D003B6D634D696E4269744C15
:10016000656E3D003B4D7553706C697454687265E3
:1001700073683D005F4D53636E743D003B4D646595
:100180006275673D003B4D754E6F4F766572666CCC
:100190006F773D31003B4C45443D30003B4D72652F
:1001A000643D003B4D433D003B4D553D004D533DAF
:1001B000003A200063637265672000433345203DA9
:1001C00020002064656C61793120002063686970CB
:1001D0005374617475732000636D645374726F623D
:1001E000655265672000556E737570706F72746527
:1001F0006420636F6D6D616E640020746F205041E8
:100200005441424C4520646F6E65005772697465B5
:100210002000203D2000203A00454550524F4D20FF
:10022000004D687A2029006363313130312000208D
:10023000557365206F6E65206F6620005369676E89
:10024000616C3A20002C2073746174653A20002C94
:10025000206D7472756E633A20002C204D43443A31
:1002600020002C2076616C636E743A20002C206D87
:10027000656E643A20002C206D53746172743A20CC
:10028000002C2050756C73653A20462F4C2F464C3D
:100290002F4C5020002C20506174744C656E3A2015
:1002A000002061646444617461206F766572666CDD
:1002B0006F772121002062797465636E743D00764A
:1002C000616C3D00206D62206E6D20622070726F47
:1002D0006320004D443D006D4F766572666C6F770C
:1002E0002673746174653D3021000D2E2D07D39166
:1002F0003D04320000060010B07157C43023B9002D
:10030000070018146C070090876BF85611E92A0053
:100310001F410000000000250028002B00040404F9
:10032000040404040402020202020203030303039E
:10033000030102040810204080010204081020017B
:10034000020408102000000008000201000003045D
:100350000700000000000000002900636D642074A5
:100360006F206C6F6E672120286D61782000496EC8
:10037000697420656570726F6D20746F20646566A6
:1003800061756C7473002073746172743D00206237
:100390007566664D6F7665206F766572666C6F77F1
:1003A000210080287C2811241FBECFEFD8E0DEBFBB
:1003B000CDBF12E0A0E0B1E0EAECF2E602C00590A9
:1003C0000D92AC39B107D9F725E0ACE9B2E001C034
:1003D0001D92A738B207E1F711E0C2EDD1E004C0E9
:1003E0002197FE010E94832DC13DD107C9F70E94CC
:1003F0008F1A0C9458310C9400002F923F924F9218
:100400005F926F927F928F929F92AF92BF92CF92A4
:10041000DF92EF92FF920F931F93CF93DF93CDB7AD
:10042000DEB7E9970FB6F894DEBF0FBECDBF898F58
:10043000882321F081E08093420402C0109242049C
:100440009091670420913E048091A803911106C009
:10045000283220F4882311F40C94240F10924104C4
:1004600091E02E3F09F090E09093430481111BC16D
:1004700040E060E08EE993E00E946214F12C2F2CA2
:10048000312C8091640490E00197281639060CF015
:100490000AC1F101E256FC4FCF010E962685F39476
:1004A000222369F3EF2C9101220F331FA9014C5A2B
:1004B0005B4F59A348A39BA38AA35DA34CA3809140
:1004C0006404E816E0F66E2D70E07F8F6E8F625642
:1004D0007C4F7D8F6C8FDB011E968C91882309F4F5
:1004E000E0C0E8A1F9A1C080D180EE8DFF8DEE0FB4
:1004F000FF1FEC5AFB4F00811181C6018027912715
:1005000097FDCFC08090500490905104A090520469
:10051000B0905304B80117FF04C066277727601B0B
:10052000710B072E000C880B990B0E94612AA50104
:1005300094010E94C02A2B013C01B601D7FE04C0E1
:10054000662777276C197D09072E000C880B990BFD
:100550000E94612AA50194010E94C02A9B01AC015E
:10056000C301B2010E94E92B20E030E040E05FE3EC
:100570000E94C02A0E94C72C0C191D0917FF03C036
:10058000119501951109601771070CF48AC0D12CDF
:10059000C12C0C8D1D8D025F1F4F80913E04D8161B
:1005A00008F044C0D8018C91C81608F03FC06D2DEA
:1005B00070E084EB93E00E94241480913904E812E7
:1005C00033C080913604482F50E0D89EC0011124DA
:1005D000FC0123E0F695E7952A95E1F72091380490
:1005E000E21708F587709927FF27E256FC4F209104
:1005F000370430E0082E02C0359527950A94E2F7BB
:1006000020953689232368E070E0641B750BDB01BD
:10061000A81BB90BA10102C0440F551FAA95E2F710
:10062000CA01822B868BC394D394B7CFAAA1BBA156
:10063000CC90EC8DFD8DD684ECA1FDA1A081B18183
:100640000E8D1F8D000F111F0C5A1B4FF801A0803B
:10065000B180EC2DF0E09F010E947C2D2B013C012C
:100660004D2D50E09A01D5010E947C2D640D751D21
:10067000861D971DE40FF51F9F01FF0F440B550BBF
:100680000E945D2DACA1BDA12D933C93DC0CEAA191
:10069000FBA1D082AC8DBD8D1E961C92F8011182FB
:1006A0001082E3940CCF109247041092460480917C
:1006B000A6038823F1F110923F0460913F046A3051
:1006C00070F570E06F5F7F4F84EB93E00E9424141D
:1006D0002091390430E080916604082E000C990BBB
:1006E0002817390711F00C942B0F60913F0470E02C
:1006F00084EB93E00E9424142091390430E080912F
:100700009E03082E000C990B2817390711F00C9442
:100710002B0F82E090E090934704809346048091F1
:10072000460490914704892B09F095C01092A603C6
:1007300004C08091A703882369F040E060E08EE95F
:1007400093E00E9462148091460490914704892BA3
:1007500009F081C08FEF80939E03F0916404FC8FB9
:1007600080903E04BEE9CB2EB3E0DB2E14E5212EB3
:1007700014E0312EE12CF12C0FEF1FEF912CA12C66
:10078000B12C2C8DE21608F059C00F3F3FEF130734
:1007900001F5D1018D919C9197FD1BC0F6016685F5
:1007A00070E080E090E00E94612A2B013C01C501CD
:1007B000B4010E94612A2BE734E14EE25EE30E941D
:1007C000C02A9B01AC01C301B2010E94FD2C181686
:1007D00054F1D1018D919C9197FD26C0F801EE0F47
:1007E000FF1FEC5AFB4F2081318182179307E4F4FD
:1007F000F601668570E080E090E00E94612A2B019E
:100800003C01C501B4010E94612A2BE734E14EE2AC
:100810005EE30E94C02A9B01AC01C301B2010E94A9
:10082000FD2C18160CF48701FFEFEF1AFF0A2FEFCB
:10083000C21AD20A32E0230E311CA3CF0F3F4FEF72
:10084000140709F4B8C000939E0381E090E09093F0
:100850004704809346048091460490914704019791
:1008600009F0A9C08091A103882309F4A4C0809154
:1008700069048111A0C080913E04282F30E0203A05
:10088000310524F4F8EDAF2EA80E02C0E8E7AE2E35
:10089000B0906404BA9476E0972EB7FC89C0CB2C54
:1008A0000B2C000CDD08F601E256FC4F16851123D7
:1008B00009F47CC0F601EE0FFF1FEC5AFB4F2081BC
:1008C000318137FF73C0319521953109283652E4C3
:1008D00035070CF06BC0E0919E03EE0FFF0BEC5A56
:1008E000FB4F0190F081E02DC901BF010E94132D43
:1008F0006333710508F05AC09E9EC0019F9E900D03
:1009000011248217930708F051C0612F70E080E036
:1009100090E00E94612A2B013C0160913E0470E04E
:1009200080E090E00E94612A2AE037ED43EA5DE32F
:100930000E94C02A9B01AC01C301B2010E945A2A45
:1009400087FF34C0123090F100E010E00A1570F516
:1009500078016FEFE61AF60AB70184EB93E00E9484
:1009600024148091390490E0C816D90611F00C9433
:10097000320FB80184EB93E00E94241420913904D3
:1009800030E080919E03082E000C990B2817390740
:1009900011F00C94320FB092660482E090E09093D4
:1009A00047048093460400933F0405C0BA9475CF72
:1009B0008FEF8093660480914604909147040297DC
:1009C00009F076C280913E04883208F471C28091A9
:1009D000A80381116DC280913F048E5F8093400413
:1009E0006091400470E080913F0490E00996861782
:1009F00097070CF442C06F5F7F4F84EB93E00E9437
:100A000024142091390430E080916604082E000CF3
:100A1000990B2817390711F00C94350F6091400499
:100A200070E084EB93E00E9424142091390430E0BC
:100A300080919E03082E000C990B2817390711F09E
:100A40000C94350F8091400480933F0413C06F5F76
:100A50007F4F84EB93E00E9424142091390430E00E
:100A600080916604082E000C990B2817390781F035
:100A7000809140048E5F809340046091400470E058
:100A800080913E0490E001976817790704F31AC03B
:100A90006091400470E084EB93E00E942414209164
:100AA000390430E080919E03082E000C990B281722
:100AB0003907F1F680914004815080934004FF246F
:100AC000F39401C0F12C80913E0490914004891769
:100AD00010F0F11003C08150809340044091400415
:100AE00060913F048EE993E00E94621480913F047C
:100AF000FF2049F02091400430E0D901A81BB10942
:100B000098979CF4D5C190913E04292F30E0281B82
:100B10003109283231050CF4CBC19E3F08F0ADC13C
:100B2000B98DB23011F40C94C7109091A603809146
:100B3000A503981708F057C18091A203882309F4F0
:100B4000B3C082E00E9406188FE092E00E94D417A2
:100B50008BE30E940618E12C80916404E816C0F52E
:100B60008E2D90E0FC01EE0FFF1FEC5AFB4F008131
:100B700011810115110551F1FC01E256FC4F8685EA
:100B8000882321F16E2D17FF05C0606A119501952C
:100B9000110901C06068D02E07FD04C0E02FE06895
:100BA000DE2E01C0606187EF92E00E947D116D2D05
:100BB00087EF92E00E947D11612F7727606887EFB1
:100BC00092E00E947D118BE30E940618E394C4CF4B
:100BD0008091400480FF03C082E192E002C08CE873
:100BE00092E00E94D417E0913F04E0FF1BC0E15067
:100BF000E0933F04E69580913804E81728F4F0E08C
:100C0000E256FC4F26892A8F8A8D8F7080688A8FE2
:100C1000682F87EF92E00E947D1180913F048E5FE4
:100C200080933F0410913F0480914004811790F01D
:100C3000E12FE69580913804E81728F4F0E0E256B9
:100C4000FC4F36893A8F6A8D87EF92E00E947D11C2
:100C50001E5FEACF8BE30E9406188CE292E00E94AE
:100C6000D41780919E0360E170E0082E000C990B70
:100C70000E940B188BE30E94061887E192E00E9405
:100C8000D4178091660460E170E0082E000C990B87
:100C90000E940B188BE30E94061884E192E00E94E8
:100CA000D41760E170E079C082E00E94061886E106
:100CB00092E00E94D4178BE30E940618E12C8091E9
:100CC0006404E81648F58E2D90E08C01000F111F8A
:100CD0000C5A1B4FD8012D913C91232BD9F0FC01CC
:100CE000E256FC4F86858823A9F080E50E9406180D
:100CF0006AE070E08E2D0E94C6178DE30E940618F0
:100D00006AE070E0F801808191810E940B188BE30A
:100D10000E940618E394D3CF89E192E00E94D41791
:100D200010913F0480914004811770F0612F70E0B2
:100D300084EB93E00E9424146AE070E0809139040F
:100D40000E94C6171F5FEECF8BE30E9406188CE14E
:100D500092E00E94D41780919E036AE070E0082E12
:100D6000000C990B0E940B188BE30E94061880E27E
:100D700092E00E94D417809166046AE070E0082E29
:100D8000000C990B0E940B188BE30E94061884E25A
:100D900092E00E94D4176AE070E080916B040E9498
:100DA000C6178BE30E94061880914304882339F00C
:100DB0008BE592E00E94D4178BE30E940618809185
:100DC000A403882381F0F98DF11103C082E792E03A
:100DD00005C0298D223039F487E292E00E94D417B1
:100DE0008BE30E940618109242048091A603F11032
:100DF00002C08823B9F19091A403992389F09091BE
:100E0000A503891768F489E292E00E94D4176AE08A
:100E100070E08091A6030E94C6178BE30E9406181B
:100E20002091A6032F5F2093A603FF20A9F0398D00
:100E3000311109C080913E0490E030914004831B41
:100E4000910988974CF0222369F0809140048F5FCC
:100E50000E94AD1810923F049091A6038091A503C3
:100E6000891738F083E00E9406188FE892E00E940C
:100E7000D41781E08093AB0318C0882389F02091B8
:100E8000400430E02D3F31055CF0498D411103C035
:100E9000109242040AC00E94AD1810923F0405C08F
:100EA000598D523011F00E94661881E08093410400
:100EB000809141048111B8C780919F036091A00384
:100EC0006AA7811103C0662309F4ACC77AA577230A
:100ED00009F435C58091460490914704029709F4BE
:100EE0002EC58091A302811129C082E38093EA027A
:100EF00091E09093E8021092B3021092E5021092F2
:100F0000E60287E08093E70280E88093E9028FEFB2
:100F10008093EE028093EF028093F0028093F102BF
:100F20001092F6022EE933E03093ED022093EC02AA
:100F30001092F3021092F2029093A3028091670440
:100F4000882399F08091EC029091ED02FC01EC5520
:100F5000FF4F10823397108200E011E099249394A0
:100F600088248A9427E0722EADC18FEF8093EE0221
:100F70008093EF028093F0028093F1021092F602C8
:100F80001092F3021092F2021092B3021092E50254
:100F90001092E60287E08093E70280916A048093D2
:100FA000F4020091EC021091ED02F801EA53FF4FB8
:100FB000F08083E08F1508F0B7C4B697608170E0C9
:100FC00080E090E00E94612A2AE037ED43E25DE391
:100FD0000E94C02A4B015C0120E030E0A9010E9480
:100FE000FD2C20E030E040E05FE387FD05C0C50157
:100FF000B4010E94E92B04C0C501B4010E94E82B92
:101000000E94C72C58019EE0A90EB11CF801EA54B9
:10101000FF4F212C70E0D5018D915D01861760F1A5
:10102000E22C8E2D90E0EE20F1F09E01280F391F6A
:10103000D901DC9098012D0D311D2D0D311D2A5443
:101040003F4F40815181D9012D913C914217530767
:1010500054F421E030E02C0F3D1F820F931FDC0180
:10106000DC92EA94DECF21E030E02C0F3D1F820FAE
:10107000931FDC017C9323947F5F3296F712CBCFD2
:10108000FE013196FA8BE98BFDA3ECA340911D0183
:1010900050911E0160911F01709120014BA75CA728
:1010A0006DA77EA7BE01675F7F4F7C8B6B8BCE01E8
:1010B0000D969E8B8D8BDE015196B88FAF8BB989C3
:1010C000BAAB8CA18B1B821508F02EC4ACA1BDA1BC
:1010D0002D91BDA3ACA34091EC023091ED02842F81
:1010E000932F820F911D820F911DFC01EA54FF4F37
:1010F000208131813D8F2C8F1216130604F78FEF5C
:101100008093EE028093EF028093F0028093F102CD
:101110003595279539AB28ABAE014F5F5F4F5BA389
:101120004AA31FA21EA26FEF7FEF7B8F6A8F8C8D69
:101130009D8D092E000CAA0BBB0B8EAB9FABA8AFED
:10114000B9AF1FEF8AA19AA9891B821508F0B7CF02
:10115000AAA1BBA10D91BBA3AAA33091EC0220913F
:10116000ED02832F922F800F911D800F911DFC01A6
:10117000EA54FF4FE080F1806EA97FA988AD99AD58
:101180000E94612A4B015C016701F7FE04C0CC2478
:10119000DD24CE18DF082DEC3CEC4CE45EE3C50109
:1011A000B4010E94C02A0E94C72C88A999A98C1951
:1011B0009D0997FF03C0919581959109681779075B
:1011C0000CF092C22DEC3CEC4CEC5EE3C501B4019A
:1011D0000E94C02A0E94C72C8C8D9D8D8C199D0960
:1011E00097FF03C0919581959109681779070CF0D5
:1011F000B2C6A8CF802F0E945819E090EC02F09060
:10120000ED02F701EF55FF4F8082B6016150710981
:10121000C70146960E942414F701E556FF4F8081CE
:1012200090E02091F002022E000C330B82179307FE
:1012300009F49AC62091F102022E000C330B82179A
:10124000930709F491C6E091EC02F091ED02EF559D
:10125000FF4F80818F3F09F410831091F502909227
:10126000F602C090EC02D090ED02F601E056FF4F7E
:101270008081181708F4ACC08091EC029091ED02C7
:10128000FC01E056FF4F2081121708F41F5F4091C8
:10129000E60250E02091F402022E000C330BFC0118
:1012A000421753070CF0B9C0E553FF4F20812223AA
:1012B00009F4ADC01092B3021092E5021092E6025A
:1012C0007092E7022091EC023091ED02412F50E044
:1012D000F901E056FF4F808190E04E97481759077B
:1012E0000CF022C3BA969082C12ED12CE090EC0271
:1012F000F090ED02F701E056FF4F808190E00197FA
:10130000C816D9060CF053C0B601C70146960E9414
:101310002414F701E556FF4FA080B12C8091EF0215
:10132000082E000C990BA816B906A9F18091EE02BF
:10133000082E000C990BA816B90609F013C6E09008
:10134000EC02F090ED02B60161507109C7014696BA
:101350000E942414F701E556FF4F80819701280F62
:10136000311D280F311DD901AA54BF4FE091EC0265
:10137000F091ED028091EF0222E08202E00DF11D7A
:101380001124EA54FF4F2D913C9180819181821765
:1013900093070CF4E7C58091EF02082E000C990B1F
:1013A00001E08A159B0509F000E01093F5022091F9
:1013B000EC023091ED02F901E056FF4F808190E0A0
:1013C0000197C816D9060CF415CFBA961082ACC294
:1013D000E12EF12CB701C60146960E942414F601B5
:1013E000E556FF4F808190E02091EE02022E000C26
:1013F000330B8217930709F425C62091EF02022EC2
:10140000000C330B8217930709F022C61BC6193252
:1014100008F450CFBA97108387C2EE55FF4F108360
:1014200082E00E9406188BE292E00E94D4178BE3C0
:101430000E9406188EE292E00E94D417E091EE021C
:10144000EE0FFF0BEC5AFB4F6AE070E08081918158
:101450000E940B188BE30E94061882E392E00E9420
:10146000D417E091EF02EE0FFF0BEC5AFB4F6AE04E
:1014700070E0808191810E940B188BE30E94061816
:1014800086E392E00E94D417E091F002EE0FFF0B8A
:10149000EC5AFB4F6AE070E0808191810E940B184A
:1014A0008BE30E9406188AE392E00E94D417E09131
:1014B000F102EE0FFF0BEC5AFB4F6AE070E0808107
:1014C00091810E940B188BE30E94061889E192E03B
:1014D0000E94D41780915D0290915E02A0915F02FC
:1014E00089839A83AB83B12C8E010F5F1F4F8EE3EC
:1014F000E82E82E0F82ECB2CD12C8091E50290E0F2
:101500002091EA02C816D906DCF4B21628F4F601D6
:10151000ED54FD4F70817BAB1F928BA98F93FF928F
:10152000EF921F930F930E94A52EC8010E94D4171B
:10153000B3940F900F900F900F900F900F90DBCF00
:10154000B21628F4F601ED54FD4F90819CAB8CA9A6
:1015500082958F701F928F9383E492E09F938F9375
:101560001F930F930E94A52EC8010E94D41780914B
:10157000E602877081500F900F900F900F900F90A0
:101580000F908430F0F08091EA02B81628F4F6014A
:10159000ED54FD4FA081ADAB8DA98F701F928F933D
:1015A00083E492E09F938F931F930F930E94A52E45
:1015B000C8010E94D4170F900F900F900F900F90BA
:1015C0000F908BE30E94061888E492E00E94D417E3
:1015D0006AE070E08091F2029091F3020E940B1891
:1015E0008BE30E9406188FE292E00E94D4176AE013
:1015F00070E08091E6020E94C6178BE30E940618F5
:1016000084E292E00E94D4176AE070E080916B045B
:101610000E94C6178BE30E9406188091A4038823BA
:1016200049F180916804811107C08BE492E00E9427
:10163000D4178BE30E9406188091F5028823D1F01D
:1016400080E192E00E94D4176AE070E08091F50298
:101650000E94C6178BE30E9406188DE492E00E9458
:10166000D4176AE070E080913F040E94C6178BE3B4
:101670000E94061880914304882339F08BE592E09C
:101680000E94D4178BE30E9406181092670481E031
:10169000809341048093AB0380914004B98DB111D4
:1016A00008C020913E0430E0281B31092832310562
:1016B0009CF081500E94AD1810923F0481E080930D
:1016C00069048091A403882339F08FE492E00E949A
:1016D000D4178BE30E94061883E00E9406188FE857
:1016E00092E00E94D4172BC11E141F040CF03DC5BC
:1016F0000093F102BEA1BF5FBEA3EA8DFB8DEE0D8C
:10170000FF1DFB8FEA8F8091EE028F3F09F41ACD07
:101710008091F0028F3F09F415CD8091EF028F3F49
:1017200009F410CD8091F1028F3F09F40BCD4BA548
:101730005CA56DA57EA54D875E876F87788B4987F1
:101740005A876B877C8761E070E079A768A7812C56
:10175000912CE090EC02F090ED02F701E056FF4F83
:10176000808190E0881699060CF0ECCCB401C7019A
:1017700046960E942414F701E556FF4F0081802F02
:1017800090E02091EE02022E000C330BE090EC0270
:10179000F090ED028217930709F46CC32091EF02D9
:1017A000022E000C330B8217930709F463C32091B8
:1017B000F002022E000C330B8217930709F45AC370
:1017C0002091F102022E000C330B8217930709F4CB
:1017D00051C3F701EF55FF4F60819401261B31097A
:1017E0008091F402082E000C990B821793070CF0DD
:1017F00071C331968082482DC7010E946214809186
:10180000EC029091ED023090F102A091EF02AE8FC8
:101810000091F002B091EE02B8A3FC01E30DF11DBE
:1018200037FCFA952685FC01EA0FF11DA7FDFA9514
:10183000C684D12CC20ED11CFC01E00FF11D07FDA6
:10184000FA952685C21AD108FC01EB0FF11DB7FDF0
:10185000FA9526851092F602C21AD108D7FE03C067
:10186000D194C194D1080D2C000CEE08FF08FC01A6
:10187000E056FF4FA080B12CB5010B2C000C880B5B
:10188000990B0E94612A2AE037ED43E25DE30E9452
:10189000C02A2B013C0120E030E0A9010E94FD2C70
:1018A00020E030E040E05FE387FDEEC2C301B2011B
:1018B0000E94E92B0E94C72C6C157D058E059F05A3
:1018C0000CF440CC5EA16FA156133CCC7E8D88A158
:1018D000781709F437CC301609F434CC081709F41A
:1018E00031CC371609F42ECC381609F42BCC7017EE
:1018F00009F428CCFE013D96DE01199681919D9157
:101900008913C7C26F89788D6E177F07B9F78A8DE3
:101910009B8D66E070E00E94272D7093F302609328
:10192000F2024AA541110ECB80916704882339F059
:1019300080914204882319F081E0809341048091D2
:101940009F03882309F46AC280914604909147045A
:101950000197029708F062C280914104811164C22C
:1019600080913E04883228F48091A803882309F4EA
:1019700059C28091A9039091AA03892B09F49EC0B2
:1019800080913F04882341F040E060E08EE993E0DD
:101990000E94621410923F0410916404115017FDCC
:1019A0008DC0C12E012E000CDD08F601EE0FFF1FC9
:1019B000EC5AFB4F8081918197FF03C091958195EF
:1019C00091092091A9033091AA038217930730F35C
:1019D000F601E256FC4F8685882301F38130A9F495
:1019E000E12CF12CB70184EB93E00E942414809148
:1019F000390490E0C816D90689F2EFEFEE1AFE0A14
:101A0000FAE0EF16F10471F702C0883038F688E288
:101A10008093400480913E04883208F44FC018E25D
:101A2000E12EF12C80913E0490E00197E816F90632
:101A30000CF044C0B70184EB93E00E942414E091C1
:101A40003904F0E0EE0FFF1FEC5AFB4F80819181CB
:101A5000B7011816190674F484EB93E00E9424145D
:101A6000E0913904F0E0EE0FFF1FEC5AFB4F80814C
:101A7000918110C084EB93E00E942414E09139041A
:101A8000F0E0EE0FFF1FEC5AFB4F808191819195A2
:101A9000819591092091A9033091AA038217930798
:101AA00058F010934004412F60E08EE993E00E94CB
:101AB0006214EE24E39419C01F5FB2CF90914304E7
:101AC00080913E04992321F09091A30391118250BB
:101AD0008093400480913F04882331F040E060E02F
:101AE0008EE993E00E946214E12C9091A203809110
:101AF000A803992309F49FC0811162C082E00E946B
:101B0000061881E592E00E94D4178BE30E94061824
:101B1000F12C80916404F816C0F58F2D90E0FC0143
:101B2000EE0FFF1FEC5AFB4F0081118101151105CB
:101B300051F1FC01E256FC4F8685882321F16F2D7F
:101B400017FF05C0606A11950195110901C0606811
:101B5000D02E07FD04C0202F2068D22E01C0606166
:101B600087EF92E00E947D116D2D87EF92E00E9439
:101B70007D11612F7727606887EF92E00E947D11C9
:101B80008BE30E940618F394C4CF8CE292E00E948B
:101B9000D41780919E0360E170E0082E000C990B31
:101BA0000E940B188BE30E94061884E192E00E94C9
:101BB000D41760E170E080916B040E94C61707C0E3
:101BC00082E00E94061884E592E00E94D4178BE31D
:101BD0000E9406188091400480FF06C08CE892E0C5
:101BE0000E94D41710E014C082E192E0F9CFE12FF7
:101BF000E69580913804E81728F4F0E0E256FC4FAF
:101C000036893FA76FA587EF92E00E947D111E5F86
:101C100080914004181758F38BE30E940618109225
:101C2000420481E08093AB0380934104809143049C
:101C300081117CC09DC0811157C082E00E940618AE
:101C400087E592E00E94D4178BE30E94061810E00B
:101C500080916404181768F5812F90E09C01220F91
:101C6000331FA9014C5A5B4F6A01DA012D913C9157
:101C7000232BE9F0FC01E256FC4F86858823B9F05E
:101C800084EE91E00E94D4176AE070E0812F0E94F8
:101C9000C61789E492E00E94D4176AE070E0F6016A
:101CA000808191810E940B188BE30E9406181F5FB0
:101CB000CFCF8CE192E00E94D41780919E036AE01E
:101CC00070E0082E000C990B0E940B188BE30E9409
:101CD000061884E292E00E94D4176AE070E08091D6
:101CE0006B040E94C61707C082E00E9406188AE5AE
:101CF00092E00E94D4178BE30E94061889E192E0DB
:101D00000E94D41710E080914004181708F084CF87
:101D1000612F70E084EB93E00E9424146AE070E08D
:101D2000809139040E94C6171F5FEDCFE11018C0E3
:101D30008091A3038823A1F085E592E00E94D41747
:101D40006AE070E08091A8030E94C6178091A80302
:101D50008F5F8093A803809140040E94AD1804C057
:101D60008BE592E00E94D4178BE30E94061805C011
:101D70008091A80381111092A8038091A403882365
:101D800009F402C2F98DF11103C082E792E005C0A7
:101D9000298D223039F487E292E00E94D4178BE338
:101DA0000E94061880916804811107C08BE492E0BC
:101DB0000E94D4178BE30E940618EE2041F1809117
:101DC000A403882369F08FE492E00E94D4176AE0AC
:101DD00070E08091A7030E94C6178BE30E9406184B
:101DE0008091A7038F5F8093A703398D311109C0BC
:101DF00080913E0490E020914004821B91098897D5
:101E000034F0809140040E94AD1810923F0483E0AA
:101E10000E9406188FE892E00E94D4178091410436
:101E2000811102C01092420480913E048E3F60F006
:101E30008091460490914704892B31F487ED92E01C
:101E40000E945A1810924204809142048111A4C148
:101E50000E946618A1C180913F048F5F80933F0468
:101E60000C945D0387010C94A604809140048F5F5D
:101E70000C94EE04F701E056FF4F808190E001974B
:101E80008816990651F5A5CCC301B2010E94E82B32
:101E900011CD9F3F19F08F3F09F034CDA818B90834
:101EA0008091F402082E000C990B8A159B050CF00A
:101EB00049C91D8719871E871A871F871B87188B9B
:101EC0001C877FEF871A970A88A599A5019699A77D
:101ED00088A73FCC1092F6020BC08091F6028111C8
:101EE00007C0F701EF55FF4F808291E09093F60213
:101EF00068A579A5C70146960E942414F701E55606
:101F0000FF4F8081AAE00A9F800D11248A3008F4D7
:101F10008C5980FC03C02D899E8902C02B899C8925
:101F2000E22FF92F90E0482F50E06081262F062EF7
:101F3000000C330B2417350719F06F3F19F4808319
:101F4000292F01C02FEF9F5F943009F4BACF31964B
:101F50002F3F59F3B6CF1E141F040CF012C100938B
:101F6000EF02C8CB1F5FC0C91150123008F46BC913
:101F7000E12EF12CC090EC02D090ED02B70162503E
:101F80007109C60146960E942414F601E556FF4FDA
:101F9000808190E02091F002022E000C330BA7010B
:101FA000415051097A018217930741F02091F102C3
:101FB000022E000C330B82179307F1F4C090EC0251
:101FC000D090ED02B701C60146960E942414F60196
:101FD000E556FF4F808190E02091F002022E000C28
:101FE000330B8217930761F12091F102022E000C4E
:101FF000330B8217930721F1C090EC02D090ED02D1
:10200000B701C60146960E942414F601E556FF4F1B
:10201000208130E08091F102082E000C990B2817E6
:10202000390709F010C9E091EC02F091ED02EF558B
:10203000FF4F1250108310E0802F0E94581995CF47
:102040001250FACF09251F5F802F0E94581909C925
:10205000C090EC02D090ED02F601E056FF4F2081D7
:1020600030E021503109E216F3060CF005C90111E8
:102070003EC02091F002022E000C330B28173907C6
:1020800009F0FAC85FEFE51AF50AB701C6014696EE
:102090000E942414F601E556FF4F208130E0809124
:1020A000F102082E000C990B2817390709F45BC0C0
:1020B000C090EC02D090ED02B701C60146960E9496
:1020C0002414F601E556FF4F208130E08091EF02A5
:1020D000082E000C990B2817390709F0CDC8E0919C
:1020E000EC02F091ED02E653FF4F1082C5C820913B
:1020F000F102022E000C330B2817390791F56FEF10
:10210000E61AF60AB701C60146960E942414F601A3
:10211000E556FF4F208130E08091F002082E000C40
:10212000990B28173907F9F0C090EC02D090ED0216
:10213000B701C60146960E942414F601E556FF4FEA
:10214000208130E08091EE02082E000C990B2817B8
:10215000390739F4E091EC02F091ED02E653FF4FBC
:10216000108201E089C81F5F6ECF0093F002FFA1CB
:10217000FF5FFFA32A8D3B8D2E193F093B8F2A8FCE
:10218000C2CA0093EE02F3CFE1102ACE40CE8111F5
:102190000C943F070C945507E9960FB6F894DEBFF0
:1021A0000FBECDBFDF91CF911F910F91FF90EF90A8
:1021B000DF90CF90BF90AF909F908F907F906F9067
:1021C0005F904F903F902F9008950895CF92DF92A7
:1021D000EF92FF920F931F93CF93DF936C017A01DD
:1021E0008B01C0E0D0E0CE15DF0581F0D8016D9104
:1021F0008D01D601ED91FC910190F081E02DC60199
:102200000995892B11F02196EECF7E01C701DF9150
:10221000CF911F910F91FF90EF90DF90CF90089595
:10222000089580E090E00895FC01538D448D252FA2
:1022300030E0842F90E0821B930B541710F0CF9660
:10224000089501970895FC01918D828D981761F092
:10225000828DDF01A80FB11D5D968C91928D9F5FDD
:102260009F73928F90E008958FEF9FEF0895FC0188
:10227000918D828D981731F0828DE80FF11D858D3B
:1022800090E008958FEF9FEF0895FC01918D228DCE
:10229000892F90E0805C9F4F821B91098F73992753
:1022A000089587EF92E00E94451121E0892B09F4FF
:1022B00020E0822F0895FC01848DDF01A80FB11D5D
:1022C000A35ABF4F2C91848D90E001968F7399276C
:1022D000848FA689B7892C93A089B1898C9183704A
:1022E00080648C93938D848D981306C00288F38943
:1022F000E02D80818F7D80830895EF92FF920F9370
:102300001F93CF93DF93EC0181E0888F9B8D8C8DA1
:10231000981305C0E889F989808185FD26C0F62ECD
:102320000B8D10E00F5F1F4F0F731127E02E8C8D68
:10233000E8120CC00FB607FCFACFE889F989808152
:1023400085FFF5CFCE010E945B11F1CF8B8DFE0191
:10235000E80FF11DE35AFF4FF0829FB7F8940B8FFF
:10236000EA89FB89808180620AC09FB7F894EE8970
:10237000FF896083E889F989808183708064808324
:102380009FBF81E090E0DF91CF911F910F91FF906F
:10239000EF900895CF93DF93EC01888D8823C9F0E7
:1023A000EA89FB89808185FD05C0A889B9898C915E
:1023B00086FD0FC00FB607FCF5CF808185FFF2CFF9
:1023C000A889B9898C9185FFEDCFCE010E945B1160
:1023D000E7CFDF91CF9108950895FC01099480E043
:1023E00008950E944F2ECF92DF92EF92FF920F93AB
:1023F0001F93F8940E94E61900919403109195039D
:1024000020919603309197036B017C01C01AD10A89
:10241000E20AF30A9701860160939403709395038F
:1024200080939603909397030A3511052105310592
:1024300078F181E0C8168DE7D806E104F10410F4C4
:10244000960102C021E03DE74B9B03C031952195E9
:102450003109809173048238D8F4809173048F5FBE
:102460008093730480917404609172040E94072D1C
:1024700090937404E0917404F0E0EE0FFF1FEA58AB
:10248000FB4F31832083809174048F5F80937404A9
:1024900078941F910F91FF90EF90DF90CF90089567
:1024A000FC0180819181009711F00C941E2A60E05C
:1024B00070E0CB0108950F931F93CF93DF93EC014E
:1024C00088819981009729F02A813B812617370757
:1024D00088F48B016F5F7F4F0E94892D009761F018
:1024E000998388831B830A832C813D81232B11F4DC
:1024F000FC01108281E001C080E0DF91CF911F914B
:102500000F910895EF92FF920F931F93CF93DF9354
:10251000EC017B018A01BA010E945B12288139819A
:1025200081110DC02115310519F0C9010E949529AD
:10253000198218821D821C821B821A8206C01D838A
:102540000C83B701C9010E94842ECE01DF91CF9187
:102550001F910F91FF90EF900895CF93DF93EC01BF
:102560006115710559F0FB0101900020E9F73197E1
:10257000AF01461B570B0E9482120CC088819981C3
:10258000009711F00E949529198218821D821C82E1
:102590001B821A82CE01DF91CF910895FF920F9393
:1025A0001F93CF93DF9300D0CDB7DEB7FF24F39412
:1025B00087EF92E00E944511892B09F450C087EF04
:1025C00092E00E9423118A3041F01CF4882329F004
:1025D00007C08D3011F0833219F4F092A00222C0AE
:1025E00089831A8200919C0310919D030F5F1F4FF6
:1025F000B80188E993E00E945B12882399F020914A
:1026000098033091990380919C0390919D03BE01A2
:102610006F5F7F4F820F931F0E94842E10939D0344
:1026200000939C0380919C0390919D038F35914072
:1026300008F4BECF60E972E088E993E00E94AD1231
:102640008BE593E00E94EB176AE070E08EE591E085
:102650000E940B1889E593E00E945A18A9CF0F90A9
:102660000F90DF91CF911F910F91FF9008950E94DD
:10267000511181110C94CE120895FC018081918139
:102680000C949529FC01118210821382128215820A
:1026900014826115710551F0FB0101900020E9F7EA
:1026A0003197AF01461B570B0C94821208951F926D
:1026B0000F920FB60F9211242F933F934F935F9376
:1026C0006F937F938F939F93AF93BF93EF93FF93FA
:1026D000E0910601F09107010995FF91EF91BF91FB
:1026E000AF919F918F917F916F915F914F913F91AA
:1026F0002F910F900FBE0F901F9018951F920F9261
:102700000FB60F9211242F933F934F935F936F93C4
:102710007F938F939F93AF93BF93EF93FF93E0913A
:102720000401F09105010995FF91EF91BF91AF91DF
:102730009F918F917F916F915F914F913F912F91D9
:102740000F900FBE0F901F9018951F920F920FB60B
:102750000F9211242F933F934F935F936F937F9327
:102760008F939F93AF93BF93EF93FF9387EF92E085
:102770000E945B11FF91EF91BF91AF919F918F915B
:102780007F916F915F914F913F912F910F900FBE6D
:102790000F901F9018951F920F920FB60F92112451
:1027A0002F938F939F93EF93FF93E0910703F09103
:1027B00008038081E0910D03F0910E0382FD12C0A9
:1027C0009081809110038F5F8F7320911103821786
:1027D00051F0E0911003F0E0E950FD4F958F8093A8
:1027E000100301C08081FF91EF919F918F912F91F4
:1027F0000F900FBE0F901F9018951F920F920FB65B
:102800000F9211242F933F934F935F936F937F9376
:102810008F939F93AF93BF93EF93FF93E0919C02AD
:10282000F0919D020995FF91EF91BF91AF919F911A
:102830008F917F916F915F914F913F912F910F9069
:102840000FBE0F901F901895CF93DF93FC01EE57AA
:10285000FF4F4081469FF001479FF00D1124DF019B
:1028600023E0B695A7952A95E1F7EC01CC57DF4F09
:102870002881A21710F52197288130E0E770FF2703
:1028800002C035952795EA95E2F7FC01EA0FF11DA4
:102890003081232330E058E0541B469F402D112403
:1028A0004770541B02C0359527955A95E2F7322F91
:1028B000FC01EB57FF4F208301C03FEF832FDF91D7
:1028C000CF910895FC01E056FF4F2081222309F4A7
:1028D0005AC0E259F109DC0156961192AE17BF07B2
:1028E000E1F7411102C04FEF420F262F2695542FDA
:1028F000569560FF13C0FC01E656FF4F6081261716
:1029000020F4FC01E20FF11D3689632F6F70FC018A
:10291000E60FF11D66856F5F66872F5FDC01A656A7
:10292000BF4F5217E8F06C91261720F4FC01E20F1C
:10293000F11D3689E32FF0E064E0F595E7956A959F
:10294000E1F7E80FF91F66856F5F6687632F6F7089
:10295000FC01E60FF11D66856F5F66872F5FE1CF93
:1029600040FD11C0FC01E656FF4F2081521720F4B4
:10297000FC01E50FF11D36893F70FC01E30FF11DED
:1029800086858150868708950C94892B0C94812B21
:102990006FEB8FEF90E00E94C41468E780EF90E047
:1029A0000E94C41460E081EF90E00E94C41464E0CF
:1029B00082EF90E00E94C4146FE183EF90E00E94E8
:1029C000C41460E484EF90E00E94C4148EE693E0A7
:1029D0000C945A18CF938FEF90E00E94C614982F52
:1029E00091709093A10381FB992790F990939F0395
:1029F00082FB992790F99093A00383FB992790F984
:102A00009093A20384FB992790F99093A40385FBEC
:102A1000992790F99093030186FB882780F980938A
:102A2000A30380EF90E00E94C6148093020182EF1E
:102A300090E00E94C6148093A50383EF90E00E946B
:102A4000C614C82F84EF90E00E94C6142C2FCC0F20
:102A5000330B322F2227280F311D3093AA032093E6
:102A6000A90381EF90E00E94C614811101C081E1A9
:102A700080936A04CF910895CF93C82F803120F4BA
:102A80008EE592E00E94D41760E170E08C2FCF9128
:102A90000C94C6178F929F92AF92BF92CF92DF9203
:102AA000EF92FF928FB7F894C0907A05D0907B0593
:102AB000E0907C05F0907D058FBF8091AF029091F2
:102AC000B002A091B102B091B202C816D906EA06CE
:102AD000FB0628F48091AE028F5F8093AE02C09215
:102AE000AF02D092B002E092B102F092B202A09195
:102AF000AE02B0E027E339E841E450E00E94972BB2
:102B00004B015C01C701B60128EE33E040E050E024
:102B10000E943B2DC501B401620F731F841F951FD6
:102B2000FF90EF90DF90CF90BF90AF909F908F90ED
:102B300008950F931F930E94E6190091940310913A
:102B400095032091960330919703DC01CB01801B04
:102B5000910BA20BB30B82309D47A105B10580F10B
:102B60004B9903C02FEF32E802C021E03DE780918E
:102B700073048238D8F4809173048F5F8093730458
:102B800080917404609172040E94072D90937404E4
:102B9000E0917404F0E0EE0FFF1FEA58FB4F318321
:102BA0002083809174048F5F809374040E94E619DF
:102BB0006093940370939503809396039093970387
:102BC0008091AC029091AD029C012F5F3F4F3093FA
:102BD000AD022093AC02892B51F48091AB0291E0BD
:102BE000980F9093AB02811102C00E944A15209168
:102BF0009F02E9E4F3E08491E5E3F3E09491E1E2FC
:102C0000F3E0E491EE2309F43CC0882339F18330EA
:102C100091F038F48130A9F0823001F584B58F7DD0
:102C200012C0873091F08830A1F08430B9F48091DF
:102C300080008F7D03C0809180008F77809380001B
:102C40000DC084B58F7784BD09C08091B0008F77A7
:102C500003C08091B0008F7D8093B000F0E0EE0F54
:102C6000FF1FED5EFC4FA591B4913FB7F894211181
:102C700004C08C919095982302C0EC919E2B9C935C
:102C80003FBF10929F021F910F910895CF93DF9342
:102C9000C2E0D0E0FE01E851FD4F6491CE010E94F8
:102CA000C4142196CB32D105A9F7C0E3D0E0C133DB
:102CB00021F464E881E390E002C060E0CE010E946C
:102CC000C4142196C833D10591F780E692E0DF91D4
:102CD000CF910C9479178EBD0DB407FEFDCF8EB544
:102CE0000895CF93DF932A981C99FECF8EE70E9418
:102CF0006B16C0E3D0E0CE010E94C6140E946B1692
:102D00002196C833D105B9F72A9ADF91CF9108955A
:102D1000CF93C62F2A981C99FECF0E946B168C2F3A
:102D20000E946B162A9ACF9108952A981C99FECF7B
:102D3000862B0E946B1680E00E946B162A9A0895DB
:102D400060EC84E30C9495162A981C99FECF0E949F
:102D50006B161C99FECF2A9A089586E30E94A4164A
:102D600061E070E080E090E00C940B1AE99885EE49
:102D700090E1909307018093060180919E0281115A
:102D80000E94AD1610927304109275041092740490
:102D90000895CF93DF930E94AD16CEEFCF3FC1F0E1
:102DA00084E30E94A416DFEFDC0F8077803141F4CA
:102DB000C1110EC084E792E0DF91CF910C94791796
:102DC00061E070E080E090E00E940B1ACD2FE6CF2A
:102DD000DF91CF91089583EF91E190930701809364
:102DE000060180916900837F846080936900E99A7D
:102DF00080919E0281110C94C9160895CF93DF93A0
:102E00002A9A88E390E0FC013197F1F72A9801971C
:102E1000F1F72A9A86E590E00197F1F780E30E94A6
:102E2000A4166AE070E080E090E00E940B1A2A98F5
:102E300080E40E946B16C2E0D0E0CE010E94C6146E
:102E40000E946B162196CB32D105B9F72A9A80E100
:102E500090E00197F1F70E94711661E070E080E068
:102E600090E00E940B1ADF91CF910C94C91690ED5F
:102E7000980F9A3070F09FE9980F963010F499EA05
:102E800005C09FEB980F963018F499EC980F01C08D
:102E9000982F892F08951F93CF93DF93C82FD0E0E9
:102EA000CE010E94D6170E943717182F1295107F57
:102EB000CE0101960E94D6170E943717810FDF912D
:102EC000CF911F910895009769F0FC0101900020B7
:102ED000E9F73197AF01481B590BBC0187EF92E02E
:102EE0000C94E61080E090E008958EE892E00C9457
:102EF0006317CF93DF930E946317EC010E9475174D
:102F00008C0F9D1FDF91CF9108958F929F92AF926A
:102F1000BF920F931F93CF93DF93CDB7DEB7A197E7
:102F20000FB6F894DEBF0FBECDBF19A2423008F431
:102F30004AE08E010F5D1F4F842E912CA12CB12CE5
:102F4000A50194010E943B2DE62FB901CA01015051
:102F50001109EA3014F4E05D01C0E95CD801EC939A
:102F6000232B242B252B61F7C8010E946317A19600
:102F70000FB6F894DEBF0FBECDBFDF91CF911F918A
:102F80000F91BF90AF909F908F900895AB01682FE5
:102F90004115510521F487EF92E00C947D1170E00A
:102FA00080E090E00C9485170C94631720919C03AB
:102FB00030919D038217930760F42091980330911C
:102FC00099032115310529F0F901E80FF91F8081D6
:102FD000089580E008950F931F93CF93DF938C01A2
:102FE000C0E0D0E0F801EC0FFD1F6491662341F0D2
:102FF00087EF92E00E947D11892B11F02196F2CF8C
:10300000CE01DF91CF911F910F910895682F87EF27
:1030100092E00C947D11CF92DF92EF92FF92CF93CA
:10302000DF936115710559F4682F87EF92E0DF9106
:10303000CF91FF90EF90DF90CF900C947D116C01B9
:10304000990FEE08FF086A307105D9F4F7FE17C032
:103050008DE20E940618EC0166277727CB016C19D8
:103060007D098E099F094AE00E9485178C0F9D1FDC
:10307000DF91CF91FF90EF90DF90CF9008954AE0DD
:1030800001C0462FC701B601DF91CF91FF90EF90AD
:10309000DF90CF900C948517CF93DF936AE070E0B8
:1030A0000E94C617EC010E9475178C0F9D1FDF91BF
:1030B000CF910895CF93DF930E94EB17EC010E940C
:1030C00075178C0F9D1FDF91CF91089510923E04CC
:1030D00010926404109265041092B40310923304A9
:1030E0001092340487E080933504109247041092C4
:1030F00046048FEF8093660480939E03A4E5B4E0BA
:10310000ECEAF3E01D921D92119283E0E43BF80794
:10311000C9F71092410486E990E0909345048093AA
:10312000440480E090E0A0E8BEE3809350049093D4
:103130005104A0935204B093530410923F04109290
:103140004204109243041092670481E08093680463
:10315000109269041092400408950F931F93CF9327
:1031600010924204882309F49FC090913E04992351
:1031700009F49AC0C82F492F50E0282F30E02417B7
:10318000350794F0981758F48EE893E00E94EB17F7
:1031900086E893E00E94EB178C2F0E944C18CF9189
:1031A0001F910F910C94661880913404482F50E0C1
:1031B0004217530708F46EC0B90176956795B62F8C
:1031C0002417350739F41092B40310923304109287
:1031D00034043BC040913304C0FF3DC004EB13E016
:1031E000A62FAB1B641798F4E62FF0E0E256FC4FD5
:1031F0002789522F52955F70968970E1979F9001B1
:103200001124252BF80121938F016F5FE9CF80FDF9
:103210000CC0B0E0A256BC4FE62FF0E0E256FC4FE7
:1032200096899295907F56969C938C1B809334043C
:10323000482F50E09A012150310937FD9A01359508
:1032400027952093330480FD02C087E001C083E00E
:103250008093350411C0461B4093330450E04F5F08
:103260005F4F6C547C4F84EB93E00E94692E8091F9
:1032700034048C1B8093340481E080934204809159
:10328000340480933E0481110FC010924F041092B9
:103290004E040AC081E992E00E94D4178C2FCF918E
:1032A0001F910F910C944C18CF911F910F9108957D
:1032B0009091E7024091E6029730A9F4442399F0F7
:1032C000E091E5026E2F70E02091EA0230E021509B
:1032D000310962177307A4F5EF5FE093E502F0E0B0
:1032E000ED54FD4F10825091E802652F70E0292FB8
:1032F00030E02F5F3F4F261B370B1216130624F4C6
:1033000001C0880F2A95EAF7E091E502F0E0ED545C
:10331000FD4F2081822B80834F5F4093E602292F4F
:10332000092E000C330B261B370B37FD04C0951BF1
:103330009093E70203C087E08093E70281E008955D
:1033400080E00895CF92DF92EF92FF920F931F9348
:10335000CF93DF936C018B017A014617570720F456
:10336000812F8A01E62EF82E60E972E0C6010E94E4
:103370004213C0919C03D0919D030C171D07E0F4EC
:10338000EC16FD0608F4E701E0919803F09199032B
:10339000EC0FFD1FF08010826091980370919903EB
:1033A000600F711FC6010E94AD1280919803909129
:1033B0009903C80FD91FF882C601DF91CF911F91E1
:1033C0000F91FF90EF90DF90CF9008953FB7F89462
:1033D00080917F0590918005A0918105B091820533
:1033E00026B5A89B05C02F3F19F00196A11DB11D60
:1033F0003FBFBA2FA92F982F8827820F911DA11D9B
:10340000B11DBC01CD0143E0660F771F881F991FD6
:103410004A95D1F708958F929F92AF92BF92CF9223
:10342000DF92EF92FF926B017C010E94E6194B0143
:103430005C01C114D104E104F104F1F00E94E61929
:10344000DC01CB0188199909AA09BB09883E934080
:10345000A105B10570F321E0C21AD108E108F10815
:1034600088EE880E83E0981EA11CB11CC114D10403
:10347000E104F10419F7DDCFFF90EF90DF90CF90DA
:10348000BF90AF909F908F9008951F920F920FB6AC
:103490000F9211242F933F938F939F93AF93BF93DA
:1034A00080917A0590917B05A0917C05B0917D0576
:1034B00030917E0526E0230F2D3720F40296A11DC2
:1034C000B11D05C029E8230F0396A11DB11D20934E
:1034D0007E0580937A0590937B05A0937C05B0933D
:1034E0007D0580917F0590918005A0918105B09127
:1034F00082050196A11DB11D80937F0590938005E3
:10350000A0938105B0938205BF91AF919F918F9158
:103510003F912F910F900FBE0F901F901895CF9352
:10352000DF93CDB7DEB7C159D1090FB6F894DEBF2E
:103530000FBECDBF789484B5826084BD84B58160B0
:1035400084BD85B5826085BD85B5816085BD80916E
:103550006E00816080936E001092810080918100E6
:1035600082608093810080918100816080938100DE
:10357000809180008160809380008091B1008460A0
:103580008093B1008091B00081608093B000809101
:103590007A00846080937A0080917A0082608093C0
:1035A0007A0080917A008E7F80937A0080917A00F1
:1035B000806880937A001092C100E0910703F09137
:1035C000080382E08083E0910303F09104031082FA
:1035D000E0910503F091060380E1808310920F03D0
:1035E000E0910B03F0910C0386E08083E0910903E6
:1035F000F0910A03808180618083E0910903F0915A
:103600000A03808188608083E0910903F0910A03B6
:10361000808180688083E0910903F0910A038081B2
:103620008F7D80838CE191E00E945A185398549AC0
:10363000259A239A2498229A3898409A80E58CBD3E
:1036400052982A9A2D9A2B9880E090E00E94C614F6
:10365000833339F481E090E00E94C614813209F48A
:1036600058C60E94C81480E090E00E94C6148333BC
:1036700011F00E94461663E380E090E00E94C414BB
:1036800061E281E090E00E94C4140E94EA1484E1A7
:1036900091E00E94EB170E94FE1660E881EF0E9405
:1036A0009516182F8FEF810F8E3F38F083E091E051
:1036B0000E94EB1710929E0207C08FEF90E00E94CD
:1036C000EB1781E080939E0287EF90E00E94EB175A
:1036D0006AE070E0812F0E94C6178BEE90E00E9496
:1036E000EB1760E880EF0E9495160E944C188091BD
:1036F0009E021E821D82882399F08DEE91E19C83AB
:103700008B838B819C81AD81BE8180936E0490936D
:103710006F04A0937004B093710480EA96E112C024
:103720008DEE91E19C838B838B819C81AD81BE81E9
:1037300080936E0490936F04A0937004B09371040F
:103740008FEE91E190936D0480936C04529A809176
:10375000A403882321F089ED90E00E945A1862E3C7
:1037600070E080E090E00E940B1A80E1809381007D
:10377000109280008CE89CE39093870080938600F1
:1037800082E18093810089E995E190939D02809385
:103790009C0281E080936F006EE571E088E993E020
:1037A0000E945B1280919E02811109C00E94EB165B
:1037B0008091A403882399F088EC90E00EC060E823
:1037C00088E00E949516823331F460E880E00E9420
:1037D00095168D3059F383E890E00E945A189E01A7
:1037E0002F5F3F4F19018090A002882009F48DC3FC
:1037F0001092A00280E090E00E94D617803549F434
:103800008BE391E00E94791784EE93E00197F1F742
:103810006FC38F3309F06CC081E090E00E94D6172F
:10382000833589F403E111E0D8018D919D918D01DB
:103830000E94D4178FEC91E00E94D417B1E00B31B5
:103840001B0791F728C38FE30E9406188FE292E0CE
:103850000E94EB1786E50E94061880E20E94061877
:1038600082E50E94061880E20E94061884E70E9402
:10387000061880E20E94061888E50E94061880E279
:103880000E94061886E40E94061880E20E9406182C
:1038900083E50E94061880E20E94061880E50E94D7
:1038A000061880E20E94061883E40E94061880E24F
:1038B0000E94061882E70E94061880E20E940618FD
:1038C00087E50E94061880E20E94061880919E02F9
:1038D000882309F4E0C288E70E94061880E20E946B
:1038E000061885E60E94061880E20E940618D3C2D8
:1038F000863511F58EE391E00E94D41780919E02E7
:103900008823A9F087E292E00E94EB178AEC91E00D
:103910000E94D417309903C083E391E002C087E38B
:1039200091E00E94D41781E292E00E94EB1789E5B2
:1039300091E00E947917DCC2823589F48091830579
:1039400090918405009711F487E895E06AE070E0B3
:10395000F101E81BF90BCF010E940B186AC18335F6
:1039600009F060C11B820E94B616A12CB12CDD2487
:10397000DA94C158DF4F1882CF57D040912CF1E034
:10398000CC57DF4FF883C458D04076E1C72EEBE028
:103990008E2E772473946CE771E0CE0181599F4F8E
:1039A0000E94421380919C0390919D03A816B90632
:1039B00098F40091980310919903E1966EAD7FAD54
:1039C000E197C8018A0D9B1D0E948B2E009721F064
:1039D0007C01E01AF10A03C0EE24EA94FE2CCE0129
:1039E00081599F4F0E943D132FEFE216F20609F412
:1039F00095C43FEFA316B30609F490C4C5010E9415
:103A0000D617682E80930101C50101960E94D61732
:103A1000582E8093000143E56416A9F050E5651225
:103A20000BC0C50102960E94D6178D3309F079C4E8
:103A300085010D5F1F4F09C08DE3581272C48501C7
:103A40000E5F1F4F02C000E010E057019FEFA91A60
:103A5000B90AA3E56A121BC0B5E0DB1609F461C41C
:103A6000E3E45E1203C09924939495CFFDE45F16BE
:103A700019F022E552128FCFD394F101CD9CE00DC5
:103A8000F11D112411821082758A912C84CF32E5A8
:103A900063122BC0992091F0A701B801CE01815982
:103AA0009F4F0E94A219CE0181599F4F0E94501230
:103AB000CC57DF4F6883C458D04075C04FEFD41641
:103AC00009F469CFA701B801CE0181599F4F0E9427
:103AD000A219CE0181599F4F0E945012F101CD9C35
:103AE000E00DF11D1124658B5EC05FEFD51609F462
:103AF00052CF80E5681232C0A80141505109B80187
:103B000062507109CE0181599F4F0E94A219CE01C6
:103B100081599F4F0E945012662ECE0181599F4FAE
:103B20000E943D1398E0961508F4FBC3A701B80165
:103B3000CE0181599F4F0E94A219CE0181599F4FFA
:103B40000E9450128D9CF0011124E60DF11DEE0F24
:103B5000FF1FE20DF31D7683658325C0A4E46A127E
:103B60000CC0F101CD9CE00DF11D11240283B1E0E8
:103B7000EB1AF108F482E3820ECFE3E46E1219C06F
:103B8000A701B801CE0181599F4F0E94A219CE0111
:103B900081599F4F0E945012F101CD9CE00DF11D03
:103BA000112471836083CE0181599F4F0E943D1380
:103BB000F2CEF6E46F12EFCEC501801B910B97FD9C
:103BC000019695958795C158DF4F8883CF57D04090
:103BD0008150853008F0DFCE80919E02882309F461
:103BE000DACEF12CC8010E94D6170E943717E82EB2
:103BF000E29430EFE322C80101960E94D6170E949A
:103C000037176E2D680F8DE08F0D0E948816F39484
:103C10000E5F1F4FC158DF4F2881CF57D040F2169B
:103C200008F3B9CE843741F40E944A154AE00E9455
:103C300085170E9475175CC1883599F481E090E082
:103C40000E94D617813511F40E94B61681E090E0EB
:103C50000E94D617853411F00C9410280E94EB16A0
:103C600047C1863411F40C941028833409F088C0BD
:103C700081E090E00E94D617182F873409F07AC0AF
:103C80008DEA91E00E94EB178091A1036AE070E059
:103C900090E00E940B1888EA91E00E94EB17809157
:103CA0009F036AE070E090E00E940B1883EA91E0C5
:103CB0000E94EB178091A0036AE070E090E00E9400
:103CC0000B188CE991E00E94EB178091A2036AE047
:103CD00070E090E00E940B1880910301811104C0F4
:103CE00085E991E00E94EB178091A303882321F0DE
:103CF00085E891E00E94EB178CE791E00E94EB17BA
:103D00008091A4036AE070E090E00E940B1884E7C1
:103D100091E00E94EB176AE070E08091A5030E9499
:103D2000C61784E691E00E94EB176091A903709199
:103D3000AA0380E090E04AE00E94851780916A041F
:103D4000813151F086E591E00E94EB176AE070E066
:103D500080916A040E94C6178091A403882309F405
:103D60009AC086E491E00E94EB176AE070E08091CF
:103D700002015DC08CEB810F823008F0AAC0A1C3A4
:103D8000873509F08BC081E090E00E94D617182F8C
:103D9000833509F058C482E090E00E94D61783333F
:103DA00009F051C480919E02882309F44CC483E039
:103DB00090E00E94D617182F082E000C990B0E9435
:103DC000542E892B11F40C941028812F0E94371740
:103DD00010E3180F1E3310F00C941028812F0E944E
:103DE000A416F82E61E070E080E090E00E940B1ACB
:103DF0008DE30E94A416082F88ED91E00E94EB1736
:103E0000812F0E943C158BEC91E00E94EB1760E142
:103E100070E08F2D82958F700E94C61782EC91E022
:103E20000E94EB1760E170E0802F82958F700E94F6
:103E3000C61731C040919C0350919D036091980337
:103E40007091990387EF92E00E94E610C158DF4F0E
:103E5000A880CF57D040AA20E1F088E291E00E94EC
:103E6000EB170FE010E0F12CC8010E94C614E82EF9
:103E70000E943C156E2D8DE08F0D0E948816F394E4
:103E80000F5F1F4FC158DF4FB880CF57D040BF10D2
:103E9000EBCF0E94EB1680E992E04BCD823709F020
:103EA00023C481E090E00E94D617082E000C990BE5
:103EB0000E94542E892BC1F082E090E00E94D61718
:103EC000082E000C990B0E94542E892B09F04DC42A
:103ED0000BC0133509F42AC2812F110F990B0E94D0
:103EE000542E892B09F0DCC286EE91E00E945A180C
:103EF0008091A002882311F40C9410288091030172
:103F0000882319F081E080939F021092AB0301E0B7
:103F100080917304882309F4F9C18091730481505E
:103F20008093730480917504609172040E94072D40
:103F300090937504E091750481E08E0F8093750471
:103F4000F0E0EE0FFF1FEA58FB4F808191819093C4
:103F5000A2028093A1021092410460913E04662364
:103F6000E9F070E06150710984EB93E00E94241441
:103F70008091390490E0880F991F8C5A9B4F909341
:103F80004F0480934E04E0914C04F0914D048081E5
:103F9000918190933D0480933C0404C010924F049F
:103FA00010924E042091A1023091A202E0914C04A3
:103FB000F0914D043183208380913E04882379F071
:103FC000E0914E04F0914F04309749F040815181C7
:103FD00042275327952F991F9927991F01C091E0D8
:103FE0002115334814F091112AC01AE080E00E9494
:103FF000FD0180913E04811105C010924F04109282
:104000004E0404C0115091F70E9466181092A60346
:104010001092A70320916504E0914C04F0914D04A7
:1040200080819181E22FF0E0EE0FFF1FEC5AFB4FF1
:10403000918380832F5F2093650410E01DC18E3F24
:1040400070F081E00E94FD018091A80381113BC0C6
:1040500040E060E08EE993E00E94621434C0883250
:1040600091F583E090E0909347048093460480911B
:104070006C0490916D04009751F420916E0430917E
:104080006F04232B21F42091700420FF1CC0E091C9
:104090006E04F0916F0440917004509171049A0184
:1040A0003595279540FF0AC0DC01A20FB31F4D9143
:1040B0005C91E40FF51F0190F081E02D820F931FBA
:1040C000099580936B04C0904C04D0904D04D601A8
:1040D000ED90FC90B701F7FE04C0662777276E19B4
:1040E0007F09072E000C880B990B0E94612A2DEC8A
:1040F0003CEC4CE45EE30E94C02A0E94CE2C9B0163
:10410000709345046093440460916404A4E5B4E0B2
:10411000EEE9F3E010E06117E1F08D919D91A701C8
:104120004827592757FD12C0009781F04685442340
:1041300069F05701A81AB90AC501B7FE03C09195E5
:1041400081959109281739070CF05CC31F5F3196E0
:10415000E2CF1FEF8091A803882321F082E00E9424
:10416000FD018AC0683009F062C0E0916504F0E0AA
:10417000E256FC4F8685833050F180914604909141
:104180004704181619061CF51AE0F12C8091AB03B0
:10419000882321F01092AB03FF24F39482E00E9465
:1041A000FD0180913E04883230F08091AB0388237A
:1041B00011F0115059F71092A6031092A703F09234
:1041C000AB0340E060E08EE993E00E94621410913E
:1041D0003E04112361F1E0916504F0E0E256FC4FEA
:1041E0008685882321F1612F70E06150710984EB8D
:1041F00093E00E94241490913904809165049813EF
:104200000AC0812F0E94AD1840E060E08EE993E083
:104210000E9462140CC0113041F480913E048E3F24
:1042200020F084EC92E00E945A181150E1F61091AF
:104230006504E0914C04F0914D0480819181E12F5F
:10424000F0E0EE0FFF1FEC5AFB4F9183808381E07B
:10425000810F883019F08093650406C010926504C0
:1042600080936404109267048091650490916404C3
:10427000981710F480936404612F80913504909115
:1042800034048730B1F49923A1F0E09133044E2F28
:1042900050E02091380430E0215031094217530793
:1042A0000CF011C3EF5FE0933304F0E0E256FC4FF3
:1042B000168A70913604472F50E0282F30E02F5F88
:1042C0003F4F241B350B121613062CF4612F01C02F
:1042D000660F2A95EAF7E0913304F0E0E256FC4FCE
:1042E0002689622B668B9F5F90933404282F082EBB
:1042F000000C330B241B350B37FD04C0871B809348
:104300003504A9C2B7E0B0933504A5C20E943713A3
:104310006ACA88E690E00E945A18B7C98B81811159
:10432000D6C48AE391E00E94EB17B3CD69E472E052
:10433000C1010E94421380919C0390919D030597B7
:1043400088F0009198031091990369817A81C801DE
:1043500004960E948B2E009729F0DC01A01BB10B64
:104360008D0102C00FEF1FEFC1010E943D1383E1D9
:10437000A82E81E0B82EE12CF12C11277E2CF5011E
:10438000C190D1905F01A80162E070E0C1010E947C
:10439000A2198D819E81892B69F4C114D10439F051
:1043A00081E0D6019C91992319F080E001C0882D0D
:1043B000982E14C089819A81C114D10439F49924AA
:1043C0009394FC018081882349F007C0B6010E94C4
:1043D0007B2E99249394892B09F0912CC1010E9482
:1043E0003D13992009F44AC0C6010E94D41789E4FC
:1043F00092E00E94D41740919C0350919D03B80114
:104400006F5F7F4FF3E0C1017F121FC00E94A219AE
:10441000C1010E9450127093AA036093A903C101C5
:104420000E943D136091AA0383EF90E00E94C414A0
:104430006091A90384EF90E00E94C4146091A903E5
:104440007091AA0380E090E0F1CB0E94A219C10113
:104450000E945012162FC1010E943D13812F0E940D
:104460004C18F701E25FFE4F8081612F90E00E94BF
:10447000C41471100CC0109302013ACD2FEFE21A50
:10448000F20A34E0E316F10409F078CF04CD41E0FC
:10449000741203C010936A042BCD1093A50328CD8A
:1044A00082E090E00E94D617082E000C990B0E9423
:1044B000542E892B09F418CD80919E0281111DC0C4
:1044C00013CD82E090E00E94D617833509F4D0C561
:1044D000853509F4ADC5833409F4ADC5823509F4D9
:1044E000ADC5843409F4B1C58C3409F4B5C58F3435
:1044F00009F0C4C5E3EAF3E0B6C581E00E944B17BA
:10450000182F83E090E00E94D6178E3699F584E04C
:1045100090E00E94D617082F082E000C990B0E94DD
:10452000542E892B39F1802F0E943717082F1F3204
:1045300008F076C58CE292E00E94D417812F0E9489
:104540003C158FEA91E00E94D4170E5F802F0E94E5
:104550003C1589E492E00E94D417F12CF01608F083
:104560009ACC60E8812F8F0D0E9495160E943C1511
:10457000F394F4CF1E33A8F41F3210F460E801C0A6
:1045800060EC812F0E949516082F8CE292E00E9429
:10459000D417812F0E943C1588E991E00E94D4171E
:1045A0009FC01E3349F58BEB91E00E94EB172A98D0
:1045B0001C99FECF8EEF0E946B168E010F5F1F4F6E
:1045C0006E0159E0C50ED11C780180E00E946B1687
:1045D000D7018D937D01AC15BD05B9F72A9AF80175
:1045E00081918F010E943C158FEC91E00E94D417BD
:1045F0000C151D05A1F74FCC193909F011C510E0B4
:10460000112341F0103111F0103279F48FEC91E068
:104610000E94D41784EB91E00E94EB17812F0E9437
:104620003C1581EB91E00E94EB1760E8812F0E941E
:1046300095160E943C158FEC91E00E94D4171F5FE5
:104640001F32F1F628CC812F110F990B0E94542EA6
:10465000892B09F449CC82E090E00E94D617082EFD
:10466000000C990B0E94542E892B09F43DCC83E059
:1046700090E00E94D617082E000C990B0E94542E31
:10468000892B09F431CC84E090E00E94D617082EE3
:10469000000C990B0E94542E892B09F425CC81E043
:1046A0000E944B17182F83E00E944B17082F682F8A
:1046B000812F90E00E94C41480919E02882309F407
:1046C00017CC8EEF810F8E3308F012CC602F0E9432
:1046D00088168CE991E00E94D417812F0E943C1526
:1046E000802F0E943C15D7CB883709F073C081E03A
:1046F00090E00E94D617082E000C990B0E94542EB1
:10470000892B09F4F1CB82E090E00E94D617082EA5
:10471000000C990B0E94542E892B09F4E5CB809153
:104720009E02882309F4E0CB81E00E944B17F82E0B
:1047300000E310E0013321F46F2D81E390E002C02B
:1047400060E0C8010E94C4140F5F1F4F08331105B9
:1047500089F70E9471168BE092E00E94EB178F2D73
:104760000E943C158AEF91E0C1CB81E00E944B177B
:10477000082F89E192E00E94EB17802F0E943C15E0
:1047800083E090E00E94D61710E08E36C9F486E1EF
:1047900092E00E94EB17E12CF12C8FEC91E00E944B
:1047A000D417C8018E0D9F1D0E94C6140E943C158F
:1047B000FFEFEF1AFF0A20E1E216F10471F76BCB6D
:1047C00082E192E00E94EB17C8010E94C6140E9489
:1047D0003C1561CB853609F087CB81E090E00E94E3
:1047E000D617833429F40E94C8140E94EA1480CB9F
:1047F00080919E02882309F477CB0E9446160E947E
:10480000FE1676CB17FDA6CC812F880F990B9C0145
:104810002C5A3B4F7901D9016D917C91AB01770FF7
:10482000660B770BF60180819181092E000CAA0B93
:10483000BB0B5A016B01A80EB91ECA1EDB1EC601B6
:10484000B50122E030E040E050E00E945D2DD7014C
:104850002D933C9311CD80913E048F5F80933E0455
:10486000E0914C04F0914D048081918190933B0440
:1048700080933A04E12F110FFF0BE256FC4F86851F
:104880008F5F86878091A403882389F08091AB0392
:10489000882369F01091730480910201811738F424
:1048A00083ED92E00E94EB17812F0E944C188091BB
:1048B000AB03882329F080910301811100939F02AB
:1048C0001092AB0325CB8FEB92E00E94EB176AE0CE
:1048D00070E0812F0E94C61785EB92E00E94EB17D3
:1048E0006AE070E0809133040E94C61781EA92E08A
:1048F0000E945A1889EE91E00E94D417E091660454
:10490000E7FDD4C0EE0FFF0BEC5AFB4F6AE070E0FE
:10491000808191810E940B188EE991E00E94D4174A
:10492000E0916604EE0FFF0BEC5AFB4F6081718142
:10493000072E000C880B990B0E94612A6B017C01E9
:10494000E0919E03EE0FFF0BEC5AFB4F60817181EB
:10495000072E000C880B990B0E94612A9B01AC0169
:10496000C701B6010E94552C6B017C014B015C0113
:104970009B01AC010E94022D882319F08DEA91E081
:104980001AC026013701E89477F82FEF3FEF4FE781
:104990005FE7C301B2010E94022D81110FC02FEF0A
:1049A0003FEF4FE75FE7C301B2010E945A2A181692
:1049B0002CF481EB91E00E94631774C02FEF3FEF5E
:1049C0004FE75FE4C701B6010E94FD2C18161CF4E6
:1049D00085EB91E0F0CF2FEF3FEF4FE75FECC701A2
:1049E000B6010E945A2A87FDF3CF20E030E0A901EA
:1049F000C701B6010E945A2A87FF09C08DE20E94B2
:104A0000061846015701B7FAB094B7F8B0942AE0F7
:104A100037ED43EA5BE3C501B4010E94E92B4B018A
:104A20005C010E94CE2C6B017C010E945F2A9B01DD
:104A3000AC01C501B4010E94E82B4B015C014AE0C6
:104A4000C701B6010E9485178EE20E94061820E079
:104A500030E040E251E4C501B4010E94C02A4B019C
:104A60005C010E94CE2C6B01E12CF12C4AE0C701C5
:104A7000B6010E948517C701B6010E945F2A9B01FB
:104A8000AC01C501B4010E94E82B20E030E040E217
:104A900051E40E94C02A0E94CE2C80E090E04AE0BF
:104AA0000E94851789EB91E00E94D4178BEB91E06F
:104AB0000E94D417E0919E03E7FD0BC0EE0FFF0BA1
:104AC000EC5AFB4F6AE070E0808191810E940B18E4
:104AD00004C084EC91E00E94D41785E992E00E9422
:104AE000EB176AE070E0809164040E94C61789ECBD
:104AF00091E00E94D4176AE070E0809165040E9402
:104B0000C6178CEC91E00E94D41781E892E00E94D5
:104B1000EB17E0914C04F0914D046AE070E0808165
:104B200091810E940B188EEC91E00E94D417E091C5
:104B30004E04F0914F046AE070E0808191810E9400
:104B40000B188EEC91E00E94D4176AE070E080911F
:104B50003A0490913B040E940B188EEC91E00E9465
:104B6000D4176AE070E080913C0490913D040E946B
:104B70000B1886E792E00E94EB176AE070E08091E4
:104B80003F040E94C6178DE692E00E94EB176AE090
:104B900070E0809140040E94C61782E692E00E9475
:104BA000EB176AE070E0809134040E94C6178AE532
:104BB00092E00E94EB17809167046AE070E090E059
:104BC0000E940B188FE492E00E94EB178091420440
:104BD0006AE070E090E00E940B1885E492E00E9489
:104BE000EB176AE070E080914604909147040E94C0
:104BF0000B180E9475178CE392E00E94EB17F12CC2
:104C000080913E04F81688F46F2D70E084EB93E0F9
:104C10000E942414809139046AE070E0082E000C90
:104C2000990B0E940B18F394EBCF81ED91E00E9459
:104C3000D41784ED91E00E94D4176AE070E080916F
:104C40003E040E94C61787ED91E00E94791789ED16
:104C500091E00E94D417D12C80916404D81670F58D
:104C600083EE91E00E94D4176AE070E08D2D0E94DF
:104C7000C6178DEE91E00E94D417ED2CF12CF701B0
:104C8000E256FC4F6AE070E086850E94C61786EE09
:104C900091E00E94D417F701EE0FFF1FEC5AFB4F73
:104CA00080819181009721F06AE070E00E940B18EA
:104CB00087ED91E00E94D417D394CECF80E992E0A3
:104CC0000E94791780E992E00E947917C9CD8091FE
:104CD0009E028823B9F08BE30E94A4160E94AD16B1
:104CE0001EEF1F3F79F085E30E94A4160FEF010F1E
:104CF0008077803209F08CC1111104C08EE791E0F9
:104D00000E947917E9961FAEE997CC57DF4FA8802C
:104D1000C458D040E996BFACE997AB1409F48AC8EF
:104D2000E8961FAEE89726E1C22EE896AFACE8976A
:104D3000CA9CC0011124F101E80FF91F20813181C3
:104D4000232B11F110E09F012B5E3F4FC457DF4F23
:104D500039832883CC58D040EF96FFAFEEAFEF9762
:104D60003396C257DF4FF983E883CE58D040EF9691
:104D70004EAD5FADEF974E5F5F4FC057DF4F59832A
:104D80004883C059D040B6C0C12CDF015596EB9680
:104D9000BFAFAEAFEB9705965101A80EB91EED96C9
:104DA000BFAEAEAEED979F012D5F3F4FEF963FAF89
:104DB0002EAFEF97AF014E5F5F4FC058DF4F598363
:104DC0004883C058D040EB96AEADBFADEB978C9109
:104DD000C81608F00AC1EF96EEADFFADEF978080E0
:104DE0009180C058DF4FA881B981C058D0400C9144
:104DF0000E94E6192B013C0110E08016910660F13B
:104E0000C8010E94D6178053ED96EEADFFADED9729
:104E1000E80FF11DE80FF11DA080B1807501B7FE0C
:104E200004C0EE24FF24EA18FB080E94E61964156A
:104E3000750586059705C8F3B7FE02C05A9801C0EC
:104E40005A9AC701FF0CAA0BBB0B480E591E6A1ECB
:104E50007B1E0F5F1F4FD1CF0E94E61964157505A9
:104E600086059705C8F3C394AECF112331F061E0F6
:104E700070E080E090E00E940B1AEF96AEADBFADFF
:104E8000EF97ED90FC90C257DF4FE881F981CE5843
:104E9000D040F081CB57DF4FF883C558D040C05782
:104EA000DF4FA881B981C059D040CC900E94E6194B
:104EB0004B015C019701FF0C440B550BC058DF4FB1
:104EC000288339834A835B83C058D040220F331F25
:104ED000441F551FCA57DF4F288339834A835B839A
:104EE000C658D040CB57DF4F3881C558D0403C150D
:104EF00060F41F5FC457DF4FE881F981CC58D04080
:104F00008081181708F4B1CF70C08C2D90E00E94FA
:104F1000D6178A3314F490E301C097E3891B44E069
:104F200050E0EB965FAF4EAFEB9758E0EC965FAF7B
:104F3000EC97A82F880FBB0BC657DF4FB983A88308
:104F4000CA58D0402401350100E0EC96BFADEC9783
:104F5000EB2EF12CC657DF4FE881F981CA58D040BB
:104F6000EE22FF22011104C0E114F10421F405C076
:104F7000E114F10411F45A9801C05A9AC058DF4F55
:104F8000288139814A815B81C058D040420E531E2E
:104F9000641E751E0E94E619641575058605970541
:104FA000C8F30F5F0230F1F6CA57DF4F888199814D
:104FB000AA81BB81C658D040880E991EAA1EBB1E6E
:104FC000EC969FADEC979695EC969FAFEC97EB9691
:104FD000AEADBFADEB971197EB96BFAFAEAFEB9712
:104FE000AB2B09F0AFCFC3947DCF5A98E896BFADF5
:104FF000E897BF5FE896BFAFE897DB1608F093CE5F
:10500000E996EFADE997EF5FE996EFAFE9977DCECF
:1050100061E070E080E090E00E940B1A102F61CEFA
:1050200060E972E088E993E00E94AD120C947E1F63
:10503000EFE9F3E018C020EA33E01CC042EA53E095
:10504000E7965FAF4EAFE79719C084EA93E0E79623
:105050009FAF8EAFE79712C0A3E0B1E0E796BFAF76
:10506000AEAFE7970BC0E796FFAFEEAFE79706C08E
:1050700021EA33E0E7963FAF2EAFE797153439F4D6
:1050800081E0E796AEADBFADE7978C9305C0E7969C
:10509000EEADFFADE797108260919F03660F8091A0
:1050A000A1038068682B9091A003F4E09F9FC0014A
:1050B0001124682B9091A20328E0929FF001112403
:1050C0006E2B9091A40330E1939FA0011124642BD7
:1050D0009091030140E2949F90011124622B9091E2
:1050E000A30350E4959FC0011124682B8FEF90E03B
:1050F0000E94C4140C94781F88E993E00C943D132B
:10510000CF93DF93E7EFF2E01382128288EE93E011
:10511000A0E0B0E084839583A683B78385E291E025
:105120009183808385EC90E09587848784EC90E080
:105130009787868780EC90E0918B808B81EC90E064
:10514000938B828B82EC90E0958B848B86EC90E045
:10515000978B868B118E128E138E148EE2E7F4E0FD
:1051600082E88083118213821282CEE9D3E08FE736
:105170008093380484E0809336041E8A10923304AE
:105180001092340487E08093350480EF80933704D5
:10519000E8E4F4E0F0934D04E0934C048AE494E0F6
:1051A00090934F0480934E0410926D0410926C04FF
:1051B00010926F0410926E04109271041092700499
:1051C000118210820E94661881E180936A04188619
:1051D00019861A8660E972E088E993E00E9442131A
:1051E0000E94E6196093940370939503809396034D
:1051F00090939703DF91CF9108950F931F93CF93CF
:10520000DF938230910510F482E090E0E091850513
:10521000F091860520E030E0A0E0B0E0309719F191
:10522000408151810281138148175907C8F08417C2
:10523000950769F4109731F012960C931297139614
:105240001C9327C0009385051093860522C0211565
:10525000310519F04217530718F49A01BD01EF0107
:10526000DF01F801DBCF21153105F9F0281B390BDF
:105270002430310580F48A819B816115710521F00C
:10528000FB019383828304C09093860580938505F8
:10529000FE01329644C0FE01E20FF31F8193919309
:1052A00022503109398328833AC0209183053091F7
:1052B0008405232B41F420910A0130910B01309396
:1052C000840520938305209108013091090121155F
:1052D000310541F42DB73EB740910C0150910D01BD
:1052E000241B350BE0918305F0918405E217F30749
:1052F000A0F42E1B3F0B2817390778F0AC014E5F46
:105300005F4F2417350748F04E0F5F1F50938405F9
:10531000409383058193919302C0E0E0F0E0CF01D8
:10532000DF91CF911F910F910895CF93DF93009755
:1053300009F481C0FC01329713821282A091850585
:10534000B0918605109781F420813181820F931FDF
:1053500020918305309184052817390751F5F09382
:105360008405E093830567C0ED0120E030E0CE17AF
:10537000DF0740F44A815B819E0141155105F1F040
:10538000EA01F5CFD383C28340815181840F951FF9
:10539000C817D90759F488819981840F951F0296FF
:1053A000918380838A819B81938382832115310538
:1053B00029F4F0938605E09385053DC0E901FB8360
:1053C000EA8349915991C40FD51FEC17FD0761F489
:1053D00080819181840F951F0296E90199838883CA
:1053E000828193819B838A83E0E0F0E012968D9125
:1053F0009C911397009719F0FD01DC01F7CF8D9177
:105400009C9111979D012E5F3F4F820F931F20911A
:105410008305309184052817390769F4309729F4FA
:10542000109286051092850502C013821282B093F5
:105430008405A0938305DF91CF9108951F93FC010C
:1054400099278827BC01E89411911032E9F31930AB
:1054500010F01E30C8F31B3251F01D3249F468942D
:1054600006C00E94452A610F711D811D911D119179
:1054700010531A30B0F33EF4909580957095619575
:105480007F4F8F4F9F4F1F910895592F482F372FD0
:10549000262F660F771F881F991F660F771F881F9B
:1054A000991F620F731F841F951F660F771F881F38
:1054B000991F08950E949C2A08F481E00895E894B9
:1054C00009C097FB3EF490958095709561957F4F4C
:1054D0008F4F9F4F9923A9F0F92F96E9BB279395FA
:1054E000F695879577956795B795F111F8CFFAF40A
:1054F000BB0F11F460FF1BC06F5F7F4F8F4F9F4F3B
:1055000016C0882311F096E911C0772321F09EE898
:10551000872F762F05C0662371F096E8862F70E0FE
:1055200060E02AF09A95660F771F881FDAF7880FD8
:105530009695879597F90895990F0008550FAA0B2E
:10554000E0E8FEEF16161706E807F907C0F0121696
:105550001306E407F50798F0621B730B840B950B99
:1055600039F40A2661F0232B242B252B21F40895EE
:105570000A2609F4A140A6958FEF811D811D08958B
:105580000E94D32A0C94472B0E94392B38F00E949A
:10559000402B20F0952311F00C94302B0C94362BDB
:1055A00011240C947B2B0E94582B70F3959FC1F310
:1055B000950F50E0551F629FF001729FBB27F00DC1
:1055C000B11D639FAA27F00DB11DAA1F649F662716
:1055D000B00DA11D661F829F2227B00DA11D621F65
:1055E000739FB00DA11D621F839FA00D611D221F1F
:1055F000749F3327A00D611D231F849F600D211D03
:10560000822F762F6A2F11249F5750409AF0F1F085
:1056100088234AF0EE0FFF1FBB1F661F771F881FEE
:1056200091505040A9F79E3F510580F00C94302BCB
:105630000C947B2B5F3FE4F3983ED4F386957795EB
:105640006795B795F795E7959F5FC1F7FE2B880F94
:10565000911D9695879597F908959927882708951C
:1056600097F99F6780E870E060E008959FEF80EC15
:10567000089500240A9416161706180609060895B8
:1056800000240A9412161306140605060895092E1E
:105690000394000C11F4882352F0BB0F40F4BF2B8D
:1056A00011F460FF04C06F5F7F4F8F4F9F4F0895CD
:1056B00057FD9058440F551F59F05F3F71F04795C3
:1056C000880F97FB991F61F09F3F79F087950895A8
:1056D000121613061406551FF2CF4695F1DF08C0C7
:1056E000161617061806991FF1CF869571056105E4
:1056F00008940895E894BB2766277727CB0197F98C
:105700000895F999FECF92BD81BDF89A992780B589
:105710000895262FF999FECF1FBA92BD81BD20BDF5
:105720000FB6F894FA9AF99A0FBE019608950E945E
:10573000D92BA59F900DB49F900DA49F800D911D16
:10574000112408952F923F924F925F926F927F9211
:105750008F929F92AF92BF92CF92DF92EF92FF9281
:105760000F931F93CF93DF93CDB7DEB7CA1BDB0B2D
:105770000FB6F894DEBF0FBECDBF09942A883988D2
:1057800048885F846E847D848C849B84AA84B984D9
:10579000C884DF80EE80FD800C811B81AA81B981E5
:1057A000CE0FD11D0FB6F894DEBF0FBECDBFED01F9
:1057B0000895A29FB001B39FC001A39F700D811DEA
:1057C0001124911DB29F700D811D1124911D08950A
:1057D0005058BB27AA270E94002C0C94472B0E94EC
:1057E000392B38F00E94402B20F039F49F3F19F4F8
:1057F00026F40C94362B0EF4E095E7FB0C94302B3A
:10580000E92F0E94582B58F3BA17620773078407D1
:10581000950720F079F4A6F50C947A2B0EF4E09518
:105820000B2EBA2FA02D0B01B90190010C01CA015A
:10583000A0011124FF27591B99F0593F50F4503E05
:1058400068F11A16F040A22F232F342F4427585FF7
:10585000F3CF469537952795A795F0405395C9F70F
:105860007EF41F16BA0B620B730B840BBAF09150C7
:10587000A1F0FF0FBB1F661F771F881FC2F70EC066
:10588000BA0F621F731F841F48F487957795679539
:10589000B795F7959E3F08F0B0CF9395880F08F025
:1058A0009927EE0F9795879508950E94692C0C947F
:1058B000472B0E94402B58F00E94392B40F029F4CE
:1058C0005F3F29F00C94302B51110C947B2B0C94DE
:1058D000362B0E94582B68F39923B1F3552391F38B
:1058E000951B550BBB27AA2762177307840738F04F
:1058F0009F5F5F4F220F331F441FAA1FA9F335D0AC
:105900000E2E3AF0E0E832D091505040E695001C5F
:10591000CAF72BD0FE2F29D0660F771F881FBB1F19
:10592000261737074807AB07B0E809F0BB0B802DF7
:10593000BF01FF2793585F4F3AF09E3F510578F023
:105940000C94302B0C947B2B5F3FE4F3983ED4F304
:10595000869577956795B795F7959F5FC9F7880FF7
:10596000911D9695879597F90895E1E0660F771F49
:10597000881FBB1F621773078407BA0720F0621BDA
:10598000730B840BBA0BEE1F88F7E09508950E9405
:10599000CE2C6894B1110C947B2B08950E94602B3F
:1059A00088F09F5798F0B92F9927B751B0F0E1F0E0
:1059B000660F771F881F991F1AF0BA95C9F714C090
:1059C000B13091F00E947A2BB1E008950C947A2BBB
:1059D000672F782F8827B85F39F0B93FCCF38695C9
:1059E00077956795B395D9F73EF490958095709526
:1059F00061957F4F8F4F9F4F08950E949C2A08F416
:105A00008FEF08950E949C2A880B990B0895991B8B
:105A100079E004C0991F961708F0961B881F7A95A5
:105A2000C9F780950895AA1BBB1B51E107C0AA1FA7
:105A3000BB1FA617B70710F0A61BB70B881F991F2F
:105A40005A95A9F780959095BC01CD01089597FBD3
:105A5000072E16F4009407D077FD09D00E94132D6D
:105A600007FC05D03EF4909581959F4F0895709561
:105A700061957F4F0895A1E21A2EAA1BBB1BFD0161
:105A80000DC0AA1FBB1FEE1FFF1FA217B307E4071D
:105A9000F50720F0A21BB30BE40BF50B661F771F75
:105AA000881F991F1A9469F7609570958095909555
:105AB0009B01AC01BD01CF010895052E97FB1EF49B
:105AC00000940E94742D57FD07D00E943B2D07FCC7
:105AD00003D04EF40C94742D50954095309521953B
