:100000000C9477010C9469130C9442130C949F0187
:100010000C949F010C949F010C949F010C949F01E0
:100020000C949F010C949F010C949F010C949F01D0
:100030000C949F010C94E8130C949F010C949F0165
:100040000C94F1190C949F010C94B6130C9490131A
:100050000C949F010C949F010C949F010C949F01A0
:100060000C949F010C949F016D75746872657368A0
:10007000006D756F766572666C6D6178006D736387
:100080006E74006D636D626C006669666F6C696D9D
:1000900069740052656164696E672076616C75658C
:1000A000732066726F6D20656570726F6D0072658A
:1000B00063656976657220656E61626C6564005384
:1000C00074617274696E672074696D65726A6F62BB
:1000D000005573696E6720734649464F004F4B00C9
:1000E0006363726567207772697465206261636B10
:1000F000200073656E64206661696C6564002F0082
:100100003B4D6465624669666F4C696D69743D007C
:100110003B6D634D696E4269744C656E3D003B4DAD
:100120007553706C69745468726573683D003B4D1B
:10013000754F766572666C4D61783D005F4D536317
:100140006E743D003B4D64656275673D003B4D75C7
:100150004E6F4F766572666C6F773D31003B4C4554
:10016000443D30003B4D7265643D003B4D433D00D6
:100170003B4D553D004D533D003D00556E73757030
:10018000706F7274656420636F6D6D616E640020C2
:100190003D20002000203A00454550524F4D2000A0
:1001A0002D20636F6D70696C6564206174204665F5
:1001B0006220313020323031392031333A32323A14
:1001C0003131005620332E332E322E312D726338CA
:1001D000205349474E414C6475696E6F20003F20A3
:1001E000557365206F6E65206F662056205220740F
:1001F000205820532050204320722057003D2000DB
:10020000435300890083007D007100680020616411
:100210006444617461206F766572666C6F7721212A
:10022000002062797465636E743D0076616C3D00F8
:10023000206D62206E6D20622070726F6320004D11
:10024000463D003B0046006D4F766572666C6F77E9
:100250002673746174653D302100000000002500A4
:1002600028002B0004040404040404040202020213
:100270000202030303030303010204081020408069
:1002800001020408102001020408102000000008E8
:10029000000201000003040700000000000000004D
:1002A0002900636D6420746F206C6F6E67212028B5
:1002B0006D61782000496E697420656570726F6D9C
:1002C00020746F2064656661756C747300207374AC
:1002D0006172743D0020627566664D6F7665206FB1
:1002E000766572666C6F77210000F523F123112487
:1002F0001FBECFEFD8E0DEBFCDBF11E0A0E0B1E080
:10030000E6EDF8E502C005900D92AA38B107D9F7DD
:1003100024E0AAE8B1E001C01D92AC38B207E1F7D1
:1003200011E0C6E7D1E004C02197FE010E948928B0
:10033000C537D107C9F70E943B1A0C945E2C0C9468
:1003400000002F923F924F925F926F927F928F9216
:100350009F92AF92BF92CF92DF92EF92FF920F9354
:100360001F93CF93DF93CDB7DEB7E9970FB6F8941D
:10037000DEBF0FBECDBF898F882321F081E080933F
:10038000330302C0109233038091580320912F034E
:10039000811108C0283230F490919602992311F40B
:1003A0000C94000E1092320391E02E3F09F090E081
:1003B0009093340310923803109237038111A4C232
:1003C0008091960281111BC140E060E08CE892E0D0
:1003D0000E944D14F12C2F2C312C8091550390E06C
:1003E0000197281639060CF00AC1F101E457FD4FB8
:1003F000CF0140962089F394222369F3EF2C9101D9
:10040000220F331FA9014B5B5C4F59A348A39BA349
:100410008AA35DA34CA380915503E816E0F66E2DE8
:1004200070E07F8F6E8F64577D4F7D8F6C8FDB0107
:1004300050968C91882309F4E0C0E8A1F9A1C0800E
:10044000D180EE8DFF8DEE0FFF1FEB5BFC4F008127
:100450001181C6018027912797FDCFC0809041036D
:1004600090904203A0904303B0904403B80117FF5B
:1004700004C066277727601B710B072E000C880BC2
:10048000990B0E94DE25A50194010E943D262B01B7
:100490003C01B601D7FE04C0662777276C197D0999
:1004A000072E000C880B990B0E94DE25A5019401F4
:1004B0000E943D269B01AC01C301B2010E94662748
:1004C00020E030E040E05FE30E943D260E94D2271A
:1004D0000C191D0917FF03C011950195110960172B
:1004E00071070CF48AC0D12CC12C0C8D1D8D005FBE
:1004F0001F4F80912F03D81608F044C0D8018C916B
:10050000C81608F03FC06D2D70E084EA92E00E94AA
:100510000F1480912A03E81233C080912703482FDB
:1005200050E0D89EC0011124FC0163E0F695E795E8
:100530006A95E1F720912903E21708F5877099275A
:10054000FF27E457FD4F2091280330E0082E02C01A
:10055000359527950A94E2F72095308D232368E09E
:1005600070E0641B750BDB01A81BB90BA10102C075
:10057000440F551FAA95E2F7CA01822B808FC394BE
:10058000D394B7CFAAA1BBA1CC90EC8DFD8DD08820
:10059000ECA1FDA1A081B1810E8D1F8D000F111F57
:1005A0000B5B1C4FF801A080B180EC2DF0E09F01A7
:1005B0000E9482282B013C014D2D50E09A01D5016B
:1005C0000E948228640D751D861D971DE40FF51F7E
:1005D0009F01FF0F440B550B0E946328ACA1BDA1E6
:1005E0002D933C93DC0CEAA1FBA1D082AC8DBD8D98
:1005F00050961C92F80111821082E3940CCF8091E6
:1006000094028823F1F110923003609130036A3034
:1006100070F570E06F5F7F4F84EA92E00E940F14E4
:1006200020912A0330E080915703082E000C990B8B
:100630002817390711F00C94090E6091300370E00F
:1006400084EA92E00E940F1420912A0330E0809106
:100650008C02082E000C990B2817390711F00C9406
:10066000090E82E090E090933803809337038091E5
:10067000370390913803892B09F095C010929402AA
:1006800004C080919502882331F040E060E08CE85E
:1006900092E00E944D148091370390913803892B8A
:1006A00009F081C08FEF80938C02F0915503FC8F8D
:1006B00080902F033CE8C32E32E0D32E45E4242E55
:1006C00043E0342EE12CF12C0FEF1FEF912CA12CE5
:1006D000B12C2C8DE21608F059C00F3F3FEF1307E5
:1006E00001F5D1018D919C9197FD1BC0F6016089A8
:1006F00070E080E090E00E94DE252B013C01C50106
:10070000B4010E94DE252BE734E14EE25EE30E9455
:100710003D269B01AC01C301B2010E9408281816B6
:1007200054F1D1018D919C9197FD26C0F801EE0FF7
:10073000FF1FEB5BFC4F2081318182179307E4F4AC
:10074000F601608970E080E090E00E94DE252B01D8
:100750003C01C501B4010E94DE252BE734E14EE2E5
:100760005EE30E943D269B01AC01C301B2010E94E1
:10077000082818160CF48701FFEFEF1AFF0A2FEF75
:10078000C21AD20A32E0230E311CA3CF0F3F4FEF23
:10079000140709F4BFC000938C0281E090E09093AD
:1007A0003803809337038091370390913803019782
:1007B00009F0B0C080918F02882309F4ABC080910A
:1007C0005A038111A7C080912F03282F30E0203ACF
:1007D000310524F498EDA92EA80E02C008E7A02E3A
:1007E000B0905503BA9416E0912EB7FC89C0CB2C7B
:1007F0000B2C000CDD08F601E457FD4F1089112386
:1008000009F47CC0F601EE0FFF1FEB5BFC4F20816B
:10081000318137FF73C0319521953109283652E473
:1008200035070CF06BC0E0918C02EE0FFF0BEB5B19
:10083000FC4F0190F081E02DC901BF010E941928F1
:100840006E32710508F05AC09E9EC0019F9E900DA9
:1008500011248217930708F051C0612F70E080E0E7
:1008600090E00E94DE252B013C0160912F0370E097
:1008700080E090E00E94DE252AE037ED43EA5DE368
:100880000E943D269B01AC01C301B2010E94D72505
:1008900087FF34C0123090F100E010E00A1570F5C7
:1008A00078016FEFE61AF60AB70184EA92E00E9437
:1008B0000F1480912A0390E0C816D90611F00C9409
:1008C000100EB80184EA92E00E940F1420912A03CE
:1008D00030E080918C02082E000C990B2817390704
:1008E00011F00C94100EB092570382E090E09093B8
:1008F000380380933703009330030CC0BA9475CF4C
:100900008FEF8093570306C040E060E08CE892E0F0
:100910000E944D148091370390913803029709F09B
:100920006DC280912F03883208F468C280919602CC
:10093000811164C2109130038CE0810F80933103E8
:10094000165F80913003811708F03FC0E12EF12C33
:10095000B7016F5F7F4F84EA92E00E940F142091ED
:100960002A0330E080915703082E000C990B2817BA
:10097000390799F4B70184EA92E00E940F1420919C
:100980002A0330E080918C02082E000C990B281766
:10099000390719F41093300318C01250D2CF6F5F8B
:1009A0007F4F84EA92E00E940F1420912A0330E0E6
:1009B00080915703082E000C990B2817390781F0F6
:1009C000809131038E5F809331036091310370E039
:1009D00080912F0390E001976817790704F31AC0FC
:1009E0006091310370E084EA92E00E940F1420913C
:1009F0002A0330E080918C02082E000C990B2817F6
:100A00003907F1F680913103815080933103FF243F
:100A1000F39401C0F12C80912F03482F50E02091D6
:100A2000310330E02417350714F4F11003C081506E
:100A30008093310340913103609130038CE892E060
:100A40000E944D1460913003FF2041F080913103EA
:100A500090E0861B9109889794F4D0C120912F03D0
:100A6000822F90E0861B910988970CF4C7C12E3F16
:100A700008F0A5C1798D723011F40C949F109091FB
:100A8000940280919302981708F04DC180919002D2
:100A9000882309F4A5C082E00E949A188FE291E0B1
:100AA0000E9468188BE30E949A18E12C80915503EC
:100AB000E816C0F58E2D90E0FC01EE0FFF1FEB5BFA
:100AC000FC4F008111810115110551F1FC01E45722
:100AD000FD4F8089882321F16E2D17FF05C0606AC4
:100AE00011950195110901C06068D02E07FD04C061
:100AF000802F8068D82E01C0606185EE91E00E9451
:100B00006A116D2D85EE91E00E946A11612F7727A1
:100B1000606885EE91E00E946A118BE30E949A184A
:100B2000E394C4CF8091310380FF03C082E391E05E
:100B300002C084E391E00E946818E0913003E0FF76
:100B40001BC0E150E0933003E69580912903E8173C
:100B500028F4F0E0E457FD4F908D9A8F8A8D8F70C6
:100B600080688A8F682F85EE91E00E946A118091DB
:100B700030038E5F809330031091300380913103F6
:100B8000811790F0E12FE69580912903E81728F46A
:100B9000F0E0E457FD4FA08DAA8F6A8D85EE91E0BD
:100BA0000E946A111E5FEACF8BE30E949A188DE4BF
:100BB00091E00E94681880918C0260E170E0082E3C
:100BC000000C990B0E949F188BE30E949A1887E3F0
:100BD00091E00E9468188091570360E170E06BC05B
:100BE00082E00E949A1886E391E00E9468188BE3E5
:100BF0000E949A18E12C80915503E81648F58E2D35
:100C000090E08C01000F111F0B5B1C4FF80120813D
:100C10003181232BD9F0FC01E457FD4F80898823D3
:100C2000A9F080E50E949A186AE070E08E2D0E947B
:100C30005A188DE30E949A186AE070E0D8018D91ED
:100C40009C910E949F188BE30E949A18E394D3CF43
:100C500089E391E00E94681810913003809131037C
:100C6000811770F0612F70E084EA92E00E940F1407
:100C70006AE070E080912A030E945A181F5FEECF4D
:100C80008BE30E949A188CE391E00E94681880918F
:100C90008C026AE070E0082E000C990B0E949F18ED
:100CA0008BE30E949A1880E491E00E94681880917A
:100CB00057036AE070E0082E000C990B0E949F1801
:100CC0008BE30E949A1880913403882339F084E4DE
:100CD00091E00E9468188BE30E949A18809192021A
:100CE000882309F180913003823068F080E391E03D
:100CF0000E9468186AE070E0809130030E945A18E0
:100D00008BE30E949A18B98DB11103C086E491E07B
:100D100005C0E98DE23039F488E491E00E9468185A
:100D20008BE30E949A181092330380919402F11081
:100D300002C08823C9F190919202992389F0909181
:100D40009302891768F48AE491E00E9468186AE0C7
:100D500070E0809194020E945A188BE30E949A18C6
:100D6000209194022F5F20939402FF20B9F0F98D17
:100D7000F11109C080912F0390E030913103831B62
:100D8000910988975CF0222379F0609131036F5FBD
:100D90008CE892E00E94F914109230039091940232
:100DA00080919302891738F083E00E949A188BE2B1
:100DB00091E00E94681881E080939B021CC066232A
:100DC00099F08091310390E08D3F91056CF0298D71
:100DD000211103C0109233030EC08CE892E00E94F0
:100DE000F9141092300307C0398D323021F08CE8AD
:100DF00092E00E94AF1481E080933203809132032D
:100E00008111EEC680918D0240918E024AA7811118
:100E100003C0442309F4E2C65AA5552309F46BC460
:100E20008091370390913803029709F464C480914C
:100E3000900181112BC082E38093D80191E09093BF
:100E4000D6011092A0011092D2011092D4011092FA
:100E5000D30187E08093D50180E88093D7018FEF9D
:100E60008093DC018093DD018093DE018093DF01BC
:100E70001092E4012CE832E03093DB012093DA0198
:100E80001092E1011092E00190939001809158033B
:100E90008823A9F08091DA019091DB01FC01E955EA
:100EA000FF4F10823397108200E011E09924939451
:100EB00066246A9458E0852E67E0762EA9C18FEFEC
:100EC0008093DC018093DD018093DE018093DF015C
:100ED0001092E4011092E1011092E0011092A00141
:100EE0001092D2011092D4011092D30187E0809326
:100EF000D50180915B038093E2010091DA011091AA
:100F0000DB01F801E753FF4FF08063E06F1508F055
:100F1000F2C3B697608170E080E090E00E94DE2529
:100F20002AE037ED43E25DE30E943D264B015C0180
:100F300020E030E0A9010E94082820E030E040E0F5
:100F40005FE387FD05C0C501B4010E94662704C0A8
:100F5000C501B4010E9465270E94D227580170E1A3
:100F6000A70EB11CF801E754FF4F212C70E0D5010A
:100F70008D915D01861760F1E22C8E2D90E0EE20C0
:100F8000F1F09E01280F391FD901DC9098012D0D39
:100F9000311D2D0D311D27543F4F40815181D90105
:100FA0002D913C914217530754F421E030E02C0F6F
:100FB0003D1F820F931FDC01DC92EA94DECF21E01B
:100FC00030E02C0F3D1F820F931FDC017C93239494
:100FD0007F5F3296F712CBCFFE013196FA8BE98B09
:100FE000FDA3ECA3409114015091150160911601ED
:100FF000709117014BA75CA76DA77EA7BE01635F29
:101000007F4F7C8B6B8BCE0109969E8B8D8BDE0187
:101010005196B88FAF8BB989BAAB8CA18B1B821557
:1010200008F069C3ACA1BDA12D91BDA3ACA34091B3
:10103000DA013091DB01842F932F820F911D820FF3
:10104000911DFC01E754FF4F208131813D8F2C8F92
:101050001216130604F78FEF8093DC018093DD01F5
:101060008093DE018093DF013595279539AB28AB5E
:10107000AE014F5F5F4F5BA34AA31FA21EA26FEF9B
:101080007FEF7B8F6A8F8C8D9D8D092E000CAA0BB4
:10109000BB0B8EAB9FABA8AFB9AF1FEF8AA19AA9CC
:1010A000891B821508F0B7CFAAA1BBA10D91BBA3E4
:1010B000AAA33091DA012091DB01832F922F800FB8
:1010C000911D800F911DFC01E754FF4FE080F180DE
:1010D0006EA97FA988AD99AD0E94DE254B015C0108
:1010E0006701F7FE04C0CC24DD24CE18DF082DEC08
:1010F0003CEC4CE45EE3C501B4010E943D260E9435
:10110000D22788A999A98C199D0997FF03C09195A9
:1011100081959109681779070CF085C52DEC3CEC99
:101120004CEC5EE3C501B4010E943D260E94D2272B
:101130008C8D9D8D8C199D0997FF03C0919581958C
:101140009109681779070CF074C5A8CF802F0E9409
:10115000FE18E090DA01F090DB01F701EC55FF4F4B
:101160006082B60161507109C70148960E940F1450
:10117000F701E256FF4F808190E02091DE01022EC0
:10118000000C330B8217930709F4DDC62091DF01B1
:10119000022E000C330B8217930709F4D4C6E0919A
:1011A000DA01F091DB01EC55FF4F80818F3F09F4AC
:1011B00010831091E301C090DA01D090DB01F601B9
:1011C000ED55FF4F8081181708F4EBC02091E20124
:1011D000022E000C330B4091D3015091D401809129
:1011E000DA019091DB01FC014217530708F0FEC0C1
:1011F000E253FF4F2081222309F4F2C01092A00194
:101200001092D2011092D4011092D3017092D501A4
:101210008091DA019091DB01412F50E0FC01ED5506
:10122000FF4F208130E02E513109421753070CF057
:101230005BC2BA96908231978081882339F0809181
:10124000D3019091D401009709F072C0C12ED12C26
:10125000E090DA01F090DB01F701ED55FF4F80815E
:1012600090E00197C816D9060CF051C0B601C7012D
:1012700048960E940F14F701E256FF4FA080B12C50
:101280008091DD01082E000C990BA816B90699F182
:101290008091DC01082E000C990BA816B90609F004
:1012A00050C6E090DA01F090DB01B601615071099F
:1012B000C70148960E940F14F701E256FF4F808144
:1012C000E80EF11CE80EF11CD701A754BF4F809126
:1012D000DA019091DB01E091DD01EE0FFF0BE80FE9
:1012E000F91FE754FF4F2D913C9180819181821726
:1012F00093070CF426C68091DD01082E000C990B93
:1013000001E08A159B0509F000E01093E3012091AC
:10131000DA013091DB01F901ED55FF4F808190E05A
:101320000197C816D9060CF411CFBA961082DCC109
:10133000AC01415051099091D601949FB001959F05
:10134000700D1124FB0123E0F695E7952A95E1F74E
:101350008091D801E81710F00FEF21C02091D7013C
:1013600030E06770772702C0359527956A95E2F7D8
:10137000FF27E056FE4F8081282330E0582D591B6F
:10138000949F802D11248770581B852FA90102C0BE
:10139000559547958A95E2F7042F4093D90111E0BE
:1013A0000ACFE12EF12CB701C60148960E940F1416
:1013B000F601E256FF4F208130E08091DC01082EDB
:1013C000000C990B2817390709F42AC68091DD0112
:1013D000082E000C990B2817390709F027C620C6DC
:1013E000193208F40BCFBA9710837EC1E855FF4F2E
:1013F0002081DC01AD55BF4F3397222391F0412F5F
:1014000050E02C9130E021503109421753074CF045
:101410001083B79621E020836FEF610F0E94F914CB
:1014200063C18C91181708F41F5F108382E00E943B
:101430009A188CE491E00E9468188BE30E949A1835
:101440008FE491E00E946818E091DC01EE0FFF0B41
:10145000EB5BFC4F6AE070E0808191810E949F18F5
:101460008BE30E949A1883E591E00E946818E0914E
:10147000DD01EE0FFF0BEB5BFC4F6AE070E080815B
:1014800091810E949F188BE30E949A1887E591E052
:101490000E946818E091DE01EE0FFF0BEB5BFC4F42
:1014A0006AE070E0808191810E949F188BE30E9426
:1014B0009A188BE591E00E946818E091DF01EE0F29
:1014C000FF0BEB5BFC4F6AE070E0808191810E9432
:1014D0009F188BE30E949A1889E391E00E94681894
:1014E00080917C0190917D01A0917E0189839A83F6
:1014F000AB83B12C8E010F5F1F4F8FE5E82E81E08B
:10150000F82ECB2CD12C8091D20190E02091D801E3
:10151000C816D906DCF4B21628F4F601E056FE4FE0
:1015200070817BAB1F928BA98F93FF92EF921F93D9
:101530000F930E94AB29C8010E946818B3940F90C2
:101540000F900F900F900F900F90DBCFB21628F4F2
:10155000F601E056FE4F90819CAB8CA982958F706E
:101560001F928F9384E691E09F938F931F930F9325
:101570000E94AB29C8010E9468188091D301909104
:10158000D4018770992701970F900F900F900F90BB
:101590000F900F900497F0F08091D801B81628F4BE
:1015A000F601E056FE4FA081ADAB8DA98F701F9262
:1015B0008F9384E691E09F938F931F930F930E94E4
:1015C000AB29C8010E9468180F900F900F900F90E0
:1015D0000F900F908BE30E949A1889E691E00E9489
:1015E00068186AE070E08091E0019091E1010E944A
:1015F0009F188BE30E949A1880E591E00E9468187A
:101600006091D3017091D40180E090E04AE00E94A3
:1016100019188BE30E949A1880919202882349F14D
:1016200080915903811107C08CE691E00E946818EF
:101630008BE30E949A188091E3018823D1F080E324
:1016400091E00E9468186AE070E08091E3010E94D6
:101650005A188BE30E949A188EE691E00E9468184F
:101660006AE070E0809130030E945A188BE30E9478
:101670009A1880913403882339F084E491E00E9421
:1016800068188BE30E949A181092580381E08093A7
:10169000320380939B0260913103B98DB11107C071
:1016A00080912F0390E0861B91098897ACF06150E0
:1016B0008CE892E00E94F9141092300381E080934C
:1016C0005A0380919202882339F080E791E00E94CA
:1016D00068188BE30E949A1883E00E949A188BE2A4
:1016E00091E00E94681807C080915803882319F080
:1016F00081E08093320380918D02882309F46AC2CD
:1017000080913703909138030197029708F062C2E5
:1017100080913203811164C280912F03883228F4B2
:1017200080919602882309F459C21092300340E058
:1017300060E08CE892E00E944D14809198029091B4
:101740009902892B09F494C080919102811190C073
:10175000F0905503FA94F7FC8BC0CF2C0F2C000CA3
:10176000DD08F601EE0FFF1FEB5BFC4F80819181DE
:1017700097FF03C09195819591092091980230912E
:1017800099028217930730F3F601E457FD4F8089E1
:10179000882301F3813099F400E010E0B80184EA75
:1017A00092E00E940F1480912A0390E0C816D90697
:1017B00089F20F5F1F4F0A30110581F702C0883090
:1017C00048F688E28093310380912F03883208F431
:1017D0004FC018E2E12EF12C80912F0390E0019789
:1017E000E816F9060CF044C0B70184EA92E00E94C2
:1017F0000F14E0912A03F0E0EE0FFF1FEB5BFC4FAC
:1018000080819181B7011816190674F484EA92E078
:101810000E940F14E0912A03F0E0EE0FFF1FEB5B34
:10182000FC4F8081918110C084EA92E00E940F14E5
:10183000E0912A03F0E0EE0FFF1FEB5BFC4F80818D
:101840009181919581959109209198023091990209
:101850008217930758F010933103412F60E08CE812
:1018600092E00E944D14FF24F3940FC01F5FB2CF8B
:101870009091340380912F03992321F0909191024C
:101880009111825080933103F12C809196029091B6
:101890009702981708F4FFC020913403222351F0D7
:1018A00020919102222331F0891721F091E0909349
:1018B0009A0202C010929A0290919002992309F420
:1018C00084C0811157C082E00E949A1882E791E09B
:1018D0000E9468188BE30E949A18E12C80915503AE
:1018E000E816C0F58E2D90E0FC01EE0FFF1FEB5BBC
:1018F000FC4F008111810115110551F1FC01E457E4
:10190000FD4F8089882321F16E2D17FF05C0606A85
:1019100011950195110901C06068D02E07FD04C022
:10192000E02FE068DE2E01C0606185EE91E00E944C
:101930006A116D2D85EE91E00E946A11612F772763
:10194000606885EE91E00E946A118BE30E949A180C
:10195000E394C4CF8DE491E00E94681880918C02DA
:1019600060E170E0082E000C990B0E949F188BE339
:101970000E949A188091310380FF06C084E391E0B1
:101980000E94681810E014C082E391E0F9CFE12FC3
:10199000E69580912903E81728F4F0E0E457FD4F1D
:1019A000208D2FA76FA585EE91E00E946A111E5F22
:1019B00080913103181758F304C080919A02811165
:1019C0006DC08BE30E949A1869C0811150C082E0FB
:1019D0000E949A1885E791E00E9468188BE30E94A4
:1019E0009A1810E080915503181768F5812F90E040
:1019F0009C01220F331FA9014B5B5C4F6A01DA0186
:101A00002D913C91232BE9F0FC01E457FD4F808997
:101A10008823B9F088E791E00E9468186AE070E0D6
:101A2000812F0E945A188AE691E00E9468186AE0A5
:101A300070E0F601808191810E949F188BE30E94E3
:101A40009A181F5FCFCF8CE391E00E9468188091B5
:101A50008C026AE070E0082E000C990B0E949F181F
:101A60008BE30E949A1889E391E00E94681810E0C5
:101A700080913103181708F0A0CF612F70E084EA3D
:101A800092E00E940F146AE070E080912A030E94A5
:101A90005A181F5FEDCF81E080939A0210923303B2
:101AA00081E080939B0280933203809134038823EA
:101AB00061F1F11023C0809191028823F9F0909197
:101AC00096028091970298130DC08AE791E00E94D8
:101AD00068186AE070E0809196020E945A188BE3C1
:101AE0000E949A18809196028F5F8093960260916F
:101AF00031038CE892E00E94F91407C084E491E07D
:101B00000E9468188BE30E949A18809192028823A1
:101B100009F412C38091340381110AC380919A029F
:101B2000811106C3F98DF11103C086E491E005C06F
:101B3000298D223039F488E491E00E9468188BE303
:101B40000E949A1880915903811107C08CE691E098
:101B50000E9468188BE30E949A18FF2051F180912F
:101B60009202882369F080E791E00E9468186AE099
:101B700070E0809195020E945A188BE30E949A1897
:101B8000809195028F5F80939502398D311109C044
:101B900080912F0390E020913103821B9109889757
:101BA00044F0609131038CE892E00E94F9141092A5
:101BB000300380919A02811107C083E00E949A1835
:101BC0008BE291E00E94681880913403811102C079
:101BD0001092960280913203811102C01092330359
:101BE00080912F038E3F60F08091370390913803EE
:101BF000892B31F487E492E00E94F01810923303AD
:101C0000809133038111B5C28CE892E00E94AF1439
:101C1000B0C2809130038F5F809330030C94050332
:101C200087010C944E041E141F049CF40093DF01E2
:101C300006C01E141F040CF078C20093DD01BEA183
:101C4000BF5FBEA3EA8DFB8DEE0DFF1DFB8FEA8FFC
:101C50000BC00093DE01FFA1FF5FFFA32A8D3B8D28
:101C60002E193F093B8F2A8F8091DC018F3F09F4A9
:101C700015CA8091DE018F3F09F410CA8091DD0101
:101C80008F3F09F40BCA8091DF018F3F09F406CA28
:101C90004BA55CA56DA57EA54D875E876F87788B6C
:101CA00049875A876B877C8761E070E079A768A7CE
:101CB000812C912CE090DA01F090DB01F701ED55D9
:101CC000FF4F808190E0881699060CF0E7C9B401B7
:101CD000C70148960E940F14F701E256FF4F00819A
:101CE000802F90E02091DC01022E000C330BE0905D
:101CF000DA01F090DB0182179307C1F02091DD013A
:101D0000022E000C330B8217930781F02091DE0125
:101D1000022E000C330B8217930741F02091DF0154
:101D2000022E000C330B8217930751F4F701ED5587
:101D3000FF4F808190E001978816990609F0C3C093
:101D4000F701EC55FF4F60819401261B310980910A
:101D5000E201082E000C990B821793070CF0B0C01B
:101D600031968082482DC7010E944D148091DA017E
:101D70009091DB013090DF01A091DD01AE8F0091E9
:101D8000DE01B091DC01B8A3FC01E30DF11D37FCCD
:101D9000FA952089FC01EA0FF11DA7FDFA95C0888C
:101DA000D12CC20ED11CFC01E00FF11D07FDFA95EC
:101DB0002089C21AD108FC01EB0FF11DB7FDFA957D
:101DC00020891092E401C21AD108D7FE03C0D19431
:101DD000C194D1080D2C000CEE08FF08FC01ED5554
:101DE000FF4FA080B12CB5010B2C000C880B990B78
:101DF0000E94DE252AE037ED43E25DE30E943D26A6
:101E00002B013C0120E030E0A9010E94082820E0DD
:101E100030E040E05FE387FD05C0C301B2010E94EE
:101E2000662704C0C301B2010E9465270E94D22721
:101E30006C157D058E059F050CF430C95EA16FA160
:101E400056132CC97E8D88A1781709F427C930163E
:101E500009F424C9081709F421C9371609F41EC961
:101E6000381609F41BC9701709F418C9FE013D960C
:101E7000DE01199681919D91891709F465C19F3FF3
:101E800019F08F3F09F060C1A818B9088091E201EC
:101E9000082E000C990B8A159B050CF0FFC81D87B6
:101EA00019871E871A871F871B87188B1C877FEF50
:101EB000871A970A88A599A5019699A788A7FACEA7
:101EC0001092E4010BC08091E401811107C0F70179
:101ED000EC55FF4F808291E09093E40168A579A5CD
:101EE000C70148960E940F14F701E256FF4F808108
:101EF000AAE00A9F800D11248A3008F48C5980FED4
:101F000003C02D899E8902C02B899C89E22FF92F5D
:101F100090E0482F50E06081262F062E000C330BF6
:101F20002417350719F06F3F19F48083292F01C05A
:101F30002FEF9F5F943009F4BACF31962F3F59F3BA
:101F4000B6CF1F5F83C91150123008F428C9E12EA3
:101F5000F12CC090DA01D090DB01B7016250710919
:101F6000C60148960E940F14F601E256FF4F808189
:101F700090E02091DE01022E000C330BF701319727
:101F80007F018217930741F02091DF01022E000CA0
:101F9000330B82179307F1F4C090DA01D090DB0184
:101FA000B701C60148960E940F14F601E256FF4F92
:101FB000808190E02091DE01022E000C330B82170D
:101FC000930761F12091DF01022E000C330B821781
:101FD000930721F1C090DA01D090DB01B701C6016F
:101FE00048960E940F14F601E256FF4F208130E020
:101FF0008091DF01082E000C990B2817390709F092
:10200000CEC8E091DA01F091DB01EC55FF4F1250A0
:10201000108310E0802F0E94FE1896CF1250FACF46
:1020200009251F5F802F0E94FE18C5C8C090DA01E5
:10203000D090DB01F601ED55FF4F808190E00197D4
:10204000E816F9060CF0C2C8011130C08091DE011B
:10205000082E000C990B8217930709F0B7C85FEFA1
:10206000E51AF50AB701C60148960E940F14F60159
:10207000E256FF4F208130E08091DF01082E000CF6
:10208000990B2817390709F44EC0C090DA01D09097
:10209000DB01B701C60148960E940F14F601E25613
:1020A000FF4F208130E08091DD012EC08091DF0163
:1020B000082E000C990B8217930709F087C86FEF61
:1020C000E61AF60AB701C60148960E940F14F601F7
:1020D000E256FF4F208130E08091DE01082E000C97
:1020E000990B28173907F9F0C090DA01D090DB017D
:1020F000B701C60148960E940F14F601E256FF4F41
:10210000208130E08091DC01082E000C990B28170B
:10211000390709F05BC8E091DA01F091DB01E35384
:10212000FF4F108253C81F5F7CCF0093DC0193CD1B
:10213000FF2009F43ECD17CDF11022CD3ACD61112B
:102140000C94E1060C94FB066F89788D6E177F075F
:1021500009F090CE8A8D9B8D66E070E00E942D285C
:102160007093E1016093E0014AA541110C944A0784
:10217000C2CAE9960FB6F894DEBF0FBECDBFDF919D
:10218000CF911F910F91FF90EF90DF90CF90BF9074
:10219000AF909F908F907F906F905F904F903F9007
:1021A0002F9008950895CF92DF92EF92FF920F93B0
:1021B0001F93CF93DF936C017A018B01C0E0D0E0D5
:1021C000CE15DF0581F0D8016D918D01D601ED911D
:1021D000FC910190F081E02DC6010995892B11F049
:1021E0002196EECF7E01C701DF91CF911F910F9114
:1021F000FF90EF90DF90CF900895089580E090E0F9
:102200000895FC01538D448D252F30E0842F90E0FC
:10221000821B930B541710F0CF96089501970895E1
:10222000FC01918D828D981761F0828DDF01A80FDE
:10223000B11D5D968C91928D9F5F9F73928F90E000
:1022400008958FEF9FEF0895FC01918D828D98176F
:1022500031F0828DE80FF11D858D90E008958FEFAC
:102260009FEF0895FC01918D228D892F90E0805C75
:102270009F4F821B91098F739927089585EE91E0F6
:102280000E94321121E0892B09F420E0822F089569
:10229000FC01848DDF01A80FB11DA35ABF4F2C9103
:1022A000848D90E001968F739927848FA689B789D2
:1022B0002C93A089B1898C91837080648C93938DC9
:1022C000848D981306C00288F389E02D80818F7D6C
:1022D00080830895EF92FF920F931F93CF93DF9324
:1022E000EC0181E0888F9B8D8C8D981305C0E88967
:1022F000F989808185FD26C0F62E0B8D10E00F5FD9
:102300001F4F0F731127E02E8C8DE8120CC00FB6F3
:1023100007FCFACFE889F989808185FFF5CFCE01E6
:102320000E944811F1CF8B8DFE01E80FF11DE35A99
:10233000FF4FF0829FB7F8940B8FEA89FB89808169
:1023400080620AC09FB7F894EE89FF896083E889AC
:10235000F98980818370806480839FBF81E090E0F1
:10236000DF91CF911F910F91FF90EF900895CF9340
:10237000DF93EC01888D8823C9F0EA89FB8980818D
:1023800085FD05C0A889B9898C9186FD0FC00FB65F
:1023900007FCF5CF808185FFF2CFA889B9898C91A0
:1023A00085FFEDCFCE010E944811E7CFDF91CF919D
:1023B00008950895FC0109940E945529CF92DF9257
:1023C000EF92FF920F931F93F8940E94921900913D
:1023D00082021091830220918402309185026B0168
:1023E0007C01C01AD10AE20AF30A970186016093C0
:1023F00082027093830280938402909385020A354F
:1024000011052105310578F181E0C8168DE7D80660
:10241000E104F10410F4960102C021E03DE74A9B7B
:1024200003C0319521953109809164038C38D8F42B
:10243000809164038F5F8093640380916503609152
:1024400063030E940D2890936503E0916503F0E01B
:10245000EE0FFF1FE959FC4F318320838091650304
:102460008F5F8093650378941F910F91FF90EF9099
:10247000DF90CF900895FC0180819181009711F049
:102480000C94942560E070E0CB0108950F931F93A6
:10249000CF93DF93EC0188819981009729F02A81FD
:1024A0003B812617370788F48B016F5F7F4F0E94AF
:1024B0008F28009761F0998388831B830A832C817E
:1024C0003D81232B11F4FC01108281E001C080E0EA
:1024D000DF91CF911F910F910895EF92FF920F938B
:1024E0001F93CF93DF93EC017B018A01BA010E9415
:1024F00046122881398181110DC02115310519F04D
:10250000C9010E940B25198218821D821C821B8220
:102510001A8206C01D830C83B701C9010E948A2953
:10252000CE01DF91CF911F910F91FF90EF90089511
:10253000CF93DF93EC016115710559F0FB01019018
:102540000020E9F73197AF01461B570B0E946D122F
:102550000CC088819981009711F00E940B25198287
:1025600018821D821C821B821A82CE01DF91CF91BC
:102570000895FF920F931F93CF93DF9300D0CDB7B1
:10258000DEB7FF24F39485EE91E00E943211892B8F
:1025900009F450C085EE91E00E9410118A3041F09C
:1025A0001CF4882329F007C08D3011F0833219F410
:1025B000F0928D0122C089831A8200918A021091C3
:1025C0008B020F5F1F4FB80186E892E00E9446120F
:1025D000882399F0209186023091870280918A02A7
:1025E00090918B02BE016F5F7F4F820F931F0E94FD
:1025F0008A2910938B0200938A0280918A0290911B
:102600008B028F35914008F4BECF6CE271E086E812
:1026100092E00E94981282EA92E00E947F186AE09B
:1026200070E08EE591E00E949F1880EA92E00E949F
:10263000F018A9CF0F900F90DF91CF911F910F91BC
:10264000FF9008950E943E1181110C94B9120895D3
:10265000FC01808191810C940B25FC011182108278
:1026600013821282158214826115710551F0FB01EB
:1026700001900020E9F73197AF01461B570B0C94EE
:102680006D1208951F920F920FB60F9211242F937F
:102690003F934F935F936F937F938F939F93AF93EA
:1026A000BF93EF93FF93E0910601F0910701099525
:1026B000FF91EF91BF91AF919F918F917F916F911A
:1026C0005F914F913F912F910F900FBE0F901F90F0
:1026D00018951F920F920FB60F9211242F933F93CC
:1026E0004F935F936F937F938F939F93AF93BF931A
:1026F000EF93FF93E0910401F09105010995FF919B
:10270000EF91BF91AF919F918F917F916F915F9169
:102710004F913F912F910F900FBE0F901F901895E2
:102720001F920F920FB60F9211242F933F934F9346
:102730005F936F937F938F939F93AF93BF93EF9329
:10274000FF9385EE91E00E944811FF91EF91BF91B8
:10275000AF919F918F917F916F915F914F913F9139
:102760002F910F900FBE0F901F9018951F920F92F0
:102770000FB60F9211242F938F939F93EF93FF9394
:10278000E091F501F091F6018081E091FB01F0917B
:10279000FC0182FD12C090818091FE018F5F8F73DA
:1027A0002091FF01821751F0E091FE01F0E0EB5122
:1027B000FE4F958F8093FE0101C08081FF91EF91C4
:1027C0009F918F912F910F900FBE0F901F90189592
:1027D0001F920F920FB60F9211242F933F934F9396
:1027E0005F936F937F938F939F93AF93BF93EF9379
:1027F000FF93E0918A01F0918B010995FF91EF9190
:10280000BF91AF919F918F917F916F915F914F9108
:102810003F912F910F900FBE0F901F901895CF935F
:10282000DF93FC01ED57FF4F4081469FF001479F2A
:10283000F00D1124DF0123E0B695A7952A95E1F765
:10284000EC01CB57DF4F2881A21710F52197288183
:1028500030E0E770FF2702C035952795EA95E2F74B
:10286000FC01EA0FF11D3081232330E058E0541BB6
:10287000469F402D11244770541B02C03595279563
:102880005A95E2F7322FFC01EA57FF4F208301C02F
:102890003FEF832FDF91CF910895FC01ED55FF4F5E
:1028A0002081222309F45AC0E359F109DC0158962A
:1028B0001192AE17BF07E1F7411102C04FEF420F6F
:1028C000262F2695542F569560FF13C0FC01E35622
:1028D000FF4F6081261720F4FC01E20FF11D308DBF
:1028E000632F6F70FC01E60FF11D60896F5F608BD5
:1028F0002F5FDC01A356BF4F5217E8F06C912617EB
:1029000020F4FC01E20FF11D308DE32FF0E064E0D4
:10291000F595E7956A95E1F7E80FF91F60896F5F14
:10292000608B632F6F70FC01E60FF11D60896F5F94
:10293000608B2F5FE1CF40FD11C0FC01E356FF4FDC
:102940002081521720F4FC01E50FF11D308D3F70FE
:10295000FC01E30FF11D80898150808B0895FC01FB
:10296000ED55FF4F1082B696108231961082FC0111
:10297000108EE956FF4F10823196118210823296E6
:1029800027E02083719611821082B0962FEF20836A
:10299000FC012083DC01A754BF4F70969C01285E88
:1029A0003F4F1D921D921192E217F307D1F7FC01E0
:1029B000EA55FF4F1082339626E930E031832083B9
:1029C0003C9640E050E060E87EE3408351836283C0
:1029D0007383719710823396108231961082B49669
:1029E0001082319621E0208331961082B9971082AF
:1029F00008954F925F927F928F929F92AF92BF9273
:102A0000CF92DF92EF92FF920F931F93CF93DF93BA
:102A1000EC015C0187EAA80EB11CD5011C9266236B
:102A200009F4C5C06E01B3EACB0ED11CF60190814A
:102A3000992309F4BCC0962E292F30E0E62EF12C04
:102A4000E216F306FCF0961758F485ED92E00E942A
:102A50007F188DEC92E00E947F18892D0E94E0186B
:102A6000CE01DF91CF911F910F91FF90EF90DF90FA
:102A7000CF90BF90AF909F908F907F905F904F903E
:102A80000C94AF148E0108561F4FD8012D913C9124
:102A900011972E153F0508F474C0B7017695679518
:102AA000762EFE01E956FF4FE216F30639F4188E32
:102AB00010821D921C9287E0339642C0CE01489648
:102AC00090FE40C070812C01862F87196717B0F4E3
:102AD0004E01860E911CD40159964C915997842F22
:102AE00082958F7058964C91B0E14B9FA0011124B4
:102AF000482BD2014D932D016F5FE6CF20FD0EC014
:102B0000AE01480F511DCE01860F911DDC01589674
:102B10008C918295807FDA0158968C932E193F090B
:102B2000D8012D933C93C901019796958795808391
:102B3000FE01E656FF4F20FD02C087E001C083E0A2
:102B4000808311C04081461B408350E04F5F5F4F40
:102B5000680F791F0E946F29F801808191818E1979
:102B60009F099183808381E0D5018C93F801808156
:102B7000D6018C9381111BC0CD54DF4F198218826E
:102B800016C08FE791E00E946818892DDF91CF91E0
:102B90001F910F91FF90EF90DF90CF90BF90AF907B
:102BA0009F908F907F905F904F900C94E018DF91F2
:102BB000CF911F910F91FF90EF90DF90CF90BF903A
:102BC000AF909F908F907F905F904F9008950C945E
:102BD00006270C94FE266FEB8FEF90E00E94E7151E
:102BE00068E780EF90E00E94E71560E081EF90E0F9
:102BF0000E94E71564E082EF90E00E94E71563E031
:102C000085EF90E00E94E7156FE183EF90E00E946E
:102C1000E71560E484EF90E00E94E71585EB92E011
:102C20000C94F018CF938FEF90E00E94E915982F45
:102C3000917090938F0281FB992790F990938D0268
:102C400082FB992790F990938E0283FB992790F944
:102C50009093900284FB992790F99093920285FBC0
:102C6000992790F99093030186FB882780F9809338
:102C7000910280EF90E00E94E9158093020182EFBB
:102C800090E00E94E9158093930285EF90E00E9406
:102C9000E9158093970283EF90E00E94E915C82F11
:102CA00084EF90E00E94E9152C2FCC0F330B322FCC
:102CB0002227280F311D309399022093980281EF2B
:102CC00090E00E94E915811101C081E180935B03CE
:102CD000CF910895CF93C82F803120F48DE791E0F4
:102CE0000E94681860E170E08C2FCF910C945A1804
:102CF0008F929F92AF92BF92CF92DF92EF92FF920C
:102D00008FB7F894C0907F04D0908004E090810445
:102D1000F09082048FBF80919C0190919D01A091C1
:102D20009E01B0919F01C816D906EA06FB0628F459
:102D300080919B018F5F80939B01C0929C01D092F8
:102D40009D01E0929E01F0929F01A0919B01B0E055
:102D500027E339E841E450E00E9414274B015C016D
:102D6000C701B60128EE33E040E050E00E94412860
:102D7000C501B401620F731F841F951FFF90EF9070
:102D8000DF90CF90BF90AF909F908F9008950F935A
:102D90001F930E9492190091820210918302209148
:102DA000840230918502DC01CB01801B910BA20BC8
:102DB000B30B82309D47A105B10580F14A9903C04C
:102DC0002FEF32E802C021E03DE7809164038C38A8
:102DD000D8F4809164038F5F8093640380916503CE
:102DE000609163030E940D2890936503E091650351
:102DF000F0E0EE0FFF1FE959FC4F318320838091F3
:102E000065038F5F809365030E949219609382022D
:102E1000709383028093840290938502809199013C
:102E200090919A019C012F5F3F4F30939A0120931C
:102E30009901892B51F48091980191E0980F90931A
:102E40009801811102C00E94781620918C01E9E955
:102E5000F2E08491E5E8F2E09491E1E7F2E0E491B8
:102E6000EE2309F43CC0882339F1833091F038F423
:102E70008130A9F0823001F584B58F7D12C0873092
:102E800091F08830A1F08430B9F4809180008F7D7A
:102E900003C0809180008F77809380000DC084B53F
:102EA0008F7784BD09C08091B0008F7703C0809177
:102EB000B0008F7D8093B000F0E0EE0FFF1FE65A68
:102EC000FD4FA591B4913FB7F894211104C08C91A6
:102ED0009095982302C0EC919E2B9C933FBF10923B
:102EE0008C011F910F910895E89882ED90E19093E5
:102EF000050180930401E3E6F3E01182138212825C
:102F000008958EED91E19093050180930401E9E627
:102F1000F0E080818C7F81608083E89A08958EBD87
:102F20000DB407FEFDCF8EB50895CF93DF932A9899
:102F30001C99FECF8EE70E948F17C0E3D0E0CE0130
:102F40000E94E9150E948F172196C833D105B9F761
:102F50002A9ADF91CF910895CF93C62F2A981C9972
:102F6000FECF0E948F178C2F0E948F172A9ACF9125
:102F700008952A981C99FECF862B0E948F1780E017
:102F80000E948F172A9A08952A981C99FECF0E94B2
:102F90008F171C99FECF2A9A089590ED980F9A30BA
:102FA00070F09FE9980F963010F499EA05C09FEBF6
:102FB000980F963018F499EC980F01C0982F892F2C
:102FC00008951F93CF93DF93C82FD0E0CE010E94C6
:102FD0006A180E94CD17182F1295107FCE01019606
:102FE0000E946A180E94CD17810FDF91CF911F9127
:102FF0000895009769F0FC0101900020E9F73197EE
:10300000AF01481B590BBC0185EE91E00C94D31025
:1030100080E090E00895CF93DF930E94F917EC01D0
:103020008AE291E00E94F9178C0F9D1FDF91CF91EA
:1030300008958F929F92AF92BF920F931F93CF9359
:10304000DF93CDB7DEB7A1970FB6F894DEBF0FBE02
:10305000CDBF19A2423008F44AE08E010F5D1F4F28
:10306000842E912CA12CB12CA50194010E94412801
:10307000E62FB901CA0101501109EA3014F4E05DEC
:1030800001C0E95CD801EC93232B242B252B61F79D
:10309000C8010E94F917A1960FB6F894DEBF0FBEC3
:1030A000CDBFDF91CF911F910F91BF90AF909F90B7
:1030B0008F900895AB01682F4115510521F485EEDD
:1030C00091E00C946A1170E080E090E00C94191883
:1030D0000C94F91720918A0230918B028217930782
:1030E00060F420918602309187022115310529F084
:1030F000F901E80FF91F8081089580E008950F938A
:103100001F93CF93DF938C01C0E0D0E0F801EC0F68
:10311000FD1F6491662341F085EE91E00E946A11E3
:10312000892B11F02196F2CFCE01DF91CF911F9123
:103130000F910895682F85EE91E00C946A11CF925B
:10314000DF92EF92FF92CF93DF936115710559F4EF
:10315000682F85EE91E0DF91CF91FF90EF90DF90A7
:10316000CF900C946A116C01990FEE08FF086A3039
:103170007105D9F4F7FE17C08DE20E949A18EC0190
:1031800066277727CB016C197D098E099F094AE0D4
:103190000E9419188C0F9D1FDF91CF91FF90EF9027
:1031A000DF90CF9008954AE001C0462FC701B601D5
:1031B000DF91CF91FF90EF90DF90CF900C94191892
:1031C000CF93DF936AE070E00E945A18EC018AE224
:1031D00091E00E94F9178C0F9D1FDF91CF91089508
:1031E000CF93DF930E947F18EC018AE291E00E9466
:1031F000F9178C0F9D1FDF91CF9108959091D50104
:103200004091D3015091D4019730B1F4411551054B
:1032100099F0E091D2016E2F70E02091D80130E05A
:103220002150310962177307BCF5EF5FE093D201BB
:10323000F0E0E056FE4F1082A091D6016A2F70E0B8
:10324000292F30E02F5F3F4F261B370B1216130636
:1032500024F401C0880F2A95EAF7E091D201F0E04A
:10326000E056FE4F2081822B80834F5F5F4F50934B
:10327000D4014093D301292F092E000C330B261BB8
:10328000370B37FD04C09A1B9093D50103C087E02C
:103290008093D50181E0089580E00895CF92DF9278
:1032A000EF92FF920F931F93CF93DF936C018B01EB
:1032B0007A014617570720F4812F8A01E62EF82E4F
:1032C0006CE271E0C6010E942D13C0918A02D09178
:1032D0008B020C171D07E0F4EC16FD0608F4E7015D
:1032E000E0918602F0918702EC0FFD1FF0801082C2
:1032F0006091860270918702600F711FC6010E9463
:1033000098128091860290918702C80FD91FF88287
:10331000C601DF91CF911F910F91FF90EF90DF9049
:10332000CF9008953FB7F8948091840490918504DC
:10333000A0918604B091870426B5A89B05C02F3FB5
:1033400019F00196A11DB11D3FBFBA2FA92F982FCB
:103350008827820F911DA11DB11DBC01CD0142E046
:10336000660F771F881F991F4A95D1F708958F928E
:103370009F92AF92BF92CF92DF92EF92FF926B013A
:103380007C010E9492194B015C01C114D104E1043B
:10339000F104F1F00E949219DC01CB01881999091E
:1033A000AA09BB09883E9340A105B10570F321E04D
:1033B000C21AD108E108F10888EE880E83E0981E51
:1033C000A11CB11CC114D104E104F10419F7DDCF33
:1033D000FF90EF90DF90CF90BF90AF909F908F9035
:1033E00008951F920F920FB60F9211242F933F93BF
:1033F0008F939F93AF93BF9380917F0490918004AC
:10340000A0918104B09182043091830423E0230FC2
:103410002D3720F40196A11DB11D05C026E8230F0C
:103420000296A11DB11D2093830480937F04909385
:103430008004A0938104B0938204809184049091CD
:103440008504A0918604B09187040196A11DB11D49
:103450008093840490938504A0938604B09387049A
:10346000BF91AF919F918F913F912F910F900FBE80
:103470000F901F901895CF93DF93CDB7DEB7C0594B
:10348000D1090FB6F894DEBF0FBECDBF789484B5D6
:10349000826084BD84B5816084BD85B5826085BD50
:1034A00085B5816085BD80916E00816080936E00DE
:1034B00010928100809181008260809381008091D0
:1034C0008100816080938100809180008160809381
:1034D00080008091B10084608093B1008091B00041
:1034E00081608093B00080917A00846080937A003C
:1034F00080917A00826080937A0080917A00816066
:1035000080937A0080917A00806880937A0010928C
:10351000C100E091F501F091F60182E08083E09135
:10352000F501F091F6011082E091F101F091F201C4
:103530001082E091F301F091F40180E18083109218
:10354000FD01E091F901F091FA0186E08083E091BC
:10355000F701F091F801808180618083E091F701AB
:10356000F091F801808188608083E091F701F0910B
:10357000F801808180688083E091F701F091F80183
:1035800080818F7D808381ED90E00E94F0185298B9
:10359000259A80E090E00E94E915833339F481E0B8
:1035A00090E00E94E915813209F4B8C50E94EB153C
:1035B00063E380E090E00E94E71561E281E090E043
:1035C0000E94E7150E941216239A80919202882386
:1035D00021F08FEB90E00E94F01862E370E080E051
:1035E00090E00E94B71980E18093810010928000E2
:1035F00088E199E7909387008093860082E1809329
:10360000810087EC96E190938B0180938A0181E0A1
:1036100080936F006EE571E086E892E00E944612AA
:103620000E94811780919202882321F08EEA90E017
:103630000E94F0189E012F5F3F4F490170908D014D
:10364000772009F44AC310928D0180E090E00E9437
:103650006A18803549F48DED90E00E94F0188BECEB
:1036600097E00197F1F728C38F3361F581E090E08F
:103670000E946A188335E9F403E012E02DE0E22E9F
:1036800022E0F22EF80165917491C4010E94BB25DD
:1036900080E092E00E947F18C4010E9468188DEFBC
:1036A00091E00E947F180E5F1F4FE016F10651F760
:1036B00004C08EED91E00E947F188CE291E00E94A0
:1036C0000B18FAC2863539F483EC91E00E947F181A
:1036D00080EA91E017C6823589F480918804909140
:1036E0008904009711F48CE894E06AE070E0A4018A
:1036F000481B590BCA010E949F1838C1833509F035
:103700002EC11B820E947417C12CD12C1FEFCD57E4
:10371000DF4F1882C358D040712C51E0C857DF4F9B
:103720005883C858D04086E1482E9BE0692E552426
:1037300053946DE271E0CE0181599F4F0E942D1389
:1037400080918A0290918B02C816D90698F4A090B5
:103750008602B0908702E1966EAD7FADE197C5011C
:103760008C0D9D1D0E949129009721F07C01EA1883
:10377000FB0803C0EE24EA94FE2CCE0181599F4F32
:103780000E9428138FEFE816F80609F451C69FEF40
:10379000C916D90609F44CC6C6010E946A18082F3A
:1037A00080930101C60101960E946A18382E809309
:1037B00000010335B1F0003561F4C60102960E94A4
:1037C0006A188D3309F0AFC45601A3E0AA0EB11CEC
:1037D0000AC0BDE38B13A7C45601E2E0AE0EB11CD4
:1037E00002C0A12CB12C6701FFEFCF1ADF0A03350D
:1037F000D9F4153009F497C4B3E42B2E321003C06A
:103800007724739496CF2DE4321619F032E53312F3
:1038100090CF1F5FF401419EE00DF11D1124118234
:103820001082558A712C85CF023551F5772091F0A1
:10383000A701B501CE0181599F4F0E944E19CE01BB
:1038400081599F4F0E943B12C857DF4F6883C85869
:10385000D0406FC01F3F09F46CCFA701B501CE0166
:1038600081599F4F0E944E19CE0181599F4F0E944E
:103870003B12F401419EE00DF11D1124658B59C0EE
:103880001F3F09F456CF003589F5A5014150510974
:10389000B50162507109CE0181599F4F0E944E19A6
:1038A000CE0181599F4F0E943B12062FCE018159B4
:1038B0009F4F0E942813093008F035C4A701B501B5
:1038C000CE0181599F4F0E944E19CE0181599F4FC1
:1038D0000E943B12619EF0011124E00FF11DEE0FDA
:1038E000FF1FE80DF91D7683658323C0043461F45E
:1038F000F401419EE00DF11D1124A28241E0E41A81
:10390000F108F482E38215CF0334C9F4A701B501AD
:10391000CE0181599F4F0E944E19CE0181599F4F70
:103920000E943B12F401419EE00DF11D11247183B0
:103930006083CE0181599F4F0E942813FACE06342E
:1039400009F0F7CEC6018A199B0997FD0196959556
:103950008795CD57DF4F8883C358D040EACE843750
:1039600051F40E9478164AE00E9419188AE291E008
:103970000E94F917A1C1883591F481E090E00E947E
:103980006A18813511F40E94741781E090E00E945A
:103990006A18853409F090C10E9481178DC1833463
:1039A00009F0A3C081E090E00E946A18182F8734C4
:1039B00009F095C085E791E00E947F1880918F0201
:1039C0006AE070E090E00E949F1880E791E00E941A
:1039D0007F1880918D026AE070E090E00E949F184D
:1039E0008BE691E00E947F1880918E026AE070E081
:1039F00090E00E949F1884E691E00E947F188091D9
:103A000090026AE070E090E00E949F1880910301AC
:103A1000811104C08DE591E00E947F188091910290
:103A2000882321F08DE491E00E947F1884E491E0E6
:103A30000E947F18809192026AE070E090E00E94FC
:103A40009F188CE391E00E947F186AE070E08091FB
:103A500093020E945A1880919102882359F08EE2B5
:103A600091E00E947F186AE070E0809197020E94C6
:103A70005A180DC08EE191E00E947F186091980263
:103A80007091990280E090E04AE00E9419188091BC
:103A90005B03813151F080E191E00E947F186AE080
:103AA00070E080915B030E945A18809192028823F3
:103AB00009F403CE80E091E00E947F186AE070E094
:103AC000809102010E945A188EEF90E00E947F18A8
:103AD0006AE070E08CE890E00E949F18EECD8CEBDD
:103AE000810F823008F05AC06EC38735D9F581E066
:103AF00090E00E946A18082E000C990B0E945A2927
:103B0000892B09F4FDC382E090E00E946A18082E18
:103B1000000C990B0E945A29892B09F4F1C383E008
:103B200090E00E946A18082E000C990B0E945A29F6
:103B3000892B09F4E5C384E090E00E946A18082EFE
:103B4000000C990B0E945A29892B09F4D9C381E0F2
:103B50000E94E117182F83E00E94E117682F812F40
:103B600090E087C3823709F0BCC381E090E00E94F7
:103B70006A18082E000C990B0E945A29892B09F407
:103B8000BFC382E090E00E946A18082E000C990BD7
:103B90000E945A29892B09F06FC3B2C3133509F06B
:103BA000AFC36AE671E0C4010E942D1380918A02BE
:103BB00090918B02059708F4BDC200918602109186
:103BC000870269817A81C80104960E949129009731
:103BD00009F4B0C2DC01A01BB10B8D01C4010E942D
:103BE000281317FD8DC383E0C82E82E0D82EE12C68
:103BF000F12CBE2CF60165917491C4010E94BB2585
:103C0000A80162E070E0CE0181599F4F0E944E19D9
:103C1000E5968EAD9FADE597892B09F08EC2AA245B
:103C2000A3948981811195C2CE0181599F4F0E9431
:103C30002813AA2009F4ACC2C4010E94681889E7BD
:103C400091E00E947F1840918A0250918B02B80146
:103C50006F5F7F4FB4E0CE0181599F4FBB127BC293
:103C60000E944E19CE0181599F4F0E943B127093C2
:103C7000990260939802CE0181599F4F0E942813A8
:103C80006091990283EF90E00E94E715609198029D
:103C900084EF90E00E94E71560919802709199027C
:103CA00080E090E04AE00E9419188AE291E00E94C8
:103CB000F917772009F424C380918D01811106C082
:103CC0006CE271E086E892E00E9498128091030114
:103CD000882319F081E080938C0110929B0210924E
:103CE0009A02BB24B394B3E0CB2ED12C17E0A12EC3
:103CF00080916403882309F40EC28091640381508B
:103D00008093640380916603609163030E940D2891
:103D100090936603E091660381E08E0F80936603C3
:103D2000F0E0EE0FFF1FE959FC4F808191819093E5
:103D30008F0180938E011092320360912F036623CE
:103D4000E9F070E06150710984EA92E00E940F147A
:103D500080912A0390E0880F991F8B5B9C4F909372
:103D6000400380933F03E0913D03F0913E03808147
:103D7000918190932E0380932D0304C010924003F1
:103D800010923F0320918E0130918F01E0913D030D
:103D9000F0913E033183208380912F03882379F0B3
:103DA000E0913F03F0914003309749F04081518109
:103DB00042275327952F991F9927991F01C091E0FA
:103DC0002115334814F091112EC01AE080E00E94B2
:103DD000A10180912F03811105C010924003109220
:103DE0003F0306C0115091F78CE892E00E94AF1497
:103DF000109294021092950210929602209156030E
:103E0000E0913D03F0913E0380819181E22FF0E04B
:103E1000EE0FFF1FEB5BFC4F918380832F5F20939E
:103E20005603712C29C18E3F90F081E00E94A101C0
:103E30008091960281113DC080915803811139C053
:103E400040E060E08CE892E00E944D1432C088327D
:103E500081F5D0923803C092370380915D03909131
:103E60005E03009751F420915F0330916003232B90
:103E700021F42091610320FF1CC0E0915F03F091C9
:103E8000600340916103509162039A013595279533
:103E900040FF0AC0DC01A20FB31F4D915C91E40FFB
:103EA000F51F0190F081E02D820F931F09958093FB
:103EB0005C03E0903D03F0903E03F7010081118127
:103EC000B80117FF04C066277727601B710B072E08
:103ED000000C880B990B0E94DE252DEC3CEC4CE489
:103EE0005EE30E943D260E94D927AB017093360302
:103EF0006093350360905503A5E4B3E0ECE8F2E08D
:103F0000712C6714E1F02D913D91B8016227732760
:103F100077FD12C02115310579F08089882361F081
:103F2000C801821B930B97FF03C09195819591095E
:103F3000481759070CF0E9C173943196E2CF772402
:103F40007A9480919602811104C08091580388234D
:103F500021F082E00E94A1018FC0B8E06B1267C01F
:103F6000E0915603F0E0E457FD4F8089833068F11B
:103F700080913703909138031816190634F51AE02A
:103F800000E080919B02882319F010929B0201E0CF
:103F900082E00E94A10180912F03883278F4109270
:103FA0009402109295021092960200939B0240E0B8
:103FB00060E08CE892E00E944D1407C080919B0263
:103FC000882369F31150E9F6EACF10912F031123EA
:103FD00071F1E0915603F0E0E457FD4F80898823AA
:103FE00031F1612F70E06150710984EA92E00E9422
:103FF0000F1490912A038091560398130CC0612FDF
:104000008CE892E00E94F91440E060E08CE892E0D5
:104010000E944D140CC0113041F480912F038E3F4B
:1040200020F080E392E00E94F0181150D1F67090D9
:104030005603E0913D03F0913E0380819181E72D8D
:10404000F0E0EE0FFF1FEB5BFC4F9183808381E07C
:10405000870D883019F08093560306C010925603DE
:104060008093550310925803809156039091550305
:10407000981710F480935503972D80912603209173
:104080002403309125038730B9F421153105A1F0BF
:10409000E09123036E2F70E04091290350E04150DE
:1040A0005109641775070CF0ABC1EF5FE093230370
:1040B000F0E0E457FD4F108EA09127034A2F50E007
:1040C000682F70E06F5F7F4F641B750B1616170625
:1040D0002CF4972D01C0990F6A95EAF7E09123031C
:1040E000F0E0E457FD4F608D962B908F2F5F3F4F90
:1040F0003093250320932403282F082E000C330B24
:10410000241B350B37FD04C08A1B8093260324C172
:10411000A092260321C10E94221390CA83E990E055
:104120000E94F0184FCA82EF90E00E947F180E9410
:104130008117C3CA0FEF1FEF51CDB401E1968EADC9
:104140009FADE1970E948129AA24A394892B09F4A9
:104150006BCDA12C69CD0E944E19CE0181599F4F84
:104160000E943B12162FCE0181599F4F0E942813A7
:10417000812F0E94E018F701E25FFE4F8081612FDE
:1041800090E00E94E715B1100FC01093020191CD8D
:10419000EFEFEE1AFE0AF2E0CF0ED11C25E0E21698
:1041A000F10409F026CDACC031E0B31203C0109386
:1041B0005B037FCD42E0B41203C01093930279CD2C
:1041C0001093970276CD82E090E00E946A188335C2
:1041D00009F4FAC2853509F4DFC2833471F08235FF
:1041E00009F4DDC2843409F4E1C28C3409F4E5C277
:1041F0008F3449F421E932E002C02EE832E0E7963C
:104200003FAF2EAFE797153409F0E5C281E0E7969E
:10421000AEADBFADE7978C9360918F02962F9068FB
:1042200060918D02660F692B90918E02F4E09F9F42
:10423000C0011124682B9091900228E0929FF00118
:1042400011246E2B9091920230E1939FA0011124D2
:10425000642B9091030140E2949F90011124622B02
:104260009091910250E4959FC0011124682B8FEF2B
:1042700090E00E94E71520CD81E00E94E117082F11
:1042800088E991E00E947F18802F0E946A1683E0DF
:1042900090E00E946A1810E08E36C9F485E991E03A
:1042A0000E947F18E12CF12C83E991E00E947F1895
:1042B000C8018E0D9F1D0E94E9150E946A165FEFCE
:1042C000E51AF50A80E1E816F10471F7F6C98FE8FE
:1042D00091E00E947F18C8010E94E9150E946A16A9
:1042E000ECC9883769F0853659F481E090E00E9486
:1042F0006A18833429F40E94EB150E941216DCCC54
:104300008BE791E00E94F018D7CC77FC1ACE072DEE
:10431000000F110B0B5B1C4FD8016D917C91AB0111
:10432000770F660B770BF70180819181092E000CC6
:10433000AA0BBB0B1A012B01280E391E4A1E5B1E4D
:10434000C201B10122E030E040E050E00E94632869
:10435000D8012D933C9390CE80912F038F5F809353
:104360002F03E0913D03F0913E0380819181909372
:104370002C0380932B03E72D770CFF0BE457FD4FA5
:1043800080898F5F808B80919202882369F1809170
:104390009B02882349F110916403809102018117E7
:1043A00018F580919A02882391F0809190028823D9
:1043B000D9F085E492E00E947F1860E170E0812FDF
:1043C0000E945A1883E492E00E947F180DC08FE388
:1043D00092E00E947F186AE070E0812F0E945A18D4
:1043E0008CE291E00E940B1880919B02882329F0B7
:1043F000809103018111B0928C0110929B0278CCC4
:104400008BE292E00E947F186AE070E0872D0E94A4
:104410005A1881E292E00E947F186AE070E0809171
:1044200023030E945A188DE092E00E94F01899CF61
:104430008B81882309F477CE212CC857DF4F388031
:10444000C858D040321409F476C1312C76E1472E99
:10445000439CC0011124F401E80FF91F2081318130
:1044600000E0232B09F19F012B5E3F4FC557DF4F23
:1044700039832883CB58D040EF96FFAFEEAFEF974C
:104480003396C357DF4FF983E883CD58D040EF967A
:104490004EAD5FADEF974E5F5F4FC157DF4F598312
:1044A0004883CF58D040B9C0DF015596ED96BFAFD5
:1044B000AEAFED9705962401480E591EEF965FAEFC
:1044C0004EAEEF979F012D5F3F4FC158DF4F3983AD
:1044D0002883CF57D040AF014E5F5F4FCC57DF4F9F
:1044E00059834883C458D040ED96AEADBFADED972B
:1044F0008C91081708F018C1C158DF4FE881F98185
:10450000CF57D0400190F081E02DE996FFAFEEAF9C
:10451000E997CC57DF4FA881B981C458D040EC90BF
:104520000E9492192B013C01F12CE996EEADFFADF2
:10453000E997EE15FF0568F1C7010E946A188053DC
:10454000EF96EEADFFADEF97E80FF11DE80FF11D0F
:10455000A080B1806501B7FE04C0CC24DD24CA1858
:10456000DB080E9492196415750586059705C8F346
:10457000B7FE02C02B9801C02B9AC601DD0CAA0B16
:10458000BB0B480E591E6A1E7B1EFFEFEF1AFF0A77
:10459000CCCF0E9492196415750586059705C8F35E
:1045A0000F5FA2CF002331F061E070E080E090E087
:1045B0000E94B719EF96EEADFFADEF97E080F18066
:1045C000C357DF4FA881B981CD58D040AC90C157B7
:1045D000DF4FE881F981CF58D040B0800E94921916
:1045E0002B013C019701FF0C440B550BC158DF4FC9
:1045F000288339834A835B83CF57D040220F331FF0
:10460000441F551FCC57DF4F288339834A835B8370
:10461000C458D040AB1460F40F5FC557DF4FA8817A
:10462000B981CB58D0408C91081708F4BBCF7CC01F
:104630008B2D90E00E946A188A3314F097E301C032
:1046400090E3891B44E050E0ED965FAF4EAFED97ED
:1046500098E0E92EA82F880FBB0BC757DF4FB9830F
:10466000A883C958D040EB964CAE5DAE6EAE7FAE1F
:10467000EB97F12CCE2CD12CC757DF4FE881F98175
:10468000C958D040CE22DF22F11004C0C114D10499
:1046900021F405C0C114D10411F42B9801C02B9A48
:1046A000EB962CAD3DAD4EAD5FADEB97C158DF4FF6
:1046B00088819981AA81BB81CF57D040280F391FAB
:1046C0004A1F5B1FEB962CAF3DAF4EAF5FAFEB9732
:1046D0000E949219EB962CAD3DAD4EAD5FADEB97C0
:1046E000621773078407950798F3F39432E0F31287
:1046F000CBCFCC57DF4F88819981AA81BB81C45829
:10470000D040480E591E6A1E7B1EE694ED96AEAD53
:10471000BFADED971197ED96BFAFAEAFED97AB2B59
:1047200009F0A1CFB39476CF2B983394131508F0EA
:104730008DCE239482CE40918A0250918B0260915B
:1047400086027091870285EE91E00E94D310CD57CA
:10475000DF4F2880C358D040222009F4E8CC80EEF7
:1047600090E00E947F180FE010E0F12CC8010E9439
:10477000E915E82E0E946A166E2D8DE08F0D0E94BD
:10478000AC17F3940F5F1F4FCD57DF4F3880C358DE
:10479000D0403F10EBCFCBCCEDE8F2E017C040E9C2
:1047A00052E0E7965FAF4EAFE7972DCD82E992E0FA
:1047B000E7969FAF8EAFE79726CDA3E0B1E0E796EF
:1047C000BFAFAEAFE7971FCDEFE8F2E0E796FFAFE0
:1047D000EEAFE79718CDE796EEADFFADE797108205
:1047E0001BCD86E892E00C942813CF93DF93E5EE7F
:1047F000F1E01382128288EE93E0A0E0B0E08483BF
:104800009583A683B7838CE191E09183808385ECC7
:1048100090E09587848784EC90E09787868780EC8A
:1048200090E0918B808B81EC90E0938B828B82EC7B
:1048300090E0958B848B86EC90E0978B868B118E25
:10484000128E138E148EE3E6F3E08CE880831182DF
:1048500013821282CCE8D2E08FE78093290384E0B0
:1048600080932703188E1092230310922503109231
:10487000240387E08093260380EF80932803E9E3F5
:10488000F3E0F0933E03E0933D0310924003109257
:104890003F0310925E0310925D031092600310922A
:1048A0005F03109262031092610311821082CE01A5
:1048B0000E94AF1481E180935B03188619861A86E3
:1048C0006CE271E086E892E00E942D130E9492193A
:1048D0006093820270938302809384029093850296
:1048E000DF91CF9108950F931F93CF93DF93823081
:1048F000910510F482E090E0E0918A04F0918B043D
:1049000020E030E0A0E0B0E0309719F14081518123
:104910000281138148175907C8F08417950769F475
:10492000109731F012960C93129713961C9327C090
:1049300000938A0410938B0422C02115310519F0CD
:104940004217530718F49A01BD01EF01DF01F80186
:10495000DBCF21153105F9F0281B390B2430310547
:1049600080F48A819B816115710521F0FB0193839D
:10497000828304C090938B0480938A04FE01329654
:1049800044C0FE01E20FF31F81939193225031093D
:10499000398328833AC02091880430918904232BDD
:1049A00041F420910A0130910B0130938904209346
:1049B000880420910801309109012115310541F445
:1049C0002DB73EB740910C0150910D01241B350BC2
:1049D000E0918804F0918904E217F307A0F42E1BFC
:1049E0003F0B2817390778F0AC014E5F5F4F241753
:1049F000350748F04E0F5F1F509389044093880499
:104A00008193919302C0E0E0F0E0CF01DF91CF917C
:104A10001F910F910895CF93DF93009709F481C000
:104A2000FC01329713821282A0918A04B0918B0408
:104A3000109781F420813181820F931F2091880487
:104A4000309189042817390751F5F0938904E093D0
:104A5000880467C0ED0120E030E0CE17DF0740F4A6
:104A60004A815B819E0141155105F1F0EA01F5CFC4
:104A7000D383C28340815181840F951FC817D90702
:104A800059F488819981840F951F029691838083C0
:104A90008A819B81938382832115310529F4F093C8
:104AA0008B04E0938A043DC0E901FB83EA834991CA
:104AB0005991C40FD51FEC17FD0761F480819181D6
:104AC000840F951F0296E9019983888382819381DF
:104AD0009B838A83E0E0F0E012968D919C9113977E
:104AE000009719F0FD01DC01F7CF8D919C91119792
:104AF0009D012E5F3F4F820F931F209188043091BC
:104B000089042817390769F4309729F410928B0427
:104B100010928A0402C013821282B0938904A09377
:104B20008804DF91CF9108951F93FC01992788276E
:104B3000BC01E89411911032E9F3193010F01E30E5
:104B4000C8F31B3251F01D3249F4689406C00E942C
:104B5000C225610F711D811D911D119110531A30D5
:104B6000B0F33EF490958095709561957F4F8F4F8F
:104B70009F4F1F910895FB01DC0105900D920020CD
:104B8000E1F70895592F482F372F262F660F771FEB
:104B9000881F991F660F771F881F991F620F731F49
:104BA000841F951F660F771F881F991F08950E9405
:104BB000192608F481E00895E89409C097FB3EF4B3
:104BC00090958095709561957F4F8F4F9F4F99235A
:104BD000A9F0F92F96E9BB279395F69587957795D8
:104BE0006795B795F111F8CFFAF4BB0F11F460FF98
:104BF0001BC06F5F7F4F8F4F9F4F16C0882311F0F0
:104C000096E911C0772321F09EE8872F762F05C003
:104C1000662371F096E8862F70E060E02AF09A959E
:104C2000660F771F881FDAF7880F9695879597F993
:104C30000895990F0008550FAA0BE0E8FEEF16162D
:104C40001706E807F907C0F012161306E407F50780
:104C500098F0621B730B840B950B39F40A2661F0F4
:104C6000232B242B252B21F408950A2609F4A14097
:104C7000A6958FEF811D811D08950E9450260C94EA
:104C8000C4260E94B62638F00E94BD2620F0952347
:104C900011F00C94AD260C94B32611240C94F82634
:104CA0000E94D52670F3959FC1F3950F50E0551FD4
:104CB000629FF001729FBB27F00DB11D639FAA2771
:104CC000F00DB11DAA1F649F6627B00DA11D661FC0
:104CD000829F2227B00DA11D621F739FB00DA11DE1
:104CE000621F839FA00D611D221F749F3327A00D9B
:104CF000611D231F849F600D211D822F762F6A2F37
:104D000011249F5750409AF0F1F088234AF0EE0F9B
:104D1000FF1FBB1F661F771F881F91505040A9F7C8
:104D20009E3F510580F00C94AD260C94F8265F3F11
:104D3000E4F3983ED4F3869577956795B795F79504
:104D4000E7959F5FC1F7FE2B880F911D969587957C
:104D500097F9089599278827089597F99F6780E81C
:104D600070E060E008959FEF80EC089500240A94BD
:104D70001616170618060906089500240A94121636
:104D80001306140605060895092E0394000C11F469
:104D9000882352F0BB0F40F4BF2B11F460FF04C016
:104DA0006F5F7F4F8F4F9F4F089557FD9058440F6F
:104DB000551F59F05F3F71F04795880F97FB991F7A
:104DC00061F09F3F79F08795089512161306140637
:104DD000551FF2CF4695F1DF08C0161617061806C4
:104DE000991FF1CF86957105610508940895E8949F
:104DF000BB2766277727CB0197F90895F999FECF4E
:104E000092BD81BDF89A992780B50895262FF9990A
:104E1000FECF1FBA92BD81BD20BD0FB6F894FA9A9D
:104E2000F99A0FBE019608950E945627A59F900DEE
:104E3000B49F900DA49F800D911D112408952F9271
:104E40003F924F925F926F927F928F929F92AF921A
:104E5000BF92CF92DF92EF92FF920F931F93CF9367
:104E6000DF93CDB7DEB7CA1BDB0B0FB6F894DEBFFE
:104E70000FBECDBF09942A88398848885F846E8424
:104E80007D848C849B84AA84B984C884DF80EE806E
:104E9000FD800C811B81AA81B981CE0FD11D0FB677
:104EA000F894DEBF0FBECDBFED010895A29FB00103
:104EB000B39FC001A39F700D811D1124911DB29F4E
:104EC000700D811D1124911D08955058BB27AA27EC
:104ED0000E947D270C94C4260E94B62638F00E94BA
:104EE000BD2620F039F49F3F19F426F40C94B32624
:104EF0000EF4E095E7FB0C94AD26E92F0E94D52631
:104F000058F3BA17620773078407950720F079F4FE
:104F1000A6F50C94F7260EF4E0950B2EBA2FA02DD3
:104F20000B01B90190010C01CA01A0011124FF2756
:104F3000591B99F0593F50F4503E68F11A16F04051
:104F4000A22F232F342F4427585FF3CF4695379550
:104F50002795A795F0405395C9F77EF41F16BA0B15
:104F6000620B730B840BBAF09150A1F0FF0FBB1FC3
:104F7000661F771F881FC2F70EC0BA0F621F731F0C
:104F8000841F48F4879577956795B795F7959E3F69
:104F900008F0B0CF9395880F08F09927EE0F9795FA
:104FA000879508950E94D9276894B1110C94F8262A
:104FB00008950E94DD2688F09F5798F0B92F992711
:104FC000B751B0F0E1F0660F771F881F991F1AF0F4
:104FD000BA95C9F714C0B13091F00E94F726B1E03C
:104FE00008950C94F726672F782F8827B85F39F03B
:104FF000B93FCCF3869577956795B395D9F73EF48D
:1050000090958095709561957F4F8F4F9F4F089534
:105010000E94192608F48FEF0895991B79E004C0C7
:10502000991F961708F0961B881F7A95C9F78095E7
:105030000895AA1BBB1B51E107C0AA1FBB1FA617DF
:10504000B70710F0A61BB70B881F991F5A95A9F731
:1050500080959095BC01CD01089597FB072E16F41D
:10506000009407D077FD09D00E94192807FC05D0CD
:105070003EF4909581959F4F0895709561957F4F6F
:105080000895A1E21A2EAA1BBB1BFD010DC0AA1F89
:10509000BB1FEE1FFF1FA217B307E407F50720F0A1
:1050A000A21BB30BE40BF50B661F771F881F991F1C
:1050B0001A9469F760957095809590959B01AC0165
:1050C000BD01CF010895052E97FB1EF400940E94A8
:1050D0007A2857FD07D00E94412807FC03D04EF4E0
:1050E0000C947A2850954095309521953F4F4F4F1D
:1050F0005F4F089590958095709561957F4F8F4F84
:105100009F4F08950E945627B7FF0895821B930B67
:105110000895EE0FFF1F0590F491E02D0994A0E093
:10512000B0E0E5E9F8E20C942327EC01009721F4C4
:10513000CB010E947324B4C0FC01E60FF71F9C0151
:1051400022503109E217F30708F4A8C0D9010D91E4
:105150001C91119706171707B0F00530110508F4D8
:105160009BC0C80104978617970708F495C00250A2
:105170001109061B170B019311936D937C93CF01BB
:105180000E940B2589C05B01A01AB10A4C01800E58
:10519000911EA0918A04B0918B04612C712CE12C9A
:1051A000F12C109709F446C08D919C911197A81588
:1051B000B905B1F56C0142E0C40ED11CCA14DB0480
:1051C00078F14C018A189B08640142E0C40ED11C9E
:1051D0001296BC9012971396AC91B5E0CB16D10401
:1051E00040F0B282A38391828082D9016D937C9337
:1051F00009C00E5F1F4F800F911FF90191838083BB
:10520000EB2DFA2FE114F10431F0D7011396FC9342
:10521000EE93129741C0F0938B04E0938A043CC054
:105220006816790608F43C017D0112960D90BC9138
:10523000A02DB7CF80918804909189048816990693
:10524000E1F466167706C8F480910801909109018F
:10525000009741F48DB79EB740910C0150910D011C
:10526000841B950BE817F907C8F4F0938904E093C1
:105270008804F901718360830FC0CB010E947324FD
:105280007C01009759F0A801BE010E946629CE0159
:105290000E940B25C70104C0CE0102C080E090E04F
:1052A000CDB7DEB7EEE00C943F2781E090E0F894B4
:1052B0000C945E2C91110C94AA2680538A5028F0ED
:1052C000865C806281568650B0F70895FB01DC0150
:1052D00002C001900D9241505040D8F708956817D0
:1052E000790768F4FB01DC01E40FF51FA40FB51F7B
:1052F00002C002900E9241505040D8F708950C948D
:105300006629FB01DC018D91019080190110D9F310
:10531000990B0895FB01DC0101900D920020E1F74B
:105320000895FB0151915523A9F0BF01DC014D9176
:1053300045174111E1F759F4CD010190002049F0E2
:105340004D9140154111C9F3FB014111EFCF81E0AF
:1053500090E001970895AEE0B0E0E1EBF9E20C9443
:105360002D270D891E8986E08C831A8309838FEF90
:105370009FE79E838D83AE01475E5F4F6F89788D77
:10538000CE0101960E94CD29EF81F885E00FF11F33
:1053900010822E96E4E00C944927ABE0B0E0E3EDF8
:1053A000F9E20C941F276C017B018A01FC01178232
:1053B0001682838181FFCCC1CE0101963C01F601AA
:1053C0009381F70193FD859193FF81917F0188235C
:1053D00009F4BAC1853239F493FD859193FF819127
:1053E0007F01853229F4B60190E00E94C42BE7CFFB
:1053F000912C212C312CFFE1F315D8F08B3279F070
:1054000038F4803279F08332A1F4232D20611DC05D
:105410008D3261F0803369F4232D216016C0832D15
:105420008260382EE32DE4603E2E2AC0F32DF86012
:105430001DC037FC2DC020ED280F2A3040F08E32E1
:10544000B9F436FC81C1232D2064322E19C036FEFA
:1054500006C08AE0989E200D1124922E11C0EAE029
:105460002E9E200D1124222EF32DF0623F2E08C017
:105470008C3621F4832D8068382E02C0883641F4A2
:10548000F70193FD859193FF81917F018111B3CF46
:10549000982F9F7D9554933028F40C5F1F4F9FE306
:1054A00099830DC0833631F0833771F0833509F06D
:1054B00059C021C0F801808189830E5F1F4F882465
:1054C0008394912C530113C02801F2E04F0E511C1C
:1054D000F801A080B18036FE03C0692D70E002C0E3
:1054E0006FEF7FEFC5010E94B92B4C018201F32DB4
:1054F000FF773F2E16C0280122E0420E511CF80112
:10550000A080B18036FE03C0692D70E002C06FEF4D
:105510007FEFC5010E94AE2B4C01F32DF0683F2EAA
:10552000820133FC1BC0822D90E088169906B0F4EE
:10553000B60180E290E00E94C42B2A94F4CFF501DA
:1055400037FC859137FE81915F01B60190E00E94A2
:10555000C42B21102A9421E0821A9108811491040D
:1055600071F7E8C0843611F0893641F5F80137FE4D
:1055700007C060817181828193810C5F1F4F08C0D9
:1055800060817181072E000C880B990B0E5F1F4FF5
:10559000F32DFF763F2E97FF09C09095809570956B
:1055A00061957F4F8F4F9F4FF0683F2E2AE030E08C
:1055B000A3010E94002C882E861845C0853731F43F
:1055C000232D2F7EB22E2AE030E025C0932D997F27
:1055D000B92E8F36C1F018F4883579F0B5C0803710
:1055E00019F0883721F0B0C0E92FE061BE2EB4FE7B
:1055F0000DC0FB2DF460BF2E09C034FE0AC0292F58
:105600002660B22E06C028E030E005C020E130E080
:1056100002C020E132E0F801B7FE07C0608171816D
:10562000828193810C5F1F4F06C06081718180E091
:1056300090E00E5F1F4FA3010E94002C882E861859
:10564000FB2DFF773F2E36FE0DC0232D2E7FA22E81
:10565000891458F434FE0BC032FC09C0832D8E7EB1
:10566000A82E05C0B82CA32C03C0B82C01C0B92C9F
:10567000A4FE0FC0FE01E80DF11D8081803321F4EE
:105680009A2D997EA92E09C0A2FE06C0B394B394A8
:1056900004C08A2D867809F0B394A3FC11C0A0FE43
:1056A00006C0B21488F4280C922C9B180EC0B214B9
:1056B00060F4B60180E290E00E94C42BB394F7CF6F
:1056C000B21418F42B1802C0982C212CA4FE10C080
:1056D000B60180E390E00E94C42BA2FE17C0A1FC9B
:1056E00003C088E790E002C088E590E0B6010CC0F6
:1056F0008A2D867859F0A1FE02C08BE201C080E2BB
:10570000A7FC8DE2B60190E00E94C42B891438F406
:10571000B60180E390E00E94C42B9A94F7CF8A945C
:10572000F301E80DF11D8081B60190E00E94C42BC9
:105730008110F5CF222009F442CEB60180E290E03C
:105740000E94C42B2A94F6CFF6018681978102C06D
:105750008FEF9FEF2B96E2E10C943B27FC01059025
:10576000615070400110D8F7809590958E0F9F1F63
:105770000895FC016150704001900110D8F78095A8
:1057800090958E0F9F1F08950F931F93CF93DF93D4
:10579000FB01238121FD03C08FEF9FEF2CC022FF6F
:1057A00016C046815781248135814217530744F43E
:1057B000A081B1819D012F5F3F4F318320838C9366
:1057C000268137812F5F3F4F3783268314C08B019B
:1057D000EC01FB010084F185E02D0995892BE1F6B0
:1057E000D80116968D919C911797019617969C93C8
:1057F0008E931697CE01DF91CF911F910F9108954F
:10580000FA01AA27283051F1203181F1E8946F93F1
:105810006E7F6E5F7F4F8F4F9F4FAF4FB1E03ED097
:10582000B4E03CD0670F781F891F9A1FA11D680F35
:10583000791F8A1F911DA11D6A0F711D811D911D68
:10584000A11D20D009F468943F912AE0269F1124DD
:105850003019305D3193DEF6CF010895462F477041
:10586000405D4193B3E00FD0C9F7F6CF462F4F709C
:10587000405D4A3318F0495D31FD4052419302D0FA
:10588000A9F7EACFB4E0A6959795879577956795A0
:10589000BA95C9F700976105710508959B01AC01A0
:1058A0000A2E06945795479537952795BA95C9F7C7
:1058B000620F731F841F951FA01D089511E0C6E796
:1058C000D1E004C0FE010E9489282196C737D10784
:0658D000C9F7F894FFCFB8
:1058D60020207801D210D21000008C048000F0F154
:1058E600F2F5F3F4FFFFFFFF000000006A11D3108A
:1058F6000111B7113211101124110D0A003B004D90
:105906007300440064004D5300443D0043503D0085
:1059160053503D004F00650070006D004D43004C34
:105926004C3D004C483D00534C3D0053483D00253E
:10593600303258002530315800433D00690062007E
:1059460077004D75004D550050006F003030002037
:0A5956006D6F766545727220000047
:00000001FF
