:100000000C94C9010C949E140C9477140C94F10177
:100010000C94F1010C94F1010C94F1010C94F10198
:100020000C94F1010C94F1010C94F1010C94F10188
:100030000C94F1010C94C5140C94F1010C94F10191
:100040000C942D140C94F1010C94AA120C948412AB
:100050000C94F1010C94F1010C94F1010C94F10158
:100060000C94F1010C94F10152656164696E672092
:1000700076616C7565732066726F6D206565707250
:100080006F6D00636331313031206973206E6F749E
:1000900020636F72726563746C79207365742E20AF
:1000A000506C6561736520646F20612066616374C4
:1000B0006F72792072657365742076696120636F51
:1000C0006D6D616E64206500726563656976657249
:1000D00020656E61626C6564005374617274696E50
:1000E000672074696D65726A6F6200206363506196
:1000F00072746E756D3D002063635665723D006FCE
:100100006B2E006E6F2043433131787820666F7517
:100110006E6421004343496E697420005573696E13
:100120006720734649464F006363726567207772A4
:10013000697465206261636B200073656E6420667C
:1001400061696C6564003B4D6465624669666F4C2D
:10015000696D69743D003B6D634D696E4269744C15
:10016000656E3D003B4D7553706C697454687265E3
:1001700073683D005F4D53636E743D003B4D646595
:100180006275673D003B4D66696C743D31003B4CC8
:1001900045443D30003B4D7265643D003B4D433D61
:1001A000003B4D553D004D533D003A2000636372C6
:1001B00065672000433345203D20002064656C6165
:1001C00079312000206368697053746174757320FD
:1001D00000636D645374726F6265526567200055E9
:1001E0006E737570706F7274656420636F6D6D618E
:1001F0006E640020746F2050415441424C4520648D
:100200006F6E650057726974652000203D200020E4
:100210003A00454550524F4D200063633131303133
:10022000200020557365206F6E65206F6620005397
:1002300069676E616C3A20002C2073746174653AB2
:1002400020002C206D7472756E633A20002C204DB6
:1002500043443A20002C2076616C636E743A20008F
:100260002C206D656E643A20002C206D53746172F1
:10027000743A20002C2050756C73653A20462F4C40
:100280002F464C2F4C5020002C20506174744C652C
:100290006E3A20002061646444617461206F766569
:1002A00072666C6F772121002062797465636E74C9
:1002B0003D0076616C3D00206D62206E6D206220F5
:1002C00070726F6320004D443D006D4F766572661D
:1002D0006C6F772673746174653D3021000D2E2D8F
:1002E00007D3913D04320000060010B07157C430AE
:1002F00023B900070018146C070090876BF856119B
:10030000E92A001F410000000000250028002B0002
:1003100004040404040404040202020202020303AB
:1003200003030303010204081020408001020408B3
:100330001020010204081020000000080002010043
:10034000000304070000000000000000636D64204B
:10035000746F206C6F6E672100496E69742065654B
:1003600070726F6D20746F2064656661756C747354
:10037000002073746172743D0020627566664D6F73
:100380007665206F766572666C6F77210000D128E4
:10039000CD2811241FBECFEFD8E0DEBFCDBF12E0C5
:1003A000A0E0B1E0E2E5F3E602C005900D92A039CD
:1003B000B107D9F725E0A0E9B2E001C01D92AF3343
:1003C000B207E1F711E0C8ECD1E004C02197FE01CB
:1003D0000E94D52DC73CD107C9F70E943F1A0C9443
:1003E0009C310C9400002F923F924F925F926F923B
:1003F0007F928F929F92AF92BF92CF92DF92EF92B5
:10040000FF920F931F93CF93DF93CDB7DEB7E4979F
:100410000FB6F894DEBF0FBECDBF8F8B882321F0BF
:1004200081E080933F0402C010923F0480916404F5
:1004300090913B04811104C0983210F40C94D50EB5
:1004400010923E0481E09E3F09F080E080934004DA
:1004500040E060E08CE993E00E942C15F12C6F2CB9
:10046000712C8091610490E00197681679060CF078
:1004700006C1F301E456FC4FCF010D962585F39498
:10048000222369F3EF2C9301220F331FA9014F5A46
:100490005B4F5F8F4E8F99A388A35BA34AA3809184
:1004A0006104E816E0F62E2D30E0B90164567C4F69
:1004B000798F688FDB011D968C91882309F4DDC04C
:1004C000EE8DFF8D00811181A901440F551F5D8FB5
:1004D0004C8FFA01EF5AFB4F60817181CB0180276D
:1004E000912797FDCAC080904D0490904E04A09033
:1004F0004F04B09050046B01C01AD10AD7FE03C05C
:10050000D194C194D10877FF03C0719561957109A9
:10051000072E000C880B990B0E94BE2AA50194019E
:100520000E941D2B1B012C01B80117FF03C0719500
:1005300061957109072E000C880B990B0E94BE2A49
:10054000A50194010E941D2B9B01AC01C201B101C8
:100550000E943B2C20E030E040E05FE30E941D2B36
:100560000E94192D6C157D050CF487C0D12CC12C6F
:10057000088D198D035F1F4F80913B04D81608F03A
:1005800041C0D8018C91C816E8F56D2D70E081EB63
:1005900093E00E94EC14809136048E1131C080915A
:1005A0003304482F50E0D89EC0011124FC0123E001
:1005B000F695E7952A95E1F720913504E217F8F4CE
:1005C000FF27E456FC4F2091340430E087709927D0
:1005D000082E02C0359527950A94E2F720953589B3
:1005E000232368E070E0641B750BAB01481B590BBB
:1005F000C30101C0880F4A95EAF7282B258BC394C5
:10060000D394BACFE8A1F9A11081A88DB98D1D9618
:100610000C91EAA1FBA1A081B1812C8D3D8D2F5AB7
:100620003B4F6901F901A080B180E12FF0E09F010B
:100630000E94CE2D1B012C01402F50E09A01D501C4
:100640000E94CE2D620D731D841D951DE40FF51FB4
:100650009F01FF0F440B550B0E94AF2DAAA1BBA118
:100660002D933C93100FE8A1F9A11083A88DB98DAB
:100670001D961C92F60111821082E39410CF109205
:100680004404109243048091A403882309F43FC0DA
:1006900010923C0460913C046A3080F570E06F5F1A
:1006A0007F4F81EB93E00E94EC142091360430E000
:1006B00080916304082E000C990B2817390791F4D8
:1006C00060913C0470E081EB93E00E94EC14209177
:1006D000360430E080919C03082E000C990B2817FB
:1006E000390731F080913C048F5F80933C04D2CF76
:1006F00082E090E09093440480934304809143040B
:1007000090914404892B69F41092A40304C0809151
:10071000A503882331F040E060E08CE993E00E947B
:100720002C158091430490914404892B09F07BC0DF
:100730008FEF80939C037090610480903B04B1E53F
:10074000CB2EB4E0DB2E00E010E0EE24EA94FE2C89
:10075000912CA12CB12C071508F059C0FFEFEF1612
:10076000FF0611F5D6018D919C9197FD1DC0F801F2
:10077000E456FC4F658570E080E090E00E94BE2A60
:100780001B012C01C501B4010E94BE2A2BE734E1F4
:100790004EE25EE30E941D2B9B01AC01C201B10140
:1007A0000E944F2D181664F1F6018081918197FD0A
:1007B00028C0F701EE0FFF1FEF5AFB4F2081318158
:1007C00082179307F4F4F801E456FC4F658570E056
:1007D00080E090E00E94BE2A1B012C01C501B401FB
:1007E0000E94BE2A2BE734E14EE25EE30E941D2BFD
:1007F0009B01AC01C201B1010E944F2D18160CF4EF
:1008000078010F5F1F4FF2E0CF0ED11CA4CF2FEF66
:10081000E216F20641F0E0929C0381E090E09093B2
:1008200044048093430480914304909144040197CD
:1008300009F0A7C080919F03882309F4A2C080918A
:10084000660481119EC080913B04282F30E02C3833
:10085000310524F4F8EDAF2EA80E02C0E4E6AE2E6A
:10086000B0906104BA9476E0972EB7FC87C00B2D48
:100870000B2C000C110BF801E456FC4F458544236A
:1008800009F47AC0F801EE0FFF1FEF5AFB4F2081E9
:10089000318137FF71C0319521953109283652E4F5
:1008A00035070CF069C0E0919C03EE0FFF0BEF5A87
:1008B000FB4F0190F081E02DC901BF010E94652D21
:1008C0006333710508F058C09E9EC0019F9E900D35
:1008D00011248217930708F04FC0642F70E080E066
:1008E00090E00E94BE2A6B017C0160913B0470E0A5
:1008F00080E090E00E94BE2A2AE037ED43EA5DE303
:100900000E941D2B9B01AC01C701B6010E94B72AB2
:1009100087FF32C0C12CD12CCA1470F576016FEF5D
:10092000E61AF60AB70181EB93E00E94EC1480917D
:10093000360490E08017910711F00C94DE0EB6019A
:1009400081EB93E00E94EC142091360430E080911A
:100950009C03082E000C990B2817390711F00C94F2
:10096000DE0EB092630482E090E0909344048093A2
:100970004304C0923C0405C0BA9477CF8FEF8093B4
:1009800063048091430490914404029709F06AC281
:1009900080913B04883208F465C280913C048E5FEC
:1009A00080933D0460913D0470E080913C0490E0B0
:1009B0000996861797070CF43FC06F5F7F4F81EB56
:1009C00093E00E94EC142091360430E0809163049F
:1009D000082E000C990B28173907A1F460913D04EB
:1009E00070E081EB93E00E94EC142091360430E03B
:1009F00080919C03082E000C990B2817390711F4DD
:100A00000C94E10E80913D048F5FCACF6F5F7F4FE2
:100A100081EB93E00E94EC142091360430E0809149
:100A20006304082E000C990B2817390781F0809178
:100A30003D048E5F80933D0460913D0470E08091A1
:100A40003B0490E001976817790704F314C06091A4
:100A50003D0470E081EB93E00E94EC142091360499
:100A600030E080919C03082E000C990B2817390761
:100A7000F1F60C94E70EF12C80913B0490913D042B
:100A8000891710F0F11003C0815080933D0440910C
:100A90003D0460913C048CE993E00E942C15809108
:100AA0003C04FF2049F020913D0430E0D901A81B0F
:100AB000B10998979CF4D6C190913B04292F30E05E
:100AC000281B3109283231050CF4CCC19E3F08F0B7
:100AD000ACC1BF89B23011F40C9461109091A403A1
:100AE0008091A303981708F056C18091A003882332
:100AF00009F4B0C082E00E94EA1888E092E00E9407
:100B00009E188BE30E94EA1820E080916104281768
:100B1000C8F5822F90E0FC01EE0FFF1FEF5AFB4F4C
:100B2000008111810115110559F1FC01E456FC4FBA
:100B30008585882329F1622F17FF05C0606A11950A
:100B40000195110901C06068E02E07FD04C0E02F87
:100B5000E068EE2E01C0606185EF92E02CAB0E9450
:100B600016116E2D85EF92E00E941611612F6068BC
:100B700085EF92E00E9416118BE30E94EA182CA9DF
:100B80002F5FC3CF80913D0480FF03C08BE092E0D4
:100B900002C080E892E00E949E18E0913C04E0FFD1
:100BA00017C0E150E0933C04E69580913504E817C6
:100BB00028F4F0E0E456FC4F25892A8F6A8D85EFF2
:100BC00092E00E94161180913C048E5F80933C0459
:100BD00010913C0480913D04811790F0E12FE6953F
:100BE00080913504E81728F4F0E0E456FC4F35898D
:100BF0003A8F6A8D85EF92E00E9416111E5FEACF50
:100C00008BE30E94EA1887E292E00E949E1880918E
:100C10009C0360E170E0082E000C990B0E94F5180F
:100C20008BE30E94EA1880E192E00E949E18809176
:100C3000630460E170E0082E000C990B0E94F51827
:100C40008BE30E94EA188DE092E00E949E1860E11A
:100C500070E07BC082E00E94EA188FE092E00E9480
:100C60009E188BE30E94EA1810E080916104181727
:100C700058F5812F90E09C01220F331FA9014F5A94
:100C80005B4F6A01DA012D913C91232BD9F0FC01D5
:100C9000E456FC4F85858823A9F080E50E94EA1878
:100CA0006AE070E0812F0E94A0188DE30E94EA188C
:100CB0006AE070E0F601808191810E94F5188BE373
:100CC0000E94EA181F5FD1CF82E192E00E949E1835
:100CD00010913C0480913D04811770F0612F70E009
:100CE00081EB93E00E94EC146AE070E0809136049E
:100CF0000E94A0181F5FEECF8BE30E94EA1885E1E7
:100D000092E00E949E1880919C036AE070E0082E99
:100D1000000C990B0E94F5188BE30E94EA1889E1F8
:100D200092E00E949E18809163046AE070E0082EB1
:100D3000000C990B0E94F5188BE30E94EA188DE1D4
:100D400092E00E949E186AE070E0809168040E9420
:100D5000A0188BE30E94EA1880914004882339F0A0
:100D600080E292E00E949E188BE30E94EA18809134
:100D7000A103882381F0FF89F11103C086E692E088
:100D800005C02F89223039F482E292E00E949E1839
:100D90008BE30E94EA1810923F048091A403F110A3
:100DA00002C0882389F19091A103992389F0909141
:100DB000A303891768F484E292E00E949E186AE017
:100DC00070E08091A4030E94A0188BE30E94EA18AF
:100DD0002091A4032F5F2093A403FF20A9F03F8953
:100DE000311109C080913B0490E030913D04831B98
:100DF000910988974CF0222339F080913D048F5F50
:100E00000E94481910923C049091A4038091A3037E
:100E1000891738F083E00E94EA1883E892E00E9484
:100E20009E1881E08093A8031AC0882389F020913E
:100E30003D0430E02D3F31055CF04F89411103C086
:100E400010923F040CC00E94481910923C0407C045
:100E50005F89523021F08CE993E00E948E1581E089
:100E600080933E0480913E04811189C780919D0347
:100E700060919E036EA3811103C0662309F47FC7AE
:100E80007EA1772309F453C58091430490914404D3
:100E9000029709F44CC58091A402811129C082E314
:100EA0008093E80291E09093E6021092B1021092D2
:100EB000E3021092E40287E08093E50280E88093E9
:100EC000E7028FEF8093EC028093ED028093EE02B5
:100ED0008093EF021092F4022CE933E03093EB029E
:100EE0002093EA021092F1021092F0029093A40271
:100EF00080916404882399F08091EA029091EB023A
:100F0000FC01ED55FF4F108233971082D12C11E078
:100F1000CC24C39477247A9487E0682EDAC18FEFCB
:100F20008093EC028093ED028093EE028093EF02B7
:100F30001092F4021092F1021092F0021092B1029B
:100F40001092E3021092E40287E08093E502809120
:100F500067048093F2020091EA021091EB02F8011B
:100F6000EB53FF4FF08083E08F1508F0D5C4B697A0
:100F7000608170E080E090E00E94BE2A2AE037EDB8
:100F800043E25DE30E941D2B4B015C0120E030E059
:100F9000A9010E944F2D20E030E040E05FE387FD93
:100FA00005C0C501B4010E943B2C04C0C501B401B9
:100FB0000E943A2C0E94192DA801435F5F4FD8016F
:100FC000AB54BF4F212C70E0FA018191AF0186171D
:100FD00058F1E22C8E2D90E0EE20F1F0FE01E80FAA
:100FE000F91FD08098012D0D311D2D0D311DF901F6
:100FF000EB54FF4F2D913C9111970190F081E02D22
:101000002E173F074CF4E1E0F0E0EC0FFD1FE80F76
:10101000F91FD082EA94DECFE1E0F0E0EC0FFD1F93
:10102000E80FF91F708323947F5F12967F11CCCF56
:101030009E012F5F3F4F3A8B298B3F8F2E8FBE0132
:10104000675F7F4F7C8B6B8BCE010D969E8B8D8B5C
:101050008C5F8BAB49894EA78E8D841B821508F05F
:101060005BC4AE8DBF8D2D91BF8FAE8F4091EA02D4
:101070003091EB02842F932F820F911D820F911DCF
:10108000FC01EB54FF4F208131813B8F2A8F1216D8
:10109000130604F78FEF8093EC028093ED028093A8
:1010A000EE028093EF02359527953BA72AA7AE0164
:1010B0004F5F5F4F5D8F4C8F18A21AA26FEF7FEFCB
:1010C000798F688F8A8D9B8D092E000CAA0BBB0B24
:1010D0008FA798ABA9ABBAAB8C8D3EA5831B8215AD
:1010E00008F0B8CFAC8DBD8D7D90BD8FAC8F3091A9
:1010F000EA022091EB02832F922F870D911D870D1D
:10110000911DFC01EB54FF4F008111816FA578A95F
:1011100089A99AA90E94BE2A4B015C01680117FFA8
:1011200004C0CC24DD24C01AD10AEAA4FBA4EC1824
:10113000FD08F7FE03C0F194E194F1082DEC3CECBE
:101140004CE45EE3C501B4010E941D2B0E94192DE1
:101150006E157F050CF0BBC2EA8CFB8CEC18FD0809
:10116000F7FE03C0F194E194F1082DEC3CEC4CEC5B
:101170005EE3C501B4010E941D2B0E94192D6E155E
:101180007F050CF0A1C6A8CF8D2D0E94F519E09027
:10119000EA02F090EB02F701E056FF4F7082B501D2
:1011A00061507109C70145960E94EC14F701E6569B
:1011B000FF4F808190E02091EE02022E000C330B55
:1011C0008217930709F487C62091EF02022E000CC4
:1011D000330B8217930709F47EC6E091EA02F0917F
:1011E000EB02E056FF4F80818F3F09F400830091AE
:1011F000F302C092F402A090EA02B090EB02F50173
:10120000E156FF4F8081081708F0F5C0E02EF12C61
:10121000B701C50145960E94EC14F501E656FF4F53
:10122000808190E02091EC02022E000C330B82179B
:10123000930709F49DC62091ED02022E000C330B9A
:101240008217930709F494C6A090EA02B090EB02CB
:10125000F501E156FF4F208130E021503109E216BF
:10126000F3060CF0C8C0DD2009F4BCC02091EF02E9
:10127000022E000C330B8217930709F4B4C6102F0B
:10128000DD24D3948091EA029091EB02FC01E156B7
:10129000FF4F2081021710F411E0100F4091E4027B
:1012A00050E02091F202022E000C330BFC01421799
:1012B00053070CF0A8C0E653FF4F2081222309F406
:1012C0009CC01092B1021092E3021092E40260926C
:1012D000E5022091EA023091EB02412F50E0F90142
:1012E000E156FF4F808190E04E97481759070CF068
:1012F00013C3F901E753FF4FC082A12EB12CE09038
:10130000EA02F090EB02F701E156FF4F808190E096
:101310000197A816B9060CF053C0B501C701459650
:101320000E94EC14F701E656FF4F8080912C8091CB
:10133000ED02082E000C990B88169906A1F18091F8
:10134000EC02082E000C990B8816990651F5E090D6
:10135000EA02F090EB02B50161507109C7014596B0
:101360000E94EC14F701E656FF4F8081E80EF11C55
:10137000E80EF11CF701EB54FF4F2091EA02309187
:10138000EB028091ED02880F990B820F931FDC0115
:10139000AB54BF4F808191812D913C912817390723
:1013A00014F41F5FAACF8091ED02082E000C990B58
:1013B000DD24D3948816990609F0D12C1093F302FA
:1013C000012F2091EA023091EB02F901E156FF4F23
:1013D000808190E00197A816B9060CF4D5CEBA9694
:1013E00010829AC22091EE02022E000C330B82175B
:1013F000930709F4C3C5102F45CF193208F461CF04
:10140000BA97108389C2EF55FF4F108382E00E9484
:10141000EA1886E292E00E949E188BE30E94EA1886
:1014200089E292E00E949E18E091EC02EE0FFF0B21
:10143000EF5AFB4F6AE070E0808191810E94F518BD
:101440008BE30E94EA188DE292E00E949E18E091E0
:10145000ED02EE0FFF0BEF5AFB4F6AE070E0808168
:1014600091810E94F5188BE30E94EA1881E392E0D3
:101470000E949E18E091EE02EE0FFF0BEF5AFB4F19
:101480006AE070E0808191810E94F5188BE30E94F0
:10149000EA1885E392E00E949E18E091EF02EE0FB9
:1014A000FF0BEF5AFB4F6AE070E0808191810E9450
:1014B000F5188BE30E94EA1882E192E00E949E18E0
:1014C00080E390E3A0E089839A83AB83D12CDE0193
:1014D00011967D0119E3A12E12E0B12E0D2D10E021
:1014E0008091E30290E02091E80208171907DCF4EC
:1014F000D21628F4F801EF54FD4F808101C080E03E
:101500001F928F93BF92AF92FF92EF920E94FB2E99
:10151000C7010E949E18D3940F900F900F900F90C8
:101520000F900F90DBCFD21628F4F801EF54FD4F47
:10153000B081BCA78CA582958F701F928F938EE38C
:1015400092E09F938F93FF92EF920E94FB2EC70130
:101550000E949E188091E402877081500F900F9036
:101560000F900F900F900F908430F0F08091E80270
:10157000D81628F4F801EF54FD4F20812DA78DA532
:101580008F701F928F938EE392E09F938F93FF92C1
:10159000EF920E94FB2EC7010E949E180F900F90A1
:1015A0000F900F900F900F908BE30E94EA1883E446
:1015B00092E00E949E186AE070E08091F0029091A3
:1015C000F1020E94F5188BE30E94EA188AE292E089
:1015D0000E949E186AE070E08091E4020E94A018C8
:1015E0008BE30E94EA188DE192E00E949E186AE067
:1015F00070E0809168040E94A0188BE30E94EA18B2
:101600008091A103882349F180916504811107C06D
:1016100086E492E00E949E188BE30E94EA18809173
:10162000F3028823D1F089E092E00E949E186AE0DC
:1016300070E08091F3020E94A0188BE30E94EA18E8
:1016400088E492E00E949E186AE070E080913C0479
:101650000E94A0188BE30E94EA188091400488231E
:1016600039F080E292E00E949E188BE30E94EA1813
:101670001092640481E080933E048093A8038091DB
:101680003D043F89311108C020913B0430E0281B04
:101690003109283231059CF081500E94481910927E
:1016A0003C0481E0809366048091A103882339F093
:1016B0008AE492E00E949E188BE30E94EA1883E07D
:1016C0000E94EA1883E892E00E949E1830C110162A
:1016D00011060CF0BEC47092EF02BAA1BF5FBAA3AC
:1016E000E88DF98DE00FF11FF98FE88F8091EC0202
:1016F0008F3F09F4F1CC8091EE028F3F09F4ECCCDE
:101700008091ED028F3F09F4E7CC8091EF028F3F8B
:1017100009F4E2CC8FEF8D878E878F87888B89873E
:101720008A878B878C8741E050E05DA34CA300E063
:1017300010E0BB24BA94E090EA02F090EB02F701CB
:10174000E156FF4F808190E0081719070CF0C4CCD8
:10175000B801C70145960E94EC14F701E656FF4F09
:10176000D0808D2D90E02091EC02022E000C330BE6
:10177000E090EA02F090EB028217930709F430C37D
:101780002091ED02022E000C330B8217930709F40F
:1017900027C32091EE02022E000C330B8217930711
:1017A00009F41EC32091EF02022E000C330B8217A6
:1017B000930709F415C3F701E056FF4F60819801C4
:1017C000261B31098091F202082E000C990B82171A
:1017D00093070CF031C331960083402FC7010E945C
:1017E0002C158091EA029091EB028090EF0290908C
:1017F000ED02A090EE023090EC02FC01E80DF11D2C
:1018000087FCFA952585FC01E90DF11D97FCFA95F9
:10181000C584D12CC20ED11CFC01EA0DF11DA7FC20
:10182000FA952585C21AD108FC01E30DF11D37FC9C
:10183000FA9525851092F402C21AD108D7FE03C08A
:10184000D194C194D1080D2C000CEE08FF08FC01C6
:10185000E156FF4F8081682F70E078A76FA3072EB5
:10186000000C880B990B0E94BE2A2AE037ED43E258
:101870005DE30E941D2B2B013C0120E030E0A9011B
:101880000E944F2D20E030E040E05FE387FDB2C2D0
:10189000C301B2010E943B2C0E94192D6C157D05DD
:1018A0008E059F050CF418CC78A18AA1781314CC6E
:1018B000391409F411CCA81409F40ECC3A1409F423
:1018C0000BCC981409F408CC381409F405CC9A14FC
:1018D00009F402CCDE011996FE013D9691918D919D
:1018E000981709F48CC28F3F09F48BC281E09F3FA7
:1018F00009F085C29BA99E1386C2811187C2888D7B
:10190000998D66E070E00E94792D7093F1026093EA
:10191000F002AEA1A111F0CA80916404882339F0CD
:1019200080913F04882319F081E080933E048091E8
:101930009D03882309F423C28091430490914404B9
:101940000197029708F01BC280913E04811117C2D3
:1019500080913B04883208F412C28091A6039091D2
:10196000A703892B09F49EC080913C04882341F091
:1019700040E060E08CE993E00E942C1510923C045A
:1019800010916104115017FD8DC0C12E012E000C65
:10199000DD08F601EE0FFF1FEF5AFB4F80819181AA
:1019A00097FF03C09195819591092091A6033091ED
:1019B000A7038217930730F3F601E456FC4F8585A1
:1019C000882301F38130A9F4E12CF12CB70181EBDC
:1019D00093E00E94EC148091360490E08C159D05F4
:1019E00089F24FEFE41AF40A5AE0E516F10471F7B0
:1019F00002C0883038F688E280933D0480913B0431
:101A0000883208F44FC018E2E12EF12C80913B049B
:101A100090E00197E816F9060CF044C0B70181EB9D
:101A200093E00E94EC14E0913604F0E0EE0FFF1F0B
:101A3000EF5AFB4F80819181B7011816190674F493
:101A400081EB93E00E94EC14E0913604F0E0EE0F9D
:101A5000FF1FEF5AFB4F8081918110C081EB93E013
:101A60000E94EC14E0913604F0E0EE0FFF1FEF5AF5
:101A7000FB4F808191819195819591092091A603D9
:101A80003091A7038217930758F010933D04412F1C
:101A900060E08CE993E00E942C15FF24F39411C0C0
:101AA0001F5FB2CF80913B0480933D0480913C0442
:101AB000882331F040E060E08CE993E00E942C152F
:101AC000F12C8091A003882309F484C082E00E9455
:101AD000EA188CE492E00E949E188BE30E94EA18B8
:101AE00020E0809161042817C8F5822F90E0FC0166
:101AF000EE0FFF1FEF5AFB4F0081118101151105F9
:101B000059F1FC01E456FC4F8585882329F1622FA9
:101B100017FF05C0606A11950195110901C0606841
:101B2000E02E07FD04C0702F7068E72E01C06061D1
:101B300085EF92E02CAB0E9416116E2D85EF92E09E
:101B40000E941611612F606885EF92E00E941611C5
:101B50008BE30E94EA182CA92F5FC3CF80913D042C
:101B600080FF06C08BE092E00E949E1810E014C037
:101B700080E892E0F9CFE12FE69580913504E817EF
:101B800028F4F0E0E456FC4F858989A769A585EF24
:101B900092E00E9416111E5F80913D04181758F3C1
:101BA0008BE30E94EA1887E292E00E949E188091DF
:101BB0009C0360E170E0082E000C990B0E94F51860
:101BC0008BE30E94EA188DE092E00E949E1860E18B
:101BD00070E06BC082E00E94EA188FE492E00E94FD
:101BE0009E188BE30E94EA1810E080916104181798
:101BF00060F5812F90E09C01220F331FD901AF5A6D
:101C0000BB4F6D012D913C91232BE9F0FC01E45673
:101C1000FC4F85858823B9F08DED91E00E949E18D8
:101C20006AE070E0812F0E94A01884E492E00E9494
:101C30009E186AE070E0F601808191810E94F5189B
:101C40008BE30E94EA181F5FD0CF82E192E00E94EE
:101C50009E1810E080913D04181770F4612F70E019
:101C600081EB93E00E94EC146AE070E0809136040E
:101C70000E94A0181F5FEECF8BE30E94EA1885E157
:101C800092E00E949E1880919C036AE070E0082E0A
:101C9000000C990B0E94F5188BE30E94EA188DE165
:101CA00092E00E949E186AE070E0809168040E94B1
:101CB000A0188BE30E94EA1810923F0481E0809301
:101CC000A80380933E0480914004882339F080E289
:101CD00092E00E949E188BE30E94EA188091A10373
:101CE000882309F4EBC1FF89F11103C086E692E075
:101CF00005C02F89223039F482E292E00E949E18BA
:101D00008BE30E94EA1880916504811107C086E484
:101D100092E00E949E188BE30E94EA18FF2041F196
:101D20008091A103882369F08AE492E00E949E18C2
:101D30006AE070E08091A5030E94A0188BE30E94E6
:101D4000EA188091A5038F5F8093A5033F89311125
:101D500009C080913B0490E020913D04821B9109D1
:101D6000889734F080913D040E94481910923C04F9
:101D700083E00E94EA1883E892E00E949E18809116
:101D80003E04811102C010923F0480913B048E3FBB
:101D900060F08091430490914404892B31F48AECE3
:101DA00092E00E943C1910923F0480913F048111FF
:101DB0008DC18CE993E00E948E1588C167010C9457
:101DC0008C0480913D0480933C040C94190580910F
:101DD0003D04815080933D04FF24F3940C943C0512
:101DE000F701E156FF4F808190E00197081719072E
:101DF00031F5E1CCC301B2010E943A2C4DCD80E017
:101E000079CD81E077CD882309F468CD8FA198A59D
:101E1000801B910B2091F202022E000C330B28172D
:101E200039070CF059C9BD86B986BE86BA86BF8609
:101E3000BB86B88ABC863FC01092F4020BC080916A
:101E4000F402811107C0F701E056FF4F0083B1E0B3
:101E5000B093F4026CA17DA1C70145960E94EC14D9
:101E6000F701E656FF4F8081EAE0DE9E800D1124E7
:101E70008A3008F48C5900FD03C02D899E8902C068
:101E80002B899C89E22FF92F90E0482F50E0608148
:101E9000262F062E000C330B2417350719F06F3F41
:101EA00019F48083292F01C02FEF9F5F943019F020
:101EB00031962F3F61F30F5F1F4F2CA13DA12F5F84
:101EC0003F4F3DA32CA337CC101611060CF0CDC00C
:101ED0007092ED0202CC0FEF010F023008F47DC9C1
:101EE000E02EF12CA090EA02B090EB02B701625014
:101EF0007109C50145960E94EC14F501E656FF4FA5
:101F0000808190E02091EE02022E000C330BB7018D
:101F1000615071097B018217930749F02091EF020C
:101F2000022E000C330B8217930709F0A6C0A09075
:101F3000EA02B090EB02B701C50145960E94EC148D
:101F4000F501E656FF4F808190E02091EE02022ECF
:101F5000000C330B8217930709F48AC02091EF021B
:101F6000022E000C330B8217930709F086C080C045
:101F7000DC240F5F8D2D0E94F5193DC97FEFE71A14
:101F8000F70AB701C50145960E94EC14F501E65623
:101F9000FF4F208130E08091EF02082E000C990B5A
:101FA0002817390709F453C0A090EA02B090EB0259
:101FB000B701C50145960E94EC14F501E656FF4FA6
:101FC000208130E08091ED02082E000C990B28173B
:101FD000390709F010CAE091EA02F091EB02E753E9
:101FE000FF4F108208CA8FEFE81AF80AB701C5013F
:101FF00045960E94EC14F501E656FF4F208130E033
:102000008091EE02082E000C990B28173907F9F081
:10201000A090EA02B090EB02B701C50145960E947C
:10202000EC14F501E656FF4F208130E08091EC0280
:10203000082E000C990B2817390709F020C9E091E8
:10204000EA02F091EB02E753FF4F108218C90F5FCD
:1020500090CF7092EE02F8A1FF5FF8A3288D398D22
:10206000201B310B398F288F41CB7092EC02F3CFBC
:1020700002508D2D0E94F51930CFA090EA02B09049
:10208000EB02B701C50145960E94EC14F501E65636
:10209000FF4F208130E08091EF02082E000C990B59
:1020A0002817390709F099C8E091EA02F091EB028C
:1020B000E056FF4F0250008300E0DBCFF11041CE2D
:1020C00057CE81110C9417070C942F07E4960FB686
:1020D000F894DEBF0FBECDBFDF91CF911F910F915E
:1020E000FF90EF90DF90CF90BF90AF909F908F9038
:1020F0007F906F905F904F903F902F900895CF9278
:10210000DF92EF92FF920F931F93CF93DF936C01B7
:102110007A018B01C0E0D0E0CE15DF0589F0D8014F
:102120006D918D01D601ED91FC910190F081E02D32
:10213000C6010995892B11F47E0102C02196ECCFCE
:10214000C701DF91CF911F910F91FF90EF90DF902A
:10215000CF900895089580E090E00895FC01538D9C
:10216000448D252F30E0842F90E0821B930B541771
:1021700010F0CF96089501970895FC01918D828DFE
:10218000981761F0828DDF01A80FB11D5D968C91CB
:10219000928D9F5F9F73928F90E008958FEF9FEFD6
:1021A0000895FC01918D828D981731F0828DE80F92
:1021B000F11D858D90E008958FEF9FEF0895FC014C
:1021C000918D228D892F90E0805C9F4F821B910919
:1021D0008F739927089585EF92E00E94DF1021E028
:1021E000892B09F420E0822F0895FC01848DDF0102
:1021F000A80FB11DA35ABF4F2C91848D90E001967A
:102200008F739927848FA689B7892C93A089B18968
:102210008C9180648C93938D848D981306C0028872
:10222000F389E02D80818F7D80830895EF92FF9266
:102230000F931F93CF93DF93EC0181E0888F9B8DE9
:102240008C8D981305C0E889F989808185FD24C0AB
:10225000F62E0B8D10E00F5F1F4F0F731127E02E2E
:102260008C8DE8120CC00FB607FCFACFE889F9890B
:10227000808185FFF5CFCE010E94F510F1CF8B8DC7
:10228000FE01E80FF11DE35AFF4FF0820B8FEA8940
:10229000FB898081806207C0EE89FF896083E889BD
:1022A000F98980818064808381E090E0DF91CF9123
:1022B0001F910F91FF90EF900895CF93DF93EC0162
:1022C000888D8823C9F0EA89FB89808185FD05C056
:1022D000A889B9898C9186FD0FC00FB607FCF5CF90
:1022E000808185FFF2CFA889B9898C9185FFEDCFD8
:1022F000CE010E94F510E7CFDF91CF9108950895A8
:102300000895FC01099480E008950E94A52EFC0127
:1023100080819181009711F00C947B2A60E070E03D
:10232000CB0108950F931F93CF93DF93EC01888126
:102330009981009729F02A813B812617370788F475
:102340008B016F5F7F4F0E94DB2D009761F09983B7
:1023500088831B830A832C813D81232B11F4FC018C
:10236000108281E001C080E0DF91CF911F910F9139
:102370000895EF92FF920F931F93CF93DF93EC0199
:102380007B018A01BA010E94921128813981811151
:102390000DC02115310519F0C9010E94E3291982E8
:1023A00018821D821C821B821A8206C01D830C8328
:1023B000B701C9010E94DA2ECE01DF91CF911F91A2
:1023C0000F91FF90EF900895CF93DF93EC0161158B
:1023D000710559F0FB0101900020E9F73197AF0139
:1023E000461B570B0E94B9110CC088819981009738
:1023F00011F00E94E329198218821D821C821B821F
:102400001A82CE01DF91CF910895FF920F931F930F
:10241000CF93DF9300D0CDB7DEB7FF24F39485EFE1
:1024200092E00E94DF10892B09F446C085EF92E00C
:102430000E94BD108A3041F01CF4882329F007C0A7
:102440008D3011F0833219F4F092980222C0898302
:102450001A8200919A0310919B030F5F1F4FB801DE
:1024600086E993E00E949211882399F020919603C7
:102470003091970380919A0390919B03BE016F5F07
:102480007F4F820F931F0E94DA2E10939B030093BD
:102490009A0380919A0390919B038F35914008F4A1
:1024A000BECF64E872E086E993E00E94E4118CE418
:1024B00093E00E943C19B3CF0F900F90DF91CF9122
:1024C0001F910F91FF9008950E94EB1081110C94C1
:1024D00005120895FC01808191810C94E329FC018F
:1024E0001182108213821282158214826115710585
:1024F00051F0FB0101900020E9F73197AF01461B35
:10250000570B0C94B91108951F920F920FB60F92AA
:1025100011242F933F934F935F936F937F938F93E8
:102520009F93AF93BF93EF93FF9385EF92E00E9449
:10253000F510FF91EF91BF91AF919F918F917F9196
:102540006F915F914F913F912F910F900FBE0F9020
:102550001F9018951F920F920FB60F9211242F9370
:102560008F939F93EF93FF93E0910503F091060300
:102570008081E0910B03F0910C0382FD12C09081E9
:1025800080910E038F5F8F7320910F03821751F09C
:10259000E0910E03F0E0EB50FD4F958F80930E031A
:1025A00001C08081FF91EF919F918F912F910F90AA
:1025B0000FBE0F901F9018953FB7F8948091AD0211
:1025C0009091AE02A091AF02B091B00226B5A89B47
:1025D00005C02F3F19F00196A11DB11D3FBFBA2FB5
:1025E000A92F982F8827820F911DA11DB11DBC0115
:1025F000CD0142E0660F771F881F991F4A95D1F7DA
:1026000008958F929F92AF92BF92CF92DF92EF92F6
:10261000FF926B017C010E94DC124B015C01C11432
:10262000D104E104F104F1F00E94DC12DC01CB01E1
:1026300088199909AA09BB09883E9340A105B105EB
:1026400070F321E0C21AD108E108F10888EE880E83
:1026500083E0981EA11CB11CC114D104E104F10453
:1026600019F7DDCFFF90EF90DF90CF90BF90AF9044
:102670009F908F900895CF92DF92EF92FF920F93E9
:102680001F93F8940E94DC1200919203109193031F
:1026900020919403309195036B017C01C01AD10AFB
:1026A000E20AF30A97018601609392037093930301
:1026B00080939403909395030A3511052105310504
:1026C00078F181E0C8168DE7D806E104F10410F432
:1026D000960102C021E03DE74A9B03C03195219558
:1026E0003109809170048436D8F4809170048F5F32
:1026F000809370048091710460916F040E94592D41
:1027000090937104E0917104F0E0EE0FFF1FED581B
:10271000FB4F31832083809171048F5F809371041C
:1027200078941F910F91FF90EF90DF90CF900895D4
:102730000F931F930E94DC12009192031091930358
:102740002091940330919503DC01CB01801B910B08
:10275000A20BB30B82309D47A105B10580F14A99C8
:1027600003C02FEF32E802C021E03DE78091700402
:102770008436D8F4809170048F5F809370048091C8
:10278000710460916F040E94592D90937104E0913F
:102790007104F0E0EE0FFF1FED58FB4F31832083F3
:1027A000809171048F5F809371040E94DC126093AA
:1027B00092037093930380939403909395032091D5
:1027C0009702E1E4F3E09491EDE2F3E08491E9E132
:1027D000F3E0E491EE2309F43BC0992339F19330FF
:1027E00091F038F49130A9F0923001F594B59F7DC5
:1027F00012C0973091F09830A1F09430B9F49091D4
:1028000080009F7D03C0909180009F77909380000F
:102810000DC094B59F7794BD09C09091B0009F778B
:1028200003C09091B0009F7D9093B000F0E0EE0F58
:10283000FF1FEA5FFC4FA591B4919FB7F894EC910C
:10284000211103C080958E2301C08E2B8C939FBFD6
:10285000109297021F910F9108951F920F920FB639
:102860000F9211242F933F938F939F93AF93BF9316
:102870008091920290919302A0919402B09195025E
:102880003091AC0223E0230F2D3720F40196A11DD7
:10289000B11D05C026E8230F0296A11DB11D20938E
:1028A000AC028093920290939302A0939402B0930F
:1028B00095028091AD029091AE02A091AF02B091CD
:1028C000B0020196A11DB11D8093AD029093AE029E
:1028D000A093AF02B093B002BF91AF919F918F913F
:1028E0003F912F910F900FBE0F901F9018951F9240
:1028F0000F920FB60F9211242F933F934F935F9334
:102900006F937F938F939F93AF93BF93EF93FF93B7
:10291000E0910C01F0910D010995FF91EF91BF91AC
:10292000AF919F918F917F916F915F914F913F9167
:102930002F910F900FBE0F901F9018951F920F921E
:102940000FB60F9211242F933F934F935F936F9382
:102950007F938F939F93AF93BF93EF93FF93E091F8
:102960000A01F0910B010995FF91EF91BF91AF9191
:102970009F918F917F916F915F914F913F912F9197
:102980000F900FBE0F901F9018951F920F920FB6C9
:102990000F9211242F933F934F935F936F937F93E5
:1029A0008F939F93AF93BF93EF93FF93E091900228
:1029B000F09191020995FF91EF91BF91AF919F9195
:1029C0008F917F916F915F914F913F912F910F90D8
:1029D0000FBE0F901F901895CF93DF93FC01EE5719
:1029E000FF4F4081469FF001479FF00D11249F014A
:1029F00053E0369527955A95E1F7DC01AC57BF4F68
:102A00005C91251720F5DC01A20FB11DEC01CD571B
:102A1000DF4F288130E0E770FF2702C0359527950A
:102A2000EA95E2F73C91232330E058E0541B469F9F
:102A3000402D11244770541B02C0359527955A9597
:102A4000E2F7322FFC01EB57FF4F208301C03FEF2D
:102A5000832FDF91CF910895FC01E156FF4F208134
:102A6000222309F45AC0E259F109DC01559611926A
:102A7000EA17FB07E1F7411102C04FEF420F262F83
:102A80002695542F569560FF13C0FC01E756FF4F63
:102A90006081261720F4FC01E20FF11D3589632FB8
:102AA0006F70FC01E60FF11D65856F5F65872F5F15
:102AB000DC01A756BF4F5217E8F06C91261720F49F
:102AC000FC01E20FF11D3589E32FF0E064E0F5959C
:102AD000E7956A95E1F7E80FF91F65856F5F6587F0
:102AE000632F6F70FC01E60FF11D65856F5F6587D1
:102AF0002F5FE1CF40FD11C0FC01E756FF4F208161
:102B0000521720F4FC01E50FF11D35893F70FC01DF
:102B1000E30FF11D8585815085870895CF93DF935D
:102B2000FC01E156FF4F1082DC01AB53BF4F1C92FA
:102B3000B7961082FC01158AEC56FF4F1082319631
:102B40001082319627E02083719611821082B09610
:102B50002FEF2083FC012083EB54FF4FEC012D96D7
:102B6000119211921992EA17FB07D1F7FC01EE5569
:102B7000FF4F1082339626E930E0318320833C9664
:102B800040E050E060E87EE34083518362837383DA
:102B9000719710823396108231961082B49610820B
:102BA000319621E0208331961082B9971082DF910F
:102BB000CF9108950C94E62B0C94DE2BCF938FEFDE
:102BC00090E00E94DC15982F917090939F0381FBF9
:102BD000992790F990939D0382FB992790F9909300
:102BE0009E0383FB992790F99093A00384FB992778
:102BF00090F99093A10385FB992790F99093030195
:102C000086FB882780F98093A20380EF90E00E94E2
:102C1000DC158093040182EF90E00E94DC15809324
:102C2000A30383EF90E00E94DC15C82F84EF90E0AF
:102C30000E94DC152C2FCC0F330B322F2227280FAC
:102C4000311D3093A7032093A60381EF90E00E94EB
:102C5000DC15811101C081E180936704CF91089553
:102C60006FEB8FEF90E00E94DA1560E580EF90E067
:102C70000E94DA1560E081EF90E00E94DA1564E0CE
:102C800082EF90E00E94DA156FE183EF90E00E94FE
:102C9000DA1560E484EF90E00E94DA150E94DE15F8
:102CA00089E593E00C943C19CF93C82F803120F430
:102CB00082E592E00E949E1860E170E08C2FCF9137
:102CC0000C94A018CF93DF93C2E0D0E0FE01E55250
:102CD000FD4F6491CE010E94DA152196CB32D105C9
:102CE000A9F7C0E3D0E0C13321F464E881E390E0C8
:102CF00002C060E0CE010E94DA152196C833D105EA
:102D000091F784E592E0DF91CF910C94FE178EBD90
:102D10000DB407FEFDCF8EB50895CF93DF932A98AB
:102D20001C9B0EC061E070E080E090E00E94011307
:102D300080910901882399F0815080930901F0CF97
:102D40008EE70E948716C0E3D0E0CE010E94DC151A
:102D50000E9487162196C833D105B9F72A9ADF91C8
:102D6000CF910895CF93DF93D82FC62F2A981C9B1D
:102D70000EC061E070E080E090E00E94011390914D
:102D80000801992359F0915090930801F0CF8D2FAD
:102D90000E9487168C2F0E9487162A9ADF91CF9166
:102DA0000895CF93DF93D82FC62F2A981C9B0EC06F
:102DB00061E070E080E090E00E94011390910701D3
:102DC000992369F0915090930701F0CF8D2F8C2BB0
:102DD0000E94871680E00E9487162A9A01C08FEF12
:102DE000DF91CF91089560EC84E30C94D116CF93DA
:102DF000C82F2A981C9B10C061E070E080E090E032
:102E00000E94011390910601911102C08FEF1AC028
:102E1000915090930601EECF8C2F0E948716C82FF9
:102E20001C9B0EC061E070E080E090E00E94011306
:102E300080910501882351F3815080930501F0CFE3
:102E40002A9A8C2FCF91089586E30E94F71661E0AD
:102E500070E080E090E00C940113E8988FE791E136
:102E600090930B0180930A018091960281110E9438
:102E70002417109270041092720410927104089535
:102E8000CF93DF930E942417CEEFCF3FC1F084E3AE
:102E90000E94F716DFEFDC0F8077803141F061E0B0
:102EA00070E080E090E00E940113CD2FEECFC111C1
:102EB00006C088E692E0DF91CF910C94FE17DF9177
:102EC000CF9108958BE393E190930B0180930A01D6
:102ED000809169008C7F816080936900E89A80917D
:102EE000960281110C9440170895CF93DF932A9A8C
:102EF00083E790E0FC013197F1F72A980197F1F709
:102F00002A9A8FEA90E00197F1F780E30E94F71682
:102F10006AE070E080E090E00E9401132A9880E46B
:102F20000E948716C2E0D0E0CE010E94DC150E940C
:102F300087162196CB32D105B9F72A9A83E290E021
:102F40000197F1F70E948D1661E070E080E090E05B
:102F50000E940113DF91CF910C944017CF93C82F9B
:102F6000803120F482E592E00E949E1860E170E0DA
:102F70008C2FCF910C94A01890ED980F9A3070F090
:102F80009FE9980F963010F499EA05C09FEB980FCF
:102F9000963018F499EC980F01C0982F892F089556
:102FA0001F93CF93DF93C82FD0E0CE010E94B418B7
:102FB0000E94BC17182F1295107FCE0101960E9417
:102FC000B4180E94BC17810FDF91CF911F91089513
:102FD000009769F0FC0101900020E9F73197AF01FB
:102FE000481B590BBC0185EF92E00C947F1080E0E8
:102FF00090E0089582E892E00C94E817CF93DF9375
:103000000E94E817EC010E94FA178C0F9D1FDF91B8
:10301000CF9108958F929F92AF92BF920F931F937B
:10302000CF93DF93CDB7DEB7A1970FB6F894DEBF8D
:103030000FBECDBF19A2423008F44AE08E010F5DE9
:103040001F4F842E912CA12CB12CA50194010E941C
:103050008D2DE62FB901CA0101501109EA3014F48F
:10306000E05D01C0E95CD801EC93232B242B252BD8
:1030700061F7C8010E94E817A1960FB6F894DEBF69
:103080000FBECDBFDF91CF911F910F91BF90AF9039
:103090009F908F900895DF92EF92FF920F931F936E
:1030A000CF93DF937C018B01EA014617570720F489
:1030B000812F8A01C62FD82F64E872E0C7010E94D1
:1030C0006F1280919A0390919B0308171907E0F4FF
:1030D0008C179D0708F4EC01E0919603F09197039B
:1030E000EC0FFD1FD08010826091960370919703C2
:1030F000600F711FC7010E94E411E0919603F091E7
:103100009703EC0FFD1FD082C701DF91CF911F9174
:103110000F91FF90EF90DF900895CF93DF93682F8A
:1031200070E080E090E04AE00E940A18EC010E9402
:10313000FA178C0F9D1FDF91CF9108950C94E8171B
:10314000AB01672B59F4E091F502F091F602019082
:10315000F081E02D682F85EF92E00994682F70E0F0
:1031600080E090E00C940A1820919A0330919B0320
:103170008217930760F420919603309197032115ED
:10318000310529F0F901E80FF91F8081089580E0E9
:1031900008950F931F93CF93DF938C01C0E0D0E08D
:1031A000F801EC0FFD1F6491662371F0E091F502C8
:1031B000F091F6020190F081E02D85EF92E0099503
:1031C000892B11F02196ECCFCE01DF91CF911F9189
:1031D0000F910895E091F502F091F6020190F081CF
:1031E000E02D682F85EF92E00994CF92DF92EF9265
:1031F000FF92CF93DF936115710589F4E091F50299
:10320000F091F6020190F081E02D682F85EF92E0B9
:10321000DF91CF91FF90EF90DF90CF9009946C01F8
:10322000990FEE08FF086A307105D9F4F7FE17C050
:103230008DE20E94EA18EC0166277727CB016C1912
:103240007D098E099F094AE00E940A188C0F9D1F74
:10325000DF91CF91FF90EF90DF90CF9008954AE0FB
:1032600001C0462FC701B601DF91CF91FF90EF90CB
:10327000DF90CF900C940A18CF93DF930E94C91867
:10328000EC010E94FA178C0F9D1FDF91CF910895DA
:103290000F931F93CF9310923F04882309F4A1C08A
:1032A00090913B04992309F49CC0C82F492F50E00A
:1032B000282F30E024173507A4F0981758F489E731
:1032C00093E00E94C91881E793E00E94C9188C2FEF
:1032D0000E948D188CE993E0CF911F910F910C946F
:1032E0008E1580913104482F50E04217530708F49F
:1032F0006EC0B90176956795B62F2417350739F456
:103300001092B10310923004109231043BC04091EE
:103310003004C0FF3DC001EB13E0A62FAB1B6417C8
:1033200098F4E62FF0E0E456FC4F2689522F529590
:103330005F70958970E1979F90011124252BF8010A
:1033400021938F016F5FE9CF80FD0CC0B0E0A456E0
:10335000BC4FE62FF0E0E456FC4F95899295907FA4
:1033600055969C938C1B80933104482F50E09A0112
:103370002150310937FD9A01359527952093300466
:1033800080FD02C087E001C083E08093320411C059
:10339000461B4093300450E04F5F5F4F6F547C4FAB
:1033A00081EB93E00E94BF2E809131048C1B8093AF
:1033B000310481E080933F048091310480933B0489
:1033C00081110FC010924C0410924B040AC085E882
:1033D00092E00E949E188C2FCF911F910F910C9418
:1033E0008D18CF911F910F9108959091E502409112
:1033F000E4029730A9F4442399F0E091E3026E2FA0
:1034000070E02091E80230E0215031096217730723
:10341000A4F5EF5FE093E302F0E0EF54FD4F10827C
:103420005091E602652F70E0292F30E02F5F3F4F6B
:10343000261B370B1216130624F401C0880F2A9599
:10344000EAF7E091E302F0E0EF54FD4F2081822B98
:1034500080834F5F4093E402292F092E000C330B29
:10346000261B370B37FD04C0951B9093E50203C064
:1034700087E08093E50281E0089580E00895CF938E
:10348000DF93CDB7DEB7CA59D1090FB6F894DEBFC6
:103490000FBECDBF789484B5826084BD84B5816051
:1034A00084BD85B5826085BD85B5816085BD80910F
:1034B0006E00816080936E00109281008091810087
:1034C000826080938100809181008160809381007F
:1034D000809180008160809380008091B100846041
:1034E0008093B1008091B00081608093B0008091A2
:1034F0007A00846080937A0080917A008260809361
:103500007A0080917A00816080937A0080917A00BD
:10351000806880937A001092C100E0910503F091D9
:10352000060382E08083E0910503F0910603108298
:10353000E0910103F09102031082E0910303F09106
:10354000040380E1808310920D03E0910903F09160
:103550000A0386E08083E0910703F09108038081ED
:1035600080618083E0910703F09108038081886087
:103570008083E0910703F091080380818068808355
:10358000E0910703F091080380818F7D80838CE1B7
:1035900091E00E943C195298219A259A239A2498E6
:1035A000229A80E58CBD53982A9A2D9A2B9880E018
:1035B00090E00E94DC15833339F481E090E00E94B2
:1035C000DC158D3209F47DC60E94301680E090E053
:1035D0000E94DC15833311F00E94621663E380E0E1
:1035E00090E00E94DA156DE281E090E00E94DA1529
:1035F0000E94DE1584E191E00E94C9180E947517AF
:1036000060E881EF0E94D116182F8FEF810F8E3F57
:1036100038F083E091E00E94C9181092960207C02A
:103620008FEF90E00E94C91881E08093960287EFA7
:1036300090E00E94C9186AE070E0812F0E94A018F3
:103640008BEE90E00E94C91860E880EF0E94D116CE
:103650000E948D18809196021E821D82882399F007
:1036600081E891E19C838B838B819C81AD81BE81BC
:1036700080936B0490936C04A0936D04B0936E04DC
:1036800083EF96E112C081E891E19C838B838B816B
:103690009C81AD81BE8180936B0490936C04A09358
:1036A0006D04B0936E0483E891E190936A04809373
:1036B0006904539A8091A103882321F089ED90E059
:1036C0000E943C1962E370E080E090E00E940113E8
:1036D00080E1809381001092800082E080939B02C1
:1036E00088E199E790939A028093990290938700DA
:1036F0008093860082E18093810088E993E1909332
:1037000091028093900281E080936F006EE571E0FA
:1037100086E993E00E94921180919602811109C07E
:103720000E9462178091A103882399F088EC90E0B1
:103730000EC060E888E00E94D116823331F460E860
:1037400080E00E94D1168D3059F383E890E00E940A
:103750003C199E012F5F3F4F2901BE016B587F4FDF
:10376000EB967FAF6EAFEB978DE0861BCA56DF4FAF
:103770008883C659D04080909802882009F4A7C356
:103780001092980280E090E00E94B418803549F4CD
:1037900085E391E00E94FE178BEC97E00197F1F72B
:1037A00089C38F3309F06DC081E090E00E94B418A6
:1037B000833591F409E111E0D8018D919D918D013E
:1037C0000E949E1888EC91E00E949E18B1E00132A0
:1037D0001B0709F410C2F0CF8FE30E94EA1882E2BF
:1037E00092E00E94C91886E50E94EA1880E20E94D1
:1037F000EA1882E50E94EA1880E20E94EA1884E74B
:103800000E94EA1880E20E94EA1888E50E94EA18FD
:1038100080E20E94EA1886E40E94EA1880E20E9490
:10382000EA1883E50E94EA1880E20E94EA1880E51F
:103830000E94EA1880E20E94EA1883E40E94EA18D3
:1038400080E20E94EA1882E70E94EA1880E20E9461
:10385000EA1887E50E94EA1880E20E94EA1880913F
:103860009602882309F4C7C188E70E94EA1880E21B
:103870000E94EA1885E60E94EA1880E20E94EA188F
:10388000BAC1863589F488E391E00E949E18809140
:103890009602882321F08AE192E00E94C91882E50D
:1038A00091E00E94FE1706C3823521F580913B0509
:1038B00090913C05009711F48FE395E06201C81ADE
:1038C000D90A0D2C000CEE08FF08F7FE0BC08DE2A4
:1038D0000E94EA1866277727CB016C197D098E09AB
:1038E0009F09C2C14AE0C701B6010E940A180E949E
:1038F000FA17E0C2833509F081C10E942D17A12C6F
:10390000B12CDD24DA94712C912C21E0C757DF4FC4
:103910002883C958D040B6E1CB2E1BE0812E22244B
:10392000239465E771E0CE0181599F4F0E946F1289
:1039300080919A0390919B03A816B90698F4009180
:10394000960310919703E1966EAD7FADE197C801A4
:103950008A0D9B1D0E94E12E009721F07C01E01A48
:10396000F10A03C0EE24EA94FE2CCE0181599F4F48
:103970000E946A12EFEFEE16FE0611F40C94632615
:10398000FFEFAF16BF0611F40C946326C5010E9429
:10399000B418282F80930101C5010196C656DF4F48
:1039A0002883CA59D0400E94B418382F8093000150
:1039B000C656DF4F2881CA59D040233519F120352A
:1039C000D1F4C5010296C756DF4F3883C959D0409C
:1039D0000E94B418C656DF4F2881CA59D040C75636
:1039E000DF4F3881C959D0408D3309F0FEC08501C1
:1039F0000D5F1F4F09C08D3309F0F7C085010E5FC1
:103A00001F4F02C000E010E057016FEFA61AB60A80
:103A10002335B9F465E0D61609F4E7C0333409F468
:103A2000E1C03D3419F0323509F07BCFD394F20177
:103A3000CD9CE00DF11D112411821082258A912C5C
:103A400070CF223559F5992091F0A701B801CE0128
:103A500081599F4F0E944B18CE0181599F4F0E9460
:103A60008711C757DF4F6883C958D04072C07FEFB6
:103A7000D71609F456CFA701B801CE0181599F4F3F
:103A80000E944B18CE0181599F4F0E948711F2016D
:103A9000CD9CE00DF11D1124658B5BC08FEFD81616
:103AA00009F43FCF203591F5A80141505109B801E3
:103AB00062507109CE0181599F4F0E944B18CE016F
:103AC00081599F4F0E948711662ECE0181599F4FC9
:103AD0000E946A1298E0961508F487C0A701B80101
:103AE000CE0181599F4F0E944B18CE0181599F4FA3
:103AF0000E9487118D9CF0011124E60DF11DEE0F3F
:103B0000FF1FE40DF51D7683658323C0243461F423
:103B1000F201CD9CE00DF11D11240283A1E0EA1A0F
:103B2000F108F482E382FDCE2334C9F4A701B80181
:103B3000CE0181599F4F0E944B18CE0181599F4F52
:103B40000E948711F201CD9CE00DF11D11247183BB
:103B50006083CE0181599F4F0E946A12E2CE2634C3
:103B600009F0DFCEC501801B910B97FD019695955D
:103B70008795782E8150853008F0D3CE80919602BB
:103B8000882309F4CECEFE01EB58FF4F7F01CA56C1
:103B9000DF4F3880C659D0403E0C60E8832D0E942C
:103BA000D116D7018D937D01C8010E94B4180E94DF
:103BB000BC17682E629460EF6622C80101960E94CD
:103BC000B4180E94BC17662D680F832D0E94B21690
:103BD0000E5F1F4F8E2DEA96BFADEA978B1B8715A0
:103BE000B0F29FCE992493949CCE8AE391E00E94F8
:103BF000C9180E94621784E892E053CE8437B1F569
:103C00008FB7F894C0909202D0909302E090940203
:103C1000F09095028FBFC701B60128EE33E040E077
:103C200050E00E948D2DCA01B90100919E021091B1
:103C30009F022091A0023091A102C016D106E20697
:103C4000F30650F420919C0230919D022F5F3F4F6C
:103C500030939D0220939C02C0929E02D0929F02BC
:103C6000E092A002F092A1024AE03FCE883591F4A2
:103C700081E090E00E94B418813511F40E942D1764
:103C800081E090E00E94B418853409F013C10E94CD
:103C9000621710C1863409F40DC1833409F088C05D
:103CA00081E090E00E94B418182F873409F07AC0A0
:103CB00086EA91E00E94C91880919F036AE070E053
:103CC00090E00E94F51881EA91E00E94C918809165
:103CD0009D036AE070E090E00E94F5188CE991E0A5
:103CE0000E94C91880919E036AE070E090E00E94F3
:103CF000F51885E991E00E94C9188091A0036AE057
:103D000070E090E00E94F51880910301811104C0D9
:103D10008EE891E00E94C9188091A203882321F0C7
:103D200085E891E00E94C9188CE791E00E94C918CB
:103D30008091A1036AE070E090E00E94F51884E7AA
:103D400091E00E94C9186AE070E08091A3030E948C
:103D5000A01884E691E00E94C9186091A6037091B2
:103D6000A70380E090E04AE00E940A18809167046F
:103D7000813151F086E591E00E94C9186AE070E057
:103D8000809167040E94A0188091A103882309F400
:103D900032CF86E491E00E94C9186AE070E0809119
:103DA00004015BC08CEB810F823008F074C076C3D5
:103DB000873509F055C081E090E00E94B418182FB3
:103DC000833509F011C482E090E00E94B418833377
:103DD00009F00AC480919602882309F405C483E09F
:103DE00090E00E94B418182F082E000C990B0E9426
:103DF000AA2E892B09F45EC0812F0E94BC1710E304
:103E0000180F1E3308F056C0812F0E94F716F82EA7
:103E100061E070E080E090E00E9401138DE30E9479
:103E2000F716082F81ED91E00E94C918812F0E949A
:103E3000AE1784EC91E00E94C91860E170E08F2D0C
:103E400082958F700E94A0188BEB91E00E94C91898
:103E500060E170E0802F82958F700E94A018CBCE19
:103E6000823709F039C481E090E00E94B418082E2E
:103E7000000C990B0E94AA2E892BC1F082E090E0E1
:103E80000E94B418082E000C990B0E94AA2E892BB0
:103E900009F063C40BC0133509F418C2812F110F48
:103EA000990B0E94AA2E892B09F0E7C28FED91E0B1
:103EB0000E943C1980919802811106C064E872E06A
:103EC00086E993E00E94E41181E0809397021092CA
:103ED000A8037724739403E0202E312C07E080910F
:103EE0007004882309F4EAC18091700481508093A2
:103EF00070048091720460916F040E94592D909318
:103F00007204E091720481E08E0F80937204F0E0FD
:103F1000EE0FFF1FED58FB4F808191819093A3021C
:103F20008093A20210923E0460913B046623E9F064
:103F300070E06150710981EB93E00E94EC14809174
:103F4000360490E0880F991F8F5A9B4F90934C0432
:103F500080934B04E0914904F0914A04808191815F
:103F600090933A048093390404C010924C04109248
:103F70004B044091A2025091A302E0914904F091B8
:103F80004A045183408380913B04882361F0E0918F
:103F90004B04F0914C04309731F02081318124277B
:103FA000352737FF03C04115534864F51AE080E018
:103FB0000E94F30180913B04811105C010924C04D2
:103FC00010924B0406C0115091F78CE993E00E94C7
:103FD0008E151092A4031092A50320916204E09123
:103FE0004904F0914A0480819181E22FF0E0EE0FC4
:103FF000FF1FEF5AFB4F918380832F5F2093620452
:1040000010E013C18E3F50F081E00E94F30140E0C8
:1040100060E08CE993E00E942C1532C0883281F573
:1040200030924404209243048091690490916A0480
:10403000009751F420916B0430916C04232B21F4F0
:1040400020916D0420FF1CC0E0916B04F0916C0482
:1040500040916D0450916E049A013595279540FF6B
:104060000AC0DC01A20FB31F4D915C91E40FF51F54
:104070000190F081E02D820F931F099580936804D1
:10408000C0904904D0904A04D601ED90FC90B7014D
:10409000F7FE04C0662777276E197F09072E000CEC
:1040A000880B990B0E94BE2A2DEC3CEC4CE45EE39D
:1040B0000E941D2B0E94202DAB017093420460933F
:1040C0004104B0906104E1E5F4E080E090E0182F55
:1040D0008B1500F521913191B9016E257F2577FD72
:1040E00017C021153105A1F0DC01A456BC4F1D9667
:1040F0006C91662369F0B701621B730B9B0177FF1C
:1041000003C0319521953109421753070CF070C354
:104110000196DDCFB8E0BB1263C0E0916204F0E02D
:10412000E456FC4F8585833060F180914304909183
:104130004404181619062CF51AE0F12C8091A803F6
:10414000882321F01092A803FF24F39482E00E94B8
:10415000F30180913B04883268F41092A40310921A
:10416000A503F092A80340E060E08CE993E00E9490
:104170002C1507C08091A803882379F31150F1F61C
:10418000ECCF10913B04112359F11150E0916204DE
:10419000F0E0E456FC4F8585882311F1612F70E033
:1041A00081EB93E00E94EC149091360480916204BC
:1041B00098130BC081E0810F0E94481940E060E035
:1041C0008CE993E00E942C150BC01130F1F6809120
:1041D0003B048E3FD0F287EB92E00E943C19D5CF92
:1041E00010916204E0914904F0914A048081918128
:1041F000E12FF0E0EE0FFF1FEF5AFB4F918380831A
:1042000081E0810F883019F08093620406C010921B
:10421000620480936104109264048091620490911E
:104220006104981710F480936104712F8091320417
:10423000909131048730B1F49923A1F0E0913004DA
:104240004E2F50E02091350430E0215031094217C3
:1042500053070CF02DC3EF5FE0933004F0E0E45619
:10426000FC4F158A60913304462F50E0282F30E030
:104270002F5F3F4F241B350B121613062CF4712FA2
:1042800001C0770F2A95EAF7E0913004F0E0E45698
:10429000FC4F2589722B758B9F5F90933104282FDB
:1042A000082E000C330B241B350B37FD04C0861B76
:1042B00080933204C5C200933204C2C20E946412C9
:1042C0005ACA88E690E00E943C1992C964E472E000
:1042D000C2010E946F1280919A0390919B030597EF
:1042E00088F0009196031091970369817A81C80143
:1042F00004960E94E12E009729F0FC01E01BF10BCF
:104300008F0102C00FEF1FEFC2010E946A1299E1F4
:10431000A92E91E0B92EE12CF12C11279E2CD5016C
:10432000CD90DD905D01A80162E070E0C2010E94C5
:104330004B188D819E81892B49F4C114D10421F041
:1043400021E0F60180810AC0282D12C089819A815E
:10435000C114D10431F421E0DC018C91882341F0B7
:1043600006C0B6010E94D12E21E0892B09F020E081
:10437000C201C656DF4F2883CA59D0400E946A1234
:10438000C656DF4F2881CA59D0402223C9F1C60141
:10439000C656DF4F9882CA59D0400E949E1884E4C6
:1043A00092E00E949E18C656DF4F2881CA59D0401D
:1043B000B3E09B1691F140919A0350919B03B80191
:1043C0006F5F7F4FC2010E944B18C2010E9487118C
:1043D000D62EC62EC2010E946A128D2D0E948D1803
:1043E000F701EC5EFE4F80816D2D90E00E94DA15A2
:1043F000992081F0292D213089F4D09267045ACD7B
:10440000EFEFEE1AFE0AF4E0EF16F10409F086CFA2
:1044100024E003C0D09204014DCDC12C223019F408
:10442000C092A30347CD233009F0E5CB40919A0316
:1044300050919B03B8016F5F7F4FC2010E944B18E0
:10444000C2010E9487117093A7036093A603C20163
:104450000E946A126091A70383EF90E00E94DA1530
:104460006091A60384EF90E00E94DA156091A603A4
:104470007091A70380E090E0F7CB82E090E00E948B
:10448000B418082E000C990B0E94AA2E892B09F44F
:104490000DCD8091960281111DC008CD82E090E083
:1044A0000E94B418833509F43FC6853509F42AC63D
:1044B000833409F42AC6823509F42AC6843409F4FF
:1044C0002AC68C3409F42AC6863409F02AC6E2EAE0
:1044D000F3E02CC681E00E94D017182F83E090E013
:1044E0000E94B4188E3669F484E090E00E94B418FB
:1044F000082F082E000C990B0E94AA2E892B09F078
:10450000C4C01E33A8F41F3210F460E801C060EC90
:10451000812F0E94D116082F87E292E00E949E18F8
:10452000812F0E94AE1781E991E00E949E18A9C0D8
:104530001E3399F584EB91E00E94C9182A981C9BC0
:104540000FC061E070E080E090E00E940113809174
:104550000201882309F4AECC815080930201EFCF91
:104560008EEF0E9487168201620188E0F82EF40C1B
:1045700080E00E948716D6018D936D01FA12F8CF64
:104580002A9AF80181918F010E94AE1788EC91E080
:104590000E949E18F012F5CF2ECB193909F08ACC63
:1045A00010E0112341F0103111F0103279F488EC51
:1045B00091E00E949E188DEA91E00E94C918812F17
:1045C0000E94AE178AEA91E00E94C91860E8812F24
:1045D0000E94D1160E94AE1788EC91E00E949E18AE
:1045E0001F5F1F32F1F607CB812F110F990B0E942D
:1045F000AA2E892B09F45ACC82E090E00E94B418CC
:10460000082E000C990B0E94AA2E892B09F44ECC7F
:1046100083E090E00E94B418082E000C990B0E94D1
:10462000AA2E892B09F442CC84E090E00E94B418B1
:10463000082E000C990B0E94AA2E892B09F436CC67
:1046400081E00E94D017182F83E00E94D017082F16
:10465000682F812F90E00E94DA15809196028823BE
:1046600009F428CC8EEF810F8E3308F023CC602F15
:104670000E94B21685E991E00E949E18812F0E9447
:10468000AE17802F0E94AE17B6CA802F0E94BC17AB
:10469000082F1F3208F00ECC87E292E00E949E188D
:1046A000812F0E94AE1788EA91E00E949E180E5F4B
:1046B000802F0E94AE1784E492E00E949E18F12C95
:1046C000F01608F098CA60E88F2D810F0E94D1166D
:1046D0000E94AE17F394F4CF883709F073C081E0DD
:1046E00090E00E94B418082E000C990B0E94AA2E8C
:1046F000892B09F4DBCB82E090E00E94B418082EED
:10470000000C990B0E94AA2E892B09F4CFCB809123
:104710009602882309F4CACB81E00E94D017F82EB4
:1047200000E310E0013321F46F2D81E390E002C03B
:1047300060E0C8010E94DA150F5F1F4F08331105B2
:1047400089F70E948D1684E092E00E94C9188F2D8F
:104750000E94541683EF91E0ABCB81E00E94D0170A
:10476000082F82E192E00E94C918802F0E945416FF
:1047700083E090E00E94B41810E08E36C9F48FE018
:1047800092E00E94C918E12CF12C88EC91E00E9483
:104790009E18C701800F911F0E94DC150E945416BD
:1047A000FFEFEF1AFF0A20E1E216F10471F723CAC6
:1047B0008BE092E00E94C918C8010E94DC150E949B
:1047C000541619CA853609F071CB81E090E00E9439
:1047D000B418833419F40E9430166CCB8091960281
:1047E000882309F463CB0E9462160E94751762CB7E
:1047F00017FD90CC812F880F990BDC01AF5ABB4F6E
:104800007D016D917C91AB01770F660B770BF60103
:1048100080819181092E000CAA0BBB0B5A016B0100
:10482000A80EB91ECA1EDB1EC601B50122E030E08B
:1048300040E050E00E94AF2DD7012D933C93F5CC82
:1048400080913B048F5F80933B04E0914904F09199
:104850004A04808191819093380480933704E12F3A
:10486000110FFF0BE456FC4F85858F5F8587809184
:10487000A103882389F08091A803882369F010910F
:10488000700480910401811738F486EC92E00E9454
:10489000C918812F0E948D188091A803882329F0C0
:1048A000809103018111709297021092A80317CB97
:1048B00082EB92E00E94C9186AE070E0812F0E94AA
:1048C000A01888EA92E00E94C9186AE070E080911E
:1048D00030040E94A01884E992E00E943C1982EE04
:1048E00091E00E949E18E0916304E7FDDBC0EE0FAB
:1048F000FF0BEF5AFB4F6AE070E0808191810E94CC
:10490000F51887E991E00E949E18E0916304EE0F8C
:10491000FF0BEF5AFB4F60817181072E000C880B53
:10492000990B0E94BE2A6B017C01E0919C03EE0F63
:10493000FF0BEF5AFB4F60817181072E000C880B33
:10494000990B0E94BE2A9B01AC01C701B6010E94CF
:10495000A72C6B017C014B015C019B01AC010E9407
:10496000542D882319F086EA91E021C0C701B601D1
:104970009F77EF966CAF7DAF8EAF9FAFEF972FEF26
:104980003FEF4FE75FE70E94542D811113C02FEFD7
:104990003FEF4FE75FE7EF966CAD7DAD8EAD9FAD1E
:1049A000EF970E94B72A18162CF48AEA91E00E9429
:1049B000E81774C02FEF3FEF4FE75FE4C701B60180
:1049C0000E944F2D18161CF48EEA91E0F0CF2FEFC5
:1049D0003FEF4FE75FECC701B6010E94B72A87FDA2
:1049E000F3CF20E030E0A901C701B6010E94B72A49
:1049F00087FF09C08DE20E94EA1846015701B7FA05
:104A0000B094B7F8B0942AE037ED43EA5BE3C50110
:104A1000B4010E943B2C4B015C010E94202D6B01D4
:104A20007C010E94BC2A9B01AC01C501B4010E941B
:104A30003A2C4B015C014AE0C701B6010E940A18FA
:104A40008EE20E94EA1820E030E040E251E4C50125
:104A5000B4010E941D2B6B017C010E94202D4B0193
:104A6000A12CB12C4AE0C501B4010E940A18C5016D
:104A7000B4010E94BC2A9B01AC01C701B6010E948F
:104A80003A2C20E030E040E251E40E941D2B0E94CD
:104A9000202D80E090E04AE00E940A1882EB91E02D
:104AA0000E949E1884EB91E00E949E18E0919C0366
:104AB000E7FD0BC0EE0FFF0BEF5AFB4F6AE070E013
:104AC000808191810E94F51804C08DEB91E00E94D5
:104AD0009E1888E892E00E94C9186AE070E0809110
:104AE00061040E94A01882EC91E00E949E186AE086
:104AF00070E0809162040E94A01885EC91E00E9411
:104B00009E1884E792E00E94C918E0914904F09150
:104B10004A046AE070E0808191810E94F51887EC78
:104B200091E00E949E18E0914B04F0914C046AE0E1
:104B300070E0808191810E94F51887EC91E00E94DD
:104B40009E186AE070E080913704909138040E94CA
:104B5000F51887EC91E00E949E186AE070E0809161
:104B6000390490913A040E94F51889E692E00E9477
:104B7000C9186AE070E080913C040E94A01880E6A9
:104B800092E00E94C9186AE070E080913D040E94A2
:104B9000A01885E592E00E94C9186AE070E0809153
:104BA00031040E94A0188DE492E00E94C9188091FF
:104BB00064046AE070E090E00E94F51882E492E0FC
:104BC0000E94C91880913F046AE070E090E00E9462
:104BD000F51888E392E00E94C9186AE070E08091BD
:104BE0004304909144040E94F5180E94FA178FE242
:104BF00092E00E94C918F12C80913B04F81688F4C9
:104C00006F2D70E081EB93E00E94EC1480913604EC
:104C10006AE070E0082E000C990B0E94F518F394DE
:104C2000EBCF8AEC91E00E949E188DEC91E00E94FF
:104C30009E186AE070E080913B040E94A01880ED0D
:104C400091E00E94FE1782ED91E00E949E18F12CE7
:104C500080916104F81670F58CED91E00E949E1829
:104C60006AE070E08F2D0E94A01886EE91E00E940D
:104C70009E18CF2CD12CF601E456FC4F6AE070E070
:104C800085850E94A0188FED91E00E949E18F60184
:104C9000EE0FFF1FEF5AFB4F80819181009721F0AB
:104CA0006AE070E00E94F51880ED91E00E949E1885
:104CB000F394CECF84E892E00E94FE1784E892E05D
:104CC0000E94FE17C2CD809196028823F1F08BE3FB
:104CD0000E94F7160E9424171EEF1F3FB1F085E3D4
:104CE0000E94F7160FEF010F8077803241F061E0EC
:104CF00070E080E090E00E940113102FEECF1111C0
:104D000004C087E791E00E94FE17EC961FAEEC9777
:104D1000EC963FADEC97C757DF4FA880C958D040FD
:104D20003A1509F4B4C1612C76E1769D1001112485
:104D3000F201E20DF31D80819181892B31F110E0A8
:104D40009F012B5E3F4FC057DF4F39832883C059E7
:104D5000D040C158DF4FF983E883CF57D040339616
:104D6000CE56DF4FF983E883C259D040C158DF4F98
:104D700028813981CF57D0402E5F3F4FCC56DF4F2F
:104D800039832883C459D040DBC0C12C9F012B5EDE
:104D90003F4FCF57DF4F39832883C158D04035E08C
:104DA000230E311C240C351C9F012D5F3F4FCB5728
:104DB000DF4F39832883C558D04021503109C95766
:104DC000DF4F39832883C758D040CF57DF4FA881A2
:104DD000B981C158D0408C91C81608F0BBC0CB57E0
:104DE000DF4FA881B981C558D0400D90BC91A02D4E
:104DF000C158DF4FB983A883CF57D040C957DF4F81
:104E0000E881F981C758D04000810E94DC124B0133
:104E10005C0110E0C158DF4F28813981CF57D04065
:104E200020173107E8F1C8010E94B4188053F1013E
:104E3000E80FF11DE80FF11D20813181790137FF65
:104E400004C0EE24FF24E21AF30AC656DF4F28837B
:104E5000CA59D040C756DF4F3883C959D0400E9445
:104E6000DC12C656DF4F2881CA59D040C756DF4FE3
:104E70003881C959D040681579058A059B0528F302
:104E800037FF02C05B9801C05B9AC701FF0CAA0BF9
:104E9000BB0B880E991EAA1EBB1E0F5F1F4FBACFF9
:104EA0000E94DC12681579058A059B05C8F3C39436
:104EB0008CCF112331F061E070E080E090E00E943F
:104EC0000113C158DF4FE881F981CF57D040E0800E
:104ED000F180CE56DF4FA881B981C259D040BC9134
:104EE000C957DF4FB883C758D040CC56DF4FE88151
:104EF000F981C459D04000810E94DC124B015C0151
:104F0000B701FF0C880B990BCF57DF4F688379836C
:104F10008A839B83C158D040660F771F881F991FD3
:104F2000C657DF4F688379838A839B83CA58D040F2
:104F3000C957DF4FC880C758D040C016C0F41F5FA4
:104F4000C057DF4FA881B981C059D0408C91181744
:104F500008F4AFCF5B986394D61408F0E5CEEC96D6
:104F60002FADEC972F5FEC962FAFEC97D1CE802F23
:104F700090E00E94B4188A3314F097E301C090E3E4
:104F8000891B24E0222E312C38E0C32E282F880FD5
:104F9000330BC257DF4F39832883CE58D040A50149
:104FA0009401CB57DF4F1882C558D040EC2CF12C20
:104FB000C257DF4F88819981CE58D040E822F9222C
:104FC000E114F10409F44DC05B98CF57DF4F88819D
:104FD0009981AA81BB81C158D040280F391F4A1F2F
:104FE0005B1FC656DF4F2883CA59D040C756DF4FD4
:104FF0003883C959D040C956DF4F4883C759D0407C
:10500000C856DF4F5883C859D0400E94DC12C6569C
:10501000DF4F2881CA59D040C756DF4F3881C95960
:10502000D040C956DF4F4881C759D040C856DF4FDE
:105030005881C859D040621773078407950788F2D2
:10504000CB57DF4F9881C558D040913061F061E077
:10505000CB57DF4F6883C558D040E114F10409F401
:10506000B3CF5B9AB2CFC657DF4F688179818A810F
:105070009B81CA58D040860E971EA81EB91EC694A2
:1050800071E0271A310809F08ACF0F5F51CF4091A4
:105090009A0350919B03609196037091970385EF5B
:1050A00092E00E947F10772011F40C94F91D88E2A1
:1050B00091E00E94C9189E012B583F4F79011CE0D6
:1050C000EA963FADEA97131B8E2DEA96BFADEA979D
:1050D0008B1B871510F00C94F91DD7016D917D0184
:1050E000862FC956DF4F6883C759D0400E94541697
:1050F000C956DF4F6881C759D040812F8E0D0E945D
:10510000B216E2CFEDE9F3E011C0EEE9F3E00EC034
:10511000E0EAF3E00BC0E1EAF3E008C0E3E0F1E02D
:1051200005C0E0E0F0E002C0EFE9F3E0153419F467
:1051300081E0808301C0108260919F03962F906868
:1051400060919D03660F692B90919E03E4E09E9F02
:10515000C0011124682B9091A00328E0929FF001D8
:1051600011246E2B9091A10330E1939FA001112493
:10517000642B9091030170E2979F90011124622BA0
:105180009091A203A0E49A9FC0011124682B8FEF95
:1051900090E00E94DA150C945A1F86E993E00C9473
:1051A0006A12CF93DF93E5EFF2E01382128288EE6A
:1051B00093E0A0E0B0E084839583A683B78387E281
:1051C00091E09183808385EC90E09587848784ECDF
:1051D00090E09787868780EC90E0918B808B81ECC4
:1051E00090E0938B828B82EC90E0958B848B86ECA5
:1051F00090E0978B868B118E128E138E148EEFE6B5
:10520000F4E084E68083118213821282CCE9D3E039
:105210008FE78093350484E0809333041D8A1092D5
:1052200030041092310487E08093320480EF809341
:105230003404E5E4F4E0F0934A04E093490487E49D
:1052400094E090934C0480934B0410926A04109263
:10525000690410926C0410926B0410926E04109208
:105260006D0411821082CE010E948E1581E180931F
:1052700067041886198664E872E086E993E00E9464
:105280006F120E94DC1260939203709393038093D9
:10529000940390939503DF91CF910895CF93DF937B
:1052A0008230910510F482E090E0E0913D05F091AC
:1052B0003E0520E030E0C0E0D0E0309711F14081C1
:1052C000518148175907C0F04817590761F4828186
:1052D0009381209719F09B838A832BC090933E057E
:1052E00080933D0526C02115310519F0421753075B
:1052F00018F49A01BE01DF01EF010280F381E02D75
:10530000DCCF2115310509F1281B390B243031057B
:1053100090F412968D919C9113976115710521F06F
:10532000FB019383828304C090933E0580933D05E7
:10533000FD01329644C0FD01E20FF31F819391936A
:10534000225031092D933C933AC020913B05309176
:105350003C05232B41F42091100130911101309331
:105360003C0520933B0520910E0130910F01211542
:10537000310541F42DB73EB7409112015091130110
:10538000241B350BE0913B05F0913C05E217F30738
:10539000A0F42E1B3F0B2817390778F0AC014E5FA5
:1053A0005F4F2417350748F04E0F5F1F50933C05A1
:1053B00040933B058193919302C0E0E0F0E0CF0180
:1053C000DF91CF9108950F931F93CF93DF930097B1
:1053D00009F48CC0FC0132971382128200913D05C2
:1053E00010913E050115110581F420813181820F54
:1053F000931F20913B0530913C052817390779F51B
:10540000F0933C05E0933B0571C0D80140E050E0CB
:10541000AE17BF0750F412962D913C911397AD0132
:105420002115310509F1D901F3CF9D01DA0133834B
:10543000228360817181860F971F8217930769F419
:10544000EC0128813981260F371F2E5F3F4F3183B2
:1054500020838A819B8193838283452B29F4F09357
:105460003E05E0933D0542C01396FC93EE931297E0
:10547000ED01499159919E01240F351FE217F30761
:1054800071F480819181840F951F029611969C93EF
:105490008E938281938113969C938E931297E0E072
:1054A000F0E0D80112968D919C911397009719F016
:1054B000F8018C01F6CF8D919C9198012E5F3F4FA2
:1054C000820F931F20913B0530913C052817390727
:1054D00069F4309729F410923E0510923D0502C000
:1054E0001382128210933C0500933B05DF91CF910C
:1054F0001F910F9108951F93FC0199278827BC01E4
:10550000E89411911032E9F3193010F01E30C8F30D
:105510001B3251F01D3249F4689406C00E94A22A41
:10552000610F711D811D911D119110531A30B0F33F
:105530003EF490958095709561957F4F8F4F9F4F6A
:105540001F910895592F482F372F262F660F771F49
:10555000881F991F660F771F881F991F620F731F7F
:10556000841F951F660F771F881F991F08950E943B
:10557000F92A08F481E00895E89409C097FB3EF405
:1055800090958095709561957F4F8F4F9F4F992390
:10559000A9F0F92F96E9BB279395F695879577950E
:1055A0006795B795F111F8CFFAF4BB0F11F460FFCE
:1055B0001BC06F5F7F4F8F4F9F4F16C0882311F026
:1055C00096E911C0772321F09EE8872F762F05C03A
:1055D000662371F096E8862F70E060E02AF09A95D5
:1055E000660F771F881FDAF7880F9695879597F9CA
:1055F0000895990F0008550FAA0BE0E8FEEF161664
:105600001706E807F907C0F012161306E407F507B6
:1056100098F0621B730B840B950B39F40A2661F02A
:10562000232B242B252B21F408950A2609F4A140CD
:10563000A6958FEF811D811D08950E94302B0C943B
:10564000A42B0E94962B38F00E949D2B20F09523CE
:1056500011F00C948D2B0C94932B11240C94D82BBB
:105660000E94B52B70F3959FC1F3950F50E0551F25
:10567000629FF001729FBB27F00DB11D639FAA27A7
:10568000F00DB11DAA1F649F6627B00DA11D661FF6
:10569000829F2227B00DA11D621F739FB00DA11D17
:1056A000621F839FA00D611D221F749F3327A00DD1
:1056B000611D231F849F600D211D822F762F6A2F6D
:1056C00011249F5750409AF0F1F088234AF0EE0FD2
:1056D000FF1FBB1F661F771F881F91505040A9F7FF
:1056E0009E3F510580F00C948D2B0C94D82B5F3F7E
:1056F000E4F3983ED4F3869577956795B795F7953B
:10570000E7959F5FC1F7FE2B880F911D96958795B2
:1057100097F9089599278827089597F99F6780E852
:1057200070E060E008959FEF80EC089500240A94F3
:105730001616170618060906089500240A9412166C
:105740001306140605060895092E0394000C11F49F
:10575000882352F0BB0F40F4BF2B11F460FF04C04C
:105760006F5F7F4F8F4F9F4F089557FD9058440FA5
:10577000551F59F05F3F71F04795880F97FB991FB0
:1057800061F09F3F79F0879508951216130614066D
:10579000551FF2CF4695F1DF08C0161617061806FA
:1057A000991FF1CF86957105610508940895E894D5
:1057B000BB2766277727CB0197F90895F999FECF84
:1057C00092BD81BDF89A992780B50895262FF99941
:1057D000FECF1FBA92BD81BD20BD0FB6F894FA9AD4
:1057E000F99A0FBE019608952F923F924F925F92C1
:1057F0006F927F928F929F92AF92BF92CF92DF92E1
:10580000EF92FF920F931F93CF93DF93CDB7DEB745
:10581000CA1BDB0B0FB6F894DEBF0FBECDBF0994D9
:105820002A88398848885F846E847D848C849B8430
:10583000AA84B984C884DF80EE80FD800C811B813E
:10584000AA81B981CE0FD11D0FB6F894DEBF0FBE6D
:10585000CDBFED010895A29FB001B39FC001A39FEA
:10586000700D811D1124911DB29F700D811D112499
:10587000911D08955058BB27AA270E94522C0C94C2
:10588000A42B0E94962B38F00E949D2B20F039F417
:105890009F3F19F426F40C94932B0EF4E095E7FB4C
:1058A0000C948D2BE92F0E94B52B58F3BA17620781
:1058B00073078407950720F079F4A6F50C94D72B8D
:1058C0000EF4E0950B2EBA2FA02D0B01B90190011B
:1058D0000C01CA01A0011124FF27591B99F0593F5F
:1058E00050F4503E68F11A16F040A22F232F342FA7
:1058F0004427585FF3CF469537952795A795F040F5
:105900005395C9F77EF41F16BA0B620B730B840B09
:10591000BAF09150A1F0FF0FBB1F661F771F881FC1
:10592000C2F70EC0BA0F621F731F841F48F4879519
:1059300077956795B795F7959E3F08F0B0CF93950B
:10594000880F08F09927EE0F9795879508950E9484
:10595000BB2C0C94A42B0E949D2B58F00E94962BDC
:1059600040F029F45F3F29F00C948D2B51110C94D9
:10597000D82B0C94932B0E94B52B68F39923B1F389
:10598000552391F3951B550BBB27AA276217730765
:10599000840738F09F5F5F4F220F331F441FAA1FF9
:1059A000A9F335D00E2E3AF0E0E832D091505040B5
:1059B000E695001CCAF72BD0FE2F29D0660F771F63
:1059C000881FBB1F261737074807AB07B0E809F049
:1059D000BB0B802DBF01FF2793585F4F3AF09E3FCE
:1059E000510578F00C948D2B0C94D82B5F3FE4F389
:1059F000983ED4F3869577956795B795F7959F5F11
:105A0000C9F7880F911D9695879597F90895E1E05C
:105A1000660F771F881FBB1F621773078407BA07BB
:105A200020F0621B730B840BBA0BEE1F88F7E09516
:105A300008950E94202D6894B1110C94D82B0895DC
:105A40000E94BD2B88F09F5798F0B92F9927B75126
:105A5000B0F0E1F0660F771F881F991F1AF0BA9512
:105A6000C9F714C0B13091F00E94D72BB1E008956E
:105A70000C94D72B672F782F8827B85F39F0B93F60
:105A8000CCF3869577956795B395D9F73EF49095C5
:105A90008095709561957F4F8F4F9F4F08950E941D
:105AA000F92A08F48FEF08950E94F92A880B990BC0
:105AB0000895991B79E004C0991F961708F0961B6A
:105AC000881F7A95C9F780950895AA1BBB1B51E1E1
:105AD00007C0AA1FBB1FA617B70710F0A61BB70B5E
