:100000000C94E6010C94D3140C94AC140C940E02D2
:100010000C940E020C940E020C940E020C940E0220
:100020000C940E020C940E020C940E020C940E0210
:100030000C940E020C94FA140C940E020C940E0202
:100040000C9462140C940E020C94E1120C94BB12EA
:100050000C940E020C940E020C940E020C940E02E0
:100060000C940E020C940E02496E69742065657042
:10007000726F6D20746F2064656661756C74732097
:10008000616674657220666C6173680052656164B4
:10009000696E672076616C7565732066726F6D207E
:1000A000656570726F6D0063633131303120697343
:1000B000206E6F7420636F72726563746C79207345
:1000C00065742E20506C6561736520646F2061201B
:1000D000666163746F7279207265736574207669E6
:1000E0006120636F6D6D616E64206500726563658C
:1000F0006976657220656E61626C65640053746137
:100100007274696E672074696D65726A6F6200202F
:100110006363506172746E756D3D00206363566554
:10012000723D006F6B2E006E6F2043433131787843
:1001300020666F756E6421004343496E6974200028
:100140005573696E6720734649464F006363726555
:1001500067207772697465206261636B2000736544
:100160006E64206661696C6564003B4D646562463F
:1001700069666F4C696D69743D003B6D634D696ED6
:100180004269744C656E3D003B4D7553706C6974EB
:100190005468726573683D005F4D53636E743D0033
:1001A0003B4D64656275673D003B4D66696C743D0F
:1001B00031003B4C45443D30003B4D7265643D0091
:1001C0003B4D433D003B4D553D004D533D002043CD
:1001D000536574003A2000636372656720004333FF
:1001E00045203D20002064656C617931200020634A
:1001F0006869705374617475732000636D6453741F
:10020000726F62655265672000556E737570706F0E
:100210007274656420636F6D6D616E640020746F2D
:100220002050415441424C4520646F6E6500577226
:100230006974652000203D2000203A004545505259
:100240004F4D2000556E737570706F727465642029
:10025000636F6D6D616E6400556E737570706F7253
:1002600074656420636F6D6D616E6400636331312A
:100270003031200020557365206F6E65206F662039
:10028000005369676E616C3A20002C2073746174AE
:10029000653A20002C206D7472756E633A20002C34
:1002A000204D43443A20002C2076616C636E743AF2
:1002B00020002C206D656E643A20002C206D537454
:1002C0006172743A20002C2050756C73653A204698
:1002D0002F4C2F464C2F4C5020002C205061747412
:1002E0004C656E3A20002061646444617461206F43
:1002F000766572666C6F7721210020627974656380
:100300006E743D0076616C3D00206D62206E6D2044
:10031000622070726F6320004D443D006D4F766522
:1003200072666C6F772673746174653D3021000DC1
:100330002E2D07D3913D04320000060010B07157F6
:10034000C43023B900070018146C070090876BF8BD
:100350005611E92A001F4100000000002500280076
:100360002B00040404040404040402020202020236
:100370000303030303030102040810204080010269
:1003800004081020010204081020000000080002E8
:100390000100000304070000000000000000636D7E
:1003A0006420746F206C6F6E67210020737461721B
:1003B000743D0020627566664D6F7665206F7665C8
:1003C00072666C6F77210000C427C02711241FBEFE
:1003D000CFEFD8E0DEBFCDBF12E0A0E0B1E0E8E3B0
:1003E000F1E602C005900D92A438B107D9F725E0D7
:1003F000A4E8B2E001C01D92A233B207E1F711E018
:10040000C5EED1E004C02197FE010E94C82CC43E75
:10041000D107C9F70E94AF190C948F300C940000DB
:100420002F923F924F925F926F927F928F929F9204
:10043000AF92BF92CF92DF92EF92FF920F931F93F2
:10044000CF93DF93CDB7DEB7EB970FB6F894DEBF4F
:100450000FBECDBF882E882321F081E08093330426
:1004600002C0109233048091580490912F0481119E
:1004700004C0983210F40C94320F1092320481E0D0
:100480009E3F09F080E08093340440E060E080E922
:1004900093E00E946115F12C2F2C312CE090550433
:1004A0008E2D90E00197281639060CF004C1F10159
:1004B000E057FC4FCF010D962585F394222361F37D
:1004C000EF2C9101220F331FA9014B5B5B4F5C8F17
:1004D0004B8F9E8F8D8F58A34F8F80915504E816B8
:1004E000D8F62E2D30E0B90160577C4F788F6F8B96
:1004F000FB018585882309F4DCC0EB8DFC8D008130
:1005000011815901AA0CBB1CF501EB5BFB4F60810B
:100510007181CB018027912797FDCBC0409041048A
:100520005090420460904304709044046B01C01AE0
:10053000D10AD7FE03C0D194C194D10877FF03C07C
:10054000719561957109072E000C880B990B0E941B
:10055000B129A30192010E94102A69A37AA38BA357
:100560009CA3B80117FF03C0719561957109072E0F
:10057000000C880B990B0E94B129A30192010E94E3
:10058000102A9B01AC0169A17AA18BA19CA10E94B8
:100590002E2B20E030E040E05FE30E94102A0E9412
:1005A0000C2C6C157D050CF484C0D12CC12C0F894A
:1005B000188D035F1F4F80912F04D81608F041C09B
:1005C000F8018081C816E8F56D2D70E085EA93E0AA
:1005D0000E94211580912A048E1131C08091270438
:1005E000482F50E0D89EC0011124FC0123E0F6956D
:1005F000E7952A95E1F720912904E217F8F4FF27FF
:10060000E057FC4F2091280430E087709927082E8E
:1006100002C0359527950A94E2F720953589232362
:1006200068E070E0641B750BAB01481B590BC101FE
:1006300001C0880F4A95EAF7282B258BC394D394E1
:10064000BACFED8DFE8D1081EF89F88D0585EF8D88
:10065000F8A1A081B18195012B5B3B4F6901F901A4
:10066000A080B180E12FF0E09F010E94C12C2B01FE
:100670003C01402F50E09A01D5010E94C12C640D2D
:10068000751D861D971DE40FF51F9F01FF0F440B7D
:10069000550B0E94A22CEF8DF8A131832083100FFF
:1006A000ED8DFE8D1083EF89F88D1586F601118290
:1006B0001082E39412CF10923804109237048FEF17
:1006C00080939003F0902F04B5E4AB2EB4E0BB2EE2
:1006D00000E010E0CC24CA94DC2C4F2C512C612C6F
:1006E000712C0E1508F061C0FFEFCF16DF0631F553
:1006F000F5018081918197FD21C0F801E057FC4F01
:10070000658570E080E090E00E94B1296F8B788F62
:10071000898F9A8FC301B2010E94B1292BE734E17E
:100720004EE25EE30E94102A9B01AC016F89788D36
:10073000898D9A8D0E94422C181684F1F5018081D2
:10074000918197FD2CC0F601EE0FFF1FEB5BFB4F75
:10075000208131818217930714F5F801E057FC4F8F
:10076000658570E080E090E00E94B1296F8B788F02
:10077000898F9A8FC301B2010E94B1292BE734E11E
:100780004EE25EE30E94102A9B01AC016F89788DD6
:10079000898D9A8D0E94422C18160CF468010F5F07
:1007A0001F4FF2E0AF0EB11C9CCF2FEFC216D20646
:1007B00041F0C092900381E090E0909338048093E0
:1007C00037048091370490913804019709F09FC055
:1007D00080919303882309F49AC08F2D90E08C3880
:1007E00091051CF438EDF30E02C0E4E6FE2EEA9407
:1007F00076E0772E7FEFE71609F487C00E2D0E2CDA
:10080000000C110BF801E057FC4F4585442309F417
:100810007AC0F801EE0FFF1FEB5BFB4F20813181A7
:1008200037FF71C0319521953109283652E43507DB
:100830000CF069C0E0919003EE0FFF0BEB5BFB4FF8
:100840000190F081E02DC901BF010E94582C68324F
:10085000710508F058C07E9EC0017F9E900D112446
:100860008217930708F04FC0642F70E080E090E09B
:100870000E94B1295B016C0160912F0470E080E05F
:1008800090E00E94B1292AE037ED43EA5DE30E943F
:10089000102A9B01AC01C601B5010E94AA2987FF5D
:1008A00032C0A12CB12CAF1470F565016FEFC61AE0
:1008B000D60AB60185EA93E00E94211580912A04A8
:1008C00090E08017910711F00C943B0FB50185EA79
:1008D00093E00E94211520912A0430E0809190033A
:1008E000082E000C990B2817390711F00C943B0FB8
:1008F000E092570482E090E09093380480933704AC
:10090000A092300404C0EA9475CFE092570480911D
:10091000370490913804029709F040C280912F0467
:10092000883208F43BC2809130048E5F809331049A
:100930006091310470E080912F0490E00197681776
:10094000790744F56F5F7F4F85EA93E00E94211598
:1009500020912A0430E080915704082E000C990B56
:1009600028173907A1F46091310470E085EA93E01B
:100970000E94211520912A0430E080919003082ED6
:10098000000C990B2817390711F40C943E0F809135
:100990003104CBCF10E080913104282F30E09091CA
:1009A0003004291B310928323105DCF591E0980F1C
:1009B000909330048D5F809331046091310470E036
:1009C00080912F0490E00197681779074CF56F5FCD
:1009D0007F4F85EA93E00E94211520912A0430E0A0
:1009E00080915704082E000C990B28173907A1F4A1
:1009F0006091310470E085EA93E00E942115209116
:100A00002A0430E080919003082E000C990B2817DF
:100A1000390711F40C94460F809131048E5FCBCFCF
:100A200010E080912F0490913104891710F011117A
:100A300003C08150809331044091310460913004AF
:100A400080E993E00E94611580913004112351F0F8
:100A500090913104292F30E0281B310928323105CB
:100A60006CF48CC120912F042E3F08F07AC130E045
:100A7000281B3109283231050CF473C1809194038D
:100A8000882309F4AEC082E00E94491886EF91E005
:100A90000E9411188BE30E94491820E080915504B0
:100AA0002817C8F5822F90E0FC01EE0FFF1FEB5BCB
:100AB000FB4F008111810115110559F1FC01E0572F
:100AC000FC4F8585882329F1622F17FF05C0606AD6
:100AD00011950195110901C06068F02E07FD04C051
:100AE000802F8068F82E01C0606189EE92E02BAF04
:100AF0000E942E116F2D89EE92E00E942E11612F1F
:100B0000606889EE92E00E942E118BE30E944918E2
:100B10002BAD2F5FC3CF8091310480FF03C089EFDD
:100B200091E002C084E792E00E941118E091300445
:100B3000E0FF16C0E150E0933004E695809129046F
:100B4000E81720F4F0E0E057FC4F9588692D89EE16
:100B500092E00E942E11809130048E5F80933004C9
:100B60001091300480913104811788F0E12FE695CF
:100B700080912904E81720F4F0E0E057FC4F9588B5
:100B8000692D89EE92E00E942E111E5FEBCF8BE360
:100B90000E94491884E192E00E941118809190030C
:100BA00060E170E0082E000C990B0E9454188BE352
:100BB0000E9449188EEF91E00E941118809157040D
:100BC00060E170E0082E000C990B0E9454188BE332
:100BD0000E9449188BEF91E00E94111860E170E0CB
:100BE0007AC082E00E9449188DEF91E00E941118AE
:100BF0008BE30E94491810E080915504181750F5B6
:100C0000812F90E09C01220F331FF901EB5BFB4F1A
:100C10007F0120813181232BD9F0FC01E057FC4F6B
:100C200085858823A9F080E50E9449186AE070E074
:100C3000812F0E94FD178DE30E9449186AE070E041
:100C4000F701808191810E9454188BE30E9449181A
:100C50001F5FD2CF80E092E00E9411181091300403
:100C600080913104811770F0612F70E085EA93E084
:100C70000E9421156AE070E080912A040E94FD170D
:100C80001F5FEECF8BE30E94491883E092E00E9441
:100C90001118809190036AE070E0082E000C990B07
:100CA0000E9454188BE30E94491887E092E00E944A
:100CB0001118809157046AE070E0082E000C990B1F
:100CC0000E9454188BE30E9449188BE092E00E9426
:100CD00011186AE070E080915B040E94FD178BE3BD
:100CE0000E94491880913404882339F08EE092E004
:100CF0000E9411188BE30E944918109233048091CE
:100D0000310420912F0430E0281B310928323105AD
:100D1000ECF0909198039923C9F091509093980327
:100D20008F5F0E94B8181092300480919503882339
:100D300069F080E192E00E9411186AE070E0809111
:100D400098030E94FD178BE30E94491883E00E94DC
:100D5000491887E792E00E94111881E080939C0374
:100D60001AC08823A1F02091310430E02D3F3105D5
:100D700074F0811007C0109233040DC09E3F38F408
:100D800081E0890F0E94B8181092300404C080E9F5
:100D900093E00E94C31581E0809332048091320475
:100DA00081110C941C0F80919103F0919203FBA789
:100DB000811104C0FF2311F40C941C0F2BA52223D6
:100DC00009F41EC680919802811129C082E38093A4
:100DD000DC0291E09093DA021092A5021092D70201
:100DE0001092D80287E08093D90280E88093DB02DA
:100DF0008FEF8093E0028093E1028093E202809380
:100E0000E3021092E80220E933E03093DF022093FE
:100E1000DE021092E5021092E40290939802809113
:100E20005804882381F08091DE029091DF02FC015A
:100E3000E753FF4F21E02083B6971082339710824B
:100E4000BB24B39463C18FEF8093E0028093E102EF
:100E50008093E2028093E3021092E8021092E5028E
:100E60001092E4021092A5021092D7021092D802BA
:100E700087E08093D90280915A048093E602009122
:100E8000DE021091DF02F801EB53FF4FF08033E0F8
:100E90003F1508F0AAC5B697608170E080E090E049
:100EA0000E94B1292AE037ED43E25DE30E94102A57
:100EB0002B013C0120E030E0A9010E94422C20E0FF
:100EC00030E040E05FE387FD05C0C301B2010E944E
:100ED0002E2B04C0C301B2010E942D2B0E940C2CAA
:100EE000A801435F5F4FD801AB54BF4F1F8A70E02A
:100EF000FA018191AF01861768F1EF888E2D90E09D
:100F0000EE20F1F0FE01E80FF91FD08098012D0DC1
:100F1000311D2D0D311DF901EB54FF4F2D913C91E9
:100F200011970190F081E02D2E173F074CF4E1E07E
:100F3000F0E0EC0FFD1FE80FF91FD082EA94DECF3E
:100F4000E1E0F0E0EC0FFD1FE80FF91F7083FF896F
:100F5000FF5FFF8B7F5F12967F11CACF9E012F5FCD
:100F60003F4F3A8B298B3AA729A7BE01675F7F4F76
:100F70007C8B6B8BCE010D969E8B8D8B8C5F8AAF9D
:100F8000798979AF89A5871BEF898E1708F02DC560
:100F9000E9A5FAA52191FAA7E9A74091DE023091CF
:100FA000DF02842F932F820F911D820F911DFC0170
:100FB000EB54FF4F208131813C8F2B8F121613068B
:100FC000FCF68FEF8093E0028093E1028093E202CF
:100FD0008093E302B901330F880B990B0E94B1296A
:100FE0006CA77DA78EA79FA72DEC3CEC4CE45EE39D
:100FF0000E94102A0E940C2C7CAB6BAB4B8D5C8D3D
:10100000559547955EAB4DABBE016F5F7F4F7EA39D
:101010006DA31FA2AA24AA94BA2C18A6EDA1FEA122
:10102000D190FEA3EDA33091DE022091DF02832F49
:10103000922F8D0D911D8D0D911DFC01EB54FF4FD5
:1010400000811181980117FF04C022273327201B3C
:10105000310B8DA99EA9821B930B97FF03C091951D
:10106000819591094BA95CA948175907D4F4EB8CD9
:10107000FC8CE21AF30AF7FE03C0F194E194F10844
:101080002DEC3CEC4CEC5EE36CA57DA58EA59FA5FC
:101090000E94102A0E940C2C6E157F050CF07BC755
:1010A00011C01016110614F00C947010D092E302C7
:1010B00058A55F5F58A7A00EB11E8091E0028F3F38
:1010C00009F07EC38DA159AD851B6F89861708F481
:1010D000A5CF56CFB701C80145960E942115F8014A
:1010E000E656FF4FC080D12C8091E102082E000C03
:1010F000990BC816D90609F455C78091E002082E4D
:10110000000C990BC816D90689F0B394EB2CF12C7E
:101110000091DE021091DF02F801E156FF4F80815D
:1011200090E00197E816F906ACF22CC00091DE02BF
:101130001091DF02B70161507109C80145960E9404
:101140002115F801E656FF4F2081C801820F911D3D
:10115000820F911DFC01EB54FF4F8091DE029091B4
:10116000DF02A091E102AA0FBB0BA80FB91FAB547D
:10117000BF4F208131818D919C91821793070CF094
:1011800011C7C3CF1B2D00E02091DE023091DF029A
:10119000F901E156FF4F808190E00197E816F906CA
:1011A0001CF0BA96108221C4802F0E946519C0904D
:1011B000DE02D090DF02F601E056FF4F8FEF808312
:1011C000B70161507109C60145960E942115F601CB
:1011D000E656FF4F808190E02091E202022E000C43
:1011E000330B8217930709F4EBC62091E302022E1A
:1011F000000C330B8217930709F04EC0E1C6E12EB5
:10120000F12CC090DE02D090DF02B701625071096C
:10121000C60145960E942115F601E656FF4F8081D2
:1012200090E02091E202022E000C330BA701415006
:1012300051097A018217930709F4C5C62091E30288
:10124000022E000C330B8217930709F4BCC6C09022
:10125000DE02D090DF02B701C60145960E9421153B
:10126000F601E656FF4F208130E08091E302082E20
:10127000000C990B2817390779F4E091DE02F09100
:10128000DF02E056FF4F1250108310E0802F0E94C3
:101290006519123008F0B3CFE091DE02F091DF0261
:1012A000E056FF4F80818F3F09F410831091E702D1
:1012B00081E08093E802BB24B394C090DE02D0901A
:1012C000DF02F601E156FF4F80811817B8F5E12ED5
:1012D000F12CB701C60145960E942115F601E6568C
:1012E000FF4F808190E02091E002022E000C330B32
:1012F0008217930709F488C62091E102022E000CA0
:10130000330B8217930709F47FC6C090DE02D0909A
:10131000DF02F601E156FF4F208130E02150310914
:10132000E216F3065CF40111AAC62091E202022E35
:10133000000C330B8217930709F46CC6212F8091A0
:10134000DE029091DF02FC01E156FF4F308113175E
:1013500010F421E0210F6091D80270E04091E60284
:10136000042E000C550B641775070CF43EC3FC01EA
:10137000EF55FF4F208382E00E94491882E192E0FE
:101380000E9411188BE30E94491810E080915504C7
:10139000181728F5E12EF12C133030F0F701E05743
:1013A000FC4F85858823C9F080E50E9449186AE0D2
:1013B00070E0812F0E94FD178DE30E944918F7010C
:1013C000EE0FFF1FEB5BFB4F6AE070E080819181C5
:1013D0000E9454188BE30E9449181F5FD7CF80E00A
:1013E00092E00E94111810E080912F041817D0F499
:1013F00080913004181721F080913104181304C033
:1014000086E192E00E941118612F70E085EA93E076
:101410000E9421156AE070E080912A040E94FD1765
:101420001F5FE2CF8BE30E94491880913404882328
:1014300039F08EE092E00E9411188BE30E94491867
:10144000811007C08AE592E00E9411188BE30E9488
:10145000491880915904811107C088E192E00E94E7
:1014600011188BE30E94491883E00E9449180E94DA
:101470005D1782E00E94491883E192E00E941118F2
:101480008BE30E9449188AE192E00E941118E091D2
:10149000E002EE0FFF0BEB5BFB4F6AE070E0808138
:1014A00091810E9454188BE30E9449188EE192E0CA
:1014B0000E941118E091E102EE0FFF0BEB5BFB4F76
:1014C0006AE070E0808191810E9454188BE30E9451
:1014D000491882E292E00E941118E091E202EE0FB8
:1014E000FF0BEB5BFB4F6AE070E0808191810E9413
:1014F00054188BE30E94491886E292E00E9411186A
:10150000E091E302EE0FFF0BEB5BFB4F6AE070E054
:10151000808191810E9454188BE30E94491880E0D9
:1015200092E00E94111880E390E3A0E089839A83FF
:10153000AB83D12CCE0101967C011AE2A12E12E0E0
:10154000B12E0D2D10E08091D70290E02091DC02A9
:1015500008171907DCF4D21628F4F801EB55FD4FF3
:10156000808101C080E01F928F93BF92AF92FF9263
:10157000EF920E94EE2DC7010E941118D3940F9094
:101580000F900F900F900F900F90DBCFD21628F492
:10159000F801EB55FD4F90819FAB8FA982958F701D
:1015A0001F928F938FE292E09F938F93FF92EF921F
:1015B0000E94EE2DC7010E9411188091D8028770F9
:1015C00081500F900F900F900F900F900F908430DC
:1015D000F0F08091DC02D81628F4F801EB55FD4FAD
:1015E000208128AF88AD8F701F928F938FE292E099
:1015F0009F938F93FF92EF920E94EE2DC7010E945E
:1016000011180F900F900F900F900F900F908BE389
:101610000E94491884E392E00E9411186AE070E089
:101620008091E4029091E5020E9454188BE30E949D
:1016300049188BE192E00E9411186AE070E08091F5
:10164000D8020E94FD178BE30E9449188BE092E0BC
:101650000E9411186AE070E080915B040E94FD17FF
:101660008BE30E94491880919503882309F488C070
:1016700080915904811107C088E192E00E941118FD
:101680008BE30E9449188091E702882309F478C00F
:1016900087EF91E00E9411186AE070E08091E70204
:1016A0000E94FD178BE30E94491887E392E00E9495
:1016B00011186AE070E0809130040E94FD178BE3FE
:1016C0000E9449181091300487EF91E00E94111890
:1016D000812F143008F083E010913004181B209102
:1016E0003004822F90E04D96E12EF12C8E159F054F
:1016F0000CF443C0121304C086E192E00E9411185A
:10170000B70185EA93E00E94211580912A04282FD1
:1017100030E04091E002042E000C550B24173507F1
:1017200019F489E392E00AC04091E102042E000C12
:10173000550B2417350729F48DEC91E00E94111800
:101740001AC04091E202042E000C550B24173507F5
:1017500019F487EF91E0F2CF4091E302042E000CE0
:10176000550B2417350719F48EEF91E0E7CF6AE0A7
:1017700070E00E94FD171F5FB2CF8BE30E944918F3
:101780001092580481E08093320480939C0381106E
:1017900009C080912F0490E020913104821B9109AF
:1017A000889734F0809131040E94B8181092300468
:1017B00083E00E94491887E792E00E94111820C137
:1017C0008091E2028F3F09F47DCC8091E1028F3F4E
:1017D00009F478CC8091E3028F3F09F473CC8FEF4A
:1017E0008D878E878F87888B89878A878B878C8761
:1017F00081E090E09AA389A3212C312C99249A941A
:101800000091DE021091DF02F801E156FF4F808166
:1018100090E0281639060CF055CCB101C801459668
:101820000E942115F801E656FF4F1081812F90E0AC
:101830002091E002022E000C330B8217930709F46B
:101840002DC32091E102022E000C330B8217930767
:1018500009F424C32091E202022E000C330B8217FC
:10186000930709F41BC32091E302022E000C330BF3
:101870008217930709F412C38091DE029091DF0270
:10188000FC01E056FF4F6081A101461B51092091E8
:10189000E602022E000C330B241735070CF02EC382
:1018A00031962082422D0E9461158091DE02909136
:1018B000DF02E091E302ED8F0091E1021091E2027C
:1018C000F091E002FF8FFC012D8DE20FF11D27FD4D
:1018D000FA952585FC01E00FF11D07FDFA95C584F9
:1018E000D12CC20ED11CFC01E10FF11D17FDFA95A0
:1018F0002585C21AD108FC013F8DE30FF11D37FD8C
:10190000FA9525851092E802C21AD108D7FE03C0C5
:10191000D194C194D1080D2C000CEE08FF08FC01F5
:10192000E156FF4F8081482F50E059AB48ABBA01D8
:10193000550F880B990B0E94B1292AE037ED43E23D
:101940005DE30E94102A2B013C0120E030E0A90158
:101950000E94422C20E030E040E05FE387FDACC213
:10196000C301B2010E942E2B0E940C2C6C157D0528
:101970008E059F050CF4A6CB5FA168A55613A2CBDC
:101980007F8D701709F49ECB8D8D181709F49ACBB3
:10199000711709F497CB081709F494CB781709F459
:1019A00091CB011709F48ECBDE011996FE013D960D
:1019B00091918D91981709F484C28F3F09F483C2E5
:1019C00081E09F3F09F07DC29AAD9E137EC28111D6
:1019D0007FC2C50166E070E00E946C2C7093E50246
:1019E0006093E402EBA5E1111ECA8091580488239C
:1019F00039F080913304882319F081E08093320418
:101A000080919103882309F417C280913704909143
:101A10003804019709F010C28091320481110CC280
:101A200080912F04883208F407C210915504115098
:101A300017FD95C0C12E012E000CDD08F601EE0F3A
:101A4000FF1FEB5BFB4F8081918197FF03C0919556
:101A50008195910920919A0330919B0382179307F6
:101A600030F3F601E057FC4F8585882301F3813080
:101A7000A9F4E12CF12CB70185EA93E00E9421152D
:101A800080912A0490E08C159D0589F23FEFE31ABE
:101A9000F30A4AE0E416F10471F702C0883038F620
:101AA00088E28093310480912F04883208F457C073
:101AB00080919A0390919B03892B09F450C018E2FE
:101AC000E12EF12C80912F0490E00197E816F906A1
:101AD0000CF045C0B70185EA93E00E942115E09122
:101AE0002A04F0E0EE0FFF1FEB5BFB4F808191813A
:101AF000B7011816190674F485EA93E00E942115BF
:101B0000E0912A04F0E0EE0FFF1FEB5BFB4F8081BA
:101B1000918110C085EA93E00E942115E0912A048A
:101B2000F0E0EE0FFF1FEB5BFB4F80819181919501
:101B30008195910920919A0330919B038217930715
:101B400060F0109331044FEF410F60E080E993E0C3
:101B50000E946115DD24D39411C01F5FB1CF809125
:101B60002F048093310480913004882331F040E0C9
:101B700060E080E993E00E946115D12C809194038C
:101B8000882309F484C082E00E9449188BE392E024
:101B90000E9411188BE30E94491820E0809155049F
:101BA0002817C8F5822F90E0FC01EE0FFF1FEB5BBA
:101BB000FB4F008111810115110559F1FC01E0571E
:101BC000FC4F8585882329F1622F17FF05C0606AC5
:101BD00011950195110901C06068F02E07FD04C040
:101BE000502F5068F52E01C0606189EE92E02BAF56
:101BF0000E942E116F2D89EE92E00E942E11612F0E
:101C0000606889EE92E00E942E118BE30E944918D1
:101C10002BAD2F5FC3CF8091310480FF06C089EFC9
:101C200091E00E94111810E014C084E792E0F9CF0F
:101C3000E12FE69580912904E81728F4F0E0E057B9
:101C4000FC4F65896AAB6AA989EE92E00E942E1169
:101C50001E5F80913104181758F38BE30E944918D6
:101C600084E192E00E9411188091900360E170E09D
:101C7000082E000C990B0E9454188BE30E944918FF
:101C80008BEF91E00E94111860E170E06BC082E080
:101C90000E9449188EE392E00E9411188BE30E9483
:101CA000491810E080915504181760F5812F90E0D5
:101CB0009C01220F331FF901EB5BFB4F7F01208159
:101CC0003181232BE9F0FC01E057FC4F8585882307
:101CD000B9F08AEE91E00E9411186AE070E0812F5D
:101CE0000E94FD1785E392E00E9411186AE070E0FF
:101CF000F701808191810E9454188BE30E9449185A
:101D00001F5FD0CF80E092E00E94111810E0809118
:101D10003104181770F4612F70E085EA93E00E9497
:101D200021156AE070E080912A040E94FD171F5F70
:101D3000EECF8BE30E94491883E092E00E941118D5
:101D4000809190036AE070E0082E000C990B0E94CD
:101D500054188BE30E9449188BE092E00E941118FE
:101D60006AE070E080915B040E94FD178BE30E94A3
:101D700049181092330481E080939C0380933204CD
:101D8000DD2081F1811009C080912F0490E0209125
:101D90003104821B91098897D4F0809199038F5F59
:101DA00080939903809131040E94B81810923004F6
:101DB000809195038823B1F081E492E00E9411188C
:101DC0006AE070E0809199030E94FD1708C080913D
:101DD0009503882339F083E492E00E9411188BE385
:101DE0000E94491880913404882339F08EE092E0F3
:101DF0000E9411188BE30E94491880919503882353
:101E0000A1F0811007C08AE592E00E9411188BE3CF
:101E10000E94491880915904811107C088E192E01D
:101E20000E9411188BE30E94491883E00E94491810
:101E300087E792E00E94111880913204811102C05C
:101E40001092330480912F048E3F60F0809137040C
:101E500090913804892B31F48CE193E00E949B1817
:101E60001092330480913304811148C180E993E0DA
:101E70000E94C31543C156010C9453048091310450
:101E800081508093310411E00C94CB048091310493
:101E900081508093310411E00C9411052091DE02F1
:101EA0003091DF02F901E156FF4F808190E0019708
:101EB0002816390631F5E0CCC301B2010E942D2B62
:101EC00053CD80E081CD81E07FCD882309F470CDB2
:101ED00088A999A9821993092091E602022E000C83
:101EE000330B281739070CF0EDC89D8699869E861E
:101EF0009A869F869B86988A9C8643C01092E802A9
:101F00000BC08091E802811107C0F901E056FF4F34
:101F10002082F1E0F093E802E090DE02F090DF0230
:101F200069A17AA1C70145960E942115F701E656DD
:101F3000FF4F80812AE0129F800D11248A3008F41F
:101F40008C5920FC03C02D899E8902C02B899C8955
:101F5000E22FF92F90E0482F50E06081262F062EC7
:101F6000000C330B2417350719F06F3F19F48083E9
:101F7000292F01C02FEF9F5F943019F031962F3F2A
:101F800061F33FEF231A330A49A15AA14F5F5F4F14
:101F90005AA349A335CC101611060CF0AAC0D09252
:101FA000E10286C81B2D8091E102082E000C990BDE
:101FB00001E0C816D90609F000E0B092E702E4C8D3
:101FC0001FEF1B0D66C9C090DE02D090DF02B70183
:101FD000C60145960E942115F601E656FF4F808105
:101FE00090E02091E202022E000C330B821793073F
:101FF00009F482C02091E302022E000C330B8217F9
:10200000930709F024C978C00B251F5F802F0E9419
:10201000651953C95FEFE51AF50AB701C601459680
:102020000E942115F601E656FF4F208130E0809195
:10203000E302082E000C990B2817390709F44EC04B
:10204000C090DE02D090DF02B701C60145960E9423
:102050002115F601E656FF4F208130E08091E10224
:10206000082E000C990B2817390709F067C9E09171
:10207000DE02F091DF02E753FF4F10825FC920912B
:10208000E302022E000C330B8217930709F056C9A6
:102090006FEFE61AF60AB701C60145960E942115B0
:1020A000F601E656FF4F208130E08091E202082ED3
:1020B000000C990B2817390789F0C090DE02D090E8
:1020C000DF02B701C60145960E942115F601E656CA
:1020D000FF4F208130E08091E002C2CF1F5F95CF9B
:1020E000D092E2026FA16F5F6FA3A01AB10A0C94A5
:1020F0005D08D092E002F6CF1250C8C8EB960FB63A
:10210000F894DEBF0FBECDBFDF91CF911F910F912D
:10211000FF90EF90DF90CF90BF90AF909F908F9007
:102120007F906F905F904F903F902F900895CF9247
:10213000DF92EF92FF920F931F93CF93DF936C0187
:102140007A018B01C0E0D0E0CE15DF0589F0D8011F
:102150006D918D01D601ED91FC910190F081E02D02
:10216000C6010995892B11F47E0102C02196ECCF9E
:10217000C701DF91CF911F910F91FF90EF90DF90FA
:10218000CF900895089580E090E00895FC01538D6C
:10219000448D252F30E0842F90E0821B930B541741
:1021A00010F0CF96089501970895FC01918D828DCE
:1021B000981761F0828DDF01A80FB11D5D968C919B
:1021C000928D9F5F9F73928F90E008958FEF9FEFA6
:1021D0000895FC01918D828D981731F0828DE80F62
:1021E000F11D858D90E008958FEF9FEF0895FC011C
:1021F000918D228D892F90E0805C9F4F821B9109E9
:102200008F739927089589EE92E00E94F71021E0DC
:10221000892B09F420E0822F0895FC01848DDF01D1
:10222000A80FB11DA35ABF4F2C91848D90E0019649
:102230008F739927848FA689B7892C93A089B18938
:102240008C9180648C93938D848D981306C0028842
:10225000F389E02D80818F7D80830895EF92FF9236
:102260000F931F93CF93DF93EC0181E0888F9B8DB9
:102270008C8D981305C0E889F989808185FD24C07B
:10228000F62E0B8D10E00F5F1F4F0F731127E02EFE
:102290008C8DE8120CC00FB607FCFACFE889F989DB
:1022A000808185FFF5CFCE010E940D11F1CF8B8D7E
:1022B000FE01E80FF11DE35AFF4FF0820B8FEA8910
:1022C000FB898081806207C0EE89FF896083E8898D
:1022D000F98980818064808381E090E0DF91CF91F3
:1022E0001F910F91FF90EF900895CF93DF93EC0132
:1022F000888D8823C9F0EA89FB89808185FD05C026
:10230000A889B9898C9186FD0FC00FB607FCF5CF5F
:10231000808185FFF2CFA889B9898C9185FFEDCFA7
:10232000CE010E940D11E7CFDF91CF91089508955E
:102330000895FC01099480E008950E94982DFC0105
:1023400080819181009711F00C946E2960E070E01B
:10235000CB010895FC0124813581232B31F421E048
:1023600061157105A1F0FB0108C0FC01808191811C
:102370006115710531F421E0FC018081882339F079
:1023800005C00E94C42D21E0892B09F020E0822F96
:1023900008950F931F93CF93DF93EC018881998168
:1023A000009729F02A813B812617370788F48B0193
:1023B0006F5F7F4F0E94CE2C009761F099838883D6
:1023C0001B830A832C813D81232B11F4FC01108295
:1023D00081E001C080E0DF91CF911F910F910895BE
:1023E000EF92FF920F931F93CF93DF93EC017B014A
:1023F0008A01BA010E94C9112881398181110DC059
:102400002115310519F0C9010E94D62819821882B8
:102410001D821C821B821A8206C01D830C83B70199
:10242000C9010E94CD2DCE01DF91CF911F910F9157
:10243000FF90EF900895CF93DF93EC016115710544
:1024400059F0FB0101900020E9F73197AF01461BDD
:10245000570B0E94F0110CC088819981009711F0F0
:102460000E94D628198218821D821C821B821A8221
:10247000CE01DF91CF910895FF920F931F93CF93D9
:10248000DF9300D0CDB7DEB7FF24F39489EE92E05E
:102490000E94F710892B09F446C089EE92E00E9451
:1024A000D5108A3041F01CF4882329F007C08D3004
:1024B00011F0833219F4F0928C0222C089831A82BF
:1024C00000918E0310918F030F5F1F4FB8018AE8B0
:1024D00093E00E94C911882399F020918A033091DA
:1024E0008B0380918E0390918F03BE016F5F7F4FAE
:1024F000820F931F0E94CD2D10938F0300938E03A4
:1025000080918E0390918F03813F910508F4BECF97
:1025100068E772E08AE893E00E941B128EE993E07C
:102520000E949B18B3CF0F900F90DF91CF911F9116
:102530000F91FF9008950E94031181110C943C1299
:102540000895FC01808191810C94D628FC011182B0
:10255000108213821282158214826115710551F066
:10256000FB0101900020E9F73197AF01461B570BA3
:102570000C94F01108951F920F920FB60F92112430
:102580002F933F934F935F936F937F938F939F937B
:10259000AF93BF93EF93FF9389EE92E00E940D11EA
:1025A000FF91EF91BF91AF919F918F917F916F912B
:1025B0005F914F913F912F910F900FBE0F901F9001
:1025C00018951F920F920FB60F9211242F938F938D
:1025D0009F93EF93FF93E091F902F091FA028081CB
:1025E000E091FF02F091000382FD12C09081809182
:1025F00002038F5F8F7320910303821751F0E091E4
:102600000203F0E0E751FD4F958F8093020301C074
:102610008081FF91EF919F918F912F910F900FBE2D
:102620000F901F9018953FB7F8948091A102909158
:10263000A202A091A302B091A40226B5A89B05C056
:102640002F3F19F00196A11DB11D3FBFBA2FA92F31
:10265000982F8827820F911DA11DB11DBC01CD01AE
:1026600042E0660F771F881F991F4A95D1F708959A
:102670008F929F92AF92BF92CF92DF92EF92FF9292
:102680006B017C010E9413134B015C01C114D10446
:10269000E104F104F1F00E941313DC01CB0188196D
:1026A0009909AA09BB09883E9340A105B10570F3B9
:1026B00021E0C21AD108E108F10888EE880E83E013
:1026C000981EA11CB11CC114D104E104F10419F736
:1026D000DDCFFF90EF90DF90CF90BF90AF909F90B5
:1026E0008F900895CF92DF92EF92FF920F931F93F6
:1026F0000E94131300918603109187032091880391
:10270000309189036B017C01C01AD10AE20AF30AF5
:1027100097018601609386037093870380938803F3
:10272000909389030A3511052105310578F181E07F
:10273000C8168DE7D806E104F10410F4960102C032
:1027400021E03DE74A9B03C03195219531098091F5
:1027500063048436D8F4809163048F5F80936304AC
:1027600080916404609162040E944C2C90936404F4
:10277000E0916404F0E0EE0FFF1FEA59FB4F318354
:102780002083809164048F5F809364041F910F9174
:10279000FF90EF90DF90CF9008950F931F930E94CA
:1027A00013130091860310918703209188033091C1
:1027B0008903DC01CB01801B910BA20BB30B823090
:1027C0009D47A105B10580F14A9903C02FEF32E87A
:1027D00002C021E03DE7809163048436D8F4809103
:1027E00063048F5F8093630480916404609162044A
:1027F0000E944C2C90936404E0916404F0E0EE0F8E
:10280000FF1FEA59FB4F31832083809164048F5F5F
:10281000809364040E94131360938603709387036C
:10282000809388039093890320918B02E3E9F3E07E
:102830009491EFE7F3E08491EBE6F3E0E491EE238B
:1028400009F43BC0992339F1933091F038F4913079
:10285000A9F0923001F594B59F7D12C0973091F0A8
:102860009830A1F09430B9F4909180009F7D03C01E
:10287000909180009F77909380000DC094B59F77D2
:1028800094BD09C09091B0009F7703C09091B000B3
:102890009F7D9093B000F0E0EE0FFF1FE85AFC4FD1
:1028A000A591B4919FB7F894EC91211103C0809544
:1028B0008E2301C08E2B8C939FBF10928B021F9191
:1028C0000F9108951F920F920FB60F9211242F931C
:1028D0003F938F939F93AF93BF9380918602909184
:1028E0008702A0918802B09189023091A00223E072
:1028F000230F2D3720F40196A11DB11D05C026E838
:10290000230F0296A11DB11D2093A0028093860281
:1029100090938702A0938802B09389028091A102CC
:102920009091A202A091A302B091A4020196A11DD0
:10293000B11D8093A1029093A202A093A302B09331
:10294000A402BF91AF919F918F913F912F910F90D2
:102950000FBE0F901F9018951F920F920FB60F92F7
:1029600011242F933F934F935F936F937F938F9394
:102970009F93AF93BF93EF93FF93E0910601F09184
:1029800007010995FF91EF91BF91AF919F918F91B1
:102990007F916F915F914F913F912F910F900FBE5B
:1029A0000F901F9018951F920F920FB60F9211243F
:1029B0002F933F934F935F936F937F938F939F9347
:1029C000AF93BF93EF93FF93E0910401F091050162
:1029D0000995FF91EF91BF91AF919F918F917F9159
:1029E0006F915F914F913F912F910F900FBE0F907C
:1029F0001F9018951F920F920FB60F9211242F93CC
:102A00003F934F935F936F937F938F939F93AF9376
:102A1000BF93EF93FF93E0918402F09185020995B3
:102A2000FF91EF91BF91AF919F918F917F916F91A6
:102A30005F914F913F912F910F900FBE0F901F907C
:102A40001895CF93DF93FC01EE57FF4F4081469FCF
:102A5000F001479FF00D11249F0153E03695279513
:102A60005A95E1F7DC01AC57BF4F5C91251720F573
:102A7000DC01A20FB11DEC01CD57DF4F288130E002
:102A8000E770FF2702C035952795EA95E2F73C915C
:102A9000232330E058E0541B469F402D11244770FB
:102AA000541B02C0359527955A95E2F7322FFC0149
:102AB000EB57FF4F208301C03FEF832FDF91CF9172
:102AC0000895FC01E156FF4F2081222309F45AC0EA
:102AD000E259F109DC0155961192EA17FB07E1F77B
:102AE000411102C04FEF420F262F2695542F5695C5
:102AF00060FF13C0FC01E756FF4F6081261720F4EA
:102B0000FC01E20FF11D3589632F6F70FC01E60FA8
:102B1000F11D65856F5F65872F5FDC01A756BF4F8D
:102B20005217E8F06C91261720F4FC01E20FF11D1A
:102B30003589E32FF0E064E0F595E7956A95E1F7D4
:102B4000E80FF91F65856F5F6587632F6F70FC0164
:102B5000E60FF11D65856F5F65872F5FE1CF40FD53
:102B600011C0FC01E756FF4F2081521720F4FC01F1
:102B7000E50FF11D35893F70FC01E30FF11D8585DF
:102B8000815085870895CF93DF93FC01E156FF4F75
:102B90001082DC01AB53BF4F1C92B7961082FC0130
:102BA000158AEC56FF4F108231961082319627E03D
:102BB0002083719611821082B0962FEF2083FC0142
:102BC0002083EB54FF4FEC012D9611921192199234
:102BD000EA17FB07D1F7FC01EE55FF4F1082339641
:102BE00026E930E0318320833C9640E050E060E805
:102BF0007EE340835183628373837197108233969F
:102C0000108231961082B4961082319621E0208392
:102C1000B8971082DF91CF9108950C94D92A0C9423
:102C2000D12ACF93C82F803120F486E492E00E940D
:102C3000111860E170E08C2FCF910C94FD17CF93A9
:102C4000DF93C2E0D0E0FE01E35DFC4F6491CE0172
:102C50000E940D162196CB32D105A9F7C0E3D0E032
:102C6000C13321F464E881E390E002C060E0CE016A
:102C70000E940D162196C833D10591F788E492E0A1
:102C8000DF91CF910C9461178EBD0DB407FEFDCF7F
:102C90008EB50895CF93DF932A981C99FECF8EE7C7
:102CA0000E944416C0E3D0E0CE010E940F160E949D
:102CB00044162196C833D105B9F72A9ADF91CF91EE
:102CC0000895CF93DF931F92CDB7DEB72A981C9952
:102CD000FECF69830E9444166981862F0E944416A4
:102CE0002A9A0F90DF91CF9108952A981C99FECFD0
:102CF000862B0E94441680E00E9444162A9A08956A
:102D000060EC84E30C9475162A981C99FECF0E94FF
:102D100044161C99FECF2A9A089586E30E948416D1
:102D200061E070E080E090E00C943813E89887E967
:102D300091E1909305018093040180918A028111B1
:102D40000C948D160895CF93DF930E948D16CEEFCD
:102D5000CF3FC1F084E30E948416DFEFDC0F807761
:102D6000803141F061E070E080E090E00E94381333
:102D7000CD2FEECFC11106C08CE592E0DF91CF914F
:102D80000C946117DF91CF91089582E793E19093BE
:102D9000050180930401809169008C7F816080939C
:102DA0006900E89A80918A0281110C94A316089513
:102DB000CF93DF932A9A83E790E0FC013197F1F7F4
:102DC0002A980197F1F72A9A8FEA90E00197F1F794
:102DD00080E30E9484166AE070E080E090E00E9448
:102DE00038132A9880E40E944416C2E0D0E0CE0155
:102DF0000E940F160E9444162196CB32D105B9F7D6
:102E00002A9A83E290E00197F1F70E944A1661E066
:102E100070E080E090E00E943813DF91CF910C9435
:102E2000A316CF93C82F803120F486E492E00E944D
:102E3000111860E170E08C2FCF910C94FD1790ED8C
:102E4000980F9A3070F09FE9980F963010F499EA35
:102E500005C09FEB980F963018F499EC980F01C0BD
:102E6000982F892F08951F93CF93DF93C82FD0E019
:102E7000CE010E9413180E941F17182F1295107F61
:102E8000CE0101960E9413180E941F17810FDF9137
:102E9000CF911F910895009769F0FC0101900020E7
:102EA000E9F73197AF01481B590BBC0189EE92E05D
:102EB0000C94971080E090E0089586E792E00C94DF
:102EC0004B17CF93DF930E944B17EC010E945D17C5
:102ED0008C0F9D1FDF91CF910895DF92EF92FF92AB
:102EE0000F931F93CF93DF937C018B01EA01461769
:102EF000570720F4812F8A01C62FD82F68E772E088
:102F0000C7010E94A61280918E0390918F0308172B
:102F10001907E0F48C179D0708F4EC01E0918A038F
:102F2000F0918B03EC0FFD1FD080108260918A031B
:102F300070918B03600F711FC7010E941B12E091FB
:102F40008A03F0918B03EC0FFD1FD082C701DF9144
:102F5000CF911F910F91FF90EF90DF900895CF9345
:102F6000DF93EC0140918E0350918F030E946D1707
:102F7000CE01DF91CF9108958F929F92AF92BF9231
:102F80000F931F93CF93DF93CDB7DEB7A1970FB603
:102F9000F894DEBF0FBECDBF19A2423008F44AE05C
:102FA0008E010F5D1F4F842E912CA12CB12CA501F9
:102FB00094010E94802CE62FB901CA010150110929
:102FC000EA3014F4E05D01C0E95CD801EC93232BF6
:102FD000242B252B61F7C8010E944B17A1960FB631
:102FE000F894DEBF0FBECDBFDF91CF911F910F913F
:102FF000BF90AF909F908F900895AB01672B59F4CD
:10300000E091E902F091EA020190F081E02D682F51
:1030100089EE92E00994682F70E080E090E00C94D3
:10302000BC170C944B1720918E0330918F0382179D
:10303000930760F420918A0330918B0321153105A9
:1030400029F0F901E80FF91F8081089580E00895C3
:103050000F931F93CF93DF938C01C0E0D0E0F80172
:10306000EC0FFD1F6491662371F0E091E902F0918D
:10307000EA020190F081E02D89EE92E00995892B1A
:1030800011F02196ECCFCE01DF91CF911F910F91DE
:103090000895E091E902F091EA020190F081E02DBB
:1030A000682F89EE92E00994CF92DF92EF92FF921F
:1030B000CF93DF936115710589F4E091E902F091F6
:1030C000EA020190F081E02D682F89EE92E0DF9115
:1030D000CF91FF90EF90DF90CF9009946C01990F02
:1030E000EE08FF086A307105D9F4F7FE17C08DE2CB
:1030F0000E944918EC0166277727CB016C197D09DE
:103100008E099F094AE00E94BC178C0F9D1FDF911A
:10311000CF91FF90EF90DF90CF9008954AE001C0EB
:10312000462FC701B601DF91CF91FF90EF90DF905E
:10313000CF900C94BC17CF93DF930E942818EC011A
:103140000E945D178C0F9D1FDF91CF910895CF9343
:10315000DF93682F70E080E090E04AE00E94BC17A7
:10316000EC010E945D178C0F9D1FDF91CF91089598
:103170000F931F93CF9310923304882309F4A1C0B7
:1031800090912F04992309F49CC0C82F492F50E037
:10319000282F30E024173507A4F0981758F483EB54
:1031A00093E00E9428188BEA93E00E9428188C2F45
:1031B0000E94A71880E993E0CF911F910F910C9482
:1031C000C31580912504482F50E04217530708F497
:1031D0006EC0B90176956795B62F2417350739F477
:1031E0001092A50310922404109225043BC0409134
:1031F0002404C0FF3DC005EA13E0A62FAB1B6417F3
:1032000098F4E62FF0E0E057FC4F2689522F5295B4
:103210005F70958970E1979F90011124252BF8012B
:1032200021938F016F5FE9CF80FD0CC0B0E0A05704
:10323000BC4FE62FF0E0E057FC4F95899295907FC8
:1032400055969C938C1B80932504482F50E09A013F
:103250002150310937FD9A01359527952093240493
:1032600080FD02C087E001C083E08093260411C086
:10327000461B4093240450E04F5F5F4F6B557C4FDB
:1032800085EA93E00E94B22D809125048C1B8093E7
:10329000250481E0809333048091250480932F04DA
:1032A00081110FC01092400410923F040AC089E7B8
:1032B00092E00E9411188C2FCF911F910F910C94C6
:1032C000A718CF911F910F9108959091D902409125
:1032D000D8029730A9F4442399F0E091D7026E2FD9
:1032E00070E02091DC0230E0215031096217730751
:1032F000A4F5EF5FE093D702F0E0EB55FD4F1082AD
:103300005091DA02652F70E0292F30E02F5F3F4F98
:10331000261B370B1216130624F401C0880F2A95BA
:10332000EAF7E091D702F0E0EB55FD4F2081822BC8
:1033300080834F5F4093D802292F092E000C330B56
:10334000261B370B37FD04C0951B9093D90203C091
:1033500087E08093D90281E0089580E00895CF93BB
:10336000DF93CDB7DEB7C858D1090FB6F894DEBFEA
:103370000FBECDBF789484B5826084BD84B5816072
:1033800084BD85B5826085BD85B5816085BD809130
:103390006E00816080936E001092810080918100A8
:1033A00082608093810080918100816080938100A0
:1033B000809180008160809380008091B100846062
:1033C0008093B1008091B00081608093B0008091C3
:1033D0007A00846080937A0080917A008260809382
:1033E0007A0080917A00816080937A0080917A00DF
:1033F000806880937A001092C100E091F902F09108
:10340000FA0282E08083E091F902F091FA021082E0
:10341000E091F502F091F6021082E091F702F0914E
:10342000F80280E1808310920103E091FD02F091A7
:10343000FE0286E08083E091FB02F091FC02808135
:1034400080618083E091FB02F091FC0280818860C2
:103450008083E091FB02F091FC0280818068808390
:10346000E091FB02F091FC0280818F7D808380E4FB
:1034700091E00E949B185298219A259A239A2498A9
:10348000229A80E58CBD53982A9A2D9A2B9880E039
:1034900090E00E940F16833339F481E090E00E949F
:1034A0000F168D3209F432C76FEB8FEF90E00E9458
:1034B0000D1660E580EF90E00E940D1663E082EF4C
:1034C00090E00E940D166BE183EF90E00E940D16D4
:1034D00068E584EF90E00E940D1660E081EF90E0D7
:1034E0000E940D1688E690E00E949B1863E380E03E
:1034F00090E00E940D166DE281E090E00E940D16B2
:103500000E941F168FEF90E00E940F16982F917067
:103510009093930381FB992790F99093910382FBF9
:10352000992790F99093920383FB992790F99093B0
:10353000940384FB992790F99093950385FB992731
:1035400090F99093020186FB882780F98093960377
:1035500080EF90E00E940F168093030182EF90E0CD
:103560000E940F168093970383EF90E00E940F163E
:10357000182F84EF90E00E940F16212F110F330BAC
:10358000322F2227280F311D30939B0320939A035B
:1035900081EF90E00E940F1680935A04811103C0BE
:1035A00081E180935A0488E391E00E9428180E94E8
:1035B000D81660E881EF0E947516182F8FEF810FE3
:1035C0008E3F38F087E291E00E94281810928A021C
:1035D00007C083E291E00E94281881E080938A026C
:1035E0008BE191E00E9428186AE070E0812F0E9430
:1035F000FD178FE091E00E94281860E880EF0E949C
:1036000075160E94A71880918A021E821D82882347
:1036100099F089E991E19C838B838B819C81AD81B9
:10362000BE8180935E0490935F04A0936004B09386
:10363000610480E896E112C089E991E19C838B8363
:103640008B819C81AD81BE8180935E0490935F04E9
:10365000A0936004B09361048BE991E190935D04C1
:1036600080935C04539A80919503882321F08DEF19
:1036700090E00E949B1862E370E080E090E00E947E
:10368000381380E1809381001092800082E0809363
:103690008F0288E199E790938E0280938D02909338
:1036A00087008093860082E1809381008DEC93E116
:1036B000909385028093840281E080936F0060EF95
:1036C00070E08AE893E00E94C91180918A0281111A
:1036D00009C00E94C51680919503882399F08CEE4D
:1036E00090E00EC060E888E00E947516823331F4E5
:1036F00060E880E00E9475168D3059F387EA90E00B
:103700000E949B189E012F5F3F4F4901BE016559E2
:103710007F4FE1967FAF6EAFE1978DE0861BCC5770
:10372000DF4F8883C458D04080918C02882309F4ED
:1037300016C410928C0280E090E00E94131880352D
:1037400049F480E291E00E9461178BEC97E00197C9
:10375000F1F7F8C38F3309F054C00E94491884E789
:1037600092E00E94281886E50E94491880E20E9493
:10377000491882E50E94491880E20E94491884E7AE
:103780000E94491880E20E94491888E50E94491861
:1037900080E20E94491886E40E94491880E20E9453
:1037A000491883E50E94491880E20E94491880E583
:1037B0000E94491880E20E94491883E40E94491837
:1037C00080E20E94491882E70E94491880E20E9424
:1037D000491887E50E94491880E20E9449188091A3
:1037E0008A02882309F436C388E70E94491880E2D8
:1037F0000E94491885E60E94491880E20E944918F3
:1038000029C3863579F483E291E00E9411188091F2
:103810008A02882321F08CE692E00E9428188CE32B
:1038200091E01AC3823521F580912E0590912F05E4
:10383000009711F482E395E06401C81AD90A0D2CAF
:10384000000CEE08FF08F7FE0BC08DE20E9449183D
:1038500066277727CB016C197D098E099F09A2C1C4
:103860004AE0C701B6010E94BC170E945D176AC3F7
:10387000833509F061C10E949616C12CD12C1FEF2F
:1038800000E021E0E2962FAFE29731E0EE963FAF05
:10389000EE97B4E17B2E8AE0682E6FE571E0CE01F1
:1038A0008B599F4F0E94A61280918E0390918F0397
:1038B000C816D90698F4E0908A03F0908B03A79677
:1038C0006EAD7FADA797C7018C0D9D1D0E94D42DB5
:1038D000009721F05C01AE18BF0803C0AA24AA9487
:1038E000BA2CCE018B599F4F0E94A112FFEFAF1649
:1038F000BF0611F40C94FD252FEFC216D20611F469
:103900000C94FD25C6010E941318282F80930101F5
:10391000C6010196C857DF4F2883C858D0400E947F
:103920001318382F80930001C857DF4F2881C858DB
:10393000D040233529F12035D9F4C6010296C95764
:10394000DF4F3883C758D0400E941318C857DF4F45
:103950002881C858D040C957DF4F3881C758D04058
:103960008D3309F0E2C0760163E0E60EF11C0AC077
:103970008D3309F0DAC0760172E0E70EF11C02C067
:10398000E12CF12C65018FEFC81AD80A2335E9F430
:10399000153009F4CAC0333409F4C3C03D3449F4C6
:1039A0001F5FF401719EE00DF11D112481E08283FF
:1039B00074CF323509F071CF1F5FF401719EE00DB5
:1039C000F11D112482E08283ACC0203581F5A7016E
:1039D00041505109B70162507109CE018B599F4F77
:1039E0000E946D17CE018B599F4F0E949F11B62EDA
:1039F000CE018B599F4F0E94A11267E06B1508F40E
:103A000094C0B701CE018B599F4F0E94AF17CE01D2
:103A10008B599F4F0E949F11619EF0011124EB0D65
:103A2000F11D3396EE0FFF1FE80DF91D2EC0223554
:103A300079F4B701CE018B599F4F0E94AF17CE0189
:103A40008B599F4F0E949F11EE966FAFEE971FC04C
:103A5000243449F4F401719EE00DF11D1124E38238
:103A6000B582A4821ACF2334C1F4B701CE018B5999
:103A70009F4F0E94AF17CE018B599F4F0E949F11FD
:103A8000F401719EE00DF11D112471836083CE015C
:103A90008B599F4F0E94A11200CF263409F0FDCE12
:103AA000C6018E199F0997FD019695958795082F58
:103AB0008150853008F0F1CE80918A02882309F484
:103AC000ECCECE0185599F4F5C01CC57DF4F38803B
:103AD000C458D0403A0C60E8832D0E947516D50179
:103AE0008D935D01C7010E9413180E941F17282E95
:103AF000229450EF2522C70101960E9413180E94BC
:103B00001F17622D680F832D0E946116B2E0EB0E25
:103B1000F11C8A2DE096EFADE0978E1B8017A8F27E
:103B2000BCCEE2961FAEE297B8CE8EE591E00E9441
:103B300028180E94C5168EC18437B1F58FB7F89446
:103B4000C0908602D0908702E0908802F0908902AF
:103B50008FBFC701B60128EE33E040E050E00E947D
:103B6000802CCA01B9010091920210919302209118
:103B7000940230919502C016D106E206F30650F485
:103B800020919002309191022F5F3F4F309391022C
:103B900020939002C0929202D0929302E0929402FB
:103BA000F09295024AE05FCE883591F481E090E092
:103BB0000E941318813511F40E94961681E090E05E
:103BC0000E941318853409F0BDC10E94C516BAC100
:103BD000863409F4B7C1833409F088C081E090E0ED
:103BE0000E941318182F873409F07AC08AEC91E0EC
:103BF0000E942818809193036AE070E090E00E9490
:103C0000541885EC91E00E942818809191036AE095
:103C100070E090E00E94541880EC91E00E94281817
:103C2000809192036AE070E090E00E94541889EB62
:103C300091E00E942818809194036AE070E090E07F
:103C40000E94541880910201811104C082EB91E01E
:103C50000E94281880919603882321F089EA91E038
:103C60000E94281880EA91E00E942818809195030C
:103C70006AE070E090E00E94541888E991E00E94A8
:103C800028186AE070E0809197030E94FD1788E889
:103C900091E00E94281860919A0370919B0380E044
:103CA00090E04AE00E94BC1780915A04813151F0A3
:103CB0008AE791E00E9428186AE070E080915A0437
:103CC0000E94FD1780919503882309F4C3C08AE6FA
:103CD00091E00E9428186AE070E0809103015BC0C7
:103CE0008CEB810F823008F059C0D5C0873509F0C0
:103CF000B6C081E090E00E941318182F833509F0B8
:103D00004AC482E090E00E941318833309F043C450
:103D100080918A02882309F43EC483E090E00E94E7
:103D20001318182F082E000C990B0E949D2D892B1B
:103D300009F408C1812F0E941F1710E3180F1E33CA
:103D400008F000C1812F0E948416F82E61E070E017
:103D500080E090E00E9438138DE30E948416082FC3
:103D60008BEF91E00E942818812F0E9411178EEE90
:103D700091E00E94281860E170E08F2D82958F708D
:103D80000E94FD1785EE91E00E94281860E170E026
:103D9000802F82958F700E94FD175CC0133509F447
:103DA000BAC2812F110F990B0E949D2D892B09F406
:103DB00073C382E090E00E941318082E000C990B48
:103DC0000E949D2D892B09F467C380918A02882364
:103DD00009F462C381E00E943317182F83E090E05A
:103DE0000E9413188E3669F484E090E00E94131844
:103DF000082F082E000C990B0E949D2D892B09F08D
:103E0000A3C31E3308F44BC31E3309F05EC38EED0B
:103E100091E00E9428182A981C99FECF8EEF0E94EC
:103E200044168401740188E0D82ED80C80E00E94EA
:103E30004416F70181937F01DE12F8CF2A9AD80148
:103E40008D918D010E94111785ED91E00E9411184E
:103E5000D012F5CF88E792E00E94611773C08237D5
:103E600009F0D7C381E090E00E941318082E000CDF
:103E7000990B0E949D2D892B09F447C482E090E0A4
:103E80000E941318082E000C990B0E949D2D892B5F
:103E900009F000C43AC482E090E00E941318833510
:103EA00011F40C94B927853511F40C94A1278334AF
:103EB00011F40C94A527823511F40C94A9278434AD
:103EC00011F40C94AD278C3411F40C94B127863482
:103ED00011F00C94B527E6E9F3E0153411F00C94D9
:103EE000BD2781E0808360919303962F9068609155
:103EF0009103660F692B90919203E4E09E9FC001AD
:103F00001124682B9091940328E0929FF0011124D2
:103F10006E2B9091950330E1939FA0011124642BA7
:103F20009091020170E2979F90011124622B909171
:103F30009603A0E49A9FC0011124682B8FEF90E0B4
:103F40000E940D1680918C02811106C068E772E014
:103F50008AE893E00E941B1281E080938B0210920A
:103F60009C0303E0A02EB12C07E08091630488231A
:103F700009F4C9C1809163048150809363048091E6
:103F80006504609162040E944C2C90936504E0915A
:103F9000650481E08E0F80936504F0E0EE0FFF1F53
:103FA000EA59FB4F8081918190939702809396020A
:103FB0001092320460912F046623E9F070E06150A2
:103FC000710985EA93E00E94211580912A0490E00E
:103FD000880F991F8B5B9B4F9093400480933F0405
:103FE000E0913D04F0913E048081918190932E04F4
:103FF00080932D0404C01092400410923F0440911D
:10400000960250919702E0913D04F0913E04518355
:10401000408380912F04882361F0E0913F04F09168
:104020004004309731F0208131812427352737FF34
:1040300003C04115534834F580E00E94100280917E
:104040002F048111F9CF1092400410923F04809107
:104050009703809398031092990320915604E0915E
:104060003D04F0913E0480819181E22FF0E0EE0F5B
:10407000FF1FEB5BFB4F918380832F5F20935604E0
:1040800010E0F7C08E3F50F081E00E94100240E047
:1040900060E080E993E00E94611532C0883281F5CA
:1040A000B0923804A092370480915C0490915D0432
:1040B000009751F420915E0430915F04232B21F48A
:1040C0002091600420FF1CC0E0915E04F0915F0429
:1040D00040916004509161049A013595279540FF05
:1040E0000AC0DC01A20FB31F4D915C91E40FF51FD4
:1040F0000190F081E02D820F931F099580935B045E
:10410000C0903D04D0903E04D601ED90FC90B701E4
:10411000F7FE04C0662777276E197F09072E000C6B
:10412000880B990B0E94B1292DEC3CEC4CE45EE32A
:104130000E94102A0E94132CAB01709336046093E6
:10414000350470905504E5E4F4E080E090E0182F29
:10415000871500F521913191B9016E257F2577FDF5
:1041600017C021153105A1F0DC01A057BC4F1D96E9
:104170006C91662369F02701421A530A920157FE97
:1041800003C0319521953109421753070CF0C7C27E
:104190000196DDCFB8E07B1247C0E0915604F0E015
:1041A000E057FC4F8585833080F0809137049091F3
:1041B0003804181619064CF481E00E94100240E001
:1041C00060E080E993E00E94611510912F041123B3
:1041D00059F11150E0915604F0E0E057FC4F85850D
:1041E000882311F1612F70E085EA93E00E94211588
:1041F00090912A048091560498130BC081E0810F9E
:104200000E94B81840E060E080E993E00E946115E8
:104210000BC01130F1F680912F048E3FD0F289E06F
:1042200093E00E949B18D5CF10915604E0913D0475
:10423000F0913E0480819181E12FF0E0EE0FFF1FAD
:10424000EB5BFB4F9183808381E0810F883019F015
:104250008093560406C01092560480935504109221
:1042600058048091560490915504981710F4809347
:104270005504312F80912604909125048730B1F4A4
:104280009923A1F0E09124046E2F70E0409129045D
:1042900050E041505109641775070CF0A3C2EF5F5D
:1042A000E0932404F0E0E057FC4F158A20912704A6
:1042B000422F50E0682F70E06F5F7F4F641B750BDB
:1042C000161617062CF4312F01C0330F6A95EAF742
:1042D000E0912404F0E0E057FC4F6589362B358BE4
:1042E0009F5F90932504682F082E000C770BFB012D
:1042F000E41BF50BF7FD04C0821B8093260438C233
:104300000093260435C20E949B120ECA8CE890E0EE
:104310000E949B18F7C848E050E062E070E0C401DA
:104320000E946D176BE771E0C4010E94AA11182F5B
:10433000C4010E94A1121123C1F068E070E0C40121
:104340000E94AF17C4010E949F1160935A04C401D8
:104350000E94A11260915A0481EF90E00E940D1614
:104360006AE070E080915A0429C048E050E062E0C1
:1043700070E0C4010E946D1762E871E0C4010E9400
:10438000AA11182FC4010E94A1121123D1F068E0D4
:1043900070E0C4010E94AF17C4010E949F11609396
:1043A0009703C4010E94A1126091970382EF90E0ED
:1043B0000E940D166AE070E0809197030E94FD173D
:1043C00068C04CE050E062E070E0C4010E946D17EC
:1043D00069E871E0C4010E94AA11182FC4010E946B
:1043E000A112112301F16CE070E0C4010E94AF172B
:1043F000C4010E949F1160930301C401CB57DF4F9A
:104400006883C558D0400E94A112CB57DF4F688106
:10441000C558D04080EF90E00E940D166AE070E031
:1044200080910301CBCF4BE050E062E070E0C4012B
:104430000E946D1764E971E0C4010E94AA11182F4F
:10444000C4010E94A112112321F16BE070E0C401AC
:104450000E94AF17C4010E949F1170939B03609349
:104460009A03C4010E94A11260919B0383EF90E024
:104470000E940D1660919A0384EF90E00E940D1641
:1044800060919A0370919B0380E090E04AE00E9463
:10449000BC178EEC91E03BC188E592E038C11F3239
:1044A00010F460E801C060EC812F0E947516082F9F
:1044B00084E192E00E941118812F0E9411178EE969
:1044C00091E00E941118802F3CC0193909F03ACDB3
:1044D00010E0112341F0103111F0103279F485ED24
:1044E00091E00E94111887ED91E00E942818812F19
:1044F0000E94111784ED91E00E94281860E8812F36
:104500000E9475160E94111785ED91E00E94111806
:104510001F5F1F32F1F69ECC80918A02882309F436
:1045200011CD8EEF800F8E3308F00CCD612F0E94DD
:10453000611682EA91E00E941118802F0E941117E3
:10454000812F0E94111786CC802F0E941F17082FE1
:104550001F3208F0F7CC84E192E00E941118812FFD
:104560000E94111785EB91E00E9411180E5F802FB9
:104570000E94111785E392E00E941118F12CF016A9
:1045800008F068CC60E88F2D810F0E9475160E949C
:104590001117F394F4CF812F110F990B0E949D2DC9
:1045A000892BA1F182E090E00E941318082E000CE4
:1045B000990B0E949D2D892B49F183E090E00E9488
:1045C0001318082E000C990B0E949D2D892BF1F0D9
:1045D00084E090E00E941318082E000C990B0E94B2
:1045E0009D2D892B99F081E00E943317082F83E0DD
:1045F0000E943317182F682F802F90E00E940D160D
:10460000003F09F089CF109303019CCC84E492E031
:104610007EC0883709F073C081E090E00E941318D3
:10462000082E000C990B0E949D2D892B09F46DC05A
:1046300082E090E00E941318082E000C990B0E9453
:104640009D2D892B09F461C080918A02882309F489
:104650005CC081E00E943317F82E00E310E00133C4
:1046600021F46F2D81E390E002C060E0C8010E9458
:104670000D160F5F1F4F0833110589F70E944A1668
:104680008EE292E00E9428188F2D0E9411168DE173
:1046900092E03DC081E00E943317082F8CE392E046
:1046A0000E942818802F0E94111683E090E00E943B
:1046B000131810E08E36C9F489E392E00E9428189E
:1046C000E12CF12C85ED91E00E941118C701800FBB
:1046D000911F0E940F160E941116BFEFEB1AFB0AE2
:1046E000E0E1EE16F10471F7B5CB85E392E00E94AC
:1046F0002818C8010E940F160E941116ABCB8536F0
:1047000021F480918A02811105C089E092E00E9423
:104710009B1818CC0E941F160E94D81613CC17FDA8
:1047200039CD812F880F990B9C012B5B3B4F790171
:10473000D9016D917C91AB01770F660B770BF60178
:1047400080819181092E000CAA0BBB0B2A013B0131
:10475000480E591E6A1E7B1EC301B20122E030E0E2
:1047600040E050E00E94A22CD7012D933C9381CDD4
:1047700080912F048F5F80932F04E0913D04F0918E
:104780003E048081918190932C0480932B04E12F2F
:10479000110FFF0BE057FC4F85858F5F8587809158
:1047A0009503882389F080919C03882369F01091F8
:1047B000630480910301811738F488E193E00E943B
:1047C0002818812F0E94A71880919C03882339F014
:1047D00080910201882319F081E080938B0210926E
:1047E0009C03C3CB84E093E00E9428186AE070E049
:1047F000812F0E94FD178AEF92E00E9428186AE03C
:1048000070E0809124040E94FD1786EE92E00E94E1
:104810009B188FEE91E00E941118E0915704E7FD7C
:10482000DBC0EE0FFF0BEB5BFB4F6AE070E08081BB
:1048300091810E94541884EA91E00E941118E0913D
:104840005704EE0FFF0BEB5BFB4F60817181072E6E
:10485000000C880B990B0E94B1296B017C01E0913F
:104860009003EE0FFF0BEB5BFB4F60817181072E16
:10487000000C880B990B0E94B1299B01AC01C70168
:10488000B6010E949A2B6B017C012B013C019B011C
:10489000AC010E94472C882319F083EB91E021C0E2
:1048A000C701B6019F77E5966CAF7DAF8EAF9FAF26
:1048B000E5972FEF3FEF4FE75FE70E94472C81110D
:1048C00013C02FEF3FEF4FE75FE7E5966CAD7DAD8F
:1048D0008EAD9FADE5970E94AA2918162CF487EBA0
:1048E00091E00E944B1774C02FEF3FEF4FE75FE45A
:1048F000C701B6010E94422C18161CF48BEB91E004
:10490000F0CF2FEF3FEF4FE75FECC701B6010E94FA
:10491000AA2987FDF3CF20E030E0A901C701B60145
:104920000E94AA2987FF09C08DE20E94491826012A
:10493000370177FA709477F870942AE037ED43EAFC
:104940005BE3C301B2010E942E2B2B013C010E94AC
:10495000132C6B017C010E94AF299B01AC01C301A8
:10496000B2010E942D2B2B013C014AE0C701B60188
:104970000E94BC178EE20E94491820E030E040E21D
:1049800051E4C301B2010E94102A6B017C010E9414
:10499000132C2B01612C712C4AE0C301B2010E943F
:1049A000BC17C301B2010E94AF299B01AC01C70132
:1049B000B6010E942D2B20E030E040E251E40E943D
:1049C000102A0E94132C80E090E04AE00E94BC175D
:1049D0008FEB91E00E94111881EC91E00E94111878
:1049E000E0919003E7FD0BC0EE0FFF0BEB5BFB4F7D
:1049F0006AE070E0808191810E94541804C08AECC2
:104A000091E00E9411188AED92E00E9428186AE055
:104A100070E0809155040E94FD178FEC91E00E9498
:104A200011186AE070E0809156040E94FD1782ED33
:104A300091E00E94111886EC92E00E942818E09103
:104A40003D04F0913E046AE070E0808191810E9413
:104A5000541884ED91E00E941118E0913F04F09108
:104A600040046AE070E0808191810E94541884EDD6
:104A700091E00E9411186AE070E080912B049091FF
:104A80002C040E94541884ED91E00E9411186AE0F1
:104A900070E080912D0490912E040E9454188BEBAD
:104AA00092E00E9428186AE070E0809130040E9431
:104AB000FD1782EB92E00E9428186AE070E0809176
:104AC00031040E94FD1787EA92E00E9428186AE0EC
:104AD00070E0809125040E94FD178FE992E00E940A
:104AE0002818809158046AE070E090E00E94541801
:104AF00084E992E00E942818809133046AE070E013
:104B000090E00E9454188AE892E00E9428186AE017
:104B100070E080913704909138040E9454180E94EC
:104B20005D1781E892E00E942818F12C80912F04F3
:104B3000F81688F46F2D70E085EA93E00E94211545
:104B400080912A046AE070E0082E000C990B0E9404
:104B50005418F394EBCF87ED91E00E9411188AED81
:104B600091E00E9411186AE070E080912F040E9489
:104B7000FD178DED91E00E9461178FED91E00E948D
:104B80001118F12C80915504F81670F589EE91E01A
:104B90000E9411186AE070E08F2D0E94FD1783EFCC
:104BA00091E00E941118CF2CD12CF601E057FC4F58
:104BB0006AE070E085850E94FD178CEE91E00E940E
:104BC0001118F601EE0FFF1FEB5BFB4F8081918107
:104BD000009721F06AE070E00E9454188DED91E09A
:104BE0000E941118F394CECF88E792E00E946117DB
:104BF00088E792E00E946117C0CD80918A028823E5
:104C000049F18BE30E9484160E948D169EEF9F3F10
:104C100009F185E3CB57DF4F9883C558D0400E94F8
:104C20008416CB57DF4F9881C558D040FF24FA94A3
:104C3000F90E8077803241F061E070E080E090E032
:104C40000E9438139F2DE3CF911104C081E691E0BB
:104C50000E946117C12CEE964FACEE97C41409F474
:104C600035C1D12C4D2C512CE7965FAE4EAEE79757
:104C700024E1D29E10011124F401E20DF31D828182
:104C8000823089F084E1E7964EAC5FACE797849D73
:104C9000F001859DF00D1124E80DF91D8281813010
:104CA00009F079C052C026E0220E311C2401420CCA
:104CB000531CE9965FAE4EAEE99764807580ED9621
:104CC0007FAE6EAEED97E3800E9413131B012C01A3
:104CD000F12CED966EAC7FACED976E147F0468F10D
:104CE000C7010E9413188053E996EEADFFADE99716
:104CF000E80FF11DE80FF11D60807180530177FE10
:104D000004C0AA24BB24A618B7080E941313621576
:104D1000730584059505C8F377FE02C05B9801C052
:104D20005B9AC501BB0CAA0BBB0B280E391E4A1E91
:104D30005B1E2FEFE21AF20ACCCF0E94131362150A
:104D4000730584059505C8F39DCFA080B18074805C
:104D5000EC967FAEEC97F3800E9413132B013C017D
:104D6000B501BB0C880B990BEB966CAF7DAF8EAF8A
:104D70009FAFEB97660F771F881F991FC258DF4FB1
:104D8000688379838A839B83CE57D040EC962FAD7E
:104D9000EC972F1530F45B98D3941D1508F062CF73
:104DA00088C08F2D90E00E9413188A3314F097E387
:104DB00001C090E3891B94E0292E312C28E0E22EDB
:104DC000282F880F330BCE57DF4F39832883C258E3
:104DD000D040A3019201E6961FAEE697AE2CB12C0F
:104DE000CE57DF4F88819981C258D040A822B9227E
:104DF000A114B10409F447C05B98EB968CAD9DAD4E
:104E0000AEADBFADEB97280F391F4A1F5B1FC857C8
:104E1000DF4F2883C858D040C957DF4F3883C75861
:104E2000D040CB57DF4F4883C558D040CA57DF4FDB
:104E30005883C658D0400E941313C857DF4F2881AB
:104E4000C858D040C957DF4F3881C758D040CB57DA
:104E5000DF4F4881C558D040CA57DF4F5881C658E8
:104E6000D040621773078407950788F2E6969FADD6
:104E7000E697913051F061E0E6966FAFE697A114A6
:104E8000B10409F4B9CF5B9AB8CFC258DF4F68813B
:104E900079818A819B81CE57D040460E571E681E6D
:104EA000791EE69471E0271A310809F092CFF39445
:104EB0006DCFE2963FADE297332331F061E070E0D1
:104EC00080E090E00E943813C394C5CE40918E03D9
:104ED00050918F0360918A0370918B0389EE92E069
:104EE0000E949710002311F40C94991D8CE491E01A
:104EF0000E9428189E0125593F4F79011CE0E09639
:104F00003FADE097131B8E2DE096BFADE0978B1B56
:104F1000801710F00C94991DD7016D917D01862F9B
:104F2000CB57DF4F6883C558D0400E941116CB572E
:104F3000DF4F6881C558D040812F8E0D0E946116C9
:104F4000E2CFE1E9F3E00C946D1FE2E9F3E00C94A9
:104F50006D1FE4E9F3E00C946D1FE5E9F3E00C94B8
:104F60006D1FE2E0F1E00C946D1FE0E0F0E00C94C6
:104F70006D1FE3E9F3E00C946D1F10820C94731F16
:104F80008AE893E00C94A112CF93DF93E9EEF2E06C
:104F90001382128288EE93E0A0E0B0E084839583D0
:104FA000A683B78382E191E09183808385EC90E0D2
:104FB0009587848784EC90E09787868780EC90E0E3
:104FC000918B808B81EC90E0938B828B82EC90E0D4
:104FD000958B848B86EC90E0978B868B118E128E4E
:104FE000138E148EE2E6F4E084E68083118213824D
:104FF0001282C0E9D3E08FE78093290484E0809394
:1050000027041D8A109224041092250487E08093BF
:10501000260480EF80932804E9E3F4E0F0933E0453
:10502000E0933D048BE394E09093400480933F042D
:1050300010925D0410925C0410925F0410925E0462
:10504000109261041092600411821082CE010E94BD
:10505000C31581E180935A041886198668E772E0C7
:105060008AE893E00E94A6120E94131360938603BD
:10507000709387038093880390938903DF91CF9186
:105080000895CF93DF938230910510F482E090E091
:10509000E0913005F091310520E030E0C0E0D0E053
:1050A000309711F14081518148175907C0F04817D6
:1050B000590761F482819381209719F09B838A8339
:1050C0002BC0909331058093300526C02115310502
:1050D00019F04217530718F49A01BE01DF01EF01DE
:1050E0000280F381E02DDCCF2115310509F1281B69
:1050F000390B2430310590F412968D919C911397C1
:105100006115710521F0FB019383828304C09093A4
:10511000310580933005FD01329644C0FD01E20F58
:10512000F31F81939193225031092D933C933AC000
:1051300020912E0530912F05232B41F420910A0157
:1051400030910B0130932F0520932E0520910801FB
:10515000309109012115310541F42DB73EB7409139
:105160000C0150910D01241B350BE0912E05F0919F
:105170002F05E217F307A0F42E1B3F0B2817390762
:1051800078F0AC014E5F5F4F2417350748F04E0FA3
:105190005F1F50932F0540932E058193919302C07A
:1051A000E0E0F0E0CF01DF91CF9108950F931F93DE
:1051B000CF93DF93009709F48CC0FC0132971382E0
:1051C000128200913005109131050115110581F40D
:1051D00020813181820F931F20912E0530912F0560
:1051E0002817390779F5F0932F05E0932E0571C044
:1051F000D80140E050E0AE17BF0750F412962D9151
:105200003C911397AD012115310509F1D901F3CF77
:105210009D01DA013383228360817181860F971F9C
:105220008217930769F4EC0128813981260F371F13
:105230002E5F3F4F318320838A819B8193838283BA
:10524000452B29F4F0933105E093300542C01396C5
:10525000FC93EE931297ED01499159919E01240F11
:10526000351FE217F30771F480819181840F951F38
:10527000029611969C938E938281938113969C93B0
:105280008E931297E0E0F0E0D80112968D919C91F8
:105290001397009719F0F8018C01F6CF8D919C912E
:1052A00098012E5F3F4F820F931F20912E05309162
:1052B0002F052817390769F4309729F41092310522
:1052C0001092300502C01382128210932F050093B2
:1052D0002E05DF91CF911F910F9108951F93FC012F
:1052E00099278827BC01E89411911032E9F319300D
:1052F00010F01E30C8F31B3251F01D3249F468948F
:1053000006C00E949529610F711D811D911D11918B
:1053100010531A30B0F33EF49095809570956195D6
:105320007F4F8F4F9F4F1F910895592F482F372F31
:10533000262F660F771F881F991F660F771F881FFC
:10534000991F620F731F841F951F660F771F881F99
:10535000991F08950E94EC2908F481E00895E894CB
:1053600009C097FB3EF490958095709561957F4FAD
:105370008F4F9F4F9923A9F0F92F96E9BB2793955B
:10538000F695879577956795B795F111F8CFFAF46B
:10539000BB0F11F460FF1BC06F5F7F4F8F4F9F4F9C
:1053A00016C0882311F096E911C0772321F09EE8FA
:1053B000872F762F05C0662371F096E8862F70E060
:1053C00060E02AF09A95660F771F881FDAF7880F3A
:1053D0009695879597F90895990F0008550FAA0B90
:1053E000E0E8FEEF16161706E807F907C0F01216F8
:1053F0001306E407F50798F0621B730B840B950BFB
:1054000039F40A2661F0232B242B252B21F408954F
:105410000A2609F4A140A6958FEF811D811D0895EC
:105420000E94232A0C94972A0E94892A38F00E940D
:10543000902A20F0952311F00C94802A0C94862A4F
:1054400011240C94CB2A0E94A82A70F3959FC1F3D3
:10545000950F50E0551F629FF001729FBB27F00D22
:10546000B11D639FAA27F00DB11DAA1F649F662777
:10547000B00DA11D661F829F2227B00DA11D621FC6
:10548000739FB00DA11D621F839FA00D611D221F80
:10549000749F3327A00D611D231F849F600D211D64
:1054A000822F762F6A2F11249F5750409AF0F1F0E7
:1054B00088234AF0EE0FFF1FBB1F661F771F881F50
:1054C00091505040A9F79E3F510580F00C94802ADE
:1054D0000C94CB2A5F3FE4F3983ED4F386957795FE
:1054E0006795B795F795E7959F5FC1F7FE2B880FF6
:1054F000911D9695879597F908959927882708957E
:1055000097F99F6780E870E060E008959FEF80EC76
:10551000089500240A941616170618060906089519
:1055200000240A9412161306140605060895092E7F
:105530000394000C11F4882352F0BB0F40F4BF2BEE
:1055400011F460FF04C06F5F7F4F8F4F9F4F08952E
:1055500057FD9058440F551F59F05F3F71F0479524
:10556000880F97FB991F61F09F3F79F08795089509
:10557000121613061406551FF2CF4695F1DF08C028
:10558000161617061806991FF1CF86957105610545
:1055900008940895E894BB2766277727CB0197F9ED
:1055A0000895F999FECF92BD81BDF89A992780B5EB
:1055B0000895262FF999FECF1FBA92BD81BD20BD57
:1055C0000FB6F894FA9AF99A0FBE019608952F92A1
:1055D0003F924F925F926F927F928F929F92AF9283
:1055E000BF92CF92DF92EF92FF920F931F93CF93D0
:1055F000DF93CDB7DEB7CA1BDB0B0FB6F894DEBF67
:105600000FBECDBF09942A88398848885F846E848C
:105610007D848C849B84AA84B984C884DF80EE80D6
:10562000FD800C811B81AA81B981CE0FD11D0FB6DF
:10563000F894DEBF0FBECDBFED010895A29FB0016B
:10564000B39FC001A39F700D811D1124911DB29FB6
:10565000700D811D1124911D08955058BB27AA2754
:105660000E94452B0C94972A0E94892A38F00E94A8
:10567000902A20F039F49F3F19F426F40C94862ADE
:105680000EF4E095E7FB0C94802AE92F0E94A82AEB
:1056900058F3BA17620773078407950720F079F467
:1056A000A6F50C94CA2A0EF4E0950B2EBA2FA02D65
:1056B0000B01B90190010C01CA01A0011124FF27BF
:1056C000591B99F0593F50F4503E68F11A16F040BA
:1056D000A22F232F342F4427585FF3CF46953795B9
:1056E0002795A795F0405395C9F77EF41F16BA0B7E
:1056F000620B730B840BBAF09150A1F0FF0FBB1F2C
:10570000661F771F881FC2F70EC0BA0F621F731F74
:10571000841F48F4879577956795B795F7959E3FD1
:1057200008F0B0CF9395880F08F09927EE0F979562
:10573000879508950E94AE2B0C94972A0E94902A78
:1057400058F00E94892A40F029F45F3F29F00C9418
:10575000802A51110C94CB2A0C94862A0E94A82AE4
:1057600068F39923B1F3552391F3951B550BBB2790
:10577000AA2762177307840738F09F5F5F4F220FD5
:10578000331F441FAA1FA9F335D00E2E3AF0E0E8CC
:1057900032D091505040E695001CCAF72BD0FE2F16
:1057A00029D0660F771F881FBB1F261737074807AA
:1057B000AB07B0E809F0BB0B802DBF01FF27935862
:1057C0005F4F3AF09E3F510578F00C94802A0C947C
:1057D000CB2A5F3FE4F3983ED4F38695779567959F
:1057E000B795F7959F5FC9F7880F911D9695879597
:1057F00097F90895E1E0660F771F881FBB1F6217B6
:1058000073078407BA0720F0621B730B840BBA0B73
:10581000EE1F88F7E09508950E94132C6894B1114B
:105820000C94CB2A08950E94B02A88F09F5798F0D4
:10583000B92F9927B751B0F0E1F0660F771F881F95
:10584000991F1AF0BA95C9F714C0B13091F00E94AF
:10585000CA2AB1E008950C94CA2A672F782F8827A6
:10586000B85F39F0B93FCCF3869577956795B395D6
:10587000D9F73EF490958095709561957F4F8F4F45
:105880009F4F08950E94EC2908F48FEF08950E941D
:10589000EC29880B990B0895991B79E004C0991F96
:1058A000961708F0961B881F7A95C9F7809508957A
:1058B000AA1BBB1B51E107C0AA1FBB1FA617B70736
:1058C00010F0A61BB70B881F991F5A95A9F7809552
:1058D0009095BC01CD01089597FB072E16F4009416
:1058E00007D077FD09D00E94582C07FC05D03EF464
:1058F000909581959F4F0895709561957F4F08957C
:10590000A1E21A2EAA1BBB1BFD010DC0AA1FBB1FC3
:10591000EE1FFF1FA217B307E407F50720F0A21B35
:10592000B30BE40BF50B661F771F881F991F1A94A2
:1059300069F760957095809590959B01AC01BD01CC
:10594000CF010895052E97FB1EF400940E94B92CF8
:1059500057FD07D00E94802C07FC03D04EF40C9416
:10596000B92C50954095309521953F4F4F4F5F4F43
:10597000089590958095709561957F4F8F4F9F4FBB
:1059800008950E941E2BB7FF0895821B930B089564
:10599000EE0FFF1F0590F491E02D0994A0E0B0E018
:1059A000E4EDFCE20C94EB2AEC01009721F4CB012E
:1059B0000E944128B8C0FC01E60FF71F9C0122504D
:1059C0003109E217F30708F4ACC0D9010D911C911D
:1059D000119706171707B0F00530110508F49FC09E
:1059E000C80104978617970708F499C00250110957
:1059F000061B170B019311936D937C93CF010E94AB
:105A0000D6288DC05B01A01AB10A4C01800E911EF0
:105A1000A0913005B091310540E050E0E12CF12C2F
:105A2000109709F44AC0A815B905D1F56D907C907E
:105A30001197630182E0C80ED11CCA14DB0480F107
:105A4000A3014A195B096A0182E0C80ED11C1296B3
:105A5000BC9012971396AC91B5E0CB16D10440F0F0
:105A6000B282A38351834083D9016D937C930AC092
:105A70000E5F1F4FC301800F911FF9019183808337
:105A8000EB2DFA2FE114F10431F0D7011396FC93BA
:105A9000EE93129744C0F0933105E09330053FC078
:105AA0008D919C9111974817590708F4AC017D011D
:105AB00012960D90BC91A02DB3CF80912E059091A0
:105AC0002F0588159905E1F446175707C8F480910A
:105AD000080190910901009741F48DB79EB740915C
