:100000000C9456010C94B1130C948A130C947E0139
:100010000C947E010C947E010C947E010C947E0164
:100020000C947E010C947E010C947E010C947E0154
:100030000C947E010C94D8130C947E010C947E01D8
:100040000C9440130C947E010C9452120C942C12BC
:100050000C947E010C947E010C947E010C947E0124
:100060000C947E010C947E0152656164696E672078
:1000700076616C7565732066726F6D206565707250
:100080006F6D00726563656976657220656E616289
:100090006C6564005374617274696E672074696D75
:1000A00065726A6F62005573696E672073464946D0
:1000B0004F006363726567207772697465206261BF
:1000C000636B200073656E64206661696C65640013
:1000D0003B4D6465624669666F4C696D69743D00AD
:1000E0003B6D634D696E4269744C656E3D003B4DDE
:1000F0007553706C69745468726573683D005F4D28
:1001000053636E743D003B4D64656275673D003B13
:100110004D754E6F4F766572666C6F773D31003B63
:100120004C45443D30003B4D7265643D003B4D43C2
:100130003D003B4D553D004D533D00556E73757070
:10014000706F7274656420636F6D6D616E64002002
:100150003D2000203A00454550524F4D200020558B
:100160007365206F6E65206F6620005369676E614E
:100170006C3A20002C2073746174653A20002C20A6
:100180006D7472756E633A20002C204D43443A2002
:10019000002C2076616C636E743A20002C206D6513
:1001A0006E643A20002C206D53746172743A200002
:1001B0002C2050756C73653A20462F4C2F464C2FDF
:1001C0004C5020002C20506174744C656E3A200015
:1001D0002061646444617461206F766572666C6F3F
:1001E000772121002062797465636E743D00766129
:1001F0006C3D00206D62206E6D20622070726F6316
:1002000020004D443D006D4F766572666C6F772619
:1002100073746174653D30210000000000250028E2
:10022000002B000404040404040404020202020279
:1002300002030303030303010204081020408001AA
:100240000204081020010204081020000000080029
:100250000201000003040700000000000000002964
:1002600000636D6420746F206C6F6E672120286DB1
:1002700061782000496E697420656570726F6D2029
:10028000746F2064656661756C74730020737461AB
:1002900072743D0020627566664D6F7665206F76DC
:1002A0006572666C6F772100FF24FB2411241FBE4A
:1002B000CFEFD8E0DEBFCDBF12E0A0E0B1E0E6ECCA
:1002C000FBE502C005900D92A034B107D9F725E0F7
:1002D000A0E4B2E001C01D92AD32B207E1F711E037
:1002E000C5E5D1E004C02197FE010E940F2AC43564
:1002F000D107C9F70E945F190C94D62D0C94000009
:100300002F923F924F925F926F927F928F929F9225
:10031000AF92BF92CF92DF92EF92FF920F931F9313
:10032000CF93DF93CDB7DEB7E4970FB6F894DEBF77
:100330000FBECDBF8F8B882321F081E08093F10326
:1003400002C01092F103909116042091ED03809168
:100350005703911106C0283220F4882311F40C941D
:100360007C0E1092F00391E02E3F09F090E0909304
:10037000F203882361F01092F6031092F503809146
:100380005503882309F459C11092EE0330C140E0AF
:1003900060E08DE493E00E943F14F12C6F2C712CEF
:1003A0008091130490E001976816790624F7F30111
:1003B000E35BFC4FCF010E962685F394222371F365
:1003C000EF2C9301220F331FA9014D5F5B4F5F8F0D
:1003D0004E8F99A388A35BA34AA380911304E816C8
:1003E000E8F68E2D90E0BC01635B7C4F798F688FBF
:1003F000DB011E962C91222309F4E0C0EE8DFF8DC7
:10040000008111819C01255A3F4F3D8F2C8FF901AE
:10041000EE0FFF1FE35BFC4F60817181CB018027F2
:10042000912797FDCBC08090FF0390900004A0908F
:100430000104B09002046B01C01AD10AD7FE03C0B8
:10044000D194C194D10877FF03C07195619571096A
:10045000072E000C880B990B0E94ED26A501940134
:100460000E944C271B012C01B80117FF03C0719596
:1004700061957109072E000C880B990B0E94ED26DF
:10048000A50194010E944C279B01AC01C201B1015E
:100490000E94752820E030E040E05FE30E944C2796
:1004A0000E9453296C157D050CF488C0D12CC12CF9
:1004B000088D198D025F1F4F8091ED03D81608F04B
:1004C00041C0D8018C91C816E8F56D2D70E083E627
:1004D00093E00E94FF138091E8038E1131C0809158
:1004E000E503482F50E0D89EC0011124FC0123E011
:1004F000F695E7952A95E1F72091E703E217F8F4DE
:10050000FF27E35BFC4F2091E60330E087709927DB
:10051000082E02C0359527950A94E2F72095368972
:10052000232368E070E0641B750BAB01481B590B7B
:10053000C30101C0880F4A95EAF7282B268BC39484
:10054000D394BACFE8A1F9A1D080A88DB98D1E9619
:10055000CC90EAA1FBA1A081B1810C8D1D8D000F73
:10056000111F035B1C4FF801A080B180ED2DF0E05E
:100570009F010E94082A1B012C014C2D50E09A017A
:10058000D5010E94082A620D731D841D951DE40F7C
:10059000F51F9F01FF0F440B550B0E94E929AAA1EB
:1005A000BBA12D933C93DC0CE8A1F9A1D082A88DCE
:1005B000B98D1E961C92F80111821082E3940DCF22
:1005C00070E06F5F7F4F83E693E00E94FF132091FE
:1005D000E80330E080911504082E000C990B2817D1
:1005E000390751F08091EE038F5F8093EE036091A5
:1005F000EE036A3028F318C06091EE0370E083E6E2
:1006000093E00E94FF132091E80330E080914D03B6
:10061000082E000C990B2817390721F782E090E08B
:100620009093F6038093F5038091F5039091F60380
:10063000892B69F41092550304C0809156038823D6
:1006400031F040E060E08DE493E00E943F1480913F
:10065000F5039091F603892B09F07BC08FEF80930F
:100660004D03709013048090ED03B3E0CB2EB4E003
:10067000DB2E00E010E0EE24EA94FE2C912CA12C5D
:10068000B12C071508F059C0FFEFEF16FF0611F562
:10069000D6018D919C9197FD1DC0F801E35BFC4F45
:1006A000668570E080E090E00E94ED261B012C0141
:1006B000C501B4010E94ED262BE734E14EE25EE372
:1006C0000E944C279B01AC01C201B1010E94892903
:1006D000181664F1F6018081918197FD28C0F70119
:1006E000EE0FFF1FED5FFB4F2081318182179307D3
:1006F000F4F4F801E35BFC4F668570E080E090E085
:100700000E94ED261B012C01C501B4010E94ED26BB
:100710002BE734E14EE25EE30E944C279B01AC01E3
:10072000C201B1010E94892918160CF478010F5FEB
:100730001F4FF2E0CF0ED11CA4CF2FEFE216F2062E
:1007400041F0E0924D0381E090E09093F6038093B6
:10075000F5038091F5039091F603019709F0AAC083
:1007600080915003882309F4A5C080911804811159
:10077000A1C08091ED03282F30E0203A310524F408
:10078000F8EDAF2EA80E02C0E8E7AE2EB09013042D
:10079000BA9476E0972EB7FC8AC00B2D0B2C000C78
:1007A000110BF801E35BFC4FF684FF2009F47DC0D8
:1007B000F801EE0FFF1FED5FFB4F2081318137FF06
:1007C00074C0319521953109283642E434070CF084
:1007D0006CC0E0914D03EE0FFF0BED5FFB4F0190FE
:1007E000F081E02DC901BF010E949F29633371058B
:1007F00008F05BC09E9EC0019F9E900D1124821741
:10080000930708F052C06F2D70E080E090E00E94E6
:10081000ED261B012C016091ED0370E080E090E07B
:100820000E94ED262AE037ED43EA5DE30E944C2763
:100830009B01AC01C201B1010E94E62687FF35C0D1
:1008400051E05F1590F5C12CD12CCA1470F57601DA
:100850006FEFE61AF60AB70183E693E00E94FF13F2
:100860008091E80390E08017910711F00C94850EB9
:10087000B60183E693E00E94FF132091E80330E085
:1008800080914D03082E000C990B2817390711F0A1
:100890000C94850EB092150482E090E09093F603DC
:1008A0008093F503C092EE0305C0BA9474CF8FEF26
:1008B000809315048091F5039091F603029709F057
:1008C00053C28091ED03883208F44EC280915703E1
:1008D00081114AC28091EE038E5F8093EF03609195
:1008E000EF0370E08091EE0390E00996861797077A
:1008F0000CF43FC06F5F7F4F83E693E00E94FF13CD
:100900002091E80330E080911504082E000C990B2B
:1009100028173907A1F46091EF0370E083E693E0B4
:100920000E94FF132091E80330E080914D03082ED0
:10093000000C990B2817390711F40C94880E80913C
:10094000EF038F5FCACF6F5F7F4F83E693E00E9414
:10095000FF132091E80330E080911504082E000C6D
:10096000990B2817390781F08091EF038E5F8093F0
:10097000EF036091EF0370E08091ED0390E0019749
:100980006817790704F314C06091EF0370E083E601
:1009900093E00E94FF132091E80330E080914D0323
:1009A000082E000C990B28173907F1F60C948E0EBF
:1009B000F12C8091ED039091EF03891710F0F11065
:1009C00003C081508093EF034091EF036091EE03E9
:1009D0008DE493E00E943F148091EE03FF2049F0E4
:1009E0002091EF0330E0D901A81BB10998979CF43E
:1009F000BBC19091ED03292F30E0281B310928322B
:100A000031050CF4B1C19E3F08F091C1BF89B230ED
:100A100011F40C9401109091550380915403981790
:100A200008F03BC180915103882309F4A2C082E001
:100A30000E940A1883EE91E00E94BE178BE30E9489
:100A40000A1820E0809113042817C8F5822F90E03F
:100A5000FC01EE0FFF1FED5FFB4F008111810115BF
:100A6000110559F1FC01E35BFC4F8685882329F1D0
:100A7000622F17FF05C0606A11950195110901C029
:100A80006068E02E07FD04C0E02FE068EE2E01C094
:100A9000606186EA92E02CAB0E94B6106E2D86EA69
:100AA00092E00E94B610612F606886EA92E00E9490
:100AB000B6108BE30E940A182CA92F5FC3CF809138
:100AC000EF0380FF03C086EE91E002C088EE91E064
:100AD0000E94BE17E091EE03E0FF17C0E150E093E3
:100AE000EE03E6958091E703E81728F4F0E0E35B76
:100AF000FC4F26892A8F6A8D86EA92E00E94B61002
:100B00008091EE038E5F8093EE031091EE0380914F
:100B1000EF03811790F0E12FE6958091E703E81746
:100B200028F4F0E0E35BFC4F36893A8F6A8D86EA61
:100B300092E00E94B6101E5FEACF8BE30E940A1873
:100B40008FEF91E00E94BE1780914D0360E170E04D
:100B5000082E000C990B0E9415188BE30E940A18AE
:100B60008BEE91E00E94BE178091150460E170E069
:100B70006DC082E00E940A188AEE91E00E94BE17C2
:100B80008BE30E940A1810E080911304181758F59F
:100B9000812F90E09C01220F331FA9014D5F5B4F15
:100BA0006A01DA012D913C91232BD9F0FC01E35B22
:100BB000FC4F86858823A9F080E50E940A186AE028
:100BC00070E0812F0E94C0178DE30E940A186AE02E
:100BD00070E0F601808191810E9415188BE30E94DC
:100BE0000A181F5FD1CF8DEE91E00E94BE171091C1
:100BF000EE038091EF03811770F0612F70E083E6C0
:100C000093E00E94FF136AE070E08091E8030E9485
:100C1000C0171F5FEECF8BE30E940A1880EF91E0B0
:100C20000E94BE1780914D036AE070E0082E000C10
:100C3000990B0E9415188BE30E940A1884EF91E02B
:100C40000E94BE17809115046AE070E0082E000C27
:100C5000990B0E9415188BE30E940A188091F203E9
:100C6000882339F08EE292E00E94BE178BE30E9447
:100C70000A1880915303882381F0FF89F11103C082
:100C800088EF91E005C02F89223039F48AEF91E096
:100C90000E94BE178BE30E940A181092F103809104
:100CA0005503F11002C0882389F1909153039923D1
:100CB00089F090915403891768F48CEF91E00E94B9
:100CC000BE176AE070E0809155030E94C0178BE365
:100CD0000E940A18209155032F5F20935503FF208F
:100CE000A9F03F89311109C08091ED0390E0309166
:100CF000EF03831B910988974CF0222339F08091F0
:100D0000EF038F5F0E9468181092EE0390915503D5
:100D100080915403891738F083E00E940A1883E316
:100D200092E00E94BE1781E080935A031AC0882384
:100D300089F02091EF0330E02D3F31055CF04F89C1
:100D4000411103C01092F1030CC00E946818109268
:100D5000EE0307C05F89523021F08DE493E00E94DA
:100D6000A11481E08093F0038091F0038111AEC75C
:100D700080914E0360914F036EA3811103C06623DF
:100D800009F4A4C77EA1772309F44BC58091F5032C
:100D90009091F603029709F444C5809149028111AC
:100DA00029C082E38093990291E090939702109278
:100DB0006202109294021092950287E0809396024C
:100DC00080E8809398028FEF80939D0280939E022B
:100DD00080939F028093A0021092A5022DE433E03D
:100DE00030939C0220939B021092A2021092A102C7
:100DF00090934902809116048823A1F080919B0270
:100E000090919C02FC01EC55FF4F108233971082A9
:100E1000F12C77247394EE24E39499249A9487E038
:100E2000882EDDC18FEF80939D0280939E02809378
:100E30009F028093A0021092A5021092A20210922B
:100E4000A10210926202109294021092950287E021
:100E500080939602809119048093A30200919B02D3
:100E600010919C02F801EA53FF4FF08083E08F1548
:100E700008F0CCC4B697608170E080E090E00E94FA
:100E8000ED262AE037ED43E25DE30E944C274B015B
:100E90005C0120E030E0A9010E94892920E030E0D7
:100EA00040E05FE387FD05C0C501B4010E947528DD
:100EB00004C0C501B4010E9474280E94532958013E
:100EC0009EE0A90EB11CF801EA54FF4F212C70E0FE
:100ED000D5018D915D01861760F1E22C8E2D90E099
:100EE000EE20F1F09E01280F391FD901DC90980106
:100EF0002D0D311D2D0D311D2A543F4F4081518143
:100F0000D9012D913C914217530754F421E030E070
:100F10002C0F3D1F820F931FDC01DC92EA94DECF81
:100F200021E030E02C0F3D1F820F931FDC017C93EA
:100F300023947F5F32967F11CBCFFE013196FA8BDF
:100F4000E98BFF8FEE8FAE01475F5F4F5C8B4B8B62
:100F5000BE01635F7F4F7E8B6D8B6C5F6BAB49898E
:100F60004EA78E8D841B821508F050C4AE8DBF8DA8
:100F70002D91BF8FAE8F40919B0230919C02842FA8
:100F8000932F820F911D820F911DFC01EA54FF4F98
:100F9000208131813B8F2A8F1216130604F78FEFC1
:100FA00080939D0280939E0280939F028093A00273
:100FB000359527953BA72AA7AE014F5F5F4F5D8F01
:100FC0004C8F18A21AA26FEF7FEF798F688F8A8DEE
:100FD0009B8D092E000CAA0BBB0B8FA798ABA9AB5E
:100FE000BAAB8C8D3EA5831B821508F0B8CFAC8DB3
:100FF000BD8D7D90BD8FAC8F30919B0220919C0266
:10100000832F922F870D911D870D911DFC01EA54AE
:10101000FF4F008111816FA578A989A99AA90E9423
:10102000ED264B015C01680117FF04C0CC24DD24D0
:10103000C01AD10AEAA4FBA4EC18FD08F7FE03C00D
:10104000F194E194F1082DEC3CEC4CE45EE3C50135
:10105000B4010E944C270E9453296E157F050CF0A5
:10106000B0C2EA8CFB8CEC18FD08F7FE03C0F194CB
:10107000E194F1082DEC3CEC4CEC5EE3C501B401CD
:101080000E944C270E9453296E157F050CF0C3C6A1
:10109000A8CF8F2D0E941519A0909B02B0909C02A2
:1010A000F501EF55FF4F9082B60161507109C501FE
:1010B00046960E94FF13F501E556FF4F808190E0B0
:1010C00020919F02022E000C330B8217930709F424
:1010D000A9C62091A002022E000C330B82179307A1
:1010E00009F4A0C6E0919B02F0919C02EF55FF4FDE
:1010F00080818F3F09F41083B090A402E092A50292
:10110000C0909B02D0909C02F601E056FF4F808178
:10111000B81608F0F6C00B2D10E0B801C6014696CF
:101120000E94FF13F601E556FF4F808190E0209169
:101130009D02022E000C330B8217930709F44DC752
:1011400020919E02022E000C330B8217930709F4A4
:1011500044C7C0909B02D0909C02F601E056FF4F1E
:10116000208130E021503109021713070CF0C9C06B
:10117000FF2009F4BDC02091A002022E000C330B09
:101180008217930709F4F0C67B2CFF24F394809117
:101190009B0290919C02FC01E056FF4F2081B21609
:1011A00018F4772473947B0C4091950250E02091C1
:1011B000A302022E000C330BFC01421753070CF064
:1011C000A9C0E553FF4F2081222309F49CC010924F
:1011D00062021092940210929502809296022091DF
:1011E0009B0230919C02472D50E0F901E056FF4FE1
:1011F000808190E04E97481759070CF007C3F9011A
:10120000E653FF4FE082C72CD12C00919B02109136
:101210009C02F801E056FF4F808190E00197C816CC
:10122000D9060CF053C0B601C80146960E94FF13C0
:10123000F801E556FF4FA080B12C80919E02082E48
:10124000000C990BA816B906A1F180919D02082EF9
:10125000000C990BA816B90651F500919B0210914C
:101260009C02B60161507109C80146960E94FF13A5
:10127000F801E556FF4F8081080F111D080F111D61
:10128000F801EA54FF4FA0919B02B0919C0280911B
:101290009E0262E08602A00DB11D1124AA54BF4F28
:1012A000808191812D913C912817390714F4739412
:1012B000AACF80919E02082E000C990BFF24F39474
:1012C000A816B90609F0F12C7092A402172D2091EE
:1012D0009B0230919C02F901E056FF4F808190E023
:1012E0000197C816D9060CF4D4CEBA9610828EC2D5
:1012F00020919F02022E000C330B8217930709F4F2
:10130000FFC57B2C44CFB8E2B71508F060CFBA9781
:1013100070827CC2EE55FF4F708282E00E940A18F4
:101320008EEF91E00E94BE178BE30E940A1881E0C5
:1013300092E00E94BE17E0919D02EE0FFF0BED5F61
:10134000FB4F6AE070E0808191810E9415188BE369
:101350000E940A1885E092E00E94BE17E0919E026A
:10136000EE0FFF0BED5FFB4F6AE070E08081918133
:101370000E9415188BE30E940A1889E092E00E94EF
:10138000BE17E0919F02EE0FFF0BED5FFB4F6AE08F
:1013900070E0808191810E9415188BE30E940A18E9
:1013A0008DE092E00E94BE17E091A002EE0FFF0BCD
:1013B000ED5FFB4F6AE070E0808191810E9415181B
:1013C0008BE30E940A188DEE91E00E94BE1780E325
:1013D00090E3A0E089839A83AB83D12CFE01319600
:1013E0007F0111E1A12E12E0B12E0D2D10E08091B0
:1013F000940290E02091990208171907DCF4D216A4
:1014000028F4F801EE59FD4F808101C080E01F9261
:101410008F93BF92AF92FF92EF920E94352BC7013C
:101420000E94BE17D3940F900F900F900F900F90C3
:101430000F90DBCFD21628F4F801EE59FD4F208132
:101440002CA78CA582958F701F928F9386E192E0D6
:101450009F938F93FF92EF920E94352BC7010E94BA
:10146000BE1780919502877081500F900F900F905A
:101470000F900F900F908430F0F080919902D81661
:1014800028F4F801EE59FD4F30813DA78DA58F70EE
:101490001F928F9386E192E09F938F93FF92EF923A
:1014A0000E94352BC7010E94BE170F900F900F901E
:1014B0000F900F900F908BE30E940A188BE192E03F
:1014C0000E94BE176AE070E08091A1029091A20292
:1014D0000E9415188BE30E940A1882E092E00E9495
:1014E000BE176AE070E0809195020E94C0178BE3FE
:1014F0000E940A1880915303882349F180911704B0
:10150000811107C08EE192E00E94BE178BE30E941A
:101510000A188091A4028823D1F084EE91E00E9401
:10152000BE176AE070E08091A4020E94C0178BE3AE
:101530000E940A1880E292E00E94BE176AE070E002
:101540008091EE030E94C0178BE30E940A188091DD
:10155000F203882339F08EE292E00E94BE178BE3FB
:101560000E940A181092160481E08093F003809381
:101570005A038091EF034F89411108C02091ED0378
:1015800030E0281B3109283231059CF081500E943F
:1015900068181092EE0381E0809318048091530341
:1015A000882339F082E292E00E94BE178BE30E940A
:1015B0000A1883E00E940A1883E392E00E94BE1793
:1015C00030C1101611060CF016C57092A002BAA117
:1015D000BF5FBAA3E88DF98DE00FF11FF98FE88F97
:1015E00080919D028F3F09F4FCCC80919F028F3F38
:1015F00009F4F7CC80919E028F3F09F4F2CC8091E0
:10160000A0028F3F09F4EDCC8FEF8D878E878F87F7
:10161000888B89878A878B878C8741E050E05DA320
:101620004CA300E010E0BB24BA94E0909B02F09041
:101630009C02F701E056FF4F808190E008171907E0
:101640000CF0CFCCB801C70146960E94FF13F701FA
:10165000E556FF4FD0808D2D90E020919D02022E07
:10166000000C330BE0909B02F0909C0282179307D2
:1016700009F45DC320919E02022E000C330B8217E9
:10168000930709F454C320919F02022E000C330BE0
:101690008217930709F44BC32091A002022E000C7D
:1016A000330B8217930709F442C3F701EF55FF4F3D
:1016B00060819801261B31098091A302082E000C3D
:1016C000990B821793070CF05EC331960083402F6D
:1016D000C7010E943F1480919B0290919C028090D0
:1016E000A00290909E02A0909F0230909D02FC016B
:1016F000E80DF11D87FCFA952685FC01E90DF11D29
:1017000097FCFA95C684D12CC20ED11CFC01EA0DBF
:10171000F11DA7FCFA952685C21AD108FC01E30D3C
:10172000F11D37FCFA9526851092A502C21AD10840
:10173000D7FE03C0D194C194D1080D2C000CEE0843
:10174000FF08FC01E056FF4F8081682F70E078A70A
:101750006FA3072E000C880B990B0E94ED262AE040
:1017600037ED43E25DE30E944C272B013C0120E072
:1017700030E0A9010E94892920E030E040E05FE3E9
:1017800087FDDFC2C301B2010E9475280E94532960
:101790006C157D058E059F050CF423CC78A18AA1DC
:1017A00078131FCC391409F41CCCA81409F419CCF3
:1017B0003A1409F416CC981409F413CC381409F42B
:1017C00010CC9A1409F40DCCDE011996FE013D9659
:1017D00091918D91981709F4B9C28F3F09F4B8C25D
:1017E00081E09F3F09F0B2C29BA99E13B3C2811151
:1017F000B4C2888D998D66E070E00E94B329709321
:10180000A2026093A102AEA1A111F8CA80911604B0
:10181000882339F08091F103882319F081E08093C7
:10182000F00380914E03882309F450C28091F503A0
:101830009091F6030197029708F048C28091F00357
:10184000811144C28091ED03883228F480915703BE
:10185000882309F43BC28091580390915903892B46
:1018600009F49EC08091EE03882341F040E060E0DF
:101870008DE493E00E943F141092EE031091130444
:10188000115017FD8DC0C12E012E000CDD08F60190
:10189000EE0FFF1FED5FFB4F8081918197FF03C02B
:1018A00091958195910920915803309159038217A0
:1018B000930730F3F601E35BFC4F8685882301F341
:1018C0008130A9F4E12CF12CB70183E693E00E946A
:1018D000FF138091E80390E08C159D0589F25FEF7E
:1018E000E51AF50A6AE0E616F10471F702C08830DD
:1018F00038F688E28093EF038091ED03883208F494
:101900004FC018E2E12EF12C8091ED0390E0019799
:10191000E816F9060CF044C0B70183E693E00E9494
:10192000FF13E091E803F0E0EE0FFF1FED5FFB4FC8
:1019300080819181B7011816190674F483E693E04B
:101940000E94FF13E091E803F0E0EE0FFF1FED5F50
:10195000FB4F8081918110C083E693E00E94FF13CA
:10196000E091E803F0E0EE0FFF1FED5FFB4F808199
:101970009181919581959109209158033091590356
:101980008217930758F01093EF03412F60E08DE426
:1019900093E00E943F14FF24F39419C01F5FB2CF5D
:1019A0009091F2038091ED03992321F090915203DD
:1019B000911182508093EF038091EE03882331F0E0
:1019C00040E060E08DE493E00E943F14F12C9091A0
:1019D000510380915703992309F493C0811156C094
:1019E00082E00E940A1884E292E00E94BE178BE314
:1019F0000E940A1820E0809113042817C8F5822F4E
:101A000090E0FC01EE0FFF1FED5FFB4F00811181A5
:101A10000115110559F1FC01E35BFC4F8685882314
:101A200029F1622F17FF05C0606A11950195110910
:101A300001C06068E02E07FD04C0702F7068E72EBB
:101A400001C0606186EA92E02CAB0E94B6106E2D58
:101A500086EA92E00E94B610612F606886EA92E002
:101A60000E94B6108BE30E940A182CA92F5FC3CFE7
:101A70008FEF91E00E94BE1780914D0360E170E00E
:101A8000082E000C990B0E94151807C082E00E94D6
:101A90000A1887E292E00E94BE178BE30E940A18A0
:101AA0008091EF0380FF06C086EE91E00E94BE1792
:101AB00010E014C088EE91E0F9CFE12FE695809117
:101AC000E703E81728F4F0E0E35BFC4F868989A779
:101AD00069A586EA92E00E94B6101E5F8091EF032E
:101AE000181758F38BE30E940A181092F10381E053
:101AF00080935A038093F0038091F20381116EC0AA
:101B00008FC0811149C082E00E940A188AE292E0E7
:101B10000E94BE178BE30E940A1810E08091130404
:101B2000181760F5812F90E09C01220F331FD90117
:101B3000AD5FBB4F6D012D913C91232BE9F0FC0172
:101B4000E35BFC4F86858823B9F088EB91E00E9427
:101B5000BE176AE070E0812F0E94C0178CE192E00E
:101B60000E94BE176AE070E0F601808191810E94B8
:101B700015188BE30E940A181F5FD0CF80EF91E009
:101B80000E94BE1780914D036AE070E0082E000CA1
:101B9000990B0E94151807C082E00E940A188DE276
:101BA00092E00E94BE178BE30E940A188DEE91E02E
:101BB0000E94BE1710E08091EF03181708F092CF33
:101BC000612F70E083E693E00E94FF136AE070E00B
:101BD0008091E8030E94C0171F5FEDCFF11018C07D
:101BE000809152038823A1F088E292E00E94BE1700
:101BF0006AE070E0809157030E94C01780915703FC
:101C00008F5F809357038091EF030E94681804C090
:101C10008EE292E00E94BE178BE30E940A1805C074
:101C200080915703811110925703809153038823A9
:101C300009F4E4C1FF89F11103C088EF91E005C008
:101C40002F89223039F48AEF91E00E94BE178BE38E
:101C50000E940A1880911704811107C08EE192E05A
:101C60000E94BE178BE30E940A18FF2041F1809169
:101C70005303882369F082E292E00E94BE176AE073
:101C800070E0809156030E94C0178BE30E940A18EF
:101C9000809156038F5F809356033F89311109C0AD
:101CA0008091ED0390E02091EF03821B91098897CA
:101CB00034F08091EF030E9468181092EE0383E0E5
:101CC0000E940A1883E392E00E94BE178091F003FD
:101CD000811102C01092F1038091ED038E3F60F0FC
:101CE0008091F5039091F603892B31F486E092E020
:101CF0000E945C181092F1038091F103811186C15A
:101D00008DE493E00E94A11481C167010C94250425
:101D10008091EF038093EE030C94B6048091EF035F
:101D200081508093EF03FF24F3940C94D904F701BE
:101D3000E056FF4F808190E001970817190731F5B1
:101D4000B4CCC301B2010E94742820CD80E04CCDF8
:101D500081E04ACD882309F43BCD8FA198A5801B53
:101D6000910B2091A302022E000C330B2817390788
:101D70000CF037C9BD86B986BE86BA86BF86BB86DB
:101D8000B88ABC863FC01092A5020BC08091A50204
:101D9000811107C0F701EF55FF4F0083B1E0B09309
:101DA000A5026CA17DA1C70146960E94FF13F70111
:101DB000E556FF4F8081EAE0DE9E800D11248A30D7
:101DC00008F48C5900FD03C02D899E8902C02B891F
:101DD0009C89E22FF92F90E0482F50E06081262F58
:101DE000062E000C330B2417350719F06F3F19F43A
:101DF0008083292F01C02FEF9F5F943019F0319617
:101E00002F3F61F30F5F1F4F2CA13DA12F5F3F4F6D
:101E10003DA32CA30ACC101611060CF0E0C0709262
:101E20009E02D5CB1FEF170D123008F45BC9C12EEF
:101E3000D12CA0909B02B0909C02B6016250710917
:101E4000C50146960E94FF13F501E556FF4F8081BC
:101E500090E020919F02022E000C330BD6011197C7
:101E60006D018217930741F02091A002022E000C11
:101E7000330B82179307F1F4A0909B02B0909C0261
:101E8000B601C50146960E94FF13F501E556FF4FC6
:101E9000808190E020919F02022E000C330B82176C
:101EA000930761F12091A002022E000C330B8217E0
:101EB000930721F1A0909B02B0909C02B601C5014E
:101EC00046960E94FF13F501E556FF4F208130E052
:101ED0008091A002082E000C990B2817390709F0F1
:101EE00001C9E0919B02F0919C02EF55FF4F125007
:101EF000108310E08F2D0E94151996CF1250FACF43
:101F00000F5F1F4FB801C60146960E94FF13F601EE
:101F1000E556FF4F208130E08091A002082E000C92
:101F2000990B2817390709F452C0C0909B02D09032
:101F30009C02B801C60146960E94FF13F601E556C1
:101F4000FF4F208130E080919E02082E000C990BFB
:101F50002817390709F0D5C9E0919B02F0919C023E
:101F6000E653FF4F1082CDC90F5F1F4FB801C60166
:101F700046960E94FF13F601E556FF4F208130E0A0
:101F800080919F02082E000C990B28173907F9F051
:101F9000C0909B02D0909C02B801C60146960E9458
:101FA000FF13F601E556FF4F208130E080919D023E
:101FB000082E000C990B2817390709F0E5C8E091A5
:101FC0009B02F0919C02E653FF4F1082DDC8B39450
:101FD000B3948F2D0E94151993C8FE24F9CF7092E7
:101FE0009D02F8A1FF5FF8A3288D398D201B310BCE
:101FF000398F288FF5CA70929F02F3CFF11048CE27
:102000005ECE81110C9499060C94B106E4960FB63D
:10201000F894DEBF0FBECDBFDF91CF911F910F911E
:10202000FF90EF90DF90CF90BF90AF909F908F90F8
:102030007F906F905F904F903F902F900895CF9238
:10204000DF92EF92FF920F931F93CF93DF936C0178
:102050007A018B01C0E0D0E0CE15DF0589F0D80110
:102060006D918D01D601ED91FC910190F081E02DF3
:10207000C6010995892B11F47E0102C02196ECCF8F
:10208000C701DF91CF911F910F91FF90EF90DF90EB
:10209000CF900895089580E090E00895FC01538D5D
:1020A000448D252F30E0842F90E0821B930B541732
:1020B00010F0CF96089501970895FC01918D828DBF
:1020C000981761F0828DDF01A80FB11D5D968C918C
:1020D000928D9F5F9F73928F90E008958FEF9FEF97
:1020E0000895FC01918D828D981731F0828DE80F53
:1020F000F11D858D90E008958FEF9FEF0895FC010D
:10210000918D228D892F90E0805C9F4F821B9109D9
:102110008F739927089586EA92E00E947F1021E04C
:10212000892B09F420E0822F0895FC01848DDF01C2
:10213000A80FB11DA35ABF4F2C91848D90E001963A
:102140008F739927848FA689B7892C93A089B18929
:102150008C9180648C93938D848D981306C0028833
:10216000F389E02D80818F7D80830895EF92FF9227
:102170000F931F93CF93DF93EC0181E0888F9B8DAA
:102180008C8D981305C0E889F989808185FD24C06C
:10219000F62E0B8D10E00F5F1F4F0F731127E02EEF
:1021A0008C8DE8120CC00FB607FCFACFE889F989CC
:1021B000808185FFF5CFCE010E949510F1CF8B8DE8
:1021C000FE01E80FF11DE35AFF4FF0820B8FEA8901
:1021D000FB898081806207C0EE89FF896083E8897E
:1021E000F98980818064808381E090E0DF91CF91E4
:1021F0001F910F91FF90EF900895CF93DF93EC0123
:10220000888D8823C9F0EA89FB89808185FD05C016
:10221000A889B9898C9186FD0FC00FB607FCF5CF50
:10222000808185FFF2CFA889B9898C9185FFEDCF98
:10223000CE010E949510E7CFDF91CF9108950895C8
:102240000895FC0109940E94DF2AFC01808191819C
:10225000009711F00C94AA2660E070E0CB0108957D
:102260000F931F93CF93DF93EC018881998100979F
:1022700029F02A813B812617370788F48B016F5F8D
:102280007F4F0E94152A009761F0998388831B83F2
:102290000A832C813D81232B11F4FC01108281E003
:1022A00001C080E0DF91CF911F910F910895EF92CF
:1022B000FF920F931F93CF93DF93EC017B018A0171
:1022C000BA010E9430112881398181110DC0211578
:1022D000310519F0C9010E941226198218821D8247
:1022E0001C821B821A8206C01D830C83B701C901A0
:1022F0000E94142BCE01DF91CF911F910F91FF907F
:10230000EF900895CF93DF93EC016115710559F0BB
:10231000FB0101900020E9F73197AF01461B570BF5
:102320000E9457110CC088819981009711F00E947A
:102330001226198218821D821C821B821A82CE01EB
:10234000DF91CF910895FF920F931F93CF93DF9367
:1023500000D0CDB7DEB7FF24F39486EA92E00E9466
:102360007F10892B09F450C086EA92E00E945D102C
:102370008A3041F01CF4882329F007C08D3011F019
:10238000833219F4F092430222C089831A820091A9
:102390004B0310914C030F5F1F4FB80187E493E08C
:1023A0000E943011882399F020914703309148030F
:1023B00080914B0390914C03BE016F5F7F4F820F62
:1023C000931F0E94142B10934C0300934B03809196
:1023D0004B0390914C038139914008F4BECF64E3E4
:1023E00072E087E493E00E94821181E692E00E940D
:1023F000E9176AE070E080E991E00E9415188FE526
:1024000092E00E945C18A9CF0F900F90DF91CF91BE
:102410001F910F91FF9008950E948B1081110C94D1
:10242000A3110895FC01808191810C941226FC0176
:102430001182108213821282158214826115710535
:1024400051F0FB0101900020E9F73197AF01461BE5
:10245000570B0C94571108951F920F920FB60F92BD
:1024600011242F933F934F935F936F937F938F9399
:102470009F93AF93BF93EF93FF9386EA92E00E94FE
:102480009510FF91EF91BF91AF919F918F917F91A7
:102490006F915F914F913F912F910F900FBE0F90D1
:1024A0001F9018951F920F920FB60F9211242F9321
:1024B0008F939F93EF93FF93E091B602F091B70251
:1024C0008081E091BC02F091BD0282FD12C090813A
:1024D0008091BF028F5F8F732091C002821751F0ED
:1024E000E091BF02F0E0EA55FD4F958F8093BF0267
:1024F00001C08081FF91EF919F918F912F910F905B
:102500000FBE0F901F9018953FB7F89480915E0210
:1025100090915F02A0916002B091610226B5A89BE4
:1025200005C02F3F19F00196A11DB11D3FBFBA2F65
:10253000A92F982F8827820F911DA11DB11DBC01C5
:10254000CD0142E0660F771F881F991F4A95D1F78A
:1025500008958F929F92AF92BF92CF92DF92EF92A7
:10256000FF926B017C010E9484124B015C01C1143B
:10257000D104E104F104F1F00E948412DC01CB01EA
:1025800088199909AA09BB09883E9340A105B1059C
:1025900070F321E0C21AD108E108F10888EE880E34
:1025A00083E0981EA11CB11CC114D104E104F10404
:1025B00019F7DDCFFF90EF90DF90CF90BF90AF90F5
:1025C0009F908F900895CF92DF92EF92FF920F939A
:1025D0001F93F8940E9484120091430310914403C6
:1025E00020914503309146036B017C01C01AD10A4A
:1025F000E20AF30A97018601609343037093440350
:1026000080934503909346030A3511052105310552
:1026100078F181E0C8168DE7D806E104F10410F4E2
:10262000960102C021E03DE74A9B03C03195219508
:102630003109809122048238D8F4809122048F5F7E
:102640008093220480912304609121040E949329A5
:1026500090932304E0912304F0E0EE0FFF1FEB5D65
:10266000FB4F31832083809123048F5F8093230469
:1026700078941F910F91FF90EF90DF90CF90089585
:102680001F920F920FB60F9211242F933F938F93A7
:102690009F93AF93BF9380915A0290915B02A09158
:1026A0005C02B0915D023091590223E0230F2D3777
:1026B00020F40196A11DB11D05C026E8230F029646
:1026C000A11DB11D2093590280935A0290935B0281
:1026D000A0935C02B0935D0280915E0290915F02D4
:1026E000A0916002B09161020196A11DB11D80937D
:1026F0005E0290935F02A0936002B0936102BF916B
:10270000AF919F918F913F912F910F900FBE0F909E
:102710001F9018951F920F920FB60F9211242F93AE
:102720003F934F935F936F937F938F939F93AF9359
:10273000BF93EF93FF93E0910601F0910701099594
:10274000FF91EF91BF91AF919F918F917F916F9189
:102750005F914F913F912F910F900FBE0F901F905F
:1027600018951F920F920FB60F9211242F933F933B
:102770004F935F936F937F938F939F93AF93BF9389
:10278000EF93FF93E0910401F09105010995FF910A
:10279000EF91BF91AF919F918F917F916F915F91D9
:1027A0004F913F912F910F900FBE0F901F90189552
:1027B0001F920F920FB60F9211242F933F934F93B6
:1027C0005F936F937F938F939F93AF93BF93EF9399
:1027D000FF93E0914002F09141020995FF91EF9142
:1027E000BF91AF919F918F917F916F915F914F9129
:1027F0003F912F910F900FBE0F901F901895CF9380
:10280000DF93FC01EE57FF4F4081469FF001479F49
:10281000F00D11249F0153E0369527955A95E1F765
:10282000DC01AC57BF4F5C91251720F5DC01A20FEE
:10283000B11DEC01CD57DF4F288130E0E770FF2755
:1028400002C035952795EA95E2F73C91232330E0C5
:1028500058E0541B469F402D11244770541B02C062
:10286000359527955A95E2F7322FFC01EB57FF4F2C
:10287000208301C03FEF832FDF91CF910895FC01AA
:10288000E056FF4F2081222309F45AC0E259F10992
:10289000DC0156961192EA17FB07E1F7411102C0DD
:1028A0004FEF420F262F2695542F569560FF13C0E9
:1028B000FC01E656FF4F6081261720F4FC01E20F71
:1028C000F11D3689632F6F70FC01E60FF11D6685DF
:1028D0006F5F66872F5FDC01A656BF4F5217E8F087
:1028E0006C91261720F4FC01E20FF11D3689E32FCD
:1028F000F0E064E0F595E7956A95E1F7E80FF91FD8
:1029000066856F5F6687632F6F70FC01E60FF11DB0
:1029100066856F5F66872F5FE1CF40FD11C0FC01C8
:10292000E656FF4F2081521720F4FC01E50FF11D00
:1029300036893F70FC01E30FF11D86858150868743
:102940000895CF93DF93FC01E056FF4F1082DC0126
:10295000AA53BF4F1C92B7961082FC01168AEB5601
:10296000FF4F108231961082319627E020837196B6
:1029700011821082B0962FEF2083FC012083EA544D
:10298000FF4FEC012E96119211921992EA17FB0754
:10299000D1F7FC01ED55FF4F1082339626E930E068
:1029A000318320833C9640E050E060E87EE3408342
:1029B00051836283738371971082339610823196AC
:1029C0001082B4961082319621E0208331961082D5
:1029D000B9971082DF91CF9108950C9415280C942B
:1029E0000D286FEB8FEF90E00E94ED1468E780EF09
:1029F00090E00E94ED1460E081EF90E00E94ED1401
:102A000064E082EF90E00E94ED146FE183EF90E0CC
:102A10000E94ED1460E484EF90E00E94ED1484E7DE
:102A200092E00C945C18CF938FEF90E00E94EF142B
:102A3000982F91709093500381FB992790F9909370
:102A40004E0382FB992790F990934F0383FB9927BC
:102A500090F99093510384FB992790F99093530335
:102A600085FB992790F99093020186FB882780F9CE
:102A70008093520380EF90E00E94EF148093030153
:102A800082EF90E00E94EF148093540383EF90E074
:102A90000E94EF14C82F84EF90E00E94EF142C2FB7
:102AA000CC0F330B322F2227280F311D30935903BF
:102AB0002093580381EF90E00E94EF14811101C030
:102AC00081E180931904CF910895CF93C82F80316D
:102AD00020F480E392E00E94BE1760E170E08C2F4A
:102AE000CF910C94C0178F929F92AF92BF92CF92CA
:102AF000DF92EF92FF928FB7F894C0905A02D09075
:102B00005B02E0905C02F0905D028FBF8091550205
:102B100090915602A0915702B0915802C816D9065A
:102B2000EA06FB0628F4809154028F5F80935402DA
:102B3000C0925502D0925602E0925702F09258028B
:102B4000A0915402B0E027E339E841E450E00E944C
:102B500023284B015C01C701B60128EE33E040E0B9
:102B600050E00E94C729C501B401620F731F841F82
:102B7000951FFF90EF90DF90CF90BF90AF909F9008
:102B80008F9008950F931F930E9484120091430326
:102B9000109144032091450330914603DC01CB01A1
:102BA000801B910BA20BB30B82309D47A105B10591
:102BB00080F14A9903C02FEF32E802C021E03DE7DF
:102BC000809122048238D8F4809122048F5F809310
:102BD000220480912304609121040E949329909300
:102BE0002304E0912304F0E0EE0FFF1FEB5DFB4FA9
:102BF00031832083809123048F5F809323040E947C
:102C0000841260934303709344038093450390932D
:102C1000460380915202909153029C012F5F3F4FD7
:102C20003093530220935202892B51F48091510228
:102C300091E0980F90935102811102C00E94731588
:102C400020914202E8E5F2E09491E4E4F2E084911C
:102C5000E0E3F2E0E491EE2309F43BC0992339F17B
:102C6000933091F038F49130A9F0923001F594B599
:102C70009F7D12C0973091F09830A1F09430B9F454
:102C8000909180009F7D03C0909180009F779093EA
:102C900080000DC094B59F7794BD09C09091B0009D
:102CA0009F7703C09091B0009F7D9093B000F0E0BB
:102CB000EE0FFF1FE75EFD4FA591B4919FB7F8940B
:102CC000EC91211103C080958E2301C08E2B8C9333
:102CD0009FBF109242021F910F910895E8988FE1D3
:102CE00091E19093050180930401E1E2F4E0118207
:102CF00013821282089583EE92E1909305018093EE
:102D00000401E9E6F0E080818C7F81608083E89AAD
:102D100008958EBD0DB407FEFDCF8EB50895CF93F7
:102D2000DF932A981C99FECF8EE70E948916C0E394
:102D3000D0E0CE010E94EF140E9489162196C8337C
:102D4000D105B9F72A9ADF91CF910895CF93DF93F8
:102D50001F92CDB7DEB72A981C99FECF69830E94D7
:102D600089166981862F0E9489162A9A0F90DF9111
:102D7000CF9108952A981C99FECF862B0E94891620
:102D800080E00E9489162A9A08952A981C99FECFFD
:102D90000E9489161C99FECF2A9A0895CF93C82FB6
:102DA000803120F480E392E00E94BE1760E170E081
:102DB0008C2FCF910C94C01790ED980F9A3070F033
:102DC0009FE9980F963010F499EA05C09FEB980F91
:102DD000963018F499EC980F01C0982F892F089518
:102DE0001F93CF93DF93C82FD0E0CE010E94D4175A
:102DF0000E94DC16182F1295107FCE0101960E94BA
:102E0000D4170E94DC16810FDF91CF911F91089596
:102E1000009769F0FC0101900020E9F73197AF01BC
:102E2000481B590BBC0186EA92E00C941F1080E00D
:102E300090E0089582E392E00C940817CF93DF931B
:102E40000E940817EC010E941A178C0F9D1FDF913A
:102E5000CF9108958F929F92AF92BF920F931F933D
:102E6000CF93DF93CDB7DEB7A1970FB6F894DEBF4F
:102E70000FBECDBF19A2423008F44AE08E010F5DAB
:102E80001F4F842E912CA12CB12CA50194010E94DE
:102E9000C729E62FB901CA0101501109EA3014F41B
:102EA000E05D01C0E95CD801EC93232B242B252B9A
:102EB00061F7C8010E940817A1960FB6F894DEBF0B
:102EC0000FBECDBFDF91CF911F910F91BF90AF90FB
:102ED0009F908F900895DF92EF92FF920F931F9330
:102EE000CF93DF937C018B01EA014617570720F44B
:102EF000812F8A01C62FD82F64E372E0C7010E9498
:102F0000171280914B0390914C0308171907E0F4B6
:102F10008C179D0708F4EC01E0914703F0914803FA
:102F2000EC0FFD1FD0801082609147037091480321
:102F3000600F711FC7010E948211E0914703F09159
:102F40004803EC0FFD1FD082C701DF91CF911F9185
:102F50000F91FF90EF90DF900895CF93DF93682F4C
:102F600070E080E090E04AE00E942A17EC010E94A5
:102F70001A178C0F9D1FDF91CF9108950C9408179D
:102F8000AB01672B59F4E091A602F091A7020190E2
:102F9000F081E02D682F86EA92E00994682F70E0B6
:102FA00080E090E00C942A1720914B0330914C0361
:102FB0008217930760F4209147033091480321154D
:102FC000310529F0F901E80FF91F8081089580E0AB
:102FD00008950F931F93CF93DF938C01C0E0D0E04F
:102FE000F801EC0FFD1F6491662371F0E091A602D9
:102FF000F091A7020190F081E02D86EA92E0099518
:10300000892B11F02196ECCFCE01DF91CF911F914A
:103010000F910895E091A602F091A7020190F0812E
:10302000E02D682F86EA92E00994CF92DF92EF922A
:10303000FF92CF93DF936115710589F4E091A602A9
:10304000F091A7020190F081E02D682F86EA92E0CE
:10305000DF91CF91FF90EF90DF90CF9009946C01BA
:10306000990FEE08FF086A307105D9F4F7FE17C012
:103070008DE20E940A18EC0166277727CB016C19B4
:103080007D098E099F094AE00E942A178C0F9D1F17
:10309000DF91CF91FF90EF90DF90CF9008954AE0BD
:1030A00001C0462FC701B601DF91CF91FF90EF908D
:1030B000DF90CF900C942A17CF93DF930E94E917EB
:1030C000EC010E941A178C0F9D1FDF91CF9108957C
:1030D0000F931F93CF931092F103882309F4A1C09B
:1030E0009091ED03992309F49CC0C82F492F50E01B
:1030F000282F30E024173507A4F0981758F484E9F6
:1031000092E00E94E9178CE892E00E94E9178C2F68
:103110000E94AD178DE493E0CF911F910F910C9415
:10312000A1148091E303482F50E04217530708F49D
:103130006EC0B90176956795B62F2417350739F417
:10314000109263031092E2031092E3033BC040919C
:10315000E203C0FF3DC003E613E0A62FAB1B6417DC
:1031600098F4E62FF0E0E35BFC4F2789522F52954D
:103170005F70968970E1979F90011124252BF801CB
:1031800021938F016F5FE9CF80FD0CC0B0E0A35B9E
:10319000BC4FE62FF0E0E35BFC4F96899295907F61
:1031A00056969C938C1B8093E303482F50E09A0122
:1031B0002150310937FD9A01359527952093E20377
:1031C00080FD02C087E001C083E08093E40311C06A
:1031D000461B4093E20350E04F5F5F4F6D597C4FB9
:1031E00083E693E00E94F92A8091E3038C1B80938D
:1031F000E30381E08093F1038091E3038093ED0387
:1032000081110FC01092FE031092FD030AC085E3E6
:1032100092E00E94BE178C2FCF911F910F910C94BA
:10322000AD17CF911F910F91089590919602409103
:1032300095029730A9F4442399F0E09194026E2FFF
:1032400070E02091990230E0215031096217730734
:10325000A4F5EF5FE0939402F0E0EE59FD4F108289
:1032600050919702652F70E0292F30E02F5F3F4F7C
:10327000261B370B1216130624F401C0880F2A955B
:10328000EAF7E0919402F0E0EE59FD4F2081822BA5
:1032900080834F5F40939502292F092E000C330B3A
:1032A000261B370B37FD04C0951B9093960203C075
:1032B00087E08093960281E0089580E00895CF939F
:1032C000DF93CDB7DEB7CF58D1090FB6F894DEBF84
:1032D0000FBECDBF789484B5826084BD84B5816013
:1032E00084BD85B5826085BD85B5816085BD8091D1
:1032F0006E00816080936E00109281008091810049
:103300008260809381008091810081608093810040
:10331000809180008160809380008091B100846002
:103320008093B1008091B00081608093B000809163
:103330007A00846080937A0080917A008260809322
:103340007A0080917A00816080937A0080917A007F
:10335000806880937A001092C100E091B602F091EB
:10336000B70282E08083E091B602F091B70210824A
:10337000E091B202F091B3021082E091B402F091B8
:10338000B50280E180831092BE02E091BA02F09112
:10339000BB0286E08083E091B802F091B90280819F
:1033A00080618083E091B802F091B90280818860E9
:1033B0008083E091B802F091B902808180688083B7
:1033C000E091B802F091B90280818F7D808386EA16
:1033D00090E00E945C185298259A80E090E00E944C
:1033E000EF14833339F481E090E00E94EF148132CE
:1033F00009F43EC70E94F11463E380E090E00E946C
:10340000ED1461E281E090E00E94ED140E9413153A
:10341000239A80915303882321F084E990E00E944D
:103420005C1862E370E080E090E00E94A91280E105
:10343000809381001092800082E08093460288E1B0
:1034400099E790934502809344029093870080937C
:10345000860082E18093810082EC95E190934102A5
:103460008093400281E080936F0060E971E087E41F
:1034700093E00E9430110E947B16809153038823B1
:1034800021F083E890E00E945C189E012F5F3F4F7F
:10349000390190904302992009F4E3C41092430249
:1034A00080E090E00E94D417803549F48FE291E0EB
:1034B0000E941E178BEC97E00197F1F7C5C48F337C
:1034C00009F060C081E090E00E94D417833591F448
:1034D00003E111E0D8018D919D918D010E94BE17ED
:1034E00083EA91E00E94BE17B1E00B311B0709F49B
:1034F00044C0F0CF8FE30E940A188EE591E00E944D
:10350000E91786E50E940A1880E20E940A1882E5FF
:103510000E940A1880E20E940A1884E70E940A1892
:1035200080E20E940A1888E50E940A1880E20E9440
:103530000A1886E40E940A1880E20E940A1883E5AD
:103540000E940A1880E20E940A1880E50E940A1868
:1035500080E20E940A1883E40E940A1880E20E9416
:103560000A1882E70E940A1880E20E940A1887E57A
:103570000E940A1880E20E940A1884E392E00E94E6
:103580001E1762C4863539F482E391E00E94BE17AB
:103590008DE491E0F4CF823521F580912905909159
:1035A0002A05009711F48DE295E06301C81AD90A43
:1035B0000D2C000CEE08FF08F7FE0BC08DE20E94F8
:1035C0000A1866277727CB016C197D098E099F0998
:1035D000E6C34AE0C701B6010E942A170E941A17E3
:1035E00033C4833509F009C30E946E16C12CD12C57
:1035F0001FEFED961FAEED97912C21E0CB57DF4FDB
:103600002883C558D04006E16BE0862E44244394BD
:1036100060E771E0CE0181599F4F0E94171280919F
:103620004B0390914C03C816D90698F4A090470319
:10363000B0904803E1966EAD7FADE197C5018C0D6A
:103640009D1D0E941B2B009721F07C01EA18FB08AE
:1036500003C0EE24EA94FE2CCE0181599F4F0E94B4
:1036600012127FEFE716F70621F4E6961FAEE697F3
:1036700044C18FEFC816D806C1F3C6010E94D41703
:10368000282F80930101C6010196C157DF4F28837F
:10369000CF58D0400E94D417382F80930001C157D3
:1036A000DF4F2881CF58D040233529F12035D9F478
:1036B000C6010296C257DF4F3883CE58D0400E94D1
:1036C000D417C157DF4F2881CF58D040C257DF4FA2
:1036D0003881CE58D0408D3309F0C8C0560193E0F0
:1036E000A90EB11C0AC08D3309F0C0C05601A2E07A
:1036F000AA0EB11C02C0A12CB12C6701BFEFCB1ADE
:10370000DB0A2335B1F4153009F4B0C0333409F4C1
:10371000AAC03D3419F0323509F07ACF1F5FF301AA
:10372000019FE00DF11D112411821082458A912C18
:103730006FCF223551F5992091F0A701B501CE0147
:1037400081599F4F0E946B17CE0181599F4F0E9454
:103750002511CB57DF4F6883C558D04070C01F3F3D
:1037600009F456CFA701B501CE0181599F4F0E94A0
:103770006B17CE0181599F4F0E942511F301019FC4
:10378000E00DF11D1124658B5AC01F3F09F440CF95
:10379000203591F5A50141505109B50162507109DB
:1037A000CE0181599F4F0E946B17CE0181599F4FC7
:1037B0000E942511562ECE0181599F4F0E94121250
:1037C00038E0351508F452C0A701B501CE01815982
:1037D0009F4F0E946B17CE0181599F4F0E94251168
:1037E000819EF0011124E50DF11DEE0FFF1FE60D86
:1037F000F71D7683658323C0243461F4F301019FB0
:10380000E00DF11D1124A28261E0E61AF108F482B4
:10381000E382FECE2334C9F4A701B501CE0181595C
:103820009F4F0E946B17CE0181599F4F0E94251117
:10383000F301019FE00DF11D112471836083CE011E
:1038400081599F4F0E941212E3CE263409F0E0CE38
:10385000C6018A199B0997FD019695958795ED9666
:103860008FAFED97D5CE99249394D2CE84EC90E08F
:103870000E94E917BFC1E6E1E09FC0011124F301F6
:10388000E80FF91F20813181232B09F443C0F12C6B
:103890009F012B5E3F4FCA57DF4F39832883C6589D
:1038A000D040E896FFAFEEAFE8973396C857DF4FAA
:1038B000F983E883C858D040E8962EAD3FADE8972D
:1038C0002E5F3F4FC657DF4F39832883CA58D040F9
:1038D000CA57DF4FA881B981C658D0408C91F816DD
:1038E00008F495C02B980F5F101728F6E6962FADB9
:1038F000E6972F5FE6962FAFE697E6963FADE69701
:10390000CB57DF4FA880C558D0403A1509F43DC1C8
:1039100000E0B1CF912C9F012B5E3F4FEA963FAF65
:103920002EAFEA9705965301A80EB91EEF96BFAECB
:10393000AEAEEF9722513109C158DF4F398328834A
:10394000CF57D04021503109CD57DF4F39832883DD
:10395000C358D040EA96AEADBFADEA978C919816A9
:1039600008F6C158DF4FA881B981CF57D0400D90DC
:10397000BC91A02DE896BFAFAEAFE897CD57DF4F13
:10398000E881F981C358D040E0800E9484121B0175
:103990002C01F12CE896AEACBFACE897AE14BF0496
:1039A00068F1C7010E94D4178053EF96EEADFFADCA
:1039B000EF97E80FF11DE80FF11DA080B1806501C0
:1039C000B7FE04C0CC24DD24CA18DB080E94841290
:1039D0006215730584059505C8F3B7FE02C02B98E0
:1039E00001C02B9AC601DD0CAA0BBB0B280E391E99
:1039F0004A1E5B1EFFEFEF1AFF0ACCCF0E94841213
:103A00006215730584059505C8F39394A3CFFF2031
:103A100031F061E070E080E090E00E94A912E89649
:103A2000EEADFFADE897C080D180C857DF4FA881C9
:103A3000B981C858D040BC91EE96BFAFEE97C6573B
:103A4000DF4FE881F981CA58D040E0800E9484129B
:103A50004B015C01B601DD0C880B990BEC966CAF49
:103A60007DAF8EAF9FAFEC97660F771F881F991FB2
:103A7000C158DF4F688379838A839B83CF57D040B7
:103A8000EE96CFACEE97CE1408F47DC08E2D90E06C
:103A90000E94D4178A3314F097E301C090E3891B86
:103AA00044E050E038E0C82E880FDD08CD57DF4FE6
:103AB000D982C882C358D0401401250120E0C32E0A
:103AC000D12CCD57DF4FA881B981C358D040CA222D
:103AD000DB22C114D10409F441C02B98EC966CADE3
:103AE0007DAD8EAD9FADEC97260E371E481E591E3C
:103AF000C157DF4F2883CF58D040C257DF4F38839C
:103B0000CE58D040C457DF4F4883CC58D040C3571D
:103B1000DF4F5883CD58D0400E948412C157DF4FE9
:103B20002881CF58D040C257DF4F3881CE58D0407F
:103B3000C457DF4F4881CC58D040C357DF4F58811E
:103B4000CD58D040621573058405950588F2213063
:103B500039F021E0C114D10409F4BFCF2B9ABECFB4
:103B6000C158DF4F88819981AA81BB81CF57D0404E
:103B7000880E991EAA1EBB1E36954150510909F0A8
:103B80009BCFE3947DCFF394A3CE40914B03509110
:103B90004C03609147037091480386EA92E00E94CB
:103BA0001F10ED96BFACED97BB2021F182EB90E0AA
:103BB0000E94E9170FE010E081EF800FED96CFAC87
:103BC000ED978C15B8F4C8010E94EF14682FC45704
:103BD000DF4F6883CC58D0400E946515C457DF4F33
:103BE0006881CC58D0408EEF800F0E94A6160F5FE0
:103BF0001F4FE2CF0E947B16C0CC843719F40E947D
:103C00007315CDC0883591F481E090E00E94D417FF
:103C1000813511F40E946E1681E090E00E94D41765
:103C2000853409F011C10E947B160EC1863409F457
:103C30000BC1833409F0B5C081E090E00E94D41735
:103C4000182F873409F07CC087E391E00E94E917C0
:103C5000809150036AE070E090E00E94151882E3C2
:103C600091E00E94E91780914E036AE070E090E0D5
:103C70000E9415188DE291E00E94E91780914F0390
:103C80006AE070E090E00E94151886E291E00E94E0
:103C9000E917809151036AE070E090E00E941518E6
:103CA00080910201811104C08FE191E00E94E91727
:103CB00080915203882321F08FE091E00E94E91760
:103CC00086E091E00E94E917809153036AE070E07A
:103CD00090E00E9415188EEF90E00E94E9176AE0CC
:103CE00070E0809154030E94C0178EEE90E00E9415
:103CF000E917609158037091590380E090E04AE021
:103D00000E942A1780911904813151F080EE90E0D1
:103D10000E94E9176AE070E0809119040E94C017C0
:103D200080915303882309F428CC80ED90E00E9411
:103D3000E9176AE070E0809103010E94C0171DCC72
:103D40008CEB810F823008F078C03CC363E08612B0
:103D500014CC40914B0350914C03B8016F5F7F4FDF
:103D6000C3010E946B17C3010E9425117093590370
:103D700060935803C3010E9412126091590383EFAC
:103D800090E00E94ED146091580384EF90E00E944F
:103D9000ED14609158037091590380E090E04AE07F
:103DA0001BCC873579F581E090E00E94D417082E6E
:103DB000000C990B0E94E42A892B09F441C082E08F
:103DC00090E00E94D417082E000C990B0E94E42A60
:103DD000892BB1F183E090E00E94D417082E000CEB
:103DE000990B0E94E42A892B59F184E090E00E940B
:103DF000D417082E000C990B0E94E42A892B09F095
:103E0000FDC21EC0823709F006C381E090E00E9427
:103E1000D417082E000C990B0E94E42A892B81F0FC
:103E200082E090E00E94D417082E000C990B0E94AB
:103E3000E42A892B09F0FEC203C0133509F41DC220
:103E40008BE391E00E945C1880914302811106C0CF
:103E500064E372E087E493E00E94821181E0809342
:103E6000420210925A0301E080912204882309F44F
:103E7000FCC180912204815080932204809124040B
:103E8000609121040E94932990932404E0912404DA
:103E900081E08E0F80932404F0E0EE0FFF1FEB5DB6
:103EA000FB4F80819181909348028093470210924A
:103EB000F0036091ED036623E9F070E06150710951
:103EC00083E693E00E94FF138091E80390E0880F5F
:103ED000991F8D5F9B4F9093FE038093FD03E091AC
:103EE000FB03F091FC03808191819093EC0380931C
:103EF000EB0304C01092FE031092FD0320914702D1
:103F000030914802E091FB03F091FC033183208360
:103F10008091ED03882361F0E091FD03F091FE03B1
:103F2000309731F0408151814227532757FF03C01A
:103F30002115334864F51AE080E00E9480018091E9
:103F4000ED03811105C01092FE031092FD0306C01F
:103F5000115091F78DE493E00E94A1141092550343
:103F60001092560320911404E091FB03F091FC039E
:103F700080819181E22FF0E0EE0FFF1FED5FFB4F9C
:103F8000918380832F5F2093140410E023C18E3F20
:103F900070F081E00E9480018091570381113BC045
:103FA00040E060E08DE493E00E943F1434C088322A
:103FB00091F5A3E0B0E0B093F603A093F5038091F0
:103FC0001B0490911C04009751F420911D04309122
:103FD0001E04232B21F420911F0420FF1CC0E0911C
:103FE0001D04F0911E0440911F04509120049A0179
:103FF0003595279540FF0AC0DC01A20FB31F4D91F4
:104000005C91E40FF51F0190F081E02D820F931F6A
:10401000099580931A04C090FB03D090FC03F6012D
:10402000E080F180B701F7FE04C0662777276E199C
:104030007F09072E000C880B990B0E94ED262DECB2
:104040003CEC4CE45EE30E944C270E945A29AB01F1
:104050007093F4036093F303B0901304E3E0F4E08F
:1040600080E090E0182F8B1500F521913191B90176
:104070006E257F2577FD17C021153105A1F0DC01E4
:10408000A35BBC4F1E966C91662369F0B701621B5F
:10409000730B9B0177FF03C03195219531094217BE
:1040A00053070CF0FCC10196DDCF1FEF8091570341
:1040B000882321F082E00E9480018CC0B8E0BB120E
:1040C00064C0E0911404F0E0E35BFC4F868583302C
:1040D00060F18091F5039091F603181619062CF5FE
:1040E0001AE0F12C80915A03882321F010925A0390
:1040F000FF24F39482E00E9480018091ED038832D6
:1041000068F41092550310925603F0925A0340E05F
:1041100060E08DE493E00E943F1407C080915A0351
:10412000882379F31150F1F6ECCF1091ED031123B0
:1041300061F1E0911404F0E0E35BFC4F8685882395
:1041400021F1612F70E06150710983E693E00E94D4
:10415000FF139091E8038091140498130AC0812FF3
:104160000E94681840E060E08DE493E00E943F14F4
:104170000CC0113041F48091ED038E3F20F083EFAD
:1041800091E00E945C181150E1F610911404E09146
:10419000FB03F091FC0380819181E12FF0E0EE0FB1
:1041A000FF1FED5FFB4F9183808381E0810F88309B
:1041B00019F08093140406C0109214048093130421
:1041C000109216048091140490911304981710F41F
:1041D00080931304612F8091E4039091E30387306F
:1041E000B1F49923A1F0E091E2034E2F50E0209129
:1041F000E70330E021503109421753070CF0AFC1FB
:10420000EF5FE093E203F0E0E35BFC4F168A70910E
:10421000E503272F30E0482F50E04F5F5F4F421BF0
:10422000530B141615062CF4612F01C0660F4A9526
:10423000EAF7E091E203F0E0E35BFC4F4689642B90
:10424000668B9F5F9093E303482F082E000C550B5D
:10425000FA01E21BF30BF7FD04C0871B8093E40314
:1042600046C1F7E0F093E40342C10E940C1211C969
:1042700088E690E00E945C18C9C86CE172E0C30156
:104280000E94171280914B0390914C03059788F080
:10429000009147031091480369817A81C80104960F
:1042A0000E941B2B009729F0FC01E01BF10B8F01F2
:1042B00002C00FEF1FEFC3010E94121293E1A92E5B
:1042C00091E0B92EE12CF12C11278E2CD501CD9047
:1042D000DD905D01A80162E070E0C3010E946B17F0
:1042E0008D819E81892B49F4C114D10421F021E0F4
:1042F000F60180810AC0292D12C089819A81C114DA
:10430000D10431F421E0DC018C91882341F006C016
:10431000B6010E940B2B21E0892B09F020E0C3019C
:10432000C157DF4F2883CF58D0400E941212C15787
:10433000DF4F2881CF58D040222379F1C6010E9457
:10434000BE178CE192E00E94BE17B3E08B1699F184
:1043500040914B0350914C03B8016F5F7F4FC301F5
:104360000E946B17C3010E942511D62EC62EC301D1
:104370000E9412128D2D0E94AD17F701E25FFE4FD1
:1043800080816D2D90E00E94ED14882089F0E1E09D
:104390008E1212C0D092190457CDFFEFEF1AFF0A08
:1043A00024E0E216F10409F090CF84E0882E03C0E7
:1043B000D092030149CDC12C32E08312C7CCC09208
:1043C000540342CD82E090E00E94D417833509F473
:1043D000DCC2853509F4C7C2833409F4C7C282350B
:1043E00009F4C7C2843409F4C7C28C3409F4C7C2C3
:1043F0008F3409F0C7C2E2E5F3E0C9C281E00E9450
:10440000F016182F83E00E94F016682F812F90E09D
:104410000E94ED1419CD853609F012CD81E090E0AF
:104420000E94D417833409F00BCD0E94F1140E942E
:1044300013150ACD81E00E94F016082F86E591E061
:104440000E94E917802F0E94651583E090E00E948A
:10445000D41710E08E36C9F483E591E00E94E91785
:10446000E12CF12C83EA91E00E94BE17C701800F76
:10447000911F0E94EF140E9465157FEFE71AF70A5B
:1044800080E1E816F10471F778C88FE491E00E94AA
:10449000E917C8010E94EF140E9465156EC817FD48
:1044A00005CE812F880F990BDC01AD5FBB4F7D01DD
:1044B0006D917C91AB01770F660B770BF6018081D4
:1044C0009181092E000CAA0BBB0B5A016B01A80E9F
:1044D000B91ECA1EDB1EC601B50122E030E040E075
:1044E00050E00E94E929D7012D933C9373CE80912F
:1044F000ED038F5F8093ED03E091FB03F091FC03EC
:10450000808191819093EA038093E903E12F110F59
:10451000FF0BE35BFC4F86858F5F8687809153039B
:10452000882389F080915A03882369F0109122042E
:1045300080910301811738F482E092E00E94E9172C
:10454000812F0E94AD1780915A03882329F0809112
:10455000020181110093420210925A0385CC8EEE23
:1045600091E00E94E9176AE070E0812F0E94C01775
:1045700084EE91E00E94E9176AE070E08091E20326
:104580000E94C01780ED91E00E945C188DEB91E0D5
:104590000E94BE17E0911504E7FDD4C0EE0FFF0B9B
:1045A000ED5FFB4F6AE070E0808191810E941518F9
:1045B00082E791E00E94BE17E0911504EE0FFF0B19
:1045C000ED5FFB4F60817181072E000C880B990B0A
:1045D0000E94ED266B017C01E0914D03EE0FFF0B75
:1045E000ED5FFB4F60817181072E000C880B990BEA
:1045F0000E94ED269B01AC01C701B6010E94E12893
:104600006B017C014B015C019B01AC010E948E2976
:10461000882319F081E891E01AC016012701E89477
:1046200057F82FEF3FEF4FE75FE7C201B1010E945C
:104630008E2981110FC02FEF3FEF4FE75FE7C201D7
:10464000B1010E94E62618162CF485E891E00E943C
:10465000081774C02FEF3FEF4FE75FE4C701B601C3
:104660000E94892918161CF489E891E0F0CF2FEFF9
:104670003FEF4FE75FECC701B6010E94E62687FDDA
:10468000F3CF20E030E0A901C701B6010E94E62681
:1046900087FF09C08DE20E940A1846015701B7FA48
:1046A000B094B7F8B0942AE037ED43EA5BE3C50174
:1046B000B4010E9475284B015C010E945A296B01CC
:1046C0007C010E94EB269B01AC01C501B4010E9454
:1046D00074284B015C014AE0C701B6010E942A1709
:1046E0008EE20E940A1820E030E040E251E4C50169
:1046F000B4010E944C274B015C010E945A296B01B6
:10470000E12CF12C4AE0C701B6010E942A17C7012B
:10471000B6010E94EB269B01AC01C501B4010E94C9
:10472000742820E030E040E251E40E944C270E94CF
:104730005A2980E090E04AE00E942A178DE891E033
:104740000E94BE178FE891E00E94BE17E0914D03D2
:10475000E7FD0BC0EE0FFF0BED5FFB4F6AE070E073
:10476000808191810E94151804C088E991E00E941F
:10477000BE1784EC91E00E94E9176AE070E0809136
:1047800013040E94C0178DE991E00E94BE176AE0F1
:1047900070E0809114040E94C01780EA91E00E94AA
:1047A000BE1780EB91E00E94E917E091FB03F091C6
:1047B000FC036AE070E0808191810E94151882EA12
:1047C00091E00E94BE17E091FD03F091FE036AE0C4
:1047D00070E0808191810E94151882EA91E00E9428
:1047E000BE176AE070E08091E9039091EA030E94AD
:1047F000151882EA91E00E94BE176AE070E080918D
:10480000EB039091EC030E94151885EA91E00E9459
:10481000E9176AE070E08091EE030E94C0178CE90E
:1048200091E00E94E9176AE070E08091EF030E9436
:10483000C01781E991E00E94E9176AE070E0809179
:10484000E3030E94C01789E891E00E94E917809174
:1048500016046AE070E090E00E9415188EE791E07F
:104860000E94E9178091F1036AE070E090E00E94F5
:10487000151884E791E00E94E9176AE070E08091E2
:10488000F5039091F6030E9415180E941A178BE603
:1048900091E00E94E917F12C8091ED03F81688F45D
:1048A0006F2D70E083E693E00E94FF138091E80390
:1048B0006AE070E0082E000C990B0E941518F39422
:1048C000EBCF85EA91E00E94BE1788EA91E00E9452
:1048D000BE176AE070E08091ED030E94C0178BEA7A
:1048E00091E00E941E178DEA91E00E94BE17D12C24
:1048F00080911304D81670F587EB91E00E94BE17E3
:104900006AE070E08D2D0E94C01781EC91E00E945A
:10491000BE17ED2CF12CF701E35BFC4F6AE070E071
:1049200086850E94C0178AEB91E00E94BE17F701AE
:10493000EE0FFF1FED5FFB4F80819181009721F00B
:104940006AE070E00E9415188BEA91E00E94BE17A1
:10495000D394CECF84E392E00E941E1784E392E0CA
:104960000E941E17C9CDEEE4F3E011C0EFE4F3E0BE
:104970000EC0E1E5F3E00BC0E3E5F3E008C0E2E0E0
:10498000F1E005C0E0E0F0E002C0E0E5F3E015345E
:1049900019F481E0808301C0108260915003962F4A
:1049A000906860914E03660F692B90914F0324E04D
:1049B000929FC0011124682B9091510338E0939F7E
:1049C000F00111246E2B9091530370E1979FA00189
:1049D0001124642B9091020180E2989F9001112490
:1049E000622B90915203A0E49A9FC0011124682B7E
:1049F0008FEF90E00DCD87E493E00C941212CF93EB
:104A0000DF93E6EAF2E01382128288EE93E0A0E000
:104A1000B0E084839583A683B78381E291E091839C
:104A2000808385EC90E09587848784EC90E097877D
:104A3000868780EC90E0918B808B81EC90E0938B6B
:104A4000828B82EC90E0958B848B86EC90E0978B48
:104A5000868B118E128E138E148EE1E2F4E082E8C2
:104A60008083118213821282CDE4D3E08FE780939A
:104A7000E70384E08093E5031E8A1092E20310921C
:104A8000E30387E08093E40380EF8093E603E7EF9E
:104A9000F3E0F093FC03E093FB0389EF93E0909342
:104AA000FE038093FD0310921C0410921B041092CD
:104AB0001E0410921D041092200410921F041182F3
:104AC0001082CE010E94A11481E1809319041886FE
:104AD00019861A8664E372E087E493E00E94171255
:104AE0000E948412609343037093440380934503B0
:104AF00090934603DF91CF910895CF93DF93823057
:104B0000910510F482E090E0E0912B05F0912C05E6
:104B100020E030E0C0E0D0E0309711F140815181D9
:104B200048175907C0F04817590761F482819381EB
:104B3000209719F09B838A832BC090932C05809338
:104B40002B0526C02115310519F04217530718F41B
:104B50009A01BE01DF01EF010280F381E02DDCCF7D
:104B60002115310509F1281B390B2430310590F44A
:104B700012968D919C9113976115710521F0FB019F
:104B80009383828304C090932C0580932B05FD01B1
:104B9000329644C0FD01E20FF31F8193919322509E
:104BA00031092D933C933AC02091290530912A0573
:104BB000232B41F420910A0130910B0130932A05F7
:104BC0002093290520910801309109012115310513
:104BD00041F42DB73EB740910C0150910D01241BBB
:104BE000350BE0912905F0912A05E217F307A0F4AF
:104BF0002E1B3F0B2817390778F0AC014E5F5F4F33
:104C00002417350748F04E0F5F1F50932A05409335
:104C100029058193919302C0E0E0F0E0CF01DF919C
:104C2000CF9108950F931F93CF93DF93009709F4CB
:104C30008CC0FC0132971382128200912B051091D7
:104C40002C050115110581F420813181820F931FFC
:104C50002091290530912A052817390779F5F09315
:104C60002A05E093290571C0D80140E050E0AE1755
:104C7000BF0750F412962D913C911397AD01211569
:104C8000310509F1D901F3CF9D01DA013383228384
:104C900060817181860F971F8217930769F4EC0179
:104CA00028813981260F371F2E5F3F4F31832083A4
:104CB0008A819B8193838283452B29F4F0932C0571
:104CC000E0932B0542C01396FC93EE931297ED01EF
:104CD000499159919E01240F351FE217F30771F492
:104CE00080819181840F951F029611969C938E93DB
:104CF0008281938113969C938E931297E0E0F0E06B
:104D0000D80112968D919C911397009719F0F80194
:104D10008C01F6CF8D919C9198012E5F3F4F820FB1
:104D2000931F2091290530912A052817390769F426
:104D3000309729F410922C0510922B0502C0138293
:104D4000128210932A0500932905DF91CF911F91BC
:104D50000F9108951F93FC0199278827BC01E894BF
:104D600011911032E9F3193010F01E30C8F31B32E4
:104D700051F01D3249F4689406C00E94D126610F9B
:104D8000711D811D911D119110531A30B0F33EF425
:104D900090958095709561957F4F8F4F9F4F1F9194
:104DA0000895592F482F372F262F660F771F881FFA
:104DB000991F660F771F881F991F620F731F841F2B
:104DC000951F660F771F881F991F08950E94282737
:104DD00008F481E00895E89409C097FB3EF49095AB
:104DE0008095709561957F4F8F4F9F4F9923A9F0C4
:104DF000F92F96E9BB279395F69587957795679553
:104E0000B795F111F8CFFAF4BB0F11F460FF1BC096
:104E10006F5F7F4F8F4F9F4F16C0882311F096E929
:104E200011C0772321F09EE8872F762F05C06623D7
:104E300071F096E8862F70E060E02AF09A95660F90
:104E4000771F881FDAF7880F9695879597F9089549
:104E5000990F0008550FAA0BE0E8FEEF161617068B
:104E6000E807F907C0F012161306E407F50798F0F3
:104E7000621B730B840B950B39F40A2661F0232B0C
:104E8000242B252B21F408950A2609F4A140A69588
:104E90008FEF811D811D08950E945F270C94D327F9
:104EA0000E94C52738F00E94CC2720F0952311F0EE
:104EB0000C94BC270C94C22711240C9407280E9440
:104EC000E42770F3959FC1F3950F50E0551F629F43
:104ED000F001729FBB27F00DB11D639FAA27F00D53
:104EE000B11DAA1F649F6627B00DA11D661F829F7A
:104EF0002227B00DA11D621F739FB00DA11D621F5F
:104F0000839FA00D611D221F749F3327A00D611D7B
:104F1000231F849F600D211D822F762F6A2F11245D
:104F20009F5750409AF0F1F088234AF0EE0FFF1F90
:104F3000BB1F661F771F881F91505040A9F79E3FE7
:104F4000510580F00C94BC270C9407285F3FE4F3D4
:104F5000983ED4F3869577956795B795F795E7953D
:104F60009F5FC1F7FE2B880F911D9695879597F946
:104F7000089599278827089597F99F6780E870E03A
:104F800060E008959FEF80EC089500240A941616BF
:104F9000170618060906089500240A941216130627
:104FA000140605060895092E0394000C11F48823B5
:104FB00052F0BB0F40F4BF2B11F460FF04C06F5FD1
:104FC0007F4F8F4F9F4F089557FD9058440F551FA7
:104FD00059F05F3F71F04795880F97FB991F61F07B
:104FE0009F3F79F087950895121613061406551FF2
:104FF000F2CF4695F1DF08C0161617061806991F5E
:10500000F1CF86957105610508940895E894BB2752
:1050100066277727CB0197F90895F999FECF92BDBE
:1050200081BDF89A992780B50895262FF999FECF6A
:105030001FBA92BD81BD20BD0FB6F894FA9AF99AB5
:105040000FBE019608950E946528A59F900DB49FFC
:10505000900DA49F800D911D112408952F923F92D1
:105060004F925F926F927F928F929F92AF92BF9278
:10507000CF92DF92EF92FF920F931F93CF93DF9324
:10508000CDB7DEB7CA1BDB0B0FB6F894DEBF0FBE81
:10509000CDBF09942A88398848885F846E847D84CE
:1050A0008C849B84AA84B984C884DF80EE80FD80D0
:1050B0000C811B81AA81B981CE0FD11D0FB6F89446
:1050C000DEBF0FBECDBFED010895A29FB001B39F1B
:1050D000C001A39F700D811D1124911DB29F700D01
:1050E000811D1124911D08955058BB27AA270E94A5
:1050F0008C280C94D3270E94C52738F00E94CC2717
:1051000020F039F49F3F19F426F40C94C2270EF4D2
:10511000E095E7FB0C94BC27E92F0E94E42758F3A5
:10512000BA17620773078407950720F079F4A6F58C
:105130000C9406280EF4E0950B2EBA2FA02D0B012F
:10514000B90190010C01CA01A0011124FF27591BCC
:1051500099F0593F50F4503E68F11A16F040A22FD2
:10516000232F342F4427585FF3CF46953795279543
:10517000A795F0405395C9F77EF41F16BA0B620B42
:10518000730B840BBAF09150A1F0FF0FBB1F661F89
:10519000771F881FC2F70EC0BA0F621F731F841FCC
:1051A00048F4879577956795B795F7959E3F08F0F2
:1051B000B0CF9395880F08F09927EE0F97958795B4
:1051C00008950E94F5280C94D3270E94CC2758F00C
:1051D0000E94C52740F029F45F3F29F00C94BC27BA
:1051E00051110C9407280C94C2270E94E42768F3FD
:1051F0009923B1F3552391F3951B550BBB27AA2790
:1052000062177307840738F09F5F5F4F220F331FC9
:10521000441FAA1FA9F335D00E2E3AF0E0E832D091
:1052200091505040E695001CCAF72BD0FE2F29D094
:10523000660F771F881FBB1F261737074807AB0766
:10524000B0E809F0BB0B802DBF01FF2793585F4FDB
:105250003AF09E3F510578F00C94BC270C94072837
:105260005F3FE4F3983ED4F3869577956795B795BD
:10527000F7959F5FC9F7880F911D9695879597F9C8
:105280000895E1E0660F771F881FBB1F6217730741
:105290008407BA0720F0621B730B840BBA0BEE1F56
:1052A00088F7E09508950E945A296894B1110C94EA
:1052B000072808950E94EC2788F09F5798F0B92F8F
:1052C0009927B751B0F0E1F0660F771F881F991F3B
:1052D0001AF0BA95C9F714C0B13091F00E940628AF
:1052E000B1E008950C940628672F782F8827B85FBF
:1052F00039F0B93FCCF3869577956795B395D9F793
:105300003EF490958095709561957F4F8F4F9F4F9C
:1053100008950E94282708F48FEF08950E942827F7
:10532000880B990B0895991B79E004C0991F961773
:1053300008F0961B881F7A95C9F780950895AA1BD7
:10534000BB1B51E107C0AA1FBB1FA617B70710F070
:10535000A61BB70B881F991F5A95A9F780959095A2
:10536000BC01CD01089597FB072E16F4009407D0D9
:1053700077FD09D00E949F2907FC05D03EF4909547
:1053800081959F4F0895709561957F4F0895A1E293
:105390001A2EAA1BBB1BFD010DC0AA1FBB1FEE1FAF
:1053A000FF1FA217B307E407F50720F0A21BB30BFA
:1053B000E40BF50B661F771F881F991F1A9469F776
:1053C00060957095809590959B01AC01BD01CF01D2
:1053D0000895052E97FB1EF400940E94002A57FDA5
:1053E00007D00E94C72907FC03D04EF40C94002A72
:1053F00050954095309521953F4F4F4F5F4F089501
:1054000090958095709561957F4F8F4F9F4F089530
:105410000E946528B7FF0895821B930B0895EE0F35
:10542000FF1F0590F491E02D0994A0E0B0E0EBE1BE
:10543000FAE20C943228EC01009721F4CB010E948F
:105440007D25B8C0FC01E60FF71F9C0122503109F1
:10545000E217F30708F4ACC0D9010D911C91119724
:1054600006171707B0F00530110508F49FC0C801F2
:1054700004978617970708F499C002501109061B74
:10548000170B019311936D937C93CF010E94122609
:105490008DC05B01A01AB10A4C01800E911EA09133
:1054A0002B05B0912C0540E050E0E12CF12C109739
:1054B00009F44AC0A815B905D1F56D907C901197F3
:1054C000630182E0C80ED11CCA14DB0480F1A30181
:1054D0004A195B096A0182E0C80ED11C1296BC9081
:1054E00012971396AC91B5E0CB16D10440F0B2827E
:1054F000A38351834083D9016D937C930AC00E5FCF
:105500001F4FC301800F911FF90191838083EB2D01
:10551000FA2FE114F10431F0D7011396FC93EE93C6
:10552000129744C0F0932C05E0932B053FC08D915A
:105530009C9111974817590708F4AC017D01129608
:105540000D90BC91A02DB3CF8091290590912A0593
:1055500088159905E1F446175707C8F480910801AA
:1055600090910901009741F48DB79EB740910C01CD
:1055700050910D01841B950BE817F907C8F4F093BF
:105580002A05E0932905F901718360830FC0CB01DF
:105590000E947D257C01009759F0A801BE010E9460
:1055A000F02ACE010E941226C70104C0CE0102C01B
:1055B00080E090E0CDB7DEB7EEE00C944E2881E0BD
:1055C00090E0F8940C94D62D91110C94B927805347
:1055D0008A5028F0865C806281568650B0F7089524
:1055E000FB01DC0102C001900D9241505040D8F700
:1055F00008956817790768F4FB01DC01E40FF51FD3
:10560000A40FB51F02C002900E9241505040D8F72F
:1056100008950C94F02AFB01DC018D910190801912
:105620000110D9F3990B0895FB01DC0101900D9253
:105630000020E1F70895FB0151915523A9F0BF0126
:10564000DC014D9145174111E1F759F4CD0101906D
:10565000002049F04D9140154111C9F3FB01411162
:10566000EFCF81E090E001970895AEE0B0E0EBE38A
:10567000FBE20C943C280D891E8986E08C831A83FA
:1056800009838FEF9FE79E838D83AE01475E5F4F57
:105690006F89788DCE0101960E94582B2F81388515
:1056A000F801E20FF31F10822E96E4E00C945828C4
:1056B000ACE0B0E0EEE5FBE20C942E287C016B013F
:1056C0008A01FC0117821682838181FFBDC1CE0150
:1056D00001964C01F7019381F60193FD859193FFAB
:1056E00081916F01882309F4ABC1853239F493FDB0
:1056F000859193FF81916F01853229F4B70190E084
:105700000E94402DE7CF512C312C20E02032A0F414
:105710008B3269F030F4803259F0833269F42061C1
:105720002CC08D3239F0803339F4216026C02260DC
:10573000246023C0286021C027FD27C030ED380F2A
:105740003A3078F426FF06C0FAE05F9E300D11244F
:10575000532E13C08AE0389E300D1124332E206260
:105760000CC08E3221F426FD6BC1206406C08C363D
:1057700011F4206802C0883641F4F60193FD85914A
:1057800093FF81916F018111C1CF982F9F7D955417
:10579000933028F40C5F1F4FFFE3F9830DC083366D
:1057A00031F0833771F0833509F05BC022C0F80116
:1057B000808189830E5F1F4F44244394512C5401F0
:1057C00015C03801F2E06F0E711CF801A080B180A5
:1057D00026FF03C0652D70E002C06FEF7FEFC501AB
:1057E0002C870E94352D2C0183012C852F77222EAA
:1057F00017C03801F2E06F0E711CF801A080B18073
:1058000026FF03C0652D70E002C06FEF7FEFC5017A
:105810002C870E942A2D2C012C852068222E8301A2
:1058200023FC1BC0832D90E048165906B0F4B70145
:1058300080E290E00E94402D3A94F4CFF50127FCDD
:10584000859127FE81915F01B70190E00E94402D74
:1058500031103A94F1E04F1A51084114510471F794
:10586000E5C0843611F0893639F5F80127FF07C005
:1058700060817181828193810C5F1F4F08C06081BC
:105880007181072E000C880B990B0E5F1F4F2F762E
:10589000722E97FF09C090958095709561957F4F06
:1058A0008F4F9F4F2068722E2AE030E0A4010E94A3
:1058B000782DA82EA81844C0853729F42F7EB22E43
:1058C0002AE030E025C0F22FF97FBF2E8F36C1F0DD
:1058D00018F4883579F0B4C0803719F0883721F092
:1058E000AFC02F2F2061B22EB4FE0DC08B2D84606F
:1058F000B82E09C024FF0AC09F2F9660B92E06C09B
:1059000028E030E005C020E130E002C020E132E0D4
:10591000F801B7FE07C060817181828193810C5FBD
:105920001F4F06C06081718180E090E00E5F1F4FC5
:10593000A4010E94782DA82EA818FB2DFF777F2E9A
:1059400076FE0BC0372D3E7FA51450F474FE0AC0BE
:1059500072FC08C0372D3E7E05C0BA2C372D03C01F
:10596000BA2C01C0B52C34FF0DC0FE01EA0DF11DAB
:105970008081803311F4397E09C032FF06C0B394B0
:10598000B39404C0832F867809F0B39433FD13C019
:1059900030FF06C05A2CB31418F4530C5B18B32C08
:1059A000B31468F4B70180E290E03C870E94402D78
:1059B000B3943C85F5CFB31410F43B1801C0312CDF
:1059C00034FF12C0B70180E390E03C870E94402D75
:1059D0003C8532FF17C031FD03C088E790E002C06C
:1059E00088E590E0B7010CC0832F867859F031FF2D
:1059F00002C08BE201C080E237FD8DE2B70190E08A
:105A00000E94402DA51438F4B70180E390E00E9475
:105A1000402D5A94F7CFAA94F401EA0DF11D80812C
:105A2000B70190E00E94402DA110F5CF332009F47A
:105A300051CEB70180E290E00E94402D3A94F6CF1B
:105A4000F7018681978102C08FEF9FEF2C96E2E1EC
:105A50000C944A28FC010590615070400110D8F761
:105A6000809590958E0F9F1F0895FC0161507040A6
:105A700001900110D8F7809590958E0F9F1F089583
:105A80000F931F93CF93DF93FB01238121FD03C06D
:105A90008FEF9FEF28C022FF16C0468157812481D7
:105AA00035814217530744F4A081B1819D012F5FD6
:105AB0003F4F318320838C93268137812F5F3F4F67
:105AC0003783268310C0EB01092F182F0084F1853E
:105AD000E02D0995892BE1F68E819F8101969F83A8
