:100000000C94B1010C946C2B0C94992B0C94D90189
:100010000C94D9010C94D9010C94D9010C94D901F8
:100020000C94D9010C94D9010C94D9010C94D901E8
:100030000C94D9010C942D2A0C94D9010C94D9015B
:100040000C94542A0C94D9010C946A2D0C949C2D78
:100050000C94D9010C94D9010C94D9010C94D901B8
:100060000C94D9010C94D9015369676E616C3A20E4
:10007000002C2073746174653A20002C206D74721A
:10008000756E633A20002C204D43443A20002C200A
:1000900076616C636E743A20002C206D656E643A54
:1000A00020002C206D53746172743A20002C205073
:1000B000756C73653A20462F4C2F464C2F4C5020C0
:1000C000002C20506174744C656E3A20006D4F76A0
:1000D0006572666C6F772673746174653D302100BC
:1000E0002061646444617461206F766572666C6F30
:1000F000772121002062797465636E743D0076611A
:100100006C3D00206D62206E6D20622070726F6306
:1001100020002073746172743D0020627566664D24
:100120006F7665206F766572666C6F772100526519
:100130006164696E672076616C7565732066726FA5
:100140006D20656570726F6D00496E69742065651C
:1001500070726F6D20746F2064656661756C747366
:1001600000636D6420746F206C6F6E6721003B4DDF
:100170006465624669666F4C696D69743D003B6DEC
:10018000634D696E4269744C656E3D003B4D75531D
:10019000706C69745468726573683D005F4D536399
:1001A0006E743D003B4D64656275673D003B4D6676
:1001B000696C743D31003B4C45443D30003B4D7211
:1001C00065643D003B4D433D003B4D553D004D5367
:1001D0003D00556E737570706F7274656420636F47
:1001E0006D6D616E640020746F2050415441424C2B
:1001F0004520646F6E650057726974652000203D6C
:100200002000203A00454550524F4D200063633195
:10021000313031200020557365206F6E65206F6688
:10022000200063637265672077726974652062617C
:10023000636B200073656E64206661696C656400A1
:100240004D443D00636331313031206973206E6F5E
:100250007420636F72726563746C79207365742E99
:1002600020506C6561736520646F20612066616356
:10027000746F72792072657365742076696120638A
:100280006F6D6D616E64206500726563656976658A
:100290007220656E61626C6564005374617274698A
:1002A0006E672074696D65726A6F62005573696E5E
:1002B0006720734649464F002064656C61793120A0
:1002C0000020636869705374617475732000636DF6
:1002D000645374726F626552656720003A20006350
:1002E000637265672000433345203D20000D2E2DAD
:1002F00007D3913D04320000060010B07157C4309E
:1003000023B900070018146C070090876BF856118A
:10031000E92A001F4100000000080002010000035C
:100320000407000000000000000001020408102083
:100330004080010204081020010204081020040477
:10034000040404040404020202020202030303037D
:10035000030300000000250028002B00A429CC2D59
:10036000F52911241FBECFEFD8E0DEBFCDBF12E0CC
:10037000A0E0B1E0EAEEF4E702C005900D92A038EB
:10038000B107D9F715E0A0E8B2E001C01D92AD3584
:10039000B107E1F713E0C0E6D3E004C02297FE0105
:1003A0000E94FD34CC35D107C9F70E9437320C9436
:1003B000683A0C9400000895DC01ED91FC910190E5
:1003C000F081E02D0994FC01E156FF4F1082FC0101
:1003D000EB53FF4F1082FC01EA53FF4F1082FC01E8
:1003E000158AEC56FF4F1082FC01EB56FF4F10822E
:1003F000FC01EA56FF4F27E02083FC01E955FF4F3F
:1004000011821082FC01E953FF4F2FEF2083FC0182
:100410002083AC0120E030E0FA01EB54FF4F118261
:100420001082FC01E20FF31F15862F5F3F4F4E5FD6
:100430005F4F2830310581F7FC01EE55FF4F1082E8
:10044000FC01EB55FF4F26E930E031832083FC01AE
:10045000EF54FF4F40E050E060E87EE3408351837B
:1004600062837383FC01E056FF4F1082FC01ED555F
:10047000FF4F1082FC01EC55FF4F1082FC01E85346
:10048000FF4F1082FC01E753FF4F21E02083FC0166
:10049000E653FF4F1082FC01EF55FF4F1082089585
:1004A0006F927F929F92AF92BF92CF92DF92EF9224
:1004B000FF920F931F93CF93DF93EC01B62E6C0145
:1004C00083EAC80ED11CD6011C92662309F4D2C05F
:1004D0007E01BFE9EB0EF11CF7014081442309F4D2
:1004E000C9C0242F30E0862F90E0821793072CF1AB
:1004F000461798F46AE171E08CEB94E00E94C62FF5
:1005000062E171E08CEB94E00E94C62F4AE050E07B
:100510006B2D8CEB94E00E940131CE01DF91CF91E5
:100520001F910F91FF90EF90DF90CF90BF90AF9011
:100530009F907F906F900C94E3018E010B561F4F9C
:10054000D8016C91462F50E04817590708F478C03D
:100550009C0136952795A22EFE01EC56FF4F84177D
:10056000950741F41D8A10821C9287E0FE01EA562D
:10057000FF4F57C0B0FE45C0908080E090E09E01E4
:100580002B5E3F4F7A2D780F7915B0F4A901480FF3
:10059000591FDE01A70FB11D56967C915697729593
:1005A0007F705596BC91A0E1BA9F30011124762945
:1005B000DA017C930196E6CF60FD0EC09E01280F04
:1005C000311DCE01870F911DDC0155968C918295CE
:1005D000807FD90155968C936B19D8016C93262F87
:1005E00030E0C901019797FDC901959587958083F2
:1005F000FE01EA56FF4F60FD02C087E012C083E0B3
:1006000010C04081421B408350E04F5F5F4FCE01DE
:100610004596BC01620F731F0E942D37F80180813F
:100620008B19808381E0D6018C93F8018081D701FA
:100630008C9381111FC0C155DF4F198218821AC0D7
:1006400064E171E08CEB94E00E94F92F4AE050E005
:100650006B2D8CEB94E0DF91CF911F910F91FF9068
:10066000EF90DF90CF90BF90AF909F907F906F9072
:100670000C940131DF91CF911F910F91FF90EF907A
:10068000DF90CF90BF90AF909F907F906F90089534
:1006900080E090E008950F931F93CF93DF938C0138
:1006A000EB01D7FF04C0662777276C1B7D0B8827DB
:1006B00077FD8095982F0E944A332DEC3CEC4CE45A
:1006C0005EE30E94FE330E941C33FB01D801AB5550
:1006D000BF4F6D937C93D801AB53BF4F9C91B80132
:1006E00020E030E0822F291728F5DB01AB54BF4F03
:1006F0004D915C91DA01AC27BD27B7FD16C04115BD
:10070000510599F0D801A20FB31F1D96AC91AA23F1
:1007100061F0DE01A41BB50BAD01B7FF03C051951D
:1007200041955109E417F50734F42F5F3F4F6E5F91
:100730007F4FD8CF8FEFDF91CF911F910F91089509
:10074000FC01E156FF4F7081772309F45DC020E082
:1007500030E0FC01E20FF31F15862F5F3F4F28307A
:100760003105B9F7411102C04FEF470F262F2695EB
:10077000342F369560FF13C0FC01E756FF4F6081B0
:10078000261720F4FC01E20FF11D5589652F6F70CB
:10079000FC01E60FF11D65856F5F65872F5FDC014A
:1007A000A756BF4F3217E8F06C91261720F4FC01D2
:1007B000E20FF11D5589E52FF0E064E0F595E7952E
:1007C0006A95E1F7E80FF91F65856F5F6587652F0B
:1007D0006F70FC01E60FF11D65856F5F65872F5F08
:1007E000E1CF40FD11C0FC01E756FF4F20813217D9
:1007F00020F4FC01E30FF11D55895F70FC01E50F4A
:10080000F11D85858150858708952F923F924F92E3
:100810005F926F927F928F929F92AF92BF92CF9290
:10082000DF92EF92FF920F931F93CF93DF9300D04D
:100830001F92CDB7DEB79B838A831C0147EA240E43
:10084000311CD1011D921C928FEFEA81FB818083C4
:10085000EB53FF4F40814983CA80DB8000E010E00A
:10086000EE24EA94FE2C46015FE9850E911CE98195
:100870000E1708F06AC0C6018B549F4F5C019FEFB2
:10088000E916F90631F5D5018D919C9197FD21C0AE
:10089000EA81FB81E00FF11F658570E080E090E068
:1008A0000E944A332B013C01F401608170E080E03A
:1008B00090E00E944A332BE734E14EE25EE30E946F
:1008C000FE339B01AC01C301B2010E94FA3318163A
:1008D000ACF1D5012D913C9137FD31C0C701880F96
:1008E000991FEA81FB818E0F9F1FFC01EB54FF4F84
:1008F000808191812817390714F5EA81FB81E00F87
:10090000F11F658570E080E090E00E944A332B0182
:100910003C01D4016C9170E080E090E00E944A3389
:100920002BE734E14EE25EE30E94FE339B01AC0113
:10093000C301B2010E94FA3318160CF478010F5F5C
:100940001F4FB2E0CB0ED11C92CFFFEFEF16FF0688
:1009500051F0AA81BB81EC9281E090E0F10191839A
:10096000808381E001C080E00F900F900F90DF91B5
:10097000CF911F910F91FF90EF90DF90CF90BF909C
:10098000AF909F908F907F906F905F904F903F902F
:100990002F900895FC018FEF83AF84AF85AF86AFB2
:1009A000DF01AD5BBF4F1C92DF01DF961D921C92F1
:1009B000108212AA13AA87E084AB089570E0FC01AC
:1009C00023AD332727FD30956217730751F024AD0F
:1009D000332727FD309581E06217730719F080E017
:1009E000089581E0089570E0FC0125AD332727FDCF
:1009F00030956217730751F026AD332727FD3095E8
:100A000081E06217730719F080E0089581E008958E
:100A10007F928F929F92AF92BF92CF92DF92EF928E
:100A2000FF920F931F93CF93DF9300D01F92CDB708
:100A3000DEB77C0120E330E340E029833A834B8337
:100A4000812C8E010F5F1F4F9EE1A92E91E0B92EE0
:100A5000C82CD12CF70182A990E027A9C816D90685
:100A6000ECF4821628F4F701EC0DFD1D808101C025
:100A700080E01F928F93BF92AF921F930F930E94BB
:100A80007E37B8018CEB94E00E94F92F83940F908D
:100A90000F900F900F900F900F90DACF821618F4EE
:100AA000EC0DFD1D708072948FE078221F927F9272
:100AB00083E291E09F938F931F930F930E947E3761
:100AC000B8018CEB94E00E94F92FF70183A987709D
:100AD00081500F900F900F900F900F900F908430D7
:100AE000E8F087A9881618F4EC0DFD1D9080892D7B
:100AF0008F701F928F9383E291E09F938F931F9348
:100B00000F930E947E37B8018CEB94E00E94F92F7E
:100B10000F900F900F900F900F900F900F900F90DD
:100B20000F90DF91CF911F910F91FF90EF90DF9089
:100B3000CF90BF90AF909F908F907F900895FC01D1
:100B400044A973A9473091F4772381F052A9252F46
:100B500030E087A990E001972817390774F581E004
:100B6000850F82ABDF01A80FB11D1C9255A9252F5F
:100B700030E0842F90E00196821B930B1816190623
:100B800024F401C0660F8A95EAF782A9DF01A80F55
:100B9000B11D8C91862B8C937F5F73AB842F99272B
:100BA00087FD9095821B930B97FD03C0451B44ABBB
:100BB00002C087E084AB81E0089580E00895CF9380
:100BC000FC01EE57FF4FC081C69F9001C79F300DBB
:100BD0001124A90173E0569547957A95E1F7FC0138
:100BE000EC57FF4FE0814E1720F5FC01E40FF11D9B
:100BF000DC01AD57BF4F4C9150E02770332702C046
:100C0000559547952A95E2F72081242330E048E066
:100C10004C1BC69F602D11246770461B02C0359582
:100C200027954A95E2F7FC01EB57FF4F2083822F6F
:100C300001C08FEFCF9108952F923F924F925F9214
:100C40006F927F928F929F92AF92BF92CF92DF92DC
:100C5000EF92FF920F931F93CF93DF93CDB7DEB741
:100C600069970FB6F894DEBF0FBECDBF998F888FFE
:100C700040E060E00E94A003812C1B82488D598DCA
:100C80004B535F4F5D874C87688D798D6F547F4FD5
:100C90007F876E87888D998D81569F4F998B888B22
:100CA000A88DB98DA656BF4FBB8BAA8BE88DF98D49
:100CB000E956FF4FFD8BEC8B488D598D47565F4FA2
:100CC0005F8B4E8B282C312CEC85FD85808190E04C
:100CD0000197281639060CF02BC1E88DF98DE20D2D
:100CE000F31DCF010D962585222309F41FC19924F8
:100CF0009394980C9101220F331F688D798D260FE4
:100D0000371FD901AB54BF4FBF83AE839987888704
:100D1000BB87AA87AC85BD858C91981608F006C163
:100D2000092D10E0E88DF98DE00FF11FFA83E983BA
:100D30008585882309F4F8C0AE81BF81AD90BC9051
:100D4000F801EE0FFF1FFD83EC83488D598DE40FF2
:100D5000F51FEB54FF4F808191819C012A253B2593
:100D600037FDE2C0AE85BF85CD90DD90ED90FC9063
:100D70008C010A191B0917FF03C011950195110970
:100D800097FF03C0919581959109BC01882777FD54
:100D90008095982F0E944A33A70196010E94FE3346
:100DA0002B013C01B7FE03C0B194A194B108B50179
:100DB000882777FD8095982F0E944A33A7019601D6
:100DC0000E94FE339B01AC01C301B2010E94473275
:100DD00020E030E040E05FE30E94FE330E941733E2
:100DE000601771070CF4A0C0B12CA12C69807A8027
:100DF000BDE06B0E711CE88CF98CE5E1EE0EF11C88
:100E0000088D198D08561F4F78E0C72ED12CA88960
:100E1000B9898C91B81608F045C0F3018081A816F5
:100E200008F040C06B2D70E0C7010E94DF05AA8961
:100E3000BB898C91891134C0EC89FD898081482F50
:100E400050E0B89EC00111249C0163E036952795BF
:100E50006A95E1F7AE89BF896C91261700F5E88D98
:100E6000F98DE20FF11DD8012C9130E087709927A0
:100E7000082E02C0359527950A94E2F7209535890A
:100E80002323B601641B750BAB01481B590BC10131
:100E900002C0880F991F4A95E2F7282B258BA3944F
:100EA000B394B5CFA885B985DC90E981FA81C58472
:100EB000EA85FB85A081B1810C811D81488D598D0A
:100EC000040F151F0B541F4FF801E080F180ED2D2A
:100ED000F0E09F010E9465342B013C014C2D50E055
:100EE0009A01D7010E946534460E571E681E791E6E
:100EF0004E0F5F1F9A01442737FD4095542FC301C1
:100F0000B2010E94CD34AA85BB852D933C93DC0CA5
:100F1000E885F985D082A981BA811D961C92F801D5
:100F200011821082F1E0FB839394F4CE8394CACEB5
:100F30008B8169960FB6F894DEBF0FBECDBFDF91EF
:100F4000CF911F910F91FF90EF90DF90CF90BF90C6
:100F5000AF909F908F907F906F905F904F903F9059
:100F60002F9008959F92AF92BF92CF92DF92EF920F
:100F7000FF920F931F93CF93DF93EC016BE371E02C
:100F80008CEB94E00E94F92F7E0187ECE80EF11CB7
:100F9000F701808187FD4CC0880F990B8C0F9D1F36
:100FA000FC01EB54FF4F608171814AE050E08CEB13
:100FB00094E00E94CD3062E471E08CEB94E00E94FA
:100FC000F92FF7018081880F990B8C0F9D1FFC0171
:100FD000EB54FF4F60817181882777FD8095982FB2
:100FE0000E944A336B017C018881880F990B8C0F1A
:100FF0009D1FFC01EB54FF4F60817181882777FDB5
:101000008095982F0E944A339B01AC01C701B6011D
:101010000E94AF32AB01BC0122E030E08CEB94E0E7
:101020000E94313261E571E08CEB94E00E94F92F6F
:1010300063E571E08CEB94E00E94F92F888187FDD5
:1010400010C0880F990B8C0F9D1FFC01EB54FF4FB4
:10105000608171814AE050E08CEB94E00E94CD30D9
:1010600006C06CE571E08CEB94E00E94F92F61EC16
:1010700070E08CEB94E00E94C62F7E01F5ECEF0E41
:10108000F11C4AE050E0F70160818CEB94E00E9493
:10109000FA3061E671E08CEB94E00E94F92F4AE0AF
:1010A00050E0FE01EA53FF4F60818CEB94E00E9418
:1010B000FA3064E671E08CEB94E00E94F92F6DEA5F
:1010C00070E08CEB94E00E94C62FFE01E355FF4FC9
:1010D0000190F081E02D608171814AE050E08CEB5D
:1010E00094E00E94CD3066E671E08CEB94E00E94C3
:1010F000F92FFE01E155FF4F0190F081E02D608155
:1011000071814AE050E08CEB94E00E94CD3066E6BD
:1011100071E08CEB94E00E94F92FFE01E556FF4F41
:10112000608171814AE050E08CEB94E00E94CD3008
:1011300066E671E08CEB94E00E94F92FFE01E35625
:10114000FF4F608171814AE050E08CEB94E00E9497
:10115000CD3062EA70E08CEB94E00E94C62F4AE04A
:1011600050E0FE01E056FF4F60818CEB94E00E945E
:10117000FA3069E970E08CEB94E00E94C62F4AE0F7
:1011800050E0FE01EF55FF4F60818CEB94E00E9430
:10119000FA306EE870E08CEB94E00E94C62F4AE0D3
:1011A00050E0FE01EB56FF4F60818CEB94E00E9413
:1011B000FA3066E870E08CEB94E00E94C62FFE01E6
:1011C000E853FF4F608170E04AE050E08CEB94E020
:1011D0000E94CD306BE770E08CEB94E00E94C62F4C
:1011E000FE01ED55FF4F608170E04AE050E08CEB6E
:1011F00094E00E94CD3061E770E08CEB94E00E94B7
:10120000C62FFE01E955FF4F608171814AE050E031
:101210008CEB94E00E94CD308CEB94E00E94023085
:1012200068E670E08CEB94E00E94C62F912C6E0172
:10123000FFE9CF0ED11C5E0185E1A80EB11C8E0125
:1012400006561F4FF6018081981690F4692D70E0C4
:10125000C5010E94DF05F8016081772767FD709561
:101260004AE050E08CEB94E00E94CD309394EACFBA
:1012700069E671E08CEB94E00E94F92F6CE671E076
:101280008CEB94E00E94F92F4AE050E0F601608177
:101290008CEB94E00E94FA306FE671E08CEB94E006
:1012A0000E94183061E771E08CEB94E00E94F92F06
:1012B00010E0F7018081181708F040C06BE771E07B
:1012C0008CEB94E00E94F92F4AE050E0612F8CEB08
:1012D00094E00E94FA306FE371E08CEB94E00E949E
:1012E000F92FC12ED12CFE01EC0DFD1D4AE050E07E
:1012F00065858CEB94E00E94FA306EE771E08CEB30
:1013000094E00E94F92FC601880F991F8C0F9D1F32
:10131000FC01EB54FF4F608171816115710531F063
:101320004AE050E08CEB94E00E94CD306FE671E033
:101330008CEB94E00E94F92F1F5FBBCF60E772E057
:101340008CEB94E00E94183060E772E08CEB94E044
:10135000DF91CF911F910F91FF90EF90DF90CF9091
:10136000BF90AF909F900C9418302F923F924F9265
:101370005F926F927F928F929F92AF92BF92CF9225
:10138000DF92EF92FF920F931F93CF93DF9300D0E2
:101390001F92CDB7DEB79B838A831C0127EA220EFA
:1013A000311CF10180819181019741F0EA81FB813B
:1013B000E953FF4F8FEF808380E0BCC0EA80FB8061
:1013C000FFE9EF0EF11CF7012081822F90E0803AB7
:1013D00091051CF42852298302C0F8E7F983EA81B9
:1013E000FB81EB53FF4F90809A94CA80DB8025E10C
:1013F000C20ED11CAA80BB803AE9A30EB11C97FC97
:10140000D5CF092D112707FD1095EA81FB81E00F4B
:10141000F11F8584882009F489C0C801880F991FAD
:101420004A815B81840F951FFC01EB54FF4F2081A3
:10143000318137FF7BC0319521953109283652E43F
:10144000350708F073C0EA81FB818081880F990B12
:101450008E0F9F1FFC01EB54FF4F0190F081E02D98
:10146000C901BF010E9483346333710508F05EC077
:1014700046E04E9FC0014F9F900D112482179307A5
:1014800008F054C0682D70E080E090E00E944A337C
:101490002B013C01F701608170E080E090E00E9448
:1014A0004A332AE037ED43EA5DE30E94FE339B01B5
:1014B000AC01C301B2010E94AB3287FF37C0F1E03B
:1014C000F815A0F5612C712CF9816F1678F52301C0
:1014D0002FEF421A520AB201C6010E94DF05F50140
:1014E000808190E08017910719F5B301C6010E9431
:1014F000DF05F501208130E0EA81FB8180819927B9
:1015000087FD90952817390799F4EA81FB81E95303
:10151000FF4F908282E090E0F10191838083EA8125
:10152000FB81E056FF4F608281E004C09A9467CF50
:101530003201CACF0F900F900F90DF91CF911F9182
:101540000F91FF90EF90DF90CF90BF90AF909F9062
:101550008F907F906F905F904F903F902F90089565
:101560009F92AF92BF92CF92DF92EF92FF920F9332
:101570001F93CF93DF93EC01FC01EB53FF4F90805F
:101580009A945C0185E1A80EB11C6E01EAE9CE0EC9
:10159000D11C97FC37C0E92CFF24E7FCF094C7016D
:1015A000880F991F8C0F9D1FFC01EB54FF4F20816A
:1015B000318137FF03C03195219531098A859B859B
:1015C00028173907E8F0FE01EE0DFF1D85858823F9
:1015D000B9F0813099F400E010E0B801C5010E9433
:1015E000DF05F601808190E08E159F0549F00F5FC1
:1015F0001F4F0A30110589F781E005C08830E0F3FC
:101600009A94C7CF80E0DF91CF911F910F91FF9007
:10161000EF90DF90CF90BF90AF909F9008952F9262
:101620003F924F925F926F927F928F929F92AF9272
:10163000BF92CF92DF92EF92FF920F931F93CF93BF
:10164000DF93EC0189AD9AADFC01ED55FF4F10829F
:10165000FC01E056FF4F1082712C66246394332402
:1016600033947E0122E4E20EF11C6E0133E4C30EDA
:10167000D11C5E0181E4A80EB11C87E0282E29ADA3
:101680003AAD462D50E0F901E156FF4F808190E0E0
:101690004E97481759070CF097C1F901E753FF4FD0
:1016A0003082062D10E089AC9AACF401E156FF4F70
:1016B000808190E00197081719070CF04BC0B80122
:1016C000C40145960E94DF05F401E656FF4F808075
:1016D000912C8CAD992787FD90958816990671F10C
:1016E0008BAD992787FD90958816990609F06DC1F5
:1016F00049AC5AACB80161507109C20145960E94CB
:10170000DF05F201E656FF4F8081480E511C480E5E
:10171000511CD201AB54BF4F89AD9AAD2CAD220FF5
:10172000330B820F931FFC01EB54FF4F2D913C9123
:1017300080819181821793070CF447C18CAD992762
:1017400087FD9095772473948816990609F0712C7B
:10175000F701608229AD3AADF901E156FF4F808172
:1017600090E00197081719072CF0F901E753FF4F94
:1017700010821EC1672DCE010E949F05E9ADFAAD12
:10178000E056FF4F2FEF208389AC9AACB80161502F
:101790007109C40145960E94DF05F401E656FF4F2A
:1017A0006081CE010E94F3048823B1F16A9431E094
:1017B000361590F5862C912C09AD1AADB401625006
:1017C0007109C80145960E94DF05F801E656FF4FF2
:1017D0006081CE010E94F304F40131974F01882308
:1017E00009F4F5C009AD1AADBF01C80145960E94C4
:1017F000DF05F801E656FF4F6081CE010E94F30439
:10180000882309F4E4C06A946A94672DCE010E948B
:101810009F05F1E0F61570F2E9ADFAADE056FF4F25
:1018200080818F3F09F46082F7016080F601308289
:1018300009AD1AADF801E156FF4F8081681608F036
:1018400097C0862C912CB401C80145960E94DF05F3
:10185000F801E656FF4F5080652DCE010E94DE0450
:10186000882311F073247EC009AD1AADF801E1564A
:10187000FF4F808190E00197881699060CF078C0A0
:10188000652D70E0711037C08DAD992787FD90955B
:101890006817790709F06CC0FFEF8F1A9F0AB4012F
:1018A000C80145960E94DF05F801E656FF4F2081EA
:1018B00030E08EAD992787FD90952817390709F4F8
:1018C00050C009AD1AADB401C80145960E94DF05AC
:1018D000F801E656FF4F208130E08CAD992787FD57
:1018E00090952817390709F043C0E9ADFAADE753E1
:1018F000FF4F10823DC08EAD992787FD90956817E8
:10190000790761F52FEF821A920AB401C801459652
:101910000E94DF05F801E656FF4F208130E08DADD3
:10192000992787FD909528173907D9F009AD1AAD89
:10193000B401C80145960E94DF05F801E656FF4F45
:10194000208130E08BAD992787FD909528173907C6
:1019500029F4E9ADFAADE753FF4F10827724739471
:1019600007C063946394672DCE010E949F0560CFEA
:1019700089AD9AADFC01E156FF4F2081621608F453
:1019800063944BA950E0F5012081332727FD309562
:10199000FC01421753079CF4E653FF4F20812111AD
:1019A00009C0F8E2F61530F4FC01E056FF4F608202
:1019B00080E02AC018821AAA1BAA2CAA60CEEF5572
:1019C000FF4F608281E020C01FC063946ACE09ADE2
:1019D0001AADB401C80145960E94DF05F801E6562C
:1019E000FF4F208130E08EAD992787FD9095281715
:1019F000390709F011CFE9ADFAADE056FF4F6A940F
:101A00006A946082612C01CFDF91CF911F910F9179
:101A1000FF90EF90DF90CF90BF90AF909F908F900E
:101A20007F906F905F904F903F902F9008952F92EE
:101A30003F924F925F926F927F928F929F92AF925E
:101A4000BF92CF92DF92EF92FF920F931F93CF93AB
:101A5000DF93CDB7DEB7E5970FB6F894DEBF0FBEC4
:101A6000CDBF8C01DC01D996AD90BC90DA97F50121
:101A7000EB53FF4F9080B3E0B91510F080E0E8C25F
:101A8000F501E156FF4F608170E080E090E00E9438
:101A90004A332AE037ED43E25DE30E94FE336B01F7
:101AA0007C0120E030E0A9010E94FA3320E030E020
:101AB00040E05FE387FD05C0C701B6010E944732E1
:101AC00004C0C701B6010E9446320E941733A50127
:101AD00080E090E01B8E782FF501E80FF91F258537
:101AE000261788F1DB8C3A01E5EB6E0E711CED2DAB
:101AF000F0E0DD20F1F09E012E0F3F1FD901CC90C8
:101B000095012C0D311D2C0D311D2B543F4FD30150
:101B1000ED90FC90D9012D913C91E216F3064CF426
:101B200021E030E02C0F3D1FE20FF31FC082DA945A
:101B3000DECF21E030E02C0F3D1FE20FF31F70835A
:101B40003B8D3F5F3B8F01964E5F5F4F891518F2CB
:101B5000AE014F5F5F4F5A8B498B5AA349A3D801FF
:101B6000AF5BBF4FBAA7A9A7F801ED5BFF4FFE8F90
:101B7000ED8F9E01235F3F4F3C8B2B8BAE01475F68
:101B80005F4F5E8B4D8BCE014196988F8F8BF9897D
:101B9000F9AB89A18F1B3B8D831708F06FCFD8015C
:101BA000D9964C91D997DA963C91DA97E9A1FAA1A6
:101BB0002191FAA3E9A3842F932F820F911D820F05
:101BC000911DFC01EB54FF4F80819181181619067D
:101BD000F4F68FEFDB968C93DB97DC968C93DC9797
:101BE000DD968C93DD97DE968C9320803180C10149
:101BF00037FC01969C01359527953CA72BA7AE0194
:101C00004F5F5F4F5CA34BA318A21F8E8FEF9FEF18
:101C10009A8F898F9101442737FD4095542F2AAB25
:101C20003BAB4CAB5DAB8BA1B9A98B1BEB8D8E177E
:101C300008F0ADCFABA1BCA19D90BCA3ABA3F801B4
:101C400031AD22AD832F922F890D911D890D911DEC
:101C5000FC01EB54FF4FE080F1806AA97BA98CA9BD
:101C60009DA90E944A332B013C015701F7FE04C095
:101C7000AA24BB24AE18BF08CBA4DCA4CA18DB0876
:101C8000D7FE03C0D194C194D1082DEC3CEC4CE4B8
:101C90005EE3C301B2010E94FE330E9417336C154C
:101CA0007D050CF0AAC16101CA18DB08D7FE03C08C
:101CB000D194C194D1082DEC3CEC4CEC5EE3C30113
:101CC000B2010E94FE330E94173321E06C157D059E
:101CD0000CF420E01E141F040CF4A2C1222309F40A
:101CE000A2CFF80193AEF8A1FF5FF8A3298D3A8D3A
:101CF0002E193F093A8F298FD801DB968C91DB97FB
:101D00008F3F09F490CFDD968C91DD978F3F09F4DA
:101D10008ACFDC968C91DC978F3F09F484CFDE96D6
:101D20008C918F3F09F47FCF8FEF8D878E878F87C0
:101D3000888B89878A878B878C87E1E0F0E0FEA318
:101D4000EDA3A12CB12C77247A94D801D996ED90EB
:101D5000FC90DA97F701E156FF4F808190E0A816DA
:101D6000B9060CF060CFB501C70145960E94DF05AA
:101D7000F701E656FF4FF0806F2DC8010E94DE0488
:101D8000D801D996CD90DC90DA97811107C06F2DDC
:101D9000C8010E94F304882309F457C0F601E156F4
:101DA000FF4F808190E00197A816B90609F44DC055
:101DB000AD8DBE8D8C91811108C0F601E056FF4FAC
:101DC000A082E1E0AD8DBE8DEC93D801D996CD9087
:101DD000DC90DA976DA17EA1C60145960E94DF05D1
:101DE000F601E656FF4F4081BAE0FB9E400D1124FC
:101DF0004A3008F44C59A0FE03C09D898E8902C068
:101E00009B898C89E92FF82F50E0842F90E0608126
:101E1000262F332727FD30952817390719F06F3FF4
:101E200019F44083252F01C02FEF5F5F543019F064
:101E300031962F3F61F3EFEFAE1ABE0A2DA13EA1FE
:101E40002F5F3F4F3EA32DA380CFF601E056FF4FFB
:101E500080819501281B3109E9A5FAA58081992780
:101E600087FD9095821793070CF0C3C0F601EF55DC
:101E7000FF4FA082F80181AD92ADDC01AF55BF4F9D
:101E8000FC01E056FF4F4C9160810E94A003D801F5
:101E9000D9968D919C91DA97DE964C90DE97DC96E0
:101EA0005C90DC97DD966C90DD97DB96BC91BC8FE7
:101EB000FC01E40DF11D47FCFA952585FC01E50DBB
:101EC000F11D57FCFA958584912C820E911CFC0122
:101ED000E60DF11D67FCFA952585821A9108FC0133
:101EE000EB0FF11DB7FDFA952585AD8DBE8D1C92CA
:101EF000821A910897FE03C09194819491089401ED
:101F0000442737FD4095542F2DA73EA74FA758AB28
:101F1000FC01E156FF4F8081482F50E058A74FA3A6
:101F2000BA01882777FD8095982F0E944A332AE0CE
:101F300037ED43E25DE30E94FE336B017C0120E05C
:101F400030E0A9010E94FA3320E030E040E05FE396
:101F500087FD05C0C701B6010E94473204C0C70112
:101F6000B6010E9446320E9417332DA53EA54FA50B
:101F700058A962177307840795070CF454CE38A14B
:101F80004F8D341350CE5C8D551509F44CCE64142E
:101F900009F449CE561509F446CE541409F443CE3B
:101FA000541509F440CE561409F43DCEFE013D9679
:101FB000DE01199681919D918917C9F19F3F11F01A
:101FC0008F3FA9F52FA138A52A193B09A9A5BAA5C4
:101FD0008C91992787FD9095821793070CF023CE5B
:101FE0007D8679867E867A867F867B86788A7C86E1
:101FF00022CFED8DFE8D1082E8CED8011E141F0475
:102000001CF0DD969C926FCEDE969C92BF8DBF5FDA
:10201000BF8FE98DFA8DEE0DFF1DFA8FE98F6CCE23
:10202000222309F400CED801DC969C92EFCF2F89B1
:10203000388DE217F30709F0BDCFF801FF96898DBF
:102040009A8D66E070E00E9497347183608381E02E
:10205000E5960FB6F894DEBF0FBECDBFDF91CF91EE
:102060001F910F91FF90EF90DF90CF90BF90AF90B6
:102070009F908F907F906F905F904F903F902F90A8
:1020800008952F923F924F925F926F927F928F921C
:102090009F92AF92BF92CF92DF92EF92FF920F93F7
:1020A0001F93CF93DF93CDB7DEB72C970FB6F8947D
:1020B000DEBF0FBECDBF9C878B87962E8D559F4F61
:1020C0009A838983662329F081E0A981BA818C9360
:1020D00003C0E981FA8110822B853C8528533F4F4C
:1020E0003E832D83D9018C912B853C8521563F4F12
:1020F0003901811105C0D9018C91883208F4B5C726
:102100002B853C852E553F4F3C832B83D9011C9258
:102110002B853C852C553F4F38872F8381E0D30199
:102120009C919E3F09F080E0EF81F88580838B854C
:102130009C850E941C062B843C84F7EA2F0E311CE0
:10214000D1011D921C92EB85FC858085882309F4C2
:102150004CC08F0100561F4FD8011C927F01B5E182
:10216000EB0EF11C6F01EAE9CE0ED11CAB84BC84EE
:10217000F7ECAF0EB11CF80160816A3050F570E0E9
:102180006F5F7F4FC7010E94DF05D6012C9130E0C1
:10219000F5018081992787FD90952817390709F067
:1021A00085C7D8016C9170E0C7010E94DF05F60178
:1021B000208130E0AB85BC858C91992787FD909577
:1021C0002817390709F072C782E090E0D1018D939A
:1021D0009C93D1018D919C91892B99F4EB85FC8581
:1021E000108640E060E0CF010AC0AB85BC8519963F
:1021F0008C911997882329F040E060E0CD010E947E
:10220000A003F10180819181892B21F48B859C852C
:102210000E940504D1018D919C91019771F4EB8589
:10222000FC858381882349F0E653FF4F808181112B
:1022300004C08B859C850E94B509D1018D919C912C
:10224000029709F0EBC2F3018081883208F4E6C2FC
:102250000B851C850F551F4FAB84BC84F0EAAF0E75
:10226000B11CD5018C918E5FF8018083CB84DC8416
:10227000F5E1CF0ED11CEB84FC842AE9E20EF11CBF
:102280004B845C8437EC430E511CD8016C9170E098
:10229000F501808190E009968617970754F16F5FEA
:1022A0007F4FC6010E94DF05D7012C9130E0F2017B
:1022B0008081992787FD90952817390709F0FBC67B
:1022C000D8016C9170E0C6010E94DF05F701208102
:1022D00030E0AB85BC858C91992787FD90952817B8
:1022E000390709F0E8C6D8018C91F50180838E5F2B
:1022F0008C93CB84DC84B5E1CB0ED11CEB84FC84C5
:10230000EAE9EE0EF11C4B845C84F7EC4F0E511C95
:10231000F801608170E0D3018C9190E0019768171B
:1023200079072CF56F5F7F4FC6010E94DF05D7014B
:102330002C9130E0F2018081992787FD9095281734
:10234000390709F0BDC6D8016C9170E0C6010E9442
:10235000DF05F701208130E0AB85BC858C919927A2
:1023600087FD90952817390709F0AAC6AEC6512CEB
:10237000F3018081D8019C91891710F0511003C09E
:102380008150F8018083D8014C91F50160818B85E3
:102390009C850E94A003D5016C91552041F0F80165
:1023A000808190E0861B910988978CF437C2D30115
:1023B0002C91822F90E0861B910988970CF42EC2F5
:1023C0002E3F08F00BC2B2E09B1609F407C2EB8562
:1023D000FC8590858781981708F0A2C18481EB5312
:1023E000FF4F7F0162E0882309F4CAC08CEB94E0C0
:1023F0000E94FB2F61E871E08CEB94E00E94F92FC2
:102400006BE38CEB94E00E94FB2F20E0D7018C91D2
:10241000281708F041C0422F50E0CA01880F991FC9
:102420006B857C85860F971FFC01EB54FF4FC080A6
:10243000D180C114D10471F1FB01E40FF51F858532
:10244000882341F1622FD7FE05C0606AD194C19400
:10245000D10801C060684C2CC7FC04C07C2D70689A
:10246000472E01C060618CEB94E02A870E94A32C68
:10247000642D8CEB94E00E94A32C6D2D606870E0BD
:102480008CEB94E00E94DC016BE38CEB94E00E9407
:10249000FB2F2A852F5FBACFF801808180FF03C010
:1024A00064E871E002C06DED71E08CEB94E00E9495
:1024B000F92FD5018C9180FF18C081508C9386959F
:1024C000EB85FC85E756FF4F9081891728F4EB8553
:1024D000FC85E80FF11D8588682D8CEB94E00E9447
:1024E000A32CF50180818E5F8083D501DC90EB8485
:1024F000FC84B9E9EB0EF11CD8018C918D1598F094
:102500008D2D8695F7019081891728F4EB85FC8540
:10251000E80FF11D8588682D8CEB94E00E94A32CB8
:10252000D394D394E9CF6BE38CEB94E00E94FB2F20
:1025300067EA71E08CEB94E00E94F92FEB85FC8553
:102540006081772767FD709540E150E08CEB94E067
:102550000E94CD306BE38CEB94E00E94FB2F67E888
:1025600071E08CEB94E00E94F92FEB85FC85E95338
:10257000FF4F6081772767FD709540E150E09EC076
:102580008CEB94E00E94FB2F66E871E08CEB94E00A
:102590000E94F92F6BE38CEB94E00E94FB2F812CBF
:1025A000D7018C918816C8F5882D90E06C01CC0C71
:1025B000DD1C2B853C85C20ED31E35EBC30ED11C12
:1025C000D6012D913C91232B31F1EB85FC85E80F51
:1025D000F91F85858823F9F060E58CEB94E00E9473
:1025E000FB2F4AE050E0682D8CEB94E00E94FA301B
:1025F0006DE38CEB94E00E94FB2FF601608171810A
:102600004AE050E08CEB94E00E94CD306BE38CEB21
:1026100094E00E94FB2F8394C3CF69E871E08CEBB8
:1026200094E00E94F92FF5018080CB84DC84F5E1F1
:10263000CF0ED11CEB84FC842AE9E20EF11CF801D8
:102640008081881578F0682D70E0C6010E94DF0552
:102650004AE050E0D7016C918CEB94E00E94FA3094
:102660008394EDCF6BE38CEB94E00E94FB2F6CE83E
:1026700071E08CEB94E00E94F92FAB85BC856C91E6
:10268000772767FD70954AE050E08CEB94E00E945C
:10269000CD306BE38CEB94E00E94FB2F60E971E09E
:1026A0008CEB94E00E94F92FEB85FC85E953FF4FFA
:1026B0006081772767FD70954AE050E08CEB94E0ED
:1026C0000E94CD306BE38CEB94E00E94FB2FEF81F6
:1026D000F8858081882359F064E971E08CEB94E0FF
:1026E0000E94F92F6BE38CEB94E00E94FB2FAB85EB
:1026F000BC8515968C91882399F0911003C063ECEA
:1027000071E005C0B2E09B120BC066E971E08CEB92
:1027100094E00E94F92F6BE38CEB94E00E94FB2F76
:10272000E981FA811082AB85BC8518968C91511095
:1027300002C08823D1F1EB85FC8595819923C1F0F6
:1027400097818917A8F468E971E08CEB94E00E9406
:10275000F92F4AE050E0AB85BC8518966C918CEB64
:1027600094E00E94FA306BE38CEB94E00E94FB2F24
:10277000EB85FC8520852F5F20875520B1F09110D7
:1027800009C0D3018C9190E0F8013081831B91093D
:1027900088975CF0222349F0D8016C916F5F8B859C
:1027A0009C850E945002F5011082AB85BC8518966D
:1027B0009C91189717968C91891758F063E08CEBD1
:1027C00094E00E94FB2F6FE672E08CEB94E00E9495
:1027D000F92F81E0EB85FC8584871CC0662399F086
:1027E000D8018C9190E08D3F91056CF0911004C060
:1027F000E981FA8110820EC08B859C850E9450026F
:10280000D5011C9207C0B2E09B1621F08B859C85F8
:102810000E94E30181E0EB81FC818083AB81BC817C
:102820008C91811108C4EB85FC8591818281911185
:1028300003C0882309F4FFC3882309F491C1D1019F
:102840008D919C91029709F48BC18091C4028111F2
:102850002DC082E38093B70211E01093B50210926D
:1028600080021092B2021092B30287E08093B40209
:1028700080E88093B6028FEF8093BB028093BC0206
:102880008093BD028093BE021092C3022B853C85CB
:102890003093BA022093B90280E892E00E94CA0401
:1028A0001093C4028BED91E00E943332AD81BE8162
:1028B0008C9181110BC080E892E00E94CA04EB85E4
:1028C000FC85E553FF4F80818093C102ED81FE813D
:1028D0008081882339F080E892E00E940F0B8111FB
:1028E00008C0FAC380E892E00E94170D8111F3CF6F
:1028F000F3C362E08CEB94E00E94FB2F66EA71E088
:102900008CEB94E00E94F92F6BE38CEB94E00E9437
:10291000FB2F68E271E08CEB94E00E94F92F80912C
:10292000BB02880F990B2B853C85820F931FFC01FE
:10293000EB54FF4F608171814AE050E08CEB94E0F2
:102940000E94CD306BE38CEB94E00E94FB2F6CE295
:1029500071E08CEB94E00E94F92F8091BC02880F0B
:10296000990B2B853C85820F931FFC01EB54FF4F85
:10297000608171814AE050E08CEB94E00E94CD30A0
:102980006BE38CEB94E00E94FB2F60E371E08CEB37
:1029900094E00E94F92F8091BD02880F990B2B853E
:1029A0003C85820F931FFC01EB54FF4F60817181C6
:1029B0004AE050E08CEB94E00E94CD306BE38CEB6E
:1029C00094E00E94FB2F64E371E08CEB94E00E94A2
:1029D000F92F8091BE02880F990B2B853C85820FC1
:1029E000931FFC01EB54FF4F608171814AE050E07E
:1029F0008CEB94E00E94CD306BE38CEB94E00E9472
:102A0000FB2F69E871E08CEB94E00E94F92F80E8DD
:102A100092E00E9408056BE38CEB94E00E94FB2F90
:102A200068E371E08CEB94E00E94F92F6091BF02A3
:102A30007091C0024AE050E08CEB94E00E94CD30EF
:102A40006BE38CEB94E00E94FB2F69E271E08CEB6E
:102A500094E00E94F92F4AE050E06091B3028CEBC1
:102A600094E00E94FA306BE38CEB94E00E94FB2F21
:102A7000AB85BC8515968C91882309F43FC0EB8506
:102A8000FC85E753FF4F808181110BC06AE971E03B
:102A90008CEB94E00E94F92F6BE38CEB94E00E94A6
:102AA000FB2F8091C202882349F162E871E08CEB30
:102AB00094E00E94F92F4AE050E06091C2028CEB52
:102AC00094E00E94FA306BE38CEB94E00E94FB2FC1
:102AD0006CE971E08CEB94E00E94F92F4AE050E041
:102AE000EB85FC85E056FF4F60818CEB94E00E9403
:102AF000FA306BE38CEB94E00E94FB2FAF81B8853A
:102B00008C91882359F064E971E08CEB94E00E9489
:102B1000F92F6BE38CEB94E00E94FB2FED81FE819B
:102B2000108281E0AB81BC818C93EB85FC8584872E
:102B3000EF55FF4F9110E1C2D3018C9190E02081BD
:102B4000821B910988970CF0D8C263E08CEB94E06B
:102B50000E94FB2F6FE672E08CEB94E00E94F92F4D
:102B6000AB85BC8511968C91882309F464C2F10170
:102B7000808191810197029708F05DC2AB81BC8191
:102B80008C91811158C2F3018081883208F453C2BC
:102B9000AB85BC851A968D919C911B97A056BF4F13
:102BA0007D010B851C850F551F4F892B09F47CC0B7
:102BB0008C91882341F040E060E08B859C850E94E9
:102BC000A003F70110828B859C850E94B00A8823A0
:102BD00009F46AC088E2D8018C93F30180818832BD
:102BE00008F462C048E2842ECB84DC84F5E1CF0E89
:102BF000D11CAB84BC842AE9A20EB11C482C512CF8
:102C0000F301808190E00197481659060CF04CC002
:102C1000B201C6010E94DF05D5012C918B859C85F0
:102C2000820F911D820F911DFC01EB54FF4F80819B
:102C30009181B201181619068CF4C6010E94DF05B5
:102C4000F50120818B859C85820F911D820F911D3E
:102C5000FC01EB54FF4F8081918113C0C6010E949B
:102C6000DF05D5012C918B859C85820F911D820FEC
:102C7000911DFC01EB54FF4F8081918191958195CD
:102C80009109EB85FC85228533858217930750F0E7
:102C9000D8018C92482D60E0CF010E94A0035524FA
:102CA000539411C08394AACFF3018081D8018C93EF
:102CB000F7018081882331F040E060E08B859C85BE
:102CC0000E94A003512CAB85BC8514968C9114975F
:102CD000AB53BF4F6D0162E0882309F496C08CEBC3
:102CE00094E00E94FB2F60EA71E08CEB94E00E947C
:102CF000F92F6BE38CEB94E00E94FB2F20E0D601D0
:102D00008C91281708F042C0422F50E0CA01880F6A
:102D1000991FEB85FC858E0F9F1FFC01EB54FF4F25
:102D2000A080B180A114B10479F1EB85FC85E40F9A
:102D3000F51F8585882341F1622FB7FE05C0606AC3
:102D4000B194A194B10801C060688A2CA7FC04C0AA
:102D5000FA2DF0688F2E01C060618CEB94E02A8719
:102D60000E94A32C682D8CEB94E00E94A32C6B2D69
:102D7000606870E08CEB94E00E94DC016BE38CEB0C
:102D800094E00E94FB2F2A852F5FB9CFF801808144
:102D900080FF03C064E871E002C06DED71E08CEB70
:102DA00094E00E94F92FB12CCB84DC84F9E9CF0E9A
:102DB000D11CD8018C91B816A0F48B2D8695D60124
:102DC0009C91891730F4EB85FC85E80FF11D25896E
:102DD000298769858CEB94E00E94A32CB394B3946B
:102DE000E8CF6BE38CEB94E00E94FB2F67EA71E085
:102DF0008CEB94E00E94F92FEB85FC8560817727AE
:102E000067FD709540E150E086C08CEB94E00E9435
:102E1000FB2F63EA71E08CEB94E00E94F92F6BE3E7
:102E20008CEB94E00E94FB2F812CD6018C918816AC
:102E3000D8F5882D90E05C01AA0CBB1C2B853C8545
:102E4000A20EB31E35EBA30EB11CD5012D913C9102
:102E5000232B41F1EB85FC85E80FF91F858588233D
:102E600009F16CE771E08CEB94E00E94F92F4AE0E5
:102E700050E0682D8CEB94E00E94FA3069E371E039
:102E80008CEB94E00E94F92FF501608171814AE09A
:102E900050E08CEB94E00E94CD306BE38CEB94E03F
:102EA0000E94FB2F8394C1CF69E871E08CEB94E022
:102EB0000E94F92F812CAB84BC84B5E1AB0EB11C10
:102EC000CB84DC84EAE9CE0ED11CF801808188161F
:102ED00078F4682D70E0C5010E94DF054AE050E0FB
:102EE000D6016C918CEB94E00E94FA308394EDCF84
:102EF0006BE38CEB94E00E94FB2F6CE871E08CEBB1
:102F000094E00E94F92FAB85BC856C91772767FD13
:102F100070954AE050E08CEB94E00E94CD306BE37A
:102F20008CEB94E00E94FB2FE981FA81108281E012
:102F3000AB85BC851C968C93EB81FC818083AF8133
:102F4000B8858C91882359F064E971E08CEB94E0AA
:102F50000E94F92F6BE38CEB94E00E94FB2FEB8532
:102F6000FC858581882329F1911003C063EC71E011
:102F700005C0F2E09F120BC066E971E08CEB94E0B3
:102F80000E94F92F6BE38CEB94E00E94FB2FEB8502
:102F9000FC85E753FF4F808181110BC06AE971E026
:102FA0008CEB94E00E94F92F6BE38CEB94E00E9491
:102FB000FB2F5520A9F1AB85BC8515968C918823F4
:102FC000A1F06EE971E08CEB94E00E94F92F4AE0E9
:102FD00050E0EB85FC8561858CEB94E00E94FA3033
:102FE0006BE38CEB94E00E94FB2FAB85BC851996BC
:102FF0008C9119978F5F19968C93911009C0F301EA
:10300000808190E0D8012C91821B9109889744F02F
:10301000F80160818B859C850E945002D7011C922B
:1030200063E08CEB94E00E94FB2F6FE672E08CEB88
:1030300094E00E94F92FEB81FC818081811103C013
:10304000A981BA811C92F30180818E3F70F0D10179
:103050008D919C91892B49F46DEC70E08CEB94E0A0
:103060000E940630E981FA811082A981BA818C918F
:10307000811166C08B859C852C960FB6F894DEBFB7
:103080000FBECDBFDF91CF911F910F91FF90EF90B9
:10309000DF90CF90BF90AF909F908F907F906F9078
:1030A0005F904F903F902F900C94E301F801808146
:1030B0008F5F808360C8F80180818F5F8083E5C85F
:1030C000D8018C918E5F8C9323C9F8018081815047
:1030D0008083552453944CC9AD81BE818C91882343
:1030E00009F43ECDA981BA818C91882309F438CDA9
:1030F00081E0EB81FC81808333CD608161508B85E1
:103100009C850E945002EB85FC85E056FF4F1082A3
:1031100081E0EB85FC85E653FF4F8083EB85FC85E2
:103120008581882309F411CD6EE971E08CEB94E080
:103130000E94F92F6BE38CEB94E00E94FB2F05CDEE
:103140002C960FB6F894DEBF0FBECDBFDF91CF91A6
:103150001F910F91FF90EF90DF90CF90BF90AF90B5
:103160009F908F907F906F905F904F903F902F90A7
:1031700008954F925F926F927F928F929F92AF923B
:10318000BF92CF92DF92EF92FF920F931F93CF9354
:10319000DF93EC017C012FE9E20EF11CD7014C9189
:1031A0008C0103551F4F4423A1F0FC01E155FF4F53
:1031B0000190F081E02D309761F0D8012D913C9184
:1031C00080819181F901208131818227932797FFA6
:1031D00008C0D801ED91FC918081918181159348BF
:1031E00084F5FAE0DF2E60E0CE010E944110F70185
:1031F0008081811106C0FE01E155FF4F11821082CE
:1032000006C0DA94D110EFCFCE010E94E3011886F8
:103210001986FE01EA53FF4F4081D8018D919C91A0
:10322000DC012D913C91CE01840F911D840F911DE5
:10323000DC01AB54BF4F2D933C934F5F4083912CE7
:103240000EC14E3F50F061E0CE010E94411040E0BF
:1032500060E0CE010E94A00333C0483289F583E0CC
:1032600090E0FE01E955FF4F91838083FE01E35317
:10327000FF4F208131812115310539F482819381FD
:10328000892B19F4848180FF1BC0428153816481A2
:103290007581CB019595879560FF3AC1F901E80FDB
:1032A000F91F0190F081E02DE40FF51F0190F081EE
:1032B000E02D820F931F0995FE01E453FF4F808399
:1032C000D801ED91FC9160817181CE010E944B0388
:1032D000982E87FD26C0C82ECC0CDD08CC0EDD1E36
:1032E000B5EBCB0ED11CF60160817181882777FD8B
:1032F0008095982FD801ED91FC91408051806624F3
:1033000057FC6094762C640D751D861D971D22E078
:1033100030E040E050E00E94CD34F601318320835C
:103320009EC05E01F5ECAF0EB11CD5018C91FE0183
:10333000EA53FF4F6F01883009F06AC08081FE01B7
:10334000E80FF11D8585833048F1FE01E955FF4FF7
:1033500080819181181619060CF5EAE09E2E812CC9
:103360008C85882319F01C868824839462E0CE0122
:103370000E944110D7018C91883248F41886198632
:103380008C8640E060E0CE010E94A00307C08C85DF
:103390008823A1F39A949110E3CFF0CFF7015080E6
:1033A0005520B1F15A943E01F5E16F0E711C4E01AA
:1033B0002AE9820E911CF6018081FE01E80FF11DC1
:1033C0008585882329F1652D70E0C3010E94DF0502
:1033D000D4019C91F601808198130BC061E0650DCA
:1033E000CE010E94500240E060E0CE010E94A003A6
:1033F0000FC0F1E05F120AC0D7018C918E3F30F010
:1034000063E071E08CEB94E00E9406305A94D3CFD5
:10341000D6019C90D801ED91FC9120813181CE01A3
:10342000890D911D890D911DFC01EB54FF4F3183D6
:10343000208381E0890D883019F0F601808308C06F
:10344000D6011C92F5018083FE01E853FF4F1082E4
:10345000D6018C91F5019081981708F48083592D3D
:103460005E01F6E9AF0EB11CD5014C91DE01AB5601
:10347000BF4FFE01EC56FF4F6F014730D1F48C91E6
:103480008823B9F06081262F30E0CE0187569F4F08
:10349000FC01808190E00197281739070CF060C08B
:1034A00081E0860FF60180839E01280F311DF9010E
:1034B000158ACE0189569F4FFC017081272F30E07D
:1034C000842F90E00196821B930B181619062CF49A
:1034D000592D01C0550F8A95EAF7F6018081FE014A
:1034E000E80FF11D6589652B658B8C918F5F8C933F
:1034F000842F992787FD9095821B930B97FD04C01D
:10350000471BD5014C9306C087E0F501808302C0BC
:10351000FA01CFCEF70180818F5F8083D801ED91D2
:10352000FC9180819181FE01E556FF4F918380835C
:10353000C90DD11D97FCDA958D858F5F8D87DF9141
:10354000CF911F910F91FF90EF90DF90CF90BF90A0
:10355000AF909F908F907F906F905F904F90089565
:103560006EEF70E08CEB94E00E94C62F4AE050E0D2
:10357000692D8CEB94E00E94FA3064EF70E08CEBE4
:1035800094E00E94C62F4AE050E0D6016C918CEB8B
:1035900094E00E94FA3060EE70E08CEB94E00E94C0
:1035A0000630CE010E94B207B9CFAF92BF92CF9240
:1035B000DF92EF92FF920F931F93CF93DF93EC0173
:1035C0006B018C010E551F4FD8011C92FC01E15676
:1035D000FF4F6081FC01E155FF4F5F0183559F4F15
:1035E0007C01662301F170E061507109CE014596BE
:1035F0000E94DF05FE01E656FF4F2081CE01820FBB
:10360000911D820F911D8B549F4FD5018D939C93DB
:10361000D701ED91FC9180819181FE01E356FF4F2E
:103620009183808302C011821082D6018D919C917A
:10363000D701ED91FC9191838083CE010E94B9184E
:10364000F8018081DF91CF911F910F91FF90EF9052
:10365000DF90CF90BF90AF9008950C9472390C9486
:103660007A3990ED980F9A3068F09FE9980F96306C
:1036700018F499EA980F06C09FEB980F963008F45B
:103680008753982F892F0895CF93C82F803130F416
:1036900069EA71E08CEB94E00E94F92F40E150E080
:1036A0006C2F8CEB94E0CF910C94FA308EBD0DB45E
:1036B00007FEFDCF8EB508952A981C99FECF0E9473
:1036C000561B1C99FECF2A9A08952A981C99FECF62
:1036D000862B0E94561B80E00E94561B2A9A089552
:1036E000CF93DF931F92CDB7DEB72A981C99FECFF8
:1036F00069830E94561B6981862F0E94561B2A9A55
:103700000F90DF91CF910895EF92FF920F931F9347
:10371000CF93DF93CDB7DEB728970FB6F894DEBF0F
:103720000FBECDBF2A981C99FECF8EEF0E94561B6C
:103730007E0189E0E80EF11C8E010F5F1F4F80E0D3
:103740000E94561BF80181938F01EE15FF05B9F712
:103750002A9A8E010F5F1F4FF80181918F010E94FD
:10376000441B67E671E08CEB94E00E94F92F0E1584
:103770001F0591F760E772E08CEB94E028960FB696
:10378000F894DEBF0FBECDBFDF91CF911F910F9197
:10379000FF90EF900C941830CF93DF932A981C99E8
:1037A000FECF8EE70E94561BC0E3D0E0CE010E9400
:1037B0002D1B0E94561B2196C833D105B9F72A9AB2
:1037C000DF91CF9108951F93CF93DF93C82F63E0CC
:1037D00070E08CED92E00E941A2F8E3671F464E056
:1037E00070E08CED92E00E941A2F992787FD90954A
:1037F0000E941937892B09F062C0CE3320F5CF32F1
:1038000010F460E801C060EC8C2F0E94651BD82F7B
:1038100067EA71E08CEB94E00E94F92F8C2F0E94F4
:10382000441B6BEA71E08CEB94E00E94F92F8D2F22
:103830000E94441B60E772E08CEB94E0DF91CF9133
:103840001F910C941830CE3359F466EE72E08CEB75
:1038500094E00E94C62FDF91CF911F910C94841B9E
:10386000C93909F05DC0C0E0CC2351F0C03111F07E
:10387000C032A9F467E671E08CEB94E00E94F92F66
:103880006FED72E08CEB94E00E94C62F8C2F0E94AB
:10389000441B6CED72E08CEB94E00E94C62F60E854
:1038A0008C2F0E94651B0E94441B67E671E08CEB25
:1038B00094E00E94F92FCF5FCF32B1F6BBCF64E026
:1038C00070E08CED92E00E941A2F0E94311B182F9D
:1038D000CF3230F567EA71E08CEB94E00E94F92F6B
:1038E0008C2F0E94441B63E772E08CEB94E00E94F3
:1038F000F92F1E5F812F0E94441B69E371E08CEB5E
:1039000094E00E94F92FD0E0D11708F093CF60E83F
:103910008D2F8C0F0E94651B0E94441BDF5FF4CF2C
:10392000DF91CF911F9108951F93CF93DF9363E0B1
:1039300070E08CED92E00E941A2F992787FD9095F8
:103940000E941937892B09F453C063E070E08CEDB5
:1039500092E00E941A2F0E94311BC0E3C80FCE33A1
:1039600008F046C08C2F0E945C1B182F61E070E0AD
:1039700080E090E00E94CD2A8DE30E945C1BD82F4E
:103980006EEC72E08CEB94E00E94C62F8C2F0E94AC
:10399000441B61EC72E08CEB94E00E94C62F612F17
:1039A00070E084E0759567958A95E1F740E150E015
:1039B0008CEB94E00E94FA3068EB72E08CEB94E0C0
:1039C0000E94C62F6D2F70E094E0759567959A95CB
:1039D000E1F740E150E08CEB94E00E94FA3060E7C0
:1039E00072E08CEB94E0DF91CF911F910C94183032
:1039F000DF91CF911F910895CF93DF93D82FC62FDA
:103A00008EEF8D0F8E33B0F40E94701B6FEA71E061
:103A10008CEB94E00E94F92F8D2F0E94441B8C2F79
:103A20000E94441B60E772E08CEB94E0DF91CF9141
:103A30000C941830DF91CF9108951F93CF93DF93AB
:103A4000182FC0E3D0E0C13321F4612F81E390E06F
:103A500002C060E0CE010E942F1B2196C833D10521
:103A600091F7DF91CF911F910C94CC1BCF93DF93F3
:103A7000C2E0D0E0FE01E551FD4F6491CE010E940D
:103A80002F1B2196CB32D105A9F7C0E3D0E0C1337B
:103A900021F464E881E390E002C060E0CE010E947E
:103AA0002F1B2196C833D10591F761EB71E08CEBA8
:103AB00094E0DF91CF910C941830CF93DF9386E39D
:103AC0000E945C1B61E070E080E090E00E94CD2AE3
:103AD000CEEFCF3FD1F084E30E945C1BDFEFDC0F21
:103AE0008077803151F4C11110C065EC71E08CEB2E
:103AF00094E0DF91CF910C94183061E070E080E0A9
:103B000090E00E94CD2ACD2FE4CFDF91CF91089590
:103B1000CF93DF932A9A8EE190E00E94F52A2A98AB
:103B20008EE190E00E94F52A2A9A8DE290E00E94B0
:103B3000F52A80E30E945C1B6AE070E080E090E080
:103B40000E94CD2A2A9880E40E94561BC2E0D0E051
:103B5000CE010E942D1B0E94561B2196CB32D1050F
:103B6000B9F72A9A8AE090E00E94F52A0E94CC1BBD
:103B700061E070E080E090E00E94CD2ADF91CF917B
:103B80000C945D1D60E888E00E94651B823351F44F
:103B900060E880E00E94651B91E08D3009F090E0C4
:103BA000892F089580E0089541E050E062E679E2CF
:103BB00080E00C943C2B80E00E945C2B1092B703B9
:103BC0001092B9031092B80308952F923F924F922A
:103BD0005F926F927F928F929F92AF92BF92CF929D
:103BE000DF92EF92FF920F931F93CF93DF93A82E54
:103BF0006B01342E252E49010E94AA2A2B013C017B
:103C0000B12C00E010E0B8016A0D7B1DC616D70686
:103C100058F1C4010E941A2F8053E32DF22DE80FB2
:103C2000F11DE80FF11DC081D1817E01D7FF04C0D5
:103C3000EE24FF24EC1AFD0A0E94AA2A64157505D9
:103C400086059705C8F3D7FF02C02B9801C02B9AB1
:103C5000C701AA2797FDA095BA2F480E591E6A1EC4
:103C60007B1E0F5F1F4FCFCF0E94AA2A64157505D8
:103C700086059705C8F3DF91CF911F910F91FF90B3
:103C8000EF90DF90CF90BF90AF909F908F907F90FC
:103C90006F905F904F903F902F9008952F923F929A
:103CA0004F925F926F927F928F929F92AF92BF924C
:103CB000CF92DF92EF92FF920F931F93CF93DF93F8
:103CC00000D01F92CDB7DEB7382E69832A010E943B
:103CD000AA2A6B017C01662457FC6094762CF9813A
:103CE000F31508F443C0632D70E08CED92E00E9460
:103CF0001A2F8A3314F490E301C097E3891B94E0F0
:103D0000892E912C08E0A82EBB24A7FCB094212C6E
:103D100010E0F801EA21FB21FB83EA83211005C0B2
:103D20008A819B81892B29F406C0EA81FB81EF2BD4
:103D300011F42B9801C02B9AC40CD51CE61CF71C5F
:103D40000E94AA2A6C157D058E059F0518F40E9415
:103D50003B2BF6CF2394F2E02F12E0CF1595079579
:103D600081E0881A910899F63394B9CF0F900F909B
:103D70000F90DF91CF911F910F91FF90EF90DF9007
:103D8000CF90BF90AF909F908F907F906F905F90FB
:103D90004F903F902F900895CF92DF92EF92FF9235
:103DA0000F931F93CF93DF9300D000D000D0CDB7F7
:103DB000DEB78C017B018FEF9FEFFB019183808346
:103DC000F801C080D18069EF71E0CE0101960E94B8
:103DD0007D2EA601BE016F5F7F4F8CED92E00E94A9
:103DE0001C2F6C01CE0101960E940F2EFFEFCF1603
:103DF000DF0639F0F801608171816F3FFFEF7F07C7
:103E000021F4F7011182108226C08CED92E00E940D
:103E10001A2F80931301F801608171816F5F7F4FCA
:103E20008CED92E00E941A2F809312019091130161
:103E3000933521F4F701118210821FC0903599F457
:103E4000F801608171816E5F7F4F8CED92E00E947E
:103E50001A2F8D3311F080E017C0F80120813181D5
:103E60002D5F3F4F07C08D33B1F7F80120813181BD
:103E70002E5F3F4FF70131832083FFEFCF1ADF0A18
:103E8000F801D182C08281E026960FB6F894DEBF99
:103E90000FBECDBFDF91CF911F910F91FF90EF909B
:103EA000DF90CF9008951F93CF93DF93C82FD0E07A
:103EB000BE018CED92E00E941A2F0E94311B182F38
:103EC0001295107FBE016F5F7F4F8CED92E00E94D4
:103ED0001A2F0E94311B810FDF91CF911F910895FE
:103EE0006EEC71E08CEB94E00E94C62F6091E602CC
:103EF00070E04AE050E08CEB94E00E94CD3069EC39
:103F000071E08CEB94E00E94C62F6091E40270E0B7
:103F10004AE050E08CEB94E00E94CD3064EC71E01C
:103F20008CEB94E00E94C62F6091E50270E04AE0BD
:103F300050E08CEB94E00E94CD306DEB71E08CEBA7
:103F400094E00E94C62F6091E70270E04AE050E0E2
:103F50008CEB94E00E94CD3080911101811106C05C
:103F600066EB71E08CEB94E00E94C62F8091E90231
:103F7000882331F06DEA71E08CEB94E00E94C62F4B
:103F800064EA71E08CEB94E00E94C62F6091E80235
:103F900070E04AE050E08CEB94E00E94CD306CE998
:103FA00071E08CEB94E00E94C62F4AE050E06091F3
:103FB000EA028CEB94E00E94FA306CE871E08CEB42
:103FC00094E00E94C62F6091ED027091EE024AE0EB
:103FD00050E08CEB94E00E9418318091AE03813167
:103FE00071F06EE771E08CEB94E00E94C62F4AE01E
:103FF00050E06091AE038CEB94E00E94FA30809127
:10400000E802882371F06EE671E08CEB94E00E9488
:10401000C62F4AE050E0609110018CEB94E00E94C2
:10402000FA3060E772E08CEB94E00C9418308F92D9
:104030009F92AF92BF92CF92DF92EF92FF920F9337
:104040001F93CF93DF9300D000D000D0CDB7DEB761
:1040500069E371E0CE0101960E947D2E44E050E0BC
:10406000BE016F5F7F4F8CED92E00E941C2F7C01A0
:10407000CE0101960E940F2E26E0C22E21E0D22E04
:1040800000E010E0FF24902EF601A190B1906F01A6
:10409000970142E050E06CED72E0CE0101960E9483
:1040A000382FB501CE0101960E94EA2EB82ECE011E
:1040B00001960E940F2EBB2009F443C0D02EF801B8
:1040C000EE0FFF1FEA5FFE4F608171818CEB94E081
:1040D0000E94F92F69E371E08CEB94E00E94F92FC4
:1040E000F3E00F17D1F12091E0023091E102A70136
:1040F0004F5F5F4F6CED72E0CE0101960E94382F4A
:10410000CE0101960E947D2FD62E862ECE010196DD
:104110000E940F2E4AE050E06D2D8CEB94E00E943F
:104120000131F801E75AFD4F80816D2D90E00E942A
:104130002F1B002379F081E0081310C0D092AE034A
:104140004CC00F5F1F4F0430110509F09CCF84E075
:10415000D82E03C0D092100140C09D2CE2E09E12E8
:1041600003C08092EA0239C0F3E09F1230C0209170
:10417000E0023091E102A7014F5F5F4F6CED72E00A
:10418000CE0101960E94382FCE0101960E947D2F0C
:104190007093EE026093ED02CE0101960E940F2E05
:1041A0006091EE0283EF90E00E942F1B6091ED0280
:1041B00084EF90E00E942F1B6091ED027091EE025F
:1041C0004AE050E08CEB94E00E941E3106C060E7AC
:1041D00072E08CEB94E00E94183026960FB6F894AB
:1041E000DEBF0FBECDBFDF91CF911F910F91FF902A
:1041F000EF90DF90CF90BF90AF909F908F900895F9
:10420000CF93DF9300D0CDB7DEB720915905309121
:104210005A052115310511F42DE535E0CE01019641
:10422000821B930B0F900F90DF91CF910895CF9247
:10423000DF92EF92FF920E949E2AC090CF02D09010
:10424000D002E090D102F090D2026C157D058E056F
:104250009F0528F42091CE022F5F2093CE02609319
:10426000CF027093D0028093D1029093D20228EEB5
:1042700033E040E050E00E94AB3469017A01A09144
:10428000CE02B0E027E339E841E450E00E946C340C
:10429000C60ED71EE81EF91EC701B601FF90EF90AB
:1042A000DF90CF900895CF93C82F803130F469EA22
:1042B00071E08CEB94E00E94F92F40E150E06C2F0C
:1042C0008CEB94E0CF910C94FA303F924F925F9236
:1042D0006F927F928F929F92AF92BF92CF92DF9216
:1042E000EF92FF920F931F93CF93DF93CDB7DEB77B
:1042F000CD57D1090FB6F894DEBF0FBECDBFED96F6
:104300001FAE1EAEED97EB961FAE1EAEEB970E9452
:10431000DB1D99249A94812CA12C55245394B6E149
:10432000BB2E1BE0712E66246394BE0167587F4F3D
:10433000CE0185589F4F0E94CC1E882309F447C1A7
:10434000809113018335D9F425E0921609F47BC0DE
:1043500080911201833409F437C18D3411F0823514
:1043600021F79394E1E0F0E0EC0FFD1FB99CE00D24
:10437000F11D112411821082658AA12CD6CF8235BD
:10438000F1F5AA20C1F0ED962EAD3FADED9721508D
:104390003109EB964EAD5FADEB976CED72E0CE015F
:1043A00081599F4F0E94382FCE0181599F4F0E9403
:1043B0007D2F562EADC03FEF931609F4B6CFED9684
:1043C0002EAD3FADED9721503109EB964EAD5FAD6F
:1043D000EB976CED72E0CE0181599F4F0E94382F10
:1043E000CE0181599F4F0E947D2FE1E0F0E0EC0F5C
:1043F000FD1FB99CE00DF11D1124658B89C09FEF55
:10440000991609F492CF803509F04AC0EB964EAD6B
:104410005FADEB979A0121503109425051096CED83
:1044200072E0CE0181599F4F0E94382FCE018159F1
:104430009F4F0E947D2F162FCE0181599F4F0E94C2
:104440000F2E193038F08FEF9FEFEB969FAF8EAFA6
:10445000EB97BDC0ED962EAD3FADED9721503109E4
:10446000EB964EAD5FADEB976CED72E0CE018159EE
:104470009F4F0E94382FCE0181599F4F0E947D2F60
:10448000799CF0011124E10FF11DEE0FFF1F21E0D7
:1044900030E02C0F3D1FE20FF31F7683658338C099
:1044A0008434A1F4EA968FADEA97E1E0F0E0EC0FF6
:1044B000FD1FB99CE00DF11D11248283ED968EAD98
:1044C0009FADED970297948383832FCF833431F58B
:1044D000ED962EAD3FADED9721503109EB964EADE7
:1044E0005FADEB976CED72E0CE0181599F4F0E945A
:1044F000382FCE0181599F4F0E947D2FE1E0F0E0DF
:10450000EC0FFD1FB99CE00DF11D11247183608338
:10451000CE0181599F4F0E940F2E07CF863409F09C
:1045200004CFED968EAD9FADED97EB962EAD3FADE2
:10453000EB97821B930B97FD019695958795882E97
:104540008150853008F0F1CE8091D702882309F49C
:10455000ECCECE018B589F4F7C0100E010E02DE0A7
:10456000422E400E60E8842D0E94651BF701819366
:104570007F016801CC0CDD1CEB966EAD7FADEB9737
:104580006C0D7D1D8CED92E00E941A2F0E94311B54
:10459000382E329440EF3422EB966EAD7FADEB9720
:1045A0006F5F7F4F6C0D7D1D8CED92E00E941A2F86
:1045B0000E94311B632D680F842D0E94701B0F5FBA
:1045C0001F4F081560F2B1CEAA24A394AECEEB968D
:1045D0008EAD9FADEB97019621F0612C96E1492EAF
:1045E0002BC064E372E08CEB94E00E94C62F8AC07B
:1045F000479C70011124E1E0F0E0EC0FFD1FEE0D8F
:10460000FF1D80819181312C892BD1F08F015F01B9
:1046100025E1A20EB11C6F0133E0C30ED11C7F0156
:1046200082E0E80EF11CF5018081381668F12B98C4
:1046300073949714E8F663946514C9F1712CD8CF7C
:104640006F0195E1C90ED11C25E0E20EF11C81E05D
:1046500090E08C0F9D1FE80EF91E5F0193E0A90EFC
:10466000B11C8F010E5F1F4FF60180813816F8F6DE
:10467000F501608171812CED32E0A701F8018081A4
:104680000E94E51D3394F0CF332031F061E070E0FB
:1046900080E090E00E94CD2AF80140815181F6012E
:1046A0006081F70180810E944E1E3394BCCF6CED77
:1046B00072E08CEB94E00E94EB2F882019F162E20B
:1046C00072E08CEB94E00E94C62F7E01F5E7EF0EBE
:1046D000F11C87018CE0D82EDE18802F8E198815EA
:1046E00088F4F80161918F01862FEE966FAFEE97F7
:1046F0000E945321EE966FADEE978D2D800F0E9494
:10470000701BEBCF0E94D41D60E772E08CEB94E04D
:104710000E941830C358DF4F0FB6F894DEBF0FBEAB
:10472000CDBFDF91CF911F910F91FF90EF90DF9060
:10473000CF90BF90AF909F908F907F906F905F9041
:104740004F903F900895CF92DF92EF92FF920F9398
:104750001F93E62FEE0FFF0B64E04602A001112429
:1047600098E029029001112460E1060280011124E1
:104770009E2D60E29602700111249C2D60E4960249
:1047800060011124682F60686C296E29602B622BF0
:10479000642B6E2B8FEF90E01F910F91FF90EF90A5
:1047A000DF90CF900C942F1BCF92EF920F93CF936B
:1047B000DF9362E070E08CED92E00E941A2F833567
:1047C00099F162E070E08CED92E00E941A2F85353D
:1047D00071F162E070E08CED92E00E941A2F833458
:1047E00049F162E070E08CED92E00E941A2F823570
:1047F00021F162E070E08CED92E00E941A2F843487
:10480000F9F062E070E08CED92E00E941A2F8C3497
:10481000D1F062E070E08CED92E00E941A2F8634B5
:10482000A1F4C9EED2E011C0C6EED2E00EC0C4EED3
:10483000D2E00BC0C5EED2E008C0C7EED2E005C0A2
:10484000C8EED2E002C0C1E1D1E061E070E08CEDE1
:1048500092E00E941A2F853419F481E0888309C000
:1048600061E070E08CED92E00E941A2F843489F4AC
:104870001882C090E902E09011010091E8022091B5
:10488000E7024091E5026091E4028091E6020E9415
:10489000A323DF91CF910F91EF90CF9008956F9266
:1048A0007F928F929F92AF92BF92CF92DF92EF92C0
:1048B000FF920F931F93CF93DF93EC014B015A01AB
:1048C00039018FEF90E00E942D1B982F91709883F3
:1048D00081FB992790F9F401908382FB992790F945
:1048E000F501908383FB992790F9F301908384FB72
:1048F000992790F9F801908385FB992790F9F701A2
:10490000908386FB882780F9F601808380EF90E012
:104910000E942D1B8093100182EF90E00E942D1BBE
:104920008093EA0283EF90E00E942D1BC82F84EF52
:1049300090E00E942D1B2C2F332727FD3095322F1E
:104940002227280F311D3093EE022093ED0281EFD4
:1049500090E00E942D1B811101C081E18093AE0384
:10496000DF91CF911F910F91FF90EF90DF90CF904B
:10497000BF90AF909F908F907F906F900895CF924F
:10498000DF92EF92FF920F931F9389EEC82E82E081
:10499000D82E91E1E92E91E0F92E08EE12E027EEF3
:1049A00032E045EE52E064EE72E086EE92E00E9464
:1049B0004F241F910F91FF90EF90DF90CF900895BB
:1049C0006FEB8FEF90E00E942F1B60E580EF90E08F
:1049D0000E942F1B60E081EF90E00E942F1B64E09B
:1049E00082EF90E00E942F1B6FE183EF90E00E9426
:1049F0002F1B60E484EF90E00E942F1B69E471E0BC
:104A00008CEB94E00C9406300F931F93CF93DF93BD
:104A100060E070E08CED92E00E941A2F803571F416
:104A20006BEF71E08CEB94E00E94183084EF91E022
:104A3000DF91CF911F910F910C94F52A60E070E007
:104A40008CED92E00E941A2F8F3309F0A6C061E02E
:104A500070E08CED92E00E941A2F8335A9F4C6E035
:104A6000D1E0699179918CEB94E00E94F92F67E68F
:104A700071E08CEB94E00E94F92F81E0CE30D807F2
:104A800081F760E772E0A3C06FE38CEB94E00E94D3
:104A9000FB2F65E172E08CEB94E00E94C62F66E587
:104AA0008CEB94E00E94FB2F60E28CEB94E00E9480
:104AB000FB2F62E58CEB94E00E94FB2F60E28CEB15
:104AC00094E00E94FB2F64E78CEB94E00E94FB2FA4
:104AD00060E28CEB94E00E94FB2F68E58CEB94E0A5
:104AE0000E94FB2F60E28CEB94E00E94FB2F66E4B7
:104AF0008CEB94E00E94FB2F60E28CEB94E00E9430
:104B0000FB2F63E58CEB94E00E94FB2F60E28CEBC3
:104B100094E00E94FB2F60E58CEB94E00E94FB2F59
:104B200060E28CEB94E00E94FB2F63E48CEB94E05A
:104B30000E94FB2F60E28CEB94E00E94FB2F62E767
:104B40008CEB94E00E94FB2F60E28CEB94E00E94DF
:104B5000FB2F67E58CEB94E00E94FB2F60E28CEB6F
:104B600094E00E94FB2F8091D702882309F489CF1B
:104B700068E78CEB94E00E94FB2F60E28CEB94E002
:104B80000E94FB2F65E68CEB94E00E94FB2F60E215
:104B90008CEB94E00E94FB2F74CF60E070E08CED12
:104BA00092E00E941A2F8635D1F46EEF71E08CEB03
:104BB00094E00E94F92F8091D702882331F06DE0B4
:104BC00072E08CEB94E00E94C62F67E172E08CEB00
:104BD00094E0DF91CF911F910F910C94183060E019
:104BE00070E08CED92E00E941A2F823569F40E94E9
:104BF00000214AE050E0BC018CEB94E0DF91CF91C2
:104C00001F910F910C94D53060E070E08CED92E034
:104C10000E941A2F833581F483EE92E00E944803AC
:104C2000892B21F081E08093D602F0C1DF91CF91F2
:104C30001F910F910C94652160E070E08CED92E083
:104C40000E941A2F843771F40E941721AB01BC0116
:104C50002AE030E08CEB94E0DF91CF911F910F912F
:104C60000C94343160E070E08CED92E00E941A2FD9
:104C70008835C9F461E070E08CED92E00E941A2F53
:104C8000813511F40E94DB1D61E070E08CED92E053
:104C90000E941A2F853409F0B9C1DF91CF911F917D
:104CA0000F910C94D41D60E070E08CED92E00E94B6
:104CB0001A2F863409F4AAC160E070E08CED92E00E
:104CC0000E941A2F833409F561E070E08CED92E0C8
:104CD0000E941A2F873431F4DF91CF911F910F91E9
:104CE0000C94701F61E070E08CED92E00E941A2F2E
:104CF000853409F455C061E070E08CED92E00E94CB
:104D00001A2F843409F052C04BC060E070E08CED83
:104D100092E00E941A2F8735E9F461E070E08CED93
:104D200092E00E941A2F833509F078C062E070E0AB
:104D30008CED92E00E941A2F833309F06FC08091AE
:104D4000D702882309F46AC0DF91CF911F910F9198
:104D50000C94941C60E070E08CED92E00E941A2F9D
:104D6000823709F0ADC061E070E08CED92E00E9406
:104D70001A2F992787FD90950E941937892B09F4DE
:104D80009FC062E070E08CED92E00E941A2F99279C
:104D900087FD90950E941937892B09F0CDC090C0EE
:104DA000DF91CF911F910F910C94D42361E070E0BB
:104DB0008CED92E00E941A2F833531F4DF91CF9170
:104DC0001F910F910C94172061E070E08CED92E040
:104DD0000E941A2F992787FD90950E941937892BD9
:104DE00009F40AC162E070E08CED92E00E941A2F93
:104DF000992787FD90950E941937892B09F4FCC0EB
:104E00008091D702882309F4F7C081E00E94531FE4
:104E1000DF91CF911F910F910C94E31B61E070E043
:104E20008CED92E00E941A2F992787FD90950E94A1
:104E30001937892B09F4E0C062E070E08CED92E054
:104E40000E941A2F992787FD90950E941937892B68
:104E500009F4D2C063E070E08CED92E00E941A2F5A
:104E6000992787FD90950E941937892B09F4C4C0B2
:104E700064E070E08CED92E00E941A2F992787FD84
:104E800090950E941937892B09F4B6C081E00E94E1
:104E9000531FC82F83E00E94531FD82F682F8C2FD9
:104EA00090E00E942F1B8091D702882309F4AEC0A6
:104EB0006D2F8C2FDF91CF911F910F910C94FC1CC3
:104EC00060E070E08CED92E00E941A2F883709F0C4
:104ED0006FC061E070E08CED92E00E941A2F99277C
:104EE00087FD90950E941937892B09F461C062E013
:104EF00070E08CED92E00E941A2F992787FD909523
:104F00000E941937892B09F453C08091D702882356
:104F100009F44EC081E00E94531FC82F0E941D1D3E
:104F200067EF71E08CEB94E00E94C62F8C2F0E94FB
:104F3000532166EE71E062C081E00E94531F082F8A
:104F400065E072E08CEB94E00E94C62F802F0E94F7
:104F5000532163E070E08CED92E00E941A2F10E084
:104F60008E36D1F462E072E08CEB94E00E94C62FA2
:104F7000C0E0D0E067E671E08CEB94E00E94F92F8E
:104F8000CE01800F911F0E942D1B0E94532121965C
:104F9000C031D10579F775CD6EEF71E08CEB94E0FF
:104FA0000E94C62FC8010E942D1B0E94532169CD6B
:104FB00060E070E08CED92E00E941A2F8536E1F4FB
:104FC00061E070E08CED92E00E941A2F833441F48E
:104FD0000E94E024DF91CF911F910F910C94BF2488
:104FE0008091D702882341F00E94361DDF91CF9136
:104FF0001F910F910C94881D62ED71E08CEB94E091
:10500000DF91CF911F910F910C940630DF91CF91DA
:105010001F910F910895CF93DF938091D60288233B
:1050200089F01092D6020E9404258091D602811147
:1050300006C060E772E08CED92E00E94932E81E062
:105040008093E2021092EF02D1E08091B7038823AF
:1050500009F44BC08091B70381508093B7038091CE
:10506000B9036091B6030E9477349093B903E0913D
:10507000B90381E08E0F8093B903F0E0EE0FFF1FBC
:10508000E654FC4F808191819093CD028093CC02B5
:105090006CEC72E083EE92E00E94D51A8091E802F7
:1050A0008823B9F08091EF02882399F0C091B7036B
:1050B000809110018C1768F460E472E08CEB94E04E
:1050C0000E94C62F4AE050E06C2F8CEB94E00E94C7
:1050D00001318091EF02882329F080911101811123
:1050E000D093E2021092EF02B0CFDF91CF910895FA
:1050F00080E090E00E942D1B833331F481E090E04A
:105100000E942D1B8D3271F00E94E02463E380E049
:1051100090E00E942F1B6DE281E090E00E942F1B27
:105120000C94BF246EE271E08CEB94E00E94063098
:10513000F7CF26E040E051EE60E070E08CEB94E0C9
:105140000E94082D6CEA72E08CEB94E00E9406301D
:105150005298259A0E947828239A8091E802882301
:1051600031F06AE972E08CEB94E00E94063062E371
:1051700070E080E090E00E94CD2A80E18093810081
:105180001092800082E08093AC0488E199E79093CC
:10519000AE048093AD04909387008093860082E1F3
:1051A0008093810087E199E29093AB048093AA04F5
:1051B00081E080936F006CE271E08CED92E00E94E0
:1051C000402E8091D702882321F00E94C21D88239F
:1051D00049F00E94D41D8091E802882349F069E8D3
:1051E00072E002C064E472E08CEB94E00C94063050
:1051F0000895FC019B0181818837B8F481818F5F1C
:105200008183828160810E94773492838281DF0171
:10521000A80FB11DA80FB11D149611963C932E93A3
:1052200082818F5F828381E0089580E008950F93EB
:105230001F930E94AA2A0091D8021091D9022091AE
:10524000DA023091DB02601B710B820B930B623030
:105250007D4781059105A8F04A9B03C061E07DE789
:1052600002C06FEF72E886EB93E00E94F9280E947B
:10527000AA2A6093D8027093D9028093DA0290939D
:10528000DB028091D4029091D5029C012F5F3F4FA9
:105290003093D5022093D402892B51F48091D3020C
:1052A00091E0980F9093D302811102C00E941721C0
:1052B0006091E2028DE00E94EF2B1092E2021F91BA
:1052C0000F910895CF92DF92EF92FF920F931F9369
:1052D000F8940E94AA2A0091D8021091D902209134
:1052E000DA023091DB026B017C01C01AD10AE20ABA
:1052F000F30A970186016093D8027093D9028093D4
:10530000DA029093DB020A35110521053105A0F080
:1053100081E0C8168DE7D806E104F10410F4B60167
:1053200002C061E07DE74A9B03C0719561957109F8
:1053300086EB93E00E94F92878941F910F91FF90DB
:10534000EF90DF90CF90089588E78093B603109296
:10535000B7031092B9031092B8038FE780937C03D0
:1053600084E080937A031092F802109277031092EF
:10537000780387E08093790380EF80937B03ECE8E8
:10538000F3E0F0939103E09390038EE893E0909321
:105390009303809392031092B1031092B003109282
:1053A000B3031092B2031092B5031092B4031182AA
:1053B000108283EE92E00E94E30181E18093AE03CC
:1053C0001092EB021092EC0260E772E08CED92E03A
:1053D0000E947D2E0E94AA2A6093D8027093D9025F
:1053E0008093DA029093DB0208958CED92E00C94A6
:1053F0000F2ECF93C1E08CEB94E00E94252C892BDB
:1054000051F18CEB94E00E943E2C8A3041F01CF468
:10541000882329F007C08D3011F0833219F4C0932E
:10542000D60205C0682F8CED92E00E94D72E8091A5
:10543000E0029091E1028D329140E8F260E772E083
:105440008CED92E00E94932E61E671E08CEB94E08B
:105450000E940630D0CFCF9108951F920F920FB6C1
:105460000F9211242F933F934F935F936F937F93EA
:105470008F939F93AF93BF93EF93FF93E091AA0411
:10548000F091AB040995FF91EF91BF91AF919F917E
:105490008F917F916F915F914F913F912F910F90DD
:1054A0000FBE0F901F9018951F920F920FB60F927C
:1054B00011242F933F938F939F93AF93BF9380912A
:1054C000B0049091B104A091B204B091B3043091B2
:1054D000AF0423E0230F2D3720F40196A11DB11D49
:1054E00005C026E8230F0296A11DB11D2093AF042D
:1054F0008093B0049093B104A093B204B093B3042A
:105500008091B4049091B504A091B604B091B70411
:105510000196A11DB11D8093B4049093B504A0938E
:10552000B604B093B704BF91AF919F918F913F9113
:105530002F910F900FBE0F901F9018952FB7F894D2
:105540006091B0047091B1048091B2049091B30461
:105550002FBF08953FB7F8948091B4049091B5049B
:10556000A091B604B091B70426B5A89B05C02F3F03
:1055700019F00196A11DB11D3FBF6627782F892F15
:105580009A2F620F711D811D911D42E0660F771FDA
:10559000881F991F4A95D1F70895CF92DF92EF9215
:1055A000FF92CF93DF936B017C010E94AA2AEB014B
:1055B000C114D104E104F10489F00E943B2B0E9444
:1055C000AA2A6C1B7D0B683E734090F381E0C81AD9
:1055D000D108E108F108C851DC4FEACFDF91CF9143
:1055E000FF90EF90DF90CF9008958230910538F0D2
:1055F000880F991F880F991F05970197F1F7089554
:10560000789484B5826084BD84B5816084BD85B59D
:10561000826085BD85B5816085BDEEE6F0E0808164
:1056200081608083E1E8F0E0108280818260808385
:10563000808181608083E0E8F0E080818160808308
:10564000E1EBF0E0808184608083E0EBF0E080813A
:1056500081608083EAE7F0E08081846080838081DC
:105660008260808380818160808380818068808384
:105670001092C100089508958230E8F4E82FF0E018
:10568000EE0FFF1FE854FB4F71836083813041F0C0
:10569000809169008C7F842B80936900E89A08953B
:1056A00080916900440F551F440F551F837F842B41
:1056B00080936900E99A0895823068F4813011F08E
:1056C000E89801C0E998E82FF0E0EE0FFF1FE854DA
:1056D000FB4F1182108208951F920F920FB60F9206
:1056E00011242F933F934F935F936F937F938F93E7
:1056F0009F93AF93BF93EF93FF938091B8049091E2
:10570000B904892B29F0E091B804F091B904099506
:10571000FF91EF91BF91AF919F918F917F916F9189
:105720005F914F913F912F910F900FBE0F901F905F
:1057300018951F920F920FB60F9211242F933F933B
:105740004F935F936F937F938F939F93AF93BF9389
:10575000EF93FF938091BA049091BB04892B29F0B9
:10576000E091BA04F091BB040995FF91EF91BF91CC
:10577000AF919F918F917F916F915F914F913F91E9
:105780002F910F900FBE0F901F901895833081F0CE
:1057900028F4813099F08230A1F008958730A9F083
:1057A0008830B9F08430D1F4809180008F7D03C0BF
:1057B000809180008F7780938000089584B58F77E3
:1057C00002C084B58F7D84BD08958091B0008F772D
:1057D00003C08091B0008F7D8093B00008950F9337
:1057E0001F93CF93DF931F92CDB7DEB7282F30E002
:1057F000F901EA5EFC4F8491F901E65DFC4F1491DA
:10580000F901E25CFC4F04910023C9F0882321F0E8
:1058100069830E94C62B6981E02FF0E0EE0FFF1F25
:10582000EE5AFC4FA591B4919FB7F8948C916111F9
:1058300003C01095812301C0812B8C939FBF0F90D3
:10584000DF91CF911F910F910895FC01818D228DE1
:1058500090E0805C9F4F821B91098F739927089578
:10586000FC01918D828D981731F0828DE80FF11D2A
:10587000858D90E008958FEF9FEF0895FC01918D45
:10588000828D981761F0828DDF01A80FB11D5D96A2
:105890008C91928D9F5F9F73928F90E008958FEF10
:1058A0009FEF089582EC9DE2892B49F089EF99E200
:1058B000892B29F00E94C22D81110C94F929089599
:1058C000FC01848DDF01A80FB11DA35ABF4F2C919D
:1058D000848D90E001968F739927848FA689B7896C
:1058E0002C93A089B1898C9180648C93938D848D45
:1058F000981306C00288F389E02D80818F7D808314
:105900000895CF93DF93EC01888D8823C9F0EA894D
:10591000FB89808185FD05C0A889B9898C9186FDA8
:105920000FC00FB607FCF5CF808185FFF2CFA889A5
:10593000B9898C9185FFEDCFCE010E94602CE7CF15
:10594000DF91CF910895CF92DF92FF920F931F9333
:10595000CF93DF931F92CDB7DEB76C0181E0D60104
:1059600058968C9358975B969C915B975C968C911C
:105970005C97981307C05096ED91FC9151978081E8
:1059800085FD2EC0F601038D10E00F5F1F4F0F73D2
:105990001127F02EF601848DF81211C00FB607FC06
:1059A000F9CFD6015096ED91FC915197808185FFFA
:1059B000F1CFC60169830E94602C6981EBCF838D92
:1059C000E80FF11DE35AFF4F6083D6015B960C93FD
:1059D0005B975296ED91FC915397808180620CC049
:1059E000D6015696ED91FC91579760835096ED91B4
:1059F000FC91519780818064808381E090E00F90DA
:105A0000DF91CF911F910F91FF90DF90CF9008957C
:105A1000BF92CF92DF92EF92FF92CF93DF93EC0190
:105A20006A017B01B22EE889F98982E08083411501
:105A300081EE580761057105A1F060E079E08DE322
:105A400090E0A70196010E94AB3421503109410931
:105A500051095695479537952795211580E13807C7
:105A600098F0E889F989108260E874E88EE190E0A6
:105A7000A70196010E94AB34215031094109510917
:105A80005695479537952795EC85FD853083EE85AE
:105A9000FF852083188EEC89FD89B082EA89FB8915
:105AA000808180618083EA89FB898081886080832E
:105AB000EA89FB89808180688083EA89FB8980810B
:105AC0008F7D8083DF91CF91FF90EF90DF90CF901B
:105AD000BF9008951F920F920FB60F9211242F932B
