:100000000C94F3010C9429140C9402140C941B020C
:100010000C941B020C941B020C941B020C941B02EC
:100020000C941B020C941B020C941B020C941B02DC
:100030000C941B020C94A8140C941B020C941B022D
:100040000C94491B0C941B020C9476140C945014C1
:100050000C941B020C941B020C941B020C941B02AC
:100060000C941B020C941B026D75746872657368A6
:10007000006D756F766572666C6D6178006D736387
:100080006E74006D636D626C006669666F6C696D9D
:1000900069740052656164696E672076616C75658C
:1000A000732066726F6D20656570726F6D0063639B
:1000B00031313031206973206E6F7420636F72723A
:1000C0006563746C79207365742E20506C65617360
:1000D0006520646F206120666163746F727920729D
:1000E000657365742076696120636F6D6D616E6400
:1000F000206500726563656976657220656E616270
:100100006C6564005374617274696E672074696D04
:1001100065726A6F6200206363506172746E756D00
:100120003D002063635665723D006F6B2E006E6F5D
:100130002043433131787820666F756E6421004327
:1001400043496E697420005573696E672073464990
:10015000464F004F4B006363726567207772697486
:1001600065206261636B200073656E64206661695F
:100170006C6564002F003B4D6465624669666F4C98
:10018000696D69743D003B6D634D696E4269744CE5
:10019000656E3D003B4D7553706C697454687265B3
:1001A00073683D003B4D754F766572666C4D6178A6
:1001B0003D005F4D53636E743D003B4D6465627559
:1001C000673D003B4D754E6F4F766572666C6F777D
:1001D0003D31003B4C45443D30003B4D7265643D34
:1001E000003B4D433D003B4D553D004D533D003DD3
:1001F000003A200063637265672000433345203D69
:1002000020002064656C617931200020636869708A
:100210005374617475732000636D645374726F62FC
:10022000655265672000556E737570706F727465E6
:100230006420636F6D6D616E640020746F205041A7
:100240005441424C4520646F6E6500577269746575
:100250002000203D20002000203A00454550524F0C
:100260004D20002D20636F6D70696C656420617492
:10027000204A616E20313020323031392032303A1C
:1002800031303A3231006363313130312000562051
:10029000332E332E322E312D726338205349474E80
:1002A000414C6475696E6F200020782065003F2006
:1002B000557365206F6E65206F662056205220743E
:1002C000205820532050204320722057003D20000A
:1002D000435300890083007D007100680020616441
:1002E0006444617461206F766572666C6F7721215A
:1002F000002062797465636E743D0076616C3D0028
:10030000206D62206E6D20622070726F6320004D40
:10031000463D003B0046006D4F766572666C6F7718
:100320002673746174653D3021000D2E2D07D39125
:100330003D04320000060010B07157C43023B900EC
:10034000070018146C070090876BF85611E92A0013
:100350001F410000000000250028002B00040404B9
:10036000040404040402020202020203030303035E
:10037000030102040810204080010204081020013B
:10038000020408102000000008000201000003041D
:100390000700000000000000002900636D64207465
:1003A0006F206C6F6E672120286D61782000496E88
:1003B000697420656570726F6D20746F2064656666
:1003C00061756C7473002073746172743D002062F7
:1003D0007566664D6F7665206F766572666C6F77B1
:1003E00021009427902711241FBECFEFD8E0DEBF55
:1003F000CDBF11E0A0E0B1E0E4E1F0E602C005907D
:100400000D92AA3DB107D9F724E0AAEDB1E001C0F1
:100410001D92AD3DB207E1F711E0C2EFD1E004C09B
:100420002197FE010E94282CC13FD107C9F70E94E5
:10043000931B0C94FD2F0C9400002F923F924F922F
:100440005F926F927F928F929F92AF92BF92CF9264
:10045000DF92EF92FF920F931F93CF93DF93CDB76D
:10046000DEB7E9970FB6F894DEBF0FBECDBF898F18
:10047000882321F081E08093840302C010928403DA
:100480008091A90320918003811108C0283230F4A3
:100490009091E702992311F40C94BE0E10928303FD
:1004A00091E02E3F09F090E090938503109289032C
:1004B000109288038111A4C28091E70281111BC1AF
:1004C00040E060E08DED92E00E940D15F12C2F2CA4
:1004D000312C8091A60390E00197281639060CF084
:1004E0000AC1F101E352FD4FCF0140962089F394F8
:1004F000222369F3EF2C9101220F331FA9014A56E1
:100500005C4F59A348A39BA38AA35DA34CA38091EE
:10051000A603E816E0F66E2D70E07F8F6E8F6352B3
:100520007D4F7D8F6C8FDB0150968C91882309F471
:10053000E0C0E8A1F9A1C080D180EE8DFF8DEE0F63
:10054000FF1FEA56FC4F00811181C60180279127C9
:1005500097FDCFC08090920390909303A090940356
:10056000B0909503B80117FF04C066277727601B7A
:10057000710B072E000C880B990B0E947D29A50199
:1005800094010E94DC292B013C01B601D7FE04C076
:10059000662777276C197D09072E000C880B990BAD
:1005A0000E947D29A50194010E94DC299B01AC01D8
:1005B000C301B2010E94052B20E030E040E05FE380
:1005C0000E94DC290E94712B0C191D0917FF03C022
:1005D000119501951109601771070CF48AC0D12C8F
:1005E000C12C0C8D1D8D005F1F4F80918003D8168C
:1005F00008F044C0D8018C91C81608F03FC06D2D9A
:1006000070E085EF92E00E94CF1480917B03E812A6
:1006100033C080917803482F50E0D89EC001112448
:10062000FC0163E0F695E7956A95E1F720917A037E
:10063000E21708F587709927FF27E352FD4F2091B5
:10064000790330E0082E02C0359527950A94E2F729
:100650002095308D232368E070E0641B750BDB016F
:10066000A81BB90BA10102C0440F551FAA95E2F7C0
:10067000CA01822B808FC394D394B7CFAAA1BBA108
:10068000CC90EC8DFD8DD088ECA1FDA1A081B18135
:100690000E8D1F8D000F111F0A561C4FF801A080F0
:1006A000B180EC2DF0E09F010E94212C2B013C0138
:1006B0004D2D50E09A01D5010E94212C640D751D2D
:1006C000861D971DE40FF51F9F01FF0F440B550B6F
:1006D0000E94022CACA1BDA12D933C93DC0CEAA19D
:1006E000FBA1D082AC8DBD8D50961C92F801118279
:1006F0001082E3940CCF8091E5028823F1F11092EF
:100700008103609181036A3070F570E06F5F7F4F05
:1007100085EF92E00E94CF1420917B0330E080911E
:10072000A803082E000C990B2817390711F00C9418
:10073000C70E6091810370E085EF92E00E94CF14B4
:1007400020917B0330E08091DD02082E000C990B94
:100750002817390711F00C94C70E82E090E09093AF
:100760008903809388038091880390918903892B62
:1007700009F095C01092E50204C08091E60288233A
:1007800031F040E060E08DED92E00E940D15809127
:10079000880390918903892B09F081C08FEF8093A2
:1007A000DD02F091A603FC8F809080033DEDC32E07
:1007B00032E0D32E46E9242E43E0342EE12CF12CF6
:1007C0000FEF1FEF912CA12CB12C2C8DE21608F00D
:1007D00059C00F3F3FEF130701F5D1018D919C9157
:1007E00097FD1BC0F601608970E080E090E00E94F8
:1007F0007D292B013C01C501B4010E947D292BE715
:1008000034E14EE25EE30E94DC299B01AC01C301AE
:10081000B2010E94A72B181654F1D1018D919C9121
:1008200097FD26C0F801EE0FFF1FEA56FC4F20810E
:10083000318182179307E4F4F601608970E080E06B
:1008400090E00E947D292B013C01C501B4010E946A
:100850007D292BE734E14EE25EE30E94DC299B0117
:10086000AC01C301B2010E94A72B18160CF487013A
:10087000FFEFEF1AFF0A2FEFC21AD20A32E0230E5F
:10088000311CA3CF0F3F4FEF140709F4BFC00093F3
:10089000DD0281E090E0909389038093880380914A
:1008A000880390918903019709F0B0C08091E0021C
:1008B000882309F4ABC08091AB038111A7C080915C
:1008C0008003282F30E0203A310524F498EDA92E3A
:1008D000A80E02C008E7A02EB090A603BA9416E0B6
:1008E000912EB7FC89C0CB2C0B2C000CDD08F60137
:1008F000E352FD4F1089112309F47CC0F601EE0F7D
:10090000FF1FEA56FC4F2081318137FF73C03195BC
:1009100021953109283652E435070CF06BC0E0917F
:10092000DD02EE0FFF0BEA56FC4F0190F081E02D47
:10093000C901BF010E94B82B6E32710508F05AC080
:100940009E9EC0019F9E900D11248217930708F070
:1009500051C0612F70E080E090E00E947D292B0162
:100960003C016091800370E080E090E00E947D296E
:100970002AE037ED43EA5DE30E94DC299B01AC01EC
:10098000C301B2010E94762987FF34C0123090F172
:1009900000E010E00A1570F578016FEFE61AF60A2C
:1009A000B70185EF92E00E94CF1480917B0390E025
:1009B000C816D90611F00C94CE0EB80185EF92E05E
:1009C0000E94CF1420917B0330E08091DD02082E3D
:1009D000000C990B2817390711F00C94CE0EB09229
:1009E000A80382E090E090938903809388030093AA
:1009F00081030CC0BA9475CF8FEF8093A80306C013
:100A000040E060E08DED92E00E940D15809188033A
:100A100090918903029709F088C2809180038832FF
:100A200008F483C28091E70281117FC21091810393
:100A30008CE0810F80938203165F80918103811780
:100A400008F03FC0E12EF12CB7016F5F7F4F85EFBB
:100A500092E00E94CF1420917B0330E08091A803A4
:100A6000082E000C990B2817390799F4B70185EF68
:100A700092E00E94CF1420917B0330E08091DD0250
:100A8000082E000C990B2817390719F410938103CD
:100A900018C01250D2CF6F5F7F4F85EF92E00E9457
:100AA000CF1420917B0330E08091A803082E000C26
:100AB000990B2817390781F0809182038E5F80930C
:100AC00082036091820370E08091800390E001973F
:100AD0006817790704F31AC06091820370E085EF0C
:100AE00092E00E94CF1420917B0330E08091DD02E0
:100AF000082E000C990B28173907F1F68091820314
:100B0000815080938203FF24F39401C0F12C8091E3
:100B10008003482F50E02091820330E024173507EE
:100B200014F4F11003C0815080938203409182033A
:100B3000609181038DED92E00E940D15609181031B
:100B4000FF2041F08091820390E0861B91098897F5
:100B500094F4EBC120918003822F90E0861B9109D1
:100B600088970CF4E2C12E3F08F0C0C1798D723035
:100B700011F40C945D119091E5028091E4029817B4
:100B800008F068C18091E102882309F4B3C082E0D3
:100B90000E94F21981E591E00E94C0198BE30E9446
:100BA000F219E12C8091A603E816C0F58E2D90E095
:100BB000FC01EE0FFF1FEA56FC4F00811181011569
:100BC000110551F1FC01E352FD4F8089882321F189
:100BD0006E2D17FF05C0606A11950195110901C0BE
:100BE0006068D02E07FD04C0802F8068D82E01C019
:100BF000606186E392E00E9428126D2D86E392E008
:100C00000E942812612F7727606886E392E00E9495
:100C100028128BE30E94F219E394C4CF80918203DF
:100C200080FF03C084E591E002C088ED91E00E945E
:100C3000C019E0918103E0FF1BC0E150E093810304
:100C4000E69580917A03E81728F4F0E0E352FD4F2F
:100C5000908D9A8F8A8D8F7080688A8F682F86E337
:100C600092E00E942812809181038E5F809381031D
:100C70001091810380918203811790F0E12FE69516
:100C800080917A03E81728F4F0E0E352FD4FA08D3D
:100C9000AA8F6A8D86E392E00E9428121E5FEACF37
:100CA0008BE30E94F21980E791E00E94C0198091C5
:100CB000DD0260E170E0082E000C990B0E94F7192C
:100CC0008BE30E94F21989E591E00E94C01980919E
:100CD000A80360E170E0082E000C990B0E94F71940
:100CE0008BE30E94F21986E591E00E94C01960E151
:100CF00070E079C082E00E94F21988E591E00E94DC
:100D0000C0198BE30E94F219E12C8091A603E8162A
:100D100048F58E2D90E08C01000F111F0A561C4FD4
:100D2000F80120813181232BD9F0FC01E352FD4FE2
:100D300080898823A9F080E50E94F2196AE070E0BA
:100D40008E2D0E94B2198DE30E94F2196AE070E0C4
:100D5000D8018D919C910E94F7198BE30E94F219A2
:100D6000E394D3CF8BE591E00E94C01910918103E9
:100D700080918203811770F0612F70E085EF92E01F
:100D80000E94CF146AE070E080917B030E94B21948
:100D90001F5FEECF8BE30E94F2198EE591E00E9477
:100DA000C0198091DD026AE070E0082E000C990BFA
:100DB0000E94F7198BE30E94F21982E691E00E94EB
:100DC000C0198091A8036AE070E0082E000C990B0E
:100DD0000E94F7198BE30E94F21986E691E00E94C7
:100DE000C0196AE070E08091AD030E94B2198BE3F4
:100DF0000E94F21980918503882339F089E691E0F9
:100E00000E94C0198BE30E94F2198091E3028823AB
:100E100009F180918103823068F082E591E00E94BF
:100E2000C0196AE070E0809181030E94B2198BE3DF
:100E30000E94F219B98DB11103C08EEB91E005C08B
:100E4000E98DE23039F48BE691E00E94C0198BE322
:100E50000E94F219109284038091E502F11002C001
:100E60008823C9F19091E302992389F09091E402DB
:100E7000891768F48DE691E00E94C0196AE070E07D
:100E80008091E5020E94B2198BE30E94F219209131
:100E9000E5022F5F2093E502FF20B9F0F98DF111F3
:100EA00009C08091800390E030918203831B9109F7
:100EB00088975CF0222379F0609182036F5F8DED5B
:100EC00092E00E94B915109281039091E502809101
:100ED000E402891738F083E00E94F2198BE291E076
:100EE0000E94C01981E08093EC021CC0662399F037
:100EF0008091820390E08D3F91056CF0298D211146
:100F000003C0109284030EC08DED92E00E94B915CB
:100F10001092810307C0398D323021F08DED92E0BF
:100F20000E946F1581E08093830380918303811178
:100F300015C78091DE024091DF024AA7811103C0EC
:100F4000442309F409C75AA5552309F478C48091AC
:100F5000880390918903029709F471C48091E1019B
:100F600081112BC082E38093290291E090932702A4
:100F70001092F10110922302109225021092240285
:100F800087E08093260280E8809328028FEF809389
:100F90002D0280932E0280932F02809330021092B4
:100FA00035022DED32E030932C0220932B0210926B
:100FB0003202109231029093E1018091A9038823BB
:100FC000A9F080912B0290912C02FC01E955FF4F72
:100FD00010823397108200E011E0992493946624E4
:100FE0006A9458E0852E67E0762EA9C18FEF809332
:100FF0002D0280932E0280932F0280933002109254
:10100000350210923202109231021092F1011092C8
:101010002302109225021092240287E08093260278
:101020008091AC038093330200912B0210912C022B
:10103000F801E753FF4FF08063E06F1508F0FFC33E
:10104000B697608170E080E090E00E947D292AE000
:1010500037ED43E25DE30E94DC294B015C0120E0B7
:1010600030E0A9010E94A72B20E030E040E05FE3E0
:1010700087FD05C0C501B4010E94052B04C0C50150
:10108000B4010E94042B0E94712B580170E1A70E3D
:10109000B11CF801E754FF4F212C70E0D5018D9170
:1010A0005D01861760F1E22C8E2D90E0EE20F1F0CC
:1010B0009E01280F391FD901DC9098012D0D311D9B
:1010C0002D0D311D27543F4F40815181D9012D9164
:1010D0003C914217530754F421E030E02C0F3D1FA0
:1010E000820F931FDC01DC92EA94DECF21E030E036
:1010F0002C0F3D1F820F931FDC017C9323947F5F95
:101100003296F712CBCFFE013196FA8BE98BFDA315
:10111000ECA340911401509115016091160170915A
:1011200017014BA75CA76DA77EA7BE01635F7F4F2A
:101130007C8B6B8BCE0109969E8B8D8BDE0151963D
:10114000B88FAF8BB989BAAB8CA18B1B821508F015
:1011500076C3ACA1BDA12D91BDA3ACA340912B0240
:1011600030912C02842F932F820F911D820F911D9D
:10117000FC01E754FF4F208131813D8F2C8F1216E7
:10118000130604F78FEF80932D0280932E02809335
:101190002F02809330023595279539AB28ABAE01ED
:1011A0004F5F5F4F5BA34AA31FA21EA26FEF7FEFAB
:1011B0007B8F6A8F8C8D9D8D092E000CAA0BBB0B2B
:1011C0008EAB9FABA8AFB9AF1FEF8AA19AA9891BBD
:1011D000821508F0B7CFAAA1BBA10D91BBA3AAA30A
:1011E00030912B0220912C02832F922F800F911D82
:1011F000800F911DFC01E754FF4FE080F1806EA944
:101200007FA988AD99AD0E947D294B015C016701E2
:10121000F7FE04C0CC24DD24CE18DF082DEC3CEC16
:101220004CE45EE3C501B4010E94DC290E94712BED
:1012300088A999A98C199D0997FF03C0919581955B
:101240009109681779070CF0ACC52DEC3CEC4CEC1F
:101250005EE3C501B4010E94DC290E94712B8C8DD4
:101260009D8D8C199D0997FF03C0919581959109DA
:10127000681779070CF09BC5A8CF802F0E94561ADB
:10128000E0902B02F0902C02F701EC55FF4F6082AA
:10129000B60161507109C70148960E94CF14F70149
:1012A000E256FF4F808190E020912F02022E000C29
:1012B000330B8217930709F404C720913002022EE2
:1012C000000C330B8217930709F4FBC6E0912B0245
:1012D000F0912C02EC55FF4F80818F3F09F4108371
:1012E00010913402C0902B02D0902C02F601ED55E3
:1012F000FF4F8081181708F4EBC020913302022EB3
:10130000000C330B409124025091250280912B0256
:1013100090912C02FC014217530708F0FEC0E253E3
:10132000FF4F2081222309F4F2C01092F1011092A4
:1013300023021092250210922402709226028091BC
:101340002B0290912C02412F50E0FC01ED55FF4FF4
:10135000208130E02E513109421753070CF068C24A
:10136000BA96908231978081882339F08091240247
:1013700090912502009709F072C0C12ED12CE09007
:101380002B02F0902C02F701ED55FF4F808190E089
:101390000197C816D9060CF051C0B601C70148968E
:1013A0000E94CF14F701E256FF4FA080B12C80912C
:1013B0002E02082E000C990BA816B90699F18091FF
:1013C0002D02082E000C990BA816B90609F077C655
:1013D000E0902B02F0902C02B60161507109C70118
:1013E00048960E94CF14F701E256FF4F8081E80E25
:1013F000F11CE80EF11CD701A754BF4F80912B02BE
:1014000090912C02E0912E02EE0FFF0BE80FF91FD6
:10141000E754FF4F2D913C91808191818217930772
:101420000CF44DC680912E02082E000C990B01E0A1
:101430008A159B0509F000E01093340220912B02DD
:1014400030912C02F901ED55FF4F808190E001971A
:10145000C816D9060CF411CFBA961082E9C1AC01B6
:101460004150510990912702949FB001959F700DB2
:101470001124FB0123E0F695E7952A95E1F7809189
:101480002902E81710F00FEF21C02091280230E068
:101490006770772702C0359527956A95E2F7FF2791
:1014A000EF50FE4F8081282330E0582D591B949F28
:1014B000802D11248770581B852FA90102C05595D6
:1014C00047958A95E2F7042F40932A0211E00ACF4C
:1014D000E12EF12CB701C60148960E94CF14F60107
:1014E000E256FF4F208130E080912D02082E000C43
:1014F000990B2817390709F451C680912E02082E3E
:10150000000C990B2817390709F04EC647C6193247
:1015100008F40BCFBA9710838BC1E855FF4F208199
:10152000DC01AD55BF4F3397222391F0412F50E09E
:101530002C9130E021503109421753074CF01083B1
:10154000B79621E020836FEF610F0E94B91570C13B
:101550008C91181708F41F5F108382E00E94F21923
:101560008FE691E00E94C0198BE30E94F21982E796
:1015700091E00E94C019E0912D02EE0FFF0BEA5698
:10158000FC4F6AE070E0808191810E94F7198BE343
:101590000E94F21986E791E00E94C019E0912E02A4
:1015A000EE0FFF0BEA56FC4F6AE070E080819181FC
:1015B0000E94F7198BE30E94F2198AE791E00E94DA
:1015C000C019E0912F02EE0FFF0BEA56FC4F6AE0C4
:1015D00070E0808191810E94F7198BE30E94F219DB
:1015E0008EE791E00E94C019E0913002EE0FFF0BF0
:1015F000EA56FC4F6AE070E0808191810E94F71901
:101600008BE30E94F2198BE591E00E94C019809152
:101610009F019091A001A091A10189839A83AB833E
:10162000B12C8E010F5F1F4F82E8E82E81E0F82E6B
:10163000CB2CD12C8091230290E020912902C81656
:10164000D906DCF4B21628F4F601EF50FE4F708193
:101650007BAB1F928BA98F93FF92EF921F930F93F7
:101660000E944A2DC8010E94C019B3940F900F9098
:101670000F900F900F900F90DBCFB21628F4F60169
:10168000EF50FE4F90819CAB8CA982958F701F927A
:101690008F9387E891E09F938F931F930F930E94FE
:1016A0004A2DC8010E94C019809124029091250200
:1016B0008770992701970F900F900F900F900F90C0
:1016C0000F900497F0F080912902B81628F4F601E3
:1016D000EF50FE4FA081ADAB8DA98F701F928F93FD
:1016E00087E891E09F938F931F930F930E944A2D59
:1016F000C8010E94C0190F900F900F900F900F908B
:101700000F908BE30E94F2198CE891E00E94C019BF
:101710006AE070E080913102909132020E94F719E4
:101720008BE30E94F21983E791E00E94C019609157
:1017300024027091250280E090E04AE00E94711935
:101740008BE30E94F21986E691E00E94C0196AE0DC
:1017500070E08091AD030E94B2198BE30E94F219F0
:101760008091E302882349F18091AA03811107C087
:101770008FE891E00E94C0198BE30E94F2198091DA
:1017800034028823D1F082E591E00E94C0196AE01A
:1017900070E0809134020E94B2198BE30E94F2192A
:1017A00081E991E00E94C0196AE070E080918103B4
:1017B0000E94B2198BE30E94F2198091850388235D
:1017C00039F089E691E00E94C0198BE30E94F2197A
:1017D0001092A90381E0809383038093EC026091CF
:1017E0008203B98DB11107C08091800390E0861B00
:1017F00091098897ACF061508DED92E00E94B91587
:101800001092810381E08093AB038091E3028823EF
:1018100039F083E991E00E94C0198BE30E94F2192C
:1018200083E00E94F2198BE291E00E94C01907C088
:101830008091A903882319F081E08093830380912C
:10184000DE02882309F484C2809188039091890381
:101850000197029708F07CC28091830381117EC2B8
:1018600080918003883228F48091E702882309F46C
:1018700073C21092810340E060E08DED92E00E941F
:101880000D158091E9029091EA02892B09F494C028
:101890008091E202811190C0F090A603FA94F7FCC7
:1018A0008BC0CF2C0F2C000CDD08F601EE0FFF1FB4
:1018B000EA56FC4F8081918197FF03C091958195F5
:1018C00091092091E9023091EA028217930730F3DF
:1018D000F601E352FD4F8089882301F3813099F4AA
:1018E00000E010E0B80185EF92E00E94CF148091F3
:1018F0007B0390E0C816D90689F20F5F1F4F0A30AC
:10190000110581F702C0883048F688E2809382038F
:1019100080918003883208F44FC018E2E12EF12C48
:101920008091800390E00197E816F9060CF044C01E
:10193000B70185EF92E00E94CF14E0917B03F0E0C5
:10194000EE0FFF1FEA56FC4F80819181B7011816F8
:10195000190674F485EF92E00E94CF14E0917B03A6
:10196000F0E0EE0FFF1FEA56FC4F8081918110C01E
:1019700085EF92E00E94CF14E0917B03F0E0EE0F40
:10198000FF1FEA56FC4F80819181919581959109C5
:101990002091E9023091EA028217930758F01093E0
:1019A0008203412F60E08DED92E00E940D15FF242F
:1019B000F3940FC01F5FB2CF909185038091800395
:1019C000992321F09091E202911182508093820339
:1019D000F12C8091E7029091E802981708F419C160
:1019E00020918503222351F02091E202222331F03D
:1019F000891721F091E09093EB0202C01092EB0264
:101A00009091E102992309F491C0811164C082E0B0
:101A10000E94F21985E991E00E94C0198BE30E94AF
:101A2000F219E12C8091A603E816C0F58E2D90E006
:101A3000FC01EE0FFF1FEA56FC4F008111810115DA
:101A4000110551F1FC01E352FD4F8089882321F1FA
:101A50006E2D17FF05C0606A11950195110901C02F
:101A60006068D02E07FD04C0E02FE068DE2E01C0C4
:101A7000606186E392E00E9428126D2D86E392E079
:101A80000E942812612F7727606886E392E00E9407
:101A900028128BE30E94F219E394C4CF80E791E00F
:101AA0000E94C0198091DD0260E170E0082E000CF8
:101AB000990B0E94F7198BE30E94F21986E591E0D9
:101AC0000E94C01960E170E08091AD030E94B219DC
:101AD0008BE30E94F2198091820380FF06C088ED9B
:101AE00091E00E94C01910E014C084E591E0F9CFA4
:101AF000E12FE69580917A03E81728F4F0E0E352AD
:101B0000FD4F208D2FA76FA586E392E00E9428123B
:101B10001E5F80918203181758F304C08091EB0276
:101B200081117AC08BE30E94F21976C081115DC0E9
:101B300082E00E94F21988E991E00E94C0198BE3CB
:101B40000E94F21910E08091A603181768F5812F02
:101B500090E09C01220F331FA9014A565C4F6A0195
:101B6000DA012D913C91232BE9F0FC01E352FD4F6A
:101B700080898823B9F08BE991E00E94C0196AE05E
:101B800070E0812F0E94B2198DE891E00E94C01987
:101B90006AE070E0F601808191810E94F7198BE381
:101BA0000E94F2191F5FCFCF8EE591E00E94C0190D
:101BB0008091DD026AE070E0082E000C990B0E9413
:101BC000F7198BE30E94F21986E691E00E94C01992
:101BD0006AE070E08091AD030E94B2198BE30E942D
:101BE000F2198BE591E00E94C01910E08091820308
:101BF000181708F093CF612F70E085EF92E00E94F4
:101C0000CF146AE070E080917B030E94B2191F5FDD
:101C1000EDCF81E08093EB021092840381E080930A
:101C2000EC028093830380918503882361F1F11096
:101C300023C08091E2028823F9F09091E70280911D
:101C4000E80298130DC08DE991E00E94C0196AE086
:101C500070E08091E7020E94B2198BE30E94F219B2
:101C60008091E7028F5F8093E702609182038DEDA0
:101C700092E00E94B91507C089E691E00E94C01960
:101C80008BE30E94F2198091E302882309F412C3C6
:101C90008091850381110AC38091EB02811106C3F3
:101CA000F98DF11103C08EEB91E005C0298D223032
:101CB00039F48BE691E00E94C0198BE30E94F2197F
:101CC0008091AA03811107C08FE891E00E94C0199A
:101CD0008BE30E94F219FF2051F18091E3028823E7
:101CE00069F083E991E00E94C0196AE070E0809198
:101CF000E6020E94B2198BE30E94F2198091E6027B
:101D00008F5F8093E602398D311109C08091800385
:101D100090E020918203821B9109889744F06091A2
:101D200082038DED92E00E94B9151092810380919B
:101D3000EB02811107C083E00E94F2198BE291E06F
:101D40000E94C01980918503811102C01092E702A0
:101D500080918303811102C01092840380918003DB
:101D60008E3F60F08091880390918903892B31F434
:101D700087E193E00E94481A1092840380918403C3
:101D80008111B5C28DED92E00E946F15B0C28091B5
:101D900081038F5F809381030C94810387010C94EE
:101DA000CA041E141F049CF40093300206C01E14C3
:101DB0001F040CF078C200932E02BEA1BF5FBEA329
:101DC000EA8DFB8DEE0DFF1DFB8FEA8F0BC000939C
:101DD0002F02FFA1FF5FFFA32A8D3B8D2E193F0924
:101DE0003B8F2A8F80912D028F3F09F4EEC980919D
:101DF0002F028F3F09F4E9C980912E028F3F09F429
:101E0000E4C9809130028F3F09F4DFC94BA55CA57E
:101E10006DA57EA54D875E876F87788B49875A872A
:101E20006B877C8761E070E079A768A7812C912C93
:101E3000E0902B02F0902C02F701ED55FF4F8081CE
:101E400090E0881699060CF0C0C9B401C701489605
:101E50000E94CF14F701E256FF4F0081802F90E0DF
:101E600020912D02022E000C330BE0902B02F090FB
:101E70002C0282179307C1F020912E02022E000C33
:101E8000330B8217930781F020912F02022E000C52
:101E9000330B8217930741F020913002022E000C81
:101EA000330B8217930751F4F701ED55FF4F8081F3
:101EB00090E001978816990609F0C3C0F701EC5528
:101EC000FF4F60819401261B310980913302082E57
:101ED000000C990B821793070CF0B0C031968082EA
:101EE000482DC7010E940D1580912B0290912C0264
:101EF00030903002A0912E02AE8F00912F02B0914F
:101F00002D02B8A3FC01E30DF11D37FCFA952089E1
:101F1000FC01EA0FF11DA7FDFA95C088D12CC20E75
:101F2000D11CFC01E00FF11D07FDFA952089C21AB2
:101F3000D108FC01EB0FF11DB7FDFA952089109235
:101F40003502C21AD108D7FE03C0D194C194D1087A
:101F50000D2C000CEE08FF08FC01ED55FF4FA08092
:101F6000B12CB5010B2C000C880B990B0E947D291C
:101F70002AE037ED43E25DE30E94DC292B013C01BE
:101F800020E030E0A9010E94A72B20E030E040E0F3
:101F90005FE387FD05C0C301B2010E94052B04C0A9
:101FA000C301B2010E94042B0E94712B6C157D05A8
:101FB0008E059F050CF409C95EA16FA1561305C9D2
:101FC0007E8D88A1781709F400C9301609F4FDC880
:101FD000081709F4FAC8371609F4F7C8381609F4CF
:101FE000F4C8701709F4F1C8FE013D96DE01199698
:101FF00081919D91891709F465C19F3F19F08F3F29
:1020000009F060C1A818B90880913302082E000CAD
:10201000990B8A159B050CF0D8C81D8719871E8758
:102020001A871F871B87188B1C877FEF871A970AD1
:1020300088A599A5019699A788A7FACE109235028E
:102040000BC080913502811107C0F701EC55FF4F9D
:10205000808291E09093350268A579A5C7014896E2
:102060000E94CF14F701E256FF4F8081AAE00A9F39
:10207000800D11248A3008F48C5980FE03C02D890C
:102080009E8902C02B899C89E22FF92F90E0482F6E
:1020900050E06081262F062E000C330B24173507E5
:1020A00019F06F3F19F48083292F01C02FEF9F5F34
:1020B000943009F4BACF31962F3F59F3B6CF1F5F52
:1020C0005CC91150123008F401C9E12EF12CC09006
:1020D0002B02D0902C02B70162507109C6014896BC
:1020E0000E94CF14F601E256FF4F808190E02091CC
:1020F0002F02022E000C330BF70131977F0182175C
:10210000930741F020913002022E000C330B82170E
:102110009307F1F4C0902B02D0902C02B701C601B6
:1021200048960E94CF14F601E256FF4F808190E05E
:1021300020912F02022E000C330B8217930761F1BE
:1021400020913002022E000C330B8217930721F1ED
:10215000C0902B02D0902C02B701C60148960E9475
:10216000CF14F601E256FF4F208130E0809130021B
:10217000082E000C990B2817390709F0A7C8E09121
:102180002B02F0912C02EC55FF4F1250108310E0FF
:10219000802F0E94561A96CF1250FACF09251F5F42
:1021A000802F0E94561A9EC8C0902B02D0902C02FD
:1021B000F601ED55FF4F808190E00197E816F90692
:1021C0000CF09BC8011130C080912F02082E000C2A
:1021D000990B8217930709F090C85FEFE51AF50A8B
:1021E000B701C60148960E94CF14F601E256FF4F90
:1021F000208130E080913002082E000C990B2817C6
:10220000390709F44EC0C0902B02D0902C02B701C0
:10221000C60148960E94CF14F601E256FF4F208176
:1022200030E080912E022EC080913002082E000CEA
:10223000990B8217930709F060C86FEFE61AF60A48
:10224000B701C60148960E94CF14F601E256FF4F2F
:10225000208130E080912F02082E000C990B281766
:102260003907F9F0C0902B02D0902C02B701C601BB
:1022700048960E94CF14F601E256FF4F208130E0CD
:1022800080912D02082E000C990B2817390709F0B0
:1022900034C8E0912B02F0912C02E353FF4F1082DF
:1022A0002CC81F5F7CCF00932D0293CDFF2009F433
:1022B0003ECD17CDF11022CD3ACD61110C947807A7
:1022C0000C9492076F89788D6E177F0709F090CE76
:1022D0008A8D9B8D66E070E00E94CC2B7093320259
:1022E000609331024AA541110C94E107A8CAE9960E
:1022F0000FB6F894DEBF0FBECDBFDF91CF911F9117
:102300000F91FF90EF90DF90CF90BF90AF909F9094
:102310008F907F906F905F904F903F902F90089597
:102320000895CF92DF92EF92FF920F931F93CF9376
:10233000DF936C017A018B01C0E0D0E0CE15DF05A0
:1023400081F0D8016D918D01D601ED91FC91019044
:10235000F081E02DC6010995892B11F02196EECF71
:102360007E01C701DF91CF911F910F91FF90EF90F8
:10237000DF90CF900895089580E090E00895FC01EB
:10238000538D448D252F30E0842F90E0821B930BDA
:10239000541710F0CF96089501970895FC01918D80
:1023A000828D981761F0828DDF01A80FB11D5D96B7
:1023B0008C91928D9F5F9F73928F90E008958FEF25
:1023C0009FEF0895FC01918D828D981731F0828DD9
:1023D000E80FF11D858D90E008958FEF9FEF089530
:1023E000FC01918D228D892F90E0805C9F4F821B94
:1023F00091098F739927089586E392E00E94F01166
:1024000021E0892B09F420E0822F0895FC01848DBE
:10241000DF01A80FB11DA35ABF4F2C91848D90E00E
:1024200001968F739927848FA689B7892C93A089E9
:10243000B1898C91837080648C93938D848D981373
:1024400006C00288F389E02D80818F7D8083089506
:10245000EF92FF920F931F93CF93DF93EC0181E0F4
:10246000888F9B8D8C8D981305C0E889F9898081B0
:1024700085FD26C0F62E0B8D10E00F5F1F4F0F73EA
:102480001127E02E8C8DE8120CC00FB607FCFACF96
:10249000E889F989808185FFF5CFCE010E94061277
:1024A000F1CF8B8DFE01E80FF11DE35AFF4FF08253
:1024B0009FB7F8940B8FEA89FB89808180620AC0FC
:1024C0009FB7F894EE89FF896083E889F989808154
:1024D0008370806480839FBF81E090E0DF91CF9123
:1024E0001F910F91FF90EF900895CF93DF93EC0130
:1024F000888D8823C9F0EA89FB89808185FD05C024
:10250000A889B9898C9186FD0FC00FB607FCF5CF5D
:10251000808185FFF2CFA889B9898C9185FFEDCFA5
:10252000CE010E940612E7CFDF91CF910895089562
:10253000FC01099480E008950E94F42CCF92DF9270
:10254000EF92FF920F931F93F8940E94EA1A009162
:10255000D3021091D4022091D5023091D6026B01A2
:102560007C01C01AD10AE20AF30A9701860160933E
:10257000D3027093D4028093D5029093D6020A3589
:1025800011052105310578F181E0C8168DE7D806DF
:10259000E104F10410F4960102C021E03DE74A9BFA
:1025A00003C03195219531098091B5038C38D8F459
:1025B0008091B5038F5F8093B5038091B6036091DE
:1025C000B4030E94AC2B9093B603E091B603F0E005
:1025D000EE0FFF1FE854FC4F318320838091B60338
:1025E0008F5F8093B60378941F910F91FF90EF90C7
:1025F000DF90CF900895FC0180819181009711F0C8
:102600000C94332960E070E0CB0108950F931F9381
:10261000CF93DF93EC0188819981009729F02A817B
:102620003B812617370788F48B016F5F7F4F0E942D
:102630002E2C009761F0998388831B830A832C8159
:102640003D81232B11F4FC01108281E001C080E068
:10265000DF91CF911F910F910895EF92FF920F9309
:102660001F93CF93DF93EC017B018A01BA010E9493
:1026700006132881398181110DC02115310519F00A
:10268000C9010E94AA28198218821D821C821B82FD
:102690001A8206C01D830C83B701C9010E94292D2F
:1026A000CE01DF91CF911F910F91FF90EF90089590
:1026B000CF93DF93EC016115710559F0FB01019097
:1026C0000020E9F73197AF01461B570B0E942D13ED
:1026D0000CC088819981009711F00E94AA28198264
:1026E00018821D821C821B821A82CE01DF91CF913B
:1026F0000895FF920F931F93CF93DF9300D0CDB730
:10270000DEB7FF24F39486E392E00E94F011892B58
:1027100009F450C086E392E00E94CE118A3041F065
:102720001CF4882329F007C08D3011F0833219F48E
:10273000F092DE0122C089831A820091DB0210919F
:10274000DC020F5F1F4FB80187ED92E00E94061375
:10275000882399F02091D7023091D8028091DB0232
:102760009091DC02BE016F5F7F4F820F931F0E942A
:10277000292D1093DC020093DB028091DB02909103
:10278000DC028F35914008F4BECF6CE271E087ED3A
:1027900092E00E9458138BE993E00E94D7196AE0F7
:1027A00070E08EE591E00E94F71989E993E00E94BC
:1027B000481AA9CF0F900F90DF91CF911F910F91E1
:1027C000FF9008950E94FC1181110C9479130895D3
:1027D000FC01808191810C94AA28FC011182108255
:1027E00013821282158214826115710551F0FB016A
:1027F00001900020E9F73197AF01461B570B0C946D
:102800002D1308951F920F920FB60F9211242F933C
:102810003F934F935F936F937F938F939F93AF9368
:10282000BF93EF93FF93E0910601F09107010995A3
:10283000FF91EF91BF91AF919F918F917F916F9198
:102840005F914F913F912F910F900FBE0F901F906E
:1028500018951F920F920FB60F9211242F933F934A
:102860004F935F936F937F938F939F93AF93BF9398
:10287000EF93FF93E0910401F09105010995FF9119
:10288000EF91BF91AF919F918F917F916F915F91E8
:102890004F913F912F910F900FBE0F901F90189561
:1028A0001F920F920FB60F9211242F933F934F93C5
:1028B0005F936F937F938F939F93AF93BF93EF93A8
:1028C000FF9386E392E00E940612FF91EF91BF9181
:1028D000AF919F918F917F916F915F914F913F91B8
:1028E0002F910F900FBE0F901F9018951F920F926F
:1028F0000FB60F9211242F938F939F93EF93FF9313
:10290000E0914602F09147028081E0914C02F09103
:102910004D0282FD12C0908180914F028F5F8F73B4
:1029200020915002821751F0E0914F02F0E0EA5CF2
:10293000FD4F958F80934F0201C08081FF91EF91F1
:102940009F918F912F910F900FBE0F901F90189510
:102950001F920F920FB60F9211242F933F934F9314
:102960005F936F937F938F939F93AF93BF93EF93F7
:10297000FF93E091DA01F091DB010995FF91EF916E
:10298000BF91AF919F918F917F916F915F914F9187
:102990003F912F910F900FBE0F901F901895CF93DE
:1029A000DF93FC01ED57FF4F4081469FF001479FA9
:1029B000F00D1124DF0123E0B695A7952A95E1F7E4
:1029C000EC01CB57DF4F2881A21710F52197288102
:1029D00030E0E770FF2702C035952795EA95E2F7CA
:1029E000FC01EA0FF11D3081232330E058E0541B35
:1029F000469F402D11244770541B02C035952795E2
:102A00005A95E2F7322FFC01EA57FF4F208301C0AD
:102A10003FEF832FDF91CF910895FC01ED55FF4FDC
:102A20002081222309F45AC0E359F109DC015896A8
:102A30001192AE17BF07E1F7411102C04FEF420FED
:102A4000262F2695542F569560FF13C0FC01E356A0
:102A5000FF4F6081261720F4FC01E20FF11D308D3D
:102A6000632F6F70FC01E60FF11D60896F5F608B53
:102A70002F5FDC01A356BF4F5217E8F06C91261769
:102A800020F4FC01E20FF11D308DE32FF0E064E053
:102A9000F595E7956A95E1F7E80FF91F60896F5F93
:102AA000608B632F6F70FC01E60FF11D60896F5F13
:102AB000608B2F5FE1CF40FD11C0FC01E356FF4F5B
:102AC0002081521720F4FC01E50FF11D308D3F707D
:102AD000FC01E30FF11D80898150808B0895FC017A
:102AE000ED55FF4F1082B696108231961082FC0190
:102AF000108EE956FF4F1082319611821082329665
:102B000027E02083719611821082B0962FEF2083E8
:102B1000FC012083DC01A754BF4F70969C01285E06
:102B20003F4F1D921D921192E217F307D1F7FC015E
:102B3000EA55FF4F1082339626E930E03183208337
:102B40003C9640E050E060E87EE34083518362833E
:102B50007383719710823396108231961082B496E7
:102B60001082319621E0208331961082B99710822D
:102B700008954F925F927F928F929F92AF92BF92F1
:102B8000CF92DF92EF92FF920F931F93CF93DF9339
:102B9000EC015C0187EAA80EB11CD5011C926623EA
:102BA00009F4C5C06E01B3EACB0ED11CF6019081C9
:102BB000992309F4BCC0962E292F30E0E62EF12C83
:102BC000E216F306FCF0961758F48EEC93E00E94A0
:102BD000D71986EC93E00E94D719892D0E94381AE4
:102BE000CE01DF91CF911F910F91FF90EF90DF9079
:102BF000CF90BF90AF909F908F907F905F904F90BD
:102C00000C946F158E0108561F4FD8012D913C91E1
:102C100011972E153F0508F474C0B7017695679596
:102C2000762EFE01E956FF4FE216F30639F4188EB0
:102C300010821D921C9287E0339642C0CE014896C6
:102C400090FE40C070812C01862F87196717B0F461
:102C50004E01860E911CD40159964C915997842FA0
:102C600082958F7058964C91B0E14B9FA001112432
:102C7000482BD2014D932D016F5FE6CF20FD0EC092
:102C8000AE01480F511DCE01860F911DDC015896F3
:102C90008C918295807FDA0158968C932E193F098A
:102CA000D8012D933C93C901019796958795808310
:102CB000FE01E656FF4F20FD02C087E001C083E021
:102CC000808311C04081461B408350E04F5F5F4FBF
:102CD000680F791F0E940E2DF801808191818E1955
:102CE0009F099183808381E0D5018C93F8018081D5
:102CF000D6018C9381111BC0CD54DF4F19821882ED
:102D000016C082EA91E00E94C019892DDF91CF910F
:102D10001F910F91FF90EF90DF90CF90BF90AF90F9
:102D20009F908F907F905F904F900C94381ADF9116
:102D3000CF911F910F91FF90EF90DF90CF90BF90B8
:102D4000AF909F908F907F905F904F9008950C94DC
:102D5000A52A0C949D2A6FEB8FEF90E00E94A71696
:102D600068E780EF90E00E94A71660E081EF90E0B6
:102D70000E94A71664E082EF90E00E94A71663E02D
:102D800085EF90E00E94A7166FE183EF90E00E942C
:102D9000A71660E484EF90E00E94A7168EEA93E005
:102DA0000C94481ACF938FEF90E00E94A916982FA9
:102DB00091709093E00281FB992790F99093DE0245
:102DC00082FB992790F99093DF0283FB992790F972
:102DD0009093E10284FB992790F99093E30285FB9D
:102DE000992790F99093030186FB882780F98093B7
:102DF000E20280EF90E00E94A9168093020182EF28
:102E000090E00E94A9168093E40285EF90E00E9472
:102E1000A9168093E80283EF90E00E94A916C82FBC
:102E200084EF90E00E94A9162C2FCC0F330B322F89
:102E30002227280F311D3093EA022093E90281EF07
:102E400090E00E94A916811101C081E18093AC033A
:102E5000CF910895CF93C82F803120F480EA91E07C
:102E60000E94C01960E170E08C2FCF910C94B219D0
:102E70008F929F92AF92BF92CF92DF92EF92FF928A
:102E80008FB7F894C090D004D090D104E090D204D1
:102E9000F090D3048FBF8091ED019091EE01A0914D
:102EA000EF01B091F001C816D906EA06FB0628F436
:102EB0008091EC018F5F8093EC01C092ED01D09284
:102EC000EE01E092EF01F092F001A091EC01B0E090
:102ED00027E339E841E450E00E94B32A4B015C014A
:102EE000C701B60128EE33E040E050E00E94E02B3D
:102EF000C501B401620F731F841F951FFF90EF90EF
:102F0000DF90CF90BF90AF909F908F9008950F93D8
:102F10001F930E94EA1A0091D3021091D4022091CB
:102F2000D5023091D602DC01CB01801B910BA20BA4
:102F3000B30B82309D47A105B10580F14A9903C0CA
:102F40002FEF32E802C021E03DE78091B5038C38D5
:102F5000D8F48091B5038F5F8093B5038091B60359
:102F60006091B4030E94AC2B9093B603E091B6033A
:102F7000F0E0EE0FFF1FE854FC4F31832083809177
:102F8000B6038F5F8093B6030E94EA1A6093D30260
:102F90007093D4028093D5029093D6028091EA0177
:102FA0009091EB019C012F5F3F4F3093EB012093F9
:102FB000EA01892B51F48091E90191E0980F9093F7
:102FC000E901811102C00E9438172091DD01EEE86D
:102FD000F3E08491EAE7F3E09491E6E6F3E0E4912C
:102FE000EE2309F43CC0882339F1833091F038F4A2
:102FF0008130A9F0823001F584B58F7D12C0873011
:1030000091F08830A1F08430B9F4809180008F7DF8
:1030100003C0809180008F77809380000DC084B5BD
:103020008F7784BD09C08091B0008F7703C08091F5
:10303000B0008F7D8093B000F0E0EE0FFF1FED5ADF
:10304000FC4FA591B4913FB7F894211104C08C9125
:103050009095982302C0EC919E2B9C933FBF1092B9
:10306000DD011F910F910895CF93DF93C2E0D0E06F
:10307000FE01E85DFC4F6491CE010E94A7162196E7
:10308000CB32D105A9F7C0E3D0E0C13321F464E825
:1030900081E390E002C060E0CE010E94A716219675
:1030A000C833D10591F78CEA91E0DF91CF910C9470
:1030B00063198EBD0DB407FEFDCF8EB50895CF9375
:1030C000DF932A981C99FECF8EE70E945918C0E31F
:1030D000D0E0CE010E94A9160E9459182196C8334B
:1030E000D105B9F72A9ADF91CF910895CF93C62FD2
:1030F0002A981C99FECF0E9459188C2F0E945918AB
:103100002A9ACF9108952A981C99FECF862B0E9467
:10311000591880E00E9459182A9A089560EC84E3B7
:103120000C9483182A981C99FECF0E9459181C9958
:10313000FECF2A9A089586E30E94921861E070E01B
:1031400080E090E00C940F1BE89880E991E1909367
:103150000501809304018091DC0181110E949B187C
:103160001092B5031092B7031092B6030895CF934F
:10317000DF930E949B18CEEFCF3FC1F084E30E9403
:103180009218DFEFDC0F8077803141F4C1110EC05F
:1031900080EC91E0DF91CF910C94631961E070E0D5
:1031A00080E090E00E940F1BCD2FE6CFDF91CF9102
:1031B00008958EE992E19093050180930401809136
:1031C00069008C7F816080936900E89A8091DC01BE
:1031D00081110C94B7180895CF93DF932A9A88E34E
:1031E00090E0FC013197F1F72A980197F1F72A9ABC
:1031F00086E590E00197F1F780E30E9492186AE07B
:1032000070E080E090E00E940F1B2A9880E40E940A
:103210005918C2E0D0E0CE010E94A9160E945918A8
:103220002196CB32D105B9F72A9A80E190E0019737
:10323000F1F70E945F1861E070E080E090E00E948A
:103240000F1BDF91CF910C94B71890ED980F9A3027
:1032500070F09FE9980F963010F499EA05C09FEB43
:10326000980F963018F499EC980F01C0982F892F79
:1032700008951F93CF93DF93C82FD0E0CE010E9413
:10328000C2190E942519182F1295107FCE010196A0
:103290000E94C2190E942519810FDF91CF911F91C1
:1032A0000895009769F0FC0101900020E9F731973B
:1032B000AF01481B590BBC0186E392E00C949111BD
:1032C00080E090E00895CF93DF930E945119EC01C4
:1032D0008AE291E00E9451198C0F9D1FDF91CF91DE
:1032E00008958F929F92AF92BF920F931F93CF93A7
:1032F000DF93CDB7DEB7A1970FB6F894DEBF0FBE50
:10330000CDBF19A2423008F44AE08E010F5D1F4F75
:10331000842E912CA12CB12CA50194010E94E02BAC
:10332000E62FB901CA0101501109EA3014F4E05D39
:1033300001C0E95CD801EC93232B242B252B61F7EA
:10334000C8010E945119A1960FB6F894DEBF0FBEB6
:10335000CDBFDF91CF911F910F91BF90AF909F9004
:103360008F900895AB01682F4115510521F486E334
:1033700092E00C94281270E080E090E00C947119B7
:103380000C9451192091DB023091DC0282179307D3
:1033900060F42091D7023091D8022115310529F02F
:1033A000F901E80FF91F8081089580E008950F93D7
:1033B0001F93CF93DF938C01C0E0D0E0F801EC0FB6
:1033C000FD1F6491662341F086E392E00E9428127B
:1033D000892B11F02196F2CFCE01DF91CF911F9171
:1033E0000F910895682F86E392E00C942812CF92F3
:1033F000DF92EF92FF92CF93DF936115710559F43D
:10340000682F86E392E0DF91CF91FF90EF90DF90FD
:10341000CF900C9428126C01990FEE08FF086A30C7
:103420007105D9F4F7FE17C08DE20E94F219EC0184
:1034300066277727CB016C197D098E099F094AE021
:103440000E9471198C0F9D1FDF91CF91FF90EF901B
:10345000DF90CF9008954AE001C0462FC701B60122
:10346000DF91CF91FF90EF90DF90CF900C94711986
:10347000CF93DF936AE070E00E94B219EC018AE218
:1034800091E00E9451198C0F9D1FDF91CF910895FB
:10349000CF93DF930E94D719EC018AE291E00E945A
:1034A00051198C0F9D1FDF91CF91089590912602A5
:1034B00040912402509125029730B1F441155105F5
:1034C00099F0E09123026E2F70E02091290230E004
:1034D0002150310962177307BCF5EF5FE0932302B7
:1034E000F0E0EF50FE4F1082A09127026A2F70E0AB
:1034F000292F30E02F5F3F4F261B370B1216130684
:1035000024F401C0880F2A95EAF7E0912302F0E045
:10351000EF50FE4F2081822B80834F5F5F4F50938F
:10352000250240932402292F092E000C330B261B61
:10353000370B37FD04C09A1B9093260203C087E027
:103540008093260281E0089580E00895CF92DF9273
:10355000EF92FF920F931F93CF93DF936C018B0138
:103560007A014617570720F4812F8A01E62EF82E9C
:103570006CE271E0C6010E94ED13C091DB02D091B4
:10358000DC020C171D07E0F4EC16FD0608F4E70159
:10359000E091D702F091D802EC0FFD1FF08010826D
:1035A0006091D7027091D802600F711FC6010E940E
:1035B00058138091D7029091D802C80FD91FF88272
:1035C000C601DF91CF911F910F91FF90EF90DF9097
:1035D000CF9008953FB7F8948091D5049091D60488
:1035E000A091D704B091D80426B5A89B05C02F3F61
:1035F00019F00196A11DB11D3FBFBA2FA92F982F19
:103600008827820F911DA11DB11DBC01CD0143E092
:10361000660F771F881F991F4A95D1F708958F92DB
:103620009F92AF92BF92CF92DF92EF92FF926B0187
:103630007C010E94EA1A4B015C01C114D104E1042F
:10364000F104F1F00E94EA1ADC01CB018819990912
:10365000AA09BB09883E9340A105B10570F321E09A
:10366000C21AD108E108F10888EE880E83E0981E9E
:10367000A11CB11CC114D104E104F10419F7DDCF80
:10368000FF90EF90DF90CF90BF90AF909F908F9082
:1036900008951F920F920FB60F9211242F933F930C
:1036A0008F939F93AF93BF938091D0049091D10457
:1036B000A091D204B091D3043091D40426E0230F1A
:1036C0002D3720F40296A11DB11D05C029E8230F56
:1036D0000396A11DB11D2093D4048093D004909330
:1036E000D104A093D204B093D3048091D5049091D7
:1036F000D604A091D704B091D8040196A11DB11DA4
:103700008093D5049093D604A093D704B093D804A3
:10371000BF91AF919F918F913F912F910F900FBECD
:103720000F901F901895CF93DF93CDB7DEB7C05998
:10373000D1090FB6F894DEBF0FBECDBF789484B523
:10374000826084BD84B5816084BD85B5826085BD9D
:1037500085B5816085BD80916E00816080936E002B
:10376000109281008091810082608093810080911D
:1037700081008160809381008091800081608093CE
:1037800080008091B10084608093B1008091B0008E
:1037900081608093B00080917A00846080937A0089
:1037A00080917A00826080937A0080917A008E7F87
:1037B00080937A0080917A00806880937A001092DA
:1037C000C100E0914602F091470282E08083E091DF
:1037D0004202F09143021082E0914402F0914502CE
:1037E00080E1808310924E02E0914A02F0914B02F8
:1037F00086E08083E0914802F091490280818061F7
:103800008083E0914802F091490280818860808342
:10381000E0914802F0914902808180688083E091C4
:103820004802F091490280818F7D808387E491E096
:103830000E94481A5298219A259A239A2498229AEB
:1038400080E58CBD53982A9A2D9A2B9880E090E0C1
:103850000E94A916833339F481E090E00E94A916F2
:10386000813209F426C60E94AB1680E090E00E94E7
:10387000A916833311F00E94341863E380E090E0CE
:103880000E94A71661E281E090E00E94A7160E94C4
:10389000D2168FE391E00E94D7190E94EC1860E8DD
:1038A00081EF0E948318182F8FEF810F8E3F38F021
:1038B0008EE291E00E94D7191092DC0107C08AE2E3
:1038C00091E00E94D71981E08093DC0182E291E0CF
:1038D0000E94D7196AE070E0812F0E94B21986E138
:1038E00091E00E94D71960E880EF0E9483180E943F
:1038F000381A8091DC011E821D82882399F088E9A4
:1039000092E19C838B838B819C81AD81BE8180936E
:10391000B0039093B103A093B203B093B3038EE8C6
:1039200098E112C088E992E19C838B838B819C8112
:10393000AD81BE818093B0039093B103A093B20395
:10394000B093B3038AE992E19093AF038093AE03FF
:10395000539A8091E302882321F084E091E00E9451
:10396000481A62E370E080E090E00E940F1B80E163
:1039700080938100109280008CE89CE390938700F4
:103980008093860082E18093810087E897E190939D
:10399000DB018093DA0181E080936F006EE571E0D6
:1039A00087ED92E00E9406138091DC01811109C02D
:1039B0000E94D9188091E302882399F083EF90E068
:1039C0000EC060E888E00E948318823331F460E81A
:1039D00080E00E9483188D3059F38EEA90E00E94B7
:1039E000481A9E012F5F3F4F29019090DE019920D8
:1039F00009F440C31092DE0180E090E00E94C219F9
:103A0000803549F483E591E00E94481A84EE93E002
:103A10000197F1F71EC38F3389F581E090E00E9492
:103A2000C2198335E9F403ED12E08DEDE82E82E052
:103A3000F82EF80165917491C2010E945A2980ED17
:103A400092E00E94D719C2010E94C0198DEC92E049
:103A50000E94D7190E5F1F4FE016F10651F7AFC154
:103A60008EEA92E00E94D7198091DC01882309F444
:103A7000A6C189EA92E00E94D719A1C1863579F4DE
:103A80008EE892E00E94D7198091DC01882321F012
:103A900086E892E00E94D71983E692E0D3C7823588
:103AA00089F48091D9049091DA04009711F48DED96
:103AB00094E06AE070E0A201481B590BCA010E9421
:103AC000F71989C1833509F07FC11B820E94A418B0
:103AD000A12CB12CDD24DA94212C912C51E0C85773
:103AE000DF4F5883C858D04016E1C12E0BE0802E1E
:103AF000772473946DE271E0CE0181599F4F0E944B
:103B0000ED138091DB029091DC02A816B90698F4BF
:103B10000091D7021091D802E1966EAD7FADE1978A
:103B2000C8018A0D9B1D0E94302D009721F07C0159
:103B3000E01AF10A03C0EE24EA94FE2CCE0181596A
:103B40009F4F0E94E8138FEFE816F80609F4B6C4F9
:103B50009FEFA916B90609F4B1C4C5010E94C219A4
:103B6000682E80930101C50101960E94C219382E6A
:103B700080930001A3E56A16A9F0B0E56B120BC0B3
:103B8000C50102960E94C2198D3309F09AC48501BD
:103B90000D5F1F4F09C0EDE38E1393C485010E5FC7
:103BA0001F4F02C000E010E05701FFEFAF1ABF0A3D
:103BB00023E562121BC035E0D31609F482C443E446
:103BC000341203C09924939495CF5DE4351619F00F
:103BD00082E538128FCFD394F201CD9CE00DF11D18
:103BE000112411821082758A912C84CF92E569127A
:103BF0002BC0992091F0A701B801CE0181599F4FA8
:103C00000E94A61ACE0181599F4F0E94FB12C857ED
:103C1000DF4F6883C858D04075C0AFEFDA1609F49B
:103C200069CFA701B801CE0181599F4F0E94A61A02
:103C3000CE0181599F4F0E94FB12F201CD9CE00DF5
:103C4000F11D1124658B5EC0BFEFDB1609F452CF66
:103C5000E0E56E1232C0A80141505109B80162502E
:103C60007109CE0181599F4F0E94A61ACE01815938
:103C70009F4F0E94FB12662ECE0181599F4F0E94DA
:103C8000E813F8E0F61508F41CC4A701B801CE014A
:103C900081599F4F0E94A61ACE0181599F4F0E94C1
:103CA000FB128D9CF0011124E60DF11DEE0FFF1F9C
:103CB000E40DF51D7683658325C024E462120CC0F3
:103CC000F201CD9CE00DF11D1124028331E0E31AD5
:103CD000F108F482E3820ECF43E4641219C0A70115
:103CE000B801CE0181599F4F0E94A61ACE01815979
:103CF0009F4F0E94FB12F201CD9CE00DF11D11249B
:103D000071836083CE0181599F4F0E94E813F2CEE8
:103D100056E46512EFCEC501801B910B97FD01960D
:103D200095958795282E8150853008F0E3CE8091B7
:103D3000DC01882309F4DECEF12CC8010E94C219EF
:103D40000E942519E82EE29470EFE722C80101963F
:103D50000E94C2190E9425196E2D680F8DE08F0DEB
:103D60000E947618F3940E5F1F4FF21430F3C2CE08
:103D70004091DB025091DC026091D7027091D80231
:103D800086E392E00E9491112220B9F086E591E04D
:103D90000E94D7190FE010E0F12CC8010E94A9166B
:103DA000E82E0E942A176E2D8DE08F0D0E94761846
:103DB000F3940F5F1F4F2F10F0CF0E94D9188CE2A1
:103DC00091E00E94631945C1843751F40E9438176D
:103DD0004AE00E9471198AE291E00E94511939C1AA
:103DE000883591F481E090E00E94C219813511F488
:103DF0000E94A41881E090E00E94C219853409F065
:103E000028C10E94D91825C1833409F0A3C081E0DC
:103E100090E00E94C219182F873409F095C08BEEEC
:103E200091E00E94D7198091E0026AE070E090E092
:103E30000E94F71986EE91E00E94D7198091DE0268
:103E40006AE070E090E00E94F71981EE91E00E9434
:103E5000D7198091DF026AE070E090E00E94F719C4
:103E60008AED91E00E94D7198091E1026AE070E04A
:103E700090E00E94F71980910301811104C083ED45
:103E800091E00E94D7198091E202882321F083EC0F
:103E900091E00E94D7198AEB91E00E94D719809196
:103EA000E3026AE070E090E00E94F71982EB91E093
:103EB0000E94D7196AE070E08091E4020E94B21972
:103EC0008091E202882359F084EA91E00E94D71998
:103ED0006AE070E08091E8020E94B2190DC084E9A6
:103EE00091E00E94D7196091E9027091EA0280E0A6
:103EF00090E04AE00E9471198091AC03813151F049
:103F000086E891E00E94D7196AE070E08091AC03E6
:103F10000E94B2198091E302882309F450CF86E70A
:103F200091E00E94D7196AE070E0809102010E943E
:103F3000B21984E791E00E94D7196AE070E08CE83A
:103F400090E00E94F7193BCF8CEB810F823008F094
:103F5000BDC232C08735A1F481E090E00E94C21951
:103F6000182F833509F02AC482E090E00E94C2191C
:103F7000833309F023C48091DC01811197C41EC4EE
:103F8000823709F009C581E090E00E94C219082E2D
:103F9000000C990B0E94F92C892B09F451C582E081
:103FA00090E00E94C219082E000C990B0E94F92C77
:103FB000892B09F0BCC444C582E090E00E94C2197C
:103FC000833509F4A0C7853509F484C7833409F41F
:103FD00084C7823509F066C381EE92E0E7969FAF11
:103FE0008EAFE797153409F095C781E0E796EEADFF
:103FF000FFADE79780836091DE02660F8091E0025B
:104000008068682B9091DF02B4E09B9FC00111246F
:10401000682B9091E10228E0929FF00111246E2B11
:104020009091E30230E1939FA0011124642B9091C1
:10403000030140E2949F90011124622B9091E202CF
:1040400050E4959FC0011124682B8FEF90E00E94EF
:10405000A7168091DE01811106C06CE271E087ED48
:1040600092E00E94581380910301882319F081E0A7
:104070008093DD011092EC021092EB02BB24B3940A
:10408000B3E0CB2ED12C17E0A12E8091B50388236D
:1040900009F40CC28091B50381508093B5038091DF
:1040A000B7036091B4030E94AC2B9093B703E091E7
:1040B000B70381E08E0F8093B703F0E0EE0FFF1F90
:1040C000E854FC4F808191819093E0018093DF015F
:1040D00010928303609180036623E9F070E06150E1
:1040E000710985EF92E00E94CF1480917B0390E0EC
:1040F000880F991F8A569C4F909391038093900349
:10410000E0918E03F0918F038081918190937F03E2
:1041100080937E0304C0109291031092900320912B
:10412000DF013091E001E0918E03F0918F03318344
:10413000208380918003882379F0E0919003F091AF
:104140009103309749F04081518142275327952FA1
:10415000991F9927991F01C091E02115334814F048
:1041600091112EC01AE080E00E941D028091800310
:10417000811105C0109291031092900306C0115056
:1041800091F78DED92E00E946F151092E50210926A
:10419000E6021092E7022091A703E0918E03F091CE
:1041A0008F0380819181E22FF0E0EE0FFF1FEA562E
:1041B000FC4F918380832F5F2093A703912C27C10D
:1041C0008E3F90F081E00E941D028091E7028111F4
:1041D0003DC08091A903811139C040E060E08DEDC0
:1041E00092E00E940D1532C0883281F5D092890389
:1041F000C09288038091AE039091AF03009751F471
:104200002091B0033091B103232B21F42091B2030C
:1042100020FF1CC0E091B003F091B1034091B203C4
:104220005091B3039A013595279540FF0AC0DC01F0
:10423000A20FB31F4D915C91E40FF51F0190F08127
:10424000E02D820F931F09958093AD03E0908E03BC
:10425000F0908F03D7010D911C91B80117FF04C096
:1042600066277727601B710B072E000C880B990BB4
:104270000E947D292DEC3CEC4CE45EE30E94DC299D
:104280000E94782BAB017093870360938603809024
:10429000A603A6E9B3E0EDEDF2E0912C8914E1F07C
:1042A0002D913D91B8016227732777FD12C021152A
:1042B000310579F08089882361F0C801821B930B56
:1042C00097FF03C0919581959109481759070CF004
:1042D000BCC393943196E2CF99249A948091E702DB
:1042E000811104C08091A903882321F082E00E94FB
:1042F0001D028DC0F8E08F1265C0E091A703F0E0C9
:10430000E352FD4F8089833058F18091880390916A
:1043100089031816190624F51AE000E08091EC02D2
:10432000882319F01092EC0201E082E00E941D0245
:1043300080918003883230F08091EC02882311F064
:10434000115061F71092E5021092E6021092E70216
:104350000093EC0240E060E08DED92E00E940D15CC
:1043600010918003112371F1E091A703F0E0E35273
:10437000FD4F8089882331F1612F70E06150710910
:1043800085EF92E00E94CF1490917B038091A70368
:1043900098130CC0612F8DED92E00E94B91540E09A
:1043A00060E08DED92E00E940D150CC0113041F4DB
:1043B000809180038E3F20F080E093E00E94481AB5
:1043C0001150D1F69090A703E0918E03F0918F03E6
:1043D00080819181E92DF0E0EE0FFF1FEA56FC4F3E
:1043E0009183808381E0890D883019F08093A70341
:1043F00006C01092A7038093A6031092A903809190
:10440000A7039091A603981710F48093A603992D03
:104410008091770320917503309176038730B9F44A
:1044200021153105A1F0E09174036E2F70E04091E9
:104430007A0350E041505109641775070CF02AC304
:10444000EF5FE0937403F0E0E352FD4F108EA09114
:1044500078034A2F50E0682F70E06F5F7F4F641B36
:10446000750B161617062CF4992D01C0990F6A9535
:10447000EAF7E0917403F0E0E352FD4F608D962B74
:10448000908F2F5F3F4F3093760320937503282F33
:10449000082E000C330B241B350B37FD04C08A1B80
:1044A000809377035DC3A09277035AC30E94E213FF
:1044B0009CCA83E990E00E94481AE9C98B81811166
:1044C00055C388E691E00E94D71977CC133509F0DF
:1044D000D0C06DE871E0C2010E94ED138091DB0253
:1044E0009091DC02059788F00091D7021091D802D4
:1044F00069817A81C80104960E94302D009729F0C5
:10450000DC01A01BB10B8D0102C00FEF1FEFC20138
:104510000E94E81317FD94C283EDC82E82E0D82EC6
:10452000E12CF12CBE2CF60165917491C2010E9420
:104530005A29A80162E070E0CE0181599F4F0E9484
:10454000A61AE5968EAD9FADE597892B31F4AA2486
:10455000A3948981882369F00BC0B201E1968EADE6
:104560009FADE1970E94202DAA24A394892B09F0E6
:10457000A12CCE0181599F4F0E94E813AA2009F473
:104580005BC0C2010E94C0198FEE91E00E94D71952
:104590004091DB025091DC02B8016F5F7F4FB4E0C5
:1045A000CE0181599F4FBB122AC00E94A61ACE018C
:1045B00081599F4F0E94FB127093EA026093E902B7
:1045C000CE0181599F4F0E94E8136091EA0283EF68
:1045D00090E00E94A7166091E90284EF90E00E94AB
:1045E000A7166091E9027091EA0280E090E04AE04B
:1045F0000E9471198AE291E00E94511937C00E940D
:10460000A61ACE0181599F4F0E94FB12162FCE0190
:1046100081599F4F0E94E813812F0E94381AF70199
:10462000E25FFE4F8081612F90E00E94A716B110DB
:104630000FC0109302011AC0EFEFEE1AFE0AF2E06B
:10464000CF0ED11C25E0E216F10409F06BCFF8C1C2
:1046500031E0B31203C01093AC0308C042E0B412BF
:1046600003C01093E40202C01093E8029110F1CC51
:10467000E7C1812F110F990B0E94F92C892B09F4A6
:10468000DFC182E090E00E94C219082E000C990B55
:104690000E94F92C892B09F4D3C18091DC0181118E
:1046A0000DC0CEC1843409F41BC48C3409F41FC47A
:1046B0008F3409F097CC22EE32E020C481E00E94D2
:1046C0003919182F83E090E00E94C2198E3669F4E0
:1046D00084E090E00E94C219082F082E000C990B6C
:1046E0000E94F92C892B09F0BAC01E33A8F41F329E
:1046F00010F460E801C060EC812F0E948318082F3D
:1047000080E791E00E94C019812F0E942A178BE454
:1047100091E00E94C0199FC01E3349F58BEF91E0D4
:104720000E94D7192A981C99FECF8EEF0E94591823
:104730008E010F5F1F4F6E0159E0C50ED11C78012D
:1047400080E00E945918D7018D937D01CA16DB06BF
:10475000B9F72A9AF80181918F010E942A178DE4F6
:1047600091E00E94C019C016D106A1F728CB1939D3
:1047700009F06FCC10E0112341F0103111F010322C
:1047800079F48DE491E00E94C01984EF91E00E94D9
:10479000D719812F0E942A1781EF91E00E94D71923
:1047A00060E8812F0E9483180E942A178DE491E00F
:1047B0000E94C0191F5F1F32F1F601CB812F110F2C
:1047C000990B0E94F92C892B09F43AC182E090E000
:1047D0000E94C219082E000C990B0E94F92C892BFB
:1047E00009F42EC183E090E00E94C219082E000C4B
:1047F000990B0E94F92C892B09F422C184E090E0E6
:104800000E94C219082E000C990B0E94F92C892BCA
:1048100009F416C181E00E943919182F83E00E9423
:104820003919082F682F812F90E00E94A7168091D8
:10483000DC01882309F40DCC8EEF810F8E3308F054
:1048400008CC602F0E9476188FE491E00E94C01976
:10485000812F0E942A17802F0E942A17B0CA802F0A
:104860000E942519082F1F3208F0F3CB80E791E052
:104870000E94C019812F0E942A1789E491E00E94AA
:10488000C0190E5F802F0E942A178DE891E00E94C8
:10489000C019F12CF01608F092CA60E8812F8F0D34
:1048A0000E9483180E942A17F394F4CF83E090E0CB
:1048B0000E94C219182F082E000C990B0E94F92C87
:1048C000892B09F4C6CB812F0E94251910E3180FFC
:1048D0001E3308F0BECB812F0E949218F82E61E0A3
:1048E00070E080E090E00E940F1B8DE30E94921820
:1048F000082F88E192E00E94D719812F0E942A1781
:104900008BE092E00E94D71960E170E08F2D8295D4
:104910008F700E94B21982E092E00E94D71960E184
:1049200070E0802F82958F700E94B21948CA81E092
:104930000E943919082F8BE592E00E94D719802F29
:104940000E942A1783E090E00E94C21910E08E3680
:10495000C9F488E592E00E94D719E12CF12C86E594
:1049600092E00E94D719C8018E0D9F1D0E94A916C2
:104970000E942A17FFEFEF1AFF0A20E1E216F10466
:1049800071F71DCA82E592E00E94D719C8010E9402
:10499000A9160E942A1713CA8837E1F581E090E032
:1049A0000E94C219082E000C990B0E94F92C892B29
:1049B00009F446C082E090E00E94C219082E000C63
:1049C000990B0E94F92C892BD9F18091DC01882365
:1049D000B9F181E00E943919F82E00E310E00133AB
:1049E00021F46F2D81E390E002C060E0C8010E94D5
:1049F000A7160F5F1F4F0833110589F70E945F1834
:104A00008BE492E00E94D7198F2D0E942A178AE327
:104A100092E018C08536A1F481E090E00E94C219AE
:104A2000833429F40E94AB160E94D21612CB8091D7
:104A3000DC01882329F00E9434180E94EC1809CB6D
:104A400086E292E00E94481A04CB97FC47CC092DDD
:104A5000000F110B0A561C4FF801608171819B01F8
:104A6000770F440B550BD7018D919C91092E000CAB
:104A7000AA0BBB0B280F391F4A1F5B1FCA01B901C4
:104A800022E030E040E050E00E94022CF801318347
:104A90002083BDCC8BEF92E00E94D7196AE070E0D2
:104AA000892D0E94B21981EF92E00E94D7196AE025
:104AB00070E0809174030E94B2198DED92E00E9423
:104AC000481AE0918E03F0918F0380819181909339
:104AD0007D0380937C03E92D990CFF0BE352FD4F7E
:104AE00080898F5F808B8091E302882369F18091B8
:104AF000EC02882349F11091B503809102018117DE
:104B000018F58091EB02882391F08091E1028823CF
:104B1000D9F085E193E00E94D71960E170E0812F20
:104B20000E94B21983E193E00E94D7190DC08FE073
:104B300093E00E94D7196AE070E0812F0E94B219B9
:104B40008CE291E00E9463198091EC02882329F0A5
:104B5000809103018111B092DD011092EC0295CA9F
:104B6000809180038F5F80938003ABCF8091DC01C5
:104B70008823B9F08BE30E9492180E949B181EEFC5
:104B80001F3F79F085E30E9492180FEF010F8077A5
:104B9000803209F097C1111104C08FE291E00E94A8
:104BA0006319EA961FAEEA97C857DF4F8881C85845
:104BB000D040EA969FADEA97891709F4D9C8312CFD
:104BC000A6E1A39DC0011124F201E80FF91F208185
:104BD0003181232B31F110E09F012B5E3F4FC557F0
:104BE000DF4F39832883CB58D040C258DF4FF98339
:104BF000E883CE57D0403396C357DF4FF983E8831D
:104C0000CD58D040C258DF4F48815981CE57D0404F
:104C10004E5F5F4FC157DF4F59834883CF58D04015
:104C2000BEC0C12CDF015596EC96BFAFAEAFEC977E
:104C300005969201280F391FC258DF4F3983288308
:104C4000CE57D040AF014D5F5F4FC058DF4F598303
:104C50004883C058D040CF010296CC57DF4F99838C
:104C60008883C458D040EC96AEADBFADEC978C9124
:104C7000C81608F01AC1C058DF4FE881F981C05842
:104C8000D0400190F081E02DE996FFAFEEAFE997BB
:104C9000CC57DF4FA881B981C458D0400C910E94F5
:104CA000EA1A3B014C0110E0E996EEADFFADE99741
:104CB000E017F10770F1C8010E94C2198053C25871
:104CC000DF4FE881F981CE57D040E80FF11DE80FA2
:104CD000F11DA080B1807501B7FE04C0EE24FF2451
:104CE000EA18FB080E94EA1A6615770588059905F7
:104CF000C8F3B7FE02C05B9801C05B9AC701FF0C06
:104D0000AA0BBB0B680E791E8A1E9B1E0F5F1F4FDE
:104D1000CBCF0E94EA1A6615770588059905C8F376
:104D2000C394A1CF112331F061E070E080E090E006
:104D30000E940F1BC258DF4FE881F981CE57D04047
:104D4000E080F180C357DF4FA881B981CD58D040B2
:104D50006C90C157DF4FE881F981CF58D040708007
:104D60000E94EA1A4B015C019701FF0C440B550BA2
:104D7000C058DF4F288339834A835B83C058D040B3
:104D8000220F331F441F551FCC57DF4F2883398311
:104D90004A835B83C458D040671460F41F5FC557D3
:104DA000DF4FA881B981CB58D0408C91181708F4F7
:104DB000B9CF7BC0872D90E00E94C2198A3314F4CA
:104DC00090E301C097E3891B44E050E0E9965FAFB0
:104DD0004EAFE99798E0C92EA82F880FBB0BC75795
:104DE000DF4FB983A883C958D040EE968CAE9DAEF4
:104DF000AEAEBFAEEE9700E0EC2CF12CC757DF4F04
:104E0000E881F981C958D040EE22FF22011104C087
:104E1000E114F10421F405C0E114F10411F45B98EC
:104E200001C05B9AEE962CAD3DAD4EAD5FADEE97F9
:104E3000C058DF4F88819981AA81BB81C058D0407A
:104E4000280F391F4A1F5B1FEE962CAF3DAF4EAFA8
:104E50005FAFEE970E94EA1AEE962CAD3DAD4EADD7
:104E60005FADEE97621773078407950798F30F5F9E
:104E7000023061F6CC57DF4F88819981AA81BB81CE
:104E8000C458D040880E991EAA1EBB1EC694E9962F
:104E9000AEADBFADE9971197E996BFAFAEAFE99759
:104EA000AB2B09F0A2CF739477CF5B983394D314D4
:104EB00008F086CEEA96BFADEA97BF5FEA96BFAF2D
:104EC000EA9772CE61E070E080E090E00E940F1BF4
:104ED000102F56CE2EED32E011C04FED52E015C02E
:104EE000A3EEB2E0E796BFAFAEAFE7977BC8E3E0D3
:104EF000F1E0E796FFAFEEAFE79774C8E7963FAFF4
:104F00002EAFE7976FC840EE52E0E7965FAF4EAF27
:104F1000E79768C8E796AEADBFADE7971C926BC840
:104F200087ED92E00C94E813CF93DF93E6E3F2E091
:104F30001382128288EE93E0A0E0B0E08483958330
:104F4000A683B7838CE191E09183808385EC90E028
:104F50009587848784EC90E09787868780EC90E043
:104F6000918B808B81EC90E0938B828B82EC90E034
:104F7000958B848B86EC90E0978B868B118E128EAE
:104F8000138E148EE4EBF3E08CE88083118213829D
:104F90001282CDEDD2E08FE780937A0384E0809394
:104FA0007803188E10927403109276031092750392
:104FB00087E08093770380EF80937903EAE8F3E05A
:104FC000F0938F03E0938E0310929103109290035D
:104FD0001092AF031092AE031092B1031092B0037F
:104FE0001092B3031092B20311821082CE010E947C
:104FF0006F1581E18093AC03188619861A866CE2DE
:1050000071E087ED92E00E94ED130E94EA1A60932E
:10501000D3027093D4028093D5029093D602DF918D
:10502000CF9108950F931F93CF93DF938230910513
:1050300010F482E090E0E091DB04F091DC0420E0E9
:1050400030E0A0E0B0E0309719F140815181028159
:10505000138148175907C8F08417950769F410970A
:1050600031F012960C93129713961C9327C000935D
:10507000DB041093DC0422C02115310519F042171E
:10508000530718F49A01BD01EF01DF01F801DBCFEE
:1050900021153105F9F0281B390B2430310580F436
:1050A0008A819B816115710521F0FB0193838283C5
:1050B00004C09093DC048093DB04FE01329644C06C
:1050C000FE01E20FF31F819391932250310939833E
:1050D00028833AC02091D9043091DA04232B41F47B
:1050E00020910A0130910B013093DA042093D90406
:1050F00020910801309109012115310541F42DB7A6
:105100003EB740910C0150910D01241B350BE091ED
:10511000D904F091DA04E217F307A0F42E1B3F0B39
:105120002817390778F0AC014E5F5F4F2417350719
:1051300048F04E0F5F1F5093DA044093D9048193D7
:10514000919302C0E0E0F0E0CF01DF91CF911F9199
:105150000F910895CF93DF93009709F481C0FC016C
:10516000329713821282A091DB04B091DC04109775
:1051700081F420813181820F931F2091D9043091D5
:10518000DA042817390751F5F093DA04E093D904CB
:1051900067C0ED0120E030E0CE17DF0740F44A8120
:1051A0005B819E0141155105F1F0EA01F5CFD383F2
:1051B000C28340815181840F951FC817D90759F4C4
:1051C00088819981840F951F0296918380838A81BB
:1051D0009B81938382832115310529F4F093DC04AC
:1051E000E093DB043DC0E901FB83EA8349915991D7
:1051F000C40FD51FEC17FD0761F480819181840FE6
:10520000951F0296E90199838883828193819B830C
:105210008A83E0E0F0E012968D919C9113970097BD
:1052200019F0FD01DC01F7CF8D919C9111979D0143
:105230002E5F3F4F820F931F2091D9043091DA04E3
:105240002817390769F4309729F41092DC0410927A
:10525000DB0402C013821282B093DA04A093D90453
:10526000DF91CF9108951F93FC0199278827BC01F6
:10527000E89411911032E9F3193010F01E30C8F3A0
:105280001B3251F01D3249F4689406C00E94612916
:10529000610F711D811D911D119110531A30B0F3D2
:1052A0003EF490958095709561957F4F8F4F9F4FFD
:1052B0001F910895FB01DC0105900D920020E1F79C
:1052C0000895592F482F372F262F660F771F881FD5
:1052D000991F660F771F881F991F620F731F841F06
:1052E000951F660F771F881F991F08950E94B82980
:1052F00008F481E00895E89409C097FB3EF4909586
:105300008095709561957F4F8F4F9F4F9923A9F09E
:10531000F92F96E9BB279395F6958795779567952D
:10532000B795F111F8CFFAF4BB0F11F460FF1BC071
:105330006F5F7F4F8F4F9F4F16C0882311F096E904
:1053400011C0772321F09EE8872F762F05C06623B2
:1053500071F096E8862F70E060E02AF09A95660F6B
:10536000771F881FDAF7880F9695879597F9089524
:10537000990F0008550FAA0BE0E8FEEF1616170666
:10538000E807F907C0F012161306E407F50798F0CE
:10539000621B730B840B950B39F40A2661F0232BE7
:1053A000242B252B21F408950A2609F4A140A69563
:1053B0008FEF811D811D08950E94EF290C94632AAF
:1053C0000E94552A38F00E945C2A20F0952311F0A3
:1053D0000C944C2A0C94522A11240C94972A0E9463
:1053E000742A70F3959FC1F3950F50E0551F629F8B
:1053F000F001729FBB27F00DB11D639FAA27F00D2E
:10540000B11DAA1F649F6627B00DA11D661F829F54
:105410002227B00DA11D621F739FB00DA11D621F39
:10542000839FA00D611D221F749F3327A00D611D56
:10543000231F849F600D211D822F762F6A2F112438
:105440009F5750409AF0F1F088234AF0EE0FFF1F6B
:10545000BB1F661F771F881F91505040A9F79E3FC2
:10546000510580F00C944C2A0C94972A5F3FE4F38A
:10547000983ED4F3869577956795B795F795E79518
:105480009F5FC1F7FE2B880F911D9695879597F921
:10549000089599278827089597F99F6780E870E015
:1054A00060E008959FEF80EC089500240A9416169A
:1054B000170618060906089500240A941216130602
:1054C000140605060895092E0394000C11F4882390
:1054D00052F0BB0F40F4BF2B11F460FF04C06F5FAC
:1054E0007F4F8F4F9F4F089557FD9058440F551F82
:1054F00059F05F3F71F04795880F97FB991F61F056
:105500009F3F79F087950895121613061406551FCC
:10551000F2CF4695F1DF08C0161617061806991F38
:10552000F1CF86957105610508940895E894BB272D
:1055300066277727CB0197F90895F999FECF92BD99
:1055400081BDF89A992780B50895262FF999FECF45
:105550001FBA92BD81BD20BD0FB6F894FA9AF99A90
:105560000FBE019608950E94F52AA59F900DB49F45
:10557000900DA49F800D911D112408952F923F92AC
:105580004F925F926F927F928F929F92AF92BF9253
:10559000CF92DF92EF92FF920F931F93CF93DF93FF
:1055A000CDB7DEB7CA1BDB0B0FB6F894DEBF0FBE5C
:1055B000CDBF09942A88398848885F846E847D84A9
:1055C0008C849B84AA84B984C884DF80EE80FD80AB
:1055D0000C811B81AA81B981CE0FD11D0FB6F89421
:1055E000DEBF0FBECDBFED010895A29FB001B39FF6
:1055F000C001A39F700D811D1124911DB29F700DDC
:10560000811D1124911D08955058BB27AA270E947F
:105610001C2B0C94632A0E94552A38F00E945C2AA5
:1056200020F039F49F3F19F426F40C94522A0EF41A
:10563000E095E7FB0C944C2AE92F0E94742A58F35A
:10564000BA17620773078407950720F079F4A6F567
:105650000C94962A0EF4E0950B2EBA2FA02D0B0178
:10566000B90190010C01CA01A0011124FF27591BA7
:1056700099F0593F50F4503E68F11A16F040A22FAD
:10568000232F342F4427585FF3CF4695379527951E
:10569000A795F0405395C9F77EF41F16BA0B620B1D
:1056A000730B840BBAF09150A1F0FF0FBB1F661F64
:1056B000771F881FC2F70EC0BA0F621F731F841FA7
:1056C00048F4879577956795B795F7959E3F08F0CD
:1056D000B0CF9395880F08F09927EE0F979587958F
:1056E00008950E94782B6894B1110C94972A08951C
:1056F0000E947C2A88F09F5798F0B92F9927B751BC
:10570000B0F0E1F0660F771F881F991F1AF0BA9565
:10571000C9F714C0B13091F00E94962AB1E0089503
:105720000C94962A672F782F8827B85F39F0B93FF5
:10573000CCF3869577956795B395D9F73EF4909518
:105740008095709561957F4F8F4F9F4F08950E9470
:10575000B82908F48FEF0895991B79E004C0991FC8
:10576000961708F0961B881F7A95C9F780950895BB
:10577000AA1BBB1B51E107C0AA1FBB1FA617B70777
:1057800010F0A61BB70B881F991F5A95A9F7809593
:105790009095BC01CD01089597FB072E16F4009457
:1057A00007D077FD09D00E94B82B07FC05D03EF446
:1057B000909581959F4F0895709561957F4F0895BD
:1057C000A1E21A2EAA1BBB1BFD010DC0AA1FBB1F05
:1057D000EE1FFF1FA217B307E407F50720F0A21B77
:1057E000B30BE40BF50B661F771F881F991F1A94E4
:1057F00069F760957095809590959B01AC01BD010E
:10580000CF010895052E97FB1EF400940E94192CD9
:1058100057FD07D00E94E02B07FC03D04EF40C94F8
:10582000192C50954095309521953F4F4F4F5F4F24
:10583000089590958095709561957F4F8F4F9F4FFC
:1058400008950E94F52AB7FF0895821B930B0895CF
:10585000EE0FFF1F0590F491E02D0994A0E0B0E059
:10586000E4E3FCE20C94C22AEC01009721F4CB01A2
:105870000E941228B4C0FC01E60FF71F9C012250C1
:105880003109E217F30708F4A8C0D9010D911C9162
:10589000119706171707B0F00530110508F49BC0E3
:1058A000C80104978617970708F495C0025011099C
:1058B000061B170B019311936D937C93CF010E94EC
:1058C000AA2889C05B01A01AB10A4C01800E911E62
:1058D000A091DB04B091DC04612C712CE12CF12C43
:1058E000109709F446C08D919C911197A815B905A0
:1058F000B1F56C0142E0C40ED11CCA14DB0478F18E
:105900004C018A189B08640142E0C40ED11C129617
:10591000BC9012971396AC91B5E0CB16D10440F031
:10592000B282A38391828082D9016D937C9309C056
:105930000E5F1F4F800F911FF90191838083EB2D24
:10594000FA2FE114F10431F0D7011396FC93EE9392
:10595000129741C0F093DC04E093DB043CC068166E
:10596000790608F43C017D0112960D90BC91A02DA2
:10597000B7CF8091D9049091DA0488169906E1F4A2
:1059800066167706C8F48091080190910901009786
:1059900041F48DB79EB740910C0150910D01841BCD
:1059A000950BE817F907C8F4F093DA04E093D904EB
:1059B000F901718360830FC0CB010E9412287C0122
:1059C000009759F0A801BE010E94052DCE010E944A
:1059D000AA28C70104C0CE0102C080E090E0CDB784
:1059E000DEB7EEE00C94DE2A81E090E0F8940C94AF
:1059F000FD2F91110C94492A80538A5028F0865C1F
:105A0000806281568650B0F70895FB01DC0102C028
:105A100001900D9241505040D8F7089568177907CA
:105A200068F4FB01DC01E40FF51FA40FB51F02C0F1
:105A300002900E9241505040D8F708950C94052DD5
:105A4000FB01DC018D91019080190110D9F3990BB4
:105A50000895FB01DC0101900D920020E1F708950B
:105A6000FB0151915523A9F0BF01DC014D91451770
:105A70004111E1F759F4CD010190002049F04D9119
:105A800040154111C9F3FB014111EFCF81E090E0D6
:105A900001970895AEE0B0E0E0E5FDE20C94CC2A79
:105AA0000D891E8986E08C831A8309838FEF9FE717
:105AB0009E838D83AE01475E5F4F6F89788DCE01E7
:105AC00001960E946C2DEF81F885E00FF11F108286
:105AD0002E96E4E00C94E82AABE0B0E0E2E7FDE2C9
