:100000000C94E6010C94F1130C94CA130C940E0298
:100010000C940E020C940E020C940E020C940E0220
:100020000C940E020C940E020C940E020C940E0210
:100030000C940E020C9418140C940E020C940E02E4
:100040000C9480130C940E020C94FF110C94D91193
:100050000C940E020C940E020C940E020C940E02E0
:100060000C940E020C940E02496E69742065657042
:10007000726F6D20746F2064656661756C74732097
:10008000616674657220666C6173680052656164B4
:10009000696E672076616C7565732066726F6D207E
:1000A000656570726F6D0063633131303120697343
:1000B000206E6F7420636F72726563746C79207345
:1000C00065742E20506C6561736520646F2061201B
:1000D000666163746F7279207265736574207669E6
:1000E0006120636F6D6D616E64206500726563658C
:1000F0006976657220656E61626C65640053746137
:100100007274696E672074696D65726A6F6200202F
:100110006363506172746E756D3D00206363566554
:10012000723D006F6B2E006E6F2043433131787843
:1001300020666F756E6421004343496E6974200028
:100140005573696E6720734649464F006363726555
:1001500067207772697465206261636B2000736544
:100160006E64206661696C6564003B4D646562463F
:1001700069666F4C696D69743D003B6D634D696ED6
:100180004269744C656E3D003B4D7553706C6974EB
:100190005468726573683D005F4D53636E743D0033
:1001A0003B4D64656275673D003B4D66696C743D0F
:1001B00031003B4C45443D30003B4D7265643D0091
:1001C0003B4D433D003B4D553D004D533D002043CD
:1001D000536574003A2000636372656720004333FF
:1001E00045203D20002064656C617931200020634A
:1001F0006869705374617475732000636D6453741F
:10020000726F62655265672000556E737570706F0E
:100210007274656420636F6D6D616E640020746F2D
:100220002050415441424C4520646F6E6500577226
:100230006974652000203D2000203A004545505259
:100240004F4D2000556E737570706F727465642029
:10025000636F6D6D616E6400556E737570706F7253
:1002600074656420636F6D6D616E6400636331312A
:100270003031200020557365206F6E65206F662039
:10028000005369676E616C3A20002C2073746174AE
:10029000653A20002C206D7472756E633A20002C34
:1002A000204D43443A20002C2076616C636E743AF2
:1002B00020002C206D656E643A20002C206D537454
:1002C0006172743A20002C2050756C73653A204698
:1002D0002F4C2F464C2F4C5020002C205061747412
:1002E0004C656E3A20002061646444617461206F43
:1002F000766572666C6F7721210020627974656380
:100300006E743D0076616C3D00206D62206E6D2044
:10031000622070726F6320004D443D006D4F766522
:1003200072666C6F772673746174653D3021000DC1
:100330002E2D07D3913D04320000060010B07157F6
:10034000C43023B900070018146C070090876BF8BD
:100350005611E92A001F4100000000002500280076
:100360002B00040404040404040402020202020236
:100370000303030303030102040810204080010269
:1003800004081020010204081020000000080002E8
:100390000100000304070000000000000000636D7E
:1003A0006420746F206C6F6E67210020737461721B
:1003B000743D0020627566664D6F7665206F7665C8
:1003C00072666C6F77210000E826E42611241FBEB8
:1003D000CFEFD8E0DEBFCDBF12E0A0E0B1E0E0E8B3
:1003E000FFE502C005900D92AE37B107D9F725E0C1
:1003F000AEE7B2E001C01D92AC32B207E1F711E006
:10040000C5EED1E004C02197FE010E94EC2BC43E52
:10041000D107C9F70E94CF180C94B32F0C94000099
:100420002F923F924F925F926F927F928F929F9204
:10043000AF92BF92CF92DF92EF92FF920F931F93F2
:10044000CF93DF93CDB7DEB7EB970FB6F894DEBF4F
:100450000FBECDBF882E882321F081E080932D042C
:1004600002C010922D0480915204909129048111B0
:1004700004C0983210F40C94510E10922C0481E0B8
:100480009E3F09F080E080932E0440E060E08AE81F
:1004900093E00E947F14F12C2F2C312CE0904F041C
:1004A0008E2D90E00197281639060CF004C1F10159
:1004B000E657FC4FCF010D962585F394222361F377
:1004C000EF2C9101220F331FA901415C5B4F5C8F20
:1004D0004B8F9E8F8D8F58A34F8F80914F04E816BE
:1004E000D8F62E2D30E0B90166577C4F788F6F8B90
:1004F000FB018585882309F4DCC0EB8DFC8D008130
:1005000011815901AA0CBB1CF501E15CFB4F608114
:100510007181CB018027912797FDCBC040903B0490
:1005200050903C0460903D0470903E046B01C01AF2
:10053000D10AD7FE03C0D194C194D10877FF03C07C
:10054000719561957109072E000C880B990B0E941B
:10055000D528A30192010E94342969A37AA38BA311
:100560009CA3B80117FF03C0719561957109072E0F
:10057000000C880B990B0E94D528A30192010E94C0
:1005800034299B01AC0169A17AA18BA19CA10E9495
:10059000522A20E030E040E05FE30E9434290E94CC
:1005A000302B6C157D050CF484C0D12CC12C0F8927
:1005B000188D035F1F4F80912904D81608F041C0A1
:1005C000F8018081C816E8F56D2D70E08FE993E0A1
:1005D0000E943F14809124048E1131C08091210427
:1005E000482F50E0D89EC0011124FC0123E0F6956D
:1005F000E7952A95E1F720912304E217F8F4FF2705
:10060000E657FC4F2091220430E087709927082E8E
:1006100002C0359527950A94E2F720953589232362
:1006200068E070E0641B750BAB01481B590BC101FE
:1006300001C0880F4A95EAF7282B258BC394D394E1
:10064000BACFED8DFE8D1081EF89F88D0585EF8D88
:10065000F8A1A081B1819501215C3B4F6901F901AD
:10066000A080B180E12FF0E09F010E94E52B2B01DB
:100670003C01402F50E09A01D5010E94E52B640D0A
:10068000751D861D971DE40FF51F9F01FF0F440B7D
:10069000550B0E94C62BEF8DF8A131832083100FDC
:1006A000ED8DFE8D1083EF89F88D1586F601118290
:1006B0001082E39412CF10923204109231048FEF23
:1006C00080938A03F0902904BFE3AB2EB4E0BB2EE5
:1006D00000E010E0CC24CA94DC2C4F2C512C612C6F
:1006E000712C0E1508F061C0FFEFCF16DF0631F553
:1006F000F5018081918197FD21C0F801E657FC4FFB
:10070000658570E080E090E00E94D5286F8B788F3F
:10071000898F9A8FC301B2010E94D5282BE734E15B
:100720004EE25EE30E9434299B01AC016F89788D13
:10073000898D9A8D0E94662B181684F1F5018081AF
:10074000918197FD2CC0F601EE0FFF1FE15CFB4F7E
:10075000208131818217930714F5F801E657FC4F89
:10076000658570E080E090E00E94D5286F8B788FDF
:10077000898F9A8FC301B2010E94D5282BE734E1FB
:100780004EE25EE30E9434299B01AC016F89788DB3
:10079000898D9A8D0E94662B18160CF468010F5FE4
:1007A0001F4FF2E0AF0EB11C9CCF2FEFC216D20646
:1007B00041F0C0928A0381E090E0909332048093EC
:1007C00031048091310490913204019709F09FC067
:1007D00080918D03882309F49AC08F2D90E08C3886
:1007E00091051CF438EDF30E02C0E4E6FE2EEA9407
:1007F00076E0772E7FEFE71609F487C00E2D0E2CDA
:10080000000C110BF801E657FC4F4585442309F411
:100810007AC0F801EE0FFF1FE15CFB4F20813181B0
:1008200037FF71C0319521953109283652E43507DB
:100830000CF069C0E0918A03EE0FFF0BE15CFB4F07
:100840000190F081E02DC901BF010E947C2B68322C
:10085000710508F058C07E9EC0017F9E900D112446
:100860008217930708F04FC0642F70E080E090E09B
:100870000E94D5285B016C016091290470E080E042
:1008800090E00E94D5282AE037ED43EA5DE30E941C
:1008900034299B01AC01C601B5010E94CE2887FF17
:1008A00032C0A12CB12CAF1470F565016FEFC61AE0
:1008B000D60AB6018FE993E00E943F148091240488
:1008C00090E08017910711F00C945A0EB5018FE952
:1008D00093E00E943F142091240430E080918A0329
:1008E000082E000C990B2817390711F00C945A0E9A
:1008F000E092510482E090E09093320480933104BE
:10090000A0922A0404C0EA9475CFE0925104809129
:10091000310490913204029709F040C28091290479
:10092000883208F43BC280912A048E5F80932B04A6
:1009300060912B0470E08091290490E00197681782
:10094000790744F56F5F7F4F8FE993E00E943F1472
:100950002091240430E080915104082E000C990B62
:1009600028173907A1F460912B0470E08FE993E018
:100970000E943F142091240430E080918A03082EC5
:10098000000C990B2817390711F40C945D0E809117
:100990002B04CBCF10E080912B04282F30E09091D6
:1009A0002A04291B310928323105DCF591E0980F22
:1009B00090932A048D5F80932B0460912B0470E048
:1009C0008091290490E00197681779074CF56F5FD3
:1009D0007F4F8FE993E00E943F142091240430E080
:1009E00080915104082E000C990B28173907A1F4A7
:1009F00060912B0470E08FE993E00E943F142091F6
:100A0000240430E080918A03082E000C990B2817EB
:100A1000390711F40C94650E80912B048E5FCBCFB7
:100A200010E08091290490912B04891710F0111186
:100A300003C0815080932B0440912B0460912A04C1
:100A40008AE893E00E947F1480912A04112351F0D8
:100A500090912B04292F30E0281B310928323105D1
:100A60006CF48CC1209129042E3F08F07AC130E04B
:100A7000281B3109283231050CF473C180918E0393
:100A8000882309F4AEC082E00E94651789EF91E0E7
:100A90000E942D178BE30E94651720E080914F0480
:100AA0002817C8F5822F90E0FC01EE0FFF1FE15CD4
:100AB000FB4F008111810115110559F1FC01E65729
:100AC000FC4F8585882329F1622F17FF05C0606AD6
:100AD00011950195110901C06068F02E07FD04C051
:100AE000802F8068F82E01C0606183EE92E02BAF0A
:100AF0000E944C106F2D83EE92E00E944C10612FEB
:100B0000606883EE92E00E944C108BE30E946517B0
:100B10002BAD2F5FC3CF80912B0480FF03C08CEFE0
:100B200091E002C082E792E00E942D17E0912A0432
:100B3000E0FF16C0E150E0932A04E695809123047B
:100B4000E81720F4F0E0E657FC4F9588692D83EE16
:100B500092E00E944C1080912A048E5F80932A04B8
:100B600010912A0480912B04811788F0E12FE695DB
:100B700080912304E81720F4F0E0E657FC4F9588B5
:100B8000692D83EE92E00E944C101E5FEBCF8BE349
:100B90000E94651786E192E00E942D1780918A03DA
:100BA00060E170E0082E000C990B0E9470178BE337
:100BB0000E94651781E092E00E942D1780915104F8
:100BC00060E170E0082E000C990B0E9470178BE317
:100BD0000E9465178EEF91E00E942D1760E170E092
:100BE0007AC082E00E94651780E092E00E942D1793
:100BF0008BE30E94651710E080914F04181750F5A1
:100C0000812F90E09C01220F331FF901E15CFB4F23
:100C10007F0120813181232BD9F0FC01E657FC4F65
:100C200085858823A9F080E50E9465176AE070E059
:100C3000812F0E9419178DE30E9465176AE070E00A
:100C4000F701808191810E9470178BE30E946517E4
:100C50001F5FD2CF83E092E00E942D1710912A04EB
:100C600080912B04811770F0612F70E08FE993E081
:100C70000E943F146AE070E0809124040E941917DA
:100C80001F5FEECF8BE30E94651786E092E00E9423
:100C90002D1780918A036AE070E0082E000C990BF2
:100CA0000E9470178BE30E9465178AE092E00E9411
:100CB0002D17809151046AE070E0082E000C990B0A
:100CC0000E9470178BE30E9465178EE092E00E94ED
:100CD0002D176AE070E0809155040E9419178BE38C
:100CE0000E94651780912E04882339F081E192E0FB
:100CF0000E942D178BE30E94651710922D0480919E
:100D00002B042091290430E0281B310928323105B9
:100D1000ECF0909192039923C9F091509093920333
:100D20008F5F0E94D81710922A0480918F03882326
:100D300069F083E192E00E942D176AE070E08091F3
:100D400092030E9419178BE30E94651783E00E94AB
:100D5000651780E691E00E942D1781E0809396034D
:100D60001AC08823A1F020912B0430E02D3F3105DB
:100D700074F0811007C010922D040DC09E3F38F40E
:100D800081E0890F0E94D81710922A0404C08AE8D3
:100D900093E00E94E11481E080932C0480912C0464
:100DA000811169C780918B03F0918C03FBA781119E
:100DB00003C0FF2309F45FC72BA5222309F43FC515
:100DC00080919202811129C082E38093D60291E042
:100DD0009093D40210929F021092D1021092D202EC
:100DE00087E08093D30280E88093D5028FEF8093D1
:100DF000DA028093DB028093DC028093DD021092A2
:100E0000E2022AE833E03093D9022093D80210920C
:100E1000DF021092DE0290939202809152048823A6
:100E200081F08091D8029091D902FC01E753FF4FE5
:100E300021E02083B697108233971082BB24B394AD
:100E400062C18FEF8093DA028093DB028093DC0231
:100E50008093DD021092E2021092DF021092DE0215
:100E600010929F021092D1021092D20287E08093DA
:100E7000D302809154048093E0020091D802109133
:100E8000D902F801EB53FF4FF08033E03F1508F033
:100E9000CBC4B697608170E080E090E00E94D528D6
:100EA0002AE037ED43E25DE30E9434292B013C0147
:100EB00020E030E0A9010E94662B20E030E040E015
:100EC0005FE387FD05C0C301B2010E94522A04C03E
:100ED000C301B2010E94512A0E94302BA801435F36
:100EE0005F4FD801AB54BF4F1F8A70E0FA01819168
:100EF000AF01861768F1EF888E2D90E0EE20F1F0BB
:100F0000FE01E80FF91FD08098012D0D311D2D0D28
:100F1000311DF901EB54FF4F2D913C911197019038
:100F2000F081E02D2E173F074CF4E1E0F0E0EC0FEC
:100F3000FD1FE80FF91FD082EA94DECFE1E0F0E078
:100F4000EC0FFD1FE80FF91F7083FF89FF5FFF8B18
:100F50007F5F12967F11CACF9E012F5F3F4F3A8B62
:100F6000298B3AA729A7BE01675F7F4F7C8B6B8BCC
:100F7000CE010D969E8B8D8B8C5F8AAF798979AF70
:100F800089A5871BEF898E1708F04EC4E9A5FAA53D
:100F90002191FAA7E9A74091D8023091D902842F74
:100FA000932F820F911D820F911DFC01EB54FF4F77
:100FB000208131813C8F2B8F12161306FCF68FEFA8
:100FC0008093DA028093DB028093DC028093DD025F
:100FD000B901330F880B990B0E94D5286CA77DA708
:100FE0008EA79FA72DEC3CEC4CE45EE30E943429D5
:100FF0000E94302B7CAB6BAB4B8D5C8D5595479530
:101000005EAB4DABBE016F5F7F4F7EA36DA31FA292
:10101000AA24AA94BA2C18A6EDA1FEA1D190FEA3F1
:10102000EDA33091D8022091D902832F922F8D0DFC
:10103000911D8D0D911DFC01EB54FF4F008111811D
:10104000980117FF04C022273327201B310B8DA9DD
:101050009EA9821B930B97FF03C0919581959109DF
:101060004BA95CA948175907D4F4EB8CFC8CE21A05
:10107000F30AF7FE03C0F194E194F1082DEC3CEC87
:101080004CEC5EE36CA57DA58EA59FA50E9434293E
:101090000E94302B6E157F050CF09CC610C01016F8
:1010A00011060CF03CC7D092DD0258A55F5F58A72F
:1010B000A00EB11E8091DA028F3F09F0A0C28DA16F
:1010C00059AD851B6F89861708F4A6CF57CFB70196
:1010D000C80145960E943F14F801E656FF4FC080B4
:1010E000D12C8091DB02082E000C990BC816D90672
:1010F00009F477C68091DA02082E000C990BC81605
:10110000D90689F0B394EB2CF12C0091D802109100
:10111000D902F801E156FF4F808190E00197E8166F
:10112000F906ACF22CC00091D8021091D902B70197
:1011300061507109C80145960E943F14F801E656B6
:10114000FF4F2081C801820F911D820F911DFC016C
:10115000EB54FF4F8091D8029091D902A091DB020D
:10116000AA0FBB0BA80FB91FAB54BF4F2081318111
:101170008D919C91821793070CF033C6C3CF1B2D22
:1011800000E02091D8023091D902F901E156FF4FD9
:10119000808190E00197E816F9061CF0BA9610825B
:1011A00043C3802F0E948518C090D802D090D902E6
:1011B000F601E056FF4F8FEF8083B7016150710950
:1011C000C60145960E943F14F601E656FF4F808106
:1011D00090E02091DC02022E000C330B8217930763
:1011E00009F40DC62091DD02022E000C330B82178C
:1011F000930709F04EC003C6E12EF12CC090D8022F
:10120000D090D902B70162507109C60145960E947B
:101210003F14F601E656FF4F808190E02091DC02FA
:10122000022E000C330BA701415051097A0182179D
:10123000930709F4E7C52091DD02022E000C330B61
:101240008217930709F4DEC5C090D802D090D90266
:10125000B701C60145960E943F14F601E656FF4FBE
:10126000208130E08091DD02082E000C990B2817B8
:10127000390779F4E091D802F091D902E056FF4F96
:101280001250108310E0802F0E948518123008F051
:10129000B3CFE091D802F091D902E056FF4F8081A0
:1012A0008F3F09F410831091E10281E08093E20204
:1012B000BB24B394C090D802D090D902F601E15675
:1012C000FF4F80811817B8F5E12EF12CB701C60148
:1012D00045960E943F14F601E656FF4F808190E04C
:1012E0002091DA02022E000C330B8217930709F4C7
:1012F000AAC52091DB02022E000C330B8217930744
:1013000009F4A1C5C090D802D090D902F601E156E7
:10131000FF4F208130E021503109E216F3065CF4E2
:101320000111CCC52091DC02022E000C330B821778
:10133000930709F48EC5212F8091D8029091D9028C
:10134000FC01E156FF4F3081131710F421E0210F0B
:101350006091D20270E04091E002042E000C550B27
:10136000641775070CF460C2FC01EF55FF4F208332
:1013700082E00E94651785E192E00E942D178BE3C1
:101380000E94651788E192E00E942D17E091DA0231
:10139000EE0FFF0BE15CFB4F6AE070E08081918112
:1013A0000E9470178BE30E9465178CE192E00E9407
:1013B0002D17E091DB02EE0FFF0BE15CFB4F6AE0C3
:1013C00070E0808191810E9470178BE30E94651705
:1013D00080E292E00E942D17E091DC02EE0FFF0BFD
:1013E000E15CFB4F6AE070E0808191810E947017A0
:1013F0008BE30E94651784E292E00E942D17E09132
:10140000DD02EE0FFF0BE15CFB4F6AE070E08081D4
:1014100091810E9470178BE30E94651783E092E030
:101420000E942D1780E390E3A0E089839A83AB8329
:10143000D12CCE0101967C0118E2A12E12E0B12E32
:101440000D2D10E08091D10290E02091D602081776
:101450001907DCF4D21628F4F801E156FD4F80811B
:1014600001C080E01F928F93BF92AF92FF92EF92E4
:101470000E94122DC7010E942D17D3940F900F9038
:101480000F900F900F900F90DBCFD21628F4F80139
:10149000E156FD4F90819FAB8FA982958F701F926F
:1014A0008F938DE292E09F938F93FF92EF920E9431
:1014B000122DC7010E942D178091D2028770815092
:1014C0000F900F900F900F900F900F908430F0F0CE
:1014D0008091D602D81628F4F801E156FD4F2081FC
:1014E00028AF88AD8F701F928F938DE292E09F930B
:1014F0008F93FF92EF920E94122DC7010E942D1729
:101500000F900F900F900F900F900F908BE30E9411
:10151000651782E392E00E942D176AE070E08091E7
:10152000DE029091DF020E9470178BE30E94651724
:1015300089E192E00E942D176AE070E08091D2026A
:101540000E9419178BE30E9465178EE092E00E94BB
:101550002D176AE070E0809155040E9419178BE303
:101560000E94651780918F03882349F1809153046D
:10157000811107C085E392E00E942D178BE30E9442
:1015800065178091E1028823D1F08AEF91E00E94F3
:101590002D176AE070E08091E1020E9419178BE339
:1015A0000E94651787E392E00E942D176AE070E0C1
:1015B00080912A040E9419178BE30E9465171092EC
:1015C000520481E080932C0480939603811009C01B
:1015D0008091290490E020912B04821B9109889727
:1015E00034F080912B040E94D81710922A0483E0D3
:1015F0000E94651780E691E00E942D1720C180911E
:10160000DC028F3F09F45BCD8091DB028F3F09F450
:1016100056CD8091DD028F3F09F451CD8FEF8D873C
:101620008E878F87888B89878A878B878C8781E0D5
:1016300090E09AA389A3212C312C99249A940091AB
:10164000D8021091D902F801E156FF4F808190E055
:10165000281639060CF033CDB101C80145960E9419
:101660003F14F801E656FF4F1081812F90E0209142
:10167000DA02022E000C330B8217930709F42DC3F4
:101680002091DB02022E000C330B8217930709F422
:1016900024C32091DC02022E000C330B8217930727
:1016A00009F41BC32091DD02022E000C330B8217BC
:1016B000930709F412C38091D8029091D902FC01DA
:1016C000E056FF4F6081A101461B51092091E002C5
:1016D000022E000C330B241735070CF02EC3319665
:1016E0002082422D0E947F148091D8029091D902CD
:1016F000E091DD02ED8F0091DB021091DC02F091B0
:10170000DA02FF8FFC012D8DE20FF11D27FDFA9506
:101710002585FC01E00FF11D07FDFA95C584D12C4C
:10172000C20ED11CFC01E10FF11D17FDFA952585B4
:10173000C21AD108FC013F8DE30FF11D37FDFA9568
:1017400025851092E202C21AD108D7FE03C0D194B7
:10175000C194D1080D2C000CEE08FF08FC01E156E5
:10176000FF4F8081482F50E059AB48ABBA01550F6D
:10177000880B990B0E94D5282AE037ED43E25DE300
:101780000E9434292B013C0120E030E0A9010E9495
:10179000662B20E030E040E05FE387FDACC2C30190
:1017A000B2010E94522A0E94302B6C157D058E05D5
:1017B0009F050CF484CC5FA168A5561380CC7F8D67
:1017C000701709F47CCC8D8D181709F478CC71173B
:1017D00009F475CC081709F472CC781709F46FCCAA
:1017E000011709F46CCCDE011996FE013D9691912A
:1017F0008D91981709F484C28F3F09F483C281E068
:101800009F3F09F07DC29AAD9E137EC281117FC2B7
:10181000C50166E070E00E94902B7093DF02609338
:10182000DE02EBA5E111FDCA80915204882339F054
:1018300080912D04882319F081E080932C048091FD
:101840008B03882309F417C28091310490913204EC
:10185000019709F010C280912C0481110CC2809173
:101860002904883208F407C210914F04115017FD63
:1018700095C0C12E012E000CDD08F601EE0FFF1FF2
:10188000E15CFB4F8081918197FF03C09195819529
:10189000910920919403309195038217930730F3B7
:1018A000F601E657FC4F8585882301F38130A9F4C2
:1018B000E12CF12CB7018FE993E00E943F14809155
:1018C000240490E08C159D0589F23FEFE31AF30A9A
:1018D0004AE0E416F10471F702C0883038F688E275
:1018E00080932B0480912904883208F457C080919A
:1018F000940390919503892B09F450C018E2E12ECE
:10190000F12C8091290490E00197E816F9060CF07B
:1019100045C0B7018FE993E00E943F14E091240491
:10192000F0E0EE0FFF1FE15CFB4F80819181B7017A
:101930001816190674F48FE993E00E943F14E091A1
:101940002404F0E0EE0FFF1FE15CFB4F80819181EA
:1019500010C08FE993E00E943F14E0912404F0E06E
:10196000EE0FFF1FE15CFB4F808191819195819586
:10197000910920919403309195038217930760F0A9
:1019800010932B044FEF410F60E08AE893E00E9430
:101990007F14DD24D39411C01F5FB1CF809129043F
:1019A00080932B0480912A04882331F040E060E08A
:1019B0008AE893E00E947F14D12C80918E038823C3
:1019C00009F484C082E00E94651789E392E00E94D6
:1019D0002D178BE30E94651720E080914F04281794
:1019E000C8F5822F90E0FC01EE0FFF1FE15CFB4F7A
:1019F000008111810115110559F1FC01E657FC4FD9
:101A00008585882329F1622F17FF05C0606A11952B
:101A10000195110901C06068F02E07FD04C0502F28
:101A20005068F52E01C0606183EE92E02BAF0E94FA
:101A30004C106F2D83EE92E00E944C10612F606875
:101A400083EE92E00E944C108BE30E9465172BAD51
:101A50002F5FC3CF80912B0480FF06C08CEF91E0F5
:101A60000E942D1710E014C082E792E0F9CFE12F19
:101A7000E69580912304E81728F4F0E0E657FC4F40
:101A800065896AAB6AA983EE92E00E944C101E5FE2
:101A900080912B04181758F38BE30E94651786E199
:101AA00092E00E942D1780918A0360E170E0082E79
:101AB000000C990B0E9470178BE30E9465178EEF44
:101AC00091E00E942D1760E170E06BC082E00E94FF
:101AD00065178CE392E00E942D178BE30E94651737
:101AE00010E080914F04181760F5812F90E09C0161
:101AF000220F331FF901E15CFB4F7F01208131810F
:101B0000232BE9F0FC01E657FC4F85858823B9F0CB
:101B10008DEE91E00E942D176AE070E0812F0E9407
:101B2000191783E392E00E942D176AE070E0F70135
:101B3000808191810E9470178BE30E9465171F5F5F
:101B4000D0CF83E092E00E942D1710E080912B040B
:101B5000181770F4612F70E08FE993E00E943F1432
:101B60006AE070E0809124040E9419171F5FEECF95
:101B70008BE30E94651786E092E00E942D1780910A
:101B80008A036AE070E0082E000C990B0E9470171F
:101B90008BE30E9465178EE092E00E942D176AE0A9
:101BA00070E0809155040E9419178BE30E9465171D
:101BB00010922D0481E08093960380932C04DD2005
:101BC00081F1811009C08091290490E020912B04BB
:101BD000821B91098897D4F0809193038F5F809343
:101BE000930380912B040E94D81710922A048091AD
:101BF0008F038823B1F08FE392E00E942D176AE0F3
:101C000070E0809193030E94191708C080918F03A0
:101C1000882339F081E492E00E942D178BE30E9423
:101C2000651780912E04882339F081E192E00E94AB
:101C30002D178BE30E94651780918F038823A1F0F5
:101C4000811007C088E592E00E942D178BE30E9467
:101C5000651780915304811107C085E392E00E94CB
:101C60002D178BE30E94651783E00E94651780E6BD
:101C700091E00E942D1780912C04811102C01092D6
:101C80002D04809129048E3F60F080913104909161
:101C90003204892B31F48CE193E00E94B717109243
:101CA0002D0480912D04811147C18AE893E00E94A0
:101CB000E11442C156010C94530480912B048150CD
:101CC00080932B0411E00C94CB0480912B04815061
:101CD00080932B0411E00C9411052091D8023091CF
:101CE000D902F901E156FF4F808190E00197281653
:101CF000390631F5E0CCC301B2010E94512A53CD1F
:101D000080E081CD81E07FCD882309F470CD88A962
:101D100099A9821993092091E002022E000C330B3D
:101D2000281739070CF0CBC99D8699869E869A861E
:101D30009F869B86988A9C8643C01092E2020BC0C5
:101D40008091E202811107C0F901E056FF4F208225
:101D5000F1E0F093E202E090D802F090D90269A19C
:101D60007AA1C70145960E943F14F701E656FF4F3E
:101D700080812AE0129F800D11248A3008F48C594A
:101D800020FC03C02D899E8902C02B899C89E22FEB
:101D9000F92F90E0482F50E06081262F062E000C8E
:101DA000330B2417350719F06F3F19F48083292F5F
:101DB00001C02FEF9F5F943019F031962F3F61F3F0
:101DC0003FEF231A330A49A15AA14F5F5F4F5AA32D
:101DD00049A335CC101611060CF0A9C0D092DB0235
:101DE00064C91B2D8091DB02082E000C990B01E0C9
:101DF000C816D90609F000E0B092E102C2C91FEF8F
:101E00001B0D44CAC090D802D090D902B701C601B8
:101E100045960E943F14F601E656FF4F808190E000
:101E20002091DC02022E000C330B8217930709F479
:101E300081C02091DD02022E000C330B8217930724
:101E400009F002CA77C00B251F5F802F0E948518FA
:101E500031CA5FEFE51AF50AB701C60145960E943F
:101E60003F14F601E656FF4F208130E08091DD02FD
:101E7000082E000C990B2817390709F44EC0C090A2
:101E8000D802D090D902B701C60145960E943F14EE
:101E9000F601E656FF4F208130E08091DB02082EEC
:101EA000000C990B2817390709F045CAE091D802B0
:101EB000F091D902E753FF4F10823DCA2091DD0215
:101EC000022E000C330B8217930709F034CA6FEF10
:101ED000E61AF60AB701C60145960E943F14F601BC
:101EE000E656FF4F208130E08091DC02082E000C86
:101EF000990B2817390789F0C090D802D090D902E1
:101F0000B701C60145960E943F14F601E656FF4F01
:101F1000208130E08091DA02C2CF1F5F95CFD0924E
:101F2000DC026FA16F5F6FA3A01AB10AC3C8D09281
:101F3000DA02F7CF1250A7C9EB960FB6F894DEBFBE
:101F40000FBECDBFDF91CF911F910F91FF90EF900A
:101F5000DF90CF90BF90AF909F908F907F906F90C9
:101F60005F904F903F902F900895CF92DF92EF9225
:101F7000FF920F931F93CF93DF936C017A018B0134
:101F8000C0E0D0E0CE15DF0589F0D8016D918D015C
:101F9000D601ED91FC910190F081E02DC6010995EB
:101FA000892B11F47E0102C02196ECCFC701DF918D
:101FB000CF911F910F91FF90EF90DF90CF900895F8
:101FC000089580E090E00895FC01538D448D252F05
:101FD00030E0842F90E0821B930B541710F0CF96C3
:101FE000089501970895FC01918D828D981761F0F5
:101FF000828DDF01A80FB11D5D968C91928D9F5F40
:102000009F73928F90E008958FEF9FEF0895FC01EA
:10201000918D828D981731F0828DE80FF11D858D9D
:1020200090E008958FEF9FEF0895FC01918D228D30
:10203000892F90E0805C9F4F821B91098F739927B5
:10204000089583EE92E00E94151021E0892B09F497
:1020500020E0822F0895FC01848DDF01A80FB11DBF
:10206000A35ABF4F2C91848D90E001968F739927CE
:10207000848FA689B7892C93A089B1898C918064BB
:102080008C93938D848D981306C00288F389E02D7C
:1020900080818F7D80830895EF92FF920F931F932D
:1020A000CF93DF93EC0181E0888F9B8D8C8D98130B
:1020B00005C0E889F989808185FD24C0F62E0B8D45
:1020C00010E00F5F1F4F0F731127E02E8C8DE81269
:1020D0000CC00FB607FCFACFE889F989808185FF2B
:1020E000F5CFCE010E942B10F1CF8B8DFE01E80FB2
:1020F000F11DE35AFF4FF0820B8FEA89FB89808143
:10210000806207C0EE89FF896083E889F989808150
:102110008064808381E090E0DF91CF911F910F91E7
:10212000FF90EF900895CF93DF93EC01888D882383
:10213000C9F0EA89FB89808185FD05C0A889B98934
:102140008C9186FD0FC00FB607FCF5CF808185FF0F
:10215000F2CFA889B9898C9185FFEDCFCE010E947D
:102160002B10E7CFDF91CF91089508950895FC01DA
:10217000099480E008950E94BC2CFC01808191812B
:10218000009711F00C94922860E070E0CB01089564
:10219000FC0124813581232B31F421E06115710587
:1021A000A1F0FB0108C0FC018081918161157105DE
:1021B00031F421E0FC018081882339F005C00E94C0
:1021C000E82C21E0892B09F020E0822F08950F935D
:1021D0001F93CF93DF93EC0188819981009729F0B9
:1021E0002A813B812617370788F48B016F5F7F4F69
:1021F0000E94F22B009761F0998388831B830A83E6
:102200002C813D81232B11F4FC01108281E001C05F
:1022100080E0DF91CF911F910F910895EF92FF928F
:102220000F931F93CF93DF93EC017B018A01BA01D7
:102230000E94E7102881398181110DC021153105D7
:1022400019F0C9010E94FA27198218821D821C8286
:102250001B821A8206C01D830C83B701C9010E942C
:10226000F12CCE01DF91CF911F910F91FF90EF9054
:102270000895CF93DF93EC016115710559F0FB01CF
:1022800001900020E9F73197AF01461B570B0E94E0
:102290000E110CC088819981009711F00E94FA27D5
:1022A000198218821D821C821B821A82CE01DF9144
:1022B000CF910895FF920F931F93CF93DF9300D098
:1022C000CDB7DEB7FF24F39483EE92E00E941510A1
:1022D000892B09F446C083EE92E00E94F30F8A3006
:1022E00041F01CF4882329F007C08D3011F08332AF
:1022F00019F4F092860222C089831A820091880321
:10230000109189030F5F1F4FB80184E893E00E948A
:10231000E710882399F02091840330918503809100
:10232000880390918903BE016F5F7F4F820F931FD7
:102330000E94F12C109389030093880380918803F5
:1023400090918903813F910508F4BECF61E671E069
:1023500084E893E00E9439118EE993E00E94B71758
:10236000B3CF0F900F90DF91CF911F910F91FF90FE
:1023700008950E94211081110C945A110895FC01B6
:10238000808191810C94FA27FC01118210821382C2
:102390001282158214826115710551F0FB010190C2
:1023A0000020E9F73197AF01461B570B0C940E1133
:1023B00008951F920F920FB60F9211242F933F93FF
:1023C0004F935F936F937F938F939F93AF93BF933D
:1023D000EF93FF9383EE92E00E942B10FF91EF9119
:1023E000BF91AF919F918F917F916F915F914F912D
:1023F0003F912F910F900FBE0F901F9018951F9235
:102400000F920FB60F9211242F938F939F93EF93F8
:10241000FF93E091F302F091F4028081E091F902E0
:10242000F091FA0282FD12C090818091FC028F5FD0
:102430008F732091FD02821751F0E091FC02F0E0D1
:10244000ED51FD4F958F8093FC0201C08081FF917B
:10245000EF919F918F912F910F900FBE0F901F9032
:1024600018953FB7F89480919B0290919C02A0919F
:102470009D02B0919E0226B5A89B05C02F3F19F082
:102480000196A11DB11D3FBFBA2FA92F982F8827F4
:10249000820F911DA11DB11DBC01CD0142E0660F4F
:1024A000771F881F991F4A95D1F708958F929F92A1
:1024B000AF92BF92CF92DF92EF92FF926B017C01BD
:1024C0000E9431124B015C01C114D104E104F104FA
:1024D000F1F00E943112DC01CB0188199909AA0997
:1024E000BB09883E9340A105B10570F321E0C21AF3
:1024F000D108E108F10888EE880E83E0981EA11C3F
:10250000B11CC114D104E104F10419F7DDCFFF902F
:10251000EF90DF90CF90BF90AF909F908F900895F5
:10252000CF92DF92EF92FF920F931F930E9431128E
:1025300000918003109181032091820330918303E5
:102540006B017C01C01AD10AE20AF30A97018601E5
:10255000609380037093810380938203909383033D
:102560000A3511052105310578F181E0C8168DE79E
:10257000D806E104F10410F4960102C021E03DE721
:102580004A9B03C031952195310980915D048436C1
:10259000D8F480915D048F5F80935D0480915E0428
:1025A00060915C040E94702B90935E04E0915E0445
:1025B000F0E0EE0FFF1FE05AFB4F31832083809144
:1025C0005E048F5F80935E041F910F91FF90EF90E8
:1025D000DF90CF9008950F931F930E9431120091C6
:1025E0008003109181032091820330918303DC01E9
:1025F000CB01801B910BA20BB30B82309D47A10531
:10260000B10580F14A9903C02FEF32E802C021E002
:102610003DE780915D048436D8F480915D048F5F3E
:1026200080935D0480915E0460915C040E94702B35
:1026300090935E04E0915E04F0E0EE0FFF1FE05A1D
:10264000FB4F3183208380915E048F5F80935E0413
:102650000E94311260938003709381038093820300
:102660009093830320918502E3E9F3E09491EFE7EF
:10267000F3E08491EBE6F3E0E491EE2309F43BC050
:10268000992339F1933091F038F49130A9F09230D8
:1026900001F594B59F7D12C0973091F09830A1F06C
:1026A0009430B9F4909180009F7D03C09091800098
:1026B0009F77909380000DC094B59F7794BD09C01B
:1026C0009091B0009F7703C09091B0009F7D909350
:1026D000B000F0E0EE0FFF1FE85AFC4FA591B49157
:1026E0009FB7F894EC91211103C080958E2301C00F
:1026F0008E2B8C939FBF109285021F910F9108958E
:102700001F920F920FB60F9211242F933F938F9326
:102710009F93AF93BF938091800290918102A0918B
:102720008202B091830230919A0223E0230F2D3769
:1027300020F40196A11DB11D05C026E8230F0296C5
:10274000A11DB11D20939A02809380029093810273
:10275000A0938202B093830280919B0290919C028D
:10276000A0919D02B0919E020196A11DB11D809382
:102770009B0290939C02A0939D02B0939E02BF91F6
:10278000AF919F918F913F912F910F900FBE0F901E
:102790001F9018951F920F920FB60F9211242F932E
:1027A0003F934F935F936F937F938F939F93AF93D9
:1027B000BF93EF93FF93E0910601F0910701099514
:1027C000FF91EF91BF91AF919F918F917F916F9109
:1027D0005F914F913F912F910F900FBE0F901F90DF
:1027E00018951F920F920FB60F9211242F933F93BB
:1027F0004F935F936F937F938F939F93AF93BF9309
:10280000EF93FF93E0910401F09105010995FF9189
:10281000EF91BF91AF919F918F917F916F915F9158
:102820004F913F912F910F900FBE0F901F901895D1
:102830001F920F920FB60F9211242F933F934F9335
:102840005F936F937F938F939F93AF93BF93EF9318
:10285000FF93E0917E02F0917F020995FF91EF9145
:10286000BF91AF919F918F917F916F915F914F91A8
:102870003F912F910F900FBE0F901F901895CF93FF
:10288000DF93FC01EE57FF4F4081469FF001479FC9
:10289000F00D11249F0153E0369527955A95E1F7E5
:1028A000DC01AC57BF4F5C91251720F5DC01A20F6E
:1028B000B11DEC01CD57DF4F288130E0E770FF27D5
:1028C00002C035952795EA95E2F73C91232330E045
:1028D00058E0541B469F402D11244770541B02C0E2
:1028E000359527955A95E2F7322FFC01EB57FF4FAC
:1028F000208301C03FEF832FDF91CF910895FC012A
:10290000E156FF4F2081222309F45AC0E259F10910
:10291000DC0155961192EA17FB07E1F7411102C05D
:102920004FEF420F262F2695542F569560FF13C068
:10293000FC01E756FF4F6081261720F4FC01E20FEF
:10294000F11D3589632F6F70FC01E60FF11D658560
:102950006F5F65872F5FDC01A756BF4F5217E8F006
:102960006C91261720F4FC01E20FF11D3589E32F4D
:10297000F0E064E0F595E7956A95E1F7E80FF91F57
:1029800065856F5F6587632F6F70FC01E60FF11D32
:1029900065856F5F65872F5FE1CF40FD11C0FC014A
:1029A000E756FF4F2081521720F4FC01E50FF11D7F
:1029B00035893F70FC01E30FF11D858581508587C6
:1029C0000895CF93DF93FC01E156FF4F1082DC01A5
:1029D000AB53BF4F1C92B7961082FC01158AEC5680
:1029E000FF4F108231961082319627E02083719636
:1029F00011821082B0962FEF2083FC012083EB54CC
:102A0000FF4FEC012D96119211921992EA17FB07D4
:102A1000D1F7FC01EE55FF4F1082339626E930E0E6
:102A2000318320833C9640E050E060E87EE34083C1
:102A3000518362837383719710823396108231962B
:102A40001082B4961082319621E02083B8971082CC
:102A5000DF91CF9108950C94FD290C94F529CF9323
:102A6000C82F803120F484E492E00E942D1760E1A9
:102A700070E08C2FCF910C941917CF93DF93C2E0A5
:102A8000D0E0FE01E35DFC4F6491CE010E942B1566
:102A90002196CB32D105A9F7C0E3D0E0C13321F4B0
:102AA00064E881E390E002C060E0CE010E942B1553
:102AB0002196C833D10591F786E492E0DF91CF915A
:102AC0000C947B168EBD0DB407FEFDCF8EB5089518
:102AD000CF93DF932A981C99FECF8EE70E94621550
:102AE000C0E3D0E0CE010E942D150E946215219610
:102AF000C833D105B9F72A9ADF91CF910895CF93C2
:102B0000DF931F92CDB7DEB72A981C99FECF698359
:102B10000E9462156981862F0E9462152A9A0F9081
:102B2000DF91CF9108952A981C99FECF862B0E94A1
:102B3000621580E00E9462152A9A089560EC84E391
:102B40000C9493152A981C99FECF0E9462151C992B
:102B5000FECF2A9A089586E30E94A21561E070E0F4
:102B600080E090E00C945612E89885EB90E1909309
:102B70000501809304018091840281110C94AB15AE
:102B80000895CF93DF930E94AB15CEEFCF3FC1F0F6
:102B900084E30E94A215DFEFDC0F8077803141F0E3
:102BA00061E070E080E090E00E945612CD2FEECF01
:102BB000C11106C08AE592E0DF91CF910C947B169B
:102BC000DF91CF91089580E992E190930501809380
:102BD0000401809169008C7F816080936900E89A8C
:102BE0008091840281110C94C1150895CF93DF93D5
:102BF0002A9A83E790E0FC013197F1F72A98019730
:102C0000F1F72A9A8FEA90E00197F1F780E30E94AA
:102C1000A2156AE070E080E090E00E9456122A98C7
:102C200080E40E946215C2E0D0E0CE010E942D1522
:102C30000E9462152196CB32D105B9F72A9A83E218
:102C400090E00197F1F70E94681561E070E080E084
:102C500090E00E945612DF91CF910C94C115CF9352
:102C6000C82F803120F484E492E00E942D1760E1A7
:102C700070E08C2FCF910C94191790ED980F9A302B
:102C800070F09FE9980F963010F499EA05C09FEB19
:102C9000980F963018F499EC980F01C0982F892F4F
:102CA00008951F93CF93DF93C82FD0E0CE010E94E9
:102CB0002F170E943D16182F1295107FCE010196F6
:102CC0000E942F170E943D16810FDF91CF911F9117
:102CD0000895009769F0FC0101900020E9F7319711
:102CE000AF01481B590BBC0183EE92E00C94B50F69
:102CF00080E090E00895CF93DF930E946916EC0185
:102D00008FE591E00E9469168C0F9D1FDF91CF9196
:102D10000895DF92EF92FF920F931F93CF93DF936B
:102D20007C018B01EA014617570720F4812F8A01A5
:102D3000C62FD82F61E671E0C7010E94C4118091AF
:102D400088039091890308171907E0F48C179D07F1
:102D500008F4EC01E0918403F0918503EC0FFD1F72
:102D6000D08010826091840370918503600F711F81
:102D7000C7010E943911E0918403F0918503EC0FA3
:102D8000FD1FD082C701DF91CF911F910F91FF905E
:102D9000EF90DF900895CF93DF93EC01409188038B
:102DA000509189030E948916CE01DF91CF91089539
:102DB0008F929F92AF92BF920F931F93CF93DF9307
:102DC000CDB7DEB7A1970FB6F894DEBF0FBECDBF6B
:102DD00019A2423008F44AE08E010F5D1F4F842E85
:102DE000912CA12CB12CA50194010E94A42BE62FBB
:102DF000B901CA0101501109EA3014F4E05D01C0C3
:102E0000E95CD801EC93232B242B252B61F7C80117
:102E10000E946916A1960FB6F894DEBF0FBECDBF13
:102E2000DF91CF911F910F91BF90AF909F908F90A6
:102E30000895AB01672B59F4E091E302F091E402AD
:102E40000190F081E02D682F83EE92E00994682FC5
:102E500070E080E090E00C94D8160C9469162091F4
:102E60008803309189038217930760F420918403CB
:102E7000309185032115310529F0F901E80FF91F7B
:102E80008081089580E008950F931F93CF93DF937F
:102E90008C01C0E0D0E0F801EC0FFD1F64916623C7
:102EA00071F0E091E302F091E4020190F081E02DF5
:102EB00083EE92E00995892B11F02196ECCFCE019B
:102EC000DF91CF911F910F910895E091E302F0916E
:102ED000E4020190F081E02D682F83EE92E00994E6
:102EE000CF92DF92EF92FF92CF93DF93611571053E
:102EF00089F4E091E302F091E4020190F081E02D89
:102F0000682F83EE92E0DF91CF91FF90EF90DF90FA
:102F1000CF9009946C01990FEE08FF086A30710593
:102F2000D9F4F7FE17C08DE20E946517EC01662701
:102F30007727CB016C197D098E099F094AE00E9411
:102F4000D8168C0F9D1FDF91CF91FF90EF90DF90EF
:102F5000CF9008954AE001C0462FC701B601DF9126
:102F6000CF91FF90EF90DF90CF900C94D816CF9335
:102F7000DF930E944417EC018FE591E00E946916EF
:102F80008C0F9D1FDF91CF910895CF93DF93682F12
:102F900070E080E090E04AE00E94D816EC018FE5F6
:102FA00091E00E9469168C0F9D1FDF91CF910895CB
:102FB0000F931F93CF9310922D04882309F4A1C07F
:102FC00090912904992309F49CC0C82F492F50E0FF
:102FD000282F30E024173507A4F0981758F483EB16
:102FE00093E00E9444178BEA93E00E9444178C2FD1
:102FF0000E94C5178AE893E0CF911F910F910C941E
:10300000E11480911F04482F50E04217530708F441
:103010006EC0B90176956795B62F2417350739F438
:1030200010929F0310921E0410921F043BC0409107
:103030001E04C0FF3DC00FE913E0A62FAB1B6417B1
:1030400098F4E62FF0E0E657FC4F2689522F529570
:103050005F70958970E1979F90011124252BF801ED
:1030600021938F016F5FE9CF80FD0CC0B0E0A657C0
:10307000BC4FE62FF0E0E657FC4F95899295907F84
:1030800055969C938C1B80931F04482F50E09A0107
:103090002150310937FD9A013595279520931E045B
:1030A00080FD02C087E001C083E08093200411C04E
:1030B000461B40931E0450E04F5F5F4F61567C4FAC
:1030C0008FE993E00E94D62C80911F048C1B809383
:1030D0001F0481E080932D0480911F0480932904B4
:1030E00081110FC010923A04109239040AC084E78B
:1030F00092E00E942D178C2FCF911F910F910C946D
:10310000C517CF911F910F9108959091D3024091CF
:10311000D2029730A9F4442399F0E091D1026E2FA6
:1031200070E02091D60230E0215031096217730718
:10313000A4F5EF5FE093D102F0E0E156FD4F10827D
:103140005091D402652F70E0292F30E02F5F3F4F60
:10315000261B370B1216130624F401C0880F2A957C
:10316000EAF7E091D102F0E0E156FD4F2081822B99
:1031700080834F5F4093D202292F092E000C330B1E
:10318000261B370B37FD04C0951B9093D30203C059
:1031900087E08093D30281E0089580E00895CF9383
:1031A000DF93CDB7DEB7C858D1090FB6F894DEBFAC
:1031B0000FBECDBF789484B5826084BD84B5816034
:1031C00084BD85B5826085BD85B5816085BD8091F2
:1031D0006E00816080936E0010928100809181006A
:1031E0008260809381008091810081608093810062
:1031F000809180008160809380008091B100846024
:103200008093B1008091B00081608093B000809184
:103210007A00846080937A0080917A008260809343
:103220007A0080917A00816080937A0080917A00A0
:10323000806880937A001092C100E091F302F091CF
:10324000F40282E08083E091F302F091F4021082B4
:10325000E091EF02F091F0021082E091F102F09122
:10326000F20280E180831092FB02E091F702F0917C
:10327000F80286E08083E091F502F091F602808109
:1032800080618083E091F502F091F6028081886090
:103290008083E091F502F091F6028081806880835E
:1032A000E091F502F091F60280818F7D808380E4C9
:1032B00091E00E94B7175298219A259A239A249850
:1032C000229A80E58CBD53982A9A2D9A2B9880E0FB
:1032D00090E00E942D15833339F481E090E00E9444
:1032E0002D158D3209F434C76FEB8FEF90E00E94FB
:1032F0002B1560E580EF90E00E942B1563E082EFD4
:1033000090E00E942B156BE183EF90E00E942B155B
:1033100068E584EF90E00E942B1560E081EF90E07B
:103320000E942B1588E690E00E94B71763E380E0C7
:1033300090E00E942B156DE281E090E00E942B1539
:103340000E943D158FEF90E00E942D15982F9170EF
:1033500090938D0381FB992790F990938B0382FBC7
:10336000992790F990938C0383FB992790F9909378
:103370008E0384FB992790F990938F0385FB9927FF
:1033800090F99093020186FB882780F9809390033F
:1033900080EF90E00E942D158093030182EF90E072
:1033A0000E942D158093910383EF90E00E942D15CC
:1033B000182F84EF90E00E942D15212F110F330B51
:1033C000322F2227280F311D309395032093940329
:1033D00081EF90E00E942D1580935404811103C069
:1033E00081E18093540488E391E00E9444170E9495
:1033F000F61560E881EF0E949315182F8FEF810F6B
:103400008E3F38F087E291E00E94441710928402C8
:1034100007C083E291E00E94441781E08093840218
:103420008BE191E00E9444176AE070E0812F0E94D6
:1034300019178FE091E00E94441760E880EF0E9426
:1034400093150E94C517809184021E821D828823D5
:1034500099F087EB90E19C838B838B819C81AD817C
:10346000BE818093580490935904A0935A04B0935A
:103470005B048EE995E112C087EB90E19C838B831E
:103480008B819C81AD81BE818093580490935904B7
:10349000A0935A04B0935B0489EB90E19093570496
:1034A00080935604539A80918F03882321F08DEFE7
:1034B00090E00E94B71762E370E080E090E00E9425
:1034C000561280E1809381001092800082E0809308
:1034D000890288E199E7909388028093870290930C
:1034E00087008093860082E1809381008BEE92E1D9
:1034F00090937F0280937E0281E080936F0060EF63
:1035000070E084E893E00E94E710809184028111CA
:1035100009C00E94E31580918F03882399F08CEEF7
:1035200090E00EC060E888E00E949315823331F489
:1035300060E880E00E9493158D3059F387EA90E0AF
:103540000E94B7179E012F5F3F4F4901BE01655989
:103550007F4FE1967FAF6EAFE1978DE0861BCC5732
:10356000DF4F8883C458D04080918602882309F4B5
:1035700018C41092860280E090E00E942F178035D8
:1035800049F480E291E00E947B168BEC97E0019772
:10359000F1F7FAC38F3309F054C00E94651784E72E
:1035A00092E00E94441786E50E94651780E20E941F
:1035B000651782E50E94651780E20E94651784E71F
:1035C0000E94651780E20E94651788E50E946517D2
:1035D00080E20E94651786E40E94651780E20E94DF
:1035E000651783E50E94651780E20E94651780E5F4
:1035F0000E94651780E20E94651783E40E946517A8
:1036000080E20E94651782E70E94651780E20E94AF
:10361000651787E50E94651780E20E946517809113
:103620008402882309F438C388E70E94651780E282
:103630000E94651785E60E94651780E20E94651763
:103640002BC3863579F483E291E00E942D17809197
:103650008402882321F08CE692E00E9444178CE3D8
:1036600091E01CC3823531F58091280590912905A0
:10367000009711F48CE295E06401C81AD90A0D2C68
:10368000000CEE08FF08F7FE0BC08DE20E946517E4
:1036900066277727CB016C197D098E099F09A4C184
:1036A0004AE0C701B6010E94D8168FE591E00E945A
:1036B00069166AC3833509F061C10E94B415C12C33
:1036C000D12C1FEF00E021E0E2962FAFE29731E02E
:1036D000EE963FAFEE97B4E17B2E8AE0682E62E66D
:1036E00071E0CE018B599F4F0E94C41180918803D5
:1036F00090918903C816D90698F4E0908403F0905D
:103700008503A7966EAD7FADA797C7018C0D9D1D54
:103710000E94F82C009721F05C01AE18BF0803C08E
:10372000AA24AA94BA2CCE018B599F4F0E94BF1194
:10373000FFEFAF16BF0611F40C9421252FEFC21630
:10374000D20611F40C942125C6010E942F17282FB0
:1037500080930101C6010196C857DF4F2883C858DE
:10376000D0400E942F17382F80930001C857DF4F99
:103770002881C858D040233529F12035D9F4C60115
:103780000296C957DF4F3883C758D0400E942F1781
:10379000C857DF4F2881C858D040C957DF4F3881FC
:1037A000C758D0408D3309F0E2C0760163E0E60EE1
:1037B000F11C0AC08D3309F0DAC0760172E0E70E21
:1037C000F11C02C0E12CF12C65018FEFC81AD80A58
:1037D0002335E9F4153009F4CAC0333409F4C3C001
:1037E0003D3449F41F5FF401719EE00DF11D112479
:1037F00081E0828374CF323509F071CF1F5FF4010D
:10380000719EE00DF11D112482E08283ACC0203551
:1038100081F5A70141505109B70162507109CE01EC
:103820008B599F4F0E948916CE018B599F4F0E9442
:10383000BD10B62ECE018B599F4F0E94BF1167E07D
:103840006B1508F494C0B701CE018B599F4F0E94AD
:10385000CB16CE018B599F4F0E94BD10619EF00187
:103860001124EB0DF11D3396EE0FFF1FE80DF91D2E
:103870002EC0223579F4B701CE018B599F4F0E949B
:10388000CB16CE018B599F4F0E94BD10EE966FAFA5
:10389000EE971FC0243449F4F401719EE00DF11D30
:1038A0001124E382B582A4821ACF2334C1F4B70174
:1038B000CE018B599F4F0E94CB16CE018B599F4F43
:1038C0000E94BD10F401719EE00DF11D1124718361
:1038D0006083CE018B599F4F0E94BF1100CF2634C9
:1038E00009F0FDCEC6018E199F0997FD01969595A9
:1038F0008795082F8150853008F0F1CE80918402A1
:10390000882309F4ECCECE0185599F4F5C01CC573A
:10391000DF4F3880C458D0403A0C60E8832D0E94B5
:103920009315D5018D935D01C7010E942F170E9449
:103930003D16282E229450EF2522C70101960E94A1
:103940002F170E943D16622D680F832D0E947F1550
:10395000B2E0EB0EF11C8A2DE096EFADE0978E1BE6
:103960008017A8F2BCCEE2961FAEE297B8CE8EE5E5
:1039700091E00E9444170E94E3158EC18437B1F58F
:103980008FB7F894C0908002D0908102E0908202BC
:10399000F09083028FBFC701B60128EE33E040E00C
:1039A00050E00E94A42BCA01B90100918C02109131
:1039B0008D0220918E0230918F02C016D106E20650
:1039C000F30650F420918A0230918B022F5F3F4F13
:1039D00030938B0220938A02C0928C02D0928D0287
:1039E000E0928E02F0928F024AE05DCE883591F42B
:1039F00081E090E00E942F17813511F40E94B415E8
:103A000081E090E00E942F17853409F0BDC10E942B
:103A1000E315BAC1863409F4B7C1833409F088C00C
:103A200081E090E00E942F17182F873409F07AC0A8
:103A30008AEC91E00E94441780918D036AE070E067
:103A400090E00E94701785EC91E00E9444178091ED
:103A50008B036AE070E090E00E94701780EC91E0C8
:103A60000E94441780918C036AE070E090E00E940D
:103A7000701789EB91E00E94441780918E036AE0F1
:103A800070E090E00E94701780910201811104C0E3
:103A900082EB91E00E94441780919003882321F0EB
:103AA00089EA91E00E94441780EA91E00E9444175D
:103AB00080918F036AE070E090E00E94701788E9BF
:103AC00091E00E9444176AE070E0809191030E94A7
:103AD000191788E891E00E9444176091940370914F
:103AE000950380E090E04AE00E94D816809154044B
:103AF000813151F08AE791E00E9444176AE070E05A
:103B0000809154040E94191780918F03882309F42F
:103B1000C3C08AE691E00E9444176AE070E0809199
:103B200003015BC08CEB810F823008F059C0D5C017
:103B3000873509F0B6C081E090E00E942F17182F5A
:103B4000833509F04AC482E090E00E942F17833346
:103B500009F043C480918402882309F43EC483E0C1
:103B600090E00E942F17182F082E000C990B0E942E
:103B7000C12C892B09F408C1812F0E943D1610E346
:103B8000180F1E3308F000C1812F0E94A215F82ED5
:103B900061E070E080E090E00E9456128DE30E94A8
:103BA000A215082F8BEF91E00E944417812F0E94ED
:103BB0002F168EEE91E00E94441760E170E08F2D89
:103BC00082958F700E94191785EE91E00E9444172C
:103BD00060E170E0802F82958F700E9419175CC0A1
:103BE000133509F4BAC2812F110F990B0E94C12C11
:103BF000892B09F473C382E090E00E942F17082EEE
:103C0000000C990B0E94C12C892B09F467C3809189
:103C10008402882309F462C381E00E945116182FA0
:103C200083E090E00E942F178E3669F484E090E0E4
:103C30000E942F17082F082E000C990B0E94C12CF0
:103C4000892B09F0A3C31E3308F44BC31E3309F0BC
:103C50005EC38EED91E00E9444172A981C99FECF16
:103C60008EEF0E9462158401740188E0D82ED80C72
:103C700080E00E946215F70181937F01DE12F8CF88
:103C80002A9AD8018D918D010E942F1688ED91E01E
:103C90000E942D17D012F5CF81E691E00E947B168D
:103CA00073C0823709F0D7C381E090E00E942F17DC
:103CB000082E000C990B0E94C12C892B09F447C4D3
:103CC00082E090E00E942F17082E000C990B0E94B2
:103CD000C12C892B09F000C43AC482E090E00E9414
:103CE0002F17833511F40C94DD26853511F40C94CF
:103CF000C526833411F40C94C926823511F40C9432
:103D0000CD26843411F40C94D1268C3411F40C9407
:103D1000D526863411F00C94D926E0E9F3E0153469
:103D200011F00C94E12681E0808360918D03962F41
:103D3000906860918B03660F692B90918C03E4E08F
:103D40009E9FC0011124682B90918E0328E0929FC2
:103D5000F00111246E2B90918F0330E1939FA0010D
:103D60001124642B9091020170E2979F900111241D
:103D7000622B90919003A0E49A9FC0011124682BBC
:103D80008FEF90E00E942B1580918602811106C072
:103D900061E671E084E893E00E94391181E080934C
:103DA00085021092960303E0A02EB12C07E08091CB
:103DB0005D04882309F4C9C180915D04815080931A
:103DC0005D0480915F0460915C040E94702B90936D
:103DD0005F04E0915F0481E08E0F80935F04F0E068
:103DE000EE0FFF1FE05AFB4F80819181909391026B
:103DF0008093900210922C04609129046623E9F0CC
:103E000070E0615071098FE993E00E943F14809146
:103E1000240490E0880F991F815C9B4F90933A0493
:103E200080933904E0913704F091380480819181C6
:103E3000909328048093270404C010923A041092AF
:103E400039044091900250919102E0913704F09131
:103E500038045183408380912904882361F0E091E4
:103E60003904F0913A04309731F0208131812427D0
:103E7000352737FF03C04115534834F580E00E94D1
:103E80001002809129048111F9CF10923A04109206
:103E900039048091910380939203109293032091AF
:103EA0005004E0913704F091380480819181E22F31
:103EB000F0E0EE0FFF1FE15CFB4F918380832F5FEB
:103EC0002093500410E0F7C08E3F50F081E00E9434
:103ED000100240E060E08AE893E00E947F1432C064
:103EE000883281F5B0923204A09231048091560458
:103EF00090915704009751F420915804309159043F
:103F0000232B21F420915A0420FF1CC0E091580477
:103F1000F091590440915A0450915B049A013595EF
:103F2000279540FF0AC0DC01A20FB31F4D915C91A1
:103F3000E40FF51F0190F081E02D820F931F09958A
:103F400080935504C0903704D0903804D601ED908A
:103F5000FC90B701F7FE04C0662777276E197F092A
:103F6000072E000C880B990B0E94D5282DEC3CECF9
:103F70004CE45EE30E9434290E94372BAB0170931E
:103F8000300460932F0470904F04EFE3F4E080E07E
:103F900090E0182F871500F521913191B9016E2518
:103FA0007F2577FD17C021153105A1F0DC01A6574B
:103FB000BC4F1D966C91662369F02701421A530A83
:103FC000920157FE03C031952195310942175307DD
:103FD0000CF0C7C20196DDCFB8E07B1247C0E0917C
:103FE0005004F0E0E657FC4F8585833080F08091E7
:103FF000310490913204181619064CF481E00E94A5
:10400000100240E060E08AE893E00E947F14109183
:104010002904112359F11150E0915004F0E0E657C2
:10402000FC4F8585882311F1612F70E08FE993E0C3
:104030000E943F14909124048091500498130BC067
:1040400081E0810F0E94D81740E060E08AE893E0A9
:104050000E947F140BC01130F1F6809129048E3F2D
:10406000D0F289E093E00E94B717D5CF10915004A9
:10407000E0913704F091380480819181E12FF0E0E4
:10408000EE0FFF1FE15CFB4F9183808381E0810F86
:10409000883019F08093500406C010925004809329
:1040A0004F04109252048091500490914F0498173D
:1040B00010F480934F04312F8091200490911F04BD
:1040C0008730B1F49923A1F0E0911E046E2F70E0C7
:1040D0004091230450E041505109641775070CF0DA
:1040E000A3C2EF5FE0931E04F0E0E657FC4F158A91
:1040F00020912104422F50E0682F70E06F5F7F4FC6
:10410000641B750B161617062CF4312F01C0330FE4
:104110006A95EAF7E0911E04F0E0E657FC4F6589E6
:10412000362B358B9F5F90931F04682F082E000C51
:10413000770BFB01E41BF50BF7FD04C0821B80939A
:10414000200438C20093200435C20E94B9110CCA61
:104150008CE890E00E94B717F5C848E050E062E0B4
:1041600070E0C4010E9489166EE771E0C4010E94EC
:10417000C810182FC4010E94BF111123C1F068E0BC
:1041800070E0C4010E94CB16C4010E94BD10609370
:104190005404C4010E94BF116091540481EF90E067
:1041A0000E942B156AE070E08091540429C048E019
:1041B00050E062E070E0C4010E94891665E871E099
:1041C000C4010E94C810182FC4010E94BF111123FE
:1041D000D1F068E070E0C4010E94CB16C4010E94D7
:1041E000BD1060939103C4010E94BF1160919103BF
:1041F00082EF90E00E942B156AE070E080919103BD
:104200000E94191768C04CE050E062E070E0C40101
:104210000E9489166CE871E0C4010E94C810182F32
:10422000C4010E94BF11112301F16CE070E0C401D0
:104230000E94CB16C4010E94BD1060930301C4010B
:10424000CB57DF4F6883C558D0400E94BF11CB5772
:10425000DF4F6881C558D04080EF90E00E942B1559
:104260006AE070E080910301CBCF4BE050E062E068
:1042700070E0C4010E94891667E971E0C4010E94E0
:10428000C810182FC4010E94BF11112321F16BE047
:1042900070E0C4010E94CB16C4010E94BD1070934F
:1042A000950360939403C4010E94BF11609195032C
:1042B00083EF90E00E942B156091940384EF90E0CF
:1042C0000E942B15609194037091950380E090E01B
:1042D0004AE00E94D8168EEC91E03BC188E592E05E
:1042E00038C11F3210F460E801C060EC812F0E94D9
:1042F0009315082F86E192E00E942D17812F0E94CE
:104300002F1681EA91E00E942D17802F3CC01939A9
:1043100009F03ACD10E0112341F0103111F01032C4
:1043200079F488ED91E00E942D1787ED91E00E94CD
:104330004417812F0E942F1684ED91E00E944417AC
:1043400060E8812F0E9493150E942F1688ED91E05E
:104350000E942D171F5F1F32F1F69ECC80918402C0
:10436000882309F411CD8EEF800F8E3308F00CCD29
:10437000612F0E947F1585EA91E00E942D17802F02
:104380000E942F16812F0E942F1686CC802F0E940C
:104390003D16082F1F3208F0F7CC86E192E00E940C
:1043A0002D17812F0E942F1688EB91E00E942D1768
:1043B0000E5F802F0E942F1683E392E00E942D173C
:1043C000F12CF01608F068CC60E88F2D810F0E9468
:1043D00093150E942F16F394F4CF812F110F990B90
:1043E0000E94C12C892BA1F182E090E00E942F173E
:1043F000082E000C990B0E94C12C892B49F183E0F7
:1044000090E00E942F17082E000C990B0E94C12CDF
:10441000892BF1F084E090E00E942F17082E000C09
:10442000990B0E94C12C892B99F081E00E945116B2
:10443000082F83E00E945116182F682F802F90E0DC
:104440000E942B15003F09F089CF109303019CCCEB
:1044500084E492E07EC0883709F073C081E090E088
:104460000E942F17082E000C990B0E94C12C892B3B
:1044700009F46DC082E090E00E942F17082E000C16
:10448000990B0E94C12C892B09F461C08091840290
:10449000882309F45CC081E00E945116F82E00E3E5
:1044A00010E0013321F46F2D81E390E002C060E061
:1044B000C8010E942B150F5F1F4F0833110589F7A4
:1044C0000E9468158EE292E00E9444178F2D0E9490
:1044D0002F158DE192E03DC081E00E945116082F1A
:1044E0008CE392E00E944417802F0E942F1583E0F6
:1044F00090E00E942F1710E08E36C9F489E392E015
:104500000E944417E12CF12C88ED91E00E942D17B8
:10451000C701800F911F0E942D150E942F15BFEF1C
:10452000EB1AFB0AE0E1EE16F10471F7B5CB85E377
:1045300092E00E944417C8010E942D150E942F1579
:10454000ABCB853621F480918402811105C089E0CE
:1045500092E00E94B71718CC0E943D150E94F615F4
:1045600013CC17FD39CD812F880F990B9C01215C4D
:104570003B4F7901D9016D917C91AB01770F660BAF
:10458000770BF60180819181092E000CAA0BBB0BE1
:104590002A013B01480E591E6A1E7B1EC301B2014F
:1045A00022E030E040E050E00E94C62BD7012D937E
:1045B0003C9381CD809129048F5F80932904E09101
:1045C0003704F09138048081918190932604809380
:1045D0002504E12F110FFF0BE657FC4F85858F5FF8
:1045E000858780918F03882389F0809196038823A3
:1045F00069F010915D0480910301811738F488E11E
:1046000093E00E944417812F0E94C5178091960362
:10461000882339F080910201882319F081E080938A
:10462000850210929603C3CB84E093E00E94441766
:104630006AE070E0812F0E9419178AEF92E00E94D1
:1046400044176AE070E080911E040E94191786EEFC
:1046500092E00E94B71782EF91E00E942D17E0913F
:104660005104E7FDDBC0EE0FFF0BE15CFB4F6AE09E
:1046700070E0808191810E94701787EA91E00E942A
:104680002D17E0915104EE0FFF0BE15CFB4F6081B1
:104690007181072E000C880B990B0E94D5286B01A5
:1046A0007C01E0918A03EE0FFF0BE15CFB4F608120
:1046B0007181072E000C880B990B0E94D5289B0155
:1046C000AC01C701B6010E94BE2A6B017C012B011F
:1046D0003C019B01AC010E946B2B882319F086EBF7
:1046E00091E021C0C701B6019F77E5966CAF7DAF21
:1046F0008EAF9FAFE5972FEF3FEF4FE75FE70E9449
:104700006B2B811113C02FEF3FEF4FE75FE7E5966B
:104710006CAD7DAD8EAD9FADE5970E94CE2818168D
:104720002CF48AEB91E00E94691674C02FEF3FEFE2
:104730004FE75FE4C701B6010E94662B18161CF410
:104740008EEB91E0F0CF2FEF3FEF4FE75FECC7012B
:10475000B6010E94CE2887FDF3CF20E030E0A9010A
:10476000C701B6010E94CE2887FF09C08DE20E94D2
:1047700065172601370177FA709477F870942AE06C
:1047800037ED43EA5BE3C301B2010E94522A2B01D9
:104790003C010E94372B6B017C010E94D3289B01B6
:1047A000AC01C301B2010E94512A2B013C014AE035
:1047B000C701B6010E94D8168EE20E94651720E05C
:1047C00030E040E251E4C301B2010E9434296B01A0
:1047D0007C010E94372B2B01612C712C4AE0C30114
:1047E000B2010E94D816C301B2010E94D3289B01D6
:1047F000AC01C701B6010E94512A20E030E040E23E
:1048000051E40E9434290E94372B80E090E04AE076
:104810000E94D81682EC91E00E942D1784EC91E062
:104820000E942D17E0918A03E7FD0BC0EE0FFF0BEE
:10483000E15CFB4F6AE070E0808191810E9470171B
:1048400004C08DEC91E00E942D178AED92E00E9449
:1048500044176AE070E080914F040E94191782EDBE
:1048600091E00E942D176AE070E0809150040E9450
:10487000191785ED91E00E942D1786EC92E00E94B9
:104880004417E0913704F09138046AE070E08081C9
:1048900091810E94701787ED91E00E942D17E091A1
:1048A0003904F0913A046AE070E0808191810E94BD
:1048B000701787ED91E00E942D176AE070E08091FB
:1048C0002504909126040E94701787ED91E00E94C4
:1048D0002D176AE070E080912704909128040E94CF
:1048E00070178BEB92E00E9444176AE070E08091B1
:1048F0002A040E94191782EB92E00E9444176AE092
:1049000070E080912B040E94191787EA92E00E94C0
:1049100044176AE070E080911F040E9419178FE924
:1049200092E00E944417809152046AE070E090E0A7
:104930000E94701784E992E00E94441780912D0430
:104940006AE070E090E00E9470178AE892E00E94AE
:1049500044176AE070E080913104909132040E9423
:1049600070178FE591E00E94691681E892E00E943D
:104970004417F12C80912904F81688F46F2D70E00B
:104980008FE993E00E943F14809124046AE070E074
:10499000082E000C990B0E947017F394EBCF8AED50
:1049A00091E00E942D178DED91E00E942D176AE095
:1049B00070E0809129040E94191780EE91E00E9416
:1049C0007B1682EE91E00E942D17F12C80914F040E
:1049D000F81670F58CEE91E00E942D176AE070E0F9
:1049E0008F2D0E94191786EF91E00E942D17CF2C72
:1049F000D12CF601E657FC4F6AE070E085850E94F5
:104A000019178FEE91E00E942D17F601EE0FFF1F90
:104A1000E15CFB4F80819181009721F06AE070E0BA
:104A20000E94701780EE91E00E942D17F394CECF74
:104A300081E691E00E947B1681E691E00E947B1660
:104A4000BECD80918402882349F18BE30E94A21598
:104A50000E94AB159EEF9F3F09F185E3CB57DF4FD7
:104A60009883C558D0400E94A215CB57DF4F98813C
:104A7000C558D040FF24FA94F90E8077803241F077
:104A800061E070E080E090E00E9456129F2DE3CF3D
:104A9000911104C084E691E00E947B16C12CEE9631
:104AA0004FACEE97C41409F435C1D12C4D2C512CC8
:104AB000E7965FAE4EAEE79724E1D29E1001112437
:104AC000F401E20DF31D8281823089F084E1E796E2
:104AD0004EAC5FACE797849DF001859DF00D1124ED
:104AE000E80DF91D8281813009F079C052C026E0BD
:104AF000220E311C2401420C531CE9965FAE4EAECF
:104B0000E99764807580ED967FAE6EAEED97E38099
:104B10000E9431121B012C01F12CED966EAC7FAC82
:104B2000ED976E147F0468F1C7010E942F17805320
:104B3000E996EEADFFADE997E80FF11DE80FF11D25
:104B400060807180530177FE04C0AA24BB24A6189C
:104B5000B7080E9431126215730584059505C8F3E4
:104B600077FE02C05B9801C05B9AC501BB0CAA0B23
:104B7000BB0B280E391E4A1E5B1E2FEFE21AF20AEB
:104B8000CCCF0E9431126215730584059505C8F3D8
:104B90009DCFA080B1807480EC967FAEEC97F380BF
:104BA0000E9431122B013C01B501BB0C880B990B03
:104BB000EB966CAF7DAF8EAF9FAFEB97660F771F15
:104BC000881F991FC258DF4F688379838A839B832C
:104BD000CE57D040EC962FADEC972F1530F45B9864
:104BE000D3941D1508F062CF88C08F2D90E00E94ED
:104BF0002F178A3314F097E301C090E3891B94E0E8
:104C0000292E312C28E0E22E282F880F330BCE5787
:104C1000DF4F39832883C258D040A3019201E69622
:104C20001FAEE697AE2CB12CCE57DF4F888199810D
:104C3000C258D040A822B922A114B10409F447C037
:104C40005B98EB968CAD9DADAEADBFADEB97280FED
:104C5000391F4A1F5B1FC857DF4F2883C858D040F1
:104C6000C957DF4F3883C758D040CB57DF4F4883F1
:104C7000C558D040CA57DF4F5883C658D0400E940D
:104C80003112C857DF4F2881C858D040C957DF4F6D
:104C90003881C758D040CB57DF4F4881C558D040E6
:104CA000CA57DF4F5881C658D04062177307840730
:104CB000950788F2E6969FADE697913051F061E056
:104CC000E6966FAFE697A114B10409F4B9CF5B9AE9
:104CD000B8CFC258DF4F688179818A819B81CE57D6
:104CE000D040460E571E681E791EE69471E0271AC2
:104CF000310809F092CFF3946DCFE2963FADE29781
:104D0000332331F061E070E080E090E00E945612C1
:104D1000C394C5CE40918803509189036091840368
:104D20007091850383EE92E00E94B50F002311F489
:104D30000C94BB1C8CE491E00E9444179E01255901
:104D40003F4F79011CE0E0963FADE097131B8E2D9D
:104D5000E096BFADE0978B1B801710F00C94BB1C46
:104D6000D7016D917D01862FCB57DF4F6883C558E2
:104D7000D0400E942F15CB57DF4F6881C558D040D7
:104D8000812F8E0D0E947F15E2CFEBE8F3E00C94AB
:104D90008F1EECE8F3E00C948F1EEEE8F3E00C9429
:104DA0008F1EEFE8F3E00C948F1EE2E0F1E00C942C
:104DB0008F1EE0E0F0E00C948F1EEDE8F3E00C9421
:104DC0008F1E10820C94951E84E893E00C94BF1102
:104DD000CF93DF93E3EEF2E01382128288EE93E04A
:104DE000A0E0B0E084839583A683B78382E191E05D
:104DF0009183808385EC90E09587848784EC90E0B4
:104E00009787868780EC90E0918B808B81EC90E097
:104E1000938B828B82EC90E0958B848B86EC90E078
:104E2000978B868B118E128E138E148EECE5F4E028
:104E300084E68083118213821282CAE8D3E08FE76E
:104E40008093230484E0809321041D8A10921E0421
:104E500010921F0487E08093200480EF8093220447
:104E6000E3E3F4E0F0933804E093370485E394E05F
:104E700090933A0480933904109257041092560488
:104E8000109259041092580410925B0410925A0424
:104E900011821082CE010E94E11481E180935404BA
:104EA0001886198661E671E084E893E00E94C411D7
:104EB0000E94311260938003709381038093820378
:104EC00090938303DF91CF910895CF93DF93823046
:104ED000910510F482E090E0E0912A05F0912B0515
:104EE00020E030E0C0E0D0E0309711F14081518106
:104EF00048175907C0F04817590761F48281938118
:104F0000209719F09B838A832BC090932B05809365
:104F10002A0526C02115310519F04217530718F448
:104F20009A01BE01DF01EF010280F381E02DDCCFA9
:104F30002115310509F1281B390B2430310590F476
:104F400012968D919C9113976115710521F0FB01CB
:104F50009383828304C090932B0580932A05FD01DF
:104F6000329644C0FD01E20FF31F819391932250CA
:104F700031092D933C933AC02091280530912905A1
:104F8000232B41F420910A0130910B013093290524
:104F90002093280520910801309109012115310540
:104FA00041F42DB73EB740910C0150910D01241BE7
:104FB000350BE0912805F0912905E217F307A0F4DD
:104FC0002E1B3F0B2817390778F0AC014E5F5F4F5F
:104FD0002417350748F04E0F5F1F50932905409363
:104FE00028058193919302C0E0E0F0E0CF01DF91CA
:104FF000CF9108950F931F93CF93DF93009709F4F8
:105000008CC0FC0132971382128200912A05109104
:105010002B050115110581F420813181820F931F29
:1050200020912805309129052817390779F5F09343
:105030002905E093280571C0D80140E050E0AE1783
:10504000BF0750F412962D913C911397AD01211595
:10505000310509F1D901F3CF9D01DA0133832283B0
:1050600060817181860F971F8217930769F4EC01A5
:1050700028813981260F371F2E5F3F4F31832083D0
:105080008A819B8193838283452B29F4F0932B059E
:10509000E0932A0542C01396FC93EE931297ED011C
:1050A000499159919E01240F351FE217F30771F4BE
:1050B00080819181840F951F029611969C938E9307
:1050C0008281938113969C938E931297E0E0F0E097
:1050D000D80112968D919C911397009719F0F801C1
:1050E0008C01F6CF8D919C9198012E5F3F4F820FDE
:1050F000931F20912805309129052817390769F455
:10510000309729F410922B0510922A0502C01382C1
:1051100012821093290500932805DF91CF911F91EA
:105120000F9108951F93FC0199278827BC01E894EB
:1051300011911032E9F3193010F01E30C8F31B3210
:1051400051F01D3249F4689406C00E94B928610FDD
:10515000711D811D911D119110531A30B0F33EF451
:1051600090958095709561957F4F8F4F9F4F1F91C0
:105170000895592F482F372F262F660F771F881F26
:10518000991F660F771F881F991F620F731F841F57
:10519000951F660F771F881F991F08950E94102979
:1051A00008F481E00895E89409C097FB3EF49095D7
:1051B0008095709561957F4F8F4F9F4F9923A9F0F0
:1051C000F92F96E9BB279395F6958795779567957F
:1051D000B795F111F8CFFAF4BB0F11F460FF1BC0C3
:1051E0006F5F7F4F8F4F9F4F16C0882311F096E956
:1051F00011C0772321F09EE8872F762F05C0662304
:1052000071F096E8862F70E060E02AF09A95660FBC
:10521000771F881FDAF7880F9695879597F9089575
:10522000990F0008550FAA0BE0E8FEEF16161706B7
:10523000E807F907C0F012161306E407F50798F01F
:10524000621B730B840B950B39F40A2661F0232B38
:10525000242B252B21F408950A2609F4A140A695B4
:105260008FEF811D811D08950E9447290C94BB2951
:105270000E94AD2938F00E94B42920F0952311F046
:105280000C94A4290C94AA2911240C94EF290E94AF
:10529000CC2970F3959FC1F3950F50E0551F629F85
:1052A000F001729FBB27F00DB11D639FAA27F00D7F
:1052B000B11DAA1F649F6627B00DA11D661F829FA6
:1052C0002227B00DA11D621F739FB00DA11D621F8B
:1052D000839FA00D611D221F749F3327A00D611DA8
:1052E000231F849F600D211D822F762F6A2F11248A
:1052F0009F5750409AF0F1F088234AF0EE0FFF1FBD
:10530000BB1F661F771F881F91505040A9F79E3F13
:10531000510580F00C94A4290C94EF295F3FE4F32D
:10532000983ED4F3869577956795B795F795E79569
:105330009F5FC1F7FE2B880F911D9695879597F972
:10534000089599278827089597F99F6780E870E066
:1053500060E008959FEF80EC089500240A941616EB
:10536000170618060906089500240A941216130653
:10537000140605060895092E0394000C11F48823E1
:1053800052F0BB0F40F4BF2B11F460FF04C06F5FFD
:105390007F4F8F4F9F4F089557FD9058440F551FD3
:1053A00059F05F3F71F04795880F97FB991F61F0A7
:1053B0009F3F79F087950895121613061406551F1E
:1053C000F2CF4695F1DF08C0161617061806991F8A
:1053D000F1CF86957105610508940895E894BB277F
:1053E00066277727CB0197F90895F999FECF92BDEB
:1053F00081BDF89A992780B50895262FF999FECF97
:105400001FBA92BD81BD20BD0FB6F894FA9AF99AE1
:105410000FBE019608952F923F924F925F926F9226
:105420007F928F929F92AF92BF92CF92DF92EF9234
:10543000FF920F931F93CF93DF93CDB7DEB7CA1BB5
:10544000DB0B0FB6F894DEBF0FBECDBF09942A88E0
:10545000398848885F846E847D848C849B84AA8488
:10546000B984C884DF80EE80FD800C811B81AA8115
:10547000B981CE0FD11D0FB6F894DEBF0FBECDBFE0
:10548000ED010895A29FB001B39FC001A39F700DCD
:10549000811D1124911DB29F700D811D1124911D3C
:1054A00008955058BB27AA270E94692A0C94BB294B
:1054B0000E94AD2938F00E94B42920F039F49F3FB2
:1054C00019F426F40C94AA290EF4E095E7FB0C9449
:1054D000A429E92F0E94CC2958F3BA176207730751
:1054E0008407950720F079F4A6F50C94EE290EF4C4
:1054F000E0950B2EBA2FA02D0B01B90190010C01E4
:10550000CA01A0011124FF27591B99F0593F50F4FB
:10551000503E68F11A16F040A22F232F342F442753
:10552000585FF3CF469537952795A795F04053954B
:10553000C9F77EF41F16BA0B620B730B840BBAF01B
:105540009150A1F0FF0FBB1F661F771F881FC2F786
:105550000EC0BA0F621F731F841F48F4879577959A
:105560006795B795F7959E3F08F0B0CF9395880F54
:1055700008F09927EE0F9795879508950E94D22AF3
:105580000C94BB290E94B42958F00E94AD2940F028
:1055900029F45F3F29F00C94A42951110C94EF29B0
:1055A0000C94AA290E94CC2968F39923B1F35523BE
:1055B00091F3951B550BBB27AA2762177307840726
:1055C00038F09F5F5F4F220F331F441FAA1FA9F3BC
:1055D00035D00E2E3AF0E0E832D091505040E695AA
:1055E000001CCAF72BD0FE2F29D0660F771F881F0B
:1055F000BB1F261737074807AB07B0E809F0BB0BFE
:10560000802DBF01FF2793585F4F3AF09E3F510511
:1056100078F00C94A4290C94EF295F3FE4F3983EB2
:10562000D4F3869577956795B795F7959F5FC9F7FA
:10563000880F911D9695879597F90895E1E0660F7B
:10564000771F881FBB1F621773078407BA0720F0F4
:10565000621B730B840BBA0BEE1F88F7E09508955D
:105660000E94372B6894B1110C94EF2908950E9481
:10567000D42988F09F5798F0B92F9927B751B0F0E7
:10568000E1F0660F771F881F991F1AF0BA95C9F7C6
:1056900014C0B13091F00E94EE29B1E008950C944D
:1056A000EE29672F782F8827B85F39F0B93FCCF300
:1056B000869577956795B395D9F73EF49095809543
:1056C000709561957F4F8F4F9F4F08950E941029CD
:1056D00008F48FEF08950E941029880B990B089504
:1056E000991B79E004C0991F961708F0961B881F34
:1056F0007A95C9F780950895AA1BBB1B51E107C095
:10570000AA1FBB1FA617B70710F0A61BB70B881F51
:10571000991F5A95A9F780959095BC01CD010895E0
:1057200097FB072E16F4009407D077FD09D00E944E
:105730007C2B07FC05D03EF4909581959F4F0895F2
:10574000709561957F4F0895A1E21A2EAA1BBB1B8D
:10575000FD010DC0AA1FBB1FEE1FFF1FA217B3073D
:10576000E407F50720F0A21BB30BE40BF50B661F53
:10577000771F881F991F1A9469F760957095809517
:1057800090959B01AC01BD01CF010895052E97FBBB
:105790001EF400940E94DD2B57FD07D00E94A42B1D
:1057A00007FC03D04EF40C94DD2B509540953095BA
:1057B00021953F4F4F4F5F4F08959095809570957D
:1057C00061957F4F8F4F9F4F08950E94422AB7FFE8
:1057D0000895821B930B0895EE0FFF1F0590F4911F
:1057E000E02D0994A0E0B0E0E8EFFBE20C940F2A72
:1057F000EC01009721F4CB010E946527B8C0FC01A1
:10580000E60FF71F9C0122503109E217F30708F455
:10581000ACC0D9010D911C91119706171707B0F074
:105820000530110508F49FC0C80104978617970733
:1058300008F499C002501109061B170B019311932C
:105840006D937C93CF010E94FA278DC05B01A01A53
:10585000B10A4C01800E911EA0912A05B0912B0532
:1058600040E050E0E12CF12C109709F44AC0A81553
:10587000B905D1F56D907C901197630182E0C80E57
:10588000D11CCA14DB0480F1A3014A195B096A0127
:1058900082E0C80ED11C1296BC9012971396AC9160
:1058A000B5E0CB16D10440F0B282A383518340838C
:1058B000D9016D937C930AC00E5F1F4FC301800F07
:1058C000911FF90191838083EB2DFA2FE114F104EC
:1058D00031F0D7011396FC93EE93129744C0F093E6
:1058E0002B05E0932A053FC08D919C911197481795
:1058F000590708F4AC017D0112960D90BC91A02DC2
:10590000B3CF809128059091290588159905E1F478
:1059100046175707C8F48091080190910901009734
:1059200041F48DB79EB740910C0150910D01841B3D
:10593000950BE817F907C8F4F0932905E0932805BB
:10594000F901718360830FC0CB010E9465277C0140
:10595000009759F0A801BE010E94CD2CCE010E94F3
:10596000FA27C70104C0CE0102C080E090E0CDB7A5
:10597000DEB7EEE00C942B2A81E090E0F8940C94D2
:10598000B32F91110C94A12980538A5028F0865C82
:10599000806281568650B0F70895FB01DC0102C099
:1059A00001900D9241505040D8F70895681779073B
:1059B00068F4FB01DC01E40FF51FA40FB51F02C062
:1059C00002900E9241505040D8F708950C94CD2C7F
:1059D000FB01DC018D91019080190110D9F3990B25
:1059E0000895FB01DC0101900D920020E1F708957C
:1059F000FB0151915523A9F0BF01DC014D914517E1
:105A00004111E1F759F4CD010190002049F04D9189
:105A100040154111C9F3FB014111EFCF81E090E046
:105A200001970895AEE0B0E0E8E1FDE20C94192A98
:105A30000D891E8986E08C831A8309838FEF9FE787
:105A40009E838D83AE01475E5F4F6F89788DCE0157
:105A500001960E94352D2F813885F801E20FF31F42
:105A600010822E96E4E00C94352AACE0B0E0EBE333
:105A7000FDE20C940B2A7C016B018A01FC01178268
:105A80001682838181FFBDC1CE0101964C01F701D1
:105A90009381F60193FD859193FF81916F01882396
:105AA00009F4ABC1853239F493FD859193FF81915F
:105AB0006F01853229F4B70190E00E941D2FE7CFD6
:105AC000512C312C20E02032A0F48B3269F030F4DC
:105AD000803259F0833269F420612CC08D3239F064
