:100000000C94D0010C947B130C9454130C94F801B1
:100010000C94F8010C94F8010C94F8010C94F8017C
:100020000C94F8010C94F8010C94F8010C94F8016C
:100030000C94F8010C94FA130C94F8010C94F80148
:100040000C94421A0C94F8010C94C8130C94A2134B
:100050000C94F8010C94F8010C94F8010C94F8013C
:100060000C94F8010C94F80152656164696E672084
:1000700076616C7565732066726F6D206565707250
:100080006F6D00636331313031206973206E6F749E
:1000900020636F72726563746C79207365742E20AF
:1000A000506C6561736520646F20612066616374C4
:1000B0006F72792072657365742076696120636F51
:1000C0006D6D616E64206500726563656976657249
:1000D00020656E61626C6564005374617274696E50
:1000E000672074696D65726A6F6200206363506196
:1000F00072746E756D3D002063635665723D006FCE
:100100006B2E006E6F2043433131787820666F7517
:100110006E6421004343496E697420005573696E13
:100120006720734649464F006363726567207772A4
:10013000697465206261636B200073656E6420667C
:1001400061696C6564003B4D6465624669666F4C2D
:10015000696D69743D003B6D634D696E4269744C15
:10016000656E3D003B4D7553706C697454687265E3
:1001700073683D005F4D53636E743D003B4D646595
:100180006275673D003B4D754E6F4F766572666CCC
:100190006F773D31003B4C45443D30003B4D72652F
:1001A000643D003B4D433D003B4D553D004D533DAF
:1001B000003A200063637265672000433345203DA9
:1001C00020002064656C61793120002063686970CB
:1001D0005374617475732000636D645374726F623D
:1001E000655265672000556E737570706F72746527
:1001F0006420636F6D6D616E640020746F205041E8
:100200005441424C4520646F6E65005772697465B5
:100210002000203D2000203A00454550524F4D20FF
:1002200000636331313031200020557365206F6EDB
:1002300065206F6620005369676E616C3A20002C60
:100240002073746174653A20002C206D7472756E91
:10025000633A20002C204D43443A20002C20766144
:100260006C636E743A20002C206D656E643A200039
:100270002C206D53746172743A20002C2050756CE0
:1002800073653A20462F4C2F464C2F4C5020002CA3
:1002900020506174744C656E3A200020616464449F
:1002A000617461206F766572666C6F772121002022
:1002B00062797465636E743D0076616C3D00206DFB
:1002C00062206E6D20622070726F6320004D443D8D
:1002D000006D4F766572666C6F7726737461746516
:1002E0003D3021000D2E2D07D3913D043200000634
:1002F0000010B07157C43023B900070018146C0700
:100300000090876BF85611E92A001F410000000099
:1003100000250028002B0004040404040404040243
:100320000202020202030303030303010204081092
:10033000204080010204081020010204081020005F
:100340000000080002010000030407000000000094
:100350000000002900636D6420746F206C6F6E676D
:100360002120286D61782000496E697420656570D0
:10037000726F6D20746F2064656661756C747300B4
:100380002073746172743D0020627566664D6F76ED
:1003900065206F766572666C6F7721006B28672821
:1003A00011241FBECFEFD8E0DEBFCDBF12E0A0E02A
:1003B000B1E0E0EAF2E602C005900D92A439B1077F
:1003C000D9F725E0A4E9B2E001C01D92AF37B2072A
:1003D000E1F711E0CFECD1E004C02197FE010E94CB
:1003E0006E2DCE3CD107C9F70E948C1A0C94433174
:1003F0000C9400002F923F924F925F926F927F92E7
:100400008F929F92AF92BF92CF92DF92EF92FF9224
:100410000F931F93CF93DF93CDB7DEB7E9970FB656
:10042000F894DEBF0FBECDBF898F882321F081E015
:1004300080933A0402C010923A0490915F04209194
:1004400036048091A003911106C0283220F488233D
:1004500011F40C94210F1092390491E02E3F09F011
:1004600090E090933B0481111BC140E060E086E97D
:1004700093E00E945F14F12C2F2C312C80915C04AE
:1004800090E00197281639060CF00AC1F101EA56EE
:10049000FC4FCF010E962685F394222369F3EF2CAF
:1004A0009101220F331FA901445B5B4F59A348A35D
:1004B0009BA38AA35DA34CA380915C04E816E0F69D
:1004C0006E2D70E07F8F6E8F6A567C4F7D8F6C8FA4
:1004D000DB011E968C91882309F4E0C0E8A1F9A104
:1004E000C080D180EE8DFF8DEE0FFF1FE45BFB4FD0
:1004F00000811181C6018027912797FDCFC0809090
:10050000480490904904A0904A04B0904B04B8016C
:1005100017FF04C066277727601B710B072E000C9E
:10052000880B990B0E944C2AA50194010E94AB2ACA
:100530002B013C01B601D7FE04C0662777276C1952
:100540007D09072E000C880B990B0E944C2AA501EF
:1005500094010E94AB2A9B01AC01C301B2010E942D
:10056000D42B20E030E040E05FE30E94AB2A0E9401
:10057000B22C0C191D0917FF03C011950195110923
:10058000601771070CF48AC0D12CC12C0C8D1D8D05
:10059000025F1F4F80913604D81608F044C0D8017E
:1005A0008C91C81608F03FC06D2D70E08CEA93E086
:1005B0000E94211480913104E81233C080912E04EE
:1005C000482F50E0D89EC0011124FC0123E0F6958D
:1005D000E7952A95E1F720913004E21708F5877036
:1005E0009927FF27EA56FC4F20912F0430E0082E70
:1005F00002C0359527950A94E2F720953689232382
:1006000068E070E0641B750BDB01A81BB90BA1014E
:1006100002C0440F551FAA95E2F7CA01822B868BB0
:10062000C394D394B7CFAAA1BBA1CC90EC8DFD8D80
:10063000D684ECA1FDA1A081B1810E8D1F8D000F8C
:10064000111F045B1B4FF801A080B180EC2DF0E07E
:100650009F010E94672D2B013C014D2D50E09A0116
:10066000D5010E94672D640D751D861D971DE40F31
:10067000F51F9F01FF0F440B550B0E94482DACA1A5
:10068000BDA12D933C93DC0CEAA1FBA1D082AC8DE3
:10069000BD8D1E961C92F80111821082E3940CCF3E
:1006A00010923F0410923E0480919E038823F1F142
:1006B00010923704609137046A3070F570E06F5F14
:1006C0007F4F8CEA93E00E9421142091310430E0A6
:1006D00080915E04082E000C990B2817390711F041
:1006E0000C94280F6091370470E08CEA93E00E942C
:1006F00021142091310430E080919603082E000CE3
:10070000990B2817390711F00C94280F82E090E01C
:1007100090933F0480933E0480913E0490913F0467
:10072000892B09F095C010929E0304C080919F030D
:10073000882369F040E060E086E993E00E945F145E
:1007400080913E0490913F04892B09F081C08FEF86
:1007500080939603F0915C04FC8F80903604B6E998
:10076000CB2EB3E0DB2E1CE4212E14E0312EE12C45
:10077000F12C0FEF1FEF912CA12CB12C2C8DE21638
:1007800008F059C00F3F3FEF130701F5D1018D91DC
:100790009C9197FD1BC0F601668570E080E090E0BB
:1007A0000E944C2A2B013C01C501B4010E944C2A35
:1007B0002BE734E14EE25EE30E94AB2A9B01AC01E1
:1007C000C301B2010E94E82C181654F1D1018D9199
:1007D0009C9197FD26C0F801EE0FFF1FE45BFB4FD5
:1007E0002081318182179307E4F4F601668570E079
:1007F00080E090E00E944C2A2B013C01C501B4012D
:100800000E944C2A2BE734E14EE25EE30E94AB2AC1
:100810009B01AC01C301B2010E94E82C18160CF434
:100820008701FFEFEF1AFF0A2FEFC21AD20A32E058
:10083000230E311CA3CF0F3F4FEF140709F4B8C0AC
:100840000093960381E090E090933F0480933E04F0
:1008500080913E0490913F04019709F0A9C08091D6
:100860009903882309F4A4C0809161048111A0C078
:1008700080913604282F30E0203A310524F4F8ED39
:10088000AF2EA80E02C0E8E7AE2EB0905C04BA947A
:1008900076E0972EB7FC89C0CB2C0B2C000CDD0822
:1008A000F601EA56FC4F1685112309F47CC0F601C7
:1008B000EE0FFF1FE45BFB4F2081318137FF73C0D8
:1008C000319521953109283652E435070CF06BC07B
:1008D000E0919603EE0FFF0BE45BFB4F0190F0817C
:1008E000E02DC901BF010E94FE2C6333710508F0A1
:1008F0005AC09E9EC0019F9E900D1124821793079F
:1009000008F051C0612F70E080E090E00E944C2A16
:100910002B013C016091360470E080E090E00E9481
:100920004C2A2AE037ED43EA5DE30E94AB2A9B01A3
:10093000AC01C301B2010E94452A87FF34C01230C6
:1009400090F100E010E00A1570F578016FEFE61AFB
:10095000F60AB7018CEA93E00E94211480913104D9
:1009600090E0C816D90611F00C942F0FB8018CEA4C
:1009700093E00E9421142091310430E0809196038D
:10098000082E000C990B2817390711F00C942F0F23
:10099000B0925E0482E090E090933F0480933E0426
:1009A0000093370405C0BA9475CF8FEF80935E042F
:1009B00080913E0490913F04029709F076C28091A5
:1009C0003604883208F471C28091A00381116DC28F
:1009D000809137048E5F809338046091380470E012
:1009E0008091370490E00996861797070CF442C06F
:1009F0006F5F7F4F8CEA93E00E94211420913104B5
:100A000030E080915E04082E000C990B28173907FE
:100A100011F00C94320F6091380470E08CEA93E08E
:100A20000E9421142091310430E080919603082E19
:100A3000000C990B2817390711F00C94320F809194
:100A400038048093370413C06F5F7F4F8CEA93E0C4
:100A50000E9421142091310430E080915E04082E20
:100A6000000C990B2817390781F0809138048E5FAC
:100A7000809338046091380470E08091360490E0EF
:100A800001976817790704F31AC06091380470E081
:100A90008CEA93E00E9421142091310430E080918F
:100AA0009603082E000C990B28173907F1F6809150
:100AB0003804815080933804FF24F39401C0F12C52
:100AC0008091360490913804891710F0F11003C01A
:100AD000815080933804409138046091370486E94E
:100AE00093E00E945F1480913704FF2049F0209129
:100AF000380430E0D901A81BB10998979CF4D5C1FE
:100B000090913604292F30E0281B31092832310515
:100B10000CF4CBC19E3F08F0ADC1B98DB23011F4D9
:100B20000C94C41090919E0380919D03981708F037
:100B300057C180919A03882309F4B3C082E00E94D0
:100B4000031887E092E00E94D1178BE30E940318FC
:100B5000E12C80915C04E816C0F58E2D90E0FC013C
:100B6000EE0FFF1FE45BFB4F0081118101151105A2
:100B700051F1FC01EA56FC4F8685882321F16E2D48
:100B800017FF05C0606A11950195110901C06068E1
:100B9000D02E07FD04C0E02FE068DE2E01C06061AA
:100BA0008FEE92E00E947A116D2D8FEE92E00E94FE
:100BB0007A11612F772760688FEE92E00E947A1198
:100BC0008BE30E940318E394C4CF8091380480FF24
:100BD00003C08AE092E002C084E892E00E94D1174C
:100BE000E0913704E0FF1BC0E150E0933704E69545
:100BF00080913004E81728F4F0E0EA56FC4F26898B
:100C00002A8F8A8D8F7080688A8F682F8FEE92E08E
:100C10000E947A11809137048E5F8093370410917F
:100C2000370480913804811790F0E12FE695809188
:100C30003004E81728F4F0E0EA56FC4F36893A8F82
:100C40006A8D8FEE92E00E947A111E5FEACF8BE3ED
:100C50000E94031884E292E00E94D11780919603CB
:100C600060E170E0082E000C990B0E9408188BE3DD
:100C70000E9403188FE092E00E94D11780915E04D9
:100C800060E170E0082E000C990B0E9408188BE3BD
:100C90000E9403188CE092E00E94D11760E170E09E
:100CA00079C082E00E9403188EE092E00E94D11782
:100CB0008BE30E940318E12C80915C04E81648F550
:100CC0008E2D90E08C01000F111F045B1B4FD8018B
:100CD0002D913C91232BD9F0FC01EA56FC4F8685DF
:100CE0008823A9F080E50E9403186AE070E08E2D49
:100CF0000E94C3178DE30E9403186AE070E0F801B8
:100D0000808191810E9408188BE30E940318E3946C
:100D1000D3CF81E192E00E94D117109137048091E6
:100D20003804811770F0612F70E08CEA93E00E9424
:100D300021146AE070E0809131040E94C3171F5FA4
:100D4000EECF8BE30E94031884E192E00E94D1175A
:100D5000809196036AE070E0082E000C990B0E94C7
:100D600008188BE30E94031888E192E00E94D117D3
:100D700080915E046AE070E0082E000C990B0E94DE
:100D800008188BE30E9403188CE192E00E94D117AF
:100D90006AE070E0809163040E94C3178BE30E94B5
:100DA000031880913B04882339F083E592E00E9488
:100DB000D1178BE30E94031880919C03882381F054
:100DC000F98DF11103C08AE692E005C0298D223029
:100DD00039F48FE192E00E94D1178BE30E9403184F
:100DE00010923A0480919E03F11002C08823B9F159
:100DF00090919C03992389F090919D03891768F441
:100E000081E292E00E94D1176AE070E080919E0337
:100E10000E94C3178BE30E94031820919E032F5F4B
:100E200020939E03FF20A9F0398D311109C08091D4
:100E3000360490E030913804831B910988974CF078
:100E4000222369F0809138048F5F0E94AA181092C3
:100E5000370490919E0380919D03891738F083E0B9
:100E60000E94031887E892E00E94D11781E08093E6
:100E7000A30318C0882389F02091380430E02D3F67
:100E800031055CF0498D411103C010923A040AC04B
:100E90000E94AA181092370405C0598D523011F0E3
:100EA0000E94631881E08093390480913904811194
:100EB000B8C780919703609198036AA7811103C016
:100EC000662309F4ACC77AA5772309F435C5809168
:100ED0003E0490913F04029709F42EC580919B0235
:100EE000811129C082E38093E20291E09093E002B5
:100EF0001092AB021092DD021092DE0287E0809326
:100F0000DF0280E88093E1028FEF8093E602809316
:100F1000E7028093E8028093E9021092EE0226E94C
:100F200033E03093E5022093E4021092EB0210923A
:100F3000EA0290939B0280915F04882399F080914C
:100F4000E4029091E502FC01EC55FF4F10823397CB
:100F5000108200E011E09924939488248A9427E079
:100F6000722EADC18FEF8093E6028093E7028093EB
:100F7000E8028093E9021092EE021092EB021092C6
:100F8000EA021092AB021092DD021092DE0287E0BC
:100F90008093DF02809162048093EC020091E4026E
:100FA0001091E502F801EA53FF4FF08083E08F15BE
:100FB00008F0B7C4B697608170E080E090E00E94CE
:100FC0004C2A2AE037ED43E25DE30E94AB2A4B0155
:100FD0005C0120E030E0A9010E94E82C20E030E034
:100FE00040E05FE387FD05C0C501B4010E94D42B3A
:100FF00004C0C501B4010E94D32B0E94B22C580139
:101000009EE0A90EB11CF801EA54FF4F212C70E0BC
:10101000D5018D915D01861760F1E22C8E2D90E057
:10102000EE20F1F09E01280F391FD901DC909801C4
:101030002D0D311D2D0D311D2A543F4F4081518101
:10104000D9012D913C914217530754F421E030E02F
:101050002C0F3D1F820F931FDC01DC92EA94DECF40
:1010600021E030E02C0F3D1F820F931FDC017C93A9
:1010700023947F5F3296F712CBCFFE013196FA8B25
:10108000E98BFDA3ECA340911D0150911E016091DD
:101090001F01709120014BA75CA76DA77EA7BE0121
:1010A000675F7F4F7C8B6B8BCE010D969E8B8D8BFC
:1010B000DE015196B88FAF8BB989BAAB8CA18B1B6F
:1010C000821508F02EC4ACA1BDA12D91BDA3ACA387
:1010D0004091E4023091E502842F932F820F911DFD
:1010E000820F911DFC01EA54FF4F208131813D8F19
:1010F0002C8F1216130604F78FEF8093E60280936D
:10110000E7028093E8028093E9023595279539AB91
:1011100028ABAE014F5F5F4F5BA34AA31FA21EA285
:101120006FEF7FEF7B8F6A8F8C8D9D8D092E000C6A
:10113000AA0BBB0B8EAB9FABA8AFB9AF1FEF8AA1B9
:101140009AA9891B821508F0B7CFAAA1BBA10D915E
:10115000BBA3AAA33091E4022091E502832F922F32
:10116000800F911D800F911DFC01EA54FF4FE0801C
:10117000F1806EA97FA988AD99AD0E944C2A4B01E0
:101180005C016701F7FE04C0CC24DD24CE18DF0823
:101190002DEC3CEC4CE45EE3C501B4010E94AB2AAB
:1011A0000E94B22C88A999A98C199D0997FF03C0A8
:1011B000919581959109681779070CF092C22DECF1
:1011C0003CEC4CEC5EE3C501B4010E94AB2A0E94EA
:1011D000B22C8C8D9D8D8C199D0997FF03C0919524
:1011E00081959109681779070CF0B2C6A8CF802FB6
:1011F0000E945519E090E402F090E502F701EF55E6
:10120000FF4F8082B60161507109C70146960E9466
:101210002114F701E556FF4F808190E02091E8020C
:10122000022E000C330B8217930709F49AC6209103
:10123000E902022E000C330B8217930709F491C6C2
:10124000E091E402F091E502EF55FF4F80818F3F7E
:1012500009F410831091ED029092EE02C090E40226
:10126000D090E502F601E056FF4F8081181708F490
:10127000ACC08091E4029091E502FC01E056FF4F82
:101280002081121708F41F5F4091DE0250E0209188
:10129000EC02022E000C330BFC01421753070CF03A
:1012A000B9C0E553FF4F2081222309F4ADC010924D
:1012B000AB021092DD021092DE027092DF022091EA
:1012C000E4023091E502412F50E0F901E056FF4F72
:1012D000808190E04E97481759070CF022C3BA96C8
:1012E0009082C12ED12CE090E402F090E502F7014B
:1012F000E056FF4F808190E00197C816D9060CF0A8
:1013000053C0B601C70146960E942114F701E55665
:10131000FF4FA080B12C8091E702082E000C990BA2
:10132000A816B906A9F18091E602082E000C990BC7
:10133000A816B90609F013C6E090E402F090E502A1
:10134000B60161507109C70146960E942114F70148
:10135000E556FF4F80819701280F311D280F311D61
:10136000D901AA54BF4FE091E402F091E5028091C7
:10137000E70222E08202E00DF11D1124EA54FF4F42
:101380002D913C9180819181821793070CF4E7C5E0
:101390008091E702082E000C990B01E08A159B054D
:1013A00009F000E01093ED022091E4023091E50293
:1013B000F901E056FF4F808190E00197C816D906E9
:1013C0000CF415CFBA961082ACC2E12EF12CB70105
:1013D000C60146960E942114F601E556FF4F808112
:1013E00090E02091E602022E000C330B8217930747
:1013F00009F425C62091E702022E000C330B821758
:10140000930709F022C61BC6193208F450CFBA97C9
:10141000108387C2EE55FF4F108382E00E940318AD
:1014200083E292E00E94D1178BE30E94031886E2C8
:1014300092E00E94D117E091E602EE0FFF0BE45B11
:10144000FB4F6AE070E0808191810E9408188BE375
:101450000E9403188AE292E00E94D117E091E7020D
:10146000EE0FFF0BE45BFB4F6AE070E0808191813F
:101470000E9408188BE30E9403188EE292E00E94FB
:10148000D117E091E802EE0FFF0BE45BFB4F6AE03F
:1014900070E0808191810E9408188BE30E940318FC
:1014A00082E392E00E94D117E091E902EE0FFF0B78
:1014B000E45BFB4F6AE070E0808191810E94081834
:1014C0008BE30E94031881E192E00E94D117809182
:1014D000550290915602A091570289839A83AB835B
:1014E000B12C8E010F5F1F4F86E3E82E82E0F82EAD
:1014F000CB2CD12C8091DD0290E02091E202C81625
:10150000D906DCF4B21628F4F601E555FD4F7081DA
:101510007BAB1F928BA98F93FF92EF921F930F9338
:101520000E94902EC8010E94D117B3940F900F9083
:101530000F900F900F900F90DBCFB21628F4F601AA
:10154000E555FD4F90819CAB8CA982958F701F92C1
:101550008F938BE392E09F938F931F930F930E943F
:10156000902EC8010E94D1178091DE0287708150B1
:101570000F900F900F900F900F900F908430F0F01D
:101580008091E202B81628F4F601E555FD4FA081DE
:10159000ADAB8DA98F701F928F938BE392E09F93D9
:1015A0008F931F930F930E94902EC8010E94D11712
:1015B0000F900F900F900F900F900F908BE30E9461
:1015C000031880E492E00E94D1176AE070E08091F5
:1015D000EA029091EB020E9408188BE30E94031824
:1015E00087E292E00E94D1176AE070E08091DE020B
:1015F0000E94C3178BE30E9403188CE192E00E94C3
:10160000D1176AE070E0809163040E94C3178BE3F6
:101610000E94031880919C03882349F18091600403
:10162000811107C083E492E00E94D1178BE30E94EE
:1016300003188091ED028823D1F088E092E00E94A7
:10164000D1176AE070E08091ED020E94C3178BE32E
:101650000E94031885E492E00E94D1176AE070E0CE
:10166000809137040E94C3178BE30E940318809176
:101670003B04882339F083E592E00E94D1178BE385
:101680000E94031810925F0481E0809339048093D4
:10169000A30380913804B98DB11108C0209136049C
:1016A00030E0281B3109283231059CF081500E941E
:1016B000AA181092370481E08093610480919C0302
:1016C000882339F087E492E00E94D1178BE30E94CF
:1016D000031883E00E94031887E892E00E94D11764
:1016E0002BC11E141F040CF03DC50093E902BEA1DE
:1016F000BF5FBEA3EA8DFB8DEE0DFF1DFB8FEA8F52
:101700008091E6028F3F09F41ACD8091E8028F3F65
:1017100009F415CD8091E7028F3F09F410CD809137
:10172000E9028F3F09F40BCD4BA55CA56DA57EA505
:101730004D875E876F87788B49875A876B877C8751
:1017400061E070E079A768A7812C912CE090E40219
:10175000F090E502F701E056FF4F808190E0881697
:1017600099060CF0ECCCB401C70146960E942114F6
:10177000F701E556FF4F0081802F90E02091E602AF
:10178000022E000C330BE090E402F090E502821789
:10179000930709F46CC32091E702022E000C330B6F
:1017A0008217930709F463C32091E802022E000C0C
:1017B000330B8217930709F45AC32091E902022ED2
:1017C000000C330B8217930709F451C3F701EF554F
:1017D000FF4F60819401261B31098091EC02082E95
:1017E000000C990B821793070CF071C3319680821D
:1017F000482DC7010E945F148091E4029091E50298
:101800003090E902A091E702AE8F0091E802B0911A
:10181000E602B8A3FC01E30DF11D37FCFA9526851D
:10182000FC01EA0FF11DA7FDFA95C684D12CC20E6A
:10183000D11CFC01E00FF11D07FDFA952685C21AA7
:10184000D108FC01EB0FF11DB7FDFA95268510922A
:10185000EE02C21AD108D7FE03C0D194C194D108B8
:101860000D2C000CEE08FF08FC01E056FF4FA08095
:10187000B12CB5010B2C000C880B990B0E944C2A43
:101880002AE037ED43E25DE30E94AB2A2B013C01E5
:1018900020E030E0A9010E94E82C20E030E040E0A8
:1018A0005FE387FDEEC2C301B2010E94D42B0E9408
:1018B000B22C6C157D058E059F050CF440CC5EA105
:1018C0006FA156133CCC7E8D88A1781709F437CCD4
:1018D000301609F434CC081709F431CC371609F462
:1018E0002ECC381609F42BCC701709F428CCFE0145
:1018F0003D96DE01199681919D918913C7C26F892A
:10190000788D6E177F07B9F78A8D9B8D66E070E042
:101910000E94122D7093EB026093EA024AA54111D6
:101920000ECB80915F04882339F080913A0488239C
:1019300019F081E08093390480919703882309F49A
:101940006AC280913E0490913F040197029708F08B
:1019500062C280913904811164C280913604883258
:1019600028F48091A003882309F459C28091A1032F
:101970009091A203892B09F49EC08091370488239B
:1019800041F040E060E086E993E00E945F1410922D
:10199000370410915C04115017FD8DC0C12E012E2B
:1019A000000CDD08F601EE0FFF1FE45BFB4F8081AA
:1019B000918197FF03C09195819591092091A10391
:1019C0003091A2038217930730F3F601EA56FC4FD9
:1019D0008685882301F38130A9F4E12CF12CB7012D
:1019E0008CEA93E00E9421148091310490E0C816A3
:1019F000D90689F2EFEFEE1AFE0AFAE0EF16F104CB
:101A000071F702C0883038F688E2809338048091FC
:101A10003604883208F44FC018E2E12EF12C809190
:101A2000360490E00197E816F9060CF044C0B701BF
:101A30008CEA93E00E942114E0913104F0E0EE0F73
:101A4000FF1FE45BFB4F80819181B70118161906D7
:101A500074F48CEA93E00E942114E0913104F0E0E8
:101A6000EE0FFF1FE45BFB4F8081918110C08CEA79
:101A700093E00E942114E0913104F0E0EE0FFF1F8B
:101A8000E45BFB4F80819181919581959109209133
:101A9000A1033091A2038217930758F010933804E2
:101AA000412F60E086E993E00E945F14EE24E39406
:101AB00019C01F5FB2CF90913B04809136049923E7
:101AC00021F090919B039111825080933804809172
:101AD0003704882331F040E060E086E993E00E941B
:101AE0005F14E12C90919A038091A003992309F44B
:101AF0009FC0811162C082E00E94031889E492E0D5
:101B00000E94D1178BE30E940318F12C80915C0492
:101B1000F816C0F58F2D90E0FC01EE0FFF1FE45B7F
:101B2000FB4F008111810115110551F1FC01EA56AD
:101B3000FC4F8685882321F16F2D17FF05C0606A51
:101B400011950195110901C06068D02E07FD04C0F0
:101B5000202F2068D22E01C060618FEE92E00E949B
:101B60007A116D2D8FEE92E00E947A11612F772706
:101B700060688FEE92E00E947A118BE30E94031856
:101B8000F394C4CF84E292E00E94D117809196032F
:101B900060E170E0082E000C990B0E9408188BE39E
:101BA0000E9403188CE092E00E94D11760E170E07F
:101BB000809163040E94C31707C082E00E9403184B
:101BC0008CE492E00E94D1178BE30E94031880916D
:101BD000380480FF06C084E892E00E94D11710E02C
:101BE00014C08AE092E0F9CFE12FE69580913004AD
:101BF000E81728F4F0E0EA56FC4F36893FA76FA5B6
:101C00008FEE92E00E947A111E5F809138041817BF
:101C100058F38BE30E94031810923A0481E08093FA
:101C2000A3038093390480913B0481117CC09DC043
:101C3000811157C082E00E9403188FE492E00E9455
:101C4000D1178BE30E94031810E080915C041817F1
:101C500068F5812F90E09C01220F331FA901445B9E
:101C60005B4F6A01DA012D913C91232BE9F0FC01D5
:101C7000EA56FC4F86858823B9F08CED91E00E94EE
:101C8000D1176AE070E0812F0E94C31781E492E0CF
:101C90000E94D1176AE070E0F601808191810E9474
:101CA00008188BE30E9403181F5FCFCF84E192E0F6
:101CB0000E94D117809196036AE070E0082E000C14
:101CC000990B0E9408188BE30E9403188CE192E0A4
:101CD0000E94D1176AE070E0809163040E94C317EC
:101CE00007C082E00E94031882E592E00E94D117AB
:101CF0008BE30E94031881E192E00E94D11710E06B
:101D000080913804181708F084CF612F70E08CEAB6
:101D100093E00E9421146AE070E0809131040E94F7
:101D2000C3171F5FEDCFE11018C080919B0388237C
:101D3000A1F08DE492E00E94D1176AE070E08091FA
:101D4000A0030E94C3178091A0038F5F8093A0031C
:101D5000809138040E94AA1804C083E592E00E9492
:101D6000D1178BE30E94031805C08091A003811155
:101D70001092A00380919C03882309F402C2F98D7C
:101D8000F11103C08AE692E005C0298D223039F4B2
:101D90008FE192E00E94D1178BE30E94031880919B
:101DA0006004811107C083E492E00E94D1178BE3A5
:101DB0000E940318EE2041F180919C03882369F072
:101DC00087E492E00E94D1176AE070E080919F035F
:101DD0000E94C3178BE30E94031880919F038F5FBB
:101DE00080939F03398D311109C08091360490E0B2
:101DF00020913804821B9109889734F0809138042F
:101E00000E94AA181092370483E00E94031887E802
:101E100092E00E94D11780913904811102C0109282
:101E20003A04809136048E3F60F080913E04909198
:101E30003F04892B31F481ED92E00E9457181092F3
:101E40003A0480913A048111A4C10E946318A1C18F
:101E5000809137048F5F809337040C945A03870175
:101E60000C94A304809138048F5F0C94EB04F70169
:101E7000E056FF4F808190E001978816990651F552
:101E8000A5CCC301B2010E94D32B11CD9F3F19F005
:101E90008F3F09F034CDA818B9088091EC02082EC4
:101EA000000C990B8A159B050CF049C91D871987F1
:101EB0001E871A871F871B87188B1C877FEF871A3F
:101EC000970A88A599A5019699A788A73FCC109253
:101ED000EE020BC08091EE02811107C0F701EF55B1
:101EE000FF4F808291E09093EE0268A579A5C7012B
:101EF00046960E942114F701E556FF4F8081AAE023
:101F00000A9F800D11248A3008F48C5980FC03C08C
:101F10002D899E8902C02B899C89E22FF92F90E0A0
:101F2000482F50E06081262F062E000C330B24171B
:101F3000350719F06F3F19F48083292F01C02FEF67
:101F40009F5F943009F4BACF31962F3F59F3B6CF43
:101F50001E141F040CF012C10093E702C8CB1F5FD0
:101F6000C0C91150123008F46BC9E12EF12CC09099
:101F7000E402D090E502B70162507109C6014696AD
:101F80000E942114F601E556FF4F808190E02091D8
:101F9000E802022E000C330BA701415051097A01CF
:101FA0008217930741F02091E902022E000C330BB7
:101FB00082179307F1F4C090E402D090E502B701D4
:101FC000C60146960E942114F601E556FF4F808116
:101FD00090E02091E802022E000C330B8217930749
:101FE00061F12091E902022E000C330B8217930756
:101FF00021F1C090E402D090E502B701C6014696F7
:102000000E942114F601E556FF4F208130E08091B7
:10201000E902082E000C990B2817390709F010C99E
:10202000E091E402F091E502EF55FF4F125010836A
:1020300010E0802F0E94551995CF1250FACF092534
:102040001F5F802F0E94551909C9C090E402D090EB
:10205000E502F601E056FF4F208130E021503109C2
:10206000E216F3060CF005C901113EC02091E8020A
:10207000022E000C330B2817390709F0FAC85FEF5E
:10208000E51AF50AB701C60146960E942114F60129
:10209000E556FF4F208130E08091E902082E000CC8
:1020A000990B2817390709F45BC0C090E402D0905F
:1020B000E502B701C60146960E942114F601E556D5
:1020C000FF4F208130E08091E702082E000C990B31
:1020D0002817390709F0CDC8E091E402F091E50234
:1020E000E653FF4F1082C5C82091E902022E000C72
:1020F000330B2817390791F56FEFE61AF60AB70187
:10210000C60146960E942114F601E556FF4F208134
:1021100030E08091E802082E000C990B281739074F
:10212000F9F0C090E402D090E502B701C6014696EE
:102130000E942114F601E556FF4F208130E0809186
:10214000E602082E000C990B2817390739F4E091A4
:10215000E402F091E502E653FF4F108201E089C8E6
:102160001F5F6ECF0093E802FFA1FF5FFFA32A8DE0
:102170003B8D2E193F093B8F2A8FC2CA0093E6027E
:10218000F3CFE1102ACE40CE81110C943C070C9481
:102190005207E9960FB6F894DEBF0FBECDBFDF91B0
:1021A000CF911F910F91FF90EF90DF90CF90BF9054
:1021B000AF909F908F907F906F905F904F903F90E7
:1021C0002F9008950895CF92DF92EF92FF920F9390
:1021D0001F93CF93DF936C017A018B01C0E0D0E0B5
:1021E000CE15DF0581F0D8016D918D01D601ED91FD
:1021F000FC910190F081E02DC6010995892B11F029
:102200002196EECF7E01C701DF91CF911F910F91F3
:10221000FF90EF90DF90CF900895089580E090E0D8
:102220000895FC01538D448D252F30E0842F90E0DC
:10223000821B930B541710F0CF96089501970895C1
:10224000FC01918D828D981761F0828DDF01A80FBE
:10225000B11D5D968C91928D9F5F9F73928F90E0E0
:1022600008958FEF9FEF0895FC01918D828D98174F
:1022700031F0828DE80FF11D858D90E008958FEF8C
:102280009FEF0895FC01918D228D892F90E0805C55
:102290009F4F821B91098F73992708958FEE92E0CB
:1022A0000E94421121E0892B09F420E0822F089539
:1022B000FC01848DDF01A80FB11DA35ABF4F2C91E3
:1022C000848D90E001968F739927848FA689B789B2
:1022D0002C93A089B1898C91837080648C93938DA9
:1022E000848D981306C00288F389E02D80818F7D4C
:1022F00080830895EF92FF920F931F93CF93DF9304
:10230000EC0181E0888F9B8D8C8D981305C0E88946
:10231000F989808185FD26C0F62E0B8D10E00F5FB8
:102320001F4F0F731127E02E8C8DE8120CC00FB6D3
:1023300007FCFACFE889F989808185FFF5CFCE01C6
:102340000E945811F1CF8B8DFE01E80FF11DE35A69
:10235000FF4FF0829FB7F8940B8FEA89FB89808149
:1023600080620AC09FB7F894EE89FF896083E8898C
:10237000F98980818370806480839FBF81E090E0D1
:10238000DF91CF911F910F91FF90EF900895CF9320
:10239000DF93EC01888D8823C9F0EA89FB8980816D
:1023A00085FD05C0A889B9898C9186FD0FC00FB63F
:1023B00007FCF5CF808185FFF2CFA889B9898C9180
:1023C00085FFEDCFCE010E945811E7CFDF91CF916D
:1023D00008950895FC01099480E008950E943A2E22
:1023E000CF92DF92EF92FF920F931F93F8940E9487
:1023F000E31900918C0310918D0320918E0330918D
:102400008F036B017C01C01AD10AE20AF30A97011B
:10241000860160938C0370938D0380938E03909359
:102420008F030A3511052105310578F181E0C816C1
:102430008DE7D806E104F10410F4960102C021E012
:102440003DE74A9B03C031952195310980916B048A
:102450008238D8F480916B048F5F80936B048091F5
:102460006C0460916A040E94F22C90936C04E091D9
:102470006C04F0E0EE0FFF1FE259FB4F3183208325
:1024800080916C048F5F80936C0478941F910F91FE
:10249000FF90EF90DF90CF900895FC0180819181B3
:1024A000009711F00C94092A60E070E0CB010895C8
:1024B0000F931F93CF93DF93EC018881998100974D
:1024C00029F02A813B812617370788F48B016F5F3B
:1024D0007F4F0E94742D009761F0998388831B833E
:1024E0000A832C813D81232B11F4FC01108281E0B1
:1024F00001C080E0DF91CF911F910F910895EF927D
:10250000FF920F931F93CF93DF93EC017B018A011E
:10251000BA010E9458122881398181110DC02115FC
:10252000310519F0C9010E948029198218821D8283
:102530001C821B821A8206C01D830C83B701C9014D
:102540000E946F2ECE01DF91CF911F910F91FF90CE
:10255000EF900895CF93DF93EC016115710559F069
:10256000FB0101900020E9F73197AF01461B570BA3
:102570000E947F120CC088819981009711F00E94FF
:102580008029198218821D821C821B821A82CE0128
:10259000DF91CF910895FF920F931F93CF93DF9315
:1025A00000D0CDB7DEB7FF24F3948FEE92E00E9407
:1025B0004211892B09F450C08FEE92E00E94201145
:1025C0008A3041F01CF4882329F007C08D3011F0C7
:1025D000833219F4F092980222C089831A82009102
:1025E0009403109195030F5F1F4FB80180E993E0AA
:1025F0000E945812882399F0209190033091910302
:102600008091940390919503BE016F5F7F4F820F7D
:10261000931F0E946F2E1093950300939403809153
:102620009403909195038F35914008F4BECF68E8EC
:1026300072E080E993E00E94AA1285E593E00E948F
:10264000E8176AE070E08EE591E00E94081883E5E3
:1026500093E00E945718A9CF0F900F90DF91CF9170
:102660001F910F91FF9008950E944E1181110C94BB
:10267000CB120895FC01808191810C948029FC018A
:1026800011821082138212821582148261157105E3
:1026900051F0FB0101900020E9F73197AF01461B93
:1026A000570B0C947F1208951F920F920FB60F9242
:1026B00011242F933F934F935F936F937F938F9347
:1026C0009F93AF93BF93EF93FF93E0910601F09137
:1026D00007010995FF91EF91BF91AF919F918F9164
:1026E0007F916F915F914F913F912F910F900FBE0E
:1026F0000F901F9018951F920F920FB60F921124F2
:102700002F933F934F935F936F937F938F939F93F9
:10271000AF93BF93EF93FF93E0910401F091050114
:102720000995FF91EF91BF91AF919F918F917F910B
:102730006F915F914F913F912F910F900FBE0F902E
:102740001F9018951F920F920FB60F9211242F937E
:102750003F934F935F936F937F938F939F93AF9329
:10276000BF93EF93FF938FEE92E00E945811FF9179
:10277000EF91BF91AF919F918F917F916F915F91F9
:102780004F913F912F910F900FBE0F901F90189572
:102790001F920F920FB60F9211242F938F939F9336
:1027A000EF93FF93E091FF02F09100038081E091AD
:1027B0000503F091060382FD12C090818091080309
:1027C0008F5F8F7320910903821751F0E091080306
:1027D000F0E0E151FD4F958F8093080301C08081A7
:1027E000FF91EF919F918F912F910F900FBE0F90BE
:1027F0001F9018951F920F920FB60F9211242F93CE
:102800003F934F935F936F937F938F939F93AF9378
:10281000BF93EF93FF93E0919402F0919502099595
:10282000FF91EF91BF91AF919F918F917F916F91A8
:102830005F914F913F912F910F900FBE0F901F907E
:102840001895CF93DF93FC01EE57FF4F4081469FD1
:10285000F001479FF00D1124DF0123E0B695A79505
:102860002A95E1F7EC01CC57DF4F2881A21710F52C
:102870002197288130E0E770FF2702C03595279522
:10288000EA95E2F7FC01EA0FF11D3081232330E0E5
:1028900058E0541B469F402D11244770541B02C022
:1028A000359527955A95E2F7322FFC01EB57FF4FEC
:1028B000208301C03FEF832FDF91CF910895FC016A
:1028C000E056FF4F2081222309F45AC0E259F10952
:1028D000DC0156961192AE17BF07E1F7411102C015
:1028E0004FEF420F262F2695542F569560FF13C0A9
:1028F000FC01E656FF4F6081261720F4FC01E20F31
:10290000F11D3689632F6F70FC01E60FF11D66859E
:102910006F5F66872F5FDC01A656BF4F5217E8F046
:102920006C91261720F4FC01E20FF11D3689E32F8C
:10293000F0E064E0F595E7956A95E1F7E80FF91F97
:1029400066856F5F6687632F6F70FC01E60FF11D70
:1029500066856F5F66872F5FE1CF40FD11C0FC0188
:10296000E656FF4F2081521720F4FC01E50FF11DC0
:1029700036893F70FC01E30FF11D86858150868703
:1029800008950C94742B0C946C2B6FEB8FEF90E0EC
:102990000E94C11468E780EF90E00E94C11460E0DB
:1029A00081EF90E00E94C11464E082EF90E00E9409
:1029B000C1146FE183EF90E00E94C11460E484EFE2
:1029C00090E00E94C11488E693E00C945718CF93CE
:1029D0008FEF90E00E94C314982F91709093990309
:1029E00081FB992790F99093970382FB992790F99F
:1029F0009093980383FB992790F990939A0384FB13
:102A0000992790F990939C0385FB992790F99093CF
:102A1000030186FB882780F980939B0380EF90E079
:102A20000E94C3148093020182EF90E00E94C314BD
:102A300080939D0383EF90E00E94C314C82F84EF1E
:102A400090E00E94C3142C2FCC0F330B322F22277F
:102A5000280F311D3093A2032093A10381EF90E052
:102A60000E94C314811101C081E180936204CF915F
:102A70000895CF93C82F803120F486E592E00E941C
:102A8000D11760E170E08C2FCF910C94C3178F9217
:102A90009F92AF92BF92CF92DF92EF92FF928FB749
:102AA000F894C0907205D0907305E0907405F09092
:102AB00075058FBF8091A7029091A802A091A902ED
:102AC000B091AA02C816D906EA06FB0628F480913E
:102AD000A6028F5F8093A602C092A702D092A8029E
:102AE000E092A902F092AA02A091A602B0E027E328
:102AF00039E841E450E00E94822B4B015C01C701A0
:102B0000B60128EE33E040E050E00E94262DC501DA
:102B1000B401620F731F841F951FFF90EF90DF9029
:102B2000CF90BF90AF909F908F9008950F931F9379
:102B30000E94E31900918C0310918D0320918E0364
:102B400030918F03DC01CB01801B910BA20BB30BE7
:102B500082309D47A105B10580F14A9903C02FEF4E
:102B600032E802C021E03DE780916B048238D8F45E
:102B700080916B048F5F80936B0480916C046091F3
:102B80006A040E94F22C90936C04E0916C04F0E0D3
:102B9000EE0FFF1FE259FB4F3183208380916C04BD
:102BA0008F5F80936C040E94E31960938C03709391
:102BB0008D0380938E0390938F038091A402909154
:102BC000A5029C012F5F3F4F3093A5022093A402E2
:102BD000892B51F48091A30291E0980F9093A30266
:102BE000811102C00E94471520919702E8E4F3E0AA
:102BF0008491E4E3F3E09491E0E2F3E0E491EE23E6
:102C000009F43CC0882339F1833091F038F48130E5
:102C1000A9F0823001F584B58F7D12C0873091F024
:102C20008830A1F08430B9F4809180008F7D03C09A
:102C3000809180008F77809380000DC084B58F775E
:102C400084BD09C08091B0008F7703C08091B0002F
:102C50008F7D8093B000F0E0EE0FFF1FE35FFC4F2D
:102C6000A591B4913FB7F894211104C08C9190952F
:102C7000982302C0EC919E2B9C933FBF1092970229
:102C80001F910F910895CF93DF93C2E0D0E0FE0132
:102C9000EE51FD4F6491CE010E94C1142196CB32BA
:102CA000D105A9F7C0E3D0E0C13321F464E881E3A2
:102CB00090E002C060E0CE010E94C1142196C833AA
:102CC000D10591F788E592E0DF91CF910C947617CA
:102CD0008EBD0DB407FEFDCF8EB50895CF93DF9363
:102CE0002A981C99FECF8EE70E946816C0E3D0E0B8
:102CF000CE010E94C3140E9468162196C833D105E4
:102D0000B9F72A9ADF91CF910895CF93C62F2A98C9
:102D10001C99FECF0E9468168C2F0E9468162A9A72
:102D2000CF9108952A981C99FECF862B0E94681691
:102D300080E00E9468162A9A089560EC84E30C945F
:102D400092162A981C99FECF0E9468161C99FECFF5
:102D50002A9A089586E30E94A11661E070E080E05F
:102D600090E00C94081AE89882EE90E190930501A7
:102D7000809304018091960281110E94AA161092FC
:102D80006B0410926D0410926C040895CF93DF933E
:102D90000E94AA16CEEFCF3FC1F084E30E94A11695
:102DA000DFEFDC0F8077803141F4C1110EC08CE67B
:102DB00092E0DF91CF910C94761761E070E080E0B3
:102DC00090E00E94081ACD2FE6CFDF91CF910895B1
:102DD00080EF91E190930501809304018091690057
:102DE0008C7F816080936900E89A809196028111BE
:102DF0000C94C6160895CF93DF932A9A88E390E047
:102E0000FC013197F1F72A980197F1F72A9A86E5A4
:102E100090E00197F1F780E30E94A1166AE070E06C
:102E200080E090E00E94081A2A9880E40E946816C8
:102E3000C2E0D0E0CE010E94C3140E946816219621
:102E4000CB32D105B9F72A9A80E190E00197F1F7EA
:102E50000E946E1661E070E080E090E00E94081A27
:102E6000DF91CF910C94C61690ED980F9A3070F0C8
:102E70009FE9980F963010F499EA05C09FEB980FE0
:102E8000963018F499EC980F01C0982F892F089567
:102E90001F93CF93DF93C82FD0E0CE010E94D317AA
:102EA0000E943417182F1295107FCE0101960E94B0
:102EB000D3170E943417810FDF91CF911F9108958E
:102EC000009769F0FC0101900020E9F73197AF010C
:102ED000481B590BBC018FEE92E00C94E31080E08C
:102EE00090E0089586E892E00C946017CF93DF930A
:102EF0000E946017EC010E9472178C0F9D1FDF91DA
:102F0000CF9108958F929F92AF92BF920F931F938C
:102F1000CF93DF93CDB7DEB7A1970FB6F894DEBF9E
:102F20000FBECDBF19A2423008F44AE08E010F5DFA
:102F30001F4F842E912CA12CB12CA50194010E942D
:102F4000262DE62FB901CA0101501109EA3014F407
:102F5000E05D01C0E95CD801EC93232B242B252BE9
:102F600061F7C8010E946017A1960FB6F894DEBF02
:102F70000FBECDBFDF91CF911F910F91BF90AF904A
:102F80009F908F900895AB01682F4115510521F452
:102F90008FEE92E00C947A1170E080E090E00C9457
:102FA00082170C9460172091940330919503821737
:102FB000930760F42091900330919103211531051E
:102FC00029F0F901E80FF91F8081089580E0089544
:102FD0000F931F93CF93DF938C01C0E0D0E0F801F3
:102FE000EC0FFD1F6491662341F08FEE92E00E948A
:102FF0007A11892B11F02196F2CFCE01DF91CF917A
:103000001F910F910895682F8FEE92E00C947A1122
:10301000CF92DF92EF92FF92CF93DF93611571050C
:1030200059F4682F8FEE92E0DF91CF91FF90EF90EF
:10303000DF90CF900C947A116C01990FEE08FF0885
:103040006A307105D9F4F7FE17C08DE20E940318AB
:10305000EC0166277727CB016C197D098E099F0942
:103060004AE00E9482178C0F9D1FDF91CF91FF9045
:10307000EF90DF90CF9008954AE001C0462FC7013E
:10308000B601DF91CF91FF90EF90DF90CF900C943D
:103090008217CF93DF936AE070E00E94C317EC01C0
:1030A0000E9472178C0F9D1FDF91CF910895CF93CF
:1030B000DF930E94E817EC010E9472178C0F9D1F8E
:1030C000DF91CF9108951092360410925C04109213
:1030D0005D041092AC0310922B0410922C0487E034
:1030E00080932D0410923F0410923E048FEF809342
:1030F0005E0480939603ACE4B4E0E4EAF3E01D924E
:103100001D92119283E0EC3AF807C9F71092390446
:1031100086E990E090933D0480933C0480E090E049
:10312000A0E8BEE38093480490934904A0934A0426
:10313000B0934B041092370410923A0410923B045F
:1031400010925F0481E080936004109261041092F9
:10315000380408950F931F93CF9310923A04882355
:1031600009F49FC090913604992309F49AC0C82F9E
:10317000492F50E0282F30E02417350794F0981796
:1031800058F488E893E00E94E81780E893E00E94F2
:10319000E8178C2F0E944918CF911F910F910C9422
:1031A000631880912C04482F50E04217530708F40D
:1031B0006EC0B90176956795B62F2417350739F497
:1031C0001092AC0310922B0410922C043BC040913F
:1031D0002B04C0FF3DC00CEA13E0A62FAB1B641705
:1031E00098F4E62FF0E0EA56FC4F2789522F5295CB
:1031F0005F70968970E1979F90011124252BF8014B
:1032000021938F016F5FE9CF80FD0CC0B0E0AA561B
:10321000BC4FE62FF0E0EA56FC4F96899295907FDE
:1032200056969C938C1B80932C04482F50E09A0157
:103230002150310937FD9A013595279520932B04AC
:1032400080FD02C087E001C083E080932D0411C09F
:10325000461B40932B0450E04F5F5F4F64557C4FFB
:103260008CEA93E00E94542E80912C048C1B809356
:103270002C0481E080933A0480912C0480933604DE
:1032800081110FC010924704109246040AC089E8C9
:1032900092E00E94D1178C2FCF911F910F910C9427
:1032A0004918CF911F910F9108959091DF0240919D
:1032B000DE029730A9F4442399F0E091DD026E2FED
:1032C00070E02091E20230E021503109621773076B
:1032D000A4F5EF5FE093DD02F0E0E555FD4F1082CD
:1032E0005091E002652F70E0292F30E02F5F3F4FB3
:1032F000261B370B1216130624F401C0880F2A95DB
:10330000EAF7E091DD02F0E0E555FD4F2081822BE8
:1033100080834F5F4093DE02292F092E000C330B70
:10332000261B370B37FD04C0951B9093DF0203C0AB
:1033300087E08093DF0281E0089580E00895CF92D6
:10334000DF92EF92FF920F931F93CF93DF936C0165
:103350008B017A014617570720F4812F8A01E62E48
:10336000F82E68E872E0C6010E943F13C0919403F2
:10337000D09195030C171D07E0F4EC16FD0608F438
:10338000E701E0919003F0919103EC0FFD1FF080B5
:1033900010826091900370919103600F711FC601BC
:1033A0000E94AA128091900390919103C80FD91F97
:1033B000F882C601DF91CF911F910F91FF90EF909E
:1033C000DF90CF9008953FB7F89480917705909162
:1033D0007805A0917905B0917A0526B5A89B05C01E
:1033E0002F3F19F00196A11DB11D3FBFBA2FA92F84
:1033F000982F8827820F911DA11DB11DBC01CD0101
:1034000043E0660F771F881F991F4A95D1F70895EB
:103410008F929F92AF92BF92CF92DF92EF92FF92E4
:103420006B017C010E94E3194B015C01C114D104C2
:10343000E104F104F1F00E94E319DC01CB018819E9
:103440009909AA09BB09883E9340A105B10570F30B
:1034500021E0C21AD108E108F10888EE880E83E065
:10346000981EA11CB11CC114D104E104F10419F788
:10347000DDCFFF90EF90DF90CF90BF90AF909F9007
:103480008F9008951F920F920FB60F9211242F93D1
:103490003F938F939F93AF93BF93809172059091C9
:1034A0007305A0917405B09175053091760526E0FD
:1034B000230F2D3720F40296A11DB11D05C029E868
:1034C000230F0396A11DB11D2093760580937205ED
:1034D00090937305A0937405B0937505809177055B
:1034E00090917805A0917905B0917A050196A11D7A
:1034F000B11D8093770590937805A0937905B093DB
:103500007A05BF91AF919F918F913F912F910F902D
:103510000FBE0F901F901895CF93DF93CDB7DEB7F6
:10352000C159D1090FB6F894DEBF0FBECDBF789454
:1035300084B5826084BD84B5816084BD85B58260B8
:1035400085BD85B5816085BD80916E008160809369
:103550006E001092810080918100826080938100D2
:1035600080918100816080938100809180008160E2
:10357000809380008091B10084608093B10080913D
:10358000B00081608093B00080917A008460809365
:103590007A0080917A00826080937A0080917A002C
:1035A0008E7F80937A0080917A00806880937A0081
:1035B0001092C100E091FF02F091000382E080834D
:1035C000E091FB02F091FC021082E091FD02F0918B
:1035D000FE0280E1808310920703E0910303F091E3
:1035E000040386E08083E0910103F091020380816F
:1035F00080618083E0910103F09102038081886003
:103600008083E0910103F0910203808180688083D0
:10361000E0910103F091020380818F7D80838CE132
:1036200091E00E9457185298219A259A239A24983B
:10363000229A80E58CBD53982A9A2D9A2B9880E087
:1036400090E00E94C314833339F481E090E00E943B
:10365000C314813209F447C60E94C51480E090E08B
:103660000E94C314833311F00E94431663E380E089
:1036700090E00E94C11461E281E090E00E94C114D8
:103680000E94E71484E191E00E94E8170E94FB1673
:1036900060E881EF0E949216182F8FEF810F8E3F06
:1036A00038F083E091E00E94E8171092960207C07C
:1036B0008FEF90E00E94E81781E08093960287EFF9
:1036C00090E00E94E8176AE070E0812F0E94C31723
:1036D0008BEE90E00E94E81760E880EF0E9492165F
:1036E0000E944918809196021E821D82882399F0BB
:1036F0008AEE91E19C838B838B819C81AD81BE811D
:103700008093660490936704A0936804B09369045F
:103710008DE996E112C08AEE91E19C838B838B81C7
:103720009C81AD81BE818093660490936704A093D1
:103730006804B09369048CEE91E1909365048093E2
:103740006404539A80919C03882321F089ED90E0D2
:103750000E94571862E370E080E090E00E94081A2F
:1037600080E180938100109280008CE89CE390932C
:1037700087008093860082E18093810086E995E14D
:10378000909395028093940281E080936F006EE5A0
:1037900071E080E993E00E945812809196028111B5
:1037A00009C00E94E81680919C03882399F088EC58
:1037B00090E00EC060E888E00E949216823331F4F7
:1037C00060E880E00E9492168D3059F383E890E023
:1037D0000E9457189E012F5F3F4F19018090980259
:1037E000882009F47CC31092980280E090E00E9447
:1037F000D317803549F483E391E00E94761784EE75
:1038000093E00197F1F75EC38F3309F06CC081E05C
:1038100090E00E94D317833589F403E111E0D801C9
:103820008D919D918D010E94D11787EC91E00E94AE
:10383000D117B1E00B311B0791F717C38FE30E943B
:10384000031889E292E00E94E81786E50E940318B7
:1038500080E20E94031882E50E94031880E20E9421
:10386000031884E70E94031880E20E94031888E589
:103870000E94031880E20E94031886E40E94031845
:1038800080E20E94031883E50E94031880E20E94F0
:10389000031880E50E94031880E20E94031883E465
:1038A0000E94031880E20E94031882E70E94031816
:1038B00080E20E94031887E50E94031880E20E94BC
:1038C000031880919602882309F4CFC288E70E94EA
:1038D000031880E20E94031885E60E94031880E224
:1038E0000E940318C2C2863589F486E391E00E94E3
:1038F000D11780919602882321F081E292E00E9404
:10390000E81781E591E00E947617DCC2823589F4E0
:1039100080917B0590917C05009711F48FE795E0ED
:103920006AE070E0F101E81BF90BCF010E94081872
:103930006AC1833509F060C11B820E94B316A12CB5
:10394000B12CDD24DA94C158DF4F1882CF57D04014
:10395000912CF1E0CC57DF4FF883C458D04076E18A
:10396000C72EEBE08E2E7724739464E771E0CE01CE
:1039700081599F4F0E943F1380919403909195032A
:10398000A816B90698F40091900310919103E1965E
:103990006EAD7FADE197C8018A0D9B1D0E94762E0A
:1039A000009721F07C01E01AF10A03C0EE24EA94AA
:1039B000FE2CCE0181599F4F0E943A132FEFE21641
:1039C000F20609F495C43FEFA316B30609F490C4B8
:1039D000C5010E94D317682E80930101C50101968D
:1039E0000E94D317582E8093000143E56416A9F076
:1039F00050E565120BC0C50102960E94D3178D33A6
:103A000009F079C485010D5F1F4F09C08DE358127D
:103A100072C485010E5F1F4F02C000E010E0570125
:103A20009FEFA91AB90AA3E56A121BC0B5E0DB161D
:103A300009F461C4E3E45E1203C09924939495CF22
:103A4000FDE45F1619F022E552128FCFD394F101F5
:103A5000CD9CE00DF11D112411821082758A912CEC
:103A600084CF32E563122BC0992091F0A701B801F1
:103A7000CE0181599F4F0E949F19CE0181599F4FBE
:103A80000E944D12CC57DF4F6883C458D04075C098
:103A90004FEFD41609F469CFA701B801CE018159BF
:103AA0009F4F0E949F19CE0181599F4F0E944D1236
:103AB000F101CD9CE00DF11D1124658B5EC05FEF1F
:103AC000D51609F452CF80E5681232C0A8014150E2
:103AD0005109B80162507109CE0181599F4F0E946E
:103AE0009F19CE0181599F4F0E944D12662ECE0123
:103AF00081599F4F0E943A1398E0961508F4FBC332
:103B0000A701B801CE0181599F4F0E949F19CE0194
:103B100081599F4F0E944D128D9CF0011124E60D9A
:103B2000F11DEE0FFF1FE20DF31D7683658325C0A7
:103B3000A4E46A120CC0F101CD9CE00DF11D11242A
:103B40000283B1E0EB1AF108F482E3820ECFE3E4E2
:103B50006E1219C0A701B801CE0181599F4F0E9472
:103B60009F19CE0181599F4F0E944D12F101CD9CAA
:103B7000E00DF11D112471836083CE0181599F4FA7
:103B80000E943A13F2CEF6E46F12EFCEC501801B0D
:103B9000910B97FD019695958795C158DF4F8883C6
:103BA000CF57D0408150853008F0DFCE809196020B
:103BB000882309F4DACEF12CC8010E94D3170E94A1
:103BC0003417E82EE29430EFE322C80101960E94F8
:103BD000D3170E9434176E2D680F8DE08F0D0E9451
:103BE0008516F3940E5F1F4FC158DF4F2881CF57C2
:103BF000D040F21608F3B9CE843741F40E9447153D
:103C00004AE00E9482170E9472175CC1883599F4BD
:103C100081E090E00E94D317813511F40E94B31621
:103C200081E090E00E94D317853411F00C94FB27BB
:103C30000E94E81647C1863411F40C94FB278334A4
:103C400009F088C081E090E00E94D317182F8734D4
:103C500009F07AC08DEA91E00E94E81780919903FB
:103C60006AE070E090E00E94081888EA91E00E9403
:103C7000E817809197036AE070E090E00E940818CE
:103C800083EA91E00E94E817809198036AE070E06F
:103C900090E00E9408188CE991E00E94E81780915A
:103CA0009A036AE070E090E00E9408188091030196
:103CB000811104C085E991E00E94E81780919B037F
:103CC000882321F085E891E00E94E8178CE791E0D5
:103CD0000E94E81780919C036AE070E090E00E94E7
:103CE000081884E791E00E94E8176AE070E080918C
:103CF0009D030E94C31784E691E00E94E81760913B
:103D0000A1037091A20380E090E04AE00E94821734
:103D100080916204813151F086E591E00E94E817BC
:103D20006AE070E0809162040E94C31780919C0356
:103D3000882309F49AC086E491E00E94E8176AE0BB
:103D400070E0809102015DC08CEB810F823008F041
:103D5000AAC0A1C3873509F08BC081E090E00E9422
:103D6000D317182F833509F032C482E090E00E9407
:103D7000D317833309F02BC480919602882309F46A
:103D800026C483E090E00E94D317182F082E000C61
:103D9000990B0E943F2E892B11F40C94FB27812F45
:103DA0000E94341710E3180F1E3310F00C94FB27F9
:103DB000812F0E94A116F82E61E070E080E090E073
:103DC0000E94081A8DE30E94A116082F88ED91E049
:103DD0000E94E817812F0E9439158BEC91E00E9418
:103DE000E81760E170E08F2D82958F700E94C317F5
:103DF00082EC91E00E94E81760E170E0802F8295EC
:103E00008F700E94C31731C0409194035091950365
:103E100060919003709191038FEE92E00E94E31005
:103E2000C158DF4FA880CF57D040AA20E1F088E2E8
:103E300091E00E94E8170FE010E0F12CC8010E9409
:103E4000C314E82E0E9439156E2D8DE08F0D0E944F
:103E50008516F3940F5F1F4FC158DF4FB880CF57BF
:103E6000D040BF10EBCF0E94E81688E892E04BCD1F
:103E7000823709F024C481E090E00E94D317082E15
:103E8000000C990B0E943F2E892BC1F082E090E03C
:103E90000E94D317082E000C990B0E943F2E892BED
:103EA00009F04EC40BC0133509F42AC2812F110F3B
:103EB000990B0E943F2E892B09F0DCC286EE91E01F
:103EC0000E94571880919802882311F40C94FB27C4
:103ED00080910301882319F081E08093970210926A
:103EE000A30301E080916B04882309F4F9C1809158
:103EF0006B04815080936B0480916D0460916A041F
:103F00000E94F22C90936D04E0916D0481E08E0F7D
:103F100080936D04F0E0EE0FFF1FE259FB4F8081AC
:103F2000918190939A028093990210923904609142
:103F300036046623E9F070E0615071098CEA93E081
:103F40000E9421148091310490E0880F991F845BB6
:103F50009B4F9093470480934604E0914404F09172
:103F6000450480819181909335048093340404C08A
:103F700010924704109246042091990230919A02BF
:103F8000E0914404F091450431832083809136040C
:103F9000882379F0E0914604F0914704309749F086
:103FA0004081518142275327952F991F9927991FA7
:103FB00001C091E02115334814F091112AC01AE094
:103FC00080E00E94FA0180913604811105C01092B0
:103FD00047041092460404C0115091F70E946318E0
:103FE00010929E0310929F0320915D04E09144047F
:103FF000F091450480819181E22FF0E0EE0FFF1FE8
:10400000E45BFB4F918380832F5F20935D0410E07E
:104010001DC18E3F70F081E00E94FA018091A003E3
:1040200081113BC040E060E086E993E00E945F14AC
:1040300034C0883291F583E090E090933F04809300
:104040003E048091640490916504009751F420919E
:10405000660430916704232B21F42091680420FF2B
:104060001CC0E0916604F09167044091680450918F
:1040700069049A013595279540FF0AC0DC01A20F1B
:10408000B31F4D915C91E40FF51F0190F081E02D7D
:10409000820F931F099580936304C0904404D090CD
:1040A0004504D601ED90FC90B701F7FE04C06627E9
:1040B00077276E197F09072E000C880B990B0E9439
:1040C0004C2A2DEC3CEC4CE45EE30E94AB2A0E94AF
:1040D000B92C9B0170933D0460933C0460915C0497
:1040E000ACE4B4E0E6E9F3E010E06117E1F08D91B3
:1040F0009D91A7014827592757FD12C0009781F0CD
:104100004685442369F05701A81AB90AC501B7FECC
:1041100003C0919581959109281739070CF05DC36B
:104120001F5F3196E2CF1FEF8091A003882321F01B
:1041300082E00E94FA018AC0683009F062C0E09112
:104140005D04F0E0EA56FC4F8685833050F18091A3
:104150003E0490913F04181619061CF51AE0F12C44
:104160008091A303882321F01092A303FF24F394EA
:1041700082E00E94FA0180913604883230F080910A
:10418000A303882311F0115059F710929E03109247
:104190009F03F092A30340E060E086E993E00E9471
:1041A0005F1410913604112361F1E0915D04F0E099
:1041B000EA56FC4F8685882321F1612F70E061501B
:1041C00071098CEA93E00E9421149091310480914E
:1041D0005D0498130AC0812F0E94AA1840E060E095
:1041E00086E993E00E945F140CC0113041F4809185
:1041F00036048E3F20F08EEB92E00E94571811504B
:10420000E1F610915D04E0914404F0914504808151
:104210009181E12FF0E0EE0FFF1FE45BFB4F9183F4
:10422000808381E0810F883019F080935D0406C09F
:1042300010925D0480935C0410925F0480915D0491
:1042400090915C04981710F480935C04612F809126
:104250002D0490912C048730B1F49923A1F0E091C2
:104260002B044E2F50E02091300430E021503109D2
:10427000421753070CF012C3EF5FE0932B04F0E0FA
:10428000EA56FC4F168A70912E04472F50E0282FD3
:1042900030E02F5F3F4F241B350B121613062CF412
:1042A000612F01C0660F2A95EAF7E0912B04F0E038
:1042B000EA56FC4F2689622B668B9F5F90932C04F5
:1042C000282F082E000C330B241B350B37FD04C0A0
:1042D000871B80932D04AAC2B7E0B0932D04A6C219
:1042E0000E9434137BCA88E690E00E945718C8C920
:1042F0008B818111D7C48AE391E00E94E817B3CD86
:1043000061E472E0C1010E943F1380919403909197
:104310009503059788F000919003109191036981AE
:104320007A81C80104960E94762E009729F0DC015C
:10433000A01BB10B8D0102C00FEF1FEFC1010E9446
:104340003A1383E1A82E81E0B82EE12CF12C11273D
:104350007E2CF501C190D1905F01A80162E070E070
:10436000C1010E949F198D819E81892B69F4C1141E
:10437000D10439F081E0D6019C91992319F080E0B5
:1043800001C0882D982E14C089819A81C114D1044E
:1043900039F499249394FC018081882349F007C063
:1043A000B6010E94662E99249394892B09F0912CD2
:1043B000C1010E943A13992009F44AC0C6010E9423
:1043C000D11781E492E00E94D1174091940350915B
:1043D0009503B8016F5F7F4FF3E0C1017F121FC0EB
:1043E0000E949F19C1010E944D127093A203609315
:1043F000A103C1010E943A136091A20383EF90E0F0
:104400000E94C1146091A10384EF90E00E94C11446
:104410006091A1037091A20380E090E0F1CB0E9433
:104420009F19C1010E944D12162FC1010E943A131B
:10443000812F0E944918F701E25FFE4F8081612FB2
:1044400090E00E94C11471100CC0109302013ACD8B
:104450002FEFE21AF20A34E0E316F10409F078CF04
:1044600004CD41E0741203C0109362042BCD10936D
:104470009D0328CD82E090E00E94D317082E000C07
:10448000990B0E943F2E892B09F418CD809196023A
:1044900081111DC013CD82E090E00E94D3178335B7
:1044A00009F4D1C5853509F4AEC5833409F4AEC528
:1044B000823509F4AEC5843409F4B2C58C3409F4EC
:1044C000B6C58F3409F0C5C5EBE9F3E0B7C581E0A7
:1044D0000E944817182F83E090E00E94D3178E3671
:1044E00069F484E090E00E94D317082F082E000C96
:1044F000990B0E943F2E892B09F0BAC01E33A8F4F5
:104500001F3210F460E801C060EC812F0E94921607
:10451000082F84E292E00E94D117812F0E94391562
:1045200080E991E00E94D1179FC01E3349F58BEBC3
:1045300091E00E94E8172A981C99FECF8EEF0E9406
:1045400068168E010F5F1F4F6E0159E0C50ED11C1A
:10455000780180E00E946816D7018D937D01AC152B
:10456000BD05B9F72A9AF80181918F010E9439158A
:1045700087EC91E00E94D1170C151D05A1F775CCB1
:10458000193909F038C510E0112341F0103111F04C
:10459000103279F487EC91E00E94D11784EB91E01E
:1045A0000E94E817812F0E94391581EB91E00E944B
:1045B000E81760E8812F0E9492160E94391587EC57
:1045C00091E00E94D1171F5F1F32F1F64ECC812F70
:1045D000110F990B0E943F2E892B09F46FCC82E0BA
:1045E00090E00E94D317082E000C990B0E943F2EDA
:1045F000892B09F463CC83E090E00E94D317082E46
:10460000000C990B0E943F2E892B09F457CC84E0B3
:1046100090E00E94D317082E000C990B0E943F2EA9
:10462000892B09F44BCC81E00E944817182F83E0B6
:104630000E944817082F682F812F90E00E94C11414
:1046400080919602882309F43DCC8EEF810F8E3342
:1046500008F038CC602F0E94851684E991E00E9412
:10466000D117812F0E943915802F0E943915FDCB5B
:10467000802F0E943417082F1F3208F0BCC484E238
:1046800092E00E94D117812F0E94391587EA91E0AC
:104690000E94D1170E5F802F0E94391581E492E0AD
:1046A0000E94D117F12CF01608F0DFCB60E8812FC3
:1046B0008F0D0E9492160E943915F394F4CF88371B
:1046C00009F073C081E090E00E94D317082E000C1F
:1046D000990B0E943F2E892B09F4F0CB82E090E0E9
:1046E0000E94D317082E000C990B0E943F2E892B95
:1046F00009F4E4CB80919602882309F4DFCB81E0B2
:104700000E944817F82E00E310E0013321F46F2DCA
:1047100081E390E002C060E0C8010E94C1140F5F15
:104720001F4F0833110589F70E946E168BE092E047
:104730000E94E8178F2D0E9439158AEF91E0C0CBB7
:1047400081E00E944817082F89E192E00E94E81753
:10475000802F0E94391583E090E00E94D31710E06B
:104760008E36C9F486E192E00E94E817E12CF12C24
:1047700087EC91E00E94D117C8018E0D9F1D0E9409
:10478000C3140E943915FFEFEF1AFF0A20E1E21669
:10479000F10471F76ACB82E192E00E94E817C80148
:1047A0000E94C3140E94391560CB853609F086CB70
:1047B00081E090E00E94D317833429F40E94C5144D
:1047C0000E94E7147FCB80919602882309F476CB70
:1047D0000E9443160E94FB1675CB17FDA5CC812FB6
:1047E000880F990B9C01245B3B4F7901D9016D9196
:1047F0007C91AB01770F660B770BF601808191817D
:10480000092E000CAA0BBB0B5A016B01A80EB91E96
:10481000CA1EDB1EC601B50122E030E040E050E0D8
:104820000E94482DD7012D933C9310CD80913604E2
:104830008F5F80933604E0914404F09145048081B9
:1048400091819093330480933204E12F110FFF0B79
:10485000EA56FC4F86858F5F868780919C0388236C
:1048600089F08091A303882369F010916B048091F3
:104870000201811738F48DEC92E00E94E817812F35
:104880000E9449188091A303882329F08091030195
:104890008111009397021092A30324CB89EB92E03D
:1048A0000E94E8176AE070E0812F0E94C3178FEA28
:1048B00092E00E94E8176AE070E080912B040E9469
:1048C000C3178BE992E00E94571881EE91E00E9495
:1048D000D117E0915E04E7FDD4C0EE0FFF0BE45B5F
:1048E000FB4F6AE070E0808191810E94081886E9A0
:1048F00091E00E94D117E0915E04EE0FFF0BE45BA4
:10490000FB4F60817181072E000C880B990B0E9470
:104910004C2A6B017C01E0919603EE0FFF0BE45BE8
:10492000FB4F60817181072E000C880B990B0E9450
:104930004C2A9B01AC01C701B6010E94402C6B01BF
:104940007C014B015C019B01AC010E94ED2C882392
:1049500019F085EA91E01AC026013701E89477F84A
:104960002FEF3FEF4FE75FE7C301B2010E94ED2C4D
:1049700081110FC02FEF3FEF4FE75FE7C301B20197
:104980000E94452A18162CF489EA91E00E946017CB
:1049900074C02FEF3FEF4FE75FE4C701B6010E94FD
:1049A000E82C18161CF48DEA91E0F0CF2FEF3FEFC2
:1049B0004FE75FECC701B6010E94452A87FDF3CFA0
:1049C00020E030E0A901C701B6010E94452A87FF17
:1049D00009C08DE20E94031846015701B7FAB0944E
:1049E000B7F8B0942AE037ED43EA5BE3C501B401C0
:1049F0000E94D42B4B015C010E94B92C6B017C01FD
:104A00000E944A2A9B01AC01C501B4010E94D32B2C
:104A10004B015C014AE0C701B6010E9482178EE299
:104A20000E94031820E030E040E251E4C501B401E7
:104A30000E94AB2A4B015C010E94B92C6B01E12C56
:104A4000F12C4AE0C701B6010E948217C701B601E6
:104A50000E944A2A9B01AC01C501B4010E94D32BDC
:104A600020E030E040E251E40E94AB2A0E94B92CE1
:104A700080E090E04AE00E94821781EB91E00E9482
:104A8000D11783EB91E00E94D117E0919603E7FDE7
:104A90000BC0EE0FFF0BE45BFB4F6AE070E0808120
:104AA00091810E94081804C08CEB91E00E94D117FC
:104AB0008FE892E00E94E8176AE070E080915C0461
:104AC0000E94C31781EC91E00E94D1176AE070E068
:104AD00080915D040E94C31784EC91E00E94D1177D
:104AE0008BE792E00E94E817E0914404F0914504BE
:104AF0006AE070E0808191810E94081886EC91E064
:104B00000E94D117E0914604F09147046AE070E0FA
:104B1000808191810E94081886EC91E00E94D11753
:104B20006AE070E080913204909133040E9408188A
:104B300086EC91E00E94D1176AE070E08091340425
:104B4000909135040E94081880E792E00E94E817CF
:104B50006AE070E0809137040E94C31787E692E014
:104B60000E94E8176AE070E0809138040E94C31741
:104B70008CE592E00E94E8176AE070E080912C04D6
:104B80000E94C31784E592E00E94E81780915F04B9
:104B90006AE070E090E00E94081889E492E00E94C8
:104BA000E81780913A046AE070E090E00E940818EB
:104BB0008FE392E00E94E8176AE070E080913E0483
:104BC00090913F040E9408180E94721786E392E0B9
:104BD0000E94E817F12C80913604F81688F46F2DA6
:104BE00070E08CEA93E00E942114809131046AE025
:104BF00070E0082E000C990B0E940818F394EBCF7C
:104C000089EC91E00E94D1178CEC91E00E94D117C1
:104C10006AE070E0809136040E94C3178FEC91E047
:104C20000E94761781ED91E00E94D117D12C8091DE
:104C30005C04D81670F58BED91E00E94D1176AE004
:104C400070E08D2D0E94C31785EE91E00E94D11770
:104C5000ED2CF12CF701EA56FC4F6AE070E08685F6
:104C60000E94C3178EED91E00E94D117F701EE0F5D
:104C7000FF1FE45BFB4F80819181009721F06AE088
:104C800070E00E9408188FEC91E00E94D117D39435
:104C9000CECF88E892E00E94761788E892E00E94E2
:104CA0007617C9CD809196028823B9F08BE30E94D4
:104CB000A1160E94AA161EEF1F3F79F085E30E94FD
:104CC000A1160FEF010F8077803209F08CC111110E
:104CD00004C086E791E00E947617E9961FAEE99737
:104CE000CC57DF4FA880C458D040E996BFACE997B5
:104CF000AB1409F489C8E8961FAEE89726E1C22EE6
:104D0000E896AFACE897CA9CC0011124F101E80F06
:104D1000F91F20813181232B11F110E09F012B5EBF
:104D20003F4FC457DF4F39832883CC58D040EF968C
:104D3000FFAFEEAFEF973396C257DF4FF983E883AB
:104D4000CE58D040EF964EAD5FADEF974E5F5F4FC0
:104D5000C057DF4F59834883C059D040B6C0C12CDB
:104D6000DF015596EB96BFAFAEAFEB9705965101BD
:104D7000A80EB91EED96BFAEAEAEED979F012D5FAA
:104D80003F4FEF963FAF2EAFEF97AF014E5F5F4FB4
:104D9000C058DF4F59834883C058D040EB96AEAD22
:104DA000BFADEB978C91C81608F00AC1EF96EEAD37
:104DB000FFADEF9780809180C058DF4FA881B98107
:104DC000C058D0400C910E94E3192B013C0110E027
:104DD0008016910660F1C8010E94D3178053ED96AA
:104DE000EEADFFADED97E80FF11DE80FF11DA080CE
:104DF000B1807501B7FE04C0EE24FF24EA18FB0859
:104E00000E94E3196415750586059705C8F3B7FE7A
:104E100002C05B9801C05B9AC701FF0CAA0BBB0BD9
:104E2000480E591E6A1E7B1E0F5F1F4FD1CF0E9476
:104E3000E3196415750586059705C8F3C394AECFCD
:104E4000112331F061E070E080E090E00E94081AE8
:104E5000EF96AEADBFADEF97ED90FC90C257DF4F30
:104E6000E881F981CE58D040F081CB57DF4FF883ED
:104E7000C558D040C057DF4FA881B981C059D04034
:104E8000CC900E94E3194B015C019701FF0C440B8D
:104E9000550BC058DF4F288339834A835B83C05842
:104EA000D040220F331F441F551FCA57DF4F28839E
:104EB00039834A835B83C658D040CB57DF4F388154
:104EC000C558D0403C1560F41F5FC457DF4FE881E0
:104ED000F981CC58D0408081181708F4B1CF70C048
:104EE0008C2D90E00E94D3178A3314F490E301C014
:104EF00097E3891B44E050E0EB965FAF4EAFEB9732
:104F000058E0EC965FAFEC97A82F880FBB0BC65705
:104F1000DF4FB983A883CA58D0402401350100E08F
:104F2000EC96BFADEC97EB2EF12CC657DF4FE88126
:104F3000F981CA58D040EE22FF22011104C0E114C9
:104F4000F10421F405C0E114F10411F45B9801C0EF
:104F50005B9AC058DF4F288139814A815B81C058F4
:104F6000D040420E531E641E751E0E94E319641544
:104F7000750586059705C8F30F5F0230F1F6CA572D
:104F8000DF4F88819981AA81BB81C658D040880EA5
:104F9000991EAA1EBB1EEC969FADEC979695EC96BB
:104FA0009FAFEC97EB96AEADBFADEB971197EB963D
:104FB000BFAFAEAFEB97AB2B09F0AFCFC3947DCFB4
:104FC0005B98E896BFADE897BF5FE896BFAFE897FC
:104FD000DB1608F093CEE996EFADE997EF5FE9961F
:104FE000EFAFE9977DCE61E070E080E090E00E9455
:104FF000081A102F61CE68E872E080E993E00E9401
:10500000AA120C94681FE7E9F3E018C028E933E01E
:105010001CC04AE953E0E7965FAF4EAFE79719C06F
:105020008CE993E0E7969FAF8EAFE79712C0A3E0BD
:10503000B1E0E796BFAFAEAFE7970BC0E796FFAF23
:10504000EEAFE79706C029E933E0E7963FAF2EAF12
:10505000E797153439F481E0E796AEADBFADE79739
:105060008C9305C0E796EEADFFADE7971082609197
:105070009703660F809199038068682B909198033D
:10508000F4E09F9FC0011124682B90919A0328E0BF
:10509000929FF00111246E2B90919C0330E1939F1D
:1050A000A0011124642B9091030140E2949F900190
:1050B0001124622B90919B0350E4959FC001112411
:1050C000682B8FEF90E00E94C1140C94621F80E95E
:1050D00093E00C943A13CF93DF93EFEEF2E0138258
:1050E000128288EE93E0A0E0B0E084839583A683EB
:1050F000B78385E291E09183808385EC90E095878A
:10510000848784EC90E09787868780EC90E0918B91
:10511000808B81EC90E0938B828B82EC90E0958B7E
:10512000848B86EC90E0978B868B118E128E138E7B
:10513000148EEAE6F4E082E8808311821382128200
:10514000C6E9D3E08FE78093300484E080932E0497
:105150001E8A10922B0410922C0487E080932D0459
:1051600080EF80932F04E0E4F4E0F0934504E093B3
:10517000440482E494E090934704809346041092A0
:1051800065041092640410926704109266041092F1
:10519000690410926804118210820E94631881E1F0
:1051A00080936204188619861A8668E872E080E99E
:1051B00093E00E943F130E94E31960938C03709365
:1051C0008D0380938E0390938F03DF91CF91089589
:1051D0000F931F93CF93DF938230910510F482E0F9
:1051E00090E0E0917D05F0917E0520E030E0A0E0C8
:1051F000B0E0309719F14081518102811381481745
:105200005907C8F08417950769F4109731F0129682
:105210000C93129713961C9327C000937D0510934F
:105220007E0522C02115310519F04217530718F4E5
:105230009A01BD01EF01DF01F801DBCF2115310536
:10524000F9F0281B390B2430310580F48A819B81C9
:105250006115710521F0FB019383828304C0909353
:105260007E0580937D05FE01329644C0FE01E20F6B
:10527000F31F8193919322503109398328833AC0D7
:1052800020917B0530917C05232B41F420910A016C
:1052900030910B0130937C0520937B052091080110
:1052A000309109012115310541F42DB73EB74091E8
:1052B0000C0150910D01241B350BE0917B05F09101
:1052C0007C05E217F307A0F42E1B3F0B28173907C4
:1052D00078F0AC014E5F5F4F2417350748F04E0F52
:1052E0005F1F50937C0540937B058193919302C08F
:1052F000E0E0F0E0CF01DF91CF911F910F91089591
:10530000CF93DF93009709F481C0FC013297138299
:105310001282A0917D05B0917E05109781F42081C5
:105320003181820F931F20917B0530917C052817D6
:10533000390751F5F0937C05E0937B0567C0ED01DB
:1053400020E030E0CE17DF0740F44A815B819E0108
:1053500041155105F1F0EA01F5CFD383C2834081B5
:105360005181840F951FC817D90759F488819981F5
:10537000840F951F0296918380838A819B819383FA
:1053800082832115310529F4F0937E05E0937D0594
:105390003DC0E901FB83EA8349915991C40FD51FB0
:1053A000EC17FD0761F480819181840F951F0296AF
:1053B000E90199838883828193819B838A83E0E0DA
:1053C000F0E012968D919C911397009719F0FD01D2
:1053D000DC01F7CF8D919C9111979D012E5F3F4F7E
:1053E000820F931F20917B0530917C052817390788
:1053F00069F4309729F410927E0510927D0502C061
:1054000013821282B0937C05A0937B05DF91CF912C
:1054100008951F93FC0199278827BC01E8941191F6
:105420001032E9F3193010F01E30C8F31B3251F07E
:105430001D3249F4689406C00E94302A610F711D24
:10544000811D911D119110531A30B0F33EF49095C7
:105450008095709561957F4F8F4F9F4F1F91089555
:10546000592F482F372F262F660F771F881F991F18
:10547000660F771F881F991F620F731F841F951F68
:10548000660F771F881F991F08950E94872A08F4C6
:1054900081E00895E89409C097FB3EF490958095CB
:1054A000709561957F4F8F4F9F4F9923A9F0F92FEA
:1054B00096E9BB279395F695879577956795B79568
:1054C000F111F8CFFAF4BB0F11F460FF1BC06F5F4E
:1054D0007F4F8F4F9F4F16C0882311F096E911C060
:1054E000772321F09EE8872F762F05C0662371F081
:1054F00096E8862F70E060E02AF09A95660F771F95
:10550000881FDAF7880F9695879597F90895990F70
:105510000008550FAA0BE0E8FEEF16161706E8077D
:10552000F907C0F012161306E407F50798F0621B9E
:10553000730B840B950B39F40A2661F0232B242B73
:10554000252B21F408950A2609F4A140A6958FEF92
:10555000811D811D08950E94BE2A0C94322B0E9449
:10556000242B38F00E942B2B20F0952311F00C9463
:105570001B2B0C94212B11240C94662B0E94432B83
:1055800070F3959FC1F3950F50E0551F629FF00196
:10559000729FBB27F00DB11D639FAA27F00DB11DAF
:1055A000AA1F649F6627B00DA11D661F829F222738
:1055B000B00DA11D621F739FB00DA11D621F839FBF
:1055C000A00D611D221F749F3327A00D611D231F95
:1055D000849F600D211D822F762F6A2F11249F57E3
:1055E00050409AF0F1F088234AF0EE0FFF1FBB1FE6
:1055F000661F771F881F91505040A9F79E3F5105A5
:1056000080F00C941B2B0C94662B5F3FE4F3983EC8
:10561000D4F3869577956795B795F795E7959F5F4E
:10562000C1F7FE2B880F911D9695879597F90895E0
:1056300099278827089597F99F6780E870E060E0D0
:1056400008959FEF80EC089500240A94161617061B
:1056500018060906089500240A9412161306140663
:1056600005060895092E0394000C11F4882352F0C6
:10567000BB0F40F4BF2B11F460FF04C06F5F7F4F7E
:105680008F4F9F4F089557FD9058440F551F59F065
:105690005F3F71F04795880F97FB991F61F09F3F1F
:1056A00079F087950895121613061406551FF2CF48
:1056B0004695F1DF08C0161617061806991FF1CF98
:1056C00086957105610508940895E894BB276627BF
:1056D0007727CB0197F90895F999FECF92BD81BD47
:1056E000F89A992780B50895262FF999FECF1FBA09
:1056F00092BD81BD20BD0FB6F894FA9AF99A0FBEFB
:10570000019608950E94C42BA59F900DB49F900D03
:10571000A49F800D911D112408952F923F924F92C6
:105720005F926F927F928F929F92AF92BF92CF9231
:10573000DF92EF92FF920F931F93CF93DF93CDB73A
:10574000DEB7CA1BDB0B0FB6F894DEBF0FBECDBFB2
:1057500009942A88398848885F846E847D848C8483
:105760009B84AA84B984C884DF80EE80FD800C818C
:105770001B81AA81B981CE0FD11D0FB6F894DEBF6F
:105780000FBECDBFED010895A29FB001B39FC00130
:10579000A39F700D811D1124911DB29F700D811D5D
:1057A0001124911D08955058BB27AA270E94EB2B66
:1057B0000C94322B0E94242B38F00E942B2B20F0CB
:1057C00039F49F3F19F426F40C94212B0EF4E09544
:1057D000E7FB0C941B2BE92F0E94432B58F3BA17BD
:1057E000620773078407950720F079F4A6F50C94F7
:1057F000652B0EF4E0950B2EBA2FA02D0B01B901ED
:1058000090010C01CA01A0011124FF27591B99F036
:10581000593F50F4503E68F11A16F040A22F232F42
:10582000342F4427585FF3CF469537952795A79592
:10583000F0405395C9F77EF41F16BA0B620B730B39
:10584000840BBAF09150A1F0FF0FBB1F661F771FAA
:10585000881FC2F70EC0BA0F621F731F841F48F45F
:10586000879577956795B795F7959E3F08F0B0CFE8
:105870009395880F08F09927EE0F979587950895CF
:105880000E94542C0C94322B0E942B2B58F00E9417
:10589000242B40F029F45F3F29F00C941B2B51116D
:1058A0000C94662B0C94212B0E94432B68F39923B4
:1058B000B1F3552391F3951B550BBB27AA2762170C
:1058C0007307840738F09F5F5F4F220F331F441F19
:1058D000AA1FA9F335D00E2E3AF0E0E832D091504D
:1058E0005040E695001CCAF72BD0FE2F29D0660F3A
:1058F000771F881FBB1F261737074807AB07B0E87D
:1059000009F0BB0B802DBF01FF2793585F4F3AF082
:105910009E3F510578F00C941B2B0C94662B5F3F37
:10592000E4F3983ED4F3869577956795B795F79508
:105930009F5FC9F7880F911D9695879597F90895F0
:10594000E1E0660F771F881FBB1F6217730784078C
:10595000BA0720F0621B730B840BBA0BEE1F88F79B
:10596000E09508950E94B92C6894B1110C94662BAF
:1059700008950E944B2B88F09F5798F0B92F9927D4
:10598000B751B0F0E1F0660F771F881F991F1AF02A
:10599000BA95C9F714C0B13091F00E94652BB1E0FF
:1059A00008950C94652B672F782F8827B85F39F0FE
:1059B000B93FCCF3869577956795B395D9F73EF4C3
:1059C00090958095709561957F4F8F4F9F4F08956B
:1059D0000E94872A08F48FEF08950E94872A880B77
:1059E000990B0895991B79E004C0991F961708F048
:1059F000961B881F7A95C9F780950895AA1BBB1B33
:105A000051E107C0AA1FBB1FA617B70710F0A61BBE
:105A1000B70B881F991F5A95A9F780959095BC01DF
:105A2000CD01089597FB072E16F4009407D077FD5B
:105A300009D00E94FE2C07FC05D03EF4909581957C
:105A40009F4F0895709561957F4F0895A1E21A2E9A
:105A5000AA1BBB1BFD010DC0AA1FBB1FEE1FFF1F12
:105A6000A217B307E407F50720F0A21BB30BE40B62
:105A7000F50B661F771F881F991F1A9469F76095A9
:105A80007095809590959B01AC01BD01CF01089563
:105A9000052E97FB1EF400940E945F2D57FD07D042
:105AA0000E94262D07FC03D04EF40C945F2D5095D8
:105AB0004095309521953F4F4F4F5F4F08959095FA
:105AC0008095709561957F4F8F4F9F4F08950E94ED
:105AD000C42BB7FF0895821B930B0895EE0FFF1F91
