:100000000C94E6010C942A150C9403150C940E0222
:100010000C940E020C940E020C940E020C940E0220
:100020000C940E020C940E020C940E020C940E0210
:100030000C940E020C9451150C940E020C940E02AA
:100040000C94B9140C940E020C9438130C941213E3
:100050000C940E020C940E020C940E020C940E02E0
:100060000C940E020C940E02496E69742065657042
:10007000726F6D20746F2064656661756C74732097
:10008000616674657220666C6173680052656164B4
:10009000696E672076616C7565732066726F6D207E
:1000A000656570726F6D0063633131303120697343
:1000B000206E6F7420636F72726563746C79207345
:1000C00065742E20506C6561736520646F2061201B
:1000D000666163746F7279207265736574207669E6
:1000E0006120636F6D6D616E64206500726563658C
:1000F0006976657220656E61626C65640053746137
:100100007274696E672074696D65726A6F6200202F
:100110006363506172746E756D3D00206363566554
:10012000723D006F6B2E006E6F2043433131787843
:1001300020666F756E6421004343496E6974200028
:100140005573696E6720734649464F006363726555
:1001500067207772697465206261636B2000736544
:100160006E64206661696C6564003B4D646562463F
:1001700069666F4C696D69743D003B6D634D696ED6
:100180004269744C656E3D003B4D7553706C6974EB
:100190005468726573683D005F4D53636E743D0033
:1001A0003B4D64656275673D003B4D66696C743D0F
:1001B00031003B4C45443D30003B4D7265643D0091
:1001C0003B4D433D003B4D553D004D533D002043CD
:1001D000536574003A2000636372656720004333FF
:1001E00045203D20002064656C617931200020634A
:1001F0006869705374617475732000636D6453741F
:10020000726F62655265672000556E737570706F0E
:100210007274656420636F6D6D616E640020746F2D
:100220002050415441424C4520646F6E6500577226
:100230006974652000203D2000203A004545505259
:100240004F4D2000556E737570706F727465642029
:10025000636F6D6D616E6400556E737570706F7253
:1002600074656420636F6D6D616E6400636331312A
:100270003031200020557365206F6E65206F662039
:10028000005369676E616C3A20002C2073746174AE
:10029000653A20002C206D7472756E633A20002C34
:1002A000204D43443A20002C2076616C636E743AF2
:1002B00020002C206D656E643A20002C206D537454
:1002C0006172743A20002C2050756C73653A204698
:1002D0002F4C2F464C2F4C5020002C205061747412
:1002E0004C656E3A20002061646444617461206F43
:1002F000766572666C6F7721210020627974656380
:100300006E743D0076616C3D00206D62206E6D2044
:10031000622070726F6320004D443D006D4F766522
:1003200072666C6F772673746174653D3021000DC1
:100330002E2D07D3913D04320000060010B07157F6
:10034000C43023B900070018146C070090876BF8BD
:100350005611E92A001F4100000000002500280076
:100360002B00040404040404040402020202020236
:100370000303030303030102040810204080010269
:1003800004081020010204081020000000080002E8
:100390000100000304070000000000000000636D7E
:1003A0006420746F206C6F6E67210020737461721B
:1003B000743D0020627566664D6F7665206F7665C8
:1003C00072666C6F77210000FE28FA2811241FBE88
:1003D000CFEFD8E0DEBFCDBF12E0A0E0B1E0ECEAA5
:1003E000F3E602C005900D92AE38B107D9F725E0CB
:1003F000AEE8B2E001C01D92AD33B207E1F711E003
:10040000C5EED1E004C02197FE010E94022EC43E39
:10041000D107C9F70E94FB190C94C9310C94000054
:100420002F923F924F925F926F927F928F929F9204
:10043000AF92BF92CF92DF92EF92FF920F931F93F2
:10044000CF93DF93CDB7DEB7E7970FB6F894DEBF53
:100450000FBECDBF882E882321F081E080933D041C
:1004600002C010923D048091620490913904811180
:1004700004C0983210F40C94500F10923C0481E0A8
:100480009E3F09F080E080933E0440E060E08AE90E
:1004900093E00E94B815F12C2F2C312CE0905F04D2
:1004A0008E2D90E00197281639060CF007C1F10156
:1004B000E656FC4FCF010D962585F394222361F378
:1004C000EF2C9101220F331FA901415B5B4F5C8F21
:1004D0004B8F9E8F8D8F58A34F8F80915F04E816AE
:1004E000D8F62E2D30E0B90166567C4F788F6F8B91
:1004F000DB011D968C91882309F4DEC0EB8DFC8D09
:10050000008111815901AA0CBB1CF501E15BFB4F75
:1005100060817181CB018027912797FDCDC04090EC
:100520004B0450904C0460904D0470904E046B014D
:10053000C01AD10AD7FE03C0D194C194D10877FF65
:1005400003C0719561957109072E000C880B990BFA
:100550000E94EB2AA30192010E944A2B69A37AA36D
:100560008BA39CA3B80117FF03C071956195710916
:10057000072E000C880B990B0E94EB2AA301920115
:100580000E944A2B9B01AC0169A17AA18BA19CA17D
:100590000E94682C20E030E040E05FE30E944A2B9C
:1005A0000E94462D6C157D050CF486C0D12CC12C03
:1005B0000F89188D035F1F4F80913904D81608F0FA
:1005C00041C0D8018C91C816E8F56D2D70E08FEA16
:1005D00093E00E947815809134048E1131C080918F
:1005E0003104482F50E0D89EC0011124FC0123E0C3
:1005F000F695E7952A95E1F720913304E217F8F490
:10060000FF27E656FC4F2091320430E0877099278F
:10061000082E02C0359527950A94E2F72095358972
:10062000232368E070E0641B750BAB01481B590B7A
:10063000C10101C0880F4A95EAF7282B258BC39486
:10064000D394BACFED8DFE8D1081AF89B88D1D96F4
:100650000C91EF8DF8A1A081B1819501215B3B4FF9
:100660006901F901A080B180E12FF0E09F010E94B3
:10067000FB2D2B013C01402F50E09A01D5010E9437
:10068000FB2D640D751D861D971DE40FF51F9F0141
:10069000FF0F440B550B0E94DC2DAF8DB8A12D939D
:1006A0003C93100FED8DFE8D1083AF89B88D1D9694
:1006B0001C92F60111821082E3940FCF1092420433
:1006C000109241048FEF80939A03F0903904BFE4B5
:1006D000AB2EB4E0BB2E00E010E0CC24CA94DC2C9E
:1006E0004F2C512C612C712C0E1508F061C0FFEFBE
:1006F000CF16DF0631F5D5018D919C9197FD21C074
:10070000F801E656FC4F658570E080E090E00E94BD
:10071000EB2A6F8B788F898F9A8FC301B2010E9469
:10072000EB2A2BE734E14EE25EE30E944A2B9B0169
:10073000AC016F89788D898D9A8D0E947C2D181659
:1007400084F1F5018081918197FD2CC0F601EE0FB7
:10075000FF1FE15BFB4F208131818217930714F566
:10076000F801E656FC4F658570E080E090E00E945D
:10077000EB2A6F8B788F898F9A8FC301B2010E9409
:10078000EB2A2BE734E14EE25EE30E944A2B9B0109
:10079000AC016F89788D898D9A8D0E947C2D1816F9
:1007A0000CF468010F5F1F4FF2E0AF0EB11C9CCF3D
:1007B0002FEFC216D20641F0C0929A0381E090E07A
:1007C00090934204809341048091410490914204AB
:1007D000019709F0A3C080919D03882309F49EC06E
:1007E0008091640481119AC08F2D90E08C3891051E
:1007F0001CF438EDF30E02C0E4E6FE2EEA9476E037
:10080000772E7FEFE71609F487C00E2D0E2C000C13
:10081000110BF801E656FC4F4585442309F47AC0D4
:10082000F801EE0FFF1FE15BFB4F2081318137FFA5
:1008300071C0319521953109283652E435070CF005
:1008400069C0E0919A03EE0FFF0BE15BFB4F019053
:10085000F081E02DC901BF010E94922D683271051F
:1008600008F058C07E9EC0017F9E900D1124821713
:10087000930708F04FC0642F70E080E090E00E9482
:10088000EB2A5B016C016091390470E080E090E03C
:100890000E94EB2A2AE037ED43EA5DE30E944A2BEF
:1008A0009B01AC01C601B5010E94E42A87FF32C05A
:1008B000A12CB12CAF1470F565016FEFC61AD60AE2
:1008C000B6018FEA93E00E9478158091340490E09D
:1008D0008017910711F00C94590FB5018FEA93E03E
:1008E0000E9478152091340430E080919A03082EFC
:1008F000000C990B2817390711F00C94590FE0924E
:10090000610482E090E09093420480934104A092BD
:100910003A0404C0EA9475CFE092610480914104E6
:1009200090914204029709F040C2809139048832C4
:1009300008F43BC280913A048E5F80933B0460913F
:100940003B0470E08091390490E0019768177907C3
:1009500044F56F5F7F4F8FEA93E00E9478152091F6
:10096000340430E080916104082E000C990B2817A4
:100970003907A1F460913B0470E08FEA93E00E9494
:1009800078152091340430E080919A03082E000CF1
:10099000990B2817390711F40C945C0F80913B04D4
:1009A000CBCF10E080913B04282F30E090913A04A7
:1009B000291B310928323105DCF591E0980F90931D
:1009C0003A048D5F80933B0460913B0470E080911A
:1009D000390490E00197681779074CF56F5F7F4FF6
:1009E0008FEA93E00E9478152091340430E08091E2
:1009F0006104082E000C990B28173907A1F46091A7
:100A00003B0470E08FEA93E00E9478152091340453
:100A100030E080919A03082E000C990B28173907B3
:100A200011F40C94640F80913B048E5FCBCF10E0E7
:100A30008091390490913B04891710F0111103C083
:100A4000815080933B0440913B0460913A048AE9D1
:100A500093E00E94B81580913A04112351F09091CF
:100A60003B04292F30E0281B3109283231056CF472
:100A70008CC1209139042E3F08F07AC130E0281B48
:100A80003109283231050CF473C180919E0388230B
:100A900009F4AEC082E00E94951886EF91E00E94B2
:100AA0005D188BE30E94951820E080915F04281761
:100AB000C8F5822F90E0FC01EE0FFF1FE15BFB4FBA
:100AC000008111810115110559F1FC01E656FC4F19
:100AD0008585882329F1622F17FF05C0606A11956B
:100AE0000195110901C06068F02E07FD04C0802F38
:100AF0008068F82E01C0606183EF92E02FAB0E9406
:100B000085116F2D83EF92E00E948511612F60683F
:100B100083EF92E00E9485118BE30E9495182FA924
:100B20002F5FC3CF80913B0480FF03C089EF91E02A
:100B300002C08FE792E00E945D18E0913A04E0FF66
:100B400016C0E150E0933A04E69580913304E8172B
:100B500020F4F0E0E656FC4F9588692D83EF92E093
:100B60000E94851180913A048E5F80933A0410911F
:100B70003A0480913B04811788F0E12FE69580913B
:100B80003304E81720F4F0E0E656FC4F9588692D11
:100B900083EF92E00E9485111E5FEBCF8BE30E94F2
:100BA00095188FE192E00E945D1880919A0360E1B0
:100BB00070E0082E000C990B0E94A0188BE30E9495
:100BC00095188EEF91E00E945D188091610460E1BC
:100BD00070E0082E000C990B0E94A0188BE30E9475
:100BE00095188BEF91E00E945D1860E170E07AC08B
:100BF00082E00E9495188DEF91E00E945D188BE3D2
:100C00000E94951810E080915F04181750F5812F0D
:100C100090E09C01220F331FD901A15BBB4F7D01E6
:100C20002D913C91232BD9F0FC01E656FC4F858594
:100C30008823A9F080E50E9495186AE070E0812F72
:100C40000E9449188DE30E9495186AE070E0F70150
:100C5000808191810E94A0188BE30E9495181F5FEC
:100C6000D2CF80E092E00E945D1810913A0480910A
:100C70003B04811770F0612F70E08FEA93E00E94CF
:100C800078156AE070E0809134040E9449181F5F73
:100C9000EECF8BE30E94951883E092E00E945D18EE
:100CA00080919A036AE070E0082E000C990B0E9474
:100CB000A0188BE30E94951887E092E00E945D18CF
:100CC000809161046AE070E0082E000C990B0E948C
:100CD000A0188BE30E9495188BE092E00E945D18AB
:100CE0006AE070E0809166040E9449188BE30E94DC
:100CF000951880913E04882339F08EE092E00E949E
:100D00005D188BE30E94951810923D0480913B047E
:100D10002091390430E0281B310928323105ECF0EC
:100D20009091A2039923C9F091509093A2038F5FF1
:100D30000E94041910923A0480919F03882369F05D
:100D400080E192E00E945D186AE070E08091A20369
:100D50000E9449188BE30E94951883E00E94951821
:100D600082E892E00E945D1881E08093A6031AC099
:100D70008823A1F020913B0430E02D3F310574F031
:100D8000811007C010923D040DC09E3F38F481E0F1
:100D9000890F0E94041910923A0404C08AE993E072
:100DA0000E941A1681E080933C0480913C048111DA
:100DB0000C943A0F80919B03F0919C03F9A7811149
:100DC00004C0FF2311F40C943A0F29A5222309F43F
:100DD00029C68091A202811129C082E38093E60294
:100DE00091E09093E4021092AF021092E10210920F
:100DF000E20287E08093E30280E88093E5028FEFD0
:100E00008093EA028093EB028093EC028093ED02E0
:100E10001092F2022AE933E03093E9022093E802CB
:100E20001092EF021092EE029093A202809162045F
:100E3000882399F08091E8029091E902FC01ED5538
:100E4000FF4F108233971082D12C11E0CC24C39431
:100E500099249A9497E0592EE2C18FEF8093EA0289
:100E60008093EB028093EC028093ED021092F202E9
:100E70001092EF021092EE021092AF021092E10275
:100E80001092E20287E08093E302809165048093F0
:100E9000F0020091E8021091E902F801EB53FF4FD4
:100EA000F08033E03F1508F0B2C5B697608170E07E
:100EB00080E090E00E94EB2A2AE037ED43E25DE318
:100EC0000E944A2B2B013C0120E030E0A9010E9446
:100ED0007C2D20E030E040E05FE387FD05C0C301EA
:100EE000B2010E94682C04C0C301B2010E94672CA9
:100EF0000E94462DA801435F5F4FD801AB54BF4FFE
:100F0000A12C70E0FA018191AF01861758F1EA2C0B
:100F10008E2D90E0EE20F1F0FE01E80FF91FD08059
:100F200098012D0D311D2D0D311DF901EB54FF4F91
:100F30002D913C9111970190F081E02D2E173F07E4
:100F40004CF4E1E0F0E0EC0FFD1FE80FF91FD08258
:100F5000EA94DECFE1E0F0E0EC0FFD1FE80FF91FAF
:100F60007083A3947F5F12967F11CCCF9E012F5F79
:100F70003F4F3A8B298B3EA32DA3BE01675F7F4F66
:100F80007C8B6B8BCE010D969E8B8D8B8C5F8EAB8D
:100F9000898989AB8DA19989891B8A1508F037C584
:100FA000ADA1BEA12D91BEA3ADA34091E8023091A9
:100FB000E902842F932F820F911D820F911DFC0156
:100FC000EB54FF4F208131813C8F2B8F121613067B
:100FD000FCF68FEF8093EA028093EB028093EC02A1
:100FE0008093ED02359527953EA72DA7AE014F5F63
:100FF0005F4F5AA349A31FA218A66FEF7FEF788F08
:101000006F8B8B8D9C8D092E000CAA0BBB0B8AABB2
:101010009BABACABBDAB89A179A9871B8A1508F046
:10102000B7CFA9A1BAA1BD90BAA3A9A33091E802F4
:101030002091E902832F922F8B0D911D8B0D911D15
:10104000FC01EB54FF4F008111816AA97BA98CA997
:101050009DA90E94EB2A2B013C01680117FF04C0E7
:10106000CC24DD24C01AD10AEDA4FEA4EC18FD089E
:10107000F7FE03C0F194E194F1082DEC3CEC4CE454
:101080005EE3C301B2010E944A2B0E94462D6E15F9
:101090007F050CF095C3EB8CFC8CEC18FD08F7FE7B
:1010A00003C0F194E194F1082DEC3CEC4CEC5EE3D0
:1010B000C301B2010E944A2B0E94462D6E157F0586
:1010C0000CF00AC7A8CF8D2D0E94B119E090E8025C
:1010D000F090E902F701E056FF4F9082B5016150B0
:1010E0007109C70145960E947815F701E656FF4F32
:1010F000808190E02091EC02022E000C330B8217CD
:10110000930709F464C72091ED02022E000C330B03
:101110008217930709F45BC7E091E802F091E902B6
:10112000E056FF4F80818F3F09F400830091F10268
:10113000C092F202A090E802B090E902F501E156F7
:10114000FF4F8081081708F0FCC0E02EF12CB7019A
:10115000C50145960E947815F501E656FF4F80813E
:1011600090E02091EA02022E000C330B82179307C5
:1011700009F49BC72091EB02022E000C330B82175F
:10118000930709F492C7A090E802B090E902F50134
:10119000E156FF4F208130E021503109E216F3067D
:1011A0000CF0CFC0DD2009F4C3C02091ED02022E67
:1011B000000C330B8217930709F4B2C7102FDD24FC
:1011C000D3948091E8029091E902FC01E156FF4F2F
:1011D0002081021710F411E0100F4091E20250E05C
:1011E0002091F002022E000C330BFC014217530732
:1011F0000CF0AFC0E653FF4F2081222309F4A3C0B7
:101200001092AF021092E1021092E2025092E302B9
:1012100082E192E00E945D18812F0E94F3182091D4
:10122000E8023091E902412F50E0F901E156FF4F09
:10123000808190E04E97481759070CF0E8C3F901F8
:10124000E753FF4FC082A12EB12CE090E802F0904E
:10125000E902F701E156FF4F808190E00197A8165F
:10126000B9060CF053C0B501C70145960E94781528
:10127000F701E656FF4F6080712C8091EB02082E3B
:10128000000C990B68167906A1F18091EA02082EEC
:10129000000C990B6816790651F5E090E802F09081
:1012A000E902B50161507109C70145960E947815A0
:1012B000F701E656FF4F8081E80EF11CE80EF11CA5
:1012C000F701EB54FF4F2091E8023091E902809141
:1012D000EB02880F990B820F931FDC01AB54BF4FB9
:1012E000808191812D913C912817390714F41F5F5B
:1012F000AACF8091EB02082E000C990BDD24D39429
:101300006816790609F0D12C1093F102012F209173
:10131000E8023091E902F901E156FF4F808190E047
:101320000197A816B9060CF4CECEBA9610826FC3F8
:101330002091EC02022E000C330B8217930709F464
:10134000BAC6102F3ECF193208F45ACFBA9710837D
:101350005EC3EF55FF4F108382E00E9495188DE128
:1013600092E00E945D188BE30E94951810E0809136
:101370005F04181728F5E12EF12C153030F0F70135
:10138000E656FC4F85858823C9F080E50E949518B4
:101390006AE070E0812F0E9449188DE30E94951841
:1013A000F701EE0FFF1FE15BFB4F6AE070E0808109
:1013B00091810E94A0188BE30E9495181F5FD7CFE0
:1013C00080E092E00E945D1810E0809139041817C7
:1013D000D0F480913A04181721F080913B0418133F
:1013E00004C081E292E00E945D18612F70E08FEAF4
:1013F00093E00E9478156AE070E0809134040E94C6
:1014000049181F5FE2CF8BE30E94951880913E043C
:10141000882339F08EE092E00E945D188BE30E94F1
:101420009518811007C085E692E00E945D188BE355
:101430000E94951880916304811107C083E292E0B5
:101440000E945D188BE30E94951883E00E94951816
:101450000E94B61782E00E9495188EE192E00E94E9
:101460005D188BE30E94951885E292E00E945D185A
:10147000E091EA02EE0FFF0BE15BFB4F6AE070E0E8
:10148000808191810E94A0188BE30E94951889E2C7
:1014900092E00E945D18E091EB02EE0FFF0BE15B22
:1014A000FB4F6AE070E0808191810E94A0188BE37D
:1014B0000E9495188DE292E00E945D18E091EC0286
:1014C000EE0FFF0BE15BFB4F6AE070E080819181E2
:1014D0000E94A0188BE30E94951881E392E00E947D
:1014E0005D18E091ED02EE0FFF0BE15BFB4F6AE050
:1014F00070E0808191810E94A0188BE30E94951872
:1015000080E092E00E945D1880E390E3A0E0898390
:101510009A83AB83D12C9E012F5F3F4F790115E356
:10152000A12E12E0B12E0D2D10E08091E10290E08D
:101530002091E60208171907DCF4D21628F4F80106
:10154000E155FD4F808101C080E01F928F93BF92D3
:10155000AF92FF92EF920E94282FC7010E945D1860
:10156000D3940F900F900F900F900F900F90DBCFB0
:10157000D21628F4F801E155FD4F30813FA78FA521
:1015800082958F701F928F938AE392E09F938F933F
:10159000FF92EF920E94282FC7010E945D18809150
:1015A000E202877081500F900F900F900F900F9074
:1015B0000F908430F0F08091E602D81628F4F801FC
:1015C000E155FD4F408148AB88A98F701F928F93E2
:1015D0008AE392E09F938F93FF92EF920E94282FCD
:1015E000C7010E945D180F900F900F900F900F9001
:1015F0000F908BE30E9495188FE392E00E945D1894
:101600006AE070E08091EE029091EF020E94A018D3
:101610008BE30E94951886E292E00E945D186AE0D2
:1016200070E08091E2020E9449188BE30E949518B5
:101630008BE092E00E945D186AE070E080916604A1
:101640000E9449188BE30E94951880919F0388237C
:1016500009F488C080916304811107C083E292E09D
:101660000E945D188BE30E9495188091F1028823F7
:1016700009F478C087EF91E00E945D186AE070E09D
:101680008091F1020E9449188BE30E94951882E430
:1016900092E00E945D186AE070E080913A040E9436
:1016A00049188BE30E94951810913A0487EF91E056
:1016B0000E945D18812F143008F083E010913A04E5
:1016C000181B20913A04822F90E04D96E12EF12CC8
:1016D0008E159F050CF443C0121304C081E292E002
:1016E0000E945D18B7018FEA93E00E9478158091FF
:1016F0003404282F30E04091EA02042E000C550BF0
:101700002417350719F484E492E00AC04091EB02F3
:10171000042E000C550B2417350729F48DEC91E0AD
:101720000E945D181AC04091EC02042E000C550B6B
:101730002417350719F487EF91E0F2CF4091ED02BD
:10174000042E000C550B2417350719F48EEF91E089
:10175000E7CF6AE070E00E9449181F5FB2CF8BE3C9
:101760000E9495181092620481E080933C0480935B
:10177000A60380913B04811008C02091390430E019
:10178000281B3109283231059CF081500E94041930
:1017900010923A0481E08093640480919F0388232F
:1017A00039F086E492E00E945D188BE30E94951860
:1017B00083E00E94951882E892E00E945D1832C191
:1017C000101611060CF0E2C4B092ED02B8A5BF5F8E
:1017D000B8A7EF89F88DE00FF11FF88FEF8B80919C
:1017E000EA028F3F09F417CC8091EC028F3F09F495
:1017F00012CC8091EB028F3F09F40DCC8091ED0269
:101800008F3F09F408CC8FEF8D878E878F87888B69
:1018100089878A878B878C8741E050E058A34F8F58
:1018200000E010E0BB24BA94E090E802F090E902F6
:10183000F701E156FF4F808190E0081719070CF07F
:10184000EACBB801C70145960E947815F701E65624
:10185000FF4FD0808D2D90E02091EA02022E000CE7
:10186000330BE090E802F090E9028217930709F445
:101870003AC32091EB02022E000C330B8217930720
:1018800009F431C32091EC02022E000C330B8217B5
:10189000930709F428C32091ED02022E000C330BAC
:1018A0008217930709F41FC3F701E056FF4F6081C9
:1018B0009801261B31098091F002082E000C990B2B
:1018C000821793070CF03BC331960083402FC7016A
:1018D0000E94B8158091E8029091E9027090ED02A3
:1018E0009090EB025091EC025D8F6090EA02FC0157
:1018F000E70DF11D77FCFA952585FC01E90DF11D39
:1019000097FCFA95C584D12CC20ED11CFC01E50FC1
:10191000F11D57FDFA952585C21AD108FC01E60D87
:10192000F11D67FCFA9525851092F202C21AD108C2
:10193000D7FE03C0D194C194D1080D2C000CEE0841
:10194000FF08FC01E156FF4F8081A82FB0E0BBA744
:10195000AAA7BD01BB0F880B990B0E94EB2A2AE0B6
:1019600037ED43E25DE30E944A2B1B012C0120E08E
:1019700030E0A9010E947C2D20E030E040E05FE3F0
:1019800087FDBBC2C201B1010E94682C0E94462D96
:101990006C157D058E059F050CF43DCBBFA1E8A518
:1019A000BE1339CB691409F436CBFD8DF71509F454
:1019B00032CB6F1609F42FCB971409F42CCB671494
:1019C00009F429CB9F1609F426CBDE011996FE01F6
:1019D0003D9691918D91981709F494C28F3F09F427
:1019E00093C281E09F3F09F08DC22EA92E138EC2B3
:1019F00081118FC28F89988D66E070E00E94A62DBC
:101A00007093EF026093EE0239A5311113CA8091F1
:101A10006204882339F080913D04882319F081E025
:101A200080933C0480919B03882309F423C2809116
:101A3000410490914204019709F01CC280913C043A
:101A4000811118C280913904883208F413C2809140
:101A5000A4039091A503892B09F49FC080913A04B7
:101A6000882341F040E060E08AE993E00E94B815E5
:101A700010923A0410915F04115017FD8EC0C12ED0
:101A8000012E000CDD08F601EE0FFF1FE15BFB4F9E
:101A90008081918197FF03C0919581959109209153
:101AA000A4033091A5038217930730F3F601E6569D
:101AB000FC4F8585882301F38130A9F4E12CF12CBA
:101AC000B7018FEA93E00E9478158091340490E08A
:101AD0008C159D0589F25FEFE51AF50A6AE0E616B6
:101AE000F10471F702C0883038F688E280933B0435
:101AF00080913904883208F450C018E2E12EF12CAC
:101B00008091390490E00197E816F9060CF045C081
:101B1000B7018FEA93E00E947815E0913404F0E079
:101B2000EE0FFF1FE15BFB4F80819181B70118161B
:101B3000190674F48FEA93E00E947815E09134045A
:101B4000F0E0EE0FFF1FE15BFB4F8081918110C041
:101B50008FEA93E00E947815E0913404F0E0EE0FF4
:101B6000FF1FE15BFB4F80819181919581959109E8
:101B70002091A4033091A5038217930760F010937E
:101B80003B044FEF410F60E08AE993E00E94B815F3
:101B9000DD24D39411C01F5FB1CF809139048093AD
:101BA0003B0480913A04882331F040E060E08AE908
:101BB00093E00E94B815D12C80919E03882309F4EC
:101BC00084C082E00E94951888E492E00E945D182B
:101BD0008BE30E94951820E080915F042817C8F5D8
:101BE000822F90E0FC01EE0FFF1FE15BFB4F0081B5
:101BF00011810115110559F1FC01E656FC4F85854F
:101C0000882329F1622F17FF05C0606A119501959D
:101C1000110901C06068F02E07FD04C0702F7068C4
:101C2000F72E01C0606183EF92E02FAB0E94851117
:101C30006F2D83EF92E00E948511612F606883EF22
:101C400092E00E9485118BE30E9495182FA92F5FC7
:101C5000C3CF80913B0480FF06C089EF91E00E94D2
:101C60005D1810E014C08FE792E0F9CFE12FE69500
:101C700080913304E81728F4F0E0E656FC4F85899C
:101C80008CA76CA583EF92E00E9485111E5F809166
:101C90003B04181758F38BE30E9495188FE192E0EC
:101CA0000E945D1880919A0360E170E0082E000C9C
:101CB000990B0E94A0188BE30E9495188BEF91E07E
:101CC0000E945D1860E170E06BC082E00E94951890
:101CD0008BE492E00E945D188BE30E94951810E05F
:101CE00080915F04181760F5812F90E09C01220F0E
:101CF000331FD901A15BBB4F7D012D913C91232B5B
:101D0000E9F0FC01E656FC4F85858823B9F08AEEA0
:101D100091E00E945D186AE070E0812F0E944918EE
:101D200080E492E00E945D186AE070E0F701808133
:101D300091810E94A0188BE30E9495181F5FD0CF5D
:101D400080E092E00E945D1810E080913B0418173B
:101D500070F4612F70E08FEA93E00E9478156AE0DA
:101D600070E0809134040E9449181F5FEECF8BE32E
:101D70000E94951883E092E00E945D1880919A037A
:101D80006AE070E0082E000C990B0E94A0188BE30B
:101D90000E9495188BE092E00E945D186AE070E066
:101DA000809166040E9449188BE30E949518109256
:101DB0003D0481E08093A60380933C04DD2081F103
:101DC000811009C08091390490E020913B04821B6E
:101DD00091098897D4F08091A3038F5F8093A30328
:101DE00080913B040E94041910923A0480919F0351
:101DF0008823B1F086E492E00E945D186AE070E00A
:101E00008091A3030E94491808C080919F038823F2
:101E100039F08EE492E00E945D188BE30E949518E1
:101E200080913E04882339F08EE092E00E945D1894
:101E30008BE30E94951880919F038823A1F0811065
:101E400007C085E692E00E945D188BE30E9495181A
:101E500080916304811107C083E292E00E945D18C3
:101E60008BE30E94951883E00E94951882E892E027
:101E70000E945D1880913C04811102C010923D04C3
:101E8000809139048E3F60F080914104909142042A
:101E9000892B31F48CE193E00E94E71810923D0405
:101EA00080913D04811181C18AE993E00E941A1654
:101EB0007CC156010C945A0480913B04815080935C
:101EC0003B0411E00C94D20480913B048150809338
:101ED0003B0411E00C941805101611060CF062C1B9
:101EE000B092EB0273CCF701E156FF4F808190E096
:101EF00001970817190731F5D7CCC201B1010E942B
:101F0000672C44CD80E071CD81E06FCD882309F44A
:101F100060CD8AA59BA5801B910B2091F002022E1B
:101F2000000C330B281739070CF075C8BD86B9862D
:101F3000BE86BA86BF86BB86B88ABC863FC0109272
:101F4000F2020BC08091F202811107C0F701E05646
:101F5000FF4F008341E04093F2026F8D78A1C701EB
:101F600045960E947815F701E656FF4F80815AE0AA
:101F7000D59E800D11248A3008F48C5900FD03C0D1
:101F80002D899E8902C02B899C89E22FF92F90E030
:101F9000482F50E06081262F062E000C330B2417AB
:101FA000350719F06F3F19F48083292F01C02FEFF7
:101FB0009F5F943019F031962F3F61F30F5F1F4FF1
:101FC0006F8D78A16F5F7F4F78A36F8F2DCC0FEF50
:101FD000010F023008F4A0C8E02EF12CA090E80216
:101FE000B090E902B70162507109C50145960E949F
:101FF0007815F501E656FF4F808190E02091EC02C4
:10200000022E000C330BD70111977D018217930725
:1020100041F02091ED02022E000C330B8217930742
:10202000F1F4A090E802B090E902B701C50145962D
:102030000E947815F501E656FF4F808190E02091CF
:10204000EC02022E000C330B8217930761F12091F2
:10205000ED02022E000C330B8217930721F1A090A2
:10206000E802B090E902B701C50145960E947815D3
:10207000F501E656FF4F208130E08091ED02082EF9
:10208000000C990B2817390709F046C8E091E802BF
:10209000F091E902E056FF4F0250008300E08D2DE1
:1020A0000E94B11996CF0250FACFDC240F5F8D2D1C
:1020B0000E94B1193FC8BFEFEB1AFB0AB701C50177
:1020C00045960E947815F501E656FF4F208130E0D5
:1020D0008091ED02082E000C990B2817390709F49E
:1020E00053C0A090E802B090E902B701C50145963F
:1020F0000E947815F501E656FF4F208130E080916F
:10210000EB02082E000C990B2817390709F019C9A2
:10211000E091E802F091E902E753FF4F108211C904
:10212000EFEFEE1AFE0AB701C50145960E94781539
:10213000F501E656FF4F208130E08091EC02082E39
:10214000000C990B28173907F9F0A090E802B0901D
:10215000E902B701C50145960E947815F501E656DA
:10216000FF4F208130E08091EA02082E000C990B8D
:102170002817390709F022C8E091E802F091E90236
:10218000E753FF4F10821AC80F5F90CFB092EC0256
:10219000FFA1FF5FFFA32F89388D201B310B388FE4
:1021A0002F8B1DCBB092EA02F3CFE7960FB6F894CF
:1021B000DEBF0FBECDBFDF91CF911F910F91FF907A
:1021C000EF90DF90CF90BF90AF909F908F907F90D7
:1021D0006F905F904F903F902F900895CF92DF9235
:1021E000EF92FF920F931F93CF93DF936C017A01CD
:1021F0008B01C0E0D0E0CE15DF0589F0D8016D91EC
:102200008D01D601ED91FC910190F081E02DC60188
:102210000995892B11F47E0102C02196ECCFC701EC
:10222000DF91CF911F910F91FF90EF90DF90CF90B2
:102230000895089580E090E00895FC01538D448D49
:10224000252F30E0842F90E0821B930B541710F061
:10225000CF96089501970895FC01918D828D98176E
:1022600061F0828DDF01A80FB11D5D968C91928D7A
:102270009F5F9F73928F90E008958FEF9FEF089577
:10228000FC01918D828D981731F0828DE80FF11D40
:10229000858D90E008958FEF9FEF0895FC01918D5B
:1022A000228D892F90E0805C9F4F821B91098F7354
:1022B0009927089583EF92E00E944E1121E0892B27
:1022C00009F420E0822F0895FC01848DDF01A80F1E
:1022D000B11DA35ABF4F2C91848D90E001968F734E
:1022E0009927848FA689B7892C93A089B1898C916D
:1022F00080648C93938D848D981306C00288F38933
:10230000E02D80818F7D80830895EF92FF920F935F
:102310001F93CF93DF93EC0181E0888F9B8D8C8D91
:10232000981305C0E889F989808185FD24C0F62EBF
:102330000B8D10E00F5F1F4F0F731127E02E8C8D58
:10234000E8120CC00FB607FCFACFE889F989808142
:1023500085FFF5CFCE010E946411F1CF8B8DFE0178
:10236000E80FF11DE35AFF4FF0820B8FEA89FB89DA
:102370008081806207C0EE89FF896083E889F989DE
:1023800080818064808381E090E0DF91CF911F9114
:102390000F91FF90EF900895CF93DF93EC01888D1C
:1023A0008823C9F0EA89FB89808185FD05C0A88959
:1023B000B9898C9186FD0FC00FB607FCF5CF8081DF
:1023C00085FFF2CFA889B9898C9185FFEDCFCE0129
:1023D0000E946411E7CFDF91CF9108950895089589
:1023E000FC01099480E008950E94D22EFC018081B6
:1023F0009181009711F00C94A82A60E070E0CB0165
:102400000895FC0124813581232B31F421E06115ED
:102410007105A1F0FB0108C0FC018081918161156B
:10242000710531F421E0FC018081882339F005C079
:102430000E94FE2E21E0892B09F020E0822F0895D2
:102440000F931F93CF93DF93EC01888199810097BD
:1024500029F02A813B812617370788F48B016F5FAB
:102460007F4F0E94082E009761F0998388831B8319
:102470000A832C813D81232B11F4FC01108281E021
:1024800001C080E0DF91CF911F910F910895EF92ED
:10249000FF920F931F93CF93DF93EC017B018A018F
:1024A000BA010E9420122881398181110DC02115A5
:1024B000310519F0C9010E94102A198218821D8263
:1024C0001C821B821A8206C01D830C83B701C901BE
:1024D0000E94072FCE01DF91CF911F910F91FF90A6
:1024E000EF900895CF93DF93EC016115710559F0DA
:1024F000FB0101900020E9F73197AF01461B570B14
:102500000E9447120CC088819981009711F00E94A7
:10251000102A198218821D821C821B821A82CE0107
:10252000DF91CF910895FF920F931F93CF93DF9385
:1025300000D0CDB7DEB7FF24F39483EF92E00E9482
:102540004E11892B09F446C083EF92E00E942C11B2
:102550008A3041F01CF4882329F007C08D3011F037
:10256000833219F4F092960222C089831A82009174
:102570009803109199030F5F1F4FB80184E993E00E
:102580000E942012882399F02091940330919503A2
:102590008091980390919903BE016F5F7F4F820FE6
:1025A000931F0E94072F1093990300939803809123
:1025B0009803909199038F35914008F4BECF63E85A
:1025C00072E084E993E00E9472128EE993E00E9427
:1025D000E718B3CF0F900F90DF91CF911F910F911C
:1025E000FF9008950E945A1181110C94931208953E
:1025F000FC01808191810C94102AFC0111821082CF
:1026000013821282158214826115710551F0FB014B
:1026100001900020E9F73197AF01461B570B0C944E
:10262000471208951F920F920FB60F9211242F9305
:102630003F934F935F936F937F938F939F93AF934A
:10264000BF93EF93FF9383EF92E00E946411FF9199
:10265000EF91BF91AF919F918F917F916F915F911A
:102660004F913F912F910F900FBE0F901F90189593
:102670001F920F920FB60F9211242F938F939F9357
:10268000EF93FF93E0910303F09104038081E091C5
:102690000903F0910A0382FD12C0908180910C031E
:1026A0008F5F8F7320910D03821751F0E0910C031F
:1026B000F0E0ED50FD4F958F80930C0301C08081B9
:1026C000FF91EF919F918F912F910F900FBE0F90DF
:1026D0001F9018953FB7F8948091AB029091AC028F
:1026E000A091AD02B091AE0226B5A89B05C02F3FC8
:1026F00019F00196A11DB11D3FBFBA2FA92F982F28
:102700008827820F911DA11DB11DBC01CD0142E0A2
:10271000660F771F881F991F4A95D1F708958F92EA
:102720009F92AF92BF92CF92DF92EF92FF926B0196
:102730007C010E946A134B015C01C114D104E104C5
:10274000F104F1F00E946A13DC01CB0188199909A8
:10275000AA09BB09883E9340A105B10570F321E0A9
:10276000C21AD108E108F10888EE880E83E0981EAD
:10277000A11CB11CC114D104E104F10419F7DDCF8F
:10278000FF90EF90DF90CF90BF90AF909F908F9091
:102790000895CF92DF92EF92FF920F931F930E94C2
:1027A0006A1300919003109191032091920330914C
:1027B00093036B017C01C01AD10AE20AF30A970164
:1027C000860160939003709391038093920390939A
:1027D00093030A3511052105310578F181E0C8160A
:1027E0008DE7D806E104F10410F4960102C021E05F
:1027F0003DE74A9B03C031952195310980916E04D4
:102800008436D8F480916E048F5F80936E0480913B
:102810006F0460916D040E94862D90936F04E09187
:102820006F04F0E0EE0FFF1FEF58FB4F3183208362
:1028300080916F048F5F80936F041F910F91FF90C1
:10284000EF90DF90CF9008950F931F930E946A132B
:102850000091900310919103209192033091930382
:10286000DC01CB01801B910BA20BB30B82309D4787
:10287000A105B10580F14A9903C02FEF32E802C0EB
:1028800021E03DE780916E048436D8F480916E0497
:102890008F5F80936E0480916F0460916D040E943D
:1028A000862D90936F04E0916F04F0E0EE0FFF1F10
:1028B000EF58FB4F3183208380916F048F5F8093AB
:1028C0006F040E946A136093900370939103809346
:1028D00092039093930320919502E3E9F3E094919E
:1028E000EFE7F3E08491EBE6F3E0E491EE2309F403
:1028F0003BC0992339F1933091F038F49130A9F02D
:10290000923001F594B59F7D12C0973091F09830C8
:10291000A1F09430B9F4909180009F7D03C0909114
:1029200080009F77909380000DC094B59F7794BDF1
:1029300009C09091B0009F7703C09091B0009F7D37
:102940009093B000F0E0EE0FFF1FE85AFC4FA59106
:10295000B4919FB7F894EC91211103C080958E2318
:1029600001C08E2B8C939FBF109295021F910F91E7
:1029700008951F920F920FB60F9211242F933F9339
:102980008F939F93AF93BF93809190029091910208
:10299000A0919202B09193023091AA0223E0230FFA
:1029A0002D3720F40196A11DB11D05C026E8230F87
:1029B0000296A11DB11D2093AA02809390029093CC
:1029C0009102A0939202B09393028091AB029091F6
:1029D000AC02A091AD02B091AE020196A11DB11D55
:1029E0008093AB029093AC02A093AD02B093AE0281
:1029F000BF91AF919F918F913F912F910F900FBEFB
:102A00000F901F9018951F920F920FB60F921124DE
:102A10002F933F934F935F936F937F938F939F93E6
:102A2000AF93BF93EF93FF93E0910601F0910701FD
:102A30000995FF91EF91BF91AF919F918F917F91F8
:102A40006F915F914F913F912F910F900FBE0F901B
:102A50001F9018951F920F920FB60F9211242F936B
:102A60003F934F935F936F937F938F939F93AF9316
:102A7000BF93EF93FF93E0910401F0910501099555
:102A8000FF91EF91BF91AF919F918F917F916F9146
:102A90005F914F913F912F910F900FBE0F901F901C
:102AA00018951F920F920FB60F9211242F933F93F8
:102AB0004F935F936F937F938F939F93AF93BF9346
:102AC000EF93FF93E0918E02F0918F020995FF91B1
:102AD000EF91BF91AF919F918F917F916F915F9196
:102AE0004F913F912F910F900FBE0F901F9018950F
:102AF000CF93DF93FC01EE57FF4F4081469FF001DB
:102B0000479FF00D11249F0153E0369527955A9564
:102B1000E1F7DC01AC57BF4F5C91251720F5DC01D4
:102B2000A20FB11DEC01CD57DF4F288130E0E770D7
:102B3000FF2702C035952795EA95E2F73C912323BC
:102B400030E058E0541B469F402D11244770541B21
:102B500002C0359527955A95E2F7322FFC01EB57C5
:102B6000FF4F208301C03FEF832FDF91CF91089566
:102B7000FC01E156FF4F2081222309F45AC0E2599B
:102B8000F109DC0155961192EA17FB07E1F74111B3
:102B900002C04FEF420F262F2695542F569560FF07
:102BA00013C0FC01E756FF4F6081261720F4FC019B
:102BB000E20FF11D3589632F6F70FC01E60FF11DE7
:102BC00065856F5F65872F5FDC01A756BF4F521782
:102BD000E8F06C91261720F4FC01E20FF11D358915
:102BE000E32FF0E064E0F595E7956A95E1F7E80FEB
:102BF000F91F65856F5F6587632F6F70FC01E60FB6
:102C0000F11D65856F5F65872F5FE1CF40FD11C0C6
:102C1000FC01E756FF4F2081521720F4FC01E50F1D
:102C2000F11D35893F70FC01E30FF11D8585815051
:102C300085870895CF93DF93FC01E156FF4F108203
:102C4000DC01AB53BF4F1C92B7961082FC01158A72
:102C5000EC56FF4F108231961082319627E0208388
:102C6000719611821082B0962FEF2083FC01208391
:102C7000EB54FF4FEC012D96119211921992EA1725
:102C8000FB07D1F7FC01EE55FF4F1082339626E982
:102C900030E0318320833C9640E050E060E87EE302
:102CA00040835183628373837197108233961082BD
:102CB00031961082B4961082319621E020833196AD
:102CC0001082B9971082DF91CF9108950C94132C44
:102CD0000C940B2CCF93C82F803120F481E592E027
:102CE0000E945D1860E170E08C2FCF910C94491820
:102CF000CF93DF93C2E0D0E0FE01E35DFC4F64912F
:102D0000CE010E9466162196CB32D105A9F7C0E309
:102D1000D0E0C13321F464E881E390E002C060E0D8
:102D2000CE010E9466162196C833D10591F783E53E
:102D300092E0DF91CF910C94BA178EBD0DB407FECF
:102D4000FDCF8EB50895CF93DF932A981C99FECFBF
:102D50008EE70E949D16C0E3D0E0CE010E94681667
:102D60000E949D162196C833D105B9F72A9ADF91A2
:102D7000CF910895CF93DF931F92CDB7DEB72A98F6
:102D80001C99FECF69830E949D166981862F0E943F
:102D90009D162A9A0F90DF91CF9108952A981C9939
:102DA000FECF862B0E949D1680E00E949D162A9AD7
:102DB000089560EC84E30C94CE162A981C99FECFFB
:102DC0000E949D161C99FECF2A9A089586E30E94C0
:102DD000DD1661E070E080E090E00C948F13E898DD
:102DE0008EEE91E19093050180930401809194020D
:102DF00081110C94E6160895CF93DF930E94E61696
:102E0000CEEFCF3FC1F084E30E94DD16DFEFDC0F91
:102E10008077803141F061E070E080E090E00E94D6
:102E20008F13CD2FEECFC11106C087E692E0DF9160
:102E3000CF910C94BA17DF91CF91089589EC93E16B
:102E40009093050180930401809169008C7F8160DB
:102E500080936900E89A8091940281110C94FC1689
:102E60000895CF93DF932A9A83E790E0FC0131978E
:102E7000F1F72A980197F1F72A9A8FEA90E00197E3
:102E8000F1F780E30E94DD166AE070E080E090E0F8
:102E90000E948F132A9880E40E949D16C2E0D0E021
:102EA000CE010E9468160E949D162196CB32D10554
:102EB000B9F72A9A83E290E00197F1F70E94A316EE
:102EC00061E070E080E090E00E948F13DF91CF918D
:102ED0000C94FC16CF93C82F803120F481E592E04A
:102EE0000E945D1860E170E08C2FCF910C9449181E
:102EF00090ED980F9A3070F09FE9980F963010F48B
:102F000099EA05C09FEB980F963018F499EC980F4A
:102F100001C0982F892F08951F93CF93DF93C82F57
:102F2000D0E0CE010E945F180E947817182F1295EA
:102F3000107FCE0101960E945F180E947817810FC2
:102F4000DF91CF911F910895009769F0FC010190E6
:102F50000020E9F73197AF01481B590BBC0183EF03
:102F600092E00C94EE1080E090E0089581E892E009
:102F70000C94A417CF93DF930E94A417EC010E9436
:102F8000B6178C0F9D1FDF91CF910895DF92EF92BE
:102F9000FF920F931F93CF93DF937C018B01EA0184
:102FA0004617570720F4812F8A01C62FD82F63E8D0
:102FB00072E0C7010E94FD128091980390919903DD
:102FC00008171907E0F48C179D0708F4EC01E0914D
:102FD0009403F0919503EC0FFD1FD0801082609157
:102FE000940370919503600F711FC7010E947212C4
:102FF000E0919403F0919503EC0FFD1FD082C7017F
:10300000DF91CF911F910F91FF90EF90DF90089586
:103010008F929F92AF92BF920F931F93CF93DF93A4
:10302000CDB7DEB7A1970FB6F894DEBF0FBECDBF08
:1030300019A2423008F44AE08E010F5D1F4F842E22
:10304000912CA12CB12CA50194010E94BA2DE62F40
:10305000B901CA0101501109EA3014F4E05D01C060
:10306000E95CD801EC93232B242B252B61F7C801B5
:103070000E94A417A1960FB6F894DEBF0FBECDBF75
:10308000DF91CF911F910F91BF90AF909F908F9044
:103090000895AB01672B59F4E091F302F091F4022B
:1030A0000190F081E02D682F83EF92E00994682F62
:1030B00070E080E090E00C9408180C94A417209124
:1030C0009803309199038217930760F42091940339
:1030D000309195032115310529F0F901E80FF91F09
:1030E0008081089580E008950F931F93CF93DF931D
:1030F0008C01C0E0D0E0F801EC0FFD1F6491662365
:1031000071F0E091F302F091F4020190F081E02D72
:1031100083EF92E00995892B11F02196ECCFCE0137
:10312000DF91CF911F910F910895E091F302F091FB
:10313000F4020190F081E02D682F83EF92E0099472
:10314000CF92DF92EF92FF92CF93DF9361157105DB
:1031500089F4E091F302F091F4020190F081E02D06
:10316000682F83EF92E0DF91CF91FF90EF90DF9097
:10317000CF9009946C01990FEE08FF086A30710531
:10318000D9F4F7FE17C08DE20E949518EC0166276E
:103190007727CB016C197D098E099F094AE00E94AF
:1031A00008188C0F9D1FDF91CF91FF90EF90DF905B
:1031B000CF9008954AE001C0462FC701B601DF91C4
:1031C000CF91FF90EF90DF90CF900C940818CF93A1
:1031D000DF930E947418EC010E94B6178C0F9D1F9C
:1031E000DF91CF910895CF93DF93682F70E080E057
:1031F00090E04AE00E940818EC010E94B6178C0F7C
:103200009D1FDF91CF9108950F931F93CF9310923D
:103210003D04882309F4A1C090913904992309F44D
:103220009CC0C82F492F50E0282F30E024173507C5
:10323000A4F0981758F483EB93E00E9474188BEA7B
:1032400093E00E9474188C2F0E94F3188AE993E08F
:10325000CF911F910F910C941A1680912F04482F33
:1032600050E04217530708F46EC0B9017695679590
:10327000B62F2417350739F41092AF0310922E049D
:1032800010922F043BC040912E04C0FF3DC00FEAB6
:1032900013E0A62FAB1B641798F4E62FF0E0E65678
:1032A000FC4F2689522F52955F70958970E1979F48
:1032B00090011124252BF80121938F016F5FE9CF35
:1032C00080FD0CC0B0E0A656BC4FE62FF0E0E656FD
:1032D000FC4F95899295907F55969C938C1B80937B
:1032E0002F04482F50E09A012150310937FD9A01EF
:1032F0003595279520932E0480FD02C087E001C0FC
:1033000083E08093300411C0461B40932E0450E0AC
:103310004F5F5F4F61557C4F8FEA93E00E94EC2E28
:1033200080912F048C1B80932F0481E080933D04B7
:1033300080912F048093390481110FC010924A04A8
:10334000109249040AC084E892E00E945D188C2F14
:10335000CF911F910F910C94F318CF911F910F9162
:1033600008959091E3024091E2029730A9F444233A
:1033700099F0E091E1026E2F70E02091E60230E0DA
:103380002150310962177307A4F5EF5FE093E10262
:10339000F0E0E155FD4F10825091E402652F70E09E
:1033A000292F30E02F5F3F4F261B370B12161306D5
:1033B00024F401C0880F2A95EAF7E091E102F0E0D9
:1033C000E155FD4F2081822B80834F5F4093E202C5
:1033D000292F092E000C330B261B370B37FD04C099
:1033E000951B9093E30203C087E08093E30281E0A2
:1033F000089580E00895CF93DF93CDB7DEB7CB5922
:10340000D1090FB6F894DEBF0FBECDBF789484B556
:10341000826084BD84B5816084BD85B5826085BDD0
:1034200085B5816085BD80916E00816080936E005E
:103430001092810080918100826080938100809150
:103440008100816080938100809180008160809301
:1034500080008091B10084608093B1008091B000C1
:1034600081608093B00080917A00846080937A00BC
:1034700080917A00826080937A0080917A008160E6
:1034800080937A0080917A00806880937A0010920D
:10349000C100E0910303F091040382E08083E09196
:1034A0000303F09104031082E091FF02F091000306
:1034B0001082E0910103F091020380E18083109279
:1034C0000B03E0910703F091080386E08083E0910D
:1034D0000503F0910603808180618083E0910503FC
:1034E000F0910603808188608083E0910503F0916C
:1034F0000603808180688083E0910503F0910603D4
:1035000080818F7D808380E491E00E94E71852984B
:10351000219A259A239A2498229A80E58CBD539863
:103520002A9A2D9A2B9880E090E00E9468168333A7
:1035300039F481E090E00E9468168D3209F477C773
:103540006FEB8FEF90E00E94661660E580EF90E0F1
:103550000E94661663E082EF90E00E9466166BE1BF
:1035600083EF90E00E94661668E584EF90E00E9489
:10357000661660E081EF90E00E94661688E690E0B3
:103580000E94E71880E090E00E946816833311F0F3
:103590000E94781663E380E090E00E9466166DE278
:1035A00081E090E00E9466168FEF90E00E9468161E
:1035B000982F917090939D0381FB992790F9909398
:1035C0009B0382FB992790F990939C0383FB992797
:1035D00090F990939E0384FB992790F990939F0311
:1035E00085FB992790F99093020186FB882780F943
:1035F0008093A00380EF90E00E94681680930301FF
:1036000082EF90E00E9468168093A10383EF90E020
:103610000E946816182F84EF90E00E946816212FF0
:10362000110F330B322F2227280F311D3093A503A2
:103630002093A40381EF90E00E94681680936504B4
:10364000811103C081E18093650488E391E00E94C9
:1036500074180E94311760E881EF0E94CE16182F6F
:103660008FEF810F8E3F38F087E291E00E9474184F
:103670001092940207C083E291E00E94741881E0E6
:10368000809394028BE191E00E9474186AE070E0EC
:10369000812F0E9449188FE091E00E94741860E821
:1036A00080EF0E94CE160E94F318809194021E8231
:1036B0001D82882399F080EF91E19C838B838B811D
:1036C0009C81AD81BE818093690490936A04A0932C
:1036D0006B04B0936C0489ED96E112C080EF91E128
:1036E0009C838B838B819C81AD81BE818093690497
:1036F00090936A04A0936B04B0936C0482EF91E101
:103700009093680480936704539A80919F03882361
:1037100021F08DEF90E00E94E71862E370E080E016
:1037200090E00E948F1380E18093810010928000CE
:1037300082E08093990288E199E7909398028093C0
:103740009702909387008093860082E180938100A6
:1037500084E294E190938F0280938E0281E08093C3
:103760006F006EE571E084E993E00E942012809181
:103770009402811109C00E941E1780919F03882323
:1037800099F08CEE90E00EC060E888E00E94CE16C2
:10379000823331F460E880E00E94CE168D3059F318
:1037A00087EA90E00E94E7188E010F5F1F4F9E018D
:1037B0002B583F4FEB963FAF2EAFEB978DE0821B20
:1037C000C956DF4F8883C759D0408091960288231D
:1037D00009F454C41092960280E090E00E945F18B1
:1037E000803549F480E291E00E94BA178BEC97E0B3
:1037F0000197F1F736C48F3309F054C00E94951831
:1038000084E792E00E94741886E50E94951880E291
:103810000E94951882E50E94951880E20E949518F2
:1038200084E70E94951880E20E94951888E50E941E
:10383000951880E20E94951886E40E94951880E20F
:103840000E94951883E50E94951880E20E949518C1
:1038500080E50E94951880E20E94951883E40E94FA
:10386000951880E20E94951882E70E94951880E2E0
:103870000E94951887E50E94951880E20E9495188D
:1038800080919402882309F46AC388E70E949518FE
:1038900080E20E94951885E60E94951880E20E94B9
:1038A00095185DC3863579F483E291E00E945D1836
:1038B00080919402882321F08CE692E00E94741893
:1038C0008CE391E04EC3823521F5809139059091CA
:1038D0003A05009711F48DE395E06801C81AD90AFA
:1038E0000D2C000CEE08FF08F7FE0BC08DE20E94C5
:1038F000951866277727CB016C197D098E099F09DA
:10390000CAC14AE0C701B6010E9408180E94B61752
:10391000A8C3833509F089C10E94EF16A12CB12CF0
:1039200055245A94EC961FAEEC97812C31E0C25787
:10393000DF4F3883CE58D040B6E19B2E8BE0782EF7
:10394000662463946FE571E0CE0181599F4F0E9418
:10395000FD128091980390919903A816B90698F4E6
:10396000C0909403D0909503E1966EAD7FADE19742
:10397000C6018A0D9B1D0E940E2F009721F07C012D
:10398000EC18FD0803C0EE24EA94FE2CCE01815908
:103990009F4F0E94F8123FEFE316F30611F40C94C8
:1039A000A8266FEFA616B60611F40C94A826C5013A
:1039B0000E945F18282F80930101C5010196C5560A
:1039C000DF4F2883CB59D0400E945F18382F809357
:1039D0000001C556DF4F2881CB59D040233529F14E
:1039E0002035D9F4C5010296C656DF4F3883CA592F
:1039F000D0400E945F18C556DF4F2881CB59D04078
:103A0000C656DF4F3881CA59D0408D3309F006C100
:103A1000650173E0C70ED11C0AC08D3309F0FEC0EA
:103A2000650182E0C80ED11C02C0C12CD12C570107
:103A30009FEFA91AB90A2335B9F465E0561609F4BF
:103A4000EDC0333409F4E7C03D3419F0323509F0E4
:103A500079CF5394F801959CE00DF11D112411824A
:103A60001082658A812C6ECF223559F5882091F01D
:103A7000A701B601CE0181599F4F0E94C617CE0102
:103A800081599F4F0E94F611C257DF4F6883CE586D
:103A9000D04072C07FEF571609F454CFA701B6018A
:103AA000CE0181599F4F0E94C617CE0181599F4F69
:103AB0000E94F611F801959CE00DF11D1124658B13
:103AC0005BC08FEF581609F43DCF203591F5A60164
:103AD00041505109B60162507109CE0181599F4F81
:103AE0000E94C617CE0181599F4F0E94F611462EA3
:103AF000CE0181599F4F0E94F81298E0941508F466
:103B00008DC0A701B601CE0181599F4F0E94C617F3
:103B1000CE0181599F4F0E94F611759CF00111242E
:103B2000E40DF11DEE0FFF1FE00FF11F768365839B
:103B300023C0243461F4F801959CE00DF11D11249B
:103B4000C282A1E0EA1AF108F482E382FBCE2334B8
:103B5000C9F4A701B601CE0181599F4F0E94C61733
:103B6000CE0181599F4F0E94F611F801959CE00DFE
:103B7000F11D112471836083CE0181599F4F0E94F2
:103B8000F812E0CE263409F0DDCEC5018C199D096E
:103B900097FD019695958795EC968FAFEC978150A0
:103BA000853008F0CFCE80919402882309F4CACEE4
:103BB000FE01EB58FF4F7F01C956DF4F3880C759D0
:103BC000D0403E0C60E8832D0E94CE16D7018D9325
:103BD0007D01C6010E945F180E947817482E42940A
:103BE00040EF4422C60101960E945F180E94781798
:103BF000642D680F832D0E94BA16B2E0CB0ED11C43
:103C00008E2DEA96EFADEA978E1BEC962FADEC97D2
:103C1000821790F297CE8824839494CE8EE591E01B
:103C20000E9474180E941E179AC18437B1F58FB78D
:103C3000F894C0909002D0909102E0909202F0909F
:103C400093028FBFC701B60128EE33E040E050E099
:103C50000E94BA2DCA01B90180909C0290909D02E9
:103C6000A0909E02B0909F02C814D904EA04FB04FD
:103C700050F420919A0230919B022F5F3F4F309376
:103C80009B0220939A02C0929C02D0929D02E092E5
:103C90009E02F0929F024AE037CE883591F481E08F
:103CA00090E00E945F18813511F40E94EF1681E0C8
:103CB00090E00E945F18853409F0D3C10E941E175E
:103CC000D0C1863409F4CDC1833409F088C081E0C5
:103CD00090E00E945F18282F873409F07AC08AECA0
:103CE00091E00E94741880919D036AE070E090E07A
:103CF0000E94A01885EC91E00E94741880919B03AB
:103D00006AE070E090E00E94A01880EC91E00E94D0
:103D1000741880919C036AE070E090E00E94A01803
:103D200089EB91E00E94741880919E036AE070E034
:103D300090E00E94A01880910201811104C082EBE2
:103D400091E00E9474188091A003882321F089EAF1
:103D500091E00E94741880EA91E00E9474188091AA
:103D60009F036AE070E090E00E94A01888E991E06B
:103D70000E9474186AE070E08091A1030E944918C3
:103D800088E891E00E9474186091A4037091A503E3
:103D900080E090E04AE00E9408188091650481313B
:103DA00051F08AE791E00E9474186AE070E0809117
:103DB00065040E94491880919F03882309F4CFC0AD
:103DC0008AE691E00E9474186AE070E08091030135
:103DD00066C08CEB820F823008F064C0E1C087358A
:103DE00009F0C2C081E090E00E945F18F82E63E500
:103DF000962E89117AC482E090E00E945F18833386
:103E000009F073C480919402882309F46EC483E09E
:103E100090E00E945F18F82E082E000C990B0E946B
:103E2000D72E892B09F41DC18F2D0E94781720E30E
:103E3000280F2E3308F015C1822FC556DF4F288377
:103E4000CB59D0400E94DD16E82E61E070E080E0A2
:103E500090E00E948F138DE30E94DD16F82E8BEF09
:103E600091E00E947418C556DF4F2881CB59D0408D
:103E7000822F0E946A178EEE91E00E94741860E112
:103E800070E08E2D82958F700E94491885EE91E02A
:103E90000E94741860E170E08F2D82958F700E94EF
:103EA00049185DC0233509F4C7C2822F220F990B30
:103EB0000E94D72E892B09F490C382E090E00E94E3
:103EC0005F18082E000C990B0E94D72E892B09F43D
:103ED00084C380919402882309F47FC381E00E9407
:103EE0008C17F82E83E090E00E945F188E3669F4FC
:103EF00084E090E00E945F18E82E082E000C990BD9
:103F00000E94D72E892B09F0C7C37DE37F1508F0E7
:103F100067C3EEE3FE127BC38EED91E00E9474183E
:103F20002A981C99FECF8EEF0E949D1678015801A9
:103F3000A8E0DA2ED00E80E00E949D16D5018D9368
:103F40005D01DA12F8CF2A9AF70181917F010E9470
:103F50006A1785ED91E00E945D18DE10F5CF83E8C9
:103F600092E00E94BA177DC0823709F031C481E027
:103F700090E00E945F18082E000C990B0E94D72E2B
:103F8000892B09F473C482E090E00E945F18082E28
:103F9000000C990B0E94D72E892B09F0E4C366C44C
:103FA00082E090E0C556DF4F2883CB59D0400E9475
:103FB0005F18C556DF4F2881CB59D040833511F4A7
:103FC0000C94F328853511F40C94DB28833411F418
:103FD0000C94DF28823511F40C94E328843411F416
:103FE0000C94E7288C3411F40C94EB28863411F0EF
:103FF0000C94EF28E0EAF3E0253411F00C94F72854
:1040000081E0808360919D03962F906860919B036F
:10401000660F692B90919C0324E0929FC0011124AC
:10402000682B90919E0338E0939FF00111246E2B32
:1040300090919F0370E1979FA0011124642B9091B0
:10404000020180E2989F90011124622B9091A003BD
:10405000A0E49A9FC0011124682B8FEF90E00E948A
:10406000661680919602811106C063E872E084E9C9
:1040700093E00E94721281E0809395021092A60351
:1040800043E0C42ED12C57E0E52E80916E048823A6
:1040900009F4CAC180916E04815080936E048091AE
:1040A000700460916D040E94862D90937004E091DD
:1040B000700481E08E0F80937004F0E0EE0FFF1F1C
:1040C000EF58FB4F808191819093A1028093A002D1
:1040D00010923C04609139046623E9F070E061506D
:1040E00071098FEA93E00E9478158091340490E082
:1040F000880F991F815B9B4F90934A0480934904DA
:10410000E0914704F09148048081918190933804B4
:104110008093370404C010924A04109249042091FD
:10412000A0023091A102E0914704F091480431834C
:10413000208380913904882361F0E0914904F09153
:104140004A04309731F0408151814227532757FF6D
:1041500003C02115334834F580E00E94100280919D
:1041600039048111F9CF10924A04109249048091C8
:10417000A1038093A2031092A30320916004E09115
:104180004704F091480480819181E22FF0E0EE0F26
:10419000FF1FE15BFB4F918380832F5F20936004BF
:1041A000F12CF8C08E3F50F081E00E94100240E0F8
:1041B00060E08AE993E00E94B81532C0883281F548
:1041C000D0924204C09241048091670490916804A7
:1041D000009751F42091690430916A04232B21F453
:1041E00020916B0420FF1CC0E0916904F0916A04E7
:1041F00040916B0450916C049A013595279540FFCE
:104200000AC0DC01A20FB31F4D915C91E40FF51FB2
:104210000190F081E02D820F931F09958093660431
:104220008090470490904804D401AD90BC90B501B3
:10423000B7FE04C0662777276A197B09072E000C92
:10424000880B990B0E94EB2A2DEC3CEC4CE45EE3CE
:104250000E944A2B0E944D2DAB0170934004609345
:104260003F0470905F04EFE4F4E080E090E0F82E0B
:10427000871500F521913191B9016A257B2577FDDC
:1042800017C021153105A1F0DC01A656BC4F1D96C3
:104290006C91662369F0B501621B730B9B0177FF7C
:1042A00003C0319521953109421753070CF0E3C241
:1042B0000196DDCFB8E07B1248C0E0916004F0E0E9
:1042C000E656FC4F8585833080F0809141049091C3
:1042D0004204181619064CF481E00E94100240E0D6
:1042E00060E08AE993E00E94B815F0903904FF205D
:1042F00061F1FA94E0916004F0E0E656FC4F8585A8
:10430000882319F16F2D70E08FEA93E00E947815F1
:10431000909134048091600498130BC081E08F0D5C
:104320000E94041940E060E08AE993E00E94B81519
:104330000CC0E1E0FE12DDCF809139048E3FC8F25F
:1043400089E093E00E94E718D4CFF0906004E091F8
:104350004704F091480480819181EF2DF0E0EE0F49
:10436000FF1FE15BFB4F9183808381E08F0D8830DD
:1043700019F08093600406C01092600480935F047B
:10438000109262048091600490915F04981710F479
:1043900080935F043F2D8091300490912F048730EB
:1043A000B1F49923A1F0E0912E046E2F70E04091BA
:1043B000330450E041505109641775070CF0BDC239
:1043C000EF5FE0932E04F0E0E656FC4F158A209153
:1043D0003104422F50E0682F70E06F5F7F4F641B05
:1043E000750B161617062CF43F2D01C0330F6A9576
:1043F000EAF7E0912E04F0E0E656FC4F6589362B93
:10440000358B9F5F90932F04682F082E000C770B3D
:104410003B01641A750A77FC04C0821B8093300448
:1044200052C2E09230044FC20E94F212CEC98CE810
:1044300090E00E94E718B8C848E050E062E070E001
:10444000C8010E94C6176BE771E0C8010E94011203
:10445000F82EC8010E94F812FF20E1F04091980365
:104460005091990368E070E0C8010E94C617C80126
:104470000E94F61160936504C8010E94F8126091D1
:10448000650481EF90E00E9466166AE070E080911A
:1044900065042DC048E050E062E070E0C8010E9471
:1044A000C61762E871E0C8010E940112F82EC80127
:1044B0000E94F812FF20F1F0409198035091990367
:1044C00068E070E0C8010E94C617C8010E94F6119A
:1044D0006093A103C8010E94F8126091A10382EFCA
:1044E00090E00E9466166AE070E08091A1030E944D
:1044F000491870C04CE050E062E070E0C8010E94D2
:10450000C61769E871E0C8010E940112F82EC801BF
:104510000E94F812FF2021F14091980350919903D5
:104520006CE070E0C8010E94C617C8010E94F61135
:1045300060930301C801C856DF4F6883C859D04053
:104540000E94F812C856DF4F6881C859D04080EFEA
:1045500090E00E9466166AE070E080910301C7CF88
:104560004BE050E062E070E0C8010E94C61764E9C9
:1045700071E0C8010E940112F82EC8010E94F812D1
:10458000FF2041F140919803509199036BE070E056
:10459000C8010E94C617C8010E94F6117093A503B6
:1045A0006093A403C8010E94F8126091A50383EFF1
:1045B00090E00E9466166091A40384EF90E00E9450
:1045C00066166091A4037091A50380E090E04AE034
:1045D0000E9408188EEC91E04BC188E592E048C13A
:1045E000BEE2BF1510F060E801C060EC8F2D0E94A4
:1045F000CE16E82E8FE192E00E945D188F2D0E946A
:104600006A178EE991E00E945D188E2D42C0F9E98B
:10461000FF1227CDF12CFF2061F0F0E16F2EF61490
:1046200021F0E0E27E2EF7100FC085ED91E00E94B0
:104630005D1887ED91E00E9474188F2D0E946A1713
:1046400084ED91E00E94741860E88F2D0E94CE16D0
:104650000E946A1785ED91E00E945D18F3947FE255
:10466000872EF810D8CF7BCC80919402882309F450
:10467000F8CC8EEF8E0D8E3308F0F3CC6F2D0E94A8
:10468000BA1682EA91E00E945D188E2D0E946A1788
:104690008F2D0E946A1763CC8E2D0E947817E82E0A
:1046A0008EE28F1508F4DDCC8FE192E00E945D1858
:1046B0008F2D0E946A1785EB91E00E945D18E394AC
:1046C000E3948E2D0E946A1780E492E00E945D18A8
:1046D000D12CDE1408F043CC60E88D2D8F0D0E94A4
:1046E000CE160E946A17D394F4CF8F2DFF0C990B2E
:1046F0000E94D72E892B09F182E090E00E945F187A
:10470000082E000C990B0E94D72E892BB1F083E064
:1047100090E00E945F18082E000C990B0E94D72E83
:10472000892B59F084E090E00E945F18082E000C5D
:10473000990B0E94D72E892B19F484E492E098C03B
:1047400081E00E948C17E82E83E00E948C17F82EDF
:10475000682F8E2D90E00E94661690EFE91284CFAC
:10476000F09203017ECC81E00E948C17E82E8CE34E
:1047700092E00E9474188E2D0E946A1683E090E0E9
:104780000E945F18F12C8E36C9F489E392E00E94F2
:104790007418C12CD12C85ED91E00E945D18C601E2
:1047A0008E0D9F1D0E9468160E946A162FEFC21A76
:1047B000D20A30E1C316D10471F7D1CB85E392E080
:1047C0000E947418C7010E9468160E946A16C7CB1F
:1047D000883709F040C081E090E00E945F18082E01
:1047E000000C990B0E94D72E892B09F43FC082E060
:1047F00090E00E945F18082E000C990B0E94D72EA3
:10480000892BA1F180919402882381F181E00E949B
:104810008C17D82E60E3E62EF12C61E3E61204C07B
:104820006D2D81E390E002C060E0C7010E94661632
:104830007FEFE71AF70A88E3E816F10471F70E94A0
:10484000A3168EE292E00E9474188D2D0E946A16C3
:104850008DE192E00DC0853649F480919402882361
:1048600029F00E9478160E943117FBCB89E092E074
:104870000E94E718F6CBF7FC1DCD8F2D880F990B02
:10488000DC01A15BBB4F5D016D917C91AB01770FAA
:10489000660B770BF40180819181092E000CAA0B25
:1048A000BB0B3A014B01680E791E8A1E9B1EC40188
:1048B000B30122E030E040E050E00E94DC2DD50161
:1048C0002D933C9367CD809139048F5F8093390499
:1048D000E0914704F09148048081918190933604DF
:1048E00080933504EF2DFF0CFF0BE656FC4F8585BA
:1048F0008F5F858780919F03882389F08091A6032D
:10490000882369F0F0906E04809103018F1538F4CC
:1049100088E193E00E9474188F2D0E94F318809113
:10492000A603882339F080910201882319F081E0E1
:10493000809395021092A603A8CB84E093E00E9496
:1049400074186AE070E08F2D0E9449188AEF92E097
:104950000E9474186AE070E080912E040E94491849
:1049600086EE92E00E94E7188FEE91E00E945D18BB
:10497000E0916104E7FDDBC0EE0FFF0BE15BFB4F55
:104980006AE070E0808191810E94A01884EA91E041
:104990000E945D18E0916104EE0FFF0BE15BFB4F9D
:1049A00060817181072E000C880B990B0E94EB2A05
:1049B0004B015C01E0919A03EE0FFF0BE15BFB4FB3
:1049C00060817181072E000C880B990B0E94EB2AE5
:1049D0009B01AC01C501B4010E94D42C4B015C01C8
:1049E0002B013C019B01AC010E94812D882319F011
:1049F00083EB91E021C0C501B4019F77EF966CAFC6
:104A00007DAF8EAF9FAFEF972FEF3FEF4FE75FE7A1
:104A10000E94812D811113C02FEF3FEF4FE75FE719
:104A2000EF966CAD7DAD8EAD9FADEF970E94E42A01
:104A300018162CF487EB91E00E94A41774C02FEF96
:104A40003FEF4FE75FE4C501B4010E947C2D1816CB
:104A50001CF48BEB91E0F0CF2FEF3FEF4FE75FECD3
:104A6000C501B4010E94E42A87FDF3CF20E030E0C5
:104A7000A901C501B4010E94E42A87FF09C08DE2A3
:104A80000E9495182401350177FA709477F8709494
:104A90002AE037ED43EA5BE3C301B2010E94682CD0
:104AA0002B013C010E944D2D4B015C010E94E92A23
:104AB0009B01AC01C301B2010E94672C2B013C0198
:104AC0004AE0C501B4010E9408188EE20E949518C0
:104AD00020E030E040E251E4C301B2010E944A2BE1
:104AE0004B015C010E944D2D2B01612C712C4AE081
:104AF000C301B2010E940818C301B2010E94E92A51
:104B00009B01AC01C501B4010E94672C20E030E09C
:104B100040E251E40E944A2B0E944D2D80E090E03B
:104B20004AE00E9408188FEB91E00E945D1881EC2A
:104B300091E00E945D18E0919A03E7FD0BC0EE0F33
:104B4000FF0BE15BFB4F6AE070E0808191810E9486
:104B5000A01804C08AEC91E00E945D188AED92E0F2
:104B60000E9474186AE070E080915F040E94491806
:104B70008FEC91E00E945D186AE070E08091600423
:104B80000E94491882ED91E00E945D1886EC92E047
:104B90000E947418E0914704F09148046AE070E0C4
:104BA000808191810E94A01884ED91E00E945D189F
:104BB000E0914904F0914A046AE070E080819181BB
:104BC0000E94A01884ED91E00E945D186AE070E0F8
:104BD00080913504909136040E94A01884ED91E0F4
:104BE0000E945D186AE070E080913704909138046B
:104BF0000E94A0188BEB92E00E9474186AE070E0AB
:104C000080913A040E94491882EB92E00E94741845
:104C10006AE070E080913B040E94491887EA92E0C4
:104C20000E9474186AE070E080912F040E94491875
:104C30008FE992E00E947418809162046AE070E04B
:104C400090E00E94A01884E992E00E94741880917C
:104C50003D046AE070E090E00E94A0188AE892E0CB
:104C60000E9474186AE070E08091410490914204BF
:104C70000E94A0180E94B61781E892E00E94741862
:104C8000B12C80913904B81688F46B2D70E08FEA4E
:104C900093E00E947815809134046AE070E0082E59
:104CA000000C990B0E94A018B394EBCF87ED91E014
:104CB0000E945D188AED91E00E945D186AE070E044
:104CC000809139040E9449188DED91E00E94BA1735
:104CD0008FED91E00E945D18B12C80915F04B816B1
:104CE00070F589EE91E00E945D186AE070E08B2D0E
:104CF0000E94491883EF91E00E945D188B2C912C43
:104D0000F401E656FC4F6AE070E085850E94491880
:104D10008CEE91E00E945D18F401EE0FFF1FE15B45
:104D2000FB4F80819181009721F06AE070E00E9442
:104D3000A0188DED91E00E945D18B394CECF83E86A
:104D400092E00E94BA1783E892E00E94BA17C0CDA1
:104D500080919402882349F18BE30E94DD160E9422
:104D6000E6169EEF9F3F09F185E3C856DF4F988313
:104D7000C859D0400E94DD16C856DF4F9881C859E7
:104D8000D040FF24FA94F90E8077803241F061E040
:104D900070E080E090E00E948F139F2DE3CF91118F
:104DA00004C081E691E00E94BA17CF57DF4F188206
:104DB000C158D040CF57DF4F3881C158D040C2577B
:104DC000DF4F6880CE58D040361509F4B2C1412C6F
:104DD000A6E1A49DC0011124F801E80FF91F20816C
:104DE0003181232BE1F0F12C9F012B5E3F4FCF56F9
:104DF000DF4F39832883C159D0403F012251310907
:104E0000CD56DF4F39832883C359D0402150310913
:104E1000CB56DF4F39832883C559D040CCC0312CC5
:104E20009F012B5E3F4FCE57DF4F39832883C258F7
:104E3000D04005963801680E791ECC57DF4F798235
:104E40006882C458D04022513109C857DF4F398396
:104E50002883C858D04021503109C657DF4F3983C5
:104E60002883CA58D040CE57DF4FA881B981C25895
:104E7000D0408C91381608F0A8C0C857DF4FA881E1
:104E8000B981C858D0400D90BC91A02DC158DF4FBA
:104E9000B983A883CF57D040C657DF4FE881F98147
:104EA000CA58D040E0800E946A133B014C01F12CAB
:104EB000C158DF4F28813981CF57D0402E153F058B
:104EC00078F1C7010E945F188053CC57DF4FE8810B
:104ED000F981C458D040E80FF11DE80FF11DA08002
:104EE000B1806501B7FE04C0CC24DD24CA18DB08FC
:104EF0000E946A136615770588059905C8F3B7FE01
:104F000002C05B9801C05B9AC601DD0CAA0BBB0B0B
:104F1000680E791E8A1E9B1EFFEFEF1AFF0AC8CF8C
:104F20000E946A136615770588059905C8F33394BE
:104F30009ACFFF2031F061E070E080E090E00E94C5
:104F40008F13F301C080D180CD56DF4FA881B98186
:104F5000C359D040BC91C857DF4FB883C858D04020
:104F6000CB56DF4FE881F981C559D040E0800E94DF
:104F70006A134B015C01B601DD0C880B990BCC5711
:104F8000DF4F688379838A839B83C458D040660F40
:104F9000771F881F991FC657DF4F688379838A83DD
:104FA0009B83CA58D040C857DF4F2881C858D0408B
:104FB0002E15E0F4F394CF56DF4FA881B981C15983
:104FC000D0408C91F81608F4B4CF5B9843945414F5
:104FD00008F0FECECF57DF4F2881C158D0402F5F59
:104FE000CF57DF4F2883C158D040E4CE8E2D90E0BC
:104FF0000E945F188A3314F097E301C090E3891B85
:10500000B4E02B2E312C28E0C158DF4F2883CF5736
:10501000D040282F880F330BC157DF4F39832883A7
:10502000CF58D040A5019401CE57DF4F1882C25807
:10503000D040C158DF4F6881CF57D040C62ED12C09
:10504000C157DF4F88819981CF58D040C822D922DB
:10505000C114D10409F44DC05B98CC57DF4F88814F
:105060009981AA81BB81C458D040280F391F4A1F9B
:105070005B1FC556DF4F2883CB59D040C656DF4F44
:105080003883CA59D040C856DF4F4883C859D040EA
:10509000C756DF4F5883C959D0400E946A13C5567E
:1050A000DF4F2881CB59D040C656DF4F3881CA59CF
:1050B000D040C856DF4F4881C859D040C756DF4F4F
:1050C0005881C959D040621773078407950788F241
:1050D000CE57DF4F9881C258D040913061F061E0E7
:1050E000CE57DF4F6883C258D040C114D10409F4B1
:1050F000B3CF5B9AB2CFC657DF4F688179818A817F
:105100009B81CA58D040860E971EA81EB91EC15852
:10511000DF4F2881CF57D0402695C158DF4F2883D5
:10512000CF57D04031E0231A310809F07BCFE39408
:105130003ACF4091980350919903609194037091F4
:10514000950383EF92E00E94EE10EC967FACEC9713
:10515000772011F40C94121E8CE491E00E947418D4
:105160009E012B583F4F69018CE0F82EEA963FAD27
:10517000EA97F31A8C2DEA96BFADEA978B1BEC9653
:105180006FACEC97861510F00C94121ED6016D9141
:105190006D01862FC856DF4F6883C859D0400E94E2
:1051A0006A16C856DF4F6881C859D0408F2D8C0DC4
:1051B0000E94BA16DFCFEBE9F3E00C94FC1FECE998
:1051C000F3E00C94FC1FEEE9F3E00C94FC1FEFE914
:1051D000F3E00C94FC1FE2E0F1E00C94FC1FE0E033
:1051E000F0E00C94FC1FEDE9F3E00C94FC1F10823E
:1051F0000C94022084E993E00C94F812CF93DF938F
:10520000E3EFF2E01382128288EE93E0A0E0B0E0D8
:1052100084839583A683B78382E191E09183808321
:1052200085EC90E09587848784EC90E0978786876B
:1052300080EC90E0918B808B81EC90E0938B828B63
:1052400082EC90E0958B848B86EC90E0978B868B3C
:10525000118E128E138E148EEDE6F4E084E68083B8
:10526000118213821282CAE9D3E08FE7809333045C
:1052700084E0809331041D8A10922E0410922F0432
:1052800087E08093300480EF80933204E3E4F4E01D
:10529000F0934804E093470485E494E090934A0433
:1052A00080934904109268041092670410926A0473
:1052B0001092690410926C0410926B041182108297
:1052C000CE010E941A1681E1809365041886198622
:1052D00063E872E084E993E00E94FD120E946A1381
:1052E0006093900370939103809392039093930340
:1052F000DF91CF910895CF93DF938230910510F421
:1053000082E090E0E0913B05F0913C0520E030E048
:10531000C0E0D0E0309711F1408151814817590722
:10532000C0F04817590761F482819381209719F0E2
:105330009B838A832BC090933C0580933B0526C0BA
:105340002115310519F04217530718F49A01BE01CF
:10535000DF01EF010280F381E02DDCCF2115310563
:1053600009F1281B390B2430310590F412968D91E8
:105370009C9113976115710521F0FB019383828342
:1053800004C090933C0580933B05FD01329644C0D8
:10539000FD01E20FF31F81939193225031092D9368
:1053A0003C933AC02091390530913A05232B41F4C2
:1053B00020910A0130910B0130933A052093390571
:1053C00020910801309109012115310541F42DB7D3
:1053D0003EB740910C0150910D01241B350BE0911B
:1053E0003905F0913A05E217F307A0F42E1B3F0BA5
:1053F0002817390778F0AC014E5F5F4F2417350747
:1054000048F04E0F5F1F50933A0540933905819342
:10541000919302C0E0E0F0E0CF01DF91CF910895D9
:105420000F931F93CF93DF93009709F48CC0FC0177
:1054300032971382128200913B0510913C050115B1
:10544000110581F420813181820F931F209139054C
:1054500030913A052817390779F5F0933A05E0932A
:10546000390571C0D80140E050E0AE17BF0750F4D5
:1054700012962D913C911397AD012115310509F13B
:10548000D901F3CF9D01DA013383228360817181D9
:10549000860F971F8217930769F4EC0128813981E1
:1054A000260F371F2E5F3F4F318320838A819B81D8
:1054B00093838283452B29F4F0933C05E0933B05CD
:1054C00042C01396FC93EE931297ED0149915991C6
:1054D0009E01240F351FE217F30771F4808191813B
:1054E000840F951F029611969C938E9382819381CF
:1054F00013969C938E931297E0E0F0E0D8011296F9
:105500008D919C911397009719F0F8018C01F6CFBB
:105510008D919C9198012E5F3F4F820F931F209198
:10552000390530913A052817390769F4309729F47D
:1055300010923C0510923B0502C013821282109318
:105540003A0500933905DF91CF911F910F9108958E
:105550001F93FC0199278827BC01E8941191103210
:10556000E9F3193010F01E30C8F31B3251F01D3230
:1055700049F4689406C00E94CF2A610F711D811DF5
:10558000911D119110531A30B0F33EF4909580950F
:10559000709561957F4F8F4F9F4F1F910895592FA1
:1055A000482F372F262F660F771F881F991F660FEA
:1055B000771F881F991F620F731F841F951F660F27
:1055C000771F881F991F08950E94262B08F481E0F9
:1055D0000895E89409C097FB3EF4909580957095E6
:1055E00061957F4F8F4F9F4F9923A9F0F92F96E92F
:1055F000BB279395F695879577956795B795F111A4
:10560000F8CFFAF4BB0F11F460FF1BC06F5F7F4F40
:105610008F4F9F4F16C0882311F096E911C0772352
:1056200021F09EE8872F762F05C0662371F096E85B
:10563000862F70E060E02AF09A95660F771F881F2A
:10564000DAF7880F9695879597F90895990F0008CE
:10565000550FAA0BE0E8FEEF16161706E807F90744
:10566000C0F012161306E407F50798F0621B730BDF
:10567000840B950B39F40A2661F0232B242B252B60
:1056800021F408950A2609F4A140A6958FEF811D03
:10569000811D08950E945D2B0C94D12B0E94C32B79
:1056A00038F00E94CA2B20F0952311F00C94BA2BED
:1056B0000C94C02B11240C94052C0E94E22B70F347
:1056C000959FC1F3950F50E0551F629FF001729FA7
:1056D000BB27F00DB11D639FAA27F00DB11DAA1FB6
:1056E000649F6627B00DA11D661F829F2227B00D03
:1056F000A11D621F739FB00DA11D621F839FA00D8E
:10570000611D221F749F3327A00D611D231F849FDD
:10571000600D211D822F762F6A2F11249F57504034
:105720009AF0F1F088234AF0EE0FFF1FBB1F661FAF
:10573000771F881F91505040A9F79E3F510580F078
:105740000C94BA2B0C94052C5F3FE4F3983ED4F3F1
:10575000869577956795B795F795E7959F5FC1F71C
:10576000FE2B880F911D9695879597F90895992797
:105770008827089597F99F6780E870E060E00895B2
:105780009FEF80EC089500240A9416161706180659
:105790000906089500240A94121613061406050635
:1057A0000895092E0394000C11F4882352F0BB0FC6
:1057B00040F4BF2B11F460FF04C06F5F7F4F8F4F29
:1057C0009F4F089557FD9058440F551F59F05F3F64
:1057D00071F04795880F97FB991F61F09F3F79F013
:1057E00087950895121613061406551FF2CF469595
:1057F000F1DF08C0161617061806991FF1CF869517
:105800007105610508940895E894BB2766277727FA
:10581000CB0197F90895F999FECF92BD81BDF89A11
:10582000992780B50895262FF999FECF1FBA92BD0A
:1058300081BD20BD0FB6F894FA9AF99A0FBE019671
:1058400008952F923F924F925F926F927F928F9224
:105850009F92AF92BF92CF92DF92EF92FF920F93FF
:105860001F93CF93DF93CDB7DEB7CA1BDB0B0FB609
:10587000F894DEBF0FBECDBF09942A8839884888C6
:105880005F846E847D848C849B84AA84B984C8845C
:10589000DF80EE80FD800C811B81AA81B981CE0F53
:1058A000D11D0FB6F894DEBF0FBECDBFED01089538
:1058B000A29FB001B39FC001A39F700D811D112451
:1058C000911DB29F700D811D1124911D0895505896
:1058D000BB27AA270E947F2C0C94D12B0E94C32B9C
:1058E00038F00E94CA2B20F039F49F3F19F426F4B7
:1058F0000C94C02B0EF4E095E7FB0C94BA2BE92F27
:105900000E94E22B58F3BA176207730784079507C2
:1059100020F079F4A6F50C94042C0EF4E0950B2EEF
:10592000BA2FA02D0B01B90190010C01CA01A001F1
:105930001124FF27591B99F0593F50F4503E68F14C
:105940001A16F040A22F232F342F4427585FF3CF8D
:10595000469537952795A795F0405395C9F77EF45E
:105960001F16BA0B620B730B840BBAF09150A1F0A7
:10597000FF0FBB1F661F771F881FC2F70EC0BA0F2D
:10598000621F731F841F48F4879577956795B795B5
:10599000F7959E3F08F0B0CF9395880F08F09927B0
:1059A000EE0F9795879508950E94E82C0C94D12BC3
:1059B0000E94CA2B58F00E94C32B40F029F45F3F8D
:1059C00029F00C94BA2B51110C94052C0C94C02B7B
:1059D0000E94E22B68F39923B1F3552391F3951BB1
:1059E000550BBB27AA2762177307840738F09F5F00
:1059F0005F4F220F331F441FAA1FA9F335D00E2E6D
:105A00003AF0E0E832D091505040E695001CCAF7D9
:105A10002BD0FE2F29D0660F771F881FBB1F26179C
:105A200037074807AB07B0E809F0BB0B802DBF0173
:105A3000FF2793585F4F3AF09E3F510578F00C9442
:105A4000BA2B0C94052C5F3FE4F3983ED4F3869573
:105A500077956795B795F7959F5FC9F7880F911D63
:105A60009695879597F90895E1E0660F771F881F4F
:105A7000BB1F621773078407BA0720F0621B730B02
:105A8000840BBA0BEE1F88F7E09508950E944D2D08
:105A90006894B1110C94052C08950E94EA2B88F0AB
:105AA0009F5798F0B92F9927B751B0F0E1F0660FE2
:105AB000771F881F991F1AF0BA95C9F714C0B13023
:105AC00091F00E94042CB1E008950C94042C672FEF
:105AD000782F8827B85F39F0B93FCCF38695779552
