:100000000C94E6010C9443140C941C140C940E02F2
:100010000C940E020C940E020C940E020C940E0220
:100020000C940E020C940E020C940E020C940E0210
:100030000C940E020C946A140C940E020C940E0292
:100040000C94D2130C940E020C9451120C942B129B
:100050000C940E020C940E020C940E020C940E02E0
:100060000C940E020C940E02496E69742065657042
:10007000726F6D20746F2064656661756C74732097
:10008000616674657220666C6173680052656164B4
:10009000696E672076616C7565732066726F6D207E
:1000A000656570726F6D0063633131303120697343
:1000B000206E6F7420636F72726563746C79207345
:1000C00065742E20506C6561736520646F2061201B
:1000D000666163746F7279207265736574207669E6
:1000E0006120636F6D6D616E64206500726563658C
:1000F0006976657220656E61626C65640053746137
:100100007274696E672074696D65726A6F6200202F
:100110006363506172746E756D3D00206363566554
:10012000723D006F6B2E006E6F2043433131787843
:1001300020666F756E6421004343496E6974200028
:100140005573696E6720734649464F006363726555
:1001500067207772697465206261636B2000736544
:100160006E64206661696C6564003B4D646562463F
:1001700069666F4C696D69743D003B6D634D696ED6
:100180004269744C656E3D003B4D7553706C6974EB
:100190005468726573683D005F4D53636E743D0033
:1001A0003B4D64656275673D003B4D66696C743D0F
:1001B00031003B4C45443D30003B4D7265643D0091
:1001C0003B4D433D003B4D553D004D533D002043CD
:1001D000536574003A2000636372656720004333FF
:1001E00045203D20002064656C617931200020634A
:1001F0006869705374617475732000636D6453741F
:10020000726F62655265672000556E737570706F0E
:100210007274656420636F6D6D616E640020746F2D
:100220002050415441424C4520646F6E6500577226
:100230006974652000203D2000203A004545505259
:100240004F4D2000556E737570706F727465642029
:10025000636F6D6D616E6400556E737570706F7253
:1002600074656420636F6D6D616E6400636331312A
:100270003031200020557365206F6E65206F662039
:10028000005369676E616C3A20002C2073746174AE
:10029000653A20002C206D7472756E633A20002C34
:1002A000204D43443A20002C2076616C636E743AF2
:1002B00020002C206D656E643A20002C206D537454
:1002C0006172743A20002C2050756C73653A204698
:1002D0002F4C2F464C2F4C5020002C205061747412
:1002E0004C656E3A20002061646444617461206F43
:1002F000766572666C6F7721210020627974656380
:100300006E743D0076616C3D00206D62206E6D2044
:10031000622070726F6320004D443D006D4F766522
:1003200072666C6F772673746174653D3021000DC1
:100330002E2D07D3913D04320000060010B07157F6
:10034000C43023B900070018146C070090876BF8BD
:100350005611E92A001F4100000000002500280076
:100360002B00040404040404040402020202020236
:100370000303030303030102040810204080010269
:1003800004081020010204081020000000080002E8
:100390000100000304070000000000000000636D7E
:1003A0006420746F206C6F6E67210020737461721B
:1003B000743D0020627566664D6F7665206F7665C8
:1003C00072666C6F772100001D28192811241FBE4A
:1003D000CFEFD8E0DEBFCDBF12E0A0E0B1E0EAEEA3
:1003E000F1E602C005900D92AE37B107D9F725E0CE
:1003F000AEE7B2E001C01D92AD32B207E1F711E005
:10040000C5EED1E004C02197FE010E94212DC43E1B
:10041000D107C9F70E9416190C94E8300C9400001B
:100420002F923F924F925F926F927F928F929F9204
:10043000AF92BF92CF92DF92EF92FF920F931F93F2
:10044000CF93DF93CDB7DEB7E7970FB6F894DEBF53
:100450000FBECDBF882E882321F081E080932D042C
:1004600002C010922D0480915204909129048111B0
:1004700004C0983210F40C94690E10922C0481E0A0
:100480009E3F09F080E080932E0440E060E08AE81F
:1004900093E00E94D114F12C2F2C312CE0904F04CA
:1004A0008E2D90E00197281639060CF007C1F10156
:1004B000E657FC4FCF010D962585F394222361F377
:1004C000EF2C9101220F331FA901415C5B4F5C8F20
:1004D0004B8F9E8F8D8F58A34F8F80914F04E816BE
:1004E000D8F62E2D30E0B90166577C4F788F6F8B90
:1004F000DB011D968C91882309F4DEC0EB8DFC8D09
:10050000008111815901AA0CBB1CF501E15CFB4F74
:1005100060817181CB018027912797FDCDC04090EC
:100520003B0450903C0460903D0470903E046B018D
:10053000C01AD10AD7FE03C0D194C194D10877FF65
:1005400003C0719561957109072E000C880B990BFA
:100550000E940A2AA30192010E94692A69A37AA330
:100560008BA39CA3B80117FF03C071956195710916
:10057000072E000C880B990B0E940A2AA3019201F6
:100580000E94692A9B01AC0169A17AA18BA19CA15F
:100590000E94872B20E030E040E05FE30E94692A60
:1005A0000E94652C6C157D050CF486C0D12CC12CE5
:1005B0000F89188D035F1F4F80912904D81608F00A
:1005C00041C0D8018C91C816E8F56D2D70E08FE917
:1005D00093E00E949114809124048E1131C0809187
:1005E0002104482F50E0D89EC0011124FC0123E0D3
:1005F000F695E7952A95E1F720912304E217F8F4A0
:10060000FF27E657FC4F2091220430E0877099279E
:10061000082E02C0359527950A94E2F72095358972
:10062000232368E070E0641B750BAB01481B590B7A
:10063000C10101C0880F4A95EAF7282B258BC39486
:10064000D394BACFED8DFE8D1081AF89B88D1D96F4
:100650000C91EF8DF8A1A081B1819501215C3B4FF8
:100660006901F901A080B180E12FF0E09F010E94B3
:100670001A2D2B013C01402F50E09A01D5010E9418
:100680001A2D640D751D861D971DE40FF51F9F0122
:10069000FF0F440B550B0E94FB2CAF8DB8A12D937F
:1006A0003C93100FED8DFE8D1083AF89B88D1D9694
:1006B0001C92F60111821082E3940FCF1092320443
:1006C000109231048FEF80938A03F0902904BFE3E6
:1006D000AB2EB4E0BB2E00E010E0CC24CA94DC2C9E
:1006E0004F2C512C612C712C0E1508F061C0FFEFBE
:1006F000CF16DF0631F5D5018D919C9197FD21C074
:10070000F801E657FC4F658570E080E090E00E94BC
:100710000A2A6F8B788F898F9A8FC301B2010E944A
:100720000A2A2BE734E14EE25EE30E94692A9B012C
:10073000AC016F89788D898D9A8D0E949B2C18163B
:1007400084F1F5018081918197FD2CC0F601EE0FB7
:10075000FF1FE15CFB4F208131818217930714F565
:10076000F801E657FC4F658570E080E090E00E945C
:100770000A2A6F8B788F898F9A8FC301B2010E94EA
:100780000A2A2BE734E14EE25EE30E94692A9B01CC
:10079000AC016F89788D898D9A8D0E949B2C1816DB
:1007A0000CF468010F5F1F4FF2E0AF0EB11C9CCF3D
:1007B0002FEFC216D20641F0C0928A0381E090E08A
:1007C00090933204809331048091310490913204EB
:1007D000019709F0A3C080918D03882309F49EC07E
:1007E0008091540481119AC08F2D90E08C3891052E
:1007F0001CF438EDF30E02C0E4E6FE2EEA9476E037
:10080000772E7FEFE71609F487C00E2D0E2C000C13
:10081000110BF801E657FC4F4585442309F47AC0D3
:10082000F801EE0FFF1FE15CFB4F2081318137FFA4
:1008300071C0319521953109283652E435070CF005
:1008400069C0E0918A03EE0FFF0BE15CFB4F019062
:10085000F081E02DC901BF010E94B12C6832710501
:1008600008F058C07E9EC0017F9E900D1124821713
:10087000930708F04FC0642F70E080E090E00E9482
:100880000A2A5B016C016091290470E080E090E02D
:100890000E940A2A2AE037ED43EA5DE30E94692AB2
:1008A0009B01AC01C601B5010E94032A87FF32C03B
:1008B000A12CB12CAF1470F565016FEFC61AD60AE2
:1008C000B6018FE993E00E9491148091240490E096
:1008D0008017910711F00C94720EB5018FE993E027
:1008E0000E9491142091240430E080918A03082E04
:1008F000000C990B2817390711F00C94720EE09236
:10090000510482E090E09093320480933104A092ED
:100910002A0404C0EA9475CFE09251048091310416
:1009200090913204029709F040C2809129048832E4
:1009300008F43BC280912A048E5F80932B0460915F
:100940002B0470E08091290490E0019768177907E3
:1009500044F56F5F7F4F8FE993E00E9491142091DF
:10096000240430E080915104082E000C990B2817C4
:100970003907A1F460912B0470E08FE993E00E94A5
:1009800091142091240430E080918A03082E000CF9
:10099000990B2817390711F40C94750E80912B04CC
:1009A000CBCF10E080912B04282F30E090912A04C7
:1009B000291B310928323105DCF591E0980F90931D
:1009C0002A048D5F80932B0460912B0470E080914A
:1009D000290490E00197681779074CF56F5F7F4F06
:1009E0008FE993E00E9491142091240430E08091DB
:1009F0005104082E000C990B28173907A1F46091B7
:100A00002B0470E08FE993E00E949114209124045C
:100A100030E080918A03082E000C990B28173907C3
:100A200011F40C947D0E80912B048E5FCBCF10E0DF
:100A30008091290490912B04891710F0111103C0A3
:100A4000815080932B0440912B0460912A048AE802
:100A500093E00E94D11480912A04112351F09091C7
:100A60002B04292F30E0281B3109283231056CF482
:100A70008CC1209129042E3F08F07AC130E0281B58
:100A80003109283231050CF473C180918E0388231B
:100A900009F4AEC082E00E94AC1789EF91E00E9499
:100AA00074178BE30E94AC1720E080914F04281745
:100AB000C8F5822F90E0FC01EE0FFF1FE15CFB4FB9
:100AC000008111810115110559F1FC01E657FC4F18
:100AD0008585882329F1622F17FF05C0606A11956B
:100AE0000195110901C06068F02E07FD04C0802F38
:100AF0008068F82E01C0606183EE92E02FAB0E9407
:100B00009E106F2D83EE92E00E949E10612F606810
:100B100083EE92E00E949E108BE30E94AC172FA9F7
:100B20002F5FC3CF80912B0480FF03C08CEF91E037
:100B300002C082E792E00E947417E0912A04E0FF6D
:100B400016C0E150E0932A04E69580912304E8174B
:100B500020F4F0E0E657FC4F9588692D83EE92E093
:100B60000E949E1080912A048E5F80932A04109127
:100B70002A0480912B04811788F0E12FE69580915B
:100B80002304E81720F4F0E0E657FC4F9588692D20
:100B900083EE92E00E949E101E5FEBCF8BE30E94DB
:100BA000AC1786E192E00E94741780918A0360E19D
:100BB00070E0082E000C990B0E94B7178BE30E947F
:100BC000AC1781E092E00E9474178091510460E1BB
:100BD00070E0082E000C990B0E94B7178BE30E945F
:100BE000AC178EEF91E00E94741760E170E07AC05C
:100BF00082E00E94AC1780E092E00E9474178BE3C1
:100C00000E94AC1710E080914F04181750F5812F07
:100C100090E09C01220F331FD901A15CBB4F7D01E5
:100C20002D913C91232BD9F0FC01E657FC4F858593
:100C30008823A9F080E50E94AC176AE070E0812F5C
:100C40000E9460178DE30E94AC176AE070E0F70124
:100C5000808191810E94B7178BE30E94AC171F5FC0
:100C6000D2CF83E092E00E94741710912A04809101
:100C70002B04811770F0612F70E08FE993E00E94E0
:100C800091146AE070E0809124040E9460171F5F55
:100C9000EECF8BE30E94AC1786E092E00E947417BF
:100CA00080918A036AE070E0082E000C990B0E9484
:100CB000B7178BE30E94AC178AE092E00E9474178A
:100CC000809151046AE070E0082E000C990B0E949C
:100CD000B7178BE30E94AC178EE092E00E94741766
:100CE0006AE070E0809156040E9460178BE30E94D6
:100CF000AC1780912E04882339F081E192E00E94A4
:100D000074178BE30E94AC1710922D0480912B0472
:100D10002091290430E0281B310928323105ECF0FC
:100D2000909192039923C9F09150909392038F5F11
:100D30000E941F1810922A0480918F03882369F063
:100D400083E192E00E9474176AE070E08091920360
:100D50000E9460178BE30E94AC1783E00E94AC17DF
:100D600080E691E00E94741781E0809396031AC098
:100D70008823A1F020912B0430E02D3F310574F041
:100D8000811007C010922D040DC09E3F38F481E001
:100D9000890F0E941F1810922A0404C08AE893E069
:100DA0000E94331581E080932C0480912C048111E2
:100DB0007AC780918B03F0918C03F9A7811103C04E
:100DC000FF2309F470C729A5222309F444C58091A3
:100DD0009202811129C082E38093D60291E0909320
:100DE000D40210929F021092D1021092D20287E098
:100DF0008093D30280E88093D5028FEF8093DA024C
:100E00008093DB028093DC028093DD021092E20289
:100E10002AE833E03093D9022093D8021092DF02FF
:100E20001092DE029093920280915204882399F0EE
:100E30008091D8029091D902FC01ED55FF4F1082AC
:100E400033971082D12C11E0CC24C39499249A9426
:100E500087E0582EDBC18FEF8093DA028093DB02AC
:100E60008093DC028093DD021092E2021092DF0296
:100E70001092DE0210929F021092D1021092D202C2
:100E800087E08093D302809155048093E002009123
:100E9000D8021091D902F801EB53FF4FF08033E0F4
:100EA0003F1508F0CDC4B697608170E080E090E017
:100EB0000E940A2A2AE037ED43E25DE30E94692A94
:100EC0002B013C0120E030E0A9010E949B2C20E096
:100ED00030E040E05FE387FD05C0C301B2010E943E
:100EE000872B04C0C301B2010E94862B0E94652C8F
:100EF000A801435F5F4FD801AB54BF4FA12C70E0F6
:100F0000FA018191AF01861758F1EA2C8E2D90E0FD
:100F1000EE20F1F0FE01E80FF91FD08098012D0DB1
:100F2000311D2D0D311DF901EB54FF4F2D913C91D9
:100F300011970190F081E02D2E173F074CF4E1E06E
:100F4000F0E0EC0FFD1FE80FF91FD082EA94DECF2E
:100F5000E1E0F0E0EC0FFD1FE80FF91F7083A394B0
:100F60007F5F12967F11CCCF9E012F5F3F4F3A8B50
:100F7000298B3EA32DA3BE01675F7F4F7C8B6B8BBC
:100F8000CE010D969E8B8D8B8C5F8EAB898989AB44
:100F90008DA19989891B8A1508F052C4ADA1BEA103
:100FA0002D91BEA3ADA34091D8023091D902842FD8
:100FB000932F820F911D820F911DFC01EB54FF4F67
:100FC000208131813C8F2B8F12161306FCF68FEF98
:100FD0008093DA028093DB028093DC028093DD024F
:100FE000359527953EA72DA7AE014F5F5F4F5AA3BA
:100FF00049A31FA218A66FEF7FEF788F6F8B8B8DA1
:101000009C8D092E000CAA0BBB0B8AAB9BABACAB27
:10101000BDAB89A179A9871B8A1508F0B7CFA9A113
:10102000BAA1BD90BAA3A9A33091D8022091D90248
:10103000832F922F8B0D911D8B0D911DFC01EB5475
:10104000FF4F008111816AA97BA98CA99DA90E94EB
:101050000A2A2B013C01680117FF04C0CC24DD24BF
:10106000C01AD10AEDA4FEA4EC18FD08F7FE03C0D7
:10107000F194E194F1082DEC3CEC4CE45EE3C30107
:10108000B2010E94692A0E94652C6E157F050CF042
:10109000B0C2EB8CFC8CEC18FD08F7FE03C0F19499
:1010A000E194F1082DEC3CEC4CEC5EE3C301B201A1
:1010B0000E94692A0E94652C6E157F050CF025C6DA
:1010C000A8CF8D2D0E94CC18E090D802F090D902C4
:1010D000F701E056FF4F9082B50161507109C701D9
:1010E00045960E949114F701E656FF4F808190E0EB
:1010F0002091DC02022E000C330B8217930709F4B7
:101100007FC62091DD02022E000C330B821793075D
:1011100009F476C6E091D802F091D902E056FF4F6B
:1011200080818F3F09F400830091E102C092E202C6
:10113000A090D802B090D902F501E156FF4F80810E
:10114000081708F0F5C0E02EF12CB701C50145964F
:101150000E949114F501E656FF4F808190E02091A6
:10116000DA02022E000C330B8217930709F4B6C67D
:101170002091DB02022E000C330B8217930709F437
:10118000ADC6A090D802B090D902F501E156FF4F4C
:10119000208130E021503109E216F3060CF0C8C07E
:1011A000DD2009F4BCC02091DD02022E000C330BBF
:1011B0008217930709F4CDC6102FDD24D3948091B4
:1011C000D8029091D902FC01E156FF4F208102170D
:1011D00010F411E0100F4091D20250E02091E00293
:1011E000022E000C330BFC01421753070CF0A8C071
:1011F000E653FF4F2081222309F49CC010929F02E6
:101200001092D1021092D2025092D3022091D802B1
:101210003091D902412F50E0F901E156FF4F808112
:1012200090E04E97481759070CF00AC3F901E753AD
:10123000FF4FC082A12EB12CE090D802F090D902CD
:10124000F701E156FF4F808190E00197A816B9069B
:101250000CF053C0B501C70145960E949114F701E7
:10126000E656FF4F6080712C8091DB02082E000C47
:10127000990B68167906A1F18091DA02082E000C0C
:10128000990B6816790651F5E090D802F090D902D2
:10129000B50161507109C70145960E949114F7018B
:1012A000E656FF4F8081E80EF11CE80EF11CF701B5
:1012B000EB54FF4F2091D8023091D9028091DB028C
:1012C000880F990B820F931FDC01AB54BF4F8081B5
:1012D00091812D913C912817390714F41F5FAACFF3
:1012E0008091DB02082E000C990BDD24D394681644
:1012F000790609F0D12C1093E102012F2091D80238
:101300003091D902F901E156FF4F808190E00197B9
:10131000A816B9060CF4D5CEBA96108291C22091C7
:10132000DC02022E000C330B8217930709F4DCC594
:10133000102F45CF193208F461CFBA97108380C2BD
:10134000EF55FF4F108382E00E94AC1785E192E0D9
:101350000E9474178BE30E94AC1788E192E00E9410
:101360007417E091DA02EE0FFF0BE15CFB4F6AE0CD
:1013700070E0808191810E94B7178BE30E94AC17C7
:101380008CE192E00E947417E091DB02EE0FFF0BFC
:10139000E15CFB4F6AE070E0808191810E94B717A9
:1013A0008BE30E94AC1780E292E00E947417E091F8
:1013B000DC02EE0FFF0BE15CFB4F6AE070E0808126
:1013C00091810E94B7178BE30E94AC1784E292E0F0
:1013D0000E947417E091DD02EE0FFF0BE15CFB4F02
:1013E0006AE070E0808191810E94B7178BE30E94D0
:1013F000AC1783E092E00E94741780E390E3A0E0D2
:1014000089839A83AB83D12C9E012F5F3F4F790153
:1014100018E2A12E12E0B12E0D2D10E08091D10224
:1014200090E02091D60208171907DCF4D21628F4B0
:10143000F801E156FD4F808101C080E01F928F933B
:10144000BF92AF92FF92EF920E94472EC7010E9477
:101450007417D3940F900F900F900F900F900F90E0
:10146000DBCFD21628F4F801E156FD4F30813FA7BB
:101470008FA582958F701F928F938DE292E09F933C
:101480008F93FF92EF920E94472EC7010E9474171C
:101490008091D202877081500F900F900F900F9023
:1014A0000F900F908430F0F08091D602D81628F477
:1014B000F801E156FD4F408148AB88A98F701F921B
:1014C0008F938DE292E09F938F93FF92EF920E9411
:1014D000472EC7010E9474170F900F900F900F9026
:1014E0000F900F908BE30E94AC1782E392E00E9472
:1014F00074176AE070E08091DE029091DF020E9432
:10150000B7178BE30E94AC1789E192E00E94741731
:101510006AE070E08091D2020E9460178BE30E9423
:10152000AC178EE092E00E9474176AE070E0809140
:1015300056040E9460178BE30E94AC1780918F03C2
:10154000882349F180915304811107C085E392E01B
:101550000E9474178BE30E94AC178091E1028823EC
:10156000D1F08AEF91E00E9474176AE070E08091F8
:10157000E1020E9460178BE30E94AC1787E392E0C0
:101580000E9474176AE070E080912A040E9460173C
:101590008BE30E94AC171092520481E080932C04DC
:1015A0008093960380912B04811008C02091290418
:1015B00030E0281B3109283231059CF081500E940F
:1015C0001F1810922A0481E08093540480918F03A5
:1015D000882339F089E392E00E9474178BE30E941C
:1015E000AC1783E00E94AC1780E691E00E9474176C
:1015F00032C1101611060CF0E2C4B092DD02B8A59B
:10160000BF5FB8A7EF89F88DE00FF11FF88FEF8B60
:101610008091DA028F3F09F4FCCC8091DC028F3F8D
:1016200009F4F7CC8091DB028F3F09F4F2CC809172
:10163000DD028F3F09F4EDCC8FEF8D878E878F878A
:10164000888B89878A878B878C8741E050E058A3F5
:101650004F8F00E010E0BB24BA94E090D802F090E5
:10166000D902F701E156FF4F808190E00817190772
:101670000CF0CFCCB801C70145960E949114F70138
:10168000E656FF4FD0808D2D90E02091DA02022E99
:10169000000C330BE090D802F090D9028217930728
:1016A00009F43AC32091DB02022E000C330B82179F
:1016B000930709F431C32091DC02022E000C330B96
:1016C0008217930709F428C32091DD02022E000C33
:1016D000330B8217930709F41FC3F701E056FF4F3E
:1016E00060819801261B31098091E002082E000CD0
:1016F000990B821793070CF03BC331960083402F60
:10170000C7010E94D1148091D8029091D9027090A3
:10171000DD029090DB025091DC025D8F6090DA0276
:10172000FC01E70DF11D77FCFA952585FC01E90D1B
:10173000F11D97FCFA95C584D12CC20ED11CFC0179
:10174000E50FF11D57FDFA952585C21AD108FC0158
:10175000E60DF11D67FCFA9525851092E202C21A8A
:10176000D108D7FE03C0D194C194D1080D2C000C30
:10177000EE08FF08FC01E156FF4F8081A82FB0E082
:10178000BBA7AAA7BD01BB0F880B990B0E940A2A11
:101790002AE037ED43E25DE30E94692A1B012C0138
:1017A00020E030E0A9010E949B2C20E030E040E0E6
:1017B0005FE387FDBBC2C201B1010E94872B0E947B
:1017C000652C6C157D058E059F050CF422CCBFA100
:1017D000E8A5BE131ECC691409F41BCCFD8DF715CA
:1017E00009F417CC6F1609F414CC971409F411CC32
:1017F000671409F40ECC9F1609F40BCCDE01199680
:10180000FE013D9691918D91981709F494C28F3FF6
:1018100009F493C281E09F3F09F08DC22EA92E13D7
:101820008EC281118FC28F89988D66E070E00E9410
:10183000C52C7093DF026093DE0239A53111F8CA1E
:1018400080915204882339F080912D04882319F067
:1018500081E080932C0480918B03882309F423C2B8
:101860008091310490913204019709F01CC280915B
:101870002C04811118C280912904883208F413C203
:101880008091940390919503892B09F49FC08091D6
:101890002A04882341F040E060E08AE893E00E9457
:1018A000D11410922A0410914F04115017FD8EC0CC
:1018B000C12E012E000CDD08F601EE0FFF1FE15CCA
:1018C000FB4F8081918197FF03C09195819591098C
:1018D00020919403309195038217930730F3F6011A
:1018E000E657FC4F8585882301F38130A9F4E12C6C
:1018F000F12CB7018FE993E00E94911480912404A8
:1019000090E08C159D0589F25FEFE51AF50A6AE013
:10191000E616F10471F702C0883038F688E2809349
:101920002B0480912904883208F450C018E2E12E7B
:10193000F12C8091290490E00197E816F9060CF04B
:1019400045C0B7018FE993E00E949114E09124040F
:10195000F0E0EE0FFF1FE15CFB4F80819181B7014A
:101960001816190674F48FE993E00E949114E0911F
:101970002404F0E0EE0FFF1FE15CFB4F80819181BA
:1019800010C08FE993E00E949114E0912404F0E0EC
:10199000EE0FFF1FE15CFB4F808191819195819556
:1019A000910920919403309195038217930760F079
:1019B00010932B044FEF410F60E08AE893E00E9400
:1019C000D114DD24D39411C01F5FB1CF80912904BD
:1019D00080932B0480912A04882331F040E060E05A
:1019E0008AE893E00E94D114D12C80918E03882341
:1019F00009F484C082E00E94AC178BE392E00E945D
:101A000074178BE30E94AC1720E080914F042817D5
:101A1000C8F5822F90E0FC01EE0FFF1FE15CFB4F49
:101A2000008111810115110559F1FC01E657FC4FA8
:101A30008585882329F1622F17FF05C0606A1195FB
:101A40000195110901C06068F02E07FD04C0702FD8
:101A50007068F72E01C0606183EE92E02FAB0E94A8
:101A60009E106F2D83EE92E00E949E10612F6068A1
:101A700083EE92E00E949E108BE30E94AC172FA988
:101A80002F5FC3CF80912B0480FF06C08CEF91E0C5
:101A90000E94741710E014C082E792E0F9CFE12FA2
:101AA000E69580912304E81728F4F0E0E657FC4F10
:101AB00085898CA76CA583EE92E00E949E101E5F24
:101AC00080912B04181758F38BE30E94AC1786E122
:101AD00092E00E94741780918A0360E170E0082E02
:101AE000000C990B0E94B7178BE30E94AC178EEF86
:101AF00091E00E94741760E170E06BC082E00E9488
:101B0000AC178EE392E00E9474178BE30E94AC172F
:101B100010E080914F04181760F5812F90E09C0130
:101B2000220F331FD901A15CBB4F7D012D913C9148
:101B3000232BE9F0FC01E657FC4F85858823B9F09B
:101B40008DEE91E00E9474176AE070E0812F0E9490
:101B5000601783E392E00E9474176AE070E0F70177
:101B6000808191810E94B7178BE30E94AC171F5FA1
:101B7000D0CF83E092E00E94741710E080912B0494
:101B8000181770F4612F70E08FE993E00E949114B0
:101B90006AE070E0809124040E9460171F5FEECF1E
:101BA0008BE30E94AC1786E092E00E94741780914C
:101BB0008A036AE070E0082E000C990B0E94B717A8
:101BC0008BE30E94AC178EE092E00E9474176AE0EB
:101BD00070E0809156040E9460178BE30E94AC175E
:101BE00010922D0481E08093960380932C04DD20D5
:101BF00081F1811009C08091290490E020912B048B
:101C0000821B91098897D4F0809193038F5F809312
:101C1000930380912B040E941F1810922A04809134
:101C20008F038823B1F089E392E00E9474176AE081
:101C300070E0809193030E94601708C080918F0329
:101C4000882339F081E492E00E9474178BE30E94AC
:101C5000AC1780912E04882339F081E192E00E9434
:101C600074178BE30E94AC1780918F038823A1F037
:101C7000811007C088E592E00E9474178BE30E94F0
:101C8000AC1780915304811107C085E392E00E9454
:101C900074178BE30E94AC1783E00E94AC1780E6B8
:101CA00091E00E94741780912C04811102C010925F
:101CB0002D04809129048E3F60F080913104909131
:101CC0003204892B31F48CE193E00E94FE171092CC
:101CD0002D0480912D04811181C18AE893E00E9436
:101CE00033157CC156010C945A0480912B04815009
:101CF00080932B0411E00C94D20480912B0481502A
:101D000080932B0411E00C941805101611060CF0AA
:101D100062C1B092DB0273CCF701E156FF4F8081C4
:101D200090E001970817190731F5D7CCC201B1012E
:101D30000E94862B44CD80E071CD81E06FCD882359
:101D400009F460CD8AA59BA5801B910B2091E00230
:101D5000022E000C330B281739070CF05AC9BD8628
:101D6000B986BE86BA86BF86BB86B88ABC863FC0A7
:101D70001092E2020BC08091E202811107C0F701CC
:101D8000E056FF4F008341E04093E2026F8D78A15F
:101D9000C70145960E949114F701E656FF4F8081D6
:101DA0005AE0D59E800D11248A3008F48C5900FD2C
:101DB00003C02D899E8902C02B899C89E22FF92FAF
:101DC00090E0482F50E06081262F062E000C330B48
:101DD0002417350719F06F3F19F48083292F01C0AC
:101DE0002FEF9F5F943019F031962F3F61F30F5F13
:101DF0001F4F6F8D78A16F5F7F4F78A36F8F2DCCB2
:101E00000FEF010F023008F485C9E02EF12CA090ED
:101E1000D802B090D902B70162507109C501459648
:101E20000E949114F501E656FF4F808190E02091C9
:101E3000DC02022E000C330BD70111977D018217B3
:101E4000930741F02091DD02022E000C330B821724
:101E50009307F1F4A090D802B090D902B701C50160
:101E600045960E949114F501E656FF4F808190E05F
:101E70002091DC02022E000C330B8217930761F1D4
:101E80002091DD02022E000C330B8217930721F103
:101E9000A090D802B090D902B701C50145960E9422
:101EA0009114F501E656FF4F208130E08091DD026C
:101EB000082E000C990B2817390709F02BC9E0915F
:101EC000D802F091D902E056FF4F0250008300E0A3
:101ED0008D2D0E94CC1896CF0250FACFDC240F5FD4
:101EE0008D2D0E94CC1824C9BFEFEB1AFB0AB70155
:101EF000C50145960E949114F501E656FF4F2081D9
:101F000030E08091DD02082E000C990B281739076C
:101F100009F453C0A090D802B090D902B701C5010E
:101F200045960E949114F501E656FF4F208130E05E
:101F30008091DB02082E000C990B2817390709F055
:101F4000F7C9E091D802F091D902E753FF4F108210
:101F5000EFC9EFEFEE1AFE0AB701C50145960E94E0
:101F60009114F501E656FF4F208130E08091DC02AC
:101F7000082E000C990B28173907F9F0A090D80209
:101F8000B090D902B701C50145960E949114F501A0
:101F9000E656FF4F208130E08091DA02082E000CD7
:101FA000990B2817390709F007C9E091D802F09179
:101FB000D902E753FF4F1082FFC80F5F90CFB09256
:101FC000DC02FFA1FF5FFFA32F89388D201B310B9F
:101FD000388F2F8B1DCBB092DA02F3CFE7960FB676
:101FE000F894DEBF0FBECDBFDF91CF911F910F914F
:101FF000FF90EF90DF90CF90BF90AF909F908F9029
:102000007F906F905F904F903F902F900895CF9268
:10201000DF92EF92FF920F931F93CF93DF936C01A8
:102020007A018B01C0E0D0E0CE15DF0589F0D80140
:102030006D918D01D601ED91FC910190F081E02D23
:10204000C6010995892B11F47E0102C02196ECCFBF
:10205000C701DF91CF911F910F91FF90EF90DF901B
:10206000CF900895089580E090E00895FC01538D8D
:10207000448D252F30E0842F90E0821B930B541762
:1020800010F0CF96089501970895FC01918D828DEF
:10209000981761F0828DDF01A80FB11D5D968C91BC
:1020A000928D9F5F9F73928F90E008958FEF9FEFC7
:1020B0000895FC01918D828D981731F0828DE80F83
:1020C000F11D858D90E008958FEF9FEF0895FC013D
:1020D000918D228D892F90E0805C9F4F821B91090A
:1020E0008F739927089583EE92E00E94671021E094
:1020F000892B09F420E0822F0895FC01848DDF01F3
:10210000A80FB11DA35ABF4F2C91848D90E001966A
:102110008F739927848FA689B7892C93A089B18959
:102120008C9180648C93938D848D981306C0028863
:10213000F389E02D80818F7D80830895EF92FF9257
:102140000F931F93CF93DF93EC0181E0888F9B8DDA
:102150008C8D981305C0E889F989808185FD24C09C
:10216000F62E0B8D10E00F5F1F4F0F731127E02E1F
:102170008C8DE8120CC00FB607FCFACFE889F989FC
:10218000808185FFF5CFCE010E947D10F1CF8B8D30
:10219000FE01E80FF11DE35AFF4FF0820B8FEA8931
:1021A000FB898081806207C0EE89FF896083E889AE
:1021B000F98980818064808381E090E0DF91CF9114
:1021C0001F910F91FF90EF900895CF93DF93EC0153
:1021D000888D8823C9F0EA89FB89808185FD05C047
:1021E000A889B9898C9186FD0FC00FB607FCF5CF81
:1021F000808185FFF2CFA889B9898C9185FFEDCFC9
:10220000CE010E947D10E7CFDF91CF910895089510
:102210000895FC01099480E008950E94F12DFC01CD
:1022200080819181009711F00C94C72960E070E0E3
:10223000CB010895FC0124813581232B31F421E069
:1022400061157105A1F0FB0108C0FC01808191813D
:102250006115710531F421E0FC018081882339F09A
:1022600005C00E941D2E21E0892B09F020E0822F5D
:1022700008950F931F93CF93DF93EC018881998189
:10228000009729F02A813B812617370788F48B01B4
:102290006F5F7F4F0E94272D009761F0998388839D
:1022A0001B830A832C813D81232B11F4FC011082B6
:1022B00081E001C080E0DF91CF911F910F910895DF
:1022C000EF92FF920F931F93CF93DF93EC017B016B
:1022D0008A01BA010E9439112881398181110DC00A
:1022E0002115310519F0C9010E942F291982188280
:1022F0001D821C821B821A8206C01D830C83B701BB
:10230000C9010E94262ECE01DF91CF911F910F911E
:10231000FF90EF900895CF93DF93EC016115710565
:1023200059F0FB0101900020E9F73197AF01461BFE
:10233000570B0E9460110CC088819981009711F0A1
:102340000E942F29198218821D821C821B821A82E8
:10235000CE01DF91CF910895FF920F931F93CF93FA
:10236000DF9300D0CDB7DEB7FF24F39483EE92E085
:102370000E946710892B09F446C083EE92E00E9408
:1023800045108A3041F01CF4882329F007C08D30B5
:1023900011F0833219F4F092860222C089831A82E6
:1023A00000918803109189030F5F1F4FB80184E8E3
:1023B00093E00E943911882399F020918403309191
:1023C00085038091880390918903BE016F5F7F4FE1
:1023D000820F931F0E94262E109389030093880377
:1023E00080918803909189038F35914008F4BECF86
:1023F00061E671E084E893E00E948B118EE993E03E
:102400000E94FE17B3CF0F900F90DF91CF911F91D5
:102410000F91FF9008950E94731081110C94AC11DC
:102420000895FC01808191810C942F29FC01118277
:10243000108213821282158214826115710551F087
:10244000FB0101900020E9F73197AF01461B570BC4
:102450000C94601108951F920F920FB60F921124E1
:102460002F933F934F935F936F937F938F939F939C
:10247000AF93BF93EF93FF9383EE92E00E947D10A2
:10248000FF91EF91BF91AF919F918F917F916F914C
:102490005F914F913F912F910F900FBE0F901F9022
:1024A00018951F920F920FB60F9211242F938F93AE
:1024B0009F93EF93FF93E091F302F091F4028081F8
:1024C000E091F902F091FA0282FD12C090818091B0
:1024D000FC028F5F8F732091FD02821751F0E09113
:1024E000FC02F0E0ED51FD4F958F8093FC0201C09E
:1024F0008081FF91EF919F918F912F910F900FBE4F
:102500000F901F9018953FB7F89480919B0290917F
:102510009C02A0919D02B0919E0226B5A89B05C089
:102520002F3F19F00196A11DB11D3FBFBA2FA92F52
:10253000982F8827820F911DA11DB11DBC01CD01CF
:1025400042E0660F771F881F991F4A95D1F70895BB
:102550008F929F92AF92BF92CF92DF92EF92FF92B3
:102560006B017C010E9483124B015C01C114D104F8
:10257000E104F104F1F00E948312DC01CB0188191F
:102580009909AA09BB09883E9340A105B10570F3DA
:1025900021E0C21AD108E108F10888EE880E83E034
:1025A000981EA11CB11CC114D104E104F10419F757
:1025B000DDCFFF90EF90DF90CF90BF90AF909F90D6
:1025C0008F900895CF92DF92EF92FF920F931F9317
:1025D0000E94831200918003109181032091820355
:1025E000309183036B017C01C01AD10AE20AF30A1D
:1025F0009701860160938003709381038093820327
:10260000909383030A3511052105310578F181E0A6
:10261000C8168DE7D806E104F10410F4960102C053
:1026200021E03DE74A9B03C0319521953109809116
:102630005E048436D8F480915E048F5F80935E04DC
:1026400080915F0460915D040E94A52C90935F04CB
:10265000E0915F04F0E0EE0FFF1FEF59FB4F318375
:10266000208380915F048F5F80935F041F910F919F
:10267000FF90EF90DF90CF9008950F931F930E94EB
:102680008312009180031091810320918203309185
:102690008303DC01CB01801B910BA20BB30B8230B7
:1026A0009D47A105B10580F14A9903C02FEF32E89B
:1026B00002C021E03DE780915E048436D8F4809129
:1026C0005E048F5F80935E0480915F0460915D047F
:1026D0000E94A52C90935F04E0915F04F0E0EE0F60
:1026E000FF1FEF59FB4F3183208380915F048F5F81
:1026F00080935F040E948312609380037093810330
:10270000809382039093830320918502E3E9F3E0B1
:102710009491EFE7F3E08491EBE6F3E0E491EE23AC
:1027200009F43BC0992339F1933091F038F491309A
:10273000A9F0923001F594B59F7D12C0973091F0C9
:102740009830A1F09430B9F4909180009F7D03C03F
:10275000909180009F77909380000DC094B59F77F3
:1027600094BD09C09091B0009F7703C09091B000D4
:102770009F7D9093B000F0E0EE0FFF1FE85AFC4FF2
:10278000A591B4919FB7F894EC91211103C0809565
:102790008E2301C08E2B8C939FBF109285021F91B8
:1027A0000F9108951F920F920FB60F9211242F933D
:1027B0003F938F939F93AF93BF93809180029091AB
:1027C0008102A0918202B091830230919A0223E0AB
:1027D000230F2D3720F40196A11DB11D05C026E859
:1027E000230F0296A11DB11D20939A0280938002AF
:1027F00090938102A0938202B093830280919B0206
:1028000090919C02A0919D02B0919E020196A11D03
:10281000B11D80939B0290939C02A0939D02B09364
:102820009E02BF91AF919F918F913F912F910F90F9
:102830000FBE0F901F9018951F920F920FB60F9218
:1028400011242F933F934F935F936F937F938F93B5
:102850009F93AF93BF93EF93FF93E0910601F091A5
:1028600007010995FF91EF91BF91AF919F918F91D2
:102870007F916F915F914F913F912F910F900FBE7C
:102880000F901F9018951F920F920FB60F92112460
:102890002F933F934F935F936F937F938F939F9368
:1028A000AF93BF93EF93FF93E0910401F091050183
:1028B0000995FF91EF91BF91AF919F918F917F917A
:1028C0006F915F914F913F912F910F900FBE0F909D
:1028D0001F9018951F920F920FB60F9211242F93ED
:1028E0003F934F935F936F937F938F939F93AF9398
:1028F000BF93EF93FF93E0917E02F0917F020995E1
:10290000FF91EF91BF91AF919F918F917F916F91C7
:102910005F914F913F912F910F900FBE0F901F909D
:102920001895CF93DF93FC01EE57FF4F4081469FF0
:10293000F001479FF00D11249F0153E03695279534
:102940005A95E1F7DC01AC57BF4F5C91251720F594
:10295000DC01A20FB11DEC01CD57DF4F288130E023
:10296000E770FF2702C035952795EA95E2F73C917D
:10297000232330E058E0541B469F402D112447701C
:10298000541B02C0359527955A95E2F7322FFC016A
:10299000EB57FF4F208301C03FEF832FDF91CF9193
:1029A0000895FC01E156FF4F2081222309F45AC00B
:1029B000E259F109DC0155961192EA17FB07E1F79C
:1029C000411102C04FEF420F262F2695542F5695E6
:1029D00060FF13C0FC01E756FF4F6081261720F40B
:1029E000FC01E20FF11D3589632F6F70FC01E60FCA
:1029F000F11D65856F5F65872F5FDC01A756BF4FAF
:102A00005217E8F06C91261720F4FC01E20FF11D3B
:102A10003589E32FF0E064E0F595E7956A95E1F7F5
:102A2000E80FF91F65856F5F6587632F6F70FC0185
:102A3000E60FF11D65856F5F65872F5FE1CF40FD74
:102A400011C0FC01E756FF4F2081521720F4FC0112
:102A5000E50FF11D35893F70FC01E30FF11D858500
:102A6000815085870895CF93DF93FC01E156FF4F96
:102A70001082DC01AB53BF4F1C92B7961082FC0151
:102A8000158AEC56FF4F108231961082319627E05E
:102A90002083719611821082B0962FEF2083FC0163
:102AA0002083EB54FF4FEC012D9611921192199255
:102AB000EA17FB07D1F7FC01EE55FF4F1082339662
:102AC00026E930E0318320833C9640E050E060E826
:102AD0007EE34083518362837383719710823396C0
:102AE000108231961082B4961082319621E02083B4
:102AF00031961082B9971082DF91CF9108950C948E
:102B0000322B0C942A2BCF93C82F803120F484E4ED
:102B100092E00E94741760E170E08C2FCF910C94CA
:102B20006017CF93DF93C2E0D0E0FE01E35DFC4F7E
:102B30006491CE010E947F152196CB32D105A9F771
:102B4000C0E3D0E0C13321F464E881E390E002C047
:102B500060E0CE010E947F152196C833D10591F720
:102B600086E492E0DF91CF910C94CF168EBD0DB428
:102B700007FEFDCF8EB50895CF93DF932A981C9959
:102B8000FECF8EE70E94B615C0E3D0E0CE010E94D2
:102B900081150E94B6152196C833D105B9F72A9A36
:102BA000DF91CF910895CF93DF931F92CDB7DEB71A
:102BB0002A981C99FECF69830E94B6156981862FD9
:102BC0000E94B6152A9A0F90DF91CF9108952A9806
:102BD0001C99FECF862B0E94B61580E00E94B61588
:102BE0002A9A089560EC84E30C94E7152A981C99BE
:102BF000FECF0E94B6151C99FECF2A9A089586E34F
:102C00000E94F61561E070E080E090E00C94A8125C
:102C1000E89887E091E19093050180930401809109
:102C2000840281110C94FF150895CF93DF930E94C5
:102C3000FF15CEEFCF3FC1F084E30E94F615DFEF22
:102C4000DC0F8077803141F061E070E080E090E05F
:102C50000E94A812CD2FEECFC11106C08AE592E0E6
:102C6000DF91CF910C94CF16DF91CF91089582EE32
:102C700092E19093050180930401809169008C7F1B
:102C8000816080936900E89A8091840281110C949C
:102C900015160895CF93DF932A9A83E790E0FC01FD
:102CA0003197F1F72A980197F1F72A9A8FEA90E085
:102CB0000197F1F780E30E94F6156AE070E080E08A
:102CC00090E00E94A8122A9880E40E94B615C2E003
:102CD000D0E0CE010E9481150E94B6152196CB321C
:102CE000D105B9F72A9A83E290E00197F1F70E94A3
:102CF000BC1561E070E080E090E00E94A812DF91D6
:102D0000CF910C941516CF93C82F803120F484E412
:102D100092E00E94741760E170E08C2FCF910C94C8
:102D2000601790ED980F9A3070F09FE9980F9630E9
:102D300010F499EA05C09FEB980F963018F499ECBF
:102D4000980F01C0982F892F08951F93CF93DF9379
:102D5000C82FD0E0CE010E9476170E949116182F3E
:102D60001295107FCE0101960E9476170E9491164F
:102D7000810FDF91CF911F910895009769F0FC01B9
:102D800001900020E9F73197AF01481B590BBC01B6
:102D900083EE92E00C94071080E090E00895CF93CA
:102DA000DF930E94BD16EC018FE591E00E94BD16F5
:102DB0008C0F9D1FDF91CF910895DF92EF92FF92CC
:102DC0000F931F93CF93DF937C018B01EA0146178A
:102DD000570720F4812F8A01C62FD82F61E671E0B2
:102DE000C7010E94161280918803909189030817E9
:102DF0001907E0F48C179D0708F4EC01E0918403B7
:102E0000F0918503EC0FFD1FD08010826091840348
:102E100070918503600F711FC7010E948B11E091B3
:102E20008403F0918503EC0FFD1FD082C701DF9171
:102E3000CF911F910F91FF90EF90DF9008958F92A7
:102E40009F92AF92BF920F931F93CF93DF93CDB713
:102E5000DEB7A1970FB6F894DEBF0FBECDBF19A2A3
:102E6000423008F44AE08E010F5D1F4F842E912CF2
:102E7000A12CB12CA50194010E94D92CE62FB901F7
:102E8000CA0101501109EA3014F4E05D01C0E95CA7
:102E9000D801EC93232B242B252B61F7C8010E942A
:102EA000BD16A1960FB6F894DEBF0FBECDBFDF9161
:102EB000CF911F910F91BF90AF909F908F900895E9
:102EC000AB01672B59F4E091E302F091E402019029
:102ED000F081E02D682F83EE92E00994682F70E076
:102EE00080E090E00C941F170C94BD16209188038D
:102EF000309189038217930760F420918403309105
:102F000085032115310529F0F901E80FF91F8081AA
:102F1000089580E008950F931F93CF93DF938C0162
:102F2000C0E0D0E0F801EC0FFD1F6491662371F062
:102F3000E091E302F091E4020190F081E02D83EE54
:102F400092E00995892B11F02196ECCFCE01DF910B
:102F5000CF911F910F910895E091E302F091E40267
:102F60000190F081E02D682F83EE92E00994CF92DA
:102F7000DF92EF92FF92CF93DF936115710589F491
:102F8000E091E302F091E4020190F081E02D682FDE
:102F900083EE92E0DF91CF91FF90EF90DF90CF90A2
:102FA00009946C01990FEE08FF086A307105D9F495
:102FB000F7FE17C08DE20E94AC17EC016627772759
:102FC000CB016C197D098E099F094AE00E941F17E9
:102FD0008C0F9D1FDF91CF91FF90EF90DF90CF90EE
:102FE00008954AE001C0462FC701B601DF91CF9195
:102FF000FF90EF90DF90CF900C941F17CF93DF934B
:103000000E948B17EC018FE591E00E94BD168C0F9A
:103010009D1FDF91CF910895CF93DF93682F70E0CC
:1030200080E090E04AE00E941F17EC018FE591E0FC
:103030000E94BD168C0F9D1FDF91CF9108950F93B5
:103040001F93CF9310922D04882309F4A1C090916F
:103050002904992309F49CC0C82F492F50E0282F38
:1030600030E024173507A4F0981758F483EB93E069
:103070000E948B178BEA93E00E948B178C2F0E9483
:103080000C188AE893E0CF911F910F910C9433159F
:1030900080911F04482F50E04217530708F46EC078
:1030A000B90176956795B62F2417350739F4109234
:1030B0009F0310921E0410921F043BC040911E04F7
:1030C000C0FF3DC00FE913E0A62FAB1B641798F4B7
:1030D000E62FF0E0E657FC4F2689522F52955F709D
:1030E000958970E1979F90011124252BF801219378
:1030F0008F016F5FE9CF80FD0CC0B0E0A657BC4FD9
:10310000E62FF0E0E657FC4F95899295907F559613
:103110009C938C1B80931F04482F50E09A012150F0
:10312000310937FD9A013595279520931E0480FDBE
:1031300002C087E001C083E08093200411C0461BD9
:1031400040931E0450E04F5F5F4F61567C4F8FE904
:1031500093E00E940B2E80911F048C1B80931F0410
:1031600081E080932D0480911F04809329048111B4
:103170000FC010923A04109239040AC084E792E01A
:103180000E9474178C2FCF911F910F910C940C18E3
:10319000CF911F910F9108959091D3024091D20247
:1031A0009730A9F4442399F0E091D1026E2F70E09A
:1031B0002091D60230E02150310962177307A4F53F
:1031C000EF5FE093D102F0E0E156FD4F10825091A5
:1031D000D402652F70E0292F30E02F5F3F4F261B70
:1031E000370B1216130624F401C0880F2A95EAF74C
:1031F000E091D102F0E0E156FD4F2081822B8083E7
:103200004F5F4093D202292F092E000C330B261B4F
:10321000370B37FD04C0951B9093D30203C087E0A2
:103220008093D30281E0089580E00895CF93DF93E7
:10323000CDB7DEB7CB59D1090FB6F894DEBF0FBEBC
:10324000CDBF789484B5826084BD84B5816084BD2F
:1032500085B5826085BD85B5816085BD80916E0034
:10326000816080936E001092810080918100826065
:1032700080938100809181008160809381008091A2
:1032800080008160809380008091B1008460809391
:10329000B1008091B00081608093B00080917A008D
:1032A000846080937A0080917A00826080937A00B3
:1032B00080917A00816080937A0080917A008068A2
:1032C00080937A001092C100E091F302F091F40231
:1032D00082E08083E091F302F091F4021082E091A9
:1032E000EF02F091F0021082E091F102F091F2020F
:1032F00080E180831092FB02E091F702F091F802E6
:1033000086E08083E091F502F091F6028081806191
:103310008083E091F502F091F602808188608083DD
:10332000E091F502F091F602808180688083E0915F
:10333000F502F091F60280818F7D808380E491E038
:103340000E94FE175298219A259A239A2498229A2D
:1033500080E58CBD53982A9A2D9A2B9880E090E0B6
:103360000E948115833339F481E090E00E94811539
:103370008D3209F479C76FEB8FEF90E00E947F15D3
:1033800060E580EF90E00E947F1563E082EF90E0BF
:103390000E947F156BE183EF90E00E947F1568E546
:1033A00084EF90E00E947F1560E081EF90E00E9442
:1033B0007F1588E690E00E94FE1780E090E00E9472
:1033C0008115833311F00E94911563E380E090E052
:1033D0000E947F156DE281E090E00E947F158FEFE3
:1033E00090E00E948115982F917090938D0381FB3E
:1033F000992790F990938B0382FB992790F99093EA
:103400008C0383FB992790F990938E0384FB992773
:1034100090F990938F0385FB992790F9909302017F
:1034200086FB882780F98093900380EF90E00E94CC
:1034300081158093030182EF90E00E9481158093B3
:10344000910383EF90E00E948115182F84EF90E0A4
:103450000E948115212F110F330B322F2227280FA5
:10346000311D309395032093940381EF90E00E94E7
:10347000811580935504811103C081E18093550427
:1034800088E391E00E948B170E944A1660E881EF62
:103490000E94E715182F8FEF810F8E3F38F087E2DB
:1034A00091E00E948B171092840207C083E291E0A2
:1034B0000E948B1781E0809384028BE191E00E944F
:1034C0008B176AE070E0812F0E9460178FE091E017
:1034D0000E948B1760E880EF0E94E7150E940C188D
:1034E000809184021E821D82882399F089E091E1F7
:1034F0009C838B838B819C81AD81BE818093590499
:1035000090935A04A0935B04B0935C0482EF95E11E
:1035100012C089E091E19C838B838B819C81AD817A
:10352000BE818093590490935A04A0935B04B09396
:103530005C048BE091E19093580480935704539A74
:1035400080918F03882321F08DEF90E00E94FE1779
:1035500062E370E080E090E00E94A81280E1809336
:1035600081001092800082E08093890288E199E7CF
:1035700090938802809387029093870080938600BF
:1035800082E1809381008DE393E190937F028093A9
:103590007E0281E080936F006EE571E084E893E045
:1035A0000E94391180918402811109C00E9437164E
:1035B00080918F03882399F08CEE90E00EC060E834
:1035C00088E00E94E715823331F460E880E00E94D1
:1035D000E7158D3059F387EA90E00E94FE178E01BF
:1035E0000F5F1F4F9E012B583F4FEB963FAF2EAF03
:1035F000EB978DE0821BC956DF4F8883C759D040B7
:1036000080918602882309F456C41092860280E0D5
:1036100090E00E947617803549F480E291E00E94A4
:10362000CF168BEC97E00197F1F738C48F3309F090
:1036300054C00E94AC1784E792E00E948B1786E585
:103640000E94AC1780E20E94AC1782E50E94AC1782
:1036500080E20E94AC1784E70E94AC1780E20E94CF
:10366000AC1788E50E94AC1780E20E94AC1786E494
:103670000E94AC1780E20E94AC1783E50E94AC1751
:1036800080E20E94AC1780E50E94AC1780E20E94A5
:10369000AC1783E40E94AC1780E20E94AC1782E76B
:1036A0000E94AC1780E20E94AC1787E50E94AC171D
:1036B00080E20E94AC1780918402882309F46CC3D5
:1036C00088E70E94AC1780E20E94AC1785E60E9452
:1036D000AC1780E20E94AC175FC3863579F483E2B1
:1036E00091E00E94741780918402882321F08CE677
:1036F00092E00E948B178CE391E050C3823531F544
:103700008091290590912A05009711F48DE295E0AA
:103710006801C81AD90A0D2C000CEE08FF08F7FE44
:103720000BC08DE20E94AC1766277727CB016C197E
:103730007D098E099F09CCC14AE0C701B6010E94EC
:103740001F178FE591E00E94BD16A8C3833509F0CD
:1037500089C10E940816A12CB12C55245A94EC96CC
:103760001FAEEC97812C31E0C257DF4F3883CE5823
:10377000D040B6E19B2E8BE0782E6624639462E6FF
:1037800071E0CE0181599F4F0E94161280918803EB
:1037900090918903A816B90698F4C0908403D0903C
:1037A0008503E1966EAD7FADE197C6018A0D9B1D45
:1037B0000E942D2E009721F07C01EC18FD0803C01B
:1037C000EE24EA94FE2CCE0181599F4F0E941112E3
:1037D0003FEFE316F30611F40C94C7256FEFA6161E
:1037E000B60611F40C94C725C5010E947617282F40
:1037F00080930101C5010196C556DF4F2883CB593F
:10380000D0400E947617382F80930001C556DF4FB5
:103810002881CB59D040233529F12035D9F4C50171
:103820000296C656DF4F3883CA59D0400E94761799
:10383000C556DF4F2881CB59D040C656DF4F38815F
:10384000CA59D0408D3309F006C1650173E0C70E37
:10385000D11C0AC08D3309F0FEC0650182E0C80E9C
:10386000D11C02C0C12CD12C57019FEFA91AB90A53
:103870002335B9F465E0561609F4EDC0333409F484
:10388000E7C03D3419F0323509F079CF5394F8018F
:10389000959CE00DF11D112411821082658A812C06
:1038A0006ECF223559F5882091F0A701B601CE01DF
:1038B00081599F4F0E94DD16CE0181599F4F0E9472
:1038C0000F11C257DF4F6883CE58D04072C07FEFD0
:1038D000571609F454CFA701B601CE0181599F4F65
:1038E0000E94DD16CE0181599F4F0E940F11F801F1
:1038F000959CE00DF11D1124658B5BC08FEF581670
:1039000009F43DCF203591F5A60141505109B6018A
:1039100062507109CE0181599F4F0E94DD16CE0180
:1039200081599F4F0E940F11462ECE0181599F4F02
:103930000E94111298E0941508F48DC0A701B601F9
:10394000CE0181599F4F0E94DD16CE0181599F4FB4
:103950000E940F11759CF0011124E40DF11DEE0F72
:10396000FF1FE00FF11F7683658323C0243461F4C9
:10397000F801959CE00DF11D1124C282A1E0EA1A24
:10398000F108F482E382FBCE2334C9F4A701B60127
:10399000CE0181599F4F0E94DD16CE0181599F4F64
:1039A0000E940F11F801959CE00DF11D1124718307
:1039B0006083CE0181599F4F0E941112E0CE2634C0
:1039C00009F0DDCEC5018C199D0997FD01969595ED
:1039D0008795EC968FAFEC978150853008F0CFCE6D
:1039E00080918402882309F4CACEFE01EB58FF4F70
:1039F0007F01C956DF4F3880C759D0403E0C60E880
:103A0000832D0E94E715D7018D937D01C6010E9489
:103A100076170E949116482E429440EF4422C60128
:103A200001960E9476170E949116642D680F832DCF
:103A30000E94D315B2E0CB0ED11C8E2DEA96EFADCD
:103A4000EA978E1BEC962FADEC97821790F297CEEB
:103A50008824839494CE8EE591E00E948B170E9477
:103A600037169AC18437B1F58FB7F894C0908002A9
:103A7000D0908102E0908202F09083028FBFC70154
:103A8000B60128EE33E040E050E00E94D92CCA0194
:103A9000B90180908C0290908D02A0908E02B0901F
:103AA0008F02C814D904EA04FB0450F420918A025E
:103AB00030918B022F5F3F4F30938B0220938A020D
:103AC000C0928C02D0928D02E0928E02F0928F0210
:103AD0004AE035CE883591F481E090E00E94761777
:103AE000813511F40E94081681E090E00E9476175B
:103AF000853409F0D3C10E943716D0C1863409F449
:103B0000CDC1833409F088C081E090E00E9476172F
:103B1000282F873409F07AC08AEC91E00E948B1735
:103B200080918D036AE070E090E00E94B71785EC09
:103B300091E00E948B1780918B036AE070E090E027
:103B40000E94B71780EC91E00E948B1780918C0344
:103B50006AE070E090E00E94B71789EB91E00E9464
:103B60008B1780918E036AE070E090E00E94B71797
:103B700080910201811104C082EB91E00E948B17B9
:103B800080919003882321F089EA91E00E948B17AD
:103B900080EA91E00E948B1780918F036AE070E0C9
:103BA00090E00E94B71788E991E00E948B176AE0C5
:103BB00070E0809191030E94601788E891E00E9474
:103BC0008B17609194037091950380E090E04AE038
:103BD0000E941F1780915504813151F08AE791E0CE
:103BE0000E948B176AE070E0809155040E94601774
:103BF00080918F03882309F4CFC08AE691E00E9468
:103C00008B176AE070E08091030166C08CEB820F35
:103C1000823008F064C0E1C0873509F0C2C081E09D
:103C200090E00E947617F82E63E5962E89117AC4EB
:103C300082E090E00E947617833309F073C480918C
:103C40008402882309F46EC483E090E00E94761712
:103C5000F82E082E000C990B0E94F62D892B09F4E2
:103C60001DC18F2D0E94911620E3280F2E3308F0DE
:103C700015C1822FC556DF4F2883CB59D0400E94F3
:103C8000F615E82E61E070E080E090E00E94A81256
:103C90008DE30E94F615F82E8BEF91E00E948B17B2
:103CA000C556DF4F2881CB59D040822F0E94831602
:103CB0008EEE91E00E948B1760E170E08E2D829570
:103CC0008F700E94601785EE91E00E948B1760E173
:103CD00070E08F2D82958F700E9460175DC0233534
:103CE00009F4C7C2822F220F990B0E94F62D892B4F
:103CF00009F490C382E090E00E947617082E000C31
:103D0000990B0E94F62D892B09F484C380918402BB
:103D1000882309F47FC381E00E94A516F82E83E072
:103D200090E00E9476178E3669F484E090E00E945D
:103D30007617E82E082E000C990B0E94F62D892B81
:103D400009F0C7C37DE37F1508F067C3EEE3FE12F9
:103D50007BC38EED91E00E948B172A981C99FECFB1
:103D60008EEF0E94B61578015801A8E0DA2ED00E29
:103D700080E00E94B615D5018D935D01DA12F8CF6F
:103D80002A9AF70181917F010E94831688ED91E0C4
:103D90000E947417DE10F5CF81E691E00E94CF16E5
:103DA0007DC0823709F031C481E090E00E9476172F
:103DB000082E000C990B0E94F62D892B09F473C470
:103DC00082E090E00E947617082E000C990B0E946A
:103DD000F62D892B09F0E4C366C482E090E0C55655
:103DE000DF4F2883CB59D0400E947617C556DF4F4E
:103DF0002881CB59D040833511F40C941228853595
:103E000011F40C94FA27833411F40C94FE278235B4
:103E100011F40C940228843411F40C9406288C3488
:103E200011F40C940A28863411F00C940E28E0E961
:103E3000F3E0253411F00C94162881E08083609122
:103E40008D03962F906860918B03660F692B90917C
:103E50008C0324E0929FC0011124682B90918E0363
:103E600038E0939FF00111246E2B90918F0370E145
:103E7000979FA0011124642B9091020180E2989FEA
:103E800090011124622B90919003A0E49A9FC001AD
:103E90001124682B8FEF90E00E947F15809186029D
:103EA000811106C061E671E084E893E00E948B1105
:103EB00081E0809385021092960343E0C42ED12CBA
:103EC00057E0E52E80915E04882309F4CAC18091F1
:103ED0005E04815080935E048091600460915D0473
:103EE0000E94A52C90936004E091600481E08E0F05
:103EF00080936004F0E0EE0FFF1FEF59FB4F8081CD
:103F00009181909391028093900210922C04609181
:103F100029046623E9F070E0615071098FE993E0AC
:103F20000E9491148091240490E0880F991F815C75
:103F30009B4F90933A0480933904E0913704F091B9
:103F4000380480819181909328048093270404C0D1
:103F500010923A041092390420919002309191020B
:103F6000E0913704F0913804318320838091290453
:103F7000882361F0E0913904F0913A04309731F0F0
:103F8000408151814227532757FF03C021153348F1
:103F900034F580E00E941002809129048111F9CF4C
:103FA00010923A0410923904809191038093920305
:103FB0001092930320915004E0913704F09138045B
:103FC00080819181E22FF0E0EE0FFF1FE15CFB4F5B
:103FD000918380832F5F20935004F12CF8C08E3F93
:103FE00050F081E00E94100240E060E08AE893E037
:103FF0000E94D11432C0883281F5D0923204C0922E
:1040000031048091570490915804009751F4209105
:10401000590430915A04232B21F420915B0420FF92
:104020001CC0E0915904F0915A0440915B045091F6
:104030005C049A013595279540FF0AC0DC01A20F68
:10404000B31F4D915C91E40FF51F0190F081E02DBD
:10405000820F931F099580935604809037049090A7
:104060003804D401AD90BC90B501B7FE04C06627FA
:1040700077276A197B09072E000C880B990B0E9481
:104080000A2A2DEC3CEC4CE45EE30E94692A0E9473
:104090006C2CAB017093300460932F0470904F042C
:1040A000EFE3F4E080E090E0F82E871500F5219131
:1040B0003191B9016A257B2577FD17C0211531059E
:1040C000A1F0DC01A657BC4F1D966C91662369F0E8
:1040D000B501621B730B9B0177FF03C031952195DE
:1040E0003109421753070CF0E3C20196DDCFB8E067
:1040F0007B1248C0E0915004F0E0E657FC4F858504
:10410000833080F0809131049091320418161906A2
:104110004CF481E00E94100240E060E08AE893E005
:104120000E94D114F0902904FF2061F1FA94E091EB
:104130005004F0E0E657FC4F8585882319F16F2D78
:1041400070E08FE993E00E94911490912404809193
:10415000500498130BC081E08F0D0E941F1840E09F
:1041600060E08AE893E00E94D1140CC0E1E0FE1206
:10417000DDCF809129048E3FC8F289E093E00E9450
:10418000FE17D4CFF0905004E0913704F09138043A
:1041900080819181EF2DF0E0EE0FFF1FE15CFB4F7E
:1041A0009183808381E08F0D883019F080935004D3
:1041B00006C01092500480934F04109252048091D4
:1041C000500490914F04981710F480934F043F2DA2
:1041D0008091200490911F048730B1F49923A1F0BD
:1041E000E0911E046E2F70E04091230450E0415096
:1041F0005109641775070CF0BDC2EF5FE0931E0410
:10420000F0E0E657FC4F158A20912104422F50E040
:10421000682F70E06F5F7F4F641B750B16161706D3
:104220002CF43F2D01C0330F6A95EAF7E0911E048C
:10423000F0E0E657FC4F6589362B358B9F5F9093F6
:104240001F04682F082E000C770B3B01641A750AB7
:1042500077FC04C0821B8093200452C2E0922004A9
:104260004FC20E940B12CCC98CE890E00E94FE174E
:10427000B6C848E050E062E070E0C8010E94DD1678
:104280006EE771E0C8010E941A11F82EC8010E9461
:104290001112FF20E1F0409188035091890368E0FA
:1042A00070E0C8010E94DD16C8010E940F116093E2
:1042B0005504C8010E9411126091550481EF90E0ED
:1042C0000E947F156AE070E0809155042DC048E09F
:1042D00050E062E070E0C8010E94DD1665E871E020
:1042E000C8010E941A11F82EC8010E941112FF2065
:1042F000F1F0409188035091890368E070E0C801B3
:104300000E94DD16C8010E940F1160939103C8013D
:104310000E9411126091910382EF90E00E947F153C
:104320006AE070E0809191030E94601770C04CE0D9
:1043300050E062E070E0C8010E94DD166CE871E0B8
:10434000C8010E941A11F82EC8010E941112FF2004
:1043500021F140918803509189036CE070E0C8011D
:104360000E94DD16C8010E940F1160930301C8016D
:10437000C856DF4F6883C859D0400E941112C856F2
:10438000DF4F6881C859D04080EF90E00E947F15D0
:104390006AE070E080910301C7CF4BE050E062E03B
:1043A00070E0C8010E94DD1667E971E0C8010E9453
:1043B0001A11F82EC8010E941112FF2041F14091FC
:1043C0008803509189036BE070E0C8010E94DD16FC
:1043D000C8010E940F117093950360939403C80164
:1043E0000E9411126091950383EF90E00E947F1567
:1043F0006091940384EF90E00E947F156091940394
:104400007091950380E090E04AE00E941F178EECC7
:1044100091E04BC188E592E048C1BEE2BF1510F0C3
:1044200060E801C060EC8F2D0E94E715E82E86E160
:1044300092E00E9474178F2D0E94831681EA91E00A
:104440000E9474178E2D42C0F9E9FF1227CDF12C7E
:10445000FF2061F0F0E16F2EF61421F0E0E27E2EF5
:10446000F7100FC088ED91E00E94741787ED91E07E
:104470000E948B178F2D0E94831684ED91E00E947D
:104480008B1760E88F2D0E94E7150E94831688ED38
:1044900091E00E947417F3947FE2872EF810D8CF32
:1044A0007BCC80918402882309F4F8CC8EEF8E0DAA
:1044B0008E3308F0F3CC6F2D0E94D31585EA91E07E
:1044C0000E9474178E2D0E9483168F2D0E948316D2
:1044D00063CC8E2D0E949116E82E8EE28F1508F483
:1044E000DDCC86E192E00E9474178F2D0E94831626
:1044F00088EB91E00E947417E394E3948E2D0E9460
:10450000831683E392E00E947417D12CDE1408F026
:1045100043CC60E88D2D8F0D0E94E7150E94831615
:10452000D394F4CF8F2DFF0C990B0E94F62D892B7D
:1045300009F182E090E00E947617082E000C990B9A
:104540000E94F62D892BB1F083E090E00E9476174F
:10455000082E000C990B0E94F62D892B59F084E04F
:1045600090E00E947617082E000C990B0E94F62D01
:10457000892B19F484E492E098C081E00E94A5168A
:10458000E82E83E00E94A516F82E682F8E2D90E06D
:104590000E947F1590EFE91284CFF09203017ECC48
:1045A00081E00E94A516E82E8CE392E00E948B1712
:1045B0008E2D0E94831583E090E00E947617F12CE7
:1045C0008E36C9F489E392E00E948B17C12CD12C5E
:1045D00088ED91E00E947417C6018E0D9F1D0E9408
:1045E00081150E9483152FEFC21AD20A30E1C3163B
:1045F000D10471F7D1CB85E392E00E948B17C701FC
:104600000E9481150E948315C7CB883709F040C0EE
:1046100081E090E00E947617082E000C990B0E9412
:10462000F62D892B09F43FC082E090E00E947617B6
:10463000082E000C990B0E94F62D892BA1F1809178
:104640008402882381F181E00E94A516D82E60E3C0
:10465000E62EF12C61E3E61204C06D2D81E390E0BB
:1046600002C060E0C7010E947F157FEFE71AF70ADA
:1046700088E3E816F10471F70E94BC158EE292E01F
:104680000E948B178D2D0E9483158DE192E00DC045
:10469000853649F480918402882329F00E9491157F
:1046A0000E944A16FBCB89E092E00E94FE17F6CBEF
:1046B000F7FC1DCD8F2D880F990BDC01A15CBB4F42
:1046C0005D016D917C91AB01770F660B770BF40167
:1046D00080819181092E000CAA0BBB0B3A014B0182
:1046E000680E791E8A1E9B1EC401B30122E030E0D1
:1046F00040E050E00E94FB2CD5012D933C9367CD08
:10470000809129048F5F80932904E0913704F09110
:104710003804808191819093260480932504EF2DA5
:10472000FF0CFF0BE657FC4F85858F5F85878091D7
:104730008F03882389F080919603882369F0F09095
:104740005E04809103018F1538F488E193E00E94A4
:104750008B178F2D0E940C1880919603882339F0B7
:1047600080910201882319F081E0809385021092E4
:104770009603A8CB84E093E00E948B176AE070E078
:104780008F2D0E9460178AEF92E00E948B176AE0DB
:1047900070E080911E040E94601786EE92E00E94F5
:1047A000FE1782EF91E00E947417E0915104E7FD3B
:1047B000DBC0EE0FFF0BE15CFB4F6AE070E0808135
:1047C00091810E94B71787EA91E00E947417E091E7
:1047D0005104EE0FFF0BE15CFB4F60817181072EEE
:1047E000000C880B990B0E940A2A4B015C01E09196
:1047F0008A03EE0FFF0BE15CFB4F60817181072E96
:10480000000C880B990B0E940A2A9B01AC01C50180
:10481000B4010E94F32B4B015C012B013C019B0175
:10482000AC010E94A02C882319F086EB91E021C0F6
:10483000C501B4019F77EF966CAF7DAF8EAF9FAF90
:10484000EF972FEF3FEF4FE75FE70E94A02C81111A
:1048500013C02FEF3FEF4FE75FE7EF966CAD7DADF5
:104860008EAD9FADEF970E94032A18162CF48AEBA9
:1048700091E00E94BD1674C02FEF3FEF4FE75FE459
:10488000C501B4010E949B2C18161CF48EEB91E01C
:10489000F0CF2FEF3FEF4FE75FECC501B4010E946F
:1048A000032A87FDF3CF20E030E0A901C501B40160
:1048B0000E94032A87FF09C08DE20E94AC172401E1
:1048C000350177FA709477F870942AE037ED43EA6F
:1048D0005BE3C301B2010E94872B2B013C010E94C4
:1048E0006C2C4B015C010E94082A9B01AC01C301A6
:1048F000B2010E94862B2B013C014AE0C501B401A4
:104900000E941F178EE20E94AC1720E030E040E2C8
:1049100051E4C301B2010E94692A4B015C010E946B
:104920006C2C2B01612C712C4AE0C301B2010E9456
:104930001F17C301B2010E94082A9B01AC01C501E7
:10494000B4010E94862B20E030E040E251E40E9456
:10495000692A0E946C2C80E090E04AE00E941F17B8
:1049600082EC91E00E94741784EC91E00E9474172D
:10497000E0918A03E7FD0BC0EE0FFF0BE15CFB4FFC
:104980006AE070E0808191810E94B71704C08DECCD
:1049900091E00E9474178AED92E00E948B176AE002
:1049A00070E080914F040E94601782ED91E00E94B8
:1049B00074176AE070E0809150040E94601785EDE2
:1049C00091E00E94741786EC92E00E948B17E091B0
:1049D0003704F09138046AE070E0808191810E9490
:1049E000B71787ED91E00E947417E0913904F091B8
:1049F0003A046AE070E0808191810E94B71787EDE8
:104A000091E00E9474176AE070E080912504909113
:104A100026040E94B71787ED91E00E9474176AE0A0
:104A200070E080912704909128040E94B7178BEBC7
:104A300092E00E948B176AE070E080912A040E9445
:104A4000601782EB92E00E948B176AE070E0809121
:104A50002B040E94601787EA92E00E948B176AE09D
:104A600070E080911F040E9460178FE992E00E941D
:104A70008B17809152046AE070E090E00E94B717B3
:104A800084E992E00E948B1780912D046AE070E027
:104A900090E00E94B7178AE892E00E948B176AE0C4
:104AA00070E080913104909132040E94B7178FE535
:104AB00091E00E94BD1681E892E00E948B17B12C14
:104AC00080912904B81688F46B2D70E08FE993E08B
:104AD0000E949114809124046AE070E0082E000C7A
:104AE000990B0E94B717B394EBCF8AED91E00E9427
:104AF00074178DED91E00E9474176AE070E0809168
:104B000029040E94601780EE91E00E94CF1682EE89
:104B100091E00E947417B12C80914F04B81670F583
:104B20008CEE91E00E9474176AE070E08B2D0E9479
:104B3000601786EF91E00E9474178B2C912CF40182
:104B4000E657FC4F6AE070E085850E9460178FEEA3
:104B500091E00E947417F401EE0FFF1FE15CFB4F20
:104B600080819181009721F06AE070E00E94B71780
:104B700080EE91E00E947417B394CECF81E691E06D
:104B80000E94CF1681E691E00E94CF16BECD8091A3
:104B90008402882349F18BE30E94F6150E94FF15D9
:104BA0009EEF9F3F09F185E3C856DF4F9883C859B0
:104BB000D0400E94F615C856DF4F9881C859D040A2
:104BC000FF24FA94F90E8077803241F061E070E0C2
:104BD00080E090E00E94A8129F2DE3CF911104C0C5
:104BE00084E691E00E94CF16CF57DF4F1882C1585C
:104BF000D040CF57DF4F3881C158D040C257DF4F28
:104C00006880CE58D040361509F4B2C1412CA6E1D7
:104C1000A49DC0011124F801E80FF91F2081318102
:104C2000232BE1F0F12C9F012B5E3F4FCF56DF4F3E
:104C300039832883C159D0403F0122513109CD56D3
:104C4000DF4F39832883C359D04021503109CB56D7
:104C5000DF4F39832883C559D040CCC0312C9F0108
:104C60002B5E3F4FCE57DF4F39832883C258D04049
:104C700005963801680E791ECC57DF4F798268821D
:104C8000C458D04022513109C857DF4F3983288397
:104C9000C858D04021503109C657DF4F3983288387
:104CA000CA58D040CE57DF4FA881B981C258D040F2
:104CB0008C91381608F0A8C0C857DF4FA881B98179
:104CC000C858D0400D90BC91A02DC158DF4FB9837A
:104CD000A883CF57D040C657DF4FE881F981CA5823
:104CE000D040E0800E9483123B014C01F12CC1585E
:104CF000DF4F28813981CF57D0402E153F0578F1FD
:104D0000C7010E9476178053CC57DF4FE881F981A5
:104D1000C458D040E80FF11DE80FF11DA080B1800C
:104D20006501B7FE04C0CC24DD24CA18DB080E944C
:104D300083126615770588059905C8F3B7FE02C08A
:104D40005B9801C05B9AC601DD0CAA0BBB0B680E19
:104D5000791E8A1E9B1EFFEFEF1AFF0AC8CF0E9422
:104D600083126615770588059905C8F333949ACFA1
:104D7000FF2031F061E070E080E090E00E94A81236
:104D8000F301C080D180CD56DF4FA881B981C359CE
:104D9000D040BC91C857DF4FB883C858D040CB56DD
:104DA000DF4FE881F981C559D040E0800E9483122D
:104DB0004B015C01B601DD0C880B990BCC57DF4F22
:104DC000688379838A839B83C458D040660F771F9A
:104DD000881F991FC657DF4F688379838A839B8317
:104DE000CA58D040C857DF4F2881C858D0402E1528
:104DF000E0F4F394CF56DF4FA881B981C159D04078
:104E00008C91F81608F4B4CF5B984394541408F0CE
:104E1000FECECF57DF4F2881C158D0402F5FCF57EC
:104E2000DF4F2883C158D040E4CE8E2D90E00E9401
:104E300076178A3314F097E301C090E3891BB4E03E
:104E40002B2E312C28E0C158DF4F2883CF57D0407C
:104E5000282F880F330BC157DF4F39832883CF5852
:104E6000D040A5019401CE57DF4F1882C258D040E0
:104E7000C158DF4F6881CF57D040C62ED12CC157C3
:104E8000DF4F88819981CF58D040C822D922C114E0
:104E9000D10409F44DC05B98CC57DF4F88819981CC
:104EA000AA81BB81C458D040280F391F4A1F5B1FFD
:104EB000C556DF4F2883CB59D040C656DF4F3883C5
:104EC000CA59D040C856DF4F4883C859D040C7564A
:104ED000DF4F5883C959D0400E948312C556DF4F17
:104EE0002881CB59D040C656DF4F3881CA59D040AF
:104EF000C856DF4F4881C859D040C756DF4F588148
:104F0000C959D040621773078407950788F2CE57B6
:104F1000DF4F9881C258D040913061F061E0CE57A8
:104F2000DF4F6883C258D040C114D10409F4B3CF15
:104F30005B9AB2CFC657DF4F688179818A819B81A6
:104F4000CA58D040860E971EA81EB91EC158DF4F02
:104F50002881CF57D0402695C158DF4F2883CF579F
:104F6000D04031E0231A310809F07BCFE3943ACFE7
:104F70004091880350918903609184037091850367
:104F800083EE92E00E940710EC967FACEC977720BE
:104F900011F40C942F1D8CE491E00E948B179E015C
:104FA0002B583F4F69018CE0F82EEA963FADEA9707
:104FB000F31A8C2DEA96BFADEA978B1BEC966FAC7B
:104FC000EC97861510F00C942F1DD6016D916D0194
:104FD000862FC856DF4F6883C859D0400E9483157A
:104FE000C856DF4F6881C859D0408F2D8C0D0E9464
:104FF000D315DFCFEBE8F3E00C94191FECE8F3E0F6
:105000000C94191FEEE8F3E00C94191FEFE8F3E09D
:105010000C94191FE2E0F1E00C94191FE0E0F0E0BD
:105020000C94191FEDE8F3E00C94191F10820C94F6
:105030001F1F84E893E00C941112CF93DF93E3EEEB
:10504000F2E01382128288EE93E0A0E0B0E0848365
:105050009583A683B78382E191E09183808385EC79
:1050600090E09587848784EC90E09787868780EC32
:1050700090E0918B808B81EC90E0938B828B82EC23
:1050800090E0958B848B86EC90E0978B868B118ECD
:10509000128E138E148EEDE5F4E084E68083118287
:1050A00013821282CAE8D3E08FE78093230484E05E
:1050B000809321041D8A10921E0410921F0487E021
:1050C0008093200480EF80932204E3E3F4E0F093E4
:1050D0003804E093370485E394E090933A04809396
:1050E0003904109258041092570410925A041092E6
:1050F000590410925C0410925B0411821082CE015C
:105100000E94331581E1809355041886198661E663
:1051100071E084E893E00E9416120E94831260936B
:105120008003709381038093820390938303DF91C4
:10513000CF910895CF93DF938230910510F482E0F0
:1051400090E0E0912B05F0912C0520E030E0C0E0EC
:10515000D0E0309711F14081518148175907C0F0D4
:105160004817590761F482819381209719F09B8336
:105170008A832BC090932C0580932B0526C0211584
:10518000310519F04217530718F49A01BE01DF01E7
:10519000EF010280F381E02DDCCF2115310509F10B
:1051A000281B390B2430310590F412968D919C9177
:1051B00013976115710521F0FB019383828304C06D
:1051C00090932C0580932B05FD01329644C0FD0180
:1051D000E20FF31F81939193225031092D933C9359
:1051E0003AC02091290530912A05232B41F42091C2
:1051F0000A0130910B0130932A0520932905209153
:105200000801309109012115310541F42DB73EB750
:1052100040910C0150910D01241B350BE0912905A3
:10522000F0912A05E217F307A0F42E1B3F0B281775
:10523000390778F0AC014E5F5F4F2417350748F00F
:105240004E0F5F1F50932A05409329058193919338
:1052500002C0E0E0F0E0CF01DF91CF9108950F931D
:105260001F93CF93DF93009709F48CC0FC01329712
:105270001382128200912B0510912C050115110546
:1052800081F420813181820F931F20912905309173
:105290002A052817390779F5F0932A05E09329059F
:1052A00071C0D80140E050E0AE17BF0750F412962D
:1052B0002D913C911397AD012115310509F1D901CB
:1052C000F3CF9D01DA013383228360817181860FE0
:1052D000971F8217930769F4EC0128813981260F03
:1052E000371F2E5F3F4F318320838A819B819383B9
:1052F0008283452B29F4F0932C05E0932B0542C0C3
:105300001396FC93EE931297ED01499159919E01EA
:10531000240F351FE217F30771F480819181840F08
:10532000951F029611969C938E938281938113967A
:105330009C938E931297E0E0F0E0D80112968D9145
:105340009C911397009719F0F8018C01F6CF8D917D
:105350009C9198012E5F3F4F820F931F209129054A
:1053600030912A052817390769F4309729F41092EB
:105370002C0510922B0502C01382128210932A056D
:1053800000932905DF91CF911F910F9108951F93ED
:10539000FC0199278827BC01E89411911032E9F3A8
:1053A000193010F01E30C8F31B3251F01D3249F491
:1053B000689406C00E94EE29610F711D811D911D28
:1053C000119110531A30B0F33EF49095809570957A
:1053D00061957F4F8F4F9F4F1F910895592F482FF1
:1053E000372F262F660F771F881F991F660F771F8D
:1053F000881F991F620F731F841F951F660F771FE9
:10540000881F991F08950E94452A08F481E0089595
:10541000E89409C097FB3EF490958095709561954E
:105420007F4F8F4F9F4F9923A9F0F92F96E9BB2704
:105430009395F695879577956795B795F111F8CF80
:10544000FAF4BB0F11F460FF1BC06F5F7F4F8F4FEB
:105450009F4F16C0882311F096E911C0772321F0E1
:105460009EE8872F762F05C0662371F096E8862F79
:1054700070E060E02AF09A95660F771F881FDAF7D0
:10548000880F9695879597F90895990F0008550FFD
:10549000AA0BE0E8FEEF16161706E807F907C0F0BA
:1054A00012161306E407F50798F0621B730B840BC2
:1054B000950B39F40A2661F0232B242B252B21F49C
:1054C00008950A2609F4A140A6958FEF811D811D3C
:1054D00008950E947C2A0C94F02A0E94E22A38F057
:1054E0000E94E92A20F0952311F00C94D92A0C94FB
:1054F000DF2A11240C94242B0E94012B70F3959F1A
:10550000C1F3950F50E0551F629FF001729FBB27BA
:10551000F00DB11D639FAA27F00DB11DAA1F649F56
:105520006627B00DA11D661F829F2227B00DA11D09
:10553000621F739FB00DA11D621F839FA00D611D8F
:10554000221F749F3327A00D611D231F849F600DB0
:10555000211D822F762F6A2F11249F5750409AF0D9
:10556000F1F088234AF0EE0FFF1FBB1F661F771F65
:10557000881F91505040A9F79E3F510580F00C9430
:10558000D92A0C94242B5F3FE4F3983ED4F38695FC
:1055900077956795B795F795E7959F5FC1F7FE2BD0
:1055A000880F911D9695879597F9089599278827D3
:1055B000089597F99F6780E870E060E008959FEF95
:1055C00080EC089500240A9416161706180609069A
:1055D000089500240A941216130614060506089569
:1055E000092E0394000C11F4882352F0BB0F40F4F1
:1055F000BF2B11F460FF04C06F5F7F4F8F4F9F4F31
:10560000089557FD9058440F551F59F05F3F71F0B2
:105610004795880F97FB991F61F09F3F79F0879519
:105620000895121613061406551FF2CF4695F1DFA2
:1056300008C0161617061806991FF1CF8695710532
:10564000610508940895E894BB2766277727CB0166
:1056500097F90895F999FECF92BD81BDF89A9927DF
:1056600080B50895262FF999FECF1FBA92BD81BD4E
:1056700020BD0FB6F894FA9AF99A0FBE01960895D4
:105680002F923F924F925F926F927F928F929F9252
:10569000AF92BF92CF92DF92EF92FF920F931F9340
:1056A000CF93DF93CDB7DEB7CA1BDB0B0FB6F894F1
:1056B000DEBF0FBECDBF09942A88398848885F8431
:1056C0006E847D848C849B84AA84B984C884DF80A2
:1056D000EE80FD800C811B81AA81B981CE0FD11D86
:1056E0000FB6F894DEBF0FBECDBFED010895A29FA7
:1056F000B001B39FC001A39F700D811D1124911DA6
:10570000B29F700D811D1124911D08955058BB2723
:10571000AA270E949E2B0C94F02A0E94E22A38F0BD
:105720000E94E92A20F039F49F3F19F426F40C94E2
:10573000DF2A0EF4E095E7FB0C94D92AE92F0E94AA
:10574000012B58F3BA17620773078407950720F0F7
:1057500079F4A6F50C94232B0EF4E0950B2EBA2FBA
:10576000A02D0B01B90190010C01CA01A001112467
:10577000FF27591B99F0593F50F4503E68F11A1613
:10578000F040A22F232F342F4427585FF3CF4695A4
:1057900037952795A795F0405395C9F77EF41F16C6
:1057A000BA0B620B730B840BBAF09150A1F0FF0F90
:1057B000BB1F661F771F881FC2F70EC0BA0F621F7C
:1057C000731F841F48F4879577956795B795F7956C
:1057D0009E3F08F0B0CF9395880F08F09927EE0F01
:1057E0009795879508950E94072C0C94F02A0E94A3
:1057F000E92A58F00E94E22A40F029F45F3F29F09C
:105800000C94D92A51110C94242B0C94DF2A0E9459
:10581000012B68F39923B1F3552391F3951B550B95
:10582000BB27AA2762177307840738F09F5F5F4F73
:10583000220F331F441FAA1FA9F335D00E2E3AF0B2
:10584000E0E832D091505040E695001CCAF72BD0CA
:10585000FE2F29D0660F771F881FBB1F261737071B
:105860004807AB07B0E809F0BB0B802DBF01FF274D
:1058700093585F4F3AF09E3F510578F00C94D92A27
:105880000C94242B5F3FE4F3983ED4F386957795F0
:105890006795B795F7959F5FC9F7880F911D969506
:1058A000879597F90895E1E0660F771F881FBB1F62
:1058B000621773078407BA0720F0621B730B840B0F
:1058C000BA0BEE1F88F7E09508950E946C2C68943F
:1058D000B1110C94242B08950E94092B88F09F5736
:1058E00098F0B92F9927B751B0F0E1F0660F771F04
:1058F000881F991F1AF0BA95C9F714C0B13091F0FA
:105900000E94232BB1E008950C94232B672F782F4E
:105910008827B85F39F0B93FCCF3869577956795BE
:10592000B395D9F73EF490958095709561957F4F2A
:105930008F4F9F4F08950E94452A08F48FEF0895D6
:105940000E94452A880B990B0895991B79E004C0A1
:10595000991F961708F0961B881F7A95C9F78095AE
:105960000895AA1BBB1B51E107C0AA1FBB1FA617A6
:10597000B70710F0A61BB70B881F991F5A95A9F7F8
:1059800080959095BC01CD01089597FB072E16F4E4
:10599000009407D077FD09D00E94B12C07FC05D0F8
:1059A0003EF4909581959F4F0895709561957F4F36
:1059B0000895A1E21A2EAA1BBB1BFD010DC0AA1F50
:1059C000BB1FEE1FFF1FA217B307E407F50720F068
:1059D000A21BB30BE40BF50B661F771F881F991FE3
:1059E0001A9469F760957095809590959B01AC012C
:1059F000BD01CF010895052E97FB1EF400940E946F
:105A0000122D57FD07D00E94D92C07FC03D04EF46D
:105A10000C94122D50954095309521953F4F4F4F46
:105A20005F4F089590958095709561957F4F8F4F4A
:105A30009F4F08950E94772BB7FF0895821B930B09
:105A40000895EE0FFF1F0590F491E02D0994A0E05A
:105A5000B0E0EDE2FDE20C94442BEC01009721F460
:105A6000CB010E949A28B8C0FC01E60FF71F9C01E9
:105A700022503109E217F30708F4ACC0D9010D91A7
:105A80001C91119706171707B0F00530110508F49F
:105A90009FC0C80104978617970708F499C0025061
:105AA0001109061B170B019311936D937C93CF0182
:105AB0000E942F298DC05B01A01AB10A4C01800EF3
:105AC000911EA0912B05B0912C0540E050E0E12CF7
:105AD000F12C109709F44AC0A815B905D1F56D90BD
