:100000000C94F6010C942C140C9405140C941E0200
:100010000C941E020C941E020C941E020C941E02E0
:100020000C941E020C941E020C941E020C941E02D0
:100030000C941E020C94AB140C941E020C941E0221
:100040000C944C1B0C941E020C9479140C945314B5
:100050000C941E020C941E020C941E020C941E02A0
:100060000C941E020C941E026D75746872657368A0
:10007000006D756F766572666C6D6178006D736387
:100080006E74006D636D626C006669666F6C696D9D
:1000900069740052656164696E672076616C75658C
:1000A000732066726F6D20656570726F6D0063639B
:1000B00031313031206973206E6F7420636F72723A
:1000C0006563746C79207365742E20506C65617360
:1000D0006520646F206120666163746F727920729D
:1000E000657365742076696120636F6D6D616E6400
:1000F000206500726563656976657220656E616270
:100100006C6564005374617274696E672074696D04
:1001100065726A6F6200206363506172746E756D00
:100120003D002063635665723D006F6B2E006E6F5D
:100130002043433131787820666F756E6421004327
:1001400043496E697420005573696E672073464990
:10015000464F004F4B006363726567207772697486
:1001600065206261636B200073656E64206661695F
:100170006C6564002F003B4D6465624669666F4C98
:10018000696D69743D003B6D634D696E4269744CE5
:10019000656E3D003B4D7553706C697454687265B3
:1001A00073683D003B4D754F766572666C4D6178A6
:1001B0003D005F4D53636E743D003B4D6465627559
:1001C000673D003B4D754E6F4F766572666C6F777D
:1001D0003D31003B4C45443D30003B4D7265643D34
:1001E000003B4D433D003B4D553D004D533D003DD3
:1001F000003A200063637265672000433345203D69
:1002000020002064656C617931200020636869708A
:100210005374617475732000636D645374726F62FC
:10022000655265672000556E737570706F727465E6
:100230006420636F6D6D616E640020746F205041A7
:100240005441424C4520646F6E6500577269746575
:100250002000203D20002000203A00454550524F0C
:100260004D20002D20636F6D70696C656420617492
:100270002046656220203220323031392031303A38
:1002800032353A3033004D687A20290063633131CA
:10029000303120005620332E332E322E312D726312
:1002A00038205349474E414C6475696E6F200020D9
:1002B000782065003F20557365206F6E65206F665E
:1002C0002056205220742058205320502043207262
:1002D0002057003D2000435300890083007D0071BA
:1002E0000068002061646444617461206F76657207
:1002F000666C6F772121002062797465636E743DAE
:100300000076616C3D00206D62206E6D2062207071
:10031000726F6320004D463D003B0046006D4F76F6
:100320006572666C6F772673746174653D30210069
:100330000D2E2D07D3913D04320000060010B07140
:1003400057C43023B900070018146C070090876B5E
:10035000F85611E92A001F4100000000002500287E
:10036000002B000404040404040404020202020238
:100370000203030303030301020408102040800169
:1003800002040810200102040810200000000800E8
:100390000201000003040700000000000000002923
:1003A00000636D6420746F206C6F6E672120286D70
:1003B00061782000496E697420656570726F6D20E8
:1003C000746F2064656661756C747300207374616A
:1003D00072743D0020627566664D6F7665206F769B
:1003E0006572666C6F772100AD27A92711241FBEA7
:1003F000CFEFD8E0DEBFCDBF11E0A0E0B1E0E6E492
:10040000F0E602C005900D92A43EB107D9F724E0B2
:10041000A4EEB1E001C01D92A73EB207E1F711E0E2
:10042000C5EFD1E004C02197FE010E94412CC43FDA
:10043000D107C9F70E94961B0C9416300C9400004B
:100440002F923F924F925F926F927F928F929F92E4
:10045000AF92BF92CF92DF92EF92FF920F931F93D2
:10046000CF93DF93CDB7DEB7E9970FB6F894DEBF31
:100470000FBECDBF898F882321F081E080938E034A
:1004800002C010928E038091B30320918A038111E0
:1004900008C0283230F49091F102992311F40C94A1
:1004A000C10E10928D0391E02E3F09F090E09093E1
:1004B0008F0310929303109292038111A4C2809132
:1004C000F10281111BC140E060E087EE92E00E94E2
:1004D0001015F12C2F2C312C8091B00390E0019756
:1004E000281639060CF00AC1F101E951FD4FCF0180
:1004F00040962089F394222369F3EF2C9101220F77
:10050000331FA90140565C4F59A348A39BA38AA35C
:100510005DA34CA38091B003E816E0F66E2D70E069
:100520007F8F6E8F69517D4F7D8F6C8FDB01509671
:100530008C91882309F4E0C0E8A1F9A1C080D180A2
:10054000EE8DFF8DEE0FFF1FE056FC4F00811181F5
:10055000C6018027912797FDCFC080909C03909083
:100560009D03A0909E03B0909F03B80117FF04C0A5
:1005700066277727601B710B072E000C880B990BE1
:100580000E949629A50194010E94F5292B013C01A6
:10059000B601D7FE04C0662777276C197D09072EA0
:1005A000000C880B990B0E949629A50194010E94CA
:1005B000F5299B01AC01C301B2010E941E2B20E072
:1005C00030E040E05FE30E94F5290E948A2B0C197D
:1005D0001D0917FF03C011950195110960177107D7
:1005E0000CF48AC0D12CC12C0C8D1D8D005F1F4FC7
:1005F00080918A03D81608F044C0D8018C91C8169F
:1006000008F03FC06D2D70E08FEF92E00E94D21491
:1006100080918503E81233C080918203482F50E017
:10062000D89EC0011124FC0163E0F695E7956A9518
:10063000E1F720918403E21708F587709927FF27D7
:10064000E951FD4F2091830330E0082E02C035951B
:1006500027950A94E2F72095308D232368E070E017
:10066000641B750BDB01A81BB90BA10102C0440F71
:10067000551FAA95E2F7CA01822B808FC394D394A9
:10068000B7CFAAA1BBA1CC90EC8DFD8DD088ECA1F9
:10069000FDA1A081B1810E8D1F8D000F111F00568D
:1006A0001C4FF801A080B180EC2DF0E09F010E946A
:1006B0003A2C2B013C014D2D50E09A01D5010E94AE
:1006C0003A2C640D751D861D971DE40FF51F9F01C3
:1006D000FF0F440B550B0E941B2CACA1BDA12D9309
:1006E0003C93DC0CEAA1FBA1D082AC8DBD8D509671
:1006F0001C92F80111821082E3940CCF8091EF02DA
:100700008823F1F110928B0360918B036A3070F5AE
:1007100070E06F5F7F4F8FEF92E00E94D2142091C4
:10072000850330E08091B203082E000C990B281746
:10073000390711F00C94CA0E60918B0370E08FEFB3
:1007400092E00E94D2142091850330E08091E7026C
:10075000082E000C990B2817390711F00C94CA0EBB
:1007600082E090E0909393038093920380919203B0
:1007700090919303892B09F095C01092EF0204C069
:100780008091F002882331F040E060E087EE92E053
:100790000E9410158091920390919303892B09F088
:1007A00081C08FEF8093E702F091B003FC8F8090BF
:1007B0008A0337EEC32E32E0D32E40EA242E43E0E4
:1007C000342EE12CF12C0FEF1FEF912CA12CB12C2A
:1007D0002C8DE21608F059C00F3F3FEF130701F5CB
:1007E000D1018D919C9197FD1BC0F601608970E04D
:1007F00080E090E00E9496292B013C01C501B401E4
:100800000E9496292BE734E14EE25EE30E94F5292F
:100810009B01AC01C301B2010E94C02B181654F118
:10082000D1018D919C9197FD26C0F801EE0FFF1F1D
:10083000E056FC4F2081318182179307E4F4F601E2
:10084000608970E080E090E00E9496292B013C01D5
:10085000C501B4010E9496292BE734E14EE25EE324
:100860000E94F5299B01AC01C301B2010E94C02B7B
:1008700018160CF48701FFEFEF1AFF0A2FEFC21AC8
:10088000D20A32E0230E311CA3CF0F3F4FEF1407E3
:1008900009F4BFC00093E70281E090E090939303D6
:1008A000809392038091920390919303019709F0B2
:1008B000B0C08091EA02882309F4ABC08091B503EF
:1008C0008111A7C080918A03282F30E0203A31059A
:1008D00024F498EDA92EA80E02C008E7A02EB0902F
:1008E000B003BA9416E0912EB7FC89C0CB2C0B2C28
:1008F000000CDD08F601E951FD4F1089112309F4C0
:100900007CC0F601EE0FFF1FE056FC4F20813181C5
:1009100037FF73C0319521953109283652E43507E8
:100920000CF06BC0E091E702EE0FFF0BE056FC4FBE
:100930000190F081E02DC901BF010E94D12B6E32E0
:10094000710508F05AC09E9EC0019F9E900D112413
:100950008217930708F051C0612F70E080E090E0AB
:100960000E9496292B013C0160918A0370E080E08F
:1009700090E00E9496292AE037ED43EA5DE30E9469
:10098000F5299B01AC01C301B2010E948F2987FFA9
:1009900034C0123090F100E010E00A1570F57801D3
:1009A0006FEFE61AF60AB7018FEF92E00E94D214B9
:1009B0008091850390E0C816D90611F00C94D10EF1
:1009C000B8018FEF92E00E94D2142091850330E0AD
:1009D0008091E702082E000C990B2817390711F0B7
:1009E0000C94D10EB092B20382E090E09093930306
:1009F0008093920300938B030CC0BA9475CF8FEF52
:100A00008093B20306C040E060E087EE92E00E946F
:100A100010158091920390919303029709F088C278
:100A200080918A03883208F483C28091F102811197
:100A30007FC210918B038CE0810F80938C03165F33
:100A400080918B03811708F03FC0E12EF12CB70194
:100A50006F5F7F4F8FEF92E00E94D2142091850349
:100A600030E08091B203082E000C990B281739074B
:100A700099F4B7018FEF92E00E94D2142091850380
:100A800030E08091E702082E000C990B28173907F7
:100A900019F410938B0318C01250D2CF6F5F7F4FA1
:100AA0008FEF92E00E94D2142091850330E0809174
:100AB000B203082E000C990B2817390781F080919A
:100AC0008C038E5F80938C0360918C0370E0809127
:100AD0008A0390E001976817790704F31AC06091C0
:100AE0008C0370E08FEF92E00E94D2142091850376
:100AF00030E08091E702082E000C990B2817390787
:100B0000F1F680918C03815080938C03FF24F39441
:100B100001C0F12C80918A03482F50E020918C0372
:100B200030E02417350714F4F11003C0815080938E
:100B30008C0340918C0360918B0387EE92E00E94BE
:100B4000101560918B03FF2041F080918C0390E0A1
:100B5000861B9109889794F4EBC120918A03822F18
:100B600090E0861B910988970CF4E2C12E3F08F0B3
:100B7000C0C1798D723011F40C9460119091EF0224
:100B80008091EE02981708F068C18091EB028823EB
:100B900009F4B3C082E00E94F5198BE591E00E9450
:100BA000C3198BE30E94F519E12C8091B003E8167C
:100BB000C0F58E2D90E0FC01EE0FFF1FE056FC4FBC
:100BC000008111810115110551F1FC01E951FD4F21
:100BD0008089882321F16E2D17FF05C0606A119569
:100BE0000195110901C06068D02E07FD04C0802F57
:100BF0008068D82E01C0606180E492E00E942B12D0
:100C00006D2D80E492E00E942B12612F772760689F
:100C100080E492E00E942B128BE30E94F519E3948A
:100C2000C4CF80918C0380FF03C08EE591E002C0A9
:100C300082EE91E00E94C319E0918B03E0FF1BC09C
:100C4000E150E0938B03E69580918403E81728F444
:100C5000F0E0E951FD4F908D9A8F8A8D8F708068FA
:100C60008A8F682F80E492E00E942B1280918B0380
:100C70008E5F80938B0310918B0380918C0381177F
:100C800090F0E12FE69580918403E81728F4F0E0D6
:100C9000E951FD4FA08DAA8F6A8D80E492E00E94F9
:100CA0002B121E5FEACF8BE30E94F5198AE791E0D1
:100CB0000E94C3198091E70260E170E0082E000CE9
:100CC000990B0E94FA198BE30E94F51983E691E0D3
:100CD0000E94C3198091B20360E170E0082E000CFD
:100CE000990B0E94FA198BE30E94F51980E691E0B6
:100CF0000E94C31960E170E079C082E00E94F5199A
:100D000082E691E00E94C3198BE30E94F519E12C61
:100D10008091B003E81648F58E2D90E08C01000F0D
:100D2000111F00561C4FF80120813181232BD9F06F
:100D3000FC01E951FD4F80898823A9F080E50E94DC
:100D4000F5196AE070E08E2D0E94B5198DE30E94BE
:100D5000F5196AE070E0D8018D919C910E94FA1912
:100D60008BE30E94F519E394D3CF85E691E00E94CE
:100D7000C31910918B0380918C03811770F0612F40
:100D800070E08FEF92E00E94D2146AE070E08091F0
:100D900085030E94B5191F5FEECF8BE30E94F51902
:100DA00088E691E00E94C3198091E7026AE070E052
:100DB000082E000C990B0E94FA198BE30E94F5197A
:100DC0008CE691E00E94C3198091B2036AE070E062
:100DD000082E000C990B0E94FA198BE30E94F5195A
:100DE00080E791E00E94C3196AE070E08091B70348
:100DF0000E94B5198BE30E94F51980918F03882317
:100E000039F083E791E00E94C3198BE30E94F51942
:100E10008091ED02882309F180918B03823068F084
:100E20008CE591E00E94C3196AE070E080918B0329
:100E30000E94B5198BE30E94F519B98DB11103C059
:100E400088EC91E005C0E98DE23039F485E791E066
:100E50000E94C3198BE30E94F51910928E038091B2
:100E6000EF02F11002C08823C9F19091ED0299239D
:100E700089F09091EE02891768F487E791E00E946B
:100E8000C3196AE070E08091EF020E94B5198BE30C
:100E90000E94F5192091EF022F5F2093EF02FF20AF
:100EA000B9F0F98DF11109C080918A0390E0309179
:100EB0008C03831B910988975CF0222379F0609161
:100EC0008C036F5F87EE92E00E94BC1510928B033B
:100ED0009091EF028091EE02891738F083E00E9432
:100EE000F51985E391E00E94C31981E08093F60231
:100EF0001CC0662399F080918C0390E08D3F910592
:100F00006CF0298D211103C010928E030EC087EE64
:100F100092E00E94BC1510928B0307C0398D3230CD
:100F200021F087EE92E00E94721581E080938D039C
:100F300080918D03811115C78091E8024091E902EB
:100F40004AA7811103C0442309F409C75AA55523B0
:100F500009F478C48091920390919303029709F465
:100F600071C48091EB0181112BC082E38093330225
:100F700091E0909331021092FB0110922D02109299
:100F80002F0210922E0287E08093300280E8809337
:100F900032028FEF809337028093380280933902B8
:100FA00080933A0210923F0227EE32E030933602ED
:100FB0002093350210923C0210923B029093EB0179
:100FC0008091B3038823A9F0809135029091360275
:100FD000FC01E955FF4F10823397108200E011E0C9
:100FE0009924939466246A9458E0852E67E0762EBF
:100FF000A9C18FEF80933702809338028093390222
:1010000080933A0210923F0210923C0210923B02EF
:101010001092FB0110922D0210922F0210922E02BC
:1010200087E0809330028091B60380933D02009167
:10103000350210913602F801E753FF4FF08063E06C
:101040006F1508F0FFC3B697608170E080E090E014
:101050000E9496292AE037ED43E25DE30E94F529DC
:101060004B015C0120E030E0A9010E94C02B20E090
:1010700030E040E05FE387FD05C0C501B4010E9498
:101080001E2B04C0C501B4010E941D2B0E948A2B97
:10109000580170E1A70EB11CF801E754FF4F212C55
:1010A00070E0D5018D915D01861760F1E22C8E2DE7
:1010B00090E0EE20F1F09E01280F391FD901DC905D
:1010C00098012D0D311D2D0D311D27543F4F4081AD
:1010D0005181D9012D913C914217530754F421E0DD
:1010E00030E02C0F3D1F820F931FDC01DC92EA944D
:1010F000DECF21E030E02C0F3D1F820F931FDC017B
:101100007C9323947F5F3296F712CBCFFE0131960A
:10111000FA8BE98BFDA3ECA34091140150911501CA
:1011200060911601709117014BA75CA76DA77EA770
:10113000BE01635F7F4F7C8B6B8BCE0109969E8BCC
:101140008D8BDE015196B88FAF8BB989BAAB8CA16C
:101150008B1B821508F076C3ACA1BDA12D91BDA358
:10116000ACA34091350230913602842F932F820F29
:10117000911D820F911DFC01E754FF4F20813181A9
:101180003D8F2C8F1216130604F78FEF80933702D2
:10119000809338028093390280933A0235952795DF
:1011A00039AB28ABAE014F5F5F4F5BA34AA31FA2D1
:1011B0001EA26FEF7FEF7B8F6A8F8C8D9D8D092E26
:1011C000000CAA0BBB0B8EAB9FABA8AFB9AF1FEF48
:1011D0008AA19AA9891B821508F0B7CFAAA1BBA141
:1011E0000D91BBA3AAA33091350220913602832F23
:1011F000922F800F911D800F911DFC01E754FF4F2E
:10120000E080F1806EA97FA988AD99AD0E949629F2
:101210004B015C016701F7FE04C0CC24DD24CE182D
:10122000DF082DEC3CEC4CE45EE3C501B4010E9408
:10123000F5290E948A2B88A999A98C199D0997FFE5
:1012400003C0919581959109681779070CF0ACC599
:101250002DEC3CEC4CEC5EE3C501B4010E94F52999
:101260000E948A2B8C8D9D8D8C199D0997FF03C040
:10127000919581959109681779070CF09BC5A8CFC6
:10128000802F0E94591AE0903502F0903602F70143
:10129000EC55FF4F6082B60161507109C701489655
:1012A0000E94D214F701E256FF4F808190E0209116
:1012B0003902022E000C330B8217930709F404C77E
:1012C00020913A02022E000C330B8217930709F487
:1012D000FBC6E0913502F0913602EC55FF4F80815C
:1012E0008F3F09F4108310913E02C0903502D090D8
:1012F0003602F601ED55FF4F8081181708F4EBC058
:1013000020913D02022E000C330B40912E02509191
:101310002F028091350290913602FC01421753074B
:1013200008F0FEC0E253FF4F2081222309F4F2C0EF
:101330001092FB0110922D0210922F0210922E0299
:10134000709230028091350290913602412F50E028
:10135000FC01ED55FF4F208130E02E51310942173D
:1013600053070CF068C2BA96908231978081882327
:1013700039F080912E0290912F02009709F072C0EF
:10138000C12ED12CE0903502F0903602F701ED55D8
:10139000FF4F808190E00197C816D9060CF051C02C
:1013A000B601C70148960E94D214F701E256FF4FDA
:1013B000A080B12C80913802082E000C990BA81641
:1013C000B90699F180913702082E000C990BA816E6
:1013D000B90609F077C6E0903502F0903602B60102
:1013E00061507109C70148960E94D214F701E25674
:1013F000FF4F8081E80EF11CE80EF11CD701A754C5
:10140000BF4F8091350290913602E0913802EE0F85
:10141000FF0BE80FF91FE754FF4F2D913C9180819E
:101420009181821793070CF44DC680913802082EE3
:10143000000C990B01E08A159B0509F000E0109360
:101440003E022091350230913602F901ED55FF4FF1
:10145000808190E00197C816D9060CF411CFBA9696
:101460001082E9C1AC014150510990913102949F21
:10147000B001959F700D1124FB0123E0F695E795CF
:101480002A95E1F780913302E81710F00FEF21C0A1
:101490002091320230E06770772702C0359527959A
:1014A0006A95E2F7FF27E550FE4F8081282330E060
:1014B000582D591B949F802D11248770581B852F00
:1014C000A90102C0559547958A95E2F7042F4093EC
:1014D000340211E00ACFE12EF12CB701C601489683
:1014E0000E94D214F601E256FF4F208130E0809135
:1014F0003702082E000C990B2817390709F451C63A
:1015000080913802082E000C990B2817390709F032
:101510004EC647C6193208F40BCFBA9710838BC159
:10152000E855FF4F2081DC01AD55BF4F3397222393
:1015300091F0412F50E02C9130E0215031094217B9
:1015400053074CF01083B79621E020836FEF610FB3
:101550000E94BC1570C18C91181708F41F5F10838E
:1015600082E00E94F51989E791E00E94C3198BE39C
:101570000E94F5198CE791E00E94C319E0913702AF
:10158000EE0FFF0BE056FC4F6AE070E08081918126
:101590000E94FA198BE30E94F51980E891E00E94FD
:1015A000C319E0913802EE0FFF0BE056FC4F6AE0E2
:1015B00070E0808191810E94FA198BE30E94F519F5
:1015C00084E891E00E94C319E0913902EE0FFF0B0D
:1015D000E056FC4F6AE070E0808191810E94FA1928
:1015E0008BE30E94F51988E891E00E94C319E0910D
:1015F0003A02EE0FFF0BE056FC4F6AE070E080818C
:1016000091810E94FA198BE30E94F51985E691E019
:101610000E94C3198091A9019091AA01A091AB01E8
:1016200089839A83AB83B12C8E010F5F1F4F8CE8A7
:10163000E82E81E0F82ECB2CD12C80912D0290E069
:1016400020913302C816D906DCF4B21628F4F6014C
:10165000E550FE4F70817BAB1F928BA98F93FF9259
:10166000EF921F930F930E94632DC8010E94C3192C
:10167000B3940F900F900F900F900F900F90DBCFBF
:10168000B21628F4F601E550FE4F90819CAB8CA970
:1016900082958F701F928F9381E991E09F938F9332
:1016A0001F930F930E94632DC8010E94C31980915C
:1016B0002E0290912F028770992701970F900F901B
:1016C0000F900F900F900F900497F0F080913302DD
:1016D000B81628F4F601E550FE4FA081ADAB8DA9F8
:1016E0008F701F928F9381E991E09F938F931F9347
:1016F0000F930E94632DC8010E94C3190F900F9091
:101700000F900F900F900F908BE30E94F51986E9D0
:1017100091E00E94C3196AE070E080913B029091D1
:101720003C020E94FA198BE30E94F5198DE791E0C3
:101730000E94C31960912E0270912F0280E090E008
:101740004AE00E9474198BE30E94F51980E791E04A
:101750000E94C3196AE070E08091B7030E94B51936
:101760008BE30E94F5198091ED02882349F1809165
:10177000B403811107C089E991E00E94C3198BE38A
:101780000E94F51980913E028823D1F08CE591E00A
:101790000E94C3196AE070E080913E020E94B51970
:1017A0008BE30E94F5198BE991E00E94C3196AE06E
:1017B00070E080918B030E94B5198BE30E94F519AC
:1017C00080918F03882339F083E791E00E94C31949
:1017D0008BE30E94F5191092B30381E080938D038F
:1017E0008093F60260918C03B98DB11107C080918E
:1017F0008A0390E0861B91098897ACF0615087EED0
:1018000092E00E94BC1510928B0381E08093B50397
:101810008091ED02882339F08DE991E00E94C3198F
:101820008BE30E94F51983E00E94F51985E391E0AE
:101830000E94C31907C08091B303882319F081E087
:1018400080938D038091E802882309F484C28091FB
:101850009203909193030197029708F07CC28091C4
:101860008D0381117EC280918A03883228F4809191
:10187000F102882309F473C210928B0340E060E008
:1018800087EE92E00E9410158091F3029091F4028D
:10189000892B09F494C08091EC02811190C0F090E2
:1018A000B003FA94F7FC8BC0CF2C0F2C000CDD0892
:1018B000F601EE0FFF1FE056FC4F8081918197FFEC
:1018C00003C09195819591092091F3023091F40222
:1018D0008217930730F3F601E951FD4F8089882381
:1018E00001F3813099F400E010E0B8018FEF92E04D
:1018F0000E94D2148091850390E0C816D90689F21F
:101900000F5F1F4F0A30110581F702C0883048F67B
:1019100088E280938C0380918A03883208F44FC058
:1019200018E2E12EF12C80918A0390E00197E816ED
:10193000F9060CF044C0B7018FEF92E00E94D21478
:10194000E0918503F0E0EE0FFF1FE056FC4F808131
:101950009181B7011816190674F48FEF92E00E9476
:10196000D214E0918503F0E0EE0FFF1FE056FC4F2C
:101970008081918110C08FEF92E00E94D214E0919B
:101980008503F0E0EE0FFF1FE056FC4F8081918150
:101990009195819591092091F3023091F40282177B
:1019A000930758F010938C03412F60E087EE92E08C
:1019B0000E941015FF24F3940FC01F5FB2CF9091C7
:1019C0008F0380918A03992321F09091EC02911169
:1019D000825080938C03F12C8091F1029091F2025D
:1019E000981708F419C120918F03222351F02091F8
:1019F000EC02222331F0891721F091E09093F50257
:101A000002C01092F5029091EB02992309F491C063
:101A1000811164C082E00E94F5198FE991E00E9473
:101A2000C3198BE30E94F519E12C8091B003E816ED
:101A3000C0F58E2D90E0FC01EE0FFF1FE056FC4F2D
:101A4000008111810115110551F1FC01E951FD4F92
:101A50008089882321F16E2D17FF05C0606A1195DA
:101A60000195110901C06068D02E07FD04C0E02F68
:101A7000E068DE2E01C0606180E492E00E942B12DB
:101A80006D2D80E492E00E942B12612F7727606811
:101A900080E492E00E942B128BE30E94F519E394FC
:101AA000C4CF8AE791E00E94C3198091E70260E108
:101AB00070E0082E000C990B0E94FA198BE30E942B
:101AC000F51980E691E00E94C31960E170E0809111
:101AD000B7030E94B5198BE30E94F51980918C031E
:101AE00080FF06C082EE91E00E94C31910E014C08E
:101AF0008EE591E0F9CFE12FE69580918403E81718
:101B000028F4F0E0E951FD4F208D2FA76FA580E468
:101B100092E00E942B121E5F80918C03181758F3DD
:101B200004C08091F50281117AC08BE30E94F519FF
:101B300076C081115DC082E00E94F51982EA91E0D1
:101B40000E94C3198BE30E94F51910E08091B00345
:101B5000181768F5812F90E09C01220F331FA9010F
:101B600040565C4F6A01DA012D913C91232BE9F03C
:101B7000FC01E951FD4F80898823B9F085EA91E0A5
:101B80000E94C3196AE070E0812F0E94B51987E9AD
:101B900091E00E94C3196AE070E0F60180819181B2
:101BA0000E94FA198BE30E94F5191F5FCFCF88E6D8
:101BB00091E00E94C3198091E7026AE070E0082E6C
:101BC000000C990B0E94FA198BE30E94F51980E72B
:101BD00091E00E94C3196AE070E08091B7030E940F
:101BE000B5198BE30E94F51985E691E00E94C319AF
:101BF00010E080918C03181708F093CF612F70E0EC
:101C00008FEF92E00E94D2146AE070E08091850329
:101C10000E94B5191F5FEDCF81E08093F50210920D
:101C20008E0381E08093F60280938D0380918F0371
:101C3000882361F1F11023C08091EC028823F9F030
:101C40009091F1028091F20298130DC087EA91E021
:101C50000E94C3196AE070E08091F1020E94B519F8
:101C60008BE30E94F5198091F1028F5F8093F1025E
:101C700060918C0387EE92E00E94BC1507C083E759
:101C800091E00E94C3198BE30E94F5198091ED0247
:101C9000882309F412C380918F0381110AC38091B4
:101CA000F502811106C3F98DF11103C088EC91E0B2
:101CB00005C0298D223039F485E791E00E94C319CF
:101CC0008BE30E94F5198091B403811107C089E963
:101CD00091E00E94C3198BE30E94F519FF2051F196
:101CE0008091ED02882369F08DE991E00E94C3198B
:101CF0006AE070E08091F0020E94B5198BE30E94C7
:101D0000F5198091F0028F5F8093F002398D3111C7
:101D100009C080918A0390E020918C03821B910975
:101D2000889744F060918C0387EE92E00E94BC1586
:101D300010928B038091F502811107C083E00E940D
:101D4000F51985E391E00E94C31980918F038111F9
:101D500002C01092F10280918D03811102C0109295
:101D60008E0380918A038E3F60F080919203909160
:101D70009303892B31F48DE193E00E944B1A10926A
:101D80008E0380918E038111B5C287EE92E00E948E
:101D90007215B0C280918B038F5F80938B030C947C
:101DA000840387010C94CD041E141F049CF400933B
:101DB0003A0206C01E141F040CF078C200933802C9
:101DC000BEA1BF5FBEA3EA8DFB8DEE0DFF1DFB8F95
:101DD000EA8F0BC000933902FFA1FF5FFFA32A8D9A
:101DE0003B8D2E193F093B8F2A8F809137028F3F01
:101DF00009F4EEC9809139028F3F09F4E9C9809155
:101E000038028F3F09F4E4C980913A028F3F09F408
:101E1000DFC94BA55CA56DA57EA54D875E876F8745
:101E2000788B49875A876B877C8761E070E079A758
:101E300068A7812C912CE0903502F0903602F701D2
:101E4000ED55FF4F808190E0881699060CF0C0C9CF
:101E5000B401C70148960E94D214F701E256FF4F21
:101E60000081802F90E020913702022E000C330B6E
:101E7000E0903502F090360282179307C1F020916E
:101E80003802022E000C330B8217930781F0209149
:101E90003902022E000C330B8217930741F0209178
:101EA0003A02022E000C330B8217930751F4F7010C
:101EB000ED55FF4F808190E001978816990609F053
:101EC000C3C0F701EC55FF4F60819401261B310917
:101ED00080913D02082E000C990B821793070CF09D
:101EE000B0C031968082482DC7010E9410158091A4
:101EF00035029091360230903A02A0913802AE8FAE
:101F000000913902B0913702B8A3FC01E30DF11D35
:101F100037FCFA952089FC01EA0FF11DA7FDFA951F
:101F2000C088D12CC20ED11CFC01E00FF11D07FDB1
:101F3000FA952089C21AD108FC01EB0FF11DB7FDFB
:101F4000FA95208910923F02C21AD108D7FE03C029
:101F5000D194C194D1080D2C000CEE08FF08FC01AF
:101F6000ED55FF4FA080B12CB5010B2C000C880B58
:101F7000990B0E9496292AE037ED43E25DE30E9427
:101F8000F5292B013C0120E030E0A9010E94C02B83
:101F900020E030E040E05FE387FD05C0C301B2010F
:101FA0000E941E2B04C0C301B2010E941D2B0E947F
:101FB0008A2B6C157D058E059F050CF409C95EA161
:101FC0006FA1561305C97E8D88A1781709F400C941
:101FD000301609F4FDC8081709F4FAC8371609F4D1
:101FE000F7C8381609F4F4C8701709F4F1C8FE01EF
:101FF0003D96DE01199681919D91891709F465C17D
:102000009F3F19F08F3F09F060C1A818B90880916F
:102010003D02082E000C990B8A159B050CF0D8C8C0
:102020001D8719871E871A871F871B87188B1C8798
:102030007FEF871A970A88A599A5019699A788A77F
:10204000FACE10923F020BC080913F02811107C06F
:10205000F701EC55FF4F808291E090933F0268A515
:1020600079A5C70148960E94D214F701E256FF4FA6
:102070008081AAE00A9F800D11248A3008F48C59CF
:1020800080FE03C02D899E8902C02B899C89E22F86
:10209000F92F90E0482F50E06081262F062E000C8B
:1020A000330B2417350719F06F3F19F48083292F5C
:1020B00001C02FEF9F5F943009F4BACF31962F3FC4
:1020C00059F3B6CF1F5F5CC91150123008F401C933
:1020D000E12EF12CC0903502D0903602B70162504B
:1020E0007109C60148960E94D214F601E256FF4FCC
:1020F000808190E020913902022E000C330BF70111
:1021000031977F018217930741F020913A02022E06
:10211000000C330B82179307F1F4C0903502D09076
:102120003602B701C60148960E94D214F601E25663
:10213000FF4F808190E020913902022E000C330B7A
:102140008217930761F120913A02022E000C330BA3
:102150008217930721F1C0903502D0903602B70163
:10216000C60148960E94D214F601E256FF4F208124
:1021700030E080913A02082E000C990B281739079D
:1021800009F0A7C8E0913502F0913602EC55FF4FF7
:102190001250108310E0802F0E94591A96CF1250CF
:1021A000FACF09251F5F802F0E94591A9EC8C09040
:1021B0003502D0903602F601ED55FF4F808190E058
:1021C0000197E816F9060CF09BC8011130C0809108
:1021D0003902082E000C990B8217930709F090C85A
:1021E0005FEFE51AF50AB701C60148960E94D214BE
:1021F000F601E256FF4F208130E080913A02082E2E
:10220000000C990B2817390709F44EC0C09035020D
:10221000D0903602B701C60148960E94D214F6014A
:10222000E256FF4F208130E0809138022EC080912D
:102230003A02082E000C990B8217930709F060C828
:102240006FEFE61AF60AB701C60148960E94D2144B
:10225000F601E256FF4F208130E080913902082ECE
:10226000000C990B28173907F9F0C0903502D0906F
:102270003602B701C60148960E94D214F601E25612
:10228000FF4F208130E080913702082E000C990B1F
:102290002817390709F034C8E0913502F091360269
:1022A000E353FF4F10822CC81F5F7CCF009337028F
:1022B00093CDFF2009F43ECD17CDF11022CD3ACDBC
:1022C00061110C947B070C9495076F89788D6E17BC
:1022D0007F0709F090CE8A8D9B8D66E070E00E94AA
:1022E000E52B70933C0260933B024AA541110C948C
:1022F000E407A8CAE9960FB6F894DEBF0FBECDBFBB
:10230000DF91CF911F910F91FF90EF90DF90CF90D1
:10231000BF90AF909F908F907F906F905F904F9005
:102320003F902F9008950895CF92DF92EF92FF9201
:102330000F931F93CF93DF936C017A018B01C0E061
:10234000D0E0CE15DF0581F0D8016D918D01D60169
:10235000ED91FC910190F081E02DC6010995892B4A
:1023600011F02196EECF7E01C701DF91CF911F9131
:102370000F91FF90EF90DF90CF900895089580E047
:1023800090E00895FC01538D448D252F30E0842F7B
:1023900090E0821B930B541710F0CF96089501978D
:1023A0000895FC01918D828D981761F0828DDF0177
:1023B000A80FB11D5D968C91928D9F5F9F73928F38
:1023C00090E008958FEF9FEF0895FC01918D828D2D
:1023D000981731F0828DE80FF11D858D90E00895FA
:1023E0008FEF9FEF0895FC01918D228D892F90E052
:1023F000805C9F4F821B91098F739927089580E419
:1024000092E00E94F31121E0892B09F420E0822F51
:102410000895FC01848DDF01A80FB11DA35ABF4FA1
:102420002C91848D90E001968F739927848FA689D3
:10243000B7892C93A089B1898C91837080648C9327
:10244000938D848D981306C00288F389E02D8081D6
:102450008F7D80830895EF92FF920F931F93CF9308
:10246000DF93EC0181E0888F9B8D8C8D981305C0E4
:10247000E889F989808185FD26C0F62E0B8D10E054
:102480000F5F1F4F0F731127E02E8C8DE8120CC0C9
:102490000FB607FCFACFE889F989808185FFF5CF6F
:1024A000CE010E940912F1CF8B8DFE01E80FF11DC4
:1024B000E35AFF4FF0829FB7F8940B8FEA89FB89AC
:1024C000808180620AC09FB7F894EE89FF8960839B
:1024D000E889F98980818370806480839FBF81E06F
:1024E00090E0DF91CF911F910F91FF90EF900895B1
:1024F000CF93DF93EC01888D8823C9F0EA89FB89AB
:10250000808185FD05C0A889B9898C9186FD0FC0A1
:102510000FB607FCF5CF808185FFF2CFA889B98976
:102520008C9185FFEDCFCE010E940912E7CFDF919C
:10253000CF9108950895FC01099480E008950E94C8
:102540000D2DCF92DF92EF92FF920F931F93F8948D
:102550000E94ED1A0091DD021091DE022091DF024F
:102560003091E0026B017C01C01AD10AE20AF30A41
:10257000970186016093DD027093DE028093DF0293
:102580009093E0020A3511052105310578F181E0CB
:10259000C8168DE7D806E104F10410F4960102C0D4
:1025A00021E03DE74B9B03C0319521953109809196
:1025B000BF038C38D8F48091BF038F5F8093BF0333
:1025C0008091C0036091BE030E94C52B9093C0030D
:1025D000E091C003F0E0EE0FFF1FEE53FC4F31839C
:1025E00020838091C0038F5F8093C00378941F91F4
:1025F0000F91FF90EF90DF90CF900895FC018081C4
:102600009181009711F00C944C2960E070E0CB01AF
:1026100008950F931F93CF93DF93EC0188819981E5
:10262000009729F02A813B812617370788F48B0110
:102630006F5F7F4F0E94472C009761F099838883DA
:102640001B830A832C813D81232B11F4FC01108212
:1026500081E001C080E0DF91CF911F910F9108953B
:10266000EF92FF920F931F93CF93DF93EC017B01C7
:102670008A01BA010E9409132881398181110DC094
:102680002115310519F0C9010E94C3281982188249
:102690001D821C821B821A8206C01D830C83B70117
:1026A000C9010E94422DCE01DF91CF911F910F9160
:1026B000FF90EF900895CF93DF93EC0161157105C2
:1026C00059F0FB0101900020E9F73197AF01461B5B
:1026D000570B0E9430130CC088819981009711F02C
:1026E0000E94C328198218821D821C821B821A82B2
:1026F000CE01DF91CF910895FF920F931F93CF9357
:10270000DF9300D0CDB7DEB7FF24F39480E492E0EE
:102710000E94F311892B09F450C080E492E00E94DA
:10272000D1118A3041F01CF4882329F007C08D3084
:1027300011F0833219F4F092E80122C089831A82E1
:102740000091E5021091E6020F5F1F4FB80181EE84
:1027500092E00E940913882399F02091E1023091C0
:10276000E2028091E5029091E602BE016F5F7F4F29
:10277000820F931F0E94422D1093E6020093E50200
:102780008091E5029091E6028F35914008F4BECF2A
:1027900066E371E081EE92E00E945B1381EA93E0D0
:1027A0000E94DA196AE070E08EE591E00E94FA1961
:1027B0008FE993E00E944B1AA9CF0F900F90DF9101
:1027C000CF911F910F91FF9008950E94FF118111E9
:1027D0000C947C130895FC01808191810C94C32892
:1027E000FC011182108213821282158214826115FB
:1027F000710551F0FB0101900020E9F73197AF011D
:10280000461B570B0C94301308951F920F920FB66E
:102810000F9211242F933F934F935F936F937F9366
:102820008F939F93AF93BF93EF93FF93E091060134
:10283000F09107010995FF91EF91BF91AF919F91A1
:102840008F917F916F915F914F913F912F910F9059
:102850000FBE0F901F9018951F920F920FB60F92F8
:1028600011242F933F934F935F936F937F938F9395
:102870009F93AF93BF93EF93FF93E0910401F09187
:1028800005010995FF91EF91BF91AF919F918F91B4
:102890007F916F915F914F913F912F910F900FBE5C
:1028A0000F901F9018951F920F920FB60F92112440
:1028B0002F933F934F935F936F937F938F939F9348
:1028C000AF93BF93EF93FF9380E492E00E940912CD
:1028D000FF91EF91BF91AF919F918F917F916F91F8
:1028E0005F914F913F912F910F900FBE0F901F90CE
:1028F00018951F920F920FB60F9211242F938F935A
:102900009F93EF93FF93E0915002F09151028081E9
:10291000E0915602F091570282FD12C090818091A1
:1029200059028F5F8F7320915A02821751F0E09104
:102930005902F0E0E05CFD4F958F8093590201C091
:102940008081FF91EF919F918F912F910F900FBEFA
:102950000F901F9018951F920F920FB60F9211248F
:102960002F933F934F935F936F937F938F939F9397
:10297000AF93BF93EF93FF93E091E401F091E501F2
:102980000995FF91EF91BF91AF919F918F917F91A9
:102990006F915F914F913F912F910F900FBE0F90CC
:1029A0001F901895CF93DF93FC01ED57FF4F4081A7
:1029B000469FF001479FF00D1124DF0123E0B695FB
:1029C000A7952A95E1F7EC01CB57DF4F2881A21795
:1029D00010F52197288130E0E770FF2702C0359578
:1029E0002795EA95E2F7FC01EA0FF11D30812323D8
:1029F00030E058E0541B469F402D11244770541B73
:102A000002C0359527955A95E2F7322FFC01EA5717
:102A1000FF4F208301C03FEF832FDF91CF910895B7
:102A2000FC01ED55FF4F2081222309F45AC0E359E0
:102A3000F109DC0158961192AE17BF07E1F7411179
:102A400002C04FEF420F262F2695542F569560FF58
:102A500013C0FC01E356FF4F6081261720F4FC01F0
:102A6000E20FF11D308D632F6F70FC01E60FF11D39
:102A700060896F5F608B2F5FDC01A356BF4F5217D9
:102A8000E8F06C91261720F4FC01E20FF11D308D67
:102A9000E32FF0E064E0F595E7956A95E1F7E80F3C
:102AA000F91F60896F5F608B632F6F70FC01E60F09
:102AB000F11D60896F5F608B2F5FE1CF40FD11C01A
:102AC000FC01E356FF4F2081521720F4FC01E50F73
:102AD000F11D308D3F70FC01E30FF11D80898150A5
:102AE000808B0895FC01ED55FF4F1082B696108241
:102AF00031961082FC01108EE956FF4F10823196FC
:102B000011821082329627E0208371961182108202
:102B1000B0962FEF2083FC012083DC01A754BF4F28
:102B200070969C01285E3F4F1D921D921192E217F4
:102B3000F307D1F7FC01EA55FF4F1082339626E9DF
:102B400030E0318320833C9640E050E060E87EE353
:102B5000408351836283738371971082339610820E
:102B600031961082B4961082319621E020833196FE
:102B70001082B997108208954F925F927F928F9240
:102B80009F92AF92BF92CF92DF92EF92FF920F93FC
:102B90001F93CF93DF93EC015C0187EAA80EB11C71
:102BA000D5011C92662309F4C5C06E01B3EACB0EB1
:102BB000D11CF6019081992309F4BCC0962E292FCF
:102BC00030E0E62EF12CE216F306FCF0961758F4EE
:102BD00084ED93E00E94DA198CEC93E00E94DA19FC
:102BE000892D0E943B1ACE01DF91CF911F910F9149
:102BF000FF90EF90DF90CF90BF90AF909F908F901D
:102C00007F905F904F900C9472158E0108561F4F65
:102C1000D8012D913C9111972E153F0508F474C0F1
:102C2000B70176956795762EFE01E956FF4FE216BD
:102C3000F30639F4188E10821D921C9287E03396A9
:102C400042C0CE01489690FE40C070812C01862F74
:102C500087196717B0F44E01860E911CD40159965E
:102C60004C915997842F82958F7058964C91B0E172
:102C70004B9FA0011124482BD2014D932D016F5F72
:102C8000E6CF20FD0EC0AE01480F511DCE01860FCC
:102C9000911DDC0158968C918295807FDA015896BF
:102CA0008C932E193F09D8012D933C93C9010197AC
:102CB000969587958083FE01E656FF4F20FD02C062
:102CC00087E001C083E0808311C04081461B4083C0
:102CD00050E04F5F5F4F680F791F0E94272DF8016A
:102CE000808191818E199F099183808381E0D50134
:102CF0008C93F8018081D6018C9381111BC0CD5437
:102D0000DF4F1982188216C08CEA91E00E94C31925
:102D1000892DDF91CF911F910F91FF90EF90DF9060
:102D2000CF90BF90AF909F908F907F905F904F908B
:102D30000C943B1ADF91CF911F910F91FF90EF9070
:102D4000DF90CF90BF90AF909F908F907F905F90DB
:102D50004F9008950C94BE2A0C94B62A6FEB8FEF17
:102D600090E00E94AA1668E780EF90E00E94AA1601
:102D700060E081EF90E00E94AA1664E082EF90E0AC
:102D80000E94AA1663E085EF90E00E94AA166FE108
:102D900083EF90E00E94AA1660E484EF90E00E9426
:102DA000AA1684EB93E00C944B1ACF938FEF90E02C
:102DB0000E94AC16982F91709093EA0281FB99279C
:102DC00090F99093E80282FB992790F99093E90299
:102DD00083FB992790F99093EB0284FB992790F954
:102DE0009093ED0285FB992790F99093030186FB60
:102DF000882780F98093EC0280EF90E00E94AC1667
:102E00008093020182EF90E00E94AC168093EE0264
:102E100085EF90E00E94AC168093F20283EF90E081
:102E20000E94AC16C82F84EF90E00E94AC162C2FA5
:102E3000CC0F330B322F2227280F311D3093F40291
:102E40002093F30281EF90E00E94AC16811101C043
:102E500081E18093B603CF910895CF93C82F80313D
:102E600020F48AEA91E00E94C31960E170E08C2F9F
:102E7000CF910C94B5198F929F92AF92BF92CF923F
:102E8000DF92EF92FF928FB7F894C090DA04D0905F
:102E9000DB04E090DC04F090DD048FBF8091F7014B
:102EA0009091F801A091F901B091FA01C816D906E4
:102EB000EA06FB0628F48091F6018F5F8093F60105
:102EC000C092F701D092F801E092F901F092FA0174
:102ED000A091F601B0E027E339E841E450E00E9418
:102EE000CC2A4B015C01C701B60128EE33E040E07B
:102EF00050E00E94F92BC501B401620F731F841FBB
:102F0000951FFF90EF90DF90CF90BF90AF909F9074
:102F10008F9008950F931F930E94ED1A0091DD0288
:102F20001091DE022091DF023091E002DC01CB0142
:102F3000801B910BA20BB30B82309D47A105B105FD
:102F400080F14B9903C02FEF32E802C021E03DE74A
:102F50008091BF038C38D8F48091BF038F5F80933A
:102F6000BF038091C0036091BE030E94C52B909364
:102F7000C003E091C003F0E0EE0FFF1FEE53FC4FE3
:102F8000318320838091C0038F5F8093C0030E94B0
:102F9000ED1A6093DD027093DE028093DF0290935E
:102FA000E0028091F4019091F5019C012F5F3F4F69
:102FB0003093F5012093F401892B51F48091F301B2
:102FC00091E0980F9093F301811102C00E943B178A
:102FD0002091E701EFE8F3E08491EBE7F3E09491CF
:102FE000E7E6F3E0E491EE2309F43CC0882339F1ED
:102FF000833091F038F48130A9F0823001F584B546
:103000008F7D12C0873091F08830A1F08430B9F400
:10301000809180008F7D03C0809180008F778093A6
:1030200080000DC084B58F7784BD09C08091B00049
:103030008F7703C08091B0008F7D8093B000F0E067
:10304000EE0FFF1FE75AFC4FA591B4913FB7F894DC
:10305000211104C08C919095982302C0EC919E2B75
:103060009C933FBF1092E7011F910F910895CF935A
:10307000DF93C2E0D0E0FE01E25DFC4F6491CE013F
:103080000E94AA162196CB32D105A9F7C0E3D0E061
:10309000C13321F464E881E390E002C060E0CE0136
:1030A0000E94AA162196C833D10591F786EB91E0CC
:1030B000DF91CF910C9466198EBD0DB407FEFDCF44
:1030C0008EB50895CF93DF932A981C99FECF8EE793
:1030D0000E945C18C0E3D0E0CE010E94AC160E94B2
:1030E0005C182196C833D105B9F72A9ADF91CF91A0
:1030F0000895CF93C62F2A981C99FECF0E945C1882
:103100008C2F0E945C182A9ACF9108952A981C99B6
:10311000FECF862B0E945C1880E00E945C182A9AE1
:10312000089560EC84E30C9486182A981C99FECFCD
:103130000E945C181C99FECF2A9A089586E30E948B
:10314000951861E070E080E090E00C94121BE99823
:1031500083E991E190930701809306018091E60154
:1031600081110E949E181092BF031092C103109209
:10317000C0030895CF93DF930E949E18CEEFCF3FF8
:10318000C1F084E30E949518DFEFDC0F8077803177
:1031900041F4C1110EC08AEC91E0DF91CF910C9403
:1031A000661961E070E080E090E00E94121BCD2F74
:1031B000E6CFDF91CF91089581EA92E190930701E4
:1031C0008093060180916900837F84608093690009
:1031D000E99A8091E60181110C94BA180895CF9371
:1031E000DF932A9A88E390E0FC013197F1F72A985F
:1031F0000197F1F72A9A86E590E00197F1F780E3CD
:103200000E9495186AE070E080E090E00E94121B36
:103210002A9880E40E945C18C2E0D0E0CE010E94AF
:10322000AC160E945C182196CB32D105B9F72A9AC8
:1032300080E190E00197F1F70E94621861E070E090
:1032400080E090E00E94121BDF91CF910C94BA189D
:1032500090ED980F9A3070F09FE9980F963010F427
:1032600099EA05C09FEB980F963018F499EC980FE7
:1032700001C0982F892F08951F93CF93DF93C82FF4
:10328000D0E0CE010E94C5190E942819182F12956E
:10329000107FCE0101960E94C5190E942819810F46
:1032A000DF91CF911F910895009769F0FC01019083
:1032B0000020E9F73197AF01481B590BBC0180E4AE
:1032C00092E00C94941180E090E00895CF93DF9306
:1032D0000E945419EC0184E391E00E9454198C0F70
:1032E0009D1FDF91CF9108958F929F92AF92BF92D1
:1032F0000F931F93CF93DF93CDB7DEB7A1970FB690
:10330000F894DEBF0FBECDBF19A2423008F44AE0E8
:103310008E010F5D1F4F842E912CA12CB12CA50185
:1033200094010E94F92BE62FB901CA01015011093D
:10333000EA3014F4E05D01C0E95CD801EC93232B82
:10334000242B252B61F7C8010E945419A1960FB6B2
:10335000F894DEBF0FBECDBFDF91CF911F910F91CB
:10336000BF90AF909F908F900895AB01682F41154B
:10337000510521F480E492E00C942B1270E080E07F
:1033800090E00C9474190C9454192091E50230913A
:10339000E6028217930760F42091E1023091E20285
:1033A0002115310529F0F901E80FF91F80810895F1
:1033B00080E008950F931F93CF93DF938C01C0E0BB
:1033C000D0E0F801EC0FFD1F6491662341F080E42A
:1033D00092E00E942B12892B11F02196F2CFCE01A0
:1033E000DF91CF911F910F910895682F80E492E0B3
:1033F0000C942B12CF92DF92EF92FF92CF93DF9338
:103400006115710559F4682F80E492E0DF91CF9146
:10341000FF90EF90DF90CF900C942B126C01990FDE
:10342000EE08FF086A307105D9F4F7FE17C08DE287
:103430000E94F519EC0166277727CB016C197D09ED
:103440008E099F094AE00E9474198C0F9D1FDF911D
:10345000CF91FF90EF90DF90CF9008954AE001C0A8
:10346000462FC701B601DF91CF91FF90EF90DF901B
:10347000CF900C947419CF93DF936AE070E00E94B0
:10348000B519EC0184E391E00E9454198C0F9D1F43
:10349000DF91CF910895CF93DF930E94DA19EC0169
:1034A00084E391E00E9454198C0F9D1FDF91CF910E
:1034B00008959091300240912E0250912F02973042
:1034C000B1F44115510599F0E0912D026E2F70E095
:1034D0002091330230E02150310962177307BCF5A7
:1034E000EF5FE0932D02F0E0E550FE4F1082A091D7
:1034F00031026A2F70E0292F30E02F5F3F4F261BEB
:10350000370B1216130624F401C0880F2A95EAF728
:10351000E0912D02F0E0E550FE4F2081822B808368
:103520004F5F5F4F50932F0240932E02292F092E99
:10353000000C330B261B370B37FD04C09A1B9093EE
:10354000300203C087E08093300281E0089580E07C
:103550000895CF92DF92EF92FF920F931F93CF9334
:10356000DF936C018B017A014617570720F4812FF6
:103570008A01E62EF82E66E371E0C6010E94F01380
:10358000C091E502D091E6020C171D07E0F4EC169D
:10359000FD0608F4E701E091E102F091E202EC0F90
:1035A000FD1FF08010826091E1027091E202600FD5
:1035B000711FC6010E945B138091E1029091E202AB
:1035C000C80FD91FF882C601DF91CF911F910F91CB
:1035D000FF90EF90DF90CF9008953FB7F8948091DF
:1035E000DF049091E004A091E104B091E20426B5DB
:1035F000A89B05C02F3F19F00196A11DB11D3FBF2B
:10360000BA2FA92F982F8827820F911DA11DB11DB8
:10361000BC01CD0143E0660F771F881F991F4A95B3
:10362000D1F708958F929F92AF92BF92CF92DF927F
:10363000EF92FF926B017C010E94ED1A4B015C013D
:10364000C114D104E104F104F1F00E94ED1ADC018F
:10365000CB0188199909AA09BB09883E9340A105A5
:10366000B10570F321E0C21AD108E108F10888EE33
:10367000880E83E0981EA11CB11CC114D104E10482
:10368000F10419F7DDCFFF90EF90DF90CF90BF905E
:10369000AF909F908F9008951F920F920FB60F9248
:1036A00011242F933F938F939F93AF93BF93809158
:1036B000DA049091DB04A091DC04B091DD04309138
:1036C000DE0426E0230F2D3720F40296A11DB11D44
:1036D00005C029E8230F0396A11DB11D2093DE0428
:1036E0008093DA049093DB04A093DC04B093DD04B0
:1036F0008091DF049091E004A091E104B091E20494
:103700000196A11DB11D8093DF049093E004A09366
:10371000E104B093E204BF91AF919F918F913F91EB
:103720002F910F900FBE0F901F901895CF93DF939E
:10373000CDB7DEB7C059D1090FB6F894DEBF0FBEC2
:10374000CDBF789484B5826084BD84B5816084BD2A
:1037500085B5826085BD85B5816085BD80916E002F
:10376000816080936E001092810080918100826060
:10377000809381008091810081608093810080919D
:1037800080008160809380008091B100846080938C
:10379000B1008091B00081608093B00080917A0088
:1037A000846080937A0080917A00826080937A00AE
:1037B00080917A008E7F80937A0080917A00806871
:1037C00080937A001092C100E0915002F091510272
:1037D00082E08083E0914C02F0914D021082E091F2
:1037E0004E02F0914F0280E1808310925802E091E6
:1037F0005402F091550286E08083E0915202F091EC
:103800005302808180618083E0915202F0915302E3
:10381000808188608083E0915202F0915302808120
:1038200080688083E0915202F091530280818F7D05
:10383000808387E491E00E944B1A5398549A259A0A
:10384000239A2498229A3898409A80E58CBD529801
:103850002A9A2D9A2B9880E090E00E94AC16833330
:1038600039F481E090E00E94AC16813209F437C649
:103870000E94AE1680E090E00E94AC16833311F0F7
:103880000E94371863E380E090E00E94AA1661E28C
:1038900081E090E00E94AA160E94D5168FE391E085
:1038A0000E94DA190E94EF1860E881EF0E948618E2
:1038B000182F8FEF810F8E3F38F08EE291E00E943B
:1038C000DA191092E60107C08AE291E00E94DA1943
:1038D00081E08093E60182E291E00E94DA196AE0D9
:1038E00070E0812F0E94B51986E191E00E94DA19FB
:1038F00060E880EF0E9486180E943B1A8091E601E2
:103900001E821D82882399F08BE992E19C838B8330
:103910008B819C81AD81BE818093BA039093BB0360
:10392000A093BC03B093BD0381E998E112C08BE979
:1039300092E19C838B838B819C81AD81BE8180933E
:10394000BA039093BB03A093BC03B093BD038DE96E
:1039500092E19093B9038093B803529A8091ED025B
:10396000882321F084E091E00E944B1A62E370E02A
:1039700080E090E00E94121B80E180938100109211
:1039800080008CE89CE3909387008093860082E11E
:10399000809381008AE897E19093E5018093E401A8
:1039A00081E080936F006EE571E081EE92E00E940D
:1039B00009138091E601811109C00E94DC188091F1
:1039C000ED02882399F083EF90E00EC060E888E074
:1039D0000E948618823331F460E880E00E948618E5
:1039E0008D3059F38EEA90E00E944B1A9E012F5FB2
:1039F0003F4F29019090E801992009F451C310929A
:103A0000E80180E090E00E94C519803549F483E523
:103A100091E00E944B1A84EE93E00197F1F72FC3D7
:103A20008F3389F581E090E00E94C5198335E9F470
:103A300009ED12E083EEE82E82E0F82EF8016591A0
:103A40007491C2010E94732986ED92E00E94DA19F6
:103A5000C2010E94C31983ED92E00E94DA190E5F41
:103A60001F4FE016F10651F7C0C184EB92E00E94AF
:103A7000DA198091E601882309F4B7C18FEA92E050
:103A80000E94DA19B2C1863501F584E992E00E94FC
:103A9000DA198091E6018823A9F08CE892E00E946F
:103AA000DA1982E391E00E94C319309903C08AE2D7
:103AB00091E002C08EE291E00E94C31986E892E094
:103AC0000E94DA1983E692E0D6C7823589F48091A4
:103AD000E3049091E404009711F487EE94E06AE027
:103AE00070E0A201481B590BCA010E94FA1989C152
:103AF000833509F07FC11B820E94A718A12CB12C2D
:103B0000DD24DA94212C912C51E0C857DF4F5883E3
:103B1000C858D04016E1C12E0BE0802E7724739454
:103B200067E371E0CE0181599F4F0E94F0138091AD
:103B3000E5029091E602A816B90698F40091E10218
:103B40001091E202E1966EAD7FADE197C8018A0D5A
:103B50009B1D0E94492D009721F07C01E01AF10A7B
:103B600003C0EE24EA94FE2CCE0181599F4F0E949F
:103B7000EB138FEFE816F80609F4B6C49FEFA91609
:103B8000B90609F4B1C4C5010E94C519682E809315
:103B90000101C50101960E94C519382E80930001CC
:103BA000A3E56A16A9F0B0E56B120BC0C501029639
:103BB0000E94C5198D3309F09AC485010D5F1F4F0E
:103BC00009C0EDE38E1393C485010E5F1F4F02C041
:103BD00000E010E05701FFEFAF1ABF0A23E56212C1
:103BE0001BC035E0D31609F482C443E4341203C089
:103BF0009924939495CF5DE4351619F082E5381237
:103C00008FCFD394F201CD9CE00DF11D11241182D0
:103C10001082758A912C84CF92E569122BC099206D
:103C200091F0A701B801CE0181599F4F0E94A91AB6
:103C3000CE0181599F4F0E94FE12C857DF4F688303
:103C4000C858D04075C0AFEFDA1609F469CFA701A4
:103C5000B801CE0181599F4F0E94A91ACE01815906
:103C60009F4F0E94FE12F201CD9CE00DF11D112428
:103C7000658B5EC0BFEFDB1609F452CFE0E56E1234
:103C800032C0A80141505109B80162507109CE01FA
:103C900081599F4F0E94A91ACE0181599F4F0E94BE
:103CA000FE12662ECE0181599F4F0E94EB13F8E061
:103CB000F61508F41CC4A701B801CE0181599F4F25
:103CC0000E94A91ACE0181599F4F0E94FE128D9C1D
:103CD000F0011124E60DF11DEE0FFF1FE40DF51D9F
:103CE0007683658325C024E462120CC0F201CD9C6A
:103CF000E00DF11D1124028331E0E31AF108F48292
:103D0000E3820ECF43E4641219C0A701B801CE01CB
:103D100081599F4F0E94A91ACE0181599F4F0E943D
:103D2000FE12F201CD9CE00DF11D11247183608320
:103D3000CE0181599F4F0E94EB13F2CE56E46512DB
:103D4000EFCEC501801B910B97FD01969595879548
:103D5000282E8150853008F0E3CE8091E60188233B
:103D600009F4DECEF12CC8010E94C5190E94281961
:103D7000E82EE29470EFE722C80101960E94C5196F
:103D80000E9428196E2D680F8DE08F0D0E94791802
:103D9000F3940E5F1F4FF21430F3C2CE4091E50250
:103DA0005091E6026091E1027091E20280E492E0BB
:103DB0000E9494112220B9F086E591E00E94DA1960
:103DC0000FE010E0F12CC8010E94AC16E82E0E9412
:103DD0002D176E2D8DE08F0D0E947918F3940F5FD3
:103DE0001F4F2F10F0CF0E94DC1886E391E00E9455
:103DF000661945C1843751F40E943B174AE00E947E
:103E0000741984E391E00E94541939C1883591F402
:103E100081E090E00E94C519813511F40E94A71835
:103E200081E090E00E94C519853409F028C10E9404
:103E3000DC1825C1833409F0A3C081E090E00E9422
:103E4000C519182F873409F095C08BEE91E00E94B8
:103E5000DA198091EA026AE070E090E00E94FA19B3
:103E600086EE91E00E94DA198091E8026AE070E043
:103E700090E00E94FA1981EE91E00E94DA19809197
:103E8000E9026AE070E090E00E94FA198AED91E0A0
:103E90000E94DA198091EB026AE070E090E00E94E3
:103EA000FA1980910301811104C083ED91E00E9411
:103EB000DA198091EC02882321F083EC91E00E94D2
:103EC000DA198AEB91E00E94DA198091ED026AE03A
:103ED00070E090E00E94FA1982EB91E00E94DA19FA
:103EE0006AE070E08091EE020E94B5198091EC02C8
:103EF000882359F084EA91E00E94DA196AE070E0C0
:103F00008091F2020E94B5190DC084E991E00E94EF
:103F1000DA196091F3027091F40280E090E04AE0D7
:103F20000E9474198091B603813151F086E891E0C6
:103F30000E94DA196AE070E08091B6030E94B51918
:103F40008091ED02882309F450CF86E791E00E942A
:103F5000DA196AE070E0809102010E94B51984E7E5
:103F600091E00E94DA196AE070E08CE890E00E942B
:103F7000FA193BCF8CEB810F823008F0BDC232C002
:103F80008735A1F481E090E00E94C519182F833590
:103F900009F02AC482E090E00E94C519833309F039
:103FA00023C48091E601811197C41EC4823709F0B1
:103FB000D4C481E090E00E94C519082E000C990B32
:103FC0000E94122D892B09F454C582E090E00E94D2
:103FD000C519082E000C990B0E94122D892B09F08F
:103FE000FDC447C582E090E00E94C519833509F4FD
:103FF000A3C7853509F487C7833409F487C7823599
:1040000009F066C38BEE92E0E7969FAF8EAFE7971D
:10401000153409F098C781E0E796EEADFFADE7975C
:1040200080836091E802660F8091EA028068682BC5
:104030009091E902B4E09B9FC0011124682B9091FC
:10404000EB0228E0929FF00111246E2B9091ED027B
:1040500030E1939FA0011124642B9091030140E271
:10406000949F90011124622B9091EC0250E4959F53
:10407000C0011124682B8FEF90E00E94AA16809156
:10408000E801811106C066E371E081EE92E00E94D2
:104090005B1380910301882319F081E08093E7018D
:1040A0001092F6021092F502BB24B394B3E0CB2E2B
:1040B000D12C17E0A12E8091BF03882309F40CC2F4
:1040C0008091BF0381508093BF038091C1036091B1
:1040D000BE030E94C52B9093C103E091C10381E010
:1040E0008E0F8093C103F0E0EE0FFF1FEE53FC4FE5
:1040F000808191819093EA018093E90110928D0370
:1041000060918A036623E9F070E0615071098FEFD6
:1041100092E00E94D2148091850390E0880F991F4D
:1041200080569C4F90939B0380939A03E091980351
:10413000F091990380819181909389038093880302
:1041400004C010929B0310929A032091E9013091D0
:10415000EA01E0919803F0919903318320838091E3
:104160008A03882379F0E0919A03F0919B033097BA
:1041700049F04081518142275327952F991F992754
:10418000991F01C091E02115334814F091112EC000
:104190001AE080E00E94200280918A03811105C00C
:1041A00010929B0310929A0306C0115091F787EE6C
:1041B00092E00E9472151092EF021092F00210929B
:1041C000F1022091B103E0919803F091990380816D
:1041D0009181E22FF0E0EE0FFF1FE056FC4F91833C
:1041E00080832F5F2093B103912C27C18E3F90F0E5
:1041F00081E00E9420028091F10281113DC08091F6
:10420000B303811139C040E060E087EE92E00E9484
:10421000101532C0883281F5D0929303C092920378
:104220008091B8039091B903009751F42091BA039B
:104230003091BB03232B21F42091BC0320FF1CC031
:10424000E091BA03F091BB034091BC035091BD03D0
:104250009A013595279540FF0AC0DC01A20FB31FD4
:104260004D915C91E40FF51F0190F081E02D820FDC
:10427000931F09958093B703E0909803F0909903FA
:10428000D7010D911C91B80117FF04C0662777274D
:10429000601B710B072E000C880B990B0E9496294E
:1042A0002DEC3CEC4CE45EE30E94F5290E94912B3E
:1042B000AB0170939103609390038090B003A0EAE8
:1042C000B3E0E7EEF2E0912C8914E1F02D913D91FD
:1042D000B8016227732777FD12C02115310579F0E7
:1042E0008089882361F0C801821B930B97FF03C06C
:1042F000919581959109481759070CF0BFC3939484
:104300003196E2CF99249A948091F102811104C0F0
:104310008091B303882321F082E00E9420028DC0A7
:10432000F8E08F1265C0E091B103F0E0E951FD4F74
:104330008089833058F180919203909193031816ED
:10434000190624F51AE000E08091F602882319F09E
:104350001092F60201E082E00E94200280918A031E
:10436000883230F08091F602882311F0115061F705
:104370001092EF021092F0021092F1020093F602F6
:1043800040E060E087EE92E00E94101510918A03F1
:10439000112371F1E091B103F0E0E951FD4F808903
:1043A000882331F1612F70E0615071098FEF92E045
:1043B0000E94D214909185038091B10398130CC090
:1043C000612F87EE92E00E94BC1540E060E087EE2E
:1043D00092E00E9410150CC0113041F480918A03C4
:1043E0008E3F20F086E093E00E944B1A1150D1F6E8
:1043F0009090B103E0919803F091990380819181AD
:10440000E92DF0E0EE0FFF1FE056FC4F9183808313
:1044100081E0890D883019F08093B10306C01092B5
:10442000B1038093B0031092B3038091B1039091D4
:10443000B003981710F48093B003992D80918103F5
:1044400020917F03309180038730B9F42115310525
:10445000A1F0E0917E036E2F70E04091840350E064
:1044600041505109641775070CF081C3EF5FE09369
:104470007E03F0E0E951FD4F108EA09182034A2F98
:1044800050E0682F70E06F5F7F4F641B750B16164E
:1044900017062CF4992D01C0990F6A95EAF7E0915F
:1044A0007E03F0E0E951FD4F608D962B908F2F5FDA
:1044B0003F4F3093800320937F03282F082E000C5A
:1044C000330B241B350B37FD04C08A1B80938103FB
:1044D000FAC2A0928103F7C20E94E5138BCA83E956
:1044E00090E00E944B1AD8C98B81811158C388E68D
:1044F00091E00E94DA1977CC133509F0D0C067E952
:1045000071E0C2010E94F0138091E5029091E602F1
:10451000059788F00091E1021091E20269817A81A9
:10452000C80104960E94492D009729F0DC01A01BC8
:10453000B10B8D0102C00FEF1FEFC2010E94EB1300
:1045400017FD97C289EDC82E82E0D82EE12CF12C00
:10455000BE2CF60165917491C2010E947329A801D5
:1045600062E070E0CE0181599F4F0E94A91AE59642
:104570008EAD9FADE597892B31F4AA24A394898150
:10458000882369F00BC0B201E1968EAD9FADE19733
:104590000E94392DAA24A394892B09F0A12CCE01C5
:1045A00081599F4F0E94EB13AA2009F45BC0C201FE
:1045B0000E94C3198FEE91E00E94DA194091E50242
:1045C0005091E602B8016F5F7F4FB4E0CE01815990
:1045D0009F4FBB122AC00E94A91ACE0181599F4F3A
:1045E0000E94FE127093F4026093F302CE0181598F
:1045F0009F4F0E94EB136091F40283EF90E00E94C2
:10460000AA166091F30284EF90E00E94AA166091CE
:10461000F3027091F40280E090E04AE00E94741985
:1046200084E391E00E94541937C00E94A91ACE0178
:1046300081599F4F0E94FE12162FCE0181599F4F24
:104640000E94EB13812F0E943B1AF701E25FFE4F9D
:104650008081612F90E00E94AA16B1100FC01093C4
:1046600002011AC0EFEFEE1AFE0AF2E0CF0ED11CE3
:1046700025E0E216F10409F06BCFFBC131E0B31283
:1046800003C01093B60308C042E0B41203C01093F5
:10469000EE0202C01093F2029110F1CCEAC1812F18
:1046A000110F990B0E94122D892B09F4E2C182E0AF
:1046B00090E00E94C519082E000C990B0E94122D43
:1046C000892B09F4D6C18091E60181110DC0D1C1B9
:1046D000843409F41EC48C3409F422C48F3409F0E4
:1046E00097CC2CEE32E023C481E00E943C19182FB5
:1046F00083E090E00E94C5198E3669F484E090E072
:104700000E94C519082F082E000C990B0E94122D2B
:10471000892B09F0BAC01E33A8F41F3210F460E8E8
:1047200001C060EC812F0E948618082F8AE791E073
:104730000E94C319812F0E942D1785E591E00E94E8
:10474000C3199FC01E3349F58BEF91E00E94DA191F
:104750002A981C99FECF8EEF0E945C188E010F5F85
:104760001F4F6E0159E0C50ED11C780180E00E94F8
:104770005C18D7018D937D01CA16DB06B9F72A9A1A
:10478000F80181918F010E942D1787E591E00E9429
:10479000C319C016D106A1F728CB193909F06FCC7F
:1047A00010E0112341F0103111F0103279F487E557
:1047B00091E00E94C31984EF91E00E94DA19812FE1
:1047C0000E942D1781EF91E00E94DA1960E8812F95
:1047D0000E9486180E942D1787E591E00E94C31958
:1047E0001F5F1F32F1F601CB812F110F990B0E9431
:1047F000122D892B09F43DC182E090E00E94C51979
:10480000082E000C990B0E94122D892B09F431C13E
:1048100083E090E00E94C519082E000C990B0E94BD
:10482000122D892B09F425C184E090E00E94C5195E
:10483000082E000C990B0E94122D892B09F419C126
:1048400081E00E943C19182F83E00E943C19082F38
:10485000682F812F90E00E94AA168091E60188239C
:1048600009F40DCC8EEF810F8E3308F008CC602F49
:104870000E94791889E591E00E94C319812F0E9456
:104880002D17802F0E942D17B0CA802F0E94281943
:10489000082F1F3208F0F3CB8AE791E00E94C3197A
:1048A000812F0E942D1783E591E00E94C3190E5FAE
:1048B000802F0E942D1787E991E00E94C319F12CE7
:1048C000F01608F092CA60E8812F8F0D0E948618BA
:1048D0000E942D17F394F4CF83E090E00E94C51955
:1048E000182F082E000C990B0E94122D892B09F409
:1048F000C6CB812F0E94281910E3180F1E3308F031
:10490000BECB812F0E949518F82E61E070E080E008
:1049100090E00E94121B8DE30E949518082F88E1F9
:1049200092E00E94DA19812F0E942D178BE092E00D
:104930000E94DA1960E170E08F2D82958F700E94DD
:10494000B51982E092E00E94DA1960E170E0802FF0
:1049500082958F700E94B51948CA883709F073C0D4
:1049600081E090E00E94C519082E000C990B0E946E
:10497000122D892B09F47DC082E090E00E94C519B8
:10498000082E000C990B0E94122D892B09F471C07E
:104990008091E601882309F46CC081E00E943C19F3
:1049A000F82E00E310E0013321F46F2D81E390E055
:1049B00002C060E0C8010E94AA160F5F1F4F0833B3
:1049C000110589F70E9462188BE492E00E94DA19BF
:1049D0008F2D0E942D178AE392E04DC081E00E9446
:1049E0003C19082F8BE592E00E94DA19802F0E9473
:1049F0002D1783E090E00E94C51910E08E36C9F4AF
:104A000088E592E00E94DA19E12CF12C86E592E02B
:104A10000E94DA19C8018E0D9F1D0E94AC160E94DB
:104A20002D17FFEFEF1AFF0A20E1E216F10471F7EC
:104A3000DCC982E592E00E94DA19C8010E94AC1636
:104A40000E942D17D2C98536A1F481E090E00E9422
:104A5000C519833429F40E94AE160E94D5160FCBD7
:104A60008091E601882329F00E9437180E94EF18F0
:104A700006CB86E292E00E944B1A01CB97FC44CC15
:104A8000092D000F110B00561C4FF8016081718138
:104A90009B01770F440B550BD7018D919C91092EEB
:104AA000000CAA0BBB0B280F391F4A1F5B1FCA0142
:104AB000B90122E030E040E050E00E941B2CF801F8
:104AC00031832083BACC80918A038F5F80938A03DD
:104AD000E0919803F09199038081918190938703ED
:104AE00080938603E92D990CFF0BE951FD4F8089D6
:104AF0008F5F808B8091ED02882369F18091F602AF
:104B0000882349F11091BF0380910201811718F5A4
:104B10008091F502882391F08091EB028823D9F0EF
:104B20008BE193E00E94DA1960E170E0812F0E942E
:104B3000B51989E193E00E94DA190DC085E193E08F
:104B40000E94DA196AE070E0812F0E94B51986E3AD
:104B500091E00E9466198091F602882329F08091E5
:104B600003018111B092E7011092F602A4CA81E01C
:104B700093E00E94DA196AE070E0892D0E94B5196D
:104B800087EF92E00E94DA196AE070E080917E037C
:104B90000E94B51983EE92E00E944B1A99CF809142
:104BA000E6018823B9F08BE30E9495180E949E18B5
:104BB0001EEF1F3F79F085E30E9495180FEF010F5C
:104BC0008077803209F097C1111104C089E391E028
:104BD0000E946619EC961FAEEC97C857DF4F88818C
:104BE000C858D040EC969FADEC97891709F4D6C809
:104BF000312CA6E1A39DC0011124F201E80FF91F99
:104C000020813181232B31F110E09F012B5E3F4F3A
:104C1000C557DF4F39832883CB58D040C258DF4F68
:104C2000F983E883CE57D0403396C357DF4FF983DB
:104C3000E883CD58D040C258DF4F48815981CE57C4
:104C4000D0404E5F5F4FC157DF4F59834883CF58E5
:104C5000D040BEC0C12CDF015596EE96BFAFAEAFBF
:104C6000EE9705969201280F391FC258DF4F3983FE
:104C70002883CE57D040AF014D5F5F4FC058DF4F04
:104C800059834883C058D040CF010296CC57DF4F9C
:104C900099838883C458D040EE96AEADBFADEE97F1
:104CA0008C91C81608F01AC1C058DF4FE881F9810D
:104CB000C058D0400190F081E02DE996FFAFEEAFF3
:104CC000E997CC57DF4FA881B981C458D0400C91E7
:104CD0000E94ED1A3B014C0110E0E996EEADFFADEC
:104CE000E997E017F10770F1C8010E94C5198053D8
:104CF000C258DF4FE881F981CE57D040E80FF11D4F
:104D0000E80FF11DA080B1807501B7FE04C0EE244C
:104D1000FF24EA18FB080E94ED1A6615770588053E
:104D20009905C8F3B7FE02C05A9801C05A9AC70144
:104D3000FF0CAA0BBB0B680E791E8A1E9B1E0F5F11
:104D40001F4FCBCF0E94ED1A661577058805990590
:104D5000C8F3C394A1CF112331F061E070E080E08B
:104D600090E00E94121BC258DF4FE881F981CE57B4
:104D7000D040E080F180C357DF4FA881B981CD5882
:104D8000D0406C90C157DF4FE881F981CF58D040B7
:104D900070800E94ED1A4B015C019701FF0C440BDF
:104DA000550BC058DF4F288339834A835B83C05833
:104DB000D040220F331F441F551FCC57DF4F28838D
:104DC00039834A835B83C458D040671460F41F5F03
:104DD000C557DF4FA881B981CB58D0408C911817A7
:104DE00008F4B9CF7BC0872D90E00E94C5198A33A3
:104DF00014F490E301C097E3891B44E050E0EE9681
:104E00005FAF4EAFEE9798E0C92EA82F880FBB0B6F
:104E1000C757DF4FB983A883C958D040EB968CAEF3
:104E20009DAEAEAEBFAEEB9700E0EC2CF12CC757B9
:104E3000DF4FE881F981C958D040EE22FF220111ED
:104E400004C0E114F10421F405C0E114F10411F4EB
:104E50005A9801C05A9AEB962CAD3DAD4EAD5FAD60
:104E6000EB97C058DF4F88819981AA81BB81C058D8
:104E7000D040280F391F4A1F5B1FEB962CAF3DAF68
:104E80004EAF5FAFEB970E94ED1AEB962CAD3DADA8
:104E90004EAD5FADEB97621773078407950798F3E4
:104EA0000F5F023061F6CC57DF4F88819981AA816C
:104EB000BB81C458D040880E991EAA1EBB1EC69442
:104EC000EE96AEADBFADEE971197EE96BFAFAEAF1B
:104ED000EE97AB2B09F0A2CF739477CF5A98339407
:104EE000D31408F086CEEC96BFADEC97BF5FEC967E
:104EF000BFAFEC9772CE61E070E080E090E00E947E
:104F0000121B102F56CE28EE32E011C049EE52E0AF
:104F100015C0ADEEB2E0E796BFAFAEAFE79778C889
:104F2000E3E0F1E0E796FFAFEEAFE79771C8E796F1
:104F30003FAF2EAFE7976CC84AEE52E0E7965FAFFF
:104F40004EAFE79765C8E796AEADBFADE7971C9249
:104F500068C881EE92E00C94EB13CF93DF93E0E40A
:104F6000F2E01382128288EE93E0A0E0B0E0848346
:104F70009583A683B7838CE191E09183808385EC50
:104F800090E09587848784EC90E09787868780EC13
:104F900090E0918B808B81EC90E0938B828B82EC04
:104FA00090E0958B848B86EC90E0978B868B118EAE
:104FB000128E138E148EEEEBF3E08CE88083118258
:104FC00013821282C7EED2E08FE78093840384E0DD
:104FD00080938203188E10927E03109280031092A9
:104FE0007F0387E08093810380EF80938303E4E96C
:104FF000F3E0F0939903E093980310929B031092CF
:105000009A031092B9031092B8031092BB03109246
:10501000BA031092BD031092BC0311821082CE011C
:105020000E94721581E18093B603188619861A864C
:1050300066E371E081EE92E00E94F0130E94ED1AA7
:105040006093DD027093DE028093DF029093E002B2
:10505000DF91CF9108950F931F93CF93DF93823009
:10506000910510F482E090E0E091E504F091E6040F
:1050700020E030E0A0E0B0E0309719F140815181AC
:105080000281138148175907C8F08417950769F4FE
:10509000109731F012960C93129713961C9327C019
:1050A0000093E5041093E60422C02115310519F0A0
:1050B0004217530718F49A01BD01EF01DF01F8010F
:1050C000DBCF21153105F9F0281B390B24303105D0
:1050D00080F48A819B816115710521F0FB01938326
:1050E000828304C09093E6048093E504FE01329627
:1050F00044C0FE01E20FF31F8193919322503109C6
:10510000398328833AC02091E3043091E404232BAF
:1051100041F420910A0130910B013093E404209373
:10512000E30420910801309109012115310541F472
:105130002DB73EB740910C0150910D01241B350B4A
:10514000E091E304F091E404E217F307A0F42E1BCE
:105150003F0B2817390778F0AC014E5F5F4F2417DB
:10516000350748F04E0F5F1F5093E4044093E3046B
:105170008193919302C0E0E0F0E0CF01DF91CF9105
:105180001F910F910895CF93DF93009709F481C089
:10519000FC01329713821282A091E504B091E604DB
:1051A000109781F420813181820F931F2091E304B5
:1051B0003091E4042817390751F5F093E404E093A3
:1051C000E30467C0ED0120E030E0CE17DF0740F4D4
:1051D0004A815B819E0141155105F1F0EA01F5CF4D
:1051E000D383C28340815181840F951FC817D9078B
:1051F00059F488819981840F951F02969183808349
:105200008A819B81938382832115310529F4F09350
:10521000E604E093E5043DC0E901FB83EA8349919C
:105220005991C40FD51FEC17FD0761F4808191815E
:10523000840F951F0296E901998388838281938167
:105240009B838A83E0E0F0E012968D919C91139706
:10525000009719F0FD01DC01F7CF8D919C9111971A
:105260009D012E5F3F4F820F931F2091E3043091E9
:10527000E4042817390769F4309729F41092E604FA
:105280001092E50402C013821282B093E404A0934A
:10529000E304DF91CF9108951F93FC01992788279C
:1052A000BC01E89411911032E9F3193010F01E306E
:1052B000C8F31B3251F01D3249F4689406C00E94B5
:1052C0007A29610F711D811D911D119110531A30A2
:1052D000B0F33EF490958095709561957F4F8F4F18
:1052E0009F4F1F910895FB01DC0105900D92002056
:1052F000E1F70895592F482F372F262F660F771F74
:10530000881F991F660F771F881F991F620F731FD1
:10531000841F951F660F771F881F991F08950E948D
:10532000D12908F481E00895E89409C097FB3EF480
:1053300090958095709561957F4F8F4F9F4F9923E2
:10534000A9F0F92F96E9BB279395F6958795779560
:105350006795B795F111F8CFFAF4BB0F11F460FF20
:105360001BC06F5F7F4F8F4F9F4F16C0882311F078
:1053700096E911C0772321F09EE8872F762F05C08C
:10538000662371F096E8862F70E060E02AF09A9527
:10539000660F771F881FDAF7880F9695879597F91C
:1053A0000895990F0008550FAA0BE0E8FEEF1616B6
:1053B0001706E807F907C0F012161306E407F50709
:1053C00098F0621B730B840B950B39F40A2661F07D
:1053D000232B242B252B21F408950A2609F4A14020
:1053E000A6958FEF811D811D08950E94082A0C94B7
:1053F0007C2A0E946E2A38F00E94752A20F095239C
:1054000011F00C94652A0C946B2A11240C94B02A88
:105410000E948D2A70F3959FC1F3950F50E0551FA0
:10542000629FF001729FBB27F00DB11D639FAA27F9
:10543000F00DB11DAA1F649F6627B00DA11D661F48
:10544000829F2227B00DA11D621F739FB00DA11D69
:10545000621F839FA00D611D221F749F3327A00D23
:10546000611D231F849F600D211D822F762F6A2FBF
:1054700011249F5750409AF0F1F088234AF0EE0F24
:10548000FF1FBB1F661F771F881F91505040A9F751
:105490009E3F510580F00C94652A0C94B02A5F3F22
:1054A000E4F3983ED4F3869577956795B795F7958D
:1054B000E7959F5FC1F7FE2B880F911D9695879505
:1054C00097F9089599278827089597F99F6780E8A5
:1054D00070E060E008959FEF80EC089500240A9446
:1054E0001616170618060906089500240A941216BF
:1054F0001306140605060895092E0394000C11F4F2
:10550000882352F0BB0F40F4BF2B11F460FF04C09E
:105510006F5F7F4F8F4F9F4F089557FD9058440FF7
:10552000551F59F05F3F71F04795880F97FB991F02
:1055300061F09F3F79F087950895121613061406BF
:10554000551FF2CF4695F1DF08C01616170618064C
:10555000991FF1CF86957105610508940895E89427
:10556000BB2766277727CB0197F90895F999FECFD6
:1055700092BD81BDF89A992780B50895262FF99993
:10558000FECF1FBA92BD81BD20BD0FB6F894FA9A26
:10559000F99A0FBE019608950E940E2BA59F900DBB
:1055A000B49F900DA49F800D911D112408952F92FA
:1055B0003F924F925F926F927F928F929F92AF92A3
:1055C000BF92CF92DF92EF92FF920F931F93CF93F0
:1055D000DF93CDB7DEB7CA1BDB0B0FB6F894DEBF87
:1055E0000FBECDBF09942A88398848885F846E84AD
:1055F0007D848C849B84AA84B984C884DF80EE80F7
:10560000FD800C811B81AA81B981CE0FD11D0FB6FF
:10561000F894DEBF0FBECDBFED010895A29FB0018B
:10562000B39FC001A39F700D811D1124911DB29FD6
:10563000700D811D1124911D08955058BB27AA2774
:105640000E94352B0C947C2A0E946E2A38F00E940E
:10565000752A20F039F49F3F19F426F40C946B2A34
:105660000EF4E095E7FB0C94652AE92F0E948D2A41
:1056700058F3BA17620773078407950720F079F487
:10568000A6F50C94AF2A0EF4E0950B2EBA2FA02DA0
:105690000B01B90190010C01CA01A0011124FF27DF
:1056A000591B99F0593F50F4503E68F11A16F040DA
:1056B000A22F232F342F4427585FF3CF46953795D9
:1056C0002795A795F0405395C9F77EF41F16BA0B9E
:1056D000620B730B840BBAF09150A1F0FF0FBB1F4C
:1056E000661F771F881FC2F70EC0BA0F621F731F95
:1056F000841F48F4879577956795B795F7959E3FF2
:1057000008F0B0CF9395880F08F09927EE0F979582
:10571000879508950E94912B6894B1110C94B02A3A
:1057200008950E94952A88F09F5798F0B92F9927DD
:10573000B751B0F0E1F0660F771F881F991F1AF07C
:10574000BA95C9F714C0B13091F00E94AF2AB1E008
:1057500008950C94AF2A672F782F8827B85F39F007
:10576000B93FCCF3869577956795B395D9F73EF415
:1057700090958095709561957F4F8F4F9F4F0895BD
:105780000E94D12908F48FEF0895991B79E004C095
:10579000991F961708F0961B881F7A95C9F7809570
:1057A0000895AA1BBB1B51E107C0AA1FBB1FA61768
:1057B000B70710F0A61BB70B881F991F5A95A9F7BA
:1057C00080959095BC01CD01089597FB072E16F4A6
:1057D000009407D077FD09D00E94D12B07FC05D09B
:1057E0003EF4909581959F4F0895709561957F4FF8
:1057F0000895A1E21A2EAA1BBB1BFD010DC0AA1F12
:10580000BB1FEE1FFF1FA217B307E407F50720F029
:10581000A21BB30BE40BF50B661F771F881F991FA4
:105820001A9469F760957095809590959B01AC01ED
:10583000BD01CF010895052E97FB1EF400940E9430
:10584000322C57FD07D00E94F92B07FC03D04EF4F1
:105850000C94322C50954095309521953F4F4F4FE9
:105860005F4F089590958095709561957F4F8F4F0C
:105870009F4F08950E940E2BB7FF0895821B930B34
:105880000895EE0FFF1F0590F491E02D0994A0E01C
:10589000B0E0EDE4FCE20C94DB2AEC01009721F48B
:1058A000CB010E942B28B4C0FC01E60FF71F9C011E
:1058B00022503109E217F30708F4A8C0D9010D916D
:1058C0001C91119706171707B0F00530110508F461
:1058D0009BC0C80104978617970708F495C002502B
:1058E0001109061B170B019311936D937C93CF0144
:1058F0000E94C32889C05B01A01AB10A4C01800E26
:10590000911EA091E504B091E604612C712CE12C6C
:10591000F12C109709F446C08D919C911197A81510
:10592000B905B1F56C0142E0C40ED11CCA14DB0408
:1059300078F14C018A189B08640142E0C40ED11C26
:105940001296BC9012971396AC91B5E0CB16D10489
:1059500040F0B282A38391828082D9016D937C93BF
:1059600009C00E5F1F4F800F911FF9019183808343
:10597000EB2DFA2FE114F10431F0D7011396FC93CB
:10598000EE93129741C0F093E604E093E5043CC027
:105990006816790608F43C017D0112960D90BC91C1
:1059A000A02DB7CF8091E3049091E4048816990666
:1059B000E1F466167706C8F4809108019091090118
:1059C000009741F48DB79EB740910C0150910D01A5
:1059D000841B950BE817F907C8F4F093E404E093EF
:1059E000E304F901718360830FC0CB010E942B286F
:1059F0007C01009759F0A801BE010E941E2DCE0126
:105A00000E94C328C70104C0CE0102C080E090E01C
:105A1000CDB7DEB7EEE00C94F72A81E090E0F89481
:105A20000C94163091110C94622A80538A5028F0FD
:105A3000865C806281568650B0F70895FB01DC01D8
:105A400002C001900D9241505040D8F70895681758
:105A5000790768F4FB01DC01E40FF51FA40FB51F03
:105A600002C002900E9241505040D8F708950C9415
:105A70001E2DFB01DC018D91019080190110D9F3DD
:105A8000990B0895FB01DC0101900D920020E1F7D4
:105A90000895FB0151915523A9F0BF01DC014D91FF
:105AA00045174111E1F759F4CD010190002049F06B
:105AB0004D9140154111C9F3FB014111EFCF81E038
:105AC00090E001970895AEE0B0E0E9E6FDE20C94C5
:105AD000E52A0D891E8986E08C831A8309838FEF5E
