:100000000C94B1010C94B82B0C94E52B0C94D901F1
:100010000C94D9010C94D9010C94D9010C94D901F8
:100020000C94D9010C94D9010C94D9010C94D901E8
:100030000C94D9010C94792A0C94D9010C94D9010F
:100040000C94A02A0C94D9010C94B62D0C94E82D94
:100050000C94D9010C94D9010C94D9010C94D901B8
:100060000C94D9010C94D9015369676E616C3A20E4
:10007000002C2073746174653A20002C206D74721A
:10008000756E633A20002C204D43443A20002C200A
:1000900076616C636E743A20002C206D656E643A54
:1000A00020002C206D53746172743A20002C205073
:1000B000756C73653A20462F4C2F464C2F4C5020C0
:1000C000002C20506174744C656E3A20006D4F76A0
:1000D0006572666C6F772673746174653D302100BC
:1000E0002061646444617461206F766572666C6F30
:1000F000772121002062797465636E743D0076611A
:100100006C3D00206D62206E6D20622070726F6306
:1001100020002073746172743D0020627566664D24
:100120006F7665206F766572666C6F772100526519
:100130006164696E672076616C7565732066726FA5
:100140006D20656570726F6D00496E69742065651C
:1001500070726F6D20746F2064656661756C747366
:1001600000636D6420746F206C6F6E6721003B4DDF
:100170006465624669666F4C696D69743D003B6DEC
:10018000634D696E4269744C656E3D003B4D75531D
:10019000706C69745468726573683D005F4D536399
:1001A0006E743D003B4D64656275673D003B4D6676
:1001B000696C743D31003B4C45443D30003B4D7211
:1001C00065643D003B4D433D003B4D553D004D5367
:1001D0003D00556E737570706F7274656420636F47
:1001E0006D6D616E640020746F2050415441424C2B
:1001F0004520646F6E650057726974652000203D6C
:100200002000203A00454550524F4D200063633195
:10021000313031200020557365206F6E65206F6688
:10022000200063637265672077726974652062617C
:10023000636B200073656E64206661696C656400A1
:100240004D443D00636331313031206973206E6F5E
:100250007420636F72726563746C79207365742E99
:1002600020506C6561736520646F20612066616356
:10027000746F72792072657365742076696120638A
:100280006F6D6D616E64206500726563656976658A
:100290007220656E61626C6564005374617274698A
:1002A0006E672074696D65726A6F62005573696E5E
:1002B0006720734649464F002064656C61793120A0
:1002C0000020636869705374617475732000636DF6
:1002D000645374726F626552656720003A20006350
:1002E000637265672000433345203D20000D2E2DAD
:1002F00007D3913D04320000060010B07157C4309E
:1003000023B900070018146C070090876BF856118A
:10031000E92A001F4100000000080002010000035C
:100320000407000000000000000001020408102083
:100330004080010204081020010204081020040477
:10034000040404040404020202020202030303037D
:10035000030300000000250028002B00F029182EC0
:10036000412A11241FBECFEFD8E0DEBFCDBF12E07F
:10037000A0E0B1E0ECE6F5E702C005900D92A638EA
:10038000B107D9F715E0A6E8B2E001C01D92A93384
:10039000B107E1F713E0C0E6D3E004C02297FE0105
:1003A0000E943E35CC35D107C9F70E9483320C94A8
:1003B000A93A0C9400000895DC01ED91FC910190A4
:1003C000F081E02D0994FC01E156FF4F1082FC0101
:1003D000EB53FF4F1082FC01EA53FF4F1082FC01E8
:1003E000158AEC56FF4F1082FC01EB56FF4F10822E
:1003F000FC01EA56FF4F27E02083FC01E955FF4F3F
:1004000011821082FC01E953FF4F2FEF2083FC0182
:100410002083AC0120E030E0FA01EB54FF4F118261
:100420001082FC01E20FF31F15862F5F3F4F4E5FD6
:100430005F4F2830310581F7FC01EE55FF4F1082E8
:10044000FC01EB55FF4F26E930E031832083FC01AE
:10045000EF54FF4F40E050E060E87EE3408351837B
:1004600062837383FC01E056FF4F1082FC01ED555F
:10047000FF4F1082FC01EC55FF4F1082FC01E85346
:10048000FF4F1082FC01E753FF4F21E02083FC0166
:10049000E653FF4F1082FC01EF55FF4F1082089585
:1004A0006F927F929F92AF92BF92CF92DF92EF9224
:1004B000FF920F931F93CF93DF93EC01B62E6C0145
:1004C00083EAC80ED11CD6011C92662309F4D2C05F
:1004D0007E01BFE9EB0EF11CF7014081442309F4D2
:1004E000C9C0242F30E0862F90E0821793072CF1AB
:1004F000461798F46AE171E088E994E00E941230AE
:1005000062E171E088E994E00E9412304AE050E034
:100510006B2D88E994E00E944D31CE01DF91CF919F
:100520001F910F91FF90EF90DF90CF90BF90AF9011
:100530009F907F906F900C94E3018E010B561F4F9C
:10054000D8016C91462F50E04817590708F478C03D
:100550009C0136952795A22EFE01EC56FF4F84177D
:10056000950741F41D8A10821C9287E0FE01EA562D
:10057000FF4F57C0B0FE45C0908080E090E09E01E4
:100580002B5E3F4F7A2D780F7915B0F4A901480FF3
:10059000591FDE01A70FB11D56967C915697729593
:1005A0007F705596BC91A0E1BA9F30011124762945
:1005B000DA017C930196E6CF60FD0EC09E01280F04
:1005C000311DCE01870F911DDC0155968C918295CE
:1005D000807FD90155968C936B19D8016C93262F87
:1005E00030E0C901019797FDC901959587958083F2
:1005F000FE01EA56FF4F60FD02C087E012C083E0B3
:1006000010C04081421B408350E04F5F5F4FCE01DE
:100610004596BC01620F731F0E946E37F8018081FE
:100620008B19808381E0D6018C93F8018081D701FA
:100630008C9381111FC0C155DF4F198218821AC0D7
:100640006AE171E088E994E00E9445304AE050E0B8
:100650006B2D88E994E0DF91CF911F910F91FF906E
:10066000EF90DF90CF90BF90AF909F907F906F9072
:100670000C944D31DF91CF911F910F91FF90EF902E
:10068000DF90CF90BF90AF909F907F906F90089534
:1006900080E090E008950F931F93CF93DF938C0138
:1006A000EB01D7FF04C0662777276C1B7D0B8827DB
:1006B00077FD8095982F0E9496332DEC3CEC4CE40E
:1006C0005EE30E944A340E946833FB01D801AB55B7
:1006D000BF4F6D937C93D801AB53BF4F9C91B80132
:1006E00020E030E0822F291728F5DB01AB54BF4F03
:1006F0004D915C91DA01AC27BD27B7FD16C04115BD
:10070000510599F0D801A20FB31F1D96AC91AA23F1
:1007100061F0DE01A41BB50BAD01B7FF03C051951D
:1007200041955109E417F50734F42F5F3F4F6E5F91
:100730007F4FD8CF8FEFDF91CF911F910F91089509
:10074000FC01E156FF4F7081772309F45DC020E082
:1007500030E0FC01E20FF31F15862F5F3F4F28307A
:100760003105B9F7411102C04FEF470F262F2695EB
:10077000342F369560FF13C0FC01E756FF4F6081B0
:10078000261720F4FC01E20FF11D5589652F6F70CB
:10079000FC01E60FF11D65856F5F65872F5FDC014A
:1007A000A756BF4F3217E8F06C91261720F4FC01D2
:1007B000E20FF11D5589E52FF0E064E0F595E7952E
:1007C0006A95E1F7E80FF91F65856F5F6587652F0B
:1007D0006F70FC01E60FF11D65856F5F65872F5F08
:1007E000E1CF40FD11C0FC01E756FF4F20813217D9
:1007F00020F4FC01E30FF11D55895F70FC01E50F4A
:10080000F11D85858150858708952F923F924F92E3
:100810005F926F927F928F929F92AF92BF92CF9290
:10082000DF92EF92FF920F931F93CF93DF9300D04D
:100830001F92CDB7DEB79B838A831C0147EA240E43
:10084000311CD1011D921C928FEFEA81FB818083C4
:10085000EB53FF4F40814983CA80DB8000E010E00A
:10086000EE24EA94FE2C46015FE9850E911CE98195
:100870000E1708F06AC0C6018B549F4F5C019FEFB2
:10088000E916F90631F5D5018D919C9197FD21C0AE
:10089000EA81FB81E00FF11F658570E080E090E068
:1008A0000E9496332B013C01F401608170E080E0EE
:1008B00090E00E9496332BE734E14EE25EE30E9423
:1008C0004A349B01AC01C301B2010E9446341816A0
:1008D000ACF1D5012D913C9137FD31C0C701880F96
:1008E000991FEA81FB818E0F9F1FFC01EB54FF4F84
:1008F000808191812817390714F5EA81FB81E00F87
:10090000F11F658570E080E090E00E9496332B0136
:100910003C01D4016C9170E080E090E00E9496333D
:100920002BE734E14EE25EE30E944A349B01AC01C6
:10093000C301B2010E94463418160CF478010F5F0F
:100940001F4FB2E0CB0ED11C92CFFFEFEF16FF0688
:1009500051F0AA81BB81EC9281E090E0F10191839A
:10096000808381E001C080E00F900F900F90DF91B5
:10097000CF911F910F91FF90EF90DF90CF90BF909C
:10098000AF909F908F907F906F905F904F903F902F
:100990002F900895FC018FEF83AF84AF85AF86AFB2
:1009A000DF01AD5BBF4F1C92DF01DF961D921C92F1
:1009B000108212AA13AA87E084AB089570E0FC01AC
:1009C00023AD332727FD30956217730751F024AD0F
:1009D000332727FD309581E06217730719F080E017
:1009E000089581E0089570E0FC0125AD332727FDCF
:1009F00030956217730751F026AD332727FD3095E8
:100A000081E06217730719F080E0089581E008958E
:100A10007F928F929F92AF92BF92CF92DF92EF928E
:100A2000FF920F931F93CF93DF9300D01F92CDB708
:100A3000DEB77C0120E330E340E029833A834B8337
:100A4000812C8E010F5F1F4F94E2A92E91E0B92EE9
:100A5000C82CD12CF70182A990E027A9C816D90685
:100A6000ECF4821628F4F701EC0DFD1D808101C025
:100A700080E01F928F93BF92AF921F930F930E94BB
:100A8000BF37B80188E994E00E94453083940F9005
:100A90000F900F900F900F900F90DACF821618F4EE
:100AA000EC0DFD1D708072948FE078221F927F9272
:100AB00089E291E09F938F931F930F930E94BF371A
:100AC000B80188E994E00E944530F70183A9877056
:100AD00081500F900F900F900F900F900F908430D7
:100AE000E8F087A9881618F4EC0DFD1D9080892D7B
:100AF0008F701F928F9389E291E09F938F931F9342
:100B00000F930E94BF37B80188E994E00E944530F6
:100B10000F900F900F900F900F900F900F900F90DD
:100B20000F90DF91CF911F910F91FF90EF90DF9089
:100B3000CF90BF90AF909F908F907F900895FC01D1
:100B400044A973A9473091F4772381F052A9252F46
:100B500030E087A990E001972817390774F581E004
:100B6000850F82ABDF01A80FB11D1C9255A9252F5F
:100B700030E0842F90E00196821B930B1816190623
:100B800024F401C0660F8A95EAF782A9DF01A80F55
:100B9000B11D8C91862B8C937F5F73AB842F99272B
:100BA00087FD9095821B930B97FD03C0451B44ABBB
:100BB00002C087E084AB81E0089580E00895CF9380
:100BC000FC01EE57FF4FC081C69F9001C79F300DBB
:100BD0001124A90173E0569547957A95E1F7FC0138
:100BE000EC57FF4FE0814E1720F5FC01E40FF11D9B
:100BF000DC01AD57BF4F4C9150E02770332702C046
:100C0000559547952A95E2F72081242330E048E066
:100C10004C1BC69F602D11246770461B02C0359582
:100C200027954A95E2F7FC01EB57FF4F2083822F6F
:100C300001C08FEFCF9108952F923F924F925F9214
:100C40006F927F928F929F92AF92BF92CF92DF92DC
:100C5000EF92FF920F931F93CF93DF93CDB7DEB741
:100C600069970FB6F894DEBF0FBECDBF998F888FFE
:100C700040E060E00E94A003812C1B82488D598DCA
:100C80004B535F4F5D874C87688D798D6F547F4FD5
:100C90007F876E87888D998D81569F4F998B888B22
:100CA000A88DB98DA656BF4FBB8BAA8BE88DF98D49
:100CB000E956FF4FFD8BEC8B488D598D47565F4FA2
:100CC0005F8B4E8B282C312CEC85FD85808190E04C
:100CD0000197281639060CF02BC1E88DF98DE20D2D
:100CE000F31DCF010D962585222309F41FC19924F8
:100CF0009394980C9101220F331F688D798D260FE4
:100D0000371FD901AB54BF4FBF83AE839987888704
:100D1000BB87AA87AC85BD858C91981608F006C163
:100D2000092D10E0E88DF98DE00FF11FFA83E983BA
:100D30008585882309F4F8C0AE81BF81AD90BC9051
:100D4000F801EE0FFF1FFD83EC83488D598DE40FF2
:100D5000F51FEB54FF4F808191819C012A253B2593
:100D600037FDE2C0AE85BF85CD90DD90ED90FC9063
:100D70008C010A191B0917FF03C011950195110970
:100D800097FF03C0919581959109BC01882777FD54
:100D90008095982F0E949633A70196010E944A34AD
:100DA0002B013C01B7FE03C0B194A194B108B50179
:100DB000882777FD8095982F0E949633A70196018A
:100DC0000E944A349B01AC01C301B2010E949332DC
:100DD00020E030E040E05FE30E944A340E94633349
:100DE000601771070CF4A0C0B12CA12C69807A8027
:100DF000BDE06B0E711CE88CF98CE5E1EE0EF11C88
:100E0000088D198D08561F4F78E0C72ED12CA88960
:100E1000B9898C91B81608F045C0F3018081A816F5
:100E200008F040C06B2D70E0C7010E94DF05AA8961
:100E3000BB898C91891134C0EC89FD898081482F50
:100E400050E0B89EC00111249C0163E036952795BF
:100E50006A95E1F7AE89BF896C91261700F5E88D98
:100E6000F98DE20FF11DD8012C9130E087709927A0
:100E7000082E02C0359527950A94E2F7209535890A
:100E80002323B601641B750BAB01481B590BC10131
:100E900002C0880F991F4A95E2F7282B258BA3944F
:100EA000B394B5CFA885B985DC90E981FA81C58472
:100EB000EA85FB85A081B1810C811D81488D598D0A
:100EC000040F151F0B541F4FF801E080F180ED2D2A
:100ED000F0E09F010E94B1342B013C014C2D50E009
:100EE0009A01D7010E94B134460E571E681E791E22
:100EF0004E0F5F1F9A01442737FD4095542FC301C1
:100F0000B2010E940E35AA85BB852D933C93DC0C63
:100F1000E885F985D082A981BA811D961C92F801D5
:100F200011821082F1E0FB839394F4CE8394CACEB5
:100F30008B8169960FB6F894DEBF0FBECDBFDF91EF
:100F4000CF911F910F91FF90EF90DF90CF90BF90C6
:100F5000AF909F908F907F906F905F904F903F9059
:100F60002F9008959F92AF92BF92CF92DF92EF920F
:100F7000FF920F931F93CF93DF93EC0161E471E035
:100F800088E994E00E9445307E0187ECE80EF11C70
:100F9000F701808187FD4CC0880F990B8C0F9D1F36
:100FA000FC01EB54FF4F608171814AE050E088E919
:100FB00094E00E94193168E471E088E994E00E94AD
:100FC0004530F7018081880F990B8C0F9D1FFC0124
:100FD000EB54FF4F60817181882777FD8095982FB2
:100FE0000E9496336B017C018881880F990B8C0FCE
:100FF0009D1FFC01EB54FF4F60817181882777FDB5
:101000008095982F0E9496339B01AC01C701B601D1
:101010000E94FB32AB01BC0122E030E088E994E0A1
:101020000E947D3267E571E088E994E00E944530D6
:1010300069E571E088E994E00E944530888187FD88
:1010400010C0880F990B8C0F9D1FFC01EB54FF4FB4
:10105000608171814AE050E088E994E00E94193192
:1010600006C062E671E088E994E00E94453061ECD8
:1010700070E088E994E00E9412307E01F5ECEF0EFA
:10108000F11C4AE050E0F701608188E994E00E9499
:10109000463167E671E088E994E00E9445304AE015
:1010A00050E0FE01EA53FF4F608188E994E00E941E
:1010B00046316AE671E088E994E00E9445306DEAC5
:1010C00070E088E994E00E941230FE01E355FF4F82
:1010D0000190F081E02D608171814AE050E088E963
:1010E00094E00E9419316CE671E088E994E00E9476
:1010F0004530FE01E155FF4F0190F081E02D608108
:1011000071814AE050E088E994E00E9419316CE670
:1011100071E088E994E00E944530FE01E556FF4FFA
:10112000608171814AE050E088E994E00E941931C1
:101130006CE671E088E994E00E944530FE01E356D8
:10114000FF4F608171814AE050E088E994E00E949D
:10115000193162EA70E088E994E00E9412304AE0B6
:1011600050E0FE01E056FF4F608188E994E00E9464
:10117000463169E970E088E994E00E9412304AE063
:1011800050E0FE01EF55FF4F608188E994E00E9436
:1011900046316EE870E088E994E00E9412304AE03F
:1011A00050E0FE01EB56FF4F608188E994E00E9419
:1011B000463166E870E088E994E00E941230FE0152
:1011C000E853FF4F608170E04AE050E088E994E026
:1011D0000E9419316BE770E088E994E00E941230B8
:1011E000FE01ED55FF4F608170E04AE050E088E974
:1011F00094E00E94193161E770E088E994E00E9470
:101200001230FE01E955FF4F608171814AE050E0E4
:1012100088E994E00E94193188E994E00E944E30F8
:1012200068E670E088E994E00E941230912C6E012B
:10123000FFE9CF0ED11C5E0185E1A80EB11C8E0125
:1012400006561F4FF6018081981690F4692D70E0C4
:10125000C5010E94DF05F8016081772767FD709561
:101260004AE050E088E994E00E9419319394EACF73
:101270006FE671E088E994E00E94453062E771E032
:1012800088E994E00E9445304AE050E0F601608130
:1012900088E994E00E94463165E771E088E994E0CE
:1012A0000E94643067E771E088E994E00E9445306D
:1012B00010E0F7018081181708F040C061E871E084
:1012C00088E994E00E9445304AE050E0612F88E9C7
:1012D00094E00E94463165E471E088E994E00E9460
:1012E0004530C12ED12CFE01EC0DFD1D4AE050E031
:1012F000658588E994E00E94463164E871E088E9F8
:1013000094E00E944530C601880F991F8C0F9D1FE5
:10131000FC01EB54FF4F608171816115710531F063
:101320004AE050E088E994E00E94193165E771E0F5
:1013300088E994E00E9445301F5FBBCF67E772E009
:1013400088E994E00E94643067E772E088E994E0FD
:10135000DF91CF911F910F91FF90EF90DF90CF9091
:10136000BF90AF909F900C9464302F923F924F9219
:101370005F926F927F928F929F92AF92BF92CF9225
:10138000DF92EF92FF920F931F93CF93DF93EC01C5
:101390001C0187EA280E311CF1018081918101979F
:1013A00031F0C953DF4F8FEF888380E0ABC07E01FF
:1013B000FFE9EF0EF11CF7012081822F90E08C38BD
:1013C000910524F448ED842E820E02C034E6832E6B
:1013D000FE01EB53FF4F90809A946E01F5E1CF0E22
:1013E000D11C5E018AE9A80EB11C97FCDACF092D49
:1013F000112707FD1095FE01E00FF11F45854423DD
:1014000009F47CC0C801880F991F8C0F9D1FFC0137
:10141000EB54FF4F2081318137FF70C0319521950A
:1014200031092836E2E43E0708F068C08881880F59
:10143000990B8C0F9D1FFC01EB54FF4F0190F08125
:10144000E02DC901BF010E94C4346333710508F067
:1014500055C086E08E9FB0018F9F700D11246217DA
:10146000730708F04BC0642F70E080E090E00E94AA
:1014700096332B013C01F701608170E080E090E041
:101480000E9496332AE037ED43EA5DE30E944A3436
:101490009B01AC01C301B2010E94F73287FF2EC04D
:1014A000612C712C681450F52301FFEF4F1A5F0A6D
:1014B000B201C6010E94DF05F501808190E080172E
:1014C0009107F1F4B301C6010E94DF05F501208107
:1014D00030E08881992787FD90952817390781F496
:1014E000FE01E953FF4F908282E090E0F101918389
:1014F0008083C056DF4F688281E004C09A9475CF24
:101500003201D0CFDF91CF911F910F91FF90EF90DB
:10151000DF90CF90BF90AF909F908F907F906F9013
:101520005F904F903F902F9008959F92AF92BF92FF
:10153000CF92DF92EF92FF920F931F93CF93DF939F
:10154000EC01FC01EB53FF4F90809A945C0185E124
:10155000A80EB11C6E01EAE9CE0ED11C97FC37C073
:10156000E92CFF24E7FCF094C701880F991F8C0F2A
:101570009D1FFC01EB54FF4F2081318137FF03C0D9
:101580003195219531098A859B8528173907E8F01F
:10159000FE01EE0DFF1D85858823B9F0813099F499
:1015A00000E010E0B801C5010E94DF05F60180816E
:1015B00090E08E159F0549F00F5F1F4F0A3011050F
:1015C00089F781E005C08830E0F39A94C7CF80E0C6
:1015D000DF91CF911F910F91FF90EF90DF90CF900F
:1015E000BF90AF909F9008952F923F924F925F923D
:1015F0006F927F928F929F92AF92BF92CF92DF9223
:10160000EF92FF920F931F93CF93DF93EC0189AD7D
:101610009AADFC01ED55FF4F1082FC01E056FF4FE3
:101620001082712C66246394332433947E0122E467
:10163000E20EF11C6E0133E4C30ED11C5E0181E4A5
:10164000A80EB11C87E0282E29AD3AAD462D50E0FA
:10165000F901E156FF4F808190E04E9748175907F6
:101660000CF097C1F901E753FF4F3082062D10E0CF
:1016700089AC9AACF401E156FF4F808190E001976C
:10168000081719070CF04BC0B801C40145960E9419
:10169000DF05F401E656FF4F8080912C8CAD992731
:1016A00087FD90958816990671F18BAD992787FD76
:1016B00090958816990609F06DC149AC5AACB801ED
:1016C00061507109C20145960E94DF05F201E6569C
:1016D000FF4F8081480E511C480E511CD201AB5463
:1016E000BF4F89AD9AAD2CAD220F330B820F931FE4
:1016F000FC01EB54FF4F2D913C9180819181821729
:1017000093070CF447C18CAD992787FD90957724FA
:1017100073948816990609F0712CF701608229AD3F
:101720003AADF901E156FF4F808190E0019708172B
:1017300019072CF0F901E753FF4F10821EC1672DE6
:10174000CE010E949F05E9ADFAADE056FF4F2FEFA5
:10175000208389AC9AACB80161507109C4014596E7
:101760000E94DF05F401E656FF4F6081CE010E9422
:10177000F3048823B1F16A9431E0361590F5862C94
:10178000912C09AD1AADB40162507109C80145969A
:101790000E94DF05F801E656FF4F6081CE010E94EE
:1017A000F304F40131974F01882309F4F5C009AD22
:1017B0001AADBF01C80145960E94DF05F801E65643
:1017C000FF4F6081CE010E94F304882309F4E4C036
:1017D0006A946A94672DCE010E949F05F1E0F61588
:1017E00070F2E9ADFAADE056FF4F80818F3F09F40A
:1017F0006082F7016080F601308209AD1AADF80110
:10180000E156FF4F8081681608F097C0862C912C16
:10181000B401C80145960E94DF05F801E656FF4F66
:101820005080652DCE010E94DE04882311F07324C0
:101830007EC009AD1AADF801E156FF4F808190E0FE
:101840000197881699060CF078C0652D70E071102C
:1018500037C08DAD992787FD90956817790709F0F6
:101860006CC0FFEF8F1A9F0AB401C80145960E9411
:10187000DF05F801E656FF4F208130E08EAD992755
:1018800087FD90952817390709F450C009AD1AADA6
:10189000B401C80145960E94DF05F801E656FF4FE6
:1018A000208130E08CAD992787FD90952817390766
:1018B00009F043C0E9ADFAADE753FF4F10823DC0D8
:1018C0008EAD992787FD90956817790761F52FEF01
:1018D000821A920AB401C80145960E94DF05F801F8
:1018E000E656FF4F208130E08DAD992787FD90951A
:1018F00028173907D9F009AD1AADB401C8014596CA
:101900000E94DF05F801E656FF4F208130E08BADE5
:10191000992787FD90952817390729F4E9ADFAAD85
:10192000E753FF4F10827724739407C06394639446
:10193000672DCE010E949F0560CF89AD9AADFC0155
:10194000E156FF4F2081621608F463944BA950E0E2
:10195000F5012081332727FD3095FC0142175307FD
:101960009CF4E653FF4F2081211109C0F8E2F615DF
:1019700030F4FC01E056FF4F608280E02AC01882FC
:101980001AAA1BAA2CAA60CEEF55FF4F608281E0F5
:1019900020C01FC063946ACE09AD1AADB401C8015E
:1019A00045960E94DF05F801E656FF4F208130E0A2
:1019B0008EAD992787FD90952817390709F011CF2B
:1019C000E9ADFAADE056FF4F6A946A946082612CEB
:1019D00001CFDF91CF911F910F91FF90EF90DF909A
:1019E000CF90BF90AF909F908F907F906F905F90BF
:1019F0004F903F902F9008952F923F924F925F9279
:101A00006F927F928F929F92AF92BF92CF92DF920E
:101A1000EF92FF920F931F93CF93DF93CDB7DEB773
:101A2000E5970FB6F894DEBF0FBECDBF8C01DC0189
:101A3000D996AD90BC90DA97F501EB53FF4F9080AB
:101A4000B3E0B91510F080E0E8C2F501E156FF4FB0
:101A5000608170E080E090E00E9496332AE037EDEC
:101A600043E25DE30E944A346B017C0120E030E0F8
:101A7000A9010E94463420E030E040E05FE387FDAA
:101A800005C0C701B6010E94933204C0C701B60168
:101A90000E9492320E946333A50180E090E01B8E89
:101AA000782FF501E80FF91F2585261788F1DB8CC3
:101AB0003A01E5EB6E0E711CED2DF0E0DD20F1F04A
:101AC0009E012E0F3F1FD901CC9095012C0D311D89
:101AD0002C0D311D2B543F4FD301ED90FC90D901BB
:101AE0002D913C91E216F3064CF421E030E02C0FEE
:101AF0003D1FE20FF31FC082DA94DECF21E030E019
:101B00002C0F3D1FE20FF31F70833B8D3F5F3B8F18
:101B100001964E5F5F4F891518F2AE014F5F5F4F20
:101B20005A8B498B5AA349A3D801AF5BBF4FBAA7C1
:101B3000A9A7F801ED5BFF4FFE8FED8F9E01235F9C
:101B40003F4F3C8B2B8BAE01475F5F4F5E8B4D8BC6
:101B5000CE014196988F8F8BF989F9AB89A18F1BA4
:101B60003B8D831708F06FCFD801D9964C91D99748
:101B7000DA963C91DA97E9A1FAA12191FAA3E9A3B7
:101B8000842F932F820F911D820F911DFC01EB5426
:101B9000FF4F8081918118161906F4F68FEFDB96BE
:101BA0008C93DB97DC968C93DC97DD968C93DD979A
:101BB000DE968C9320803180C10137FC01969C0118
:101BC000359527953CA72BA7AE014F5F5F4F5CA3D0
:101BD0004BA318A21F8E8FEF9FEF9A8F898F9101D1
:101BE000442737FD4095542F2AAB3BAB4CAB5DAB44
:101BF0008BA1B9A98B1BEB8D8E1708F0ADCFABA1D4
:101C0000BCA19D90BCA3ABA3F80131AD22AD832F45
:101C1000922F890D911D890D911DFC01EB54FF4FF1
:101C2000E080F1806AA97BA98CA99DA90E949633C6
:101C30002B013C015701F7FE04C0AA24BB24AE18B7
:101C4000BF08CBA4DCA4CA18DB08D7FE03C0D1941C
:101C5000C194D1082DEC3CEC4CE45EE3C301B2012D
:101C60000E944A340E9463336C157D050CF0AAC1B2
:101C70006101CA18DB08D7FE03C0D194C194D10812
:101C80002DEC3CEC4CEC5EE3C301B2010E944A3403
:101C90000E94633321E06C157D050CF420E01E14D6
:101CA0001F040CF4A2C1222309F4A2CFF80193AEC1
:101CB000F8A1FF5FF8A3298D3A8D2E193F093A8FBD
:101CC000298FD801DB968C91DB978F3F09F490CF59
:101CD000DD968C91DD978F3F09F48ACFDC968C914D
:101CE000DC978F3F09F484CFDE968C918F3F09F407
:101CF0007FCF8FEF8D878E878F87888B89878A87A5
:101D00008B878C87E1E0F0E0FEA3EDA3A12CB12C42
:101D100077247A94D801D996ED90FC90DA97F70160
:101D2000E156FF4F808190E0A816B9060CF060CF15
:101D3000B501C70145960E94DF05F701E656FF4F42
:101D4000F0806F2DC8010E94DE04D801D996CD9095
:101D5000DC90DA97811107C06F2DC8010E94F3044F
:101D6000882309F457C0F601E156FF4F808190E0C7
:101D70000197A816B90609F44DC0AD8DBE8D8C91A2
:101D8000811108C0F601E056FF4FA082E1E0AD8D61
:101D9000BE8DEC93D801D996CD90DC90DA976DA1E9
:101DA0007EA1C60145960E94DF05F601E656FF4F6B
:101DB0004081BAE0FB9E400D11244A3008F44C5992
:101DC000A0FE03C09D898E8902C09B898C89E92F62
:101DD000F82F50E0842F90E06081262F332727FDD5
:101DE00030952817390719F06F3F19F44083252FD4
:101DF00001C02FEF5F5F543019F031962F3F61F330
:101E0000EFEFAE1ABE0A2DA13EA12F5F3F4F3EA3BA
:101E10002DA380CFF601E056FF4F80819501281B4E
:101E20003109E9A5FAA58081992787FD9095821748
:101E300093070CF0C3C0F601EF55FF4FA082F801E5
:101E400081AD92ADDC01AF55BF4FFC01E056FF4FB5
:101E50004C9160810E94A003D801D9968D919C91EC
:101E6000DA97DE964C90DE97DC965C90DC97DD96F8
:101E70006C90DD97DB96BC91BC8FFC01E40DF11DED
:101E800047FCFA952585FC01E50DF11D57FCFA95F7
:101E90008584912C820E911CFC01E60DF11D67FCDE
:101EA000FA952585821A9108FC01EB0FF11DB7FD0B
:101EB000FA952585AD8DBE8D1C92821A910897FEEC
:101EC00003C09194819491089401442737FD409573
:101ED000542F2DA73EA74FA758ABFC01E156FF4F4B
:101EE0008081482F50E058A74FA3BA01882777FD7B
:101EF0008095982F0E9496332AE037ED43E25DE308
:101F00000E944A346B017C0120E030E0A9010E946C
:101F1000463420E030E040E05FE387FD05C0C701C4
:101F2000B6010E94933204C0C701B6010E949232EA
:101F30000E9463332DA53EA54FA558A962177307CC
:101F4000840795070CF454CE38A14F8D341350CE2E
:101F50005C8D551509F44CCE641409F449CE561520
:101F600009F446CE541409F443CE541509F440CE76
:101F7000561409F43DCEFE013D96DE01199681917D
:101F80009D918917C9F19F3F11F08F3FA9F52FA1AE
:101F900038A52A193B09A9A5BAA58C91992787FDCF
:101FA0009095821793070CF023CE7D8679867E86E6
:101FB0007A867F867B86788A7C8622CFED8DFE8D21
:101FC0001082E8CED8011E141F041CF0DD969C92EE
:101FD0006FCEDE969C92BF8DBF5FBF8FE98DFA8D6D
:101FE000EE0DFF1DFA8FE98F6CCE222309F400CE8F
:101FF000D801DC969C92EFCF2F89388DE217F3073A
:1020000009F0BDCFF801FF96898D9A8D66E070E0EA
:102010000E94D8347183608381E0E5960FB6F8940E
:10202000DEBF0FBECDBFDF91CF911F910F91FF900B
:10203000EF90DF90CF90BF90AF909F908F907F9068
:102040006F905F904F903F902F9008952F923F9206
:102050004F925F926F927F928F929F92AF92BF92B8
:10206000CF92DF92EF92FF920F931F93CF93DF9364
:10207000CDB7DEB72C970FB6F894DEBF0FBECDBF3D
:102080009C878B87962E8D559F4F9A8389836623D5
:1020900029F081E0A981BA818C9303C0E981FA819A
:1020A00010822B853C8528533F4F3E832D83D901D9
:1020B0008C912B853C8521563F4F3901811105C0FC
:1020C000D9018C91883208F4B5C72B853C852E55F3
:1020D0003F4F3C832B83D9011C922B853C852C558B
:1020E0003F4F38872F8381E0D3019C919E3F09F0B9
:1020F00080E0EF81F88580838B859C850E941C069B
:102100002B843C84F7EA2F0E311CD1011D921C92C6
:10211000EB85FC858085882309F44CC08F0100562F
:102120001F4FD8011C927F01B5E1EB0EF11C6F012E
:10213000EAE9CE0ED11CAB84BC84F7ECAF0EB11C27
:10214000F80160816A3050F570E06F5F7F4FC70122
:102150000E94DF05D6012C9130E0F501808199279E
:1021600087FD90952817390709F085C7D8016C912C
:1021700070E0C7010E94DF05F601208130E0AB85E9
:10218000BC858C91992787FD90952817390709F010
:1021900072C782E090E0D1018D939C93D1018D9123
:1021A0009C91892B99F4EB85FC85108640E060E0DA
:1021B000CF010AC0AB85BC8519968C9119978823ED
:1021C00029F040E060E0CD010E94A003F101808190
:1021D0009181892B21F48B859C850E940504D10176
:1021E0008D919C91019771F4EB85FC858381882307
:1021F00049F0E653FF4F8081811104C08B859C8597
:102200000E94B509D1018D919C91029709F0EBC212
:10221000F3018081883208F4E6C20B851C850F55D6
:102220001F4FAB84BC84F0EAAF0EB11CD5018C917A
:102230008E5FF8018083CB84DC84F5E1CF0ED11C66
:10224000EB84FC842AE9E20EF11C4B845C8437ECBD
:10225000430E511CD8016C9170E0F501808190E033
:1022600009968617970754F16F5F7F4FC6010E944A
:10227000DF05D7012C9130E0F2018081992787FD9D
:1022800090952817390709F0FBC6D8016C9170E0CA
:10229000C6010E94DF05F701208130E0AB85BC85D7
:1022A0008C91992787FD90952817390709F0E8C682
:1022B000D8018C91F50180838E5F8C93CB84DC8474
:1022C000B5E1CB0ED11CEB84FC84EAE9EE0EF11CE7
:1022D0004B845C84F7EC4F0E511CF801608170E078
:1022E000D3018C9190E00197681779072CF56F5F07
:1022F0007F4FC6010E94DF05D7012C9130E0F2012B
:102300008081992787FD90952817390709F0BDC668
:10231000D8016C9170E0C6010E94DF05F7012081B1
:1023200030E0AB85BC858C91992787FD9095281767
:10233000390709F0AAC6AEC6512CF3018081D80135
:102340009C91891710F0511003C08150F8018083CF
:10235000D8014C91F50160818B859C850E94A0037A
:10236000D5016C91552041F0F801808190E0861BE9
:10237000910988978CF437C2D3012C91822F90E079
:10238000861B910988970CF42EC22E3F08F00BC2D1
:10239000B2E09B1609F407C2EB85FC859085878126
:1023A000981708F0A2C18481EB53FF4F7F0162E0D0
:1023B000882309F4CAC088E994E00E94473067E89E
:1023C00071E088E994E00E9445306BE388E994E08D
:1023D0000E94473020E0D7018C91281708F041C0B7
:1023E000422F50E0CA01880F991F6B857C85860FAC
:1023F000971FFC01EB54FF4FC080D180C114D10462
:1024000071F1FB01E40FF51F8585882341F1622FEF
:10241000D7FE05C0606AD194C194D10801C060683C
:102420004C2CC7FC04C07C2D7068472E01C0606135
:1024300088E994E02A870E94EF2C642D88E994E0D3
:102440000E94EF2C6D2D606870E088E994E00E9496
:10245000DC016BE388E994E00E9447302A852F5F16
:10246000BACFF801808180FF03C06AE871E002C042
:1024700063EE71E088E994E00E944530D5018C91CB
:1024800080FF18C081508C938695EB85FC85E756BC
:10249000FF4F9081891728F4EB85FC85E80FF11D2B
:1024A0008588682D88E994E00E94EF2CF5018081F1
:1024B0008E5F8083D501DC90EB84FC84B9E9EB0E60
:1024C000F11CD8018C918D1598F08D2D8695F70112
:1024D0009081891728F4EB85FC85E80FF11D85882C
:1024E000682D88E994E00E94EF2CD394D394E9CF2F
:1024F0006BE388E994E00E9447306DEA71E088E977
:1025000094E00E944530EB85FC856081772767FD6C
:10251000709540E150E088E994E00E9419316BE346
:1025200088E994E00E9447306DE871E088E994E022
:102530000E944530EB85FC85E953FF4F608177278A
:1025400067FD709540E150E09EC088E994E00E94EC
:1025500047306CE871E088E994E00E9445306BE315
:1025600088E994E00E944730812CD7018C9188162D
:10257000C8F5882D90E06C01CC0CDD1C2B853C85CA
:10258000C20ED31E35EBC30ED11CD6012D913C914A
:10259000232B31F1EB85FC85E80FF91F8585882316
:1025A000F9F060E588E994E00E9447304AE050E0A5
:1025B000682D88E994E00E9446316DE388E994E053
:1025C0000E944730F601608171814AE050E088E95D
:1025D00094E00E9419316BE388E994E00E9447304F
:1025E0008394C3CF6FE871E088E994E00E9445309E
:1025F000F5018080CB84DC84F5E1CF0ED11CEB8427
:10260000FC842AE9E20EF11CF8018081881578F03B
:10261000682D70E0C6010E94DF054AE050E0D70156
:102620006C9188E994E00E9446318394EDCF6BE38E
:1026300088E994E00E94473062E971E088E994E01B
:102640000E944530AB85BC856C91772767FD7095FE
:102650004AE050E088E994E00E9419316BE388E990
:1026600094E00E94473066E971E088E994E00E94B6
:102670004530EB85FC85E953FF4F6081772767FD87
:1026800070954AE050E088E994E00E9419316BE3CC
:1026900088E994E00E944730EF81F88580818823A3
:1026A00059F06AE971E088E994E00E9445306BE3F3
:1026B00088E994E00E944730AB85BC8515968C91E3
:1026C000882399F0911003C069EC71E005C0B2E075
:1026D0009B120BC06CE971E088E994E00E944530E0
:1026E0006BE388E994E00E944730E981FA81108227
:1026F000AB85BC8518968C91511002C08823D1F10E
:10270000EB85FC8595819923C1F097818917A8F401
:102710006EE971E088E994E00E9445304AE050E0BB
:10272000AB85BC8518966C9188E994E00E9446318F
:102730006BE388E994E00E944730EB85FC852085B7
:102740002F5F20875520B1F0911009C0D3018C91E3
:1027500090E0F8013081831B910988975CF0222377
:1027600049F0D8016C916F5F8B859C850E94500267
:10277000F5011082AB85BC8518969C911897179629
:102780008C91891758F063E088E994E00E94473003
:1027900066E772E088E994E00E94453081E0EB85CD
:1027A000FC8584871CC0662399F0D8018C9190E049
:1027B0008D3F91056CF0911004C0E981FA8110827F
:1027C0000EC08B859C850E945002D5011C9207C0CB
:1027D000B2E09B1621F08B859C850E94E30181E08D
:1027E000EB81FC818083AB81BC818C91811108C419
:1027F000EB85FC8591818281911103C0882309F4C6
:10280000FFC3882309F491C1D1018D919C91029756
:1028100009F48BC18091CA0281112DC082E380939B
:10282000BD0211E01093BB02109286021092B80212
:102830001092B90287E08093BA0280E88093BC02CC
:102840008FEF8093C1028093C2028093C302809372
:10285000C4021092C9022B853C853093C00220939C
:10286000BF0286E892E00E94CA041093CA028BED70
:1028700091E00E947F32AD81BE818C9181110BC0AD
:1028800086E892E00E94CA04EB85FC85E553FF4F81
:1028900080818093C702ED81FE818081882339F099
:1028A00086E892E00E94F40A811108C0FAC386E823
:1028B00092E00E94FC0C8111F3CFF3C362E088E93F
:1028C00094E00E9447306CEA71E088E994E00E944D
:1028D00045306BE388E994E00E9447306EE271E096
:1028E00088E994E00E9445308091C102880F990BDD
:1028F0002B853C85820F931FFC01EB54FF4F6081B9
:1029000071814AE050E088E994E00E9419316BE35C
:1029100088E994E00E94473062E371E088E994E03E
:102920000E9445308091C202880F990B2B853C850F
:10293000820F931FFC01EB54FF4F608171814AE0CD
:1029400050E088E994E00E9419316BE388E994E053
:102950000E94473066E371E088E994E00E944530C8
:102960008091C302880F990B2B853C85820F931FA2
:10297000FC01EB54FF4F608171814AE050E088E92F
:1029800094E00E9419316BE388E994E00E9447309B
:102990006AE371E088E994E00E9445308091C402C6
:1029A000880F990B2B853C85820F931FFC01EB54FC
:1029B000FF4F608171814AE050E088E994E00E9415
:1029C00019316BE388E994E00E9447306FE871E0C9
:1029D00088E994E00E94453086E892E00E9408056C
:1029E0006BE388E994E00E9447306EE371E088E988
:1029F00094E00E9445306091C5027091C6024AE0A1
:102A000050E088E994E00E9419316BE388E994E092
:102A10000E9447306FE271E088E994E00E944530FF
:102A20004AE050E06091B90288E994E00E944631A2
:102A30006BE388E994E00E944730AB85BC8515962E
:102A40008C91882309F43FC0EB85FC85E753FF4F49
:102A5000808181110BC060EA71E088E994E00E94F6
:102A600045306BE388E994E00E9447308091C802CA
:102A7000882349F168E871E088E994E00E944530D4
:102A80004AE050E06091C80288E994E00E94463133
:102A90006BE388E994E00E94473062EA71E088E9DC
:102AA00094E00E9445304AE050E0EB85FC85E0561A
:102AB000FF4F608188E994E00E9446316BE388E92A
:102AC00094E00E944730AF81B8858C91882359F0FB
:102AD0006AE971E088E994E00E9445306BE388E997
:102AE00094E00E944730ED81FE81108281E0AB814D
:102AF000BC818C93EB85FC858487EF55FF4F91104B
:102B0000E1C2D3018C9190E02081821B91098897CA
:102B10000CF0D8C263E088E994E00E94473066E791
:102B200072E088E994E00E944530AB85BC8511963F
:102B30008C91882309F464C2F1018081918101970D
:102B4000029708F05DC2AB81BC818C91811158C2A3
:102B5000F3018081883208F453C2AB85BC851A9694
:102B60008D919C911B97A056BF4F7D010B851C85B5
:102B70000F551F4F892B09F47CC08C91882341F09D
:102B800040E060E08B859C850E94A003F7011082E5
:102B90008B859C850E94950A882309F46AC088E287
:102BA000D8018C93F3018081883208F462C048E236
:102BB000842ECB84DC84F5E1CF0ED11CAB84BC84A5
:102BC0002AE9A20EB11C482C512CF301808190E01F
:102BD0000197481659060CF04CC0B201C6010E947C
:102BE000DF05D5012C918B859C85820F911D820F6D
:102BF000911DFC01EB54FF4F80819181B2011816A9
:102C000019068CF4C6010E94DF05F50120818B8531
:102C10009C85820F911D820F911DFC01EB54FF4F8B
:102C20008081918113C0C6010E94DF05D5012C91DE
:102C30008B859C85820F911D820F911DFC01EB54A9
:102C4000FF4F80819181919581959109EB85FC855C
:102C5000228533858217930750F0D8018C92482D36
:102C600060E0CF010E94A0035524539411C08394C7
:102C7000AACFF3018081D8018C93F701808188234A
:102C800031F040E060E08B859C850E94A003512CD0
:102C9000AB85BC8514968C911497AB53BF4F6D01D7
:102CA00062E0882309F496C088E994E00E944730E6
:102CB00066EA71E088E994E00E9445306BE388E9B8
:102CC00094E00E94473020E0D6018C91281708F04C
:102CD00042C0422F50E0CA01880F991FEB85FC8546
:102CE0008E0F9F1FFC01EB54FF4FA080B180A114F9
:102CF000B10479F1EB85FC85E40FF51F8585882308
:102D000041F1622FB7FE05C0606AB194A194B10889
:102D100001C060688A2CA7FC04C0FA2DF0688F2ED1
:102D200001C0606188E994E02A870E94EF2C682D39
:102D300088E994E00E94EF2C6B2D606870E088E9D0
:102D400094E00E94DC016BE388E994E00E94473044
:102D50002A852F5FB9CFF801808180FF03C06AE820
:102D600071E002C063EE71E088E994E00E944530B2
:102D7000B12CCB84DC84F9E9CF0ED11CD8018C9125
:102D8000B816A0F48B2D8695D6019C91891730F446
:102D9000EB85FC85E80FF11D25892987698588E980
:102DA00094E00E94EF2CB394B394E8CF6BE388E9EE
:102DB00094E00E9447306DEA71E088E994E00E9457
:102DC0004530EB85FC856081772767FD709540E194
:102DD00050E086C088E994E00E94473069EA71E0DB
:102DE00088E994E00E9445306BE388E994E00E9412
:102DF0004730812CD6018C918816D8F5882D90E02B
:102E00005C01AA0CBB1C2B853C85A20EB31E35EBC6
:102E1000A30EB11CD5012D913C91232B41F1EB85E3
:102E2000FC85E80FF91F8585882309F162E871E0C8
:102E300088E994E00E9445304AE050E0682D88E936
:102E400094E00E9446316FE371E088E994E00E94CB
:102E50004530F501608171814AE050E088E994E0F5
:102E60000E9419316BE388E994E00E944730839413
:102E7000C1CF6FE871E088E994E00E944530812C71
:102E8000AB84BC84B5E1AB0EB11CCB84DC84EAE935
:102E9000CE0ED11CF8018081881678F4682D70E080
:102EA000C5010E94DF054AE050E0D6016C9188E937
:102EB00094E00E9446318394EDCF6BE388E994E07F
:102EC0000E94473062E971E088E994E00E94453051
:102ED000AB85BC856C91772767FD70954AE050E023
:102EE00088E994E00E9419316BE388E994E00E943C
:102EF0004730E981FA81108281E0AB85BC851C9660
:102F00008C93EB81FC818083AF81B8858C91882381
:102F100059F06AE971E088E994E00E9445306BE37A
:102F200088E994E00E944730EB85FC858581882301
:102F300029F1911003C069EC71E005C0F2E09F1225
:102F40000BC06CE971E088E994E00E9445306BE3C6
:102F500088E994E00E944730EB85FC85E753FF4FFA
:102F6000808181110BC060EA71E088E994E00E94E1
:102F700045306BE388E994E00E9447305520A9F181
:102F8000AB85BC8515968C918823A1F064EA71E02D
:102F900088E994E00E9445304AE050E0EB85FC85EA
:102FA000618588E994E00E9446316BE388E994E00A
:102FB0000E944730AB85BC8519968C9119978F5F1D
:102FC00019968C93911009C0F301808190E0D8018B
:102FD0002C91821B9109889744F0F80160818B85C0
:102FE0009C850E945002D7011C9263E088E994E01E
:102FF0000E94473066E772E088E994E00E9445301D
:10300000EB81FC818081811103C0A981BA811C926E
:10301000F30180818E3F70F0D1018D919C91892BBD
:1030200049F46DEC70E088E994E00E945230E98147
:10303000FA811082A981BA818C91811166C08B8539
:103040009C852C960FB6F894DEBF0FBECDBFDF91E6
:10305000CF911F910F91FF90EF90DF90CF90BF9095
:10306000AF909F908F907F906F905F904F903F9028
:103070002F900C94E301F80180818F5F808360C8FA
:10308000F80180818F5F8083E5C8D8018C918E5FC5
:103090008C9323C9F80180818150808355245394F7
:1030A0004CC9AD81BE818C91882309F43ECDA981A4
:1030B000BA818C91882309F438CD81E0EB81FC81C1
:1030C000808333CD608161508B859C850E94500246
:1030D000EB85FC85E056FF4F108281E0EB85FC8597
:1030E000E653FF4F8083EB85FC858581882309F4B7
:1030F00011CD64EA71E088E994E00E9445306BE309
:1031000088E994E00E94473005CD2C960FB6F894DC
:10311000DEBF0FBECDBFDF91CF911F910F91FF900A
:10312000EF90DF90CF90BF90AF909F908F907F9067
:103130006F905F904F903F902F9008954F925F92C5
:103140006F927F928F929F92AF92BF92CF92DF92B7
:10315000EF92FF920F931F93CF93DF93EC017C01CB
:103160002FE9E20EF11CD7014C918C0103551F4F42
:103170004423A1F0FC01E155FF4F0190F081E02DC7
:10318000309761F0D8012D913C9180819181F901B6
:10319000208131818227932797FF08C0D801ED91C4
:1031A000FC91808191818115934884F5FAE0DF2EAE
:1031B00060E0CE010E942610F7018081811106C0D7
:1031C000FE01E155FF4F1182108206C0DA94D11042
:1031D000EFCFCE010E94E30118861986FE01EA5363
:1031E000FF4F4081D8018D919C91DC012D913C9144
:1031F000CE01840F911D840F911DDC01AB54BF4F94
:103200002D933C934F5F4083912C0EC14E3F50F065
:1032100061E0CE010E94261040E060E0CE010E94F5
:10322000A00333C0483289F583E090E0FE01E95500
:10323000FF4F91838083FE01E353FF4F2081318153
:103240002115310539F482819381892B19F4848108
:1032500080FF1BC04281538164817581CB019595AC
:10326000879560FF3AC1F901E80FF91F0190F081DD
:10327000E02DE40FF51F0190F081E02D820F931FE8
:103280000995FE01E453FF4F8083D801ED91FC9135
:1032900060817181CE010E944B03982E87FD26C06C
:1032A000C82ECC0CDD08CC0EDD1EB5EBCB0ED11C30
:1032B000F60160817181882777FD8095982FD8016C
:1032C000ED91FC9140805180662457FC6094762CEF
:1032D000640D751D861D971D22E030E040E050E032
:1032E0000E940E35F601318320839EC05E01F5EC0D
:1032F000AF0EB11CD5018C91FE01EA53FF4F6F0157
:10330000883009F06AC08081FE01E80FF11D8585D3
:10331000833048F1FE01E955FF4F808191811816F5
:1033200019060CF5EAE09E2E812C8C85882319F075
:103330001C868824839462E0CE010E942610D70167
:103340008C91883248F4188619868C8640E060E0BB
:10335000CE010E94A00307C08C858823A1F39A9414
:103360009110E3CFF0CFF70150805520B1F15A947E
:103370003E01F5E16F0E711C4E012AE9820E911C8F
:10338000F6018081FE01E80FF11D8585882329F172
:10339000652D70E0C3010E94DF05D4019C91F60108
:1033A000808198130BC061E0650DCE010E94500230
:1033B00040E060E0CE010E94A0030FC0F1E05F1288
:1033C0000AC0D7018C918E3F30F063E071E088E94C
:1033D00094E00E9452305A94D3CFD6019C90D801E9
:1033E000ED91FC9120813181CE01890D911D890DD6
:1033F000911DFC01EB54FF4F3183208381E0890D47
:10340000883019F0F601808308C0D6011C92F501BE
:103410008083FE01E853FF4F1082D6018C91F501A5
:103420009081981708F48083592D5E01F6E9AF0E5C
:10343000B11CD5014C91DE01AB56BF4FFE01EC56DD
:10344000FF4F6F014730D1F48C918823B9F0608130
:10345000262F30E0CE0187569F4FFC01808190E0FF
:103460000197281739070CF060C081E0860FF6013C
:1034700080839E01280F311DF901158ACE018956DE
:103480009F4FFC017081272F30E0842F90E0019640
:10349000821B930B181619062CF4592D01C0550FD9
:1034A0008A95EAF7F6018081FE01E80FF11D658932
:1034B000652B658B8C918F5F8C93842F992787FD6B
:1034C0009095821B930B97FD04C0471BD5014C932D
:1034D00006C087E0F501808302C0FA01CFCEF70174
:1034E00080818F5F8083D801ED91FC9180819181F3
:1034F000FE01E556FF4F91838083C90DD11D97FCD6
:10350000DA958D858F5F8D87DF91CF911F910F9118
:10351000FF90EF90DF90CF90BF90AF909F908F90F3
:103520007F906F905F904F9008956EEF70E088E904
:1035300094E00E9412304AE050E0692D88E994E05E
:103540000E94463164EF70E088E994E00E941230F6
:103550004AE050E0D6016C9188E994E00E9446313F
:1035600060EE70E088E994E00E945230CE010E9443
:10357000B207B9CFAF92BF92CF92DF92EF92FF9294
:103580000F931F93CF93DF93EC016B018C010E55CA
:103590001F4FD8011C92FC01E156FF4F6081FC01D6
:1035A000E155FF4F5F0183559F4F7C01662301F179
:1035B00070E061507109CE0145960E94DF05FE0161
:1035C000E656FF4F2081CE01820F911D820F911D83
:1035D0008B549F4FD5018D939C93D701ED91FC9116
:1035E00080819181FE01E356FF4F9183808302C069
:1035F00011821082D6018D919C91D701ED91FC91A1
:1036000091838083CE010E949E18F8018081DF9112
:10361000CF911F910F91FF90EF90DF90CF90BF90CF
:10362000AF9008950C94B3390C94BB3990ED980F7A
:103630009A3068F09FE9980F963018F499EA980F3D
:1036400006C09FEB980F963008F48753982F892F68
:103650000895CF93C82F803130F46FEA71E088E984
:1036600094E00E94453040E150E06C2F88E994E0FE
:10367000CF910C9446318EBD0DB407FEFDCF8EB5B3
:103680000895CF93C82F2A981C9B0EC061E070E06C
:1036900080E090E00E94192B90910B019923D9F0C2
:1036A000915090930B01F0CF8C2F0E943B1BC82FA1
:1036B0001C9B0EC061E070E080E090E00E94192B3E
:1036C00090910A01992339F0915090930A01F0CF1B
:1036D0002A9A8C2F01C08FEFCF910895CF93DF935B
:1036E000D82FC62F2A981C9B0EC061E070E080E0A6
:1036F00090E00E94192B90910901992369F0915053
:1037000090930901F0CF8D2F8C2B0E943B1B80E002
:103710000E943B1B2A9A01C08FEFDF91CF91089541
:10372000CF93DF93D82FC62F2A981C9B0EC061E041
:1037300070E080E090E00E94192B9091080199239D
:1037400059F0915090930801F0CF8D2F0E943B1BB0
:103750008C2F0E943B1B2A9ADF91CF910895EF9204
:10376000FF920F931F93CF93DF93CDB7DEB72897C8
:103770000FB6F894DEBF0FBECDBF2A981C9B0EC0BB
:1037800061E070E080E090E00E94192B80910701D9
:103790008823D9F1815080930701F0CF8EEF0E94EA
:1037A0003B1B7E0189E0E80EF11C8E010F5F1F4F6D
:1037B00080E00E943B1BF80181938F01EE15FF050D
:1037C000B9F72A9A8E010F5F1F4FF80181918F017F
:1037D0000E94291B6DE671E088E994E00E94453063
:1037E0000E151F0591F767E772E088E994E02896C7
:1037F0000FB6F894DEBF0FBECDBFDF91CF911F9102
:103800000F91FF90EF900C94643028960FB6F894C7
:10381000DEBF0FBECDBFDF91CF911F910F91FF9003
:10382000EF900895CF93DF932A981C9B0EC061E020
:1038300070E080E090E00E94192B809106018823BF
:1038400099F0815080930601F0CF8EE70E943B1BD8
:10385000C0E3D0E0CE010E94121B0E943B1B2196C8
:10386000C833D105B9F72A9ADF91CF9108951F93F4
:10387000CF93DF93C82F63E070E080EE92E00E9468
:10388000662F8E3671F464E070E080EE92E00E9464
:10389000662F992787FD90950E945A37892B09F04A
:1038A00062C0CE3320F5CF3210F460E801C060EC86
:1038B0008C2F0E946E1BD82F6DEA71E088E994E08E
:1038C0000E9445308C2F0E94291B61EB71E088E932
:1038D00094E00E9445308D2F0E94291B67E772E01B
:1038E00088E994E0DF91CF911F910C946430CE333E
:1038F00059F466EE72E088E994E00E941230DF919C
:10390000CF911F910C94AF1BC93909F05DC0C0E085
:10391000CC2351F0C03111F0C032A9F46DE671E052
:1039200088E994E00E9445306FED72E088E994E008
:103930000E9412308C2F0E94291B6CED72E088E9E6
:1039400094E00E94123060E88C2F0E946E1B0E944F
:10395000291B6DE671E088E994E00E944530CF5F55
:10396000CF32B1F6BBCF64E070E080EE92E00E940F
:10397000662F0E94161B182FCF3230F56DEA71E0CA
:1039800088E994E00E9445308C2F0E94291B6AE749
:1039900072E088E994E00E9445301E5F812F0E940A
:1039A000291B6FE371E088E994E00E944530D0E084
:1039B000D11708F093CF60E88D2F8C0F0E946E1BFB
:1039C0000E94291BDF5FF4CFDF91CF911F910895F3
:1039D0001F93CF93DF9363E070E080EE92E00E944C
:1039E000662F992787FD90950E945A37892B09F4F5
:1039F00053C063E070E080EE92E00E94662F0E9468
:103A0000161BC0E3C80FCE3308F046C08C2F0E94AF
:103A1000411B182F61E070E080E090E00E94192BBC
:103A20008DE30E94411BD82F6EEC72E088E994E090
:103A30000E9412308C2F0E94291B61EC72E088E9F1
:103A400094E00E941230612F70E084E075956795D4
:103A50008A95E1F740E150E088E994E00E94463120
:103A600068EB72E088E994E00E9412306D2F70E0FC
:103A700094E0759567959A95E1F740E150E088E903
:103A800094E00E94463167E772E088E994E0DF91B4
:103A9000CF911F910C946430DF91CF911F910895C5
:103AA000CF93DF93D82FC62F8EEF8D0F8E33B0F4C8
:103AB0000E94901B65EB71E088E994E00E9445301C
:103AC0008D2F0E94291B8C2F0E94291B67E772E013
:103AD00088E994E0DF91CF910C946430DF91CF912D
:103AE00008951F93CF93DF93182FC0E3D0E0C13325
:103AF00021F4612F81E390E002C060E0CE010E94DA
:103B0000141B2196C833D10591F7DF91CF911F91F6
:103B10000C94121CCF93DF93C2E0D0E0FE01E5517C
:103B2000FD4F6491CE010E94141B2196CB32D1052A
:103B3000A9F7C0E3D0E0C13321F464E881E390E069
:103B400002C060E0CE010E94141B2196C833D1054B
:103B500091F767EB71E088E994E0DF91CF910C94E5
:103B60006430CF93DF9386E30E94411B61E070E0F5
:103B700080E090E00E94192BCEEFCF3FD1F084E39C
:103B80000E94411BDFEFDC0F8077803151F4C111BF
:103B900010C06BEC71E088E994E0DF91CF910C9458
:103BA000643061E070E080E090E00E94192BCD2F3E
:103BB000E4CFDF91CF910895CF93DF932A9A8EE1DE
:103BC00090E00E94412B2A988EE190E00E94412BC8
:103BD0002A9A8DE290E00E94412B80E30E94411BD3
:103BE0006AE070E080E090E00E94192B2A9880E45F
:103BF0000E943B1BC2E0D0E0CE010E94121B0E943B
:103C00003B1B2196CB32D105B9F72A9A8AE090E086
:103C10000E94412B0E94121C61E070E080E090E065
:103C20000E94192BDF91CF910C94B11D60E888E0C0
:103C30000E946E1B823351F460E880E00E946E1B8C
:103C400091E08D3009F090E0892F089580E008958B
:103C500041E050E06EEA79E280E00C94882B80E04D
:103C60000E94A82B1092BB031092BD031092BC03BC
:103C700008952F923F924F925F926F927F928F9210
:103C80009F92AF92BF92CF92DF92EF92FF920F93EB
:103C90001F93CF93DF93A82E6B01342E252E49015D
:103CA0000E94F62A2B013C01B12C00E010E0B80183
:103CB0006A0D7B1DC616D70658F1C4010E94662FF7
:103CC0008053E32DF22DE80FF11DE80FF11DC081A7
:103CD000D1817E01D7FF04C0EE24FF24EC1AFD0A37
:103CE0000E94F62A6415750586059705C8F3D7FF67
:103CF00002C02B9801C02B9AC701AA2797FDA09557
:103D0000BA2F480E591E6A1E7B1E0F5F1F4FCFCF62
:103D10000E94F62A6415750586059705C8F3DF919C
:103D2000CF911F910F91FF90EF90DF90CF90BF90B8
:103D3000AF909F908F907F906F905F904F903F904B
:103D40002F9008952F923F924F925F926F927F92A1
:103D50008F929F92AF92BF92CF92DF92EF92FF929B
:103D60000F931F93CF93DF9300D01F92CDB7DEB791
:103D7000382E69832A010E94F62A6B017C01662491
:103D800057FC6094762CF981F31508F443C0632D39
:103D900070E080EE92E00E94662F8A3314F490E384
:103DA00001C097E3891B94E0892E912C08E0A82E8E
:103DB000BB24A7FCB094212C10E0F801EA21FB21E0
:103DC000FB83EA83211005C08A819B81892B29F41A
:103DD00006C0EA81FB81EF2B11F42B9801C02B9ACE
:103DE000C40CD51CE61CF71C0E94F62A6C157D0538
:103DF0008E059F0518F40E94872BF6CF2394F2E0DE
:103E00002F12E0CF1595079581E0881A910899F651
:103E10003394B9CF0F900F900F90DF91CF911F91F6
:103E20000F91FF90EF90DF90CF90BF90AF909F9059
:103E30008F907F906F905F904F903F902F9008955C
:103E4000CF92DF92EF92FF920F931F93CF93DF9366
:103E500000D000D000D0CDB7DEB78C017B018FEF52
:103E60009FEFFB0191838083F801C080D1806FEFC9
:103E700071E0CE0101960E94C92EA601BE016F5FBE
:103E80007F4F80EE92E00E94682F6C01CE01019678
:103E90000E945B2EFFEFCF16DF0639F0F80160813C
:103EA00071816F3FFFEF7F0721F4F70111821082CC
:103EB00026C080EE92E00E94662F80931901F801DF
:103EC000608171816F5F7F4F80EE92E00E94662F6C
:103ED0008093180190911901933521F4F701118213
:103EE00010821FC0903599F4F801608171816E5F76
:103EF0007F4F80EE92E00E94662F8D3311F080E0BC
:103F000017C0F801208131812D5F3F4F07C08D33ED
:103F1000B1F7F801208131812E5F3F4FF7013183E6
:103F20002083FFEFCF1ADF0AF801D182C08281E03F
:103F300026960FB6F894DEBF0FBECDBFDF91CF91AE
:103F40001F910F91FF90EF90DF90CF9008951F93F6
:103F5000CF93DF93C82FD0E0BE0180EE92E00E94A5
:103F6000662F0E94161B182F1295107FBE016F5FDF
:103F70007F4F80EE92E00E94662F0E94161B810FF9
:103F8000DF91CF911F9108956EEC71E088E994E084
:103F90000E9412306091EA0270E04AE050E088E945
:103FA00094E00E94193169EC71E088E994E00E9484
:103FB00012306091E80270E04AE050E088E994E055
:103FC0000E94193164EC71E088E994E00E9412309B
:103FD0006091E90270E04AE050E088E994E00E94D4
:103FE00019316DEB71E088E994E00E941230609124
:103FF000EB0270E04AE050E088E994E00E94193159
:1040000080911701811106C066EB71E088E994E0A8
:104010000E9412308091ED02882331F06DEA71E048
:1040200088E994E00E94123064EA71E088E994E043
:104030000E9412306091EC0270E04AE050E088E9A2
:1040400094E00E9419316CE971E088E994E00E94E3
:1040500012304AE050E06091EE0288E994E00E945C
:1040600046316CE871E088E994E00E94123060917A
:10407000F1027091F2024AE050E088E994E00E9477
:1040800064318091B203813171F06EE771E088E9AB
:1040900094E00E9412304AE050E06091B20388E957
:1040A00094E00E9446318091EC02882371F06EE624
:1040B00071E088E994E00E9412304AE050E060919B
:1040C000160188E994E00E94463167E772E088E9CA
:1040D00094E00C9464308F929F92AF92BF92CF92F3
:1040E000DF92EF92FF920F931F93CF93DF9300D055
:1040F00000D000D0CDB7DEB76FE371E0CE010196FE
:104100000E94C92E44E050E0BE016F5F7F4F80EEF9
:1041100092E00E94682F7C01CE0101960E945B2EE6
:104120002CE0C22E21E0D22E00E010E0FF24902EE1
:10413000F601A190B1906F01970142E050E060EE6E
:1041400072E0CE0101960E94842FB501CE01019646
:104150000E94362FB82ECE0101960E945B2EBB2006
:1041600009F443C0D02EF801EE0FFF1FE45FFE4FAD
:104170006081718188E994E00E9445306FE371E0CD
:1041800088E994E00E944530F3E00F17D1F12091C7
:10419000E4023091E502A7014F5F5F4F60EE72E0ED
:1041A000CE0101960E94842FCE0101960E94C92F54
:1041B000D62E862ECE0101960E945B2E4AE050E05C
:1041C0006D2D88E994E00E944D31F801E05AFD4FD1
:1041D00080816D2D90E00E94141B002379F081E016
:1041E000081310C0D092B2034CC00F5F1F4F0430B1
:1041F000110509F09CCF84E0D82E03C0D09216019F
:1042000040C09D2CE2E09E1203C08092EE0239C0B5
:10421000F3E09F1230C02091E4023091E502A70143
:104220004F5F5F4F60EE72E0CE0101960E94842FD7
:10423000CE0101960E94C92F7093F2026093F102A1
:10424000CE0101960E945B2E6091F20283EF90E016
:104250000E94141B6091F10284EF90E00E94141BF5
:104260006091F1027091F2024AE050E088E994E036
:104270000E946A3106C067E772E088E994E00E9414
:10428000643026960FB6F894DEBF0FBECDBFDF9127
:10429000CF911F910F91FF90EF90DF90CF90BF9043
:1042A000AF909F908F900895CF93DF9300D0CDB7BC
:1042B000DEB720913505309136052115310511F411
:1042C00029E335E0CE010196821B930B0F900F90EE
:1042D000DF91CF910895CF93C82F803130F46FEAEA
:1042E00071E088E994E00E94453040E150E06C2F95
:1042F00088E994E0CF910C9446313F924F925F92BF
:104300006F927F928F929F92AF92BF92CF92DF92E5
:10431000EF92FF920F931F93CF93DF93CDB7DEB74A
:10432000CD57D1090FB6F894DEBF0FBECDBFED96C5
:104330001FAE1EAEED97EB961FAE1EAEEB970E9422
:104340002F1E99249A94812CA12C55245394B6E1C4
:10435000BB2E1BE0712E66246394BE0167587F4F0D
:10436000CE0185589F4F0E94201F882309F447C122
:10437000809119018335D9F425E0921609F47BC0A8
:1043800080911801833409F437C18D3411F08235DE
:1043900021F79394E1E0F0E0EC0FFD1FB99CE00DF4
:1043A000F11D112411821082658AA12CD6CF82358D
:1043B000F1F5AA20C1F0ED962EAD3FADED9721505D
:1043C0003109EB964EAD5FADEB9760EE72E0CE013A
:1043D00081599F4F0E94842FCE0181599F4F0E9487
:1043E000C92F562EADC03FEF931609F4B6CFED9608
:1043F0002EAD3FADED9721503109EB964EAD5FAD3F
:10440000EB9760EE72E0CE0181599F4F0E94842F9E
:10441000CE0181599F4F0E94C92FE1E0F0E0EC0FDF
:10442000FD1FB99CE00DF11D1124658B89C09FEF24
:10443000991609F492CF803509F04AC0EB964EAD3B
:104440005FADEB979A01215031094250510960EE5E
:1044500072E0CE0181599F4F0E94842FCE01815975
:104460009F4F0E94C92F162FCE0181599F4F0E9446
:104470005B2E193038F08FEF9FEFEB969FAF8EAF2A
:10448000EB97BDC0ED962EAD3FADED9721503109B4
:10449000EB964EAD5FADEB9760EE72E0CE018159C9
:1044A0009F4F0E94842FCE0181599F4F0E94C92F98
:1044B000799CF0011124E10FF11DEE0FFF1F21E0A7
:1044C00030E02C0F3D1FE20FF31F7683658338C069
:1044D0008434A1F4EA968FADEA97E1E0F0E0EC0FC6
:1044E000FD1FB99CE00DF11D11248283ED968EAD68
:1044F0009FADED970297948383832FCF833431F55B
:10450000ED962EAD3FADED9721503109EB964EADB6
:104510005FADEB9760EE72E0CE0181599F4F0E9434
:10452000842FCE0181599F4F0E94C92FE1E0F0E016
:10453000EC0FFD1FB99CE00DF11D11247183608308
:10454000CE0181599F4F0E945B2E07CF863409F020
:1045500004CFED968EAD9FADED97EB962EAD3FADB2
:10456000EB97821B930B97FD019695958795882E67
:104570008150853008F0F1CE8091DB02882309F468
:10458000ECCECE018B589F4F7C0100E010E02DE077
:10459000422E400E60E8842D0E946E1BF70181932D
:1045A0007F016801CC0CDD1CEB966EAD7FADEB9707
:1045B0006C0D7D1D80EE92E00E94662F0E94161BFE
:1045C000382E329440EF3422EB966EAD7FADEB97F0
:1045D0006F5F7F4F6C0D7D1D80EE92E00E94662F15
:1045E0000E94161B632D680F842D0E94901B0F5F85
:1045F0001F4F081560F2B1CEAA24A394AECEEB965D
:104600008EAD9FADEB97019621F0612C96E1492E7E
:104610002BC064E372E088E994E00E9412308AC003
:10462000479C70011124E1E0F0E0EC0FFD1FEE0D5E
:10463000FF1D80819181312C892BD1F08F015F0189
:1046400025E1A20EB11C6F0133E0C30ED11C7F0126
:1046500082E0E80EF11CF5018081381668F12B9894
:1046600073949714E8F663946514C9F1712CD8CF4C
:104670006F0195E1C90ED11C25E0E20EF11C81E02D
:1046800090E08C0F9D1FE80EF91E5F0193E0A90ECC
:10469000B11C8F010E5F1F4FF60180813816F8F6AE
:1046A000F5016081718120EE32E0A701F80180817F
:1046B0000E94391E3394F0CF332031F061E070E076
:1046C00080E090E00E94192BF80140815181F601B1
:1046D0006081F70180810E94A21E3394BCCF60EEFE
:1046E00072E088E994E00E943730882019F162E294
:1046F00072E088E994E00E9412307E01F5E7EF0E47
:10470000F11C87018CE0D82EDE18802F8E198815B9
:1047100088F4F80161918F01862FEE966FAFEE97C6
:104720000E946B21EE966FADEE978D2D800F0E944B
:10473000901BEBCF0E94281E67E772E088E994E0A7
:104740000E946430C358DF4F0FB6F894DEBF0FBE2F
:10475000CDBFDF91CF911F910F91FF90EF90DF9030
:10476000CF90BF90AF909F908F907F906F905F9011
:104770004F903F900895CF92DF92EF92FF920F9368
:104780001F93E62FEE0FFF0B64E04602A0011124F9
:1047900098E029029001112460E1060280011124B1
:1047A0009E2D60E29602700111249C2D60E4960219
:1047B00060011124682F60686C296E29602B622BC0
:1047C000642B6E2B8FEF90E01F910F91FF90EF9075
:1047D000DF90CF900C94141BCF92EF920F93CF9356
:1047E000DF9362E070E080EE92E00E94662F8335F6
:1047F00099F162E070E080EE92E00E94662F8535CC
:1048000071F162E070E080EE92E00E94662F8334E6
:1048100049F162E070E080EE92E00E94662F8235FE
:1048200021F162E070E080EE92E00E94662F843415
:10483000F9F062E070E080EE92E00E94662F8C3426
:10484000D1F062E070E080EE92E00E94662F863444
:10485000A1F4CDEED2E011C0CAEED2E00EC0C8EE97
:10486000D2E00BC0C9EED2E008C0CBEED2E005C06A
:10487000CCEED2E002C0C7E1D1E061E070E080EEB2
:1048800092E00E94662F853419F481E0888309C084
:1048900061E070E080EE92E00E94662F843489F43B
:1048A0001882C090ED02E09017010091EC02209177
:1048B000EB024091E9026091E8028091EA020E94D5
:1048C000BB23DF91CF910F91EF90CF9008956F921E
:1048D0007F928F929F92AF92BF92CF92DF92EF9290
:1048E000FF920F931F93CF93DF93EC014B015A017B
:1048F00039018FEF90E00E94121B982F91709883DE
:1049000081FB992790F9F401908382FB992790F914
:10491000F501908383FB992790F9F301908384FB41
:10492000992790F9F801908385FB992790F9F70171
:10493000908386FB882780F9F601808380EF90E0E2
:104940000E94121B8093160182EF90E00E94121BBE
:104950008093EE0283EF90E00E94121BC82F84EF39
:1049600090E00E94121B2C2F332727FD3095322F09
:104970002227280F311D3093F2022093F10281EF9C
:1049800090E00E94121B811101C081E18093B2036B
:10499000DF91CF911F910F91FF90EF90DF90CF901B
:1049A000BF90AF909F908F907F906F900895CF921F
:1049B000DF92EF92FF920F931F938DEEC82E82E04D
:1049C000D82E97E1E92E91E0F92E0CEE12E02BEEB5
:1049D00032E049EE52E068EE72E08AEE92E00E9428
:1049E00067241F910F91FF90EF90DF90CF90089573
:1049F0006FEB8FEF90E00E94141B60E580EF90E07A
:104A00000E94141B60E081EF90E00E94141B64E0A0
:104A100082EF90E00E94141B6FE183EF90E00E9410
:104A2000141B60E484EF90E00E94141B0E94D724C2
:104A300069E471E088E994E00C945230CF92DF92FF
:104A4000EF92FF92CF93DF9360E070E080EE92E010
:104A50000E94662F803581F461E072E088E994E07D
:104A60000E94643084EF91E0DF91CF91FF90EF904E
:104A7000DF90CF900C94412B60E070E080EE92E0EC
:104A80000E94662F8F3309F0A6C061E070E080EECF
:104A900092E00E94662F8335A9F4CCE0D1E06991C1
:104AA000799188E994E00E9445306DE671E088E9EB
:104AB00094E00E94453081E0C431D80781F767E770
:104AC00072E0A3C06FE388E994E00E94473065E19B
:104AD00072E088E994E00E94123066E588E994E08B
:104AE0000E94473060E288E994E00E94473062E526
:104AF00088E994E00E94473060E288E994E00E94EF
:104B0000473064E788E994E00E94473060E288E932
:104B100094E00E94473068E588E994E00E944730BD
:104B200060E288E994E00E94473066E488E994E016
:104B30000E94473060E288E994E00E94473063E5D4
:104B400088E994E00E94473060E288E994E00E949E
:104B5000473060E588E994E00E94473060E288E9E8
:104B600094E00E94473063E488E994E00E94473073
:104B700060E288E994E00E94473062E788E994E0C7
:104B80000E94473060E288E994E00E94473067E580
:104B900088E994E00E94473060E288E994E00E944E
:104BA00047308091DB02882309F489CF68E788E9E0
:104BB00094E00E94473060E288E994E00E94473028
:104BC00065E688E994E00E94473060E288E994E075
:104BD0000E94473074CF60E070E080EE92E00E9467
:104BE000662F8635E1F464E072E088E994E00E9483
:104BF00045308091DB02882331F06DE072E088E976
:104C000094E00E9412306EE172E088E994E0DF9156
:104C1000CF91FF90EF90DF90CF900C94643060E0E4
:104C200070E080EE92E00E94662F823579F40E9457
:104C300054214AE050E0BC0188E994E0DF91CF9133
:104C4000FF90EF90DF90CF900C94213160E070E006
:104C500080EE92E00E94662F833591F487EE92E019
:104C60000E944803892B21F081E08093DA022FC251
:104C7000DF91CF91FF90EF90DF90CF900C947D214A
:104C800060E070E080EE92E00E94662F8437B1F51C
:104C90000E94EA2A6B017C0128EE33E040E050E0FC
:104CA0000E94EC34BA01A9018091D4029091D502FE
:104CB000A091D602B091D702C816D906EA06FB0623
:104CC00048F48091D2029091D30201969093D3023E
:104CD0008093D202C092D402D092D502E092D60242
:104CE000F092D7022AE030E088E994E0DF91CF919A
:104CF000FF90EF90DF90CF900C94803160E070E0F7
:104D000080EE92E00E94662F8835D9F461E070E071
:104D100080EE92E00E94662F813511F40E942F1ED2
:104D200061E070E080EE92E00E94662F853409F029
:104D3000CEC1DF91CF91FF90EF90DF90CF900C9498
:104D4000281E60E070E080EE92E00E94662F8634BC
:104D500009F4BDC160E070E080EE92E00E94662F31
:104D6000833419F561E070E080EE92E00E94662FD6
:104D7000873441F4DF91CF91FF90EF90DF90CF9097
:104D80000C94C41F61E070E080EE92E00E94662FF8
:104D9000853409F457C061E070E080EE92E00E9433
:104DA000662F843409F056C04DC060E070E080EE9C
:104DB00092E00E94662F8735F9F461E070E080EEA2
:104DC00092E00E94662F833509F080C062E070E0B7
:104DD00080EE92E00E94662F833309F077C08091C5
:104DE000DB02882309F472C0DF91CF91FF90EF902E
:104DF000DF90CF900C94E81C60E070E080EE92E0D1
:104E00000E94662F823709F0B5C061E070E080EE45
:104E100092E00E94662F992787FD90950E945A374D
:104E2000892B09F4A7C062E070E080EE92E00E9456
:104E3000662F992787FD90950E945A37892B09F094
:104E4000D5C098C0DF91CF91FF90EF90DF90CF90C9
:104E50000C94EC2361E070E080EE92E00E94662FFB
:104E6000833541F4DF91CF91FF90EF90DF90CF90A9
:104E70000C946B2061E070E080EE92E00E94662F5F
:104E8000992787FD90950E945A37892B09F413C101
:104E900062E070E080EE92E00E94662F992787FD25
:104EA00090950E945A37892B09F405C18091DB0245
:104EB000882309F400C181E00E94A71FDF91CF91F0
:104EC000FF90EF90DF90CF900C94371C61E070E082
:104ED00080EE92E00E94662F992787FD90950E94B0
:104EE0005A37892B09F4E7C062E070E080EE92E067
:104EF0000E94662F992787FD90950E945A37892B2B
:104F000009F4D9C063E070E080EE92E00E94662F61
:104F1000992787FD90950E945A37892B09F4CBC0B9
:104F200064E070E080EE92E00E94662F992787FD92
:104F300090950E945A37892B09F4BDC081E00E94E8
:104F4000A71FC82F83E00E94A71FD82F682F8C2F80
:104F500090E00E94141B8091DB02882309F4B7C003
:104F60006D2F8C2FDF91CF91FF90EF90DF90CF903E
:104F70000C94501D60E070E080EE92E00E94662F7D
:104F8000883709F072C061E070E080EE92E00E9424
:104F9000662F992787FD90950E945A37892B09F42F
:104FA00064C062E070E080EE92E00E94662F992774
:104FB00087FD90950E945A37892B09F456C080913D
:104FC000DB02882309F451C081E00E94A71FC82F8B
:104FD0000E94711D67EF71E088E994E00E94123031
:104FE0008C2F0E946B2166EE71E067C081E00E9409
:104FF000A71FC82F65E072E088E994E00E94123094
:105000008C2F0E946B2163E070E080EE92E00E94A2
:10501000662FD0E08E36E9F462E072E088E994E031
:105020000E941230E12CF12C6DE671E088E994E0E9
:105030000E944530C7018C0F9D1F0E94121B0E94C9
:105040006B218FEFE81AF80A80E1E816F10461F7A6
:1050500036CD6EEF71E088E994E00E941230CE0107
:105060000E94121B0E946B212ACD60E070E080EE4E
:1050700092E00E94662F8536F1F461E070E080EEE8
:1050800092E00E94662F833441F4DF91CF91FF902C
:10509000EF90DF90CF900C94F8248091DB0288236E
:1050A00051F00E948A1DDF91CF91FF90EF90DF9029
:1050B000CF900C94DC1D62ED71E088E994E0DF9103
:1050C000CF91FF90EF90DF90CF900C945230DF9112
:1050D000CF91FF90EF90DF90CF900895CF93DF9323
:1050E0008091DA02882389F01092DA020E941E254C
:1050F0008091DA02811106C067E772E080EE92E0EB
:105100000E94DF2E81E08093E6021092F302D1E04C
:105110008091BB03882309F44BC08091BB0381506D
:105120008093BB038091BD036091BA030E94B834A1
:105130009093BD03E091BD0381E08E0F8093BD038A
:10514000F0E0EE0FFF1FE254FC4F808191819093BD
:10515000D9028093D80268ED72E087EE92E00E9457
:10516000BA1A8091EC028823B9F08091F302882367
:1051700099F0C091BB03809116018C1768F460E42C
:1051800072E088E994E00E9412304AE050E06C2F0F
:1051900088E994E00E944D318091F302882329F040
:1051A000809117018111D093E6021092F302B0CFE3
:1051B000DF91CF91089580E090E00E94121B83332D
:1051C00031F481E090E00E94121B8D3271F00E9458
:1051D000F82463E380E090E00E94141B6DE281E01C
:1051E00090E00E94141B0C94D7246EE271E088E9D1
:1051F00094E00E945230F7CF26E040E051EE60E0AC
:1052000070E088E994E00E94542D6CEA72E088E92D
:1052100094E00E9452305298259A0E94DB28239AEB
:105220008091EC02882331F06AE972E088E994E029
:105230000E94523062E370E080E090E00E94192BFF
:1052400080E1809381001092800082E08093880446
:1052500088E199E790938A0480938904909387006A
:105260008093860082E1809381008AE799E290939F
:1052700087048093860481E080936F006EE571E07F
:1052800080EE92E00E948C2E8091DB02882321F038
:105290000E94161E882349F00E94281E8091EC026D
:1052A000882349F069E872E002C064E472E088E9AA
:1052B00094E00C9452300895FC019B018181843666
:1052C000B8F481818F5F8183828160810E94B834CC
:1052D00092838281DF01A80FB11DA80FB11D149622
:1052E00011963C932E9382818F5F828381E0089593
:1052F00080E008950F931F930E94F62A0091DC022C
:105300001091DD022091DE023091DF02601B710BF3
:10531000820B930B62307D4781059105A8F04A9B73
:1053200003C061E07DE702C06FEF72E88AEB93E0B3
:105330000E945C290E94F62A6093DC027093DD02D1
:105340008093DE029093DF026091E6028DE00E947E
:105350003B2C1092E6021F910F910895CF92DF929D
:10536000EF92FF920F931F93F8940E94F62A0091F8
:10537000DC021091DD022091DE023091DF026B0130
:105380007C01C01AD10AE20AF30A970186016093F0
:10539000DC027093DD028093DE029093DF020A3517
:1053A000110521053105A0F081E0C8168DE7D8066A
:1053B000E104F10410F4B60102C061E07DE74A9B0C
:1053C00003C07195619571098AEB93E00E945C2995
:1053D00078941F910F91FF90EF90DF90CF900895F8
:1053E00084E68093BA031092BB031092BD0310921F
:1053F000BC038FE78093800384E080937E03109248
:10540000FC0210927B0310927C0387E080937D0363
:1054100080EF80937F03E0E9F3E0F0939503E0935E
:10542000940382E993E090939703809396031092FC
:10543000B5031092B4031092B7031092B603109202
:10544000B9031092B8031182108287EE92E00E9495
:10545000E30181E18093B2031092EF021092F00217
:1054600067E772E080EE92E00E94C92E0E94F62A61
:105470006093DC027093DD028093DE029093DF0282
:10548000089580EE92E00C945B2ECF93C1E088E902
:1054900094E00E94712C892B51F188E994E00E94DC
:1054A0008A2C8A3041F01CF4882329F007C08D3003
:1054B00011F0833219F4C093DA0205C0682F80EE30
:1054C00092E00E94232F8091E4029091E5028F35B3
:1054D0009140E8F267E772E080EE92E00E94DF2EF2
:1054E00061E671E088E994E00E945230D0CFCF911C
:1054F00008951F920F920FB60F9211242F933F938E
:105500004F935F936F937F938F939F93AF93BF93CB
:10551000EF93FF93E0918604F09187040995FF9142
:10552000EF91BF91AF919F918F917F916F915F911B
:105530004F913F912F910F900FBE0F901F90189594
:105540001F920F920FB60F9211242F933F938F93B8
:105550009F93AF93BF9380918C0490918D04A09101
:105560008E04B0918F0430918B0423E0230F2D37EC
:1055700020F40196A11DB11D05C026E8230F029657
:10558000A11DB11D20938B0480938C0490938D04F6
:10559000A0938E04B0938F04809190049091910415
:1055A000A0919204B09193040196A11DB11D809326
:1055B000900490939104A0939204B0939304BF91AC
:1055C000AF919F918F913F912F910F900FBE0F90B0
:1055D0001F9018952FB7F89460918C0470918D04EA
:1055E00080918E0490918F042FBF08953FB7F89457
:1055F0008091900490919104A0919204B0919304B1
:1056000026B5A89B05C02F3F19F00196A11DB11D1D
:105610003FBF6627782F892F9A2F620F711D811D3A
:10562000911D42E0660F771F881F991F4A95D1F799
:105630000895CF92DF92EF92FF92CF93DF936B01A9
:105640007C010E94F62AEB01C114D104E104F104AB
:1056500089F00E94872B0E94F62A6C1B7D0B683E06
:10566000734090F381E0C81AD108E108F108C851ED
:10567000DC4FEACFDF91CF91FF90EF90DF90CF909A
:1056800008958230910538F0880F991F880F991F6F
:1056900005970197F1F70895789484B5826084BDE9
:1056A00084B5816084BD85B5826085BD85B5816026
:1056B00085BDEEE6F0E0808181608083E1E8F0E086
:1056C0001082808182608083808181608083E0E8B5
:1056D000F0E0808181608083E1EBF0E08081846094
:1056E0008083E0EBF0E0808181608083EAE7F0E096
:1056F00080818460808380818260808380818160FA
:1057000080838081806880831092C100089508950D
:105710008230E8F4E82FF0E0EE0FFF1FEC56FB4F6D
:1057200071836083813041F0809169008C7F842B8C
:1057300080936900E89A089580916900440F551F8D
:10574000440F551F837F842B80936900E99A089545
:10575000823068F4813011F0E89801C0E998E82FB0
:10576000F0E0EE0FFF1FEC56FB4F11821082089500
:105770001F920F920FB60F9211242F933F934F93C6
:105780005F936F937F938F939F93AF93BF93EF93A9
:10579000FF938091940490919504892B29F0E091D6
:1057A0009404F09195040995FF91EF91BF91AF9109
:1057B0009F918F917F916F915F914F913F912F9129
:1057C0000F900FBE0F901F9018951F920F920FB65B
:1057D0000F9211242F933F934F935F936F937F9377
:1057E0008F939F93AF93BF93EF93FF938091960412
:1057F00090919704892B29F0E0919604F0919704F9
:105800000995FF91EF91BF91AF919F918F917F91FA
:105810006F915F914F913F912F910F900FBE0F901D
:105820001F901895833081F028F4813099F08230F0
:10583000A1F008958730A9F08830B9F08430D1F410
:10584000809180008F7D03C0809180008F7780934E
:105850008000089584B58F7702C084B58F7D84BDA4
:1058600008958091B0008F7703C08091B0008F7D44
:105870008093B00008950F931F93CF93DF931F92EF
:10588000CDB7DEB7282F30E0F901EA5EFC4F8491F6
:10589000F901E65DFC4F1491F901E25CFC4F0491C3
:1058A0000023C9F0882321F069830E94122C6981AA
:1058B000E02FF0E0EE0FFF1FEE5AFC4FA591B491E0
:1058C0009FB7F8948C91611103C01095812301C09A
:1058D000812B8C939FBF0F90DF91CF911F910F91E0
:1058E0000895FC01818D228D90E0805C9F4F821B8A
:1058F00091098F7399270895FC01918D828D9817D6
:1059000031F0828DE80FF11D858D90E008958FEFC5
:105910009FEF0895FC01918D828D981761F0828D23
:10592000DF01A80FB11D5D968C91928D9F5F9F73D3
:10593000928F90E008958FEF9FEF08958EE09EE2A2
:10594000892B49F085E49AE2892B29F00E940E2EDA
:1059500081110C94452A0895FC01848DDF01A80F64
:10596000B11DA35ABF4F2C91848D90E001968F7387
:105970009927848FA689B7892C93A089B1898C91A6
:1059800080648C93938D848D981306C00288F3896C
:10599000E02D80818F7D80830895CF93DF93EC018C
:1059A000888D8823C9F0EA89FB89808185FD05C03F
:1059B000A889B9898C9186FD0FC00FB607FCF5CF79
:1059C000808185FFF2CFA889B9898C9185FFEDCFC1
:1059D000CE010E94AC2CE7CFDF91CF910895CF92FA
:1059E000DF92FF920F931F93CF93DF931F92CDB758
:1059F000DEB76C0181E0D60158968C9358975B9680
:105A00009C915B975C968C915C97981307C050961D
:105A1000ED91FC915197808185FD2EC0F601038D9B
:105A200010E00F5F1F4F0F731127F02EF601848DCA
:105A3000F81211C00FB607FCF9CFD6015096ED91C0
:105A4000FC915197808185FFF1CFC60169830E9447
:105A5000AC2C6981EBCF838DE80FF11DE35AFF4F2A
:105A60006083D6015B960C935B975296ED91FC9107
:105A70005397808180620CC0D6015696ED91FC91BF
:105A8000579760835096ED91FC9151978081806487
:105A9000808381E090E00F90DF91CF911F910F9173
:105AA000FF90DF90CF900895BF92CF92DF92EF9258
:105AB000FF92CF93DF93EC016A017B01B22EE8895C
:105AC000F98982E08083411581EE580761057105EF
:105AD000A1F060E079E08DE390E0A70196010E94DB
