:100000000C9463010C94F4120C94CD120C948B019B
:100010000C948B010C948B010C948B010C948B0130
:100020000C948B010C948B010C948B010C948B0120
:100030000C948B010C9473130C948B010C948B0116
:100040000C942E190C948B010C9441130C941B13DB
:100050000C948B010C948B010C948B010C948B01F0
:100060000C948B010C948B0152656164696E67205E
:1000700076616C7565732066726F6D206565707250
:100080006F6D00726563656976657220656E616289
:100090006C6564005374617274696E672074696D75
:1000A00065726A6F62005573696E672073464946D0
:1000B0004F006363726567207772697465206261BF
:1000C000636B200073656E64206661696C65640013
:1000D0002F003B4D6465624669666F4C696D6974BB
:1000E0003D003B6D634D696E4269744C656E3D0029
:1000F0003B4D7553706C69745468726573683D004C
:100100003B4D754F766572666C4D61783D005F4D75
:1001100053636E743D003B4D64656275673D003B03
:100120004D754E6F4F766572666C6F773D31003B53
:100130004C45443D30003B4D7265643D003B4D43B2
:100140003D003B4D553D004D533D00556E73757060
:10015000706F7274656420636F6D6D616E640020F2
:100160003D2000203A00454550524F4D200020557B
:100170007365206F6E65206F6620003D200043533D
:10018000005369676E616C3A20002C2073746174AF
:10019000653A20002C206D7472756E633A20002C35
:1001A000204D43443A20002C2076616C636E743AF3
:1001B00020002C206D656E643A20002C206D537455
:1001C0006172743A20002C2050756C73653A204699
:1001D0002F4C2F464C2F4C5020002C205061747413
:1001E0004C656E3A20002061646444617461206F44
:1001F000766572666C6F7721210020627974656381
:100200006E743D0076616C3D00206D62206E6D2045
:10021000622070726F6320004D463D003B00460037
:100220006D4F766572666C6F772673746174653D89
:1002300030210000000000250028002B00040404E9
:10024000040404040402020202020203030303037F
:10025000030102040810204080010204081020015C
:10026000020408102000000008000201000003043E
:100270000700000000000000002900636D64207486
:100280006F206C6F6E672120286D61782000496EA9
:10029000697420656570726F6D20746F2064656687
:1002A00061756C7473002073746172743D00206218
:1002B0007566664D6F7665206F766572666C6F77D2
:1002C000210042253E2511241FBECFEFD8E0DEBF1E
:1002D000CDBF12E0A0E0B1E0EEE4FCE502C0059085
:1002E0000D92A235B107D9F725E0A2E5B2E001C031
:1002F0001D92A235B207E1F711E0C2E6D1E004C0D9
:100300002197FE010E94452AC136D107C9F70E94F4
:1003100078190C941A2E0C9400002F923F924F9251
:100320005F926F927F928F929F92AF92BF92CF9285
:10033000DF92EF92FF920F931F93CF93DF93CDB78E
:10034000DEB7E9970FB6F894DEBF0FBECDBF898F39
:10035000882321F081E08093F90302C01092F90311
:1003600090911E042091F50380915D03911106C0C8
:10037000283220F4882311F40C94980E1092F8037C
:1003800091E02E3F09F090E09093FA0381111BC198
:1003900040E060E083E593E00E94D813F12C2F2C1D
:1003A000312C80911B0490E00197281639060CF03F
:1003B0000AC1F101ED5AFC4FCF0140962089F39418
:1003C000222369F3EF2C9101220F331FA901455F0E
:1003D0005B4F59A348A39BA38AA35DA34CA3809121
:1003E0001B04E816E0F66E2D70E07F8F6E8F6D5A5D
:1003F0007C4F7D8F6C8FDB0150968C91882309F4A4
:10040000E0C0E8A1F9A1C080D180EE8DFF8DEE0F94
:10041000FF1FE55FFB4F00811181C60180279127F7
:1004200097FDCFC08090070490900804A090090425
:10043000B0900A04B80117FF04C066277727601B35
:10044000710B072E000C880B990B0E942327A50126
:1004500094010E9482272B013C01B601D7FE04C003
:10046000662777276C197D09072E000C880B990BDE
:100470000E942327A50194010E9482279B01AC01C1
:10048000C301B2010E94AB2820E030E040E05FE30E
:100490000E9482270E9489290C191D0917FF03C099
:1004A000119501951109601771070CF48AC0D12CC0
:1004B000C12C0C8D1D8D005F1F4F8091F503D81648
:1004C00008F044C0D8018C91C81608F03FC06D2DCB
:1004D00070E08BE693E00E949A138091F003E8129B
:1004E00033C08091ED03482F50E0D89EC001112405
:1004F000FC0123E0F695E7952A95E1F72091EF03BB
:10050000E21708F587709927FF27ED5AFC4F2091D5
:10051000EE0330E0082E02C0359527950A94E2F7E5
:100520002095308D232368E070E0641B750BDB01A0
:10053000A81BB90BA10102C0440F551FAA95E2F7F1
:10054000CA01822B808FC394D394B7CFAAA1BBA139
:10055000CC90EC8DFD8DD088ECA1FDA1A081B18166
:100560000E8D1F8D000F111F055F1B4FF801A0801E
:10057000B180EC2DF0E09F010E943E2A2B013C014E
:100580004D2D50E09A01D5010E943E2A640D751D43
:10059000861D971DE40FF51F9F01FF0F440B550BA0
:1005A0000E941F2AACA1BDA12D933C93DC0CEAA1B3
:1005B000FBA1D082AC8DBD8D50961C92F8011182AA
:1005C0001082E3940CCF1092FE031092FD038091F1
:1005D0005B038823F1F11092F6036091F6036A3011
:1005E00070F570E06F5F7F4F8BE693E00E949A1387
:1005F0002091F00330E080911D04082E000C990B2F
:100600002817390711F00C949F0E6091F60370E0E3
:100610008BE693E00E949A132091F00330E08091E2
:100620005303082E000C990B2817390711F00C946E
:100630009F0E82E090E09093FE038093FD038091F3
:10064000FD039091FE03892B09F095C010925B0386
:1006500004C080915C03882369F040E060E083E59A
:1006600093E00E94D8138091FD039091FE03892BA3
:1006700009F081C08FEF80935303F0911B04FC8F2E
:100680008090F503B3E5CB2EB3E0DB2E1BE0212EEB
:1006900014E0312EE12CF12C0FEF1FEF912CA12C47
:1006A000B12C2C8DE21608F059C00F3F3FEF130715
:1006B00001F5D1018D919C9197FD1BC0F6016089D8
:1006C00070E080E090E00E9423272B013C01C501EF
:1006D000B4010E9423272BE734E14EE25EE30E943F
:1006E00082279B01AC01C301B2010E94BF291816E9
:1006F00054F1D1018D919C9197FD26C0F801EE0F28
:10070000FF1FE55FFB4F2081318182179307E4F4DF
:10071000F601608970E080E090E00E9423272B01C1
:100720003C01C501B4010E9423272BE734E14EE2CE
:100730005EE30E9482279B01AC01C301B2010E94CB
:10074000BF2918160CF48701FFEFEF1AFF0A2FEFED
:10075000C21AD20A32E0230E311CA3CF0F3F4FEF53
:10076000140709F4B8C00093530381E090E090931C
:10077000FE038093FD038091FD039091FE0301979A
:1007800009F0A9C080915603882309F4A4C0809180
:1007900020048111A0C08091F503282F30E0203A79
:1007A000310524F4F8EDAF2EA80E02C0E8E7AE2E16
:1007B000B0901B04BA9476E0972EB7FC89C0CB2C7E
:1007C0000B2C000CDD08F601ED5AFC4F10891123AB
:1007D00009F47CC0F601EE0FFF1FE55FFB4F20819F
:1007E000318137FF73C0319521953109283652E4A4
:1007F00035070CF06BC0E0915303EE0FFF0BE55F84
:10080000FB4F0190F081E02DC901BF010E94D52965
:100810006333710508F05AC09E9EC0019F9E900DE3
:1008200011248217930708F051C0612F70E080E017
:1008300090E00E9423272B013C016091F50370E0BA
:1008400080E090E00E9423272AE037ED43EA5DE351
:100850000E9482279B01AC01C301B2010E941C27A8
:1008600087FF34C0123090F100E010E00A1570F5F7
:1008700078016FEFE61AF60AB7018BE693E00E9463
:100880009A138091F00390E0C816D90611F00C94E9
:10089000A60EB8018BE693E00E949A132091F00314
:1008A00030E080915303082E000C990B281739076C
:1008B00011F00C94A60EB0921D0482E090E090938B
:1008C000FE038093FD030093F60305C0BA9475CF31
:1008D0008FEF80931D048091FD039091FE0302979A
:1008E00009F05BC28091F503883208F456C280910A
:1008F0005D03811152C28091F6038E5F8093F703EE
:100900006091F70370E08091F60390E009968617F6
:1009100097070CF442C06F5F7F4F8BE693E00E9415
:100920009A132091F00330E080911D04082E000CF2
:10093000990B2817390711F00C94A90E6091F70351
:1009400070E08BE693E00E949A132091F00330E070
:1009500080915303082E000C990B2817390711F0CA
:100960000C94A90E8091F7038093F60313C06F5F78
:100970007F4F8BE693E00E949A132091F00330E0C2
:1009800080911D04082E000C990B2817390781F05F
:100990008091F7038E5F8093F7036091F70370E017
:1009A0008091F50390E001976817790704F31AC066
:1009B0006091F70370E08BE693E00E949A13209118
:1009C000F00330E080915303082E000C990B281798
:1009D0003907F1F68091F70381508093F703FF24E4
:1009E000F39401C0F12C8091F5039091F7038917DE
:1009F00010F0F11003C081508093F7034091F7038A
:100A00006091F60383E593E00E94D8138091F6038A
:100A1000FF2049F02091F70330E0D901A81BB1096C
:100A200098979CF4BAC19091F503292F30E0281BC8
:100A30003109283231050CF4B0C19E3F08F092C153
:100A4000B98DB23011F40C943F1090915B038091FA
:100A50005A03981708F03CC180915703882309F482
:100A6000A5C082E00E94EF1686EF91E00E94BD16BD
:100A70008BE30E94EF16E12C80911B04E816C0F571
:100A80008E2D90E0FC01EE0FFF1FE55FFB4F008114
:100A900011810115110551F1FC01ED5AFC4F8089BE
:100AA000882321F16E2D17FF05C0606A119501950D
:100AB000110901C06068D02E07FD04C0E02FE06876
:100AC000DE2E01C060618CEA92E00E94F5106D2D6F
:100AD0008CEA92E00E94F510612F772760688CEA1B
:100AE00092E00E94F5108BE30E94EF16E394C4CFCE
:100AF0008091F70380FF03C089EF91E002C08BEF84
:100B000091E00E94BD16E091F603E0FF1BC0E150AA
:100B1000E093F603E6958091EF03E81728F4F0E000
:100B2000ED5AFC4F208D2A8F8A8D8F7080688A8FB6
:100B3000682F8CEA92E00E94F5108091F6038E5F98
:100B40008093F6031091F6038091F703811790F0DC
:100B5000E12FE6958091EF03E81728F4F0E0ED5AD5
:100B6000FC4F308D3A8F6A8D8CEA92E00E94F5102E
:100B70001E5FEACF8BE30E94EF1684E192E00E94B1
:100B8000BD168091530360E170E0082E000C990BB4
:100B90000E94F4168BE30E94EF168EEF91E00E9404
:100BA000BD1680911D0460E170E06BC082E00E9480
:100BB000EF168DEF91E00E94BD168BE30E94EF16B9
:100BC000E12C80911B04E81648F58E2D90E08C01F5
:100BD000000F111F055F1B4FD8012D913C91232B56
:100BE000D9F0FC01ED5AFC4F80898823A9F080E5FB
:100BF0000E94EF166AE070E08E2D0E94AF168DE322
:100C00000E94EF166AE070E0F801808191810E94F5
:100C1000F4168BE30E94EF16E394D3CF80E092E0CA
:100C20000E94BD161091F6038091F703811770F0B2
:100C3000612F70E08BE693E00E949A136AE070E007
:100C40008091F0030E94AF161F5FEECF8BE30E94EE
:100C5000EF1683E092E00E94BD16809153036AE094
:100C600070E0082E000C990B0E94F4168BE30E9492
:100C7000EF1687E092E00E94BD1680911D046AE0A5
:100C800070E0082E000C990B0E94F4168BE30E9472
:100C9000EF168091FA03882339F08BE092E00E94EE
:100CA000BD168BE30E94EF1680915903882381F0D3
:100CB000F98DF11103C08DE092E005C0298D22303D
:100CC00039F48FE092E00E94BD168BE30E94EF168C
:100CD0001092F90380915B03F11002C08823B9F1EF
:100CE00090915903992389F090915A03891768F4D8
:100CF00081E192E00E94BD166AE070E080915B03A2
:100D00000E94AF168BE30E94EF1620915B032F5FCA
:100D100020935B03FF20A9F0398D311109C0809128
:100D2000F50390E03091F703831B910988974CF00D
:100D3000222369F08091F7038F5F0E94961710922B
:100D4000F60390915B0380915A03891738F083E092
:100D50000E94EF1685E492E00E94BD1681E0809328
:100D6000620318C0882389F02091F70330E02D3FFB
:100D700031055CF0498D411103C01092F9030AC09E
:100D80000E9496171092F60305C0598D523011F04B
:100D90000E944F1781E08093F8038091F80381113E
:100DA000B7C780915403609155036AA7811103C0AE
:100DB000662309F4ABC77AA5772309F428C5809187
:100DC000FD039091FE03029709F421C5809158021A
:100DD000811129C082E380939F0291E090939D024C
:100DE0001092680210929A0210929B0287E0809300
:100DF0009C0280E880939E028FEF8093A3028093F1
:100E0000A4028093A5028093A6021092AB0223E570
:100E100033E03093A2022093A1021092A802109214
:100E2000A7029093580280911E04882399F0809124
:100E3000A1029091A202FC01EA55FF4F1082339764
:100E4000108200E011E09924939488248A9427E08A
:100E5000722EADC18FEF8093A3028093A402809382
:100E6000A5028093A6021092AB021092A8021092E3
:100E7000A7021092680210929A0210929B0287E0D9
:100E800080939C02809121048093A9020091A10289
:100E90001091A202F801E853FF4FF08083E08F1514
:100EA00008F0AAC4B697608170E080E090E00E94EC
:100EB00023272AE037ED43E25DE30E9482274B01BE
:100EC0005C0120E030E0A9010E94BF2920E030E071
:100ED00040E05FE387FD05C0C501B4010E94AB2877
:100EE00004C0C501B4010E94AA280E9489295801A2
:100EF00090E1A90EB11CF801E854FF4F212C70E0DD
:100F0000D5018D915D01861760F1E22C8E2D90E068
:100F1000EE20F1F09E01280F391FD901DC909801D5
:100F20002D0D311D2D0D311D28543F4F4081518114
:100F3000D9012D913C914217530754F421E030E040
:100F40002C0F3D1F820F931FDC01DC92EA94DECF51
:100F500021E030E02C0F3D1F820F931FDC017C93BA
:100F600023947F5F3296F712CBCFFE013196FA8B36
:100F7000E98BFDA3ECA340912001509121016091E8
:100F80002201709123014BA75CA76DA77EA7BE012C
:100F9000675F7F4F7C8B6B8BCE010D969E8B8D8B0D
:100FA000DE015196B88FAF8BB989BAAB8CA18B1B80
:100FB000821508F021C4ACA1BDA12D91BDA3ACA3A5
:100FC0004091A1023091A202842F932F820F911D94
:100FD000820F911DFC01E854FF4F208131813D8F2C
:100FE0002C8F1216130604F78FEF8093A3028093C1
:100FF000A4028093A5028093A6023595279539AB6C
:1010000028ABAE014F5F5F4F5BA34AA31FA21EA296
:101010006FEF7FEF7B8F6A8F8C8D9D8D092E000C7B
:10102000AA0BBB0B8EAB9FABA8AFB9AF1FEF8AA1CA
:101030009AA9891B821508F0B7CFAAA1BBA10D916F
:10104000BBA3AAA33091A1022091A202832F922FC9
:10105000800F911D800F911DFC01E854FF4FE0802F
:10106000F1806EA97FA988AD99AD0E9423274B011D
:101070005C016701F7FE04C0CC24DD24CE18DF0834
:101080002DEC3CEC4CE45EE3C501B4010E948227E8
:101090000E94892988A999A98C199D0997FF03C0E5
:1010A000919581959109681779070CF085C22DEC0F
:1010B0003CEC4CEC5EE3C501B4010E9482270E9427
:1010C00089298C8D9D8D8C199D0997FF03C0919561
:1010D00081959109681779070CF0B1C6A8CF802FC8
:1010E0000E944118E090A102F090A202F701ED5594
:1010F000FF4F8082B60161507109C70148960E9476
:101100009A13F701E356FF4F808190E02091A502EA
:10111000022E000C330B8217930709F499C6209115
:10112000A602022E000C330B8217930709F490C617
:10113000E091A102F091A202ED55FF4F80818F3F17
:1011400009F410831091AA029092AB02C090A10200
:10115000D090A202F601EE55FF4F8081181708F4D7
:10116000ACC08091A1029091A202FC01EE55FF4F0C
:101170002081121708F41F5F40919B0250E02091DC
:10118000A902022E000C330BFC01421753070CF08E
:10119000B9C0E353FF4F2081222309F4ADC0109260
:1011A000680210929A0210929B0270929C02209107
:1011B000A1023091A202412F50E0F901EE55FF4FFC
:1011C000808190E04E97481759070CF015C3BA96E6
:1011D0009082C12ED12CE090A102F090A202F701E2
:1011E000EE55FF4F808190E00197C816D9060CF0AC
:1011F00053C0B601C70148960E949A13F701E356FF
:10120000FF4FA080B12C8091A402082E000C990BF6
:10121000A816B906A9F18091A302082E000C990B1B
:10122000A816B90609F012C6E090A102F090A20239
:10123000B60161507109C70148960E949A13F701DF
:10124000E356FF4F80819701280F311D280F311D74
:10125000D901A854BF4FE091A102F091A202809160
:10126000A40222E08202E00DF11D1124E854FF4F98
:101270002D913C9180819181821793070CF4E6C5F2
:101280008091A402082E000C990B01E08A159B05A1
:1012900009F000E01093AA022091A1023091A2026D
:1012A000F901EE55FF4F808190E00197C816D906ED
:1012B0000CF415CFBA9610829FC2E12EF12CB70123
:1012C000C60148960E949A13F601E356FF4F8081AB
:1012D00090E02091A302022E000C330B821793079B
:1012E00009F424C62091A402022E000C330B8217AD
:1012F000930709F021C61AC6193208F450CFBA97DD
:1013000010837AC2EC55FF4F108382E00E94EF16E3
:1013100083E192E00E94BD168BE30E94EF1686E106
:1013200092E00E94BD16E091A302EE0FFF0BE55F75
:10133000FB4F6AE070E0808191810E94F4168BE39C
:101340000E94EF168AE192E00E94BD16E091A4028D
:10135000EE0FFF0BE55FFB4F6AE070E0808191814B
:101360000E94F4168BE30E94EF168EE192E00E9439
:10137000BD16E091A502EE0FFF0BE55FFB4F6AE0A3
:1013800070E0808191810E94F4168BE30E94EF1639
:1013900082E292E00E94BD16E091A602EE0FFF0BE2
:1013A000E55FFB4F6AE070E0808191810E94F41656
:1013B0008BE30E94EF1680E092E00E94BD168091C0
:1013C000410290914202A091430289839A83AB83A8
:1013D000B12C8E010F5F1F4F86E2E82E82E0F82EBF
:1013E000CB2CD12C80919A0290E020919F02C816BC
:1013F000D906DCF4B21628F4F601E859FD4F7081E5
:101400007BAB1F928BA98F93FF92EF921F930F9349
:101410000E94672BC8010E94BD16B3940F900F90D5
:101420000F900F900F900F90DBCFB21628F4F601BB
:10143000E859FD4F90819CAB8CA982958F701F92CB
:101440008F938BE292E09F938F931F930F930E9451
:10145000672BC8010E94BD1680919B028770815046
:101460000F900F900F900F900F900F908430F0F02E
:1014700080919F02B81628F4F601E859FD4FA0812B
:10148000ADAB8DA98F701F928F938BE292E09F93EB
:101490008F931F930F930E94672BC8010E94BD1664
:1014A0000F900F900F900F900F900F908BE30E9472
:1014B000EF1680E392E00E94BD166AE070E0809132
:1014C000A7029091A8020E94F4168BE30E94EF16E7
:1014D00087E192E00E94BD166AE070E080919B0275
:1014E0000E94AF168BE30E94EF1680915903882368
:1014F00049F180911F04811107C083E392E00E94AB
:10150000BD168BE30E94EF168091AA028823D1F0CA
:1015100087EF91E00E94BD166AE070E08091AA0218
:101520000E94AF168BE30E94EF1685E392E00E94C3
:10153000BD166AE070E08091F6030E94AF168BE35F
:101540000E94EF168091FA03882339F08BE092E035
:101550000E94BD168BE30E94EF1610921E0481E0DC
:101560008093F803809362038091F703B98DB111E2
:1015700008C02091F50330E0281B310928323105DD
:101580009CF081500E9496171092F60381E08093A0
:10159000200480915903882339F087E392E00E9468
:1015A000BD168BE30E94EF1683E00E94EF1685E4E0
:1015B00092E00E94BD162BC11E141F040CF049C5F9
:1015C0000093A602BEA1BF5FBEA3EA8DFB8DEE0D08
:1015D000FF1DFB8FEA8F8091A3028F3F09F427CD77
:1015E0008091A5028F3F09F422CD8091A4028F3F04
:1015F00009F41DCD8091A6028F3F09F418CD4BA5AB
:101600005CA56DA57EA54D875E876F87788B498722
:101610005A876B877C8761E070E079A768A7812C87
:10162000912CE090A102F090A202F701EE55FF4F3D
:10163000808190E0881699060CF0F9CCB401C701BE
:1016400048960E949A13F701E356FF4F0081802FBE
:1016500090E02091A302022E000C330BE090A10237
:10166000F090A2028217930709F478C32091A40294
:10167000022E000C330B8217930709F46FC32091DD
:10168000A502022E000C330B8217930709F466C3E0
:101690002091A602022E000C330B8217930709F447
:1016A0005DC3F701ED55FF4F60819401261B3109A1
:1016B0008091A902082E000C990B821793070CF059
:1016C0007DC331968082482DC7010E94D813809136
:1016D000A1029091A2023090A602A091A402AE8F26
:1016E0000091A502B091A302B8A3FC01E30DF11D86
:1016F00037FCFA952089FC01EA0FF11DA7FDFA9548
:10170000C088D12CC20ED11CFC01E00FF11D07FDD9
:10171000FA952089C21AD108FC01EB0FF11DB7FD23
:10172000FA9520891092AB02C21AD108D7FE03C0E5
:10173000D194C194D1080D2C000CEE08FF08FC01D7
:10174000EE55FF4FA080B12CB5010B2C000C880B7F
:10175000990B0E9423272AE037ED43E25DE30E94C4
:1017600082272B013C0120E030E0A9010E94BF2923
:1017700020E030E040E05FE387FDFAC2C301B20140
:101780000E94AB280E9489296C157D058E059F0556
:101790000CF44DCC5EA16FA1561349CC7E8D88A16F
:1017A000781709F444CC301609F441CC081709F431
:1017B0003ECC371609F43BCC381609F438CC7017F8
:1017C00009F435CCFE013D96DE01199681919D917B
:1017D0008913D3C26F89788D6E177F07B9F78A8D09
:1017E0009B8D66E070E00E94E9297093A8026093E7
:1017F000A7024AA541111BCB80911E04882339F012
:101800008091F903882319F081E08093F803809197
:101810005403882309F476C28091FD039091FE035E
:101820000197029708F06EC28091F803811170C28F
:101830008091F503883228F480915D03882309F4B0
:1018400065C280915F0390916003892B09F4A2C067
:101850008091580381119EC08091F603882341F046
:1018600040E060E083E593E00E94D8131092F60315
:1018700010911B04115017FD8DC0C12E012E000CBC
:10188000DD08F601EE0FFF1FE55FFB4F80819181C0
:1018900097FF03C091958195910920915F03309145
:1018A00060038217930730F3F601ED5AFC4F8089ED
:1018B000882301F38130A9F4E12CF12CB7018BE6E8
:1018C00093E00E949A138091F00390E0C816D90625
:1018D00089F2EFEFEE1AFE0AFAE0EF16F10471F763
:1018E00002C0883038F688E28093F7038091F503D0
:1018F000883208F44FC018E2E12EF12C8091F503F4
:1019000090E00197E816F9060CF044C0B7018BE6A9
:1019100093E00E949A13E091F003F0E0EE0FFF1FB6
:10192000E55FFB4F80819181B7011816190674F4A9
:101930008BE693E00E949A13E091F003F0E0EE0F43
:10194000FF1FE55FFB4F8081918110C08BE693E024
:101950000E949A13E091F003F0E0EE0FFF1FE55FA5
:10196000FB4F8081918191958195910920915F0331
:10197000309160038217930758F01093F703412FBB
:1019800060E083E593E00E94D813FF24F39419C02C
:101990001F5FB2CF9091FA038091F503992321F054
:1019A00090915803911182508093F7038091F60330
:1019B000882331F040E060E083E593E00E94D81393
:1019C000F12C80915D0390915E03981708F4FFC09D
:1019D0002091FA03222351F020915803222331F061
:1019E000891721F091E09093610302C01092610386
:1019F00090915703992309F484C0811157C082E064
:101A00000E94EF1689E392E00E94BD168BE30E94CC
:101A1000EF16E12C80911B04E816C0F58E2D90E0A6
:101A2000FC01EE0FFF1FE55FFB4F008111810115E7
:101A3000110551F1FC01ED5AFC4F8089882321F1F9
:101A40006E2D17FF05C0606A11950195110901C03F
:101A50006068D02E07FD04C0202F2068D22E01C060
:101A600060618CEA92E00E94F5106D2D8CEA92E0A4
:101A70000E94F510612F772760688CEA92E00E943F
:101A8000F5108BE30E94EF16E394C4CF84E192E05B
:101A90000E94BD168091530360E170E0082E000C97
:101AA000990B0E94F4168BE30E94EF168091F703C6
:101AB00080FF06C08BEF91E00E94BD1610E014C0BD
:101AC00089EF91E0F9CFE12FE6958091EF03E817D8
:101AD00028F4F0E0ED5AFC4F308D3FA76FA58CEA5B
:101AE00092E00E94F5101E5F8091F703181758F3DB
:101AF00004C08091610381116DC08BE30E94EF16D9
:101B000069C0811150C082E00E94EF168CE392E020
:101B10000E94BD168BE30E94EF1610E080911B041B
:101B2000181768F5812F90E09C01220F331FA9013F
:101B3000455F5B4F6A01DA012D913C91232BE9F05F
:101B4000FC01ED5AFC4F80898823B9F08FEB91E0BE
:101B50000E94BD166AE070E0812F0E94AF1681E3FB
:101B600092E00E94BD166AE070E0F60180819181EA
:101B70000E94F4168BE30E94EF161F5FCFCF83E025
:101B800092E00E94BD16809153036AE070E0082E37
:101B9000000C990B0E94F4168BE30E94EF1680E074
:101BA00092E00E94BD1610E08091F703181708F02C
:101BB000A0CF612F70E08BE693E00E949A136AE059
:101BC00070E08091F0030E94AF161F5FEDCF81E0BF
:101BD000809361031092F90381E080936203809304
:101BE000F8038091FA03882351F1F11021C080910C
:101BF00058038823E9F090915D0380915E03981368
:101C00000DC08FE392E00E94BD166AE070E0809103
:101C10005D030E94AF168BE30E94EF1680915D0377
:101C20008F5F80935D038091F7030E94961707C032
:101C30008BE092E00E94BD168BE30E94EF1680912C
:101C40005903882309F418C28091FA03811110C244
:101C50008091610381110CC2F98DF11103C08DE0F7
:101C600092E005C0298D223039F48FE092E00E9485
:101C7000BD168BE30E94EF1680911F04811107C0EF
:101C800083E392E00E94BD168BE30E94EF16FF20D3
:101C900041F180915903882369F087E392E00E9423
:101CA000BD166AE070E080915C030E94AF168BE382
:101CB0000E94EF1680915C038F5F80935C03398DE7
:101CC000311109C08091F50390E02091F703821B48
:101CD0009109889734F08091F7030E94961710922B
:101CE000F60380916103811107C083E00E94EF1623
:101CF00085E492E00E94BD168091FA03811102C032
:101D000010925D038091F803811102C01092F903D3
:101D10008091F5038E3F60F08091FD039091FE036A
:101D2000892B31F480E292E00E9443171092F9036C
:101D30008091F9038111A8C10E944F17A5C180911C
:101D4000F6038F5F8093F6030C94ED0287010C94E9
:101D500036048091F7038F5F0C947E04F701EE55F3
:101D6000FF4F808190E001978816990651F599CC34
:101D7000C301B2010E94AA2805CD9F3F19F08F3FF1
:101D800009F028CDA818B9088091A902082E000CE6
:101D9000990B8A159B050CF04AC91D8719871E8768
:101DA0001A871F871B87188B1C877FEF871A970A54
:101DB00088A599A5019699A788A733CC1092AB0264
:101DC0000BC08091AB02811107C0F701ED55FF4FA9
:101DD000808291E09093AB0268A579A5C7014896EF
:101DE0000E949A13F701E356FF4F8081AAE00A9FF1
:101DF000800D11248A3008F48C5980FC03C02D8991
:101E00009E8902C02B899C89E22FF92F90E0482FF0
:101E100050E06081262F062E000C330B2417350767
:101E200019F06F3F19F48083292F01C02FEF9F5FB6
:101E3000943009F4BACF31962F3F59F3B6CF1E1420
:101E40001F040CF012C10093A402BCCB1F5FC1C9D8
:101E50001150123008F46CC9E12EF12CC090A1028F
:101E6000D090A202B70162507109C60148960E9443
:101E70009A13F601E356FF4F808190E02091A5026E
:101E8000022E000C330BA701415051097A01821731
:101E9000930741F02091A602022E000C330B82170B
:101EA0009307F1F4C090A102D090A202B701C6013D
:101EB00048960E949A13F601E356FF4F808190E006
:101EC0002091A502022E000C330B8217930761F1BB
:101ED0002091A602022E000C330B8217930721F1EA
:101EE000C090A102D090A202B701C60148960E94FC
:101EF0009A13F601E356FF4F208130E08091A6024D
:101F0000082E000C990B2817390709F011C9E09128
:101F1000A102F091A202ED55FF4F1250108310E084
:101F2000802F0E94411895CF1250FACF09251F5FCC
:101F3000802F0E9441180AC9C090A102D090A2022D
:101F4000F601EE55FF4F208130E021503109E216B5
:101F5000F3060CF006C901113EC02091A502022E25
:101F6000000C330B2817390709F0FBC85FEFE51A9F
:101F7000F50AB701C60148960E949A13F601E35686
:101F8000FF4F208130E08091A602082E000C990BB3
:101F90002817390709F45BC0C090A102D090A202B3
:101FA000B701C60148960E949A13F601E356FF4F07
:101FB000208130E08091A402082E000C990B281794
:101FC000390709F0CEC8E091A102F091A202E453D2
:101FD000FF4F1082C6C82091A602022E000C330BC0
:101FE0002817390791F56FEFE61AF60AB701C6010F
:101FF00048960E949A13F601E356FF4F208130E085
:102000008091A502082E000C990B28173907F9F0CA
:10201000C090A102D090A202B701C60148960E94CA
:102020009A13F601E356FF4F208130E08091A3021E
:10203000082E000C990B2817390739F4E091A102FA
:10204000F091A202E453FF4F108201E08AC81F5FA3
:102050006ECF0093A502FFA1FF5FFFA32A8D3B8DEA
:102060002E193F093B8F2A8FB6CA0093A302F3CFE4
:10207000FF2009F436CE11CEF1101CCE32CE8111E4
:102080000C94B4060C94CA06E9960FB6F894DEBF19
:102090000FBECDBFDF91CF911F910F91FF90EF90B9
:1020A000DF90CF90BF90AF909F908F907F906F9078
:1020B0005F904F903F902F9008950895CF92DF92B8
:1020C000EF92FF920F931F93CF93DF936C017A01EE
:1020D0008B01C0E0D0E0CE15DF0581F0D8016D9115
:1020E0008D01D601ED91FC910190F081E02DC601AA
:1020F0000995892B11F02196EECF7E01C701DF9162
:10210000CF911F910F91FF90EF90DF90CF900895A6
:10211000089580E090E00895FC01538D448D252FB3
:1021200030E0842F90E0821B930B541710F0CF9671
:10213000089501970895FC01918D828D981761F0A3
:10214000828DDF01A80FB11D5D968C91928D9F5FEE
:102150009F73928F90E008958FEF9FEF0895FC0199
:10216000918D828D981731F0828DE80FF11D858D4C
:1021700090E008958FEF9FEF0895FC01918D228DDF
:10218000892F90E0805C9F4F821B91098F73992764
:1021900008958CEA92E00E94BD1021E0892B09F499
:1021A00020E0822F0895FC01848DDF01A80FB11D6E
:1021B000A35ABF4F2C91848D90E001968F7399277D
:1021C000848FA689B7892C93A089B1898C9183705B
:1021D00080648C93938D848D981306C00288F38954
:1021E000E02D80818F7D80830895EF92FF920F9381
:1021F0001F93CF93DF93EC0181E0888F9B8D8C8DB3
:10220000981305C0E889F989808185FD26C0F62EDE
:102210000B8D10E00F5F1F4F0F731127E02E8C8D79
:10222000E8120CC00FB607FCFACFE889F989808163
:1022300085FFF5CFCE010E94D310F1CF8B8DFE012B
:10224000E80FF11DE35AFF4FF0829FB7F8940B8F10
:10225000EA89FB89808180620AC09FB7F894EE8981
:10226000FF896083E889F989808183708064808335
:102270009FBF81E090E0DF91CF911F910F91FF9080
:10228000EF900895CF93DF93EC01888D8823C9F0F8
:10229000EA89FB89808185FD05C0A889B9898C916F
:1022A00086FD0FC00FB607FCF5CF808185FFF2CF0A
:1022B000A889B9898C9185FFEDCFCE010E94D310FA
:1022C000E7CFDF91CF9108950895FC0109940E9412
:1022D000112BCF92DF92EF92FF920F931F93F894FE
:1022E0000E94CF180091490310914A0320914B039B
:1022F00030914C036B017C01C01AD10AE20AF30A47
:10230000970186016093490370934A0380934B03BE
:1023100090934C030A3511052105310578F181E0D0
:10232000C8168DE7D806E104F10410F4960102C046
:1023300021E03DE74A9B03C0319521953109809109
:102340002A048C38D8F480912A048F5F80932A0461
:1023500080912B04609129040E94C92990932B0439
:10236000E0912B04F0E0EE0FFF1FE35DFB4F3183A4
:10237000208380912B048F5F80932B0478941F918E
:102380000F91FF90EF90DF90CF900895FC01808136
:102390009181009711F00C94E02660E070E0CB0191
:1023A00008950F931F93CF93DF93EC018881998158
:1023B000009729F02A813B812617370788F48B0183
:1023C0006F5F7F4F0E944B2A009761F0998388834B
:1023D0001B830A832C813D81232B11F4FC01108285
:1023E00081E001C080E0DF91CF911F910F910895AE
:1023F000EF92FF920F931F93CF93DF93EC017B013A
:102400008A01BA010E94D1112881398181110DC040
:102410002115310519F0C9010E9457261982188229
:102420001D821C821B821A8206C01D830C83B70189
:10243000C9010E94462BCE01DF91CF911F910F91D0
:10244000FF90EF900895CF93DF93EC016115710534
:1024500059F0FB0101900020E9F73197AF01461BCD
:10246000570B0E94F8110CC088819981009711F0D8
:102470000E945726198218821D821C821B821A8292
:10248000CE01DF91CF910895FF920F931F93CF93C9
:10249000DF9300D0CDB7DEB7FF24F3948CEA92E04F
:1024A0000E94BD10892B09F450C08CEA92E00E9472
:1024B0009B108A3041F01CF4882329F007C08D302E
:1024C00011F0833219F4F092550222C089831A82E6
:1024D00000915103109152030F5F1F4FB8018DE41B
:1024E00093E00E94D111882399F020914D033091FF
:1024F0004E038091510390915203BE016F5F7F4F55
:10250000820F931F0E94462B109352030093510396
:1025100080915103909152038F35914008F4BECFC2
:1025200066E472E08DE493E00E9423128BE792E070
:102530000E94D4166AE070E08EE591E00E94F416E5
:1025400089E792E00E944317A9CF0F900F90DF9187
:10255000CF911F910F91FF9008950E94C910811192
:102560000C9444120895FC01808191810C945726AB
:10257000FC0111821082138212821582148261156D
:10258000710551F0FB0101900020E9F73197AF018F
:10259000461B570B0C94F81108951F920F920FB61B
:1025A0000F9211242F933F934F935F936F937F93D9
:1025B0008F939F93AF93BF93EF93FF93E0910601A7
:1025C000F09107010995FF91EF91BF91AF919F9114
:1025D0008F917F916F915F914F913F912F910F90CC
:1025E0000FBE0F901F9018951F920F920FB60F926B
:1025F00011242F933F934F935F936F937F938F9308
:102600009F93AF93BF93EF93FF93E0910401F091F9
:1026100005010995FF91EF91BF91AF919F918F9126
:102620007F916F915F914F913F912F910F900FBECE
:102630000F901F9018951F920F920FB60F921124B2
:102640002F933F934F935F936F937F938F939F93BA
:10265000AF93BF93EF93FF938CEA92E00E94D31065
:10266000FF91EF91BF91AF919F918F917F916F916A
:102670005F914F913F912F910F900FBE0F901F9040
:1026800018951F920F920FB60F9211242F938F93CC
:102690009F93EF93FF93E091BC02F091BD02808184
:1026A000E091C202F091C30282FD12C0908180913C
:1026B000C5028F5F8F732091C602821751F0E0919F
:1026C000C502F0E0E455FD4F958F8093C50201C02F
:1026D0008081FF91EF919F918F912F910F900FBE6D
:1026E0000F901F9018951F920F920FB60F92112402
:1026F0002F933F934F935F936F937F938F939F930A
:10270000AF93BF93EF93FF93E0915202F091530286
:102710000995FF91EF91BF91AF919F918F917F911B
:102720006F915F914F913F912F910F900FBE0F903E
:102730001F901895CF93DF93FC01EE57FF4F408118
:10274000469FF001479FF00D1124DF0123E0B6956D
:10275000A7952A95E1F7EC01CC57DF4F2881A21706
:1027600010F52197288130E0E770FF2702C03595EA
:102770002795EA95E2F7FC01EA0FF11D308123234A
:1027800030E058E0541B469F402D11244770541BE5
:1027900002C0359527955A95E2F7322FFC01EB5789
:1027A000FF4F208301C03FEF832FDF91CF9108952A
:1027B000FC01EE55FF4F2081222309F45AC0E25953
:1027C000F109DC0158961192AE17BF07E1F74111EC
:1027D00002C04FEF420F262F2695542F569560FFCB
:1027E00013C0FC01E456FF4F6081261720F4FC0162
:1027F000E20FF11D308D632F6F70FC01E60FF11DAC
:1028000060896F5F608B2F5FDC01A456BF4F52174A
:10281000E8F06C91261720F4FC01E20FF11D308DD9
:10282000E32FF0E064E0F595E7956A95E1F7E80FAE
:10283000F91F60896F5F608B632F6F70FC01E60F7B
:10284000F11D60896F5F608B2F5FE1CF40FD11C08C
:10285000FC01E456FF4F2081521720F4FC01E50FE4
:10286000F11D308D3F70FC01E30FF11D8089815017
:10287000808B08950C944B280C9443286FEB8FEFBA
:1028800090E00E943A1468E780EF90E00E943A14CA
:1028900060E081EF90E00E943A1464E082EF90E003
:1028A0000E943A1463E085EF90E00E943A146FE1D1
:1028B00083EF90E00E943A1460E484EF90E00E947D
:1028C0003A148EE892E00C944317CF938FEF90E088
:1028D0000E943C14982F91709093560381FB992786
:1028E00090F99093540382FB992790F990935503A4
:1028F00083FB992790F99093570384FB992790F9CC
:102900009093590385FB992790F99093030186FBD7
:10291000882780F98093580380EF90E00E943C1450
:102920008093020182EF90E00E943C1480935A034E
:1029300085EF90E00E943C1480935E0383EF90E06B
:102940000E943C14C82F84EF90E00E943C142C2F6E
:10295000CC0F330B322F2227280F311D3093600309
:1029600020935F0381EF90E00E943C14811101C02D
:1029700081E180932104CF910895CF93C82F8031B6
:1029800020F482E492E00E94BD1660E170E08C2F9A
:10299000CF910C94AF168F929F92AF92BF92CF922D
:1029A000DF92EF92FF928FB7F894C0904505D090D8
:1029B0004605E0904705F09048058FBF809164027E
:1029C00090916502A0916602B0916702C816D9067F
:1029D000EA06FB0628F4809163028F5F809363020E
:1029E000C0926402D0926502E0926602F0926702A1
:1029F000A0916302B0E027E339E841E450E00E948F
:102A000059284B015C01C701B60128EE33E040E0D4
:102A100050E00E94FD29C501B401620F731F841F9D
:102A2000951FFF90EF90DF90CF90BF90AF909F9059
:102A30008F9008950F931F930E94CF180091490320
:102A400010914A0320914B0330914C03DC01CB01E0
:102A5000801B910BA20BB30B82309D47A105B105E2
:102A600080F14A9903C02FEF32E802C021E03DE730
:102A700080912A048C38D8F480912A048F5F809347
:102A80002A0480912B04609129040E94C929909303
:102A90002B04E0912B04F0E0EE0FFF1FE35DFB4FF2
:102AA0003183208380912B048F5F80932B040E94BD
:102AB000CF186093490370934A0380934B0390931C
:102AC0004C0380916102909162029C012F5F3F4F05
:102AD0003093620220936102892B51F4809160024D
:102AE00091E0980F90936002811102C00E94CB1474
:102AF00020915402E2E7F2E08491EEE5F2E0949155
:102B0000EAE4F2E0E491EE2309F43CC0882339F1D1
:102B1000833091F038F48130A9F0823001F584B52A
:102B20008F7D12C0873091F08830A1F08430B9F4E5
:102B3000809180008F7D03C0809180008F7780938B
:102B400080000DC084B58F7784BD09C08091B0002E
:102B50008F7703C08091B0008F7D8093B000F0E04C
:102B6000EE0FFF1FED5CFD4FA591B4913FB7F894B8
:102B7000211104C08C919095982302C0EC919E2B5A
:102B80009C933FBF109254021F910F910895E898B3
:102B90008DE590E19093050180930401E9E2F4E072
:102BA000118213821282089589E691E190930501C2
:102BB00080930401E9E6F0E080818C7F816080836E
:102BC000E89A08958EBD0DB407FEFDCF8EB5089529
:102BD000CF93DF932A981C99FECF8EE70E94E215CF
:102BE000C0E3D0E0CE010E943C140E94E215219681
:102BF000C833D105B9F72A9ADF91CF910895CF93C1
:102C0000C62F2A981C99FECF0E94E2158C2F0E9495
:102C1000E2152A9ACF9108952A981C99FECF862B07
:102C20000E94E21580E00E94E2152A9A08952A98EF
:102C30001C99FECF0E94E2151C99FECF2A9A089596
:102C400090ED980F9A3070F09FE9980F963010F43D
:102C500099EA05C09FEB980F963018F499EC980FFD
:102C600001C0982F892F08951F93CF93DF93C82F0A
:102C7000D0E0CE010E94BF160E942016182F129598
:102C8000107FCE0101960E94BF160E942016810F70
:102C9000DF91CF911F910895009769F0FC01019099
:102CA0000020E9F73197AF01481B590BBC018CEAB2
:102CB00092E00C945E1080E090E0089584E492E04D
:102CC0000C944C16CF93DF930E944C16EC010E949B
:102CD0005E168C0F9D1FDF91CF9108958F929F926A
:102CE000AF92BF920F931F93CF93DF93CDB7DEB711
:102CF000A1970FB6F894DEBF0FBECDBF19A2423028
:102D000008F44AE08E010F5D1F4F842E912CA12CF8
:102D1000B12CA50194010E94FD29E62FB901CA0139
:102D200001501109EA3014F4E05D01C0E95CD801FA
:102D3000EC93232B242B252B61F7C8010E944C1602
:102D4000A1960FB6F894DEBF0FBECDBFDF91CF9135
:102D50001F910F91BF90AF909F908F900895AB01FE
:102D6000682F4115510521F48CEA92E00C94F5107E
:102D700070E080E090E00C946E160C944C1620915C
:102D80005103309152038217930760F420914D0351
:102D900030914E032115310529F0F901E80FF91F93
:102DA0008081089580E008950F931F93CF93DF9360
:102DB0008C01C0E0D0E0F801EC0FFD1F64916623A8
:102DC00041F08CEA92E00E94F510892B11F02196D7
:102DD000F2CFCE01DF91CF911F910F910895682F0F
:102DE0008CEA92E00C94F510CF92DF92EF92FF9272
:102DF000CF93DF936115710559F4682F8CEA92E047
:102E0000DF91CF91FF90EF90DF90CF900C94F51071
:102E10006C01990FEE08FF086A307105D9F4F7FECE
:102E200017C08DE20E94EF16EC0166277727CB01D1
:102E30006C197D098E099F094AE00E946E168C0F5D
:102E40009D1FDF91CF91FF90EF90DF90CF9008957D
:102E50004AE001C0462FC701B601DF91CF91FF9034
:102E6000EF90DF90CF900C946E16CF93DF936AE0D3
:102E700070E00E94AF16EC010E945E168C0F9D1F41
:102E8000DF91CF910895CF93DF930E94D416EC0188
:102E90000E945E168C0F9D1FDF91CF9108951092B6
:102EA000F50310921B0410921C0410926B031092F5
:102EB000EA031092EB0387E08093EC031092FE0389
:102EC0001092FD038FEF80931D0480935303ABE0BA
:102ED000B4E0E3E6F3E01D921D92119283E0EB363D
:102EE000F807C9F71092F80386E990E09093FC0385
:102EF0008093FB0380E090E0A0E8BEE380930704AA
:102F000090930804A0930904B0930A041092F60366
:102F10001092F9031092FA0310921E0481E080933C
:102F20001F04109220041092F70308950F931F932B
:102F3000CF931092F903882309F49FC09091F50371
:102F4000992309F49AC0C82F492F50E0282F30E068
:102F50002417350794F0981758F48EEA92E00E94EF
:102F6000D41686EA92E00E94D4168C2F0E94351760
:102F7000CF911F910F910C944F178091EB03482F25
:102F800050E04217530708F46EC0B9017695679573
:102F9000B62F2417350739F410926B031092EA0309
:102FA0001092EB033BC04091EA03C0FF3DC00BE62B
:102FB00013E0A62FAB1B641798F4E62FF0E0ED5A50
:102FC000FC4F218D522F52955F70908D70E1979F2D
:102FD00090011124252BF80121938F016F5FE9CF18
:102FE00080FD0CC0B0E0AD5ABC4FE62FF0E0ED5ACA
:102FF000FC4F908D9295907F58969C938C1B80935C
:10300000EB03482F50E09A012150310937FD9A0116
:10301000359527952093EA0380FD02C087E001C023
:1030200083E08093EC0311C0461B4093EA0350E019
:103030004F5F5F4F65597C4F8BE693E00E942B2BCF
:103040008091EB038C1B8093EB0381E08093F90369
:103050008091EB038093F50381110FC01092060459
:10306000109205040AC087E492E00E94BD168C2FDE
:10307000CF911F910F910C943517CF911F910F9104
:10308000089590919C0240919B029730A9F44423AB
:1030900099F0E0919A026E2F70E020919F0230E04B
:1030A0002150310962177307A4F5EF5FE0939A028C
:1030B000F0E0E859FD4F108250919D02652F70E0BD
:1030C000292F30E02F5F3F4F261B370B12161306B8
:1030D00024F401C0880F2A95EAF7E0919A02F0E003
:1030E000E859FD4F2081822B80834F5F40939B02E4
:1030F000292F092E000C330B261B370B37FD04C07C
:10310000951B90939C0203C087E080939C0281E012
:10311000089580E00895CF92DF92EF92FF920F938F
:103120001F93CF93DF936C018B017A0146175707EA
:1031300020F4812F8A01E62EF82E66E472E0C601A3
:103140000E94B812C0915103D09152030C171D0771
:10315000E0F4EC16FD0608F4E701E0914D03F09170
:103160004E03EC0FFD1FF080108260914D037091B3
:103170004E03600F711FC6010E94231280914D0300
:1031800090914E03C80FD91FF882C601DF91CF91ED
:103190001F910F91FF90EF90DF90CF9008953FB770
:1031A000F89480914A0590914B05A0914C05B091FF
:1031B0004D0526B5A89B05C02F3F19F00196A11D0E
:1031C000B11D3FBFBA2FA92F982F8827820F911DBD
:1031D000A11DB11DBC01CD0142E0660F771F881F04
:1031E000991F4A95D1F708958F929F92AF92BF92FF
:1031F000CF92DF92EF92FF926B017C010E94CF1879
:103200004B015C01C114D104E104F104F1F00E940E
:10321000CF18DC01CB0188199909AA09BB09883E9E
:103220009340A105B10570F321E0C21AD108E1086D
:10323000F10888EE880E83E0981EA11CB11CC11411
:10324000D104E104F10419F7DDCFFF90EF90DF9096
:10325000CF90BF90AF909F908F9008951F920F9244
:103260000FB60F9211242F933F938F939F93AF9399
:10327000BF938091450590914605A0914705B09177
:1032800048053091490523E0230F2D3720F401969E
:10329000A11DB11D05C026E8230F0296A11DB11D79
:1032A000209349058093450590934605A0934705D3
:1032B000B093480580914A0590914B05A0914C052B
:1032C000B0914D050196A11DB11D80934A059093C3
:1032D0004B05A0934C05B0934D05BF91AF919F91C5
:1032E0008F913F912F910F900FBE0F901F901895C7
:1032F000CF93DF93CDB7DEB7C159D1090FB6F8949C
:10330000DEBF0FBECDBF789484B5826084BD84B526
:10331000816084BD85B5826085BD85B5816085BDD0
:1033200080916E00816080936E0010928100809188
:103330008100826080938100809181008160809310
:103340008100809180008160809380008091B10035
:1033500084608093B1008091B00081608093B00060
:1033600080917A00846080937A0080917A008260F4
:1033700080937A0080917A00816080937A008091B6
:103380007A00806880937A001092C100E091BC02BC
:10339000F091BD0282E08083E091BC02F091BD0219
:1033A0001082E091B802F091B9021082E091BA0265
:1033B000F091BB0280E180831092C402E091C002D0
:1033C000F091C10286E08083E091BE02F091BF02DD
:1033D000808180618083E091BE02F091BF02808194
:1033E00088608083E091BE02F091BF028081806896
:1033F0008083E091BE02F091BF0280818F7D808347
:1034000086EA90E00E9443175298259A80E090E067
:103410000E943C14833339F481E090E00E943C1414
:10342000813209F452C50E943E1463E380E090E0CB
:103430000E943A1461E281E090E00E943A140E94F6
:103440006514239A80915903882321F084E990E040
:103450000E94431762E370E080E090E00E94F4185D
:1034600080E1809381001092800088E199E7909339
:1034700087008093860082E1809381008AE195E154
:10348000909353028093520281E080936F006EE527
:1034900071E08DE493E00E94D1110E94D4158091D7
:1034A0005903882321F083E890E00E9443179E018E
:1034B0002F5F3F4F190180905502882009F4F9C20F
:1034C0001092550280E090E00E94BF16803549F4CA
:1034D00086E391E00E9462168BEC97E00197F1F78A
:1034E000DCC28F3309F063C081E090E00E94BF1618
:1034F0008335A9F404E111E08EE791E00E94D4162F
:10350000D8018D919D918D010E94BD168BE791E0B0
:103510000E94D416B1E00E311B0771F743C08FE350
:103520000E94EF168EE691E00E94D41686E50E9476
:10353000EF1680E20E94EF1682E50E94EF1680E20D
:103540000E94EF1684E70E94EF1680E20E94EF16B9
:1035500088E50E94EF1680E20E94EF1686E40E9442
:10356000EF1680E20E94EF1683E50E94EF1680E2DC
:103570000E94EF1680E50E94EF1680E20E94EF168F
:1035800083E40E94EF1680E20E94EF1682E70E9419
:10359000EF1680E20E94EF1687E50E94EF1680E2A8
:1035A0000E94EF1686E492E00E94621676C286358B
:1035B00039F489E391E00E94BD1684E591E0F4CFEF
:1035C000823589F480914E0590914F05009711F452
:1035D00082E595E06AE070E0F101E81BF90BCF01AC
:1035E0000E94F41637C1833509F02DC11B820E9459
:1035F000C715C12CD12C1FEFCD57DF4F1882C358F0
:10360000D040912CF1E0CC57DF4FF883C458D04024
:1036100006E1602E8BE0882E7724739467E771E0D3
:10362000CE0181599F4F0E94B81280915103909111
:103630005203C816D90698F4A0904D03B0904E03DB
:10364000E1966EAD7FADE197C5018C0D9D1D0E9489
:103650004D2B009721F07C01EA18FB0803C0EE24F3
:10366000EA94FE2CCE0181599F4F0E94B3122FEF96
:10367000E216F20609F4D4C73FEFC316D30609F4E5
:10368000CFC7C6010E94BF16082F80930101C60153
:1036900001960E94BF16582E809300010335B1F0A9
:1036A000003561F4C60102960E94BF168D3309F001
:1036B00011C4560143E0A40EB11C0AC05DE385139A
:1036C00009C4560182E0A80EB11C02C0A12CB12C85
:1036D00067019FEFC91AD90A0335D1F4153009F4EF
:1036E000F9C3A3E45A1203C09924939497CFBDE47D
:1036F0005B1619F0E2E55E1291CF1F5FF101619E4A
:10370000E00DF11D112411821082758A912C86CF53
:10371000023551F5992091F0A701B501CE018159EB
:103720009F4F0E948B18CE0181599F4F0E94C61156
:10373000CC57DF4F6883C458D0406FC01F3F09F497
:103740006DCFA701B501CE0181599F4F0E948B1803
:10375000CE0181599F4F0E94C611F101619EE00D7B
:10376000F11D1124658B59C01F3F09F457CF003557
:1037700089F5A50141505109B50162507109CE0189
:1037800081599F4F0E948B18CE0181599F4F0E94F3
:10379000C611062FCE0181599F4F0E94B3120930E6
:1037A00008F098C3A701B501CE0181599F4F0E942F
:1037B0008B18CE0181599F4F0E94C611819EF00146
:1037C0001124E00FF11DEE0FFF1FE20DF31D7683B4
:1037D000658323C0043461F4F101619EE00DF11DA5
:1037E0001124A28221E0E21AF108F482E38216CFCA
:1037F0000334C9F4A701B501CE0181599F4F0E943E
:103800008B18CE0181599F4F0E94C611F101619E14
:10381000E00DF11D112471836083CE0181599F4F0A
:103820000E94B312FBCE063409F0F8CEC6018A1905
:103830009B0997FD019695958795CD57DF4F888316
:10384000C358D040EBCE843741F40E94CB144AE0F9
:103850000E946E160E945E1620C18835A1F481E098
:1038600090E00E94BF16813511F40E94C71581E0D7
:1038700090E00E94BF16853411F00C94D6240E946B
:10388000D4150C94D624863411F40C94D6248334A5
:1038900009F0A3C081E090E00E94BF16182F873482
:1038A00009F095C087E491E00E94D41680915603F8
:1038B0006AE070E090E00E94F41682E491E00E94D9
:1038C000D416809154036AE070E090E00E94F416F0
:1038D0008DE391E00E94D416809155036AE070E078
:1038E00090E00E94F41686E391E00E94D416809145
:1038F00057036AE070E090E00E94F41680910301A3
:10390000811104C08FE291E00E94D4168091580387
:10391000882321F08FE191E00E94D41686E191E0A6
:103920000E94D416809159036AE070E090E00E94F2
:10393000F4168EE091E00E94D4166AE070E0809167
:103940005A030E94AF1680915803882359F080E0F3
:1039500091E00E94D4166AE070E080915E030E94BC
:10396000AF160DC080EF90E00E94D41660915F0307
:103970007091600380E090E04AE00E946E168091B2
:103980002104813151F082EE90E00E94D4166AE069
:1039900070E0809121040E94AF1680915903882322
:1039A00009F400CE82ED90E00E94D4166AE070E047
:1039B000809102010E94AF1680ED90E00E94D41623
:1039C0006AE070E08CE890E00E94F416EBCD8CEB9E
:1039D000810F823008F05AC044C3873581F581E0F9
:1039E00090E00E94BF16082E000C990B0E94162B27
:1039F000892B09F44EC082E090E00E94BF16082E89
:103A0000000C990B0E94162B892B09F442C083E00D
:103A100090E00E94BF16082E000C990B0E94162BF6
:103A2000892BB9F184E090E00E94BF16082E000CAB
:103A3000990B0E94162B892B09F02FC32AC08237BD
:103A4000C1F481E090E00E94BF16082E000C990B93
:103A50000E94162B892BE9F082E090E00E94BF16AD
:103A6000082E000C990B0E94162B892B09F022C3FB
:103A700010C0853671F481E090E00E94BF16833457
:103A800041F40E943E140E94651407C0133509F4E6
:103A900028C28BE491E00E9443178091550288234D
:103AA00009F484C780910301882319F081E0809391
:103AB0005402109262031092610301E080912A0483
:103AC000882309F4FFC180912A04815080932A043D
:103AD00080912C04609129040E94C92990932C04A0
:103AE000E0912C0481E08E0F80932C04F0E0EE0F27
:103AF000FF1FE35DFB4F808191819093570280937C
:103B000056021092F8036091F5036623E9F070E025
:103B1000615071098BE693E00E949A138091F00343
:103B200090E0880F991F855F9B4F909306048093C8
:103B30000504E0910304F091040480819181909345
:103B4000F4038093F30304C010920604109205045A
:103B50002091560230915702E0910304F091040441
:103B6000318320838091F503882379F0E091050467
:103B7000F0910604309749F0408151814227532744
:103B8000952F991F9927991F01C091E0211533485E
:103B900014F091112CC01AE080E00E948D018091F8
:103BA000F503811105C0109206041092050404C0AB
:103BB000115091F70E944F1710925B0310925C0313
:103BC00010925D0320911C04E0910304F091040421
:103BD00080819181E22FF0E0EE0FFF1FE55FFB4F48
:103BE000918380832F5F20931C0410E021C18E3FBE
:103BF00070F081E00E948D0180915D0381113BC0D6
:103C000040E060E083E593E00E94D81334C088323E
:103C100091F5E3E0F0E0F093FE03E093FD03809183
:103C2000230490912404009751F4209125043091AD
:103C30002604232B21F42091270420FF1CC0E091AF
:103C40002504F091260440912704509128049A01FC
:103C50003595279540FF0AC0DC01A20FB31F4D9197
:103C60005C91E40FF51F0190F081E02D820F931F0E
:103C7000099580932204C0900304D0900404D601D7
:103C8000ED90FC90B701F7FE04C0662777276E1908
:103C90007F09072E000C880B990B0E9423272DEC1F
:103CA0003CEC4CE45EE30E9482270E9490299B0139
:103CB0007093FC036093FB0360911B04ABE0B4E0E2
:103CC000E3E5F3E010E06117E1F08D919D91A7012C
:103CD0004827592757FD12C0009781F04089442397
:103CE00069F05701A81AB90AC501B7FE03C091953A
:103CF00081959109281739070CF011C21F5F319681
:103D0000E2CF1FEF80915D03882321F082E00E94C3
:103D10008D018EC0683009F066C0E0911C04F0E0AF
:103D2000ED5AFC4F8089833070F18091FD039091B2
:103D3000FE03181619063CF51AE0F12C8091620377
:103D4000882321F010926203FF24F39482E00E9402
:103D50008D018091F503883278F410925B03109204
:103D60005C0310925D03F092620340E060E083E543
:103D700093E00E94D81307C080916203882369F3FF
:103D80001150E1F6EACF1091F503112361F1E091B2
:103D90001C04F0E0ED5AFC4F8089882321F1612F4B
:103DA00070E0615071098BE693E00E949A13909144
:103DB000F00380911C0498130AC0812F0E9496176B
:103DC00040E060E083E593E00E94D8130CC011301E
:103DD00041F48091F5038E3F20F089E092E00E944B
:103DE00043171150E1F610911C04E0910304F09187
:103DF000040480819181E12FF0E0EE0FFF1FE55F69
:103E0000FB4F9183808381E0810F883019F080938C
:103E10001C0406C010921C0480931B0410921E0404
:103E200080911C0490911B04981710F480931B043C
:103E3000612F8091EC039091EB038730B1F49923CB
:103E4000A1F0E091EA034E2F50E02091EF0330E023
:103E500021503109421753070CF0DEC1EF5FE093A8
:103E6000EA03F0E0ED5AFC4F108E7091ED03472FFE
:103E700050E0282F30E02F5F3F4F241B350B1216E8
:103E800013062CF4612F01C0660F2A95EAF7E09122
:103E9000EA03F0E0ED5AFC4F208D622B608F9F5FAC
:103EA0009093EB03282F082E000C330B241B350BAB
:103EB00037FD04C0871B8093EC035AC1B7E0B09371
:103EC000EC0356C10E94AD12F6CA88E690E00E944B
:103ED0004317B5CA84EC90E00E94D4160E94D41512
:103EE00061CB61E372E0C1010E94B812809151037D
:103EF00090915203059788F000914D0310914E0365
:103F000069817A81C80104960E944D2B009729F09F
:103F1000DC01A01BB10B8D0102C00FEF1FEFC1012F
:103F20000E94B31284E1A82E81E0B82EE12CF12C7E
:103F300011277E2CF501C190D1905F01A80162E0AC
:103F400070E0C1010E948B188D819E81892B69F4DC
:103F5000C114D10439F081E0D6019C91992319F064
:103F600080E001C0882D982E14C089819A81C114E7
:103F7000D10439F499249394FC018081882349F079
:103F800007C0B6010E943D2B99249394892B09F018
:103F9000912CC1010E94B312992009F44AC0C601B4
:103FA0000E94BD1681E392E00E94BD16409151032C
:103FB00050915203B8016F5F7F4FF4E0C1017F124F
:103FC0001FC00E948B18C1010E94C611709360032C
:103FD00060935F03C1010E94B3126091600383EF9D
:103FE00090E00E943A1460915F0384EF90E00E9499
:103FF0003A1460915F037091600380E090E027CCF9
:104000000E948B18C1010E94C611162FC1010E9487
:10401000B312812F0E943517F701E25FFE4F8081B6
:10402000612F90E00E943A1471100CC010930201AD
:1040300034CD2FEFE21AF20A35E0E316F10409F06D
:1040400078CFB0CA41E0741203C01093210425CD8B
:1040500052E0751203C010935A031FCD10935E03F4
:104060001CCD82E090E00E94BF16833509F4C4C4E1
:10407000853509F4A2C4833409F4A2C4823509F455
:10408000A6C4843409F4AAC48C3409F4AEC48F34B1
:1040900009F0B8C428E533E095C481E00E943416E5
:1040A000182F83E00E943416682F812F90E00E9421
:1040B0003A14F3CC81E00E943416082F86E691E092
:1040C0000E94D416802F0E94BD1483E090E00E94CD
:1040D000BF1610E08E36C9F483E691E00E94D41634
:1040E000E12CF12C8AEA91E00E94BD16C8018E0DE8
:1040F0009F1D0E943C140E94BD148FEFE81AF80A1D
:1041000090E1E916F10471F74DCA8FE591E00E9444
:10411000D416C8010E943C140E94BD1443CA17FD66
:10412000F1CD812F880F990B9C01255F3B4F7901C1
:10413000D9016D917C91AB01770F660B770BF6017E
:1041400080819181092E000CAA0BBB0B5A016B01D7
:10415000A80EB91ECA1EDB1EC601B50122E030E062
:1041600040E050E00E941F2AD7012D933C9360CE7F
:104170008091F5038F5F8093F503E0910304F09144
:104180000404808191819093F2038093F103E12FE5
:10419000110FFF0BED5AFC4F80898F5F808B809150
:1041A0005903882369F180916203882349F11091B2
:1041B0002A0480910201811718F5809161038823F8
:1041C00091F0809157038823D9F08EE192E00E940C
:1041D000D41660E170E0812F0E94AF168CE192E06E
:1041E0000E94D4160DC088E192E00E94D4166AE0C5
:1041F00070E0812F0E94AF1686E492E00E94621662
:1042000080916203882329F080910301811100933A
:1042100054021092620352CC84E092E00E94D416C1
:104220006AE070E0812F0E94AF168AEF91E00E9451
:10423000D4166AE070E08091EA030E94AF1686EE21
:1042400091E00E94431784EC91E00E94BD16E0913A
:104250001D04E7FDD4C0EE0FFF0BE55FFB4F6AE0E6
:1042600070E0808191810E94F41689E791E00E94BC
:10427000BD16E0911D04EE0FFF0BE55FFB4F608163
:104280007181072E000C880B990B0E9423276B016C
:104290007C01E0915303EE0FFF0BE55FFB4F608164
:1042A0007181072E000C880B990B0E9423279B011C
:1042B000AC01C701B6010E9417296B017C014B01BB
:1042C0005C019B01AC010E94C429882319F088E895
:1042D00091E01AC026013701E89477F82FEF3FEFFD
:1042E0004FE75FE7C301B2010E94C42981110FC0EB
:1042F0002FEF3FEF4FE75FE7C301B2010E941C279A
:1043000018162CF48CE891E00E944C1674C02FEF24
:104310003FEF4FE75FE4C701B6010E94BF291816BF
:104320001CF480E991E0F0CF2FEF3FEF4FE75FEC17
:10433000C701B6010E941C2787FDF3CF20E030E0C3
:10434000A901C701B6010E941C2787FF09C08DE2A1
:104350000E94EF1646015701B7FAB094B7F8B0942F
:104360002AE037ED43EA5BE3C501B4010E94AB28C4
:104370004B015C010E9490296B017C010E94212766
:104380009B01AC01C501B4010E94AA284B015C014C
:104390004AE0C701B6010E946E168EE20E94EF1637
:1043A00020E030E040E251E4C501B4010E948227E0
:1043B0004B015C010E9490296B01E12CF12C4AE039
:1043C000C701B6010E946E16C701B6010E942127DF
:1043D0009B01AC01C501B4010E94AA2820E030E095
:1043E00040E251E40E9482270E94902980E090E000
:1043F0004AE00E946E1684E991E00E94BD1686E9AB
:1044000091E00E94BD16E0915303E7FD0BC0EE0F53
:10441000FF0BE55FFB4F6AE070E0808191810E94B5
:10442000F41604C08FE991E00E94BD168AED91E078
:104430000E94D4166AE070E080911B040E94AF16BF
:1044400084EA91E00E94BD166AE070E080911C044D
:104450000E94AF1687EA91E00E94BD1686EC91E0BB
:104460000E94D416E0910304F09104046AE070E025
:10447000808191810E94F41689EA91E00E94BD1624
:10448000E0910504F09106046AE070E0808191817A
:104490000E94F41689EA91E00E94BD166AE070E07D
:1044A0008091F1039091F2030E94F41689EA91E061
:1044B0000E94BD166AE070E08091F3039091F403CE
:1044C0000E94F4168BEB91E00E94D4166AE070E033
:1044D0008091F6030E94AF1682EB91E00E94D41601
:1044E0006AE070E08091F7030E94AF1687EA91E0DE
:1044F0000E94D4166AE070E08091EB030E94AF1630
:104500008FE991E00E94D41680911E046AE070E069
:1045100090E00E94F41684E991E00E94D416809104
:10452000F9036AE070E090E00E94F4168AE891E0F6
:104530000E94D4166AE070E08091FD039091FE0322
:104540000E94F4160E945E1681E891E00E94D41643
:10455000F12C8091F503F81688F46F2D70E08BE64E
:1045600093E00E949A138091F0036AE070E0082EB5
:10457000000C990B0E94F416F394EBCF8CEA91E0B7
:104580000E94BD168FEA91E00E94BD166AE070E0BD
:104590008091F5030E94AF1682EB91E00E946216B3
:1045A00084EB91E00E94BD16D12C80911B04D8169B
:1045B00070F58EEB91E00E94BD166AE070E08D2DE3
:1045C0000E94AF1688EC91E00E94BD16ED2CF12CF4
:1045D000F701ED5AFC4F6AE070E080890E94AF1647
:1045E00081EC91E00E94BD16F701EE0FFF1FE55F21
:1045F000FB4F80819181009721F06AE070E00E947A
:10460000F41682EB91E00E94BD16D394CECF86E4DF
:1046100092E00E94621686E492E00E946216ADCD9E
:104620008B81882309F456CCCE57DF4F1882C258AD
:10463000D040CC57DF4FA880C458D040CE57DF4F72
:10464000B880C258D040AB1409F47FC1EA961FAEBF
:10465000EA9776E1C72EEA96DFACEA97CD9CC001D7
:104660001124F101E80FF91F2081318100E0232B93
:1046700009F19F012B5E3F4FC457DF4F39832883D9
:10468000CC58D040EE96FFAFEEAFEE973396C257C0
:10469000DF4FF983E883CE58D040EE964EAD5FAD44
:1046A000EE974E5F5F4FC057DF4F59834883C05925
:1046B000D040BCC0DF015596E996BFAFAEAFE997D9
:1046C00005965101A80EB91EEC96BFAEAEAEEC97A2
:1046D0009F012D5F3F4FEE963FAF2EAFEE97AF019C
:1046E0004E5F5F4FC258DF4F59834883CE57D0404B
:1046F000E996AEADBFADE9978C91081708F00EC1F1
:10470000EE96EEADFFADEE9780809180C258DF4F00
:10471000A881B981CE57D040EC900E94CF182B01D0
:104720003C01F12C8E149F0468F1C7010E94BF1652
:104730008053EC96EEADFFADEC97E80FF11DE80F5E
:10474000F11DA080B1806501B7FE04C0CC24DD243A
:10475000CA18DB080E94CF186415750586059705F1
:10476000C8F3B7FE02C02B9801C02B9AC601DD0C1E
:10477000AA0BBB0B480E591E6A1E7B1EBFEFEB1A1D
:10478000FB0AD0CF0E94CF186415750586059705E2
:10479000C8F30F5FADCF002331F061E070E080E03F
:1047A00090E00E94F418EE96AEADBFADEE97ED909E
:1047B000FC90C257DF4FE881F981CE58D040F0819C
:1047C000CB57DF4FF883C558D040C057DF4FA88183
:1047D000B981C059D040BC91E896BFAFE8970E941C
:1047E000CF184B015C019701FF0C440B550BC258CD
:1047F000DF4F288339834A835B83CE57D040220F13
:10480000331F441F551FCA57DF4F288339834A83FC
:104810005B83C658D040CB57DF4FC880C558D040C7
:10482000E896DFACE897CD1460F40F5FC457DF4F14
:10483000E881F981CC58D0408081081708F4ABCFCB
:104840006DC08D2D90E00E94BF168A3314F097E35F
:1048500001C090E3891B24E030E0EC963FAF2EAF1F
:10486000EC9798E0E92EC82E880FDD08C657DF4F79
:10487000D982C882CA58D04024013501F12CCE2CEF
:10488000D12CC657DF4F28813981CA58D040C22267
:10489000D322F11004C0C114D10421F405C0C11405
:1048A000D10411F42B9801C02B9AC258DF4F888194
:1048B0009981AA81BB81CE57D040480E591E6A1EED
:1048C0007B1E0E94CF186415750586059705C8F3F1
:1048D000F39492E0F912DDCFCA57DF4F2881398176
:1048E0004A815B81C658D040820E931EA41EB51E1D
:1048F000E694EC964EAD5FADEC9741505109EC96C5
:104900005FAF4EAFEC97452B09F0B6CFE8965FADA1
:10491000E8975F5FE8965FAFE8977DCF2B98EA96C0
:104920008FADEA978F5FEA968FAFEA97181708F076
:1049300090CECE57DF4F9881C258D0409F5FCE5760
:10494000DF4F9883C258D04074CE409151035091AC
:10495000520360914D0370914E038CEA92E00E94E5
:104960005E10CD57DF4FA880C358D040AA2009F46D
:10497000B5CA82EB90E00E94D4160FE010E0F12C53
:10498000C8010E943C14E82E0E94BD146E2D8DE0DB
:104990008F0D0E94FF15F3940F5F1F4FCD57DF4F10
:1049A000B880C358D040BF10EBCF98CA66E472E01D
:1049B0008DE493E00E94231275C8E4E5F3E01EC085
:1049C00025E533E0E7963FAF2EAFE7971BC047E5FD
:1049D00053E0E7965FAF4EAFE79714C089E593E0E9
:1049E000E7969FAF8EAFE7970DC0A3E0B1E0E796E3
:1049F000BFAFAEAFE79706C0E6E5F3E0E796FFAFDF
:104A0000EEAFE797153439F481E0E796AEADBFAD70
:104A1000E7978C9305C0E796EEADFFADE797108260
:104A200060915603962F906860915403660F692B2E
:104A300090915503F4E09F9FC0011124682B909141
:104A4000570328E0929FF00111246E2B9091590397
:104A500030E1939FA0011124642B9091030140E267
:104A6000949F90011124622B9091580350E4959FDC
:104A7000C0011124682B8FEF90E019CB8DE493E0F7
:104A80000C94B312CF93DF93ECEAF2E0138212821C
:104A900088EE93E0A0E0B0E084839583A683B7839B
:104AA00088E291E09183808385EC90E0958784870C
:104AB00084EC90E09787868780EC90E0918B808BE8
:104AC00081EC90E0938B828B82EC90E0958B848BD1
:104AD00086EC90E0978B868B118E128E138E148E3F
:104AE000E9E2F4E08CE88083118213821282C3E54C
:104AF000D3E08FE78093EF0384E08093ED03188E7B
:104B00001092EA031092EB0387E08093EC0380EFAE
:104B10008093EE03EFEFF3E0F0930404E0930304DB
:104B200081E094E09093060480930504109224049D
:104B30001092230410922604109225041092280447
:104B400010922704118210820E944F1781E18093F6
:104B50002104188619861A8666E472E08DE493E0D3
:104B60000E94B8120E94CF186093490370934A03C1
:104B700080934B0390934C03DF91CF9108950F9353
:104B80001F93CF93DF938230910510F482E090E081
:104B9000E0915005F091510520E030E0A0E0B0E058
:104BA000309719F1408151810281138148175907CB
:104BB000C8F08417950769F4109731F012960C939A
:104BC000129713961C9327C000935005109351051C
:104BD00022C02115310519F04217530718F49A0124
:104BE000BD01EF01DF01F801DBCF21153105F9F03F
:104BF000281B390B2430310580F48A819B81611593
:104C0000710521F0FB019383828304C090935105C9
:104C100080935005FE01329644C0FE01E20FF31F5F
:104C20008193919322503109398328833AC020918E
:104C30004E0530914F05232B41F420910A0130910C
:104C40000B0130934F0520934E05209108013091C0
:104C500009012115310541F42DB73EB740910C01F2
:104C600050910D01241B350BE0914E05F0914F053D
:104C7000E217F307A0F42E1B3F0B2817390778F033
:104C8000AC014E5F5F4F2417350748F04E0F5F1F92
:104C900050934F0540934E058193919302C0E0E0FD
:104CA000F0E0CF01DF91CF911F910F910895CF9345
:104CB000DF93009709F481C0FC01329713821282BE
:104CC000A0915005B0915105109781F42081318158
:104CD000820F931F20914E0530914F0528173907F9
:104CE00051F5F0934F05E0934E0567C0ED0120E0CC
:104CF00030E0CE17DF0740F44A815B819E01411509
:104D00005105F1F0EA01F5CFD383C283408151818F
:104D1000840F951FC817D90759F488819981840F8A
:104D2000951F0296918380838A819B8193838283DE
:104D30002115310529F4F0935105E09350053DC04C
:104D4000E901FB83EA8349915991C40FD51FEC1700
:104D5000FD0761F480819181840F951F0296E9011E
:104D600099838883828193819B838A83E0E0F0E04A
:104D700012968D919C911397009719F0FD01DC011B
:104D8000F7CF8D919C9111979D012E5F3F4F820F20
:104D9000931F20914E0530914F052817390769F46C
:104DA000309729F4109251051092500502C01382D9
:104DB0001282B0934F05A0934E05DF91CF910895D5
:104DC0001F93FC0199278827BC01E89411911032A8
:104DD000E9F3193010F01E30C8F31B3251F01D32C8
:104DE00049F4689406C00E940727610F711D811D58
:104DF000911D119110531A30B0F33EF490958095A7
:104E0000709561957F4F8F4F9F4F1F910895592F38
:104E1000482F372F262F660F771F881F991F660F81
:104E2000771F881F991F620F731F841F951F660FBE
:104E3000771F881F991F08950E945E2708F481E05C
:104E40000895E89409C097FB3EF49095809570957D
:104E500061957F4F8F4F9F4F9923A9F0F92F96E9C6
:104E6000BB279395F695879577956795B795F1113B
:104E7000F8CFFAF4BB0F11F460FF1BC06F5F7F4FD8
:104E80008F4F9F4F16C0882311F096E911C07723EA
:104E900021F09EE8872F762F05C0662371F096E8F3
:104EA000862F70E060E02AF09A95660F771F881FC2
:104EB000DAF7880F9695879597F90895990F000866
:104EC000550FAA0BE0E8FEEF16161706E807F907DC
:104ED000C0F012161306E407F50798F0621B730B77
:104EE000840B950B39F40A2661F0232B242B252BF8
:104EF00021F408950A2609F4A140A6958FEF811D9B
:104F0000811D08950E9495270C9409280E94FB2773
:104F100038F00E94022820F0952311F00C94F2271B
:104F20000C94F82711240C943D280E941A2870F341
:104F3000959FC1F3950F50E0551F629FF001729F3E
:104F4000BB27F00DB11D639FAA27F00DB11DAA1F4D
:104F5000649F6627B00DA11D661F829F2227B00D9A
:104F6000A11D621F739FB00DA11D621F839FA00D25
:104F7000611D221F749F3327A00D611D231F849F75
:104F8000600D211D822F762F6A2F11249F575040CC
:104F90009AF0F1F088234AF0EE0FFF1FBB1F661F47
:104FA000771F881F91505040A9F79E3F510580F010
:104FB0000C94F2270C943D285F3FE4F3983ED4F321
:104FC000869577956795B795F795E7959F5FC1F7B4
:104FD000FE2B880F911D9695879597F9089599272F
:104FE0008827089597F99F6780E870E060E008954A
:104FF0009FEF80EC089500240A94161617061806F1
:105000000906089500240A941216130614060506CC
:105010000895092E0394000C11F4882352F0BB0F5D
:1050200040F4BF2B11F460FF04C06F5F7F4F8F4FC0
:105030009F4F089557FD9058440F551F59F05F3FFB
:1050400071F04795880F97FB991F61F09F3F79F0AA
:1050500087950895121613061406551FF2CF46952C
:10506000F1DF08C0161617061806991FF1CF8695AE
:105070007105610508940895E894BB276627772792
:10508000CB0197F90895F999FECF92BD81BDF89AA9
:10509000992780B50895262FF999FECF1FBA92BDA2
:1050A00081BD20BD0FB6F894FA9AF99A0FBE019609
:1050B00008950E949B28A59F900DB49F900DA49FDA
:1050C000800D911D112408952F923F924F925F926F
:1050D0006F927F928F929F92AF92BF92CF92DF9208
:1050E000EF92FF920F931F93CF93DF93CDB7DEB76D
:1050F000CA1BDB0B0FB6F894DEBF0FBECDBF099401
:105100002A88398848885F846E847D848C849B8457
:10511000AA84B984C884DF80EE80FD800C811B8165
:10512000AA81B981CE0FD11D0FB6F894DEBF0FBE94
:10513000CDBFED010895A29FB001B39FC001A39F11
:10514000700D811D1124911DB29F700D811D1124C0
:10515000911D08955058BB27AA270E94C2280C947D
:1051600009280E94FB2738F00E94022820F039F419
:105170009F3F19F426F40C94F8270EF4E095E7FB12
:105180000C94F227E92F0E941A2858F3BA176207E5
:1051900073078407950720F079F4A6F50C943C2852
:1051A0000EF4E0950B2EBA2FA02D0B01B901900142
:1051B0000C01CA01A0011124FF27591B99F0593F86
:1051C00050F4503E68F11A16F040A22F232F342FCE
:1051D0004427585FF3CF469537952795A795F0401C
:1051E0005395C9F77EF41F16BA0B620B730B840B31
:1051F000BAF09150A1F0FF0FBB1F661F771F881FE9
:10520000C2F70EC0BA0F621F731F841F48F4879540
:1052100077956795B795F7959E3F08F0B0CF939532
:10522000880F08F09927EE0F9795879508950E94AB
:105230002B290C9409280E94022858F00E94FB2771
:1052400040F029F45F3F29F00C94F22751110C949F
:105250003D280C94F8270E941A2868F39923B1F38B
:10526000552391F3951B550BBB27AA27621773078C
:10527000840738F09F5F5F4F220F331F441FAA1F20
:10528000A9F335D00E2E3AF0E0E832D091505040DC
:10529000E695001CCAF72BD0FE2F29D0660F771F8A
:1052A000881FBB1F261737074807AB07B0E809F070
:1052B000BB0B802DBF01FF2793585F4F3AF09E3FF5
:1052C000510578F00C94F2270C943D285F3FE4F3ED
:1052D000983ED4F3869577956795B795F7959F5F38
:1052E000C9F7880F911D9695879597F90895E1E084
:1052F000660F771F881FBB1F621773078407BA07E3
:1053000020F0621B730B840BBA0BEE1F88F7E0953D
:1053100008950E9490296894B1110C943D28089535
:105320000E94222888F09F5798F0B92F9927B751EB
:10533000B0F0E1F0660F771F881F991F1AF0BA9539
:10534000C9F714C0B13091F00E943C28B1E0089533
:105350000C943C28672F782F8827B85F39F0B93F25
:10536000CCF3869577956795B395D9F73EF49095EC
:105370008095709561957F4F8F4F9F4F08950E9444
:105380005E2708F48FEF08950E945E27880B990B23
:105390000895991B79E004C0991F961708F0961B91
:1053A000881F7A95C9F780950895AA1BBB1B51E108
:1053B00007C0AA1FBB1FA617B70710F0A61BB70B85
:1053C000881F991F5A95A9F780959095BC01CD012A
:1053D000089597FB072E16F4009407D077FD09D0A7
:1053E0000E94D52907FC05D03EF4909581959F4FEA
:1053F0000895709561957F4F0895A1E21A2EAA1B1A
:10540000BB1BFD010DC0AA1FBB1FEE1FFF1FA21774
:10541000B307E407F50720F0A21BB30BE40BF50B71
:10542000661F771F881F991F1A9469F760957095FA
:10543000809590959B01AC01BD01CF010895052E8B
:1054400097FB1EF400940E94362A57FD07D00E9455
:10545000FD2907FC03D04EF40C94362A5095409554
:10546000309521953F4F4F4F5F4F08959095809510
:10547000709561957F4F8F4F9F4F08950E949B2895
:10548000B7FF0895821B930B0895EE0FFF1F059041
:10549000F491E02D0994A0E0B0E0E1E5FAE20C948B
:1054A0006828EC01009721F4CB010E94BF25B4C00D
:1054B000FC01E60FF71F9C0122503109E217F307A8
:1054C00008F4A8C0D9010D911C9111970617170770
:1054D000B0F00530110508F49BC0C8010497861789
:1054E000970708F495C002501109061B170B01938A
:1054F00011936D937C93CF010E94572689C05B0165
:10550000A01AB10A4C01800E911EA0915005B091D5
:105510005105612C712CE12CF12C109709F446C037
:105520008D919C911197A815B905B1F56C0142E0D8
:10553000C40ED11CCA14DB0478F14C018A189B08F4
:10554000640142E0C40ED11C1296BC9012971396CF
:10555000AC91B5E0CB16D10440F0B282A383918226
:105560008082D9016D937C9309C00E5F1F4F800F1D
:10557000911FF90191838083EB2DFA2FE114F1043F
:1055800031F0D7011396FC93EE93129741C0F0933C
:105590005105E09350053CC06816790608F43C01BB
:1055A0007D0112960D90BC91A02DB7CF80914E0534
:1055B00090914F0588169906E1F466167706C8F4AF
:1055C0008091080190910901009741F48DB79EB731
:1055D00040910C0150910D01841B950BE817F907C0
:1055E000C8F4F0934F05E0934E05F9017183608391
:1055F0000FC0CB010E94BF257C01009759F0A80184
:10560000BE010E94222BCE010E945726C70104C072
:10561000CE0102C080E090E0CDB7DEB7EEE00C94A2
:10562000842881E090E0F8940C941A2E91110C9447
:10563000EF2780538A5028F0865C8062815686501E
:10564000B0F70895FB01DC0102C001900D924150BA
:105650005040D8F708956817790768F4FB01DC011A
:10566000E40FF51FA40FB51F02C002900E92415027
:105670005040D8F708950C94222BFB01DC018D914A
:10568000019080190110D9F3990B0895FB01DC01F9
:1056900001900D920020E1F70895FB0151915523EF
:1056A000A9F0BF01DC014D9145174111E1F759F413
:1056B000CD010190002049F04D9140154111C9F3F1
:1056C000FB014111EFCF81E090E001970895AEE03A
:1056D000B0E0EDE6FBE20C9472280D891E8986E0AD
:1056E0008C831A8309838FEF9FE79E838D83AE019E
:1056F000475E5F4F6F89788DCE0101960E94892B9E
:10570000EF81F885E00FF11F10822E96E4E00C94F3
:105710008E28ABE0B0E0EFE8FBE20C9464286C016B
:105720007B018A01FC0117821682838181FFCCC133
:10573000CE0101963C01F6019381F70193FD85911D
:1057400093FF81917F01882309F4BAC1853239F42E
:1057500093FD859193FF81917F01853229F4B601F4
:1057600090E00E94802DE7CF912C212C312CFFE17D
:10577000F315D8F08B3279F038F4803279F0833237
:10578000A1F4232D20611DC08D3261F0803369F4B6
:10579000232D216016C0832D8260382EE32DE46016
:1057A0003E2E2AC0F32DF8601DC037FC2DC020ED21
:1057B000280F2A3040F08E32B9F436FC81C1232DF7
:1057C0002064322E19C036FE06C08AE0989E200D55
:1057D0001124922E11C0EAE02E9E200D1124222EBB
:1057E000F32DF0623F2E08C08C3621F4832D8068A3
:1057F000382E02C0883641F4F70193FD859193FF5E
:1058000081917F018111B3CF982F9F7D9554933063
:1058100028F40C5F1F4F9FE399830DC0833631F04E
:10582000833771F0833509F059C021C0F8018081B8
:1058300089830E5F1F4F88248394912C530113C0DA
:105840002801F2E04F0E511CF801A080B18036FE15
:1058500003C0692D70E002C06FEF7FEFC5010E94A9
:10586000752D4C018201F32DFF773F2E16C02801C4
:1058700022E0420E511CF801A080B18036FE03C028
:10588000692D70E002C06FEF7FEFC5010E946A2DA5
:105890004C01F32DF0683F2E820133FC1BC0822D9A
:1058A00090E088169906B0F4B60180E290E00E947C
:1058B000802D2A94F4CFF50137FC859137FE819134
:1058C0005F01B60190E00E94802D21102A9421E012
:1058D000821A91088114910471F7E8C0843611F09E
:1058E000893641F5F80137FE07C0608171818281F8
:1058F00093810C5F1F4F08C060817181072E000CDF
:10590000880B990B0E5F1F4FF32DFF763F2E97FFED
:1059100009C090958095709561957F4F8F4F9F4FEF
:10592000F0683F2E2AE030E0A3010E94BC2D882EB3
:10593000861845C0853731F4232D2F7EB22E2AE0FC
:1059400030E025C0932D997FB92E8F36C1F018F421
:10595000883579F0B5C0803719F0883721F0B0C0AC
:10596000E92FE061BE2EB4FE0DC0FB2DF460BF2E0A
:1059700009C034FE0AC0292F2660B22E06C028E0D6
:1059800030E005C020E130E002C020E132E0F80163
:10599000B7FE07C060817181828193810C5F1F4FC8
:1059A00006C06081718180E090E00E5F1F4FA3010F
:1059B0000E94BC2D882E8618FB2DFF773F2E36FEC9
:1059C0000DC0232D2E7FA22E891458F434FE0BC057
:1059D00032FC09C0832D8E7EA82E05C0B82CA32CC6
:1059E00003C0B82C01C0B92CA4FE0FC0FE01E80D05
:1059F000F11D8081803321F49A2D997EA92E09C052
:105A0000A2FE06C0B394B39404C08A2D867809F030
:105A1000B394A3FC11C0A0FE06C0B21488F4280CF5
:105A2000922C9B180EC0B21460F4B60180E290E094
:105A30000E94802DB394F7CFB21418F42B1802C033
:105A4000982C212CA4FE10C0B60180E390E00E94A7
:105A5000802DA2FE17C0A1FC03C088E790E002C021
:105A600088E590E0B6010CC08A2D867859F0A1FE39
:105A700002C08BE201C080E2A7FC8DE2B60190E09B
:105A80000E94802D891438F4B60180E390E00E94D2
:105A9000802D9A94F7CF8A94F301E80DF11D80814F
:105AA000B60190E00E94802D8110F5CF222009F4EC
:105AB00042CEB60180E290E00E94802D2A94F6CF7B
:105AC000F6018681978102C08FEF9FEF2B96E2E16E
:105AD0000C948028FC010590615070400110D8F7AB
