:100000000C94C9010C940C140C94E5130C94F1019C
:100010000C94F1010C94F1010C94F1010C94F10198
:100020000C94F1010C94F1010C94F1010C94F10188
:100030000C94F1010C9433140C94F1010C94F10123
:100040000C949B130C94F1010C94AD120C94871238
:100050000C94F1010C94F1010C94F1010C94F10158
:100060000C94F1010C94F10152656164696E672092
:1000700076616C7565732066726F6D206565707250
:100080006F6D00636331313031206973206E6F749E
:1000900020636F72726563746C79207365742E20AF
:1000A000506C6561736520646F20612066616374C4
:1000B0006F72792072657365742076696120636F51
:1000C0006D6D616E64206500726563656976657249
:1000D00020656E61626C6564005374617274696E50
:1000E000672074696D65726A6F6200206363506196
:1000F00072746E756D3D002063635665723D006FCE
:100100006B2E006E6F2043433131787820666F7517
:100110006E6421004343496E697420005573696E13
:100120006720734649464F006363726567207772A4
:10013000697465206261636B200073656E6420667C
:1001400061696C6564003B4D6465624669666F4C2D
:10015000696D69743D003B6D634D696E4269744C15
:10016000656E3D003B4D7553706C697454687265E3
:1001700073683D005F4D53636E743D003B4D646595
:100180006275673D003B4D66696C743D31003B4CC8
:1001900045443D30003B4D7265643D003B4D433D61
:1001A000003B4D553D004D533D003A2000636372C6
:1001B00065672000433345203D20002064656C6165
:1001C00079312000206368697053746174757320FD
:1001D00000636D645374726F6265526567200055E9
:1001E0006E737570706F7274656420636F6D6D618E
:1001F0006E640020746F2050415441424C4520648D
:100200006F6E650057726974652000203D200020E4
:100210003A00454550524F4D200063633131303133
:10022000200020557365206F6E65206F6620005397
:1002300069676E616C3A20002C2073746174653AB2
:1002400020002C206D7472756E633A20002C204DB6
:1002500043443A20002C2076616C636E743A20008F
:100260002C206D656E643A20002C206D53746172F1
:10027000743A20002C2050756C73653A20462F4C40
:100280002F464C2F4C5020002C20506174744C652C
:100290006E3A20002061646444617461206F766569
:1002A00072666C6F772121002062797465636E74C9
:1002B0003D0076616C3D00206D62206E6D206220F5
:1002C00070726F6320004D443D006D4F766572661D
:1002D0006C6F772673746174653D3021000D2E2D8F
:1002E00007D3913D04320000060010B07157C430AE
:1002F00023B900070018146C070090876BF856119B
:10030000E92A001F410000000000250028002B0002
:1003100004040404040404040202020202020303AB
:1003200003030303010204081020408001020408B3
:100330001020010204081020000000080002010043
:10034000000304070000000000000000636D64204B
:10035000746F206C6F6E672100496E69742065654B
:1003600070726F6D20746F2064656661756C747354
:10037000002073746172743D0020627566664D6F73
:100380007665206F766572666C6F772100007C2839
:10039000782811241FBECFEFD8E0DEBFCDBF12E01A
:1003A000A0E0B1E0EEEBF2E602C005900D92A838B5
:1003B000B107D9F725E0A8E8B2E001C01D92A13647
:1003C000B207E1F711E0C8ECD1E004C02197FE01CB
:1003D0000E948B2DC73CD107C9F70E94521A0C947A
:1003E00052310C9400002F923F924F925F926F9285
:1003F0007F928F929F92AF92BF92CF92DF92EF92B5
:10040000FF920F931F93CF93DF93CDB7DEB7E4979F
:100410000FB6F894DEBF0FBECDBF8F8B882321F0BF
:1004200081E08093390402C01092390480915E0407
:1004300090913504811104C0983210F40C94D80EB8
:100440001092380481E09E3F09F080E080933A04E6
:1004500040E060E086E993E00E949A14F12C6F2C52
:10046000712C80915B0490E00197681679060CF07E
:1004700006C1F301EA56FC4FCF010D962585F39492
:10048000222369F3EF2C9301220F331FA901455B4F
:100490005B4F5F8F4E8F99A388A35BA34AA3809184
:1004A0005B04E816E0F62E2D30E0B9016A567C4F69
:1004B000798F688FDB011D968C91882309F4DDC04C
:1004C000EE8DFF8D00811181A901440F551F5D8FB5
:1004D0004C8FFA01E55BFB4F60817181CB01802776
:1004E000912797FDCAC08090470490904804A0903F
:1004F0004904B0904A046B01C01AD10AD7FE03C068
:10050000D194C194D10877FF03C0719561957109A9
:10051000072E000C880B990B0E94692AA5019401F3
:100520000E94C82A1B012C01B80117FF03C0719556
:1005300061957109072E000C880B990B0E94692A9E
:10054000A50194010E94C82A9B01AC01C201B1011E
:100550000E94F12B20E030E040E05FE30E94C82AD7
:100560000E94CF2C6C157D050CF487C0D12CC12CBA
:10057000088D198D035F1F4F80913504D81608F040
:1005800041C0D8018C91C816E8F56D2D70E08BEA5A
:1005900093E00E945A14809130048E1131C08091F2
:1005A0002D04482F50E0D89EC0011124FC0123E007
:1005B000F695E7952A95E1F720912F04E217F8F4D4
:1005C000FF27EA56FC4F20912E0430E087709927D0
:1005D000082E02C0359527950A94E2F720953589B3
:1005E000232368E070E0641B750BAB01481B590BBB
:1005F000C30101C0880F4A95EAF7282B258BC394C5
:10060000D394BACFE8A1F9A11081A88DB98D1D9618
:100610000C91EAA1FBA1A081B1812C8D3D8D255BC0
:100620003B4F6901F901A080B180E12FF0E09F010B
:100630000E94842D1B012C01402F50E09A01D5010E
:100640000E94842D620D731D841D951DE40FF51FFE
:100650009F01FF0F440B550B0E94652DAAA1BBA162
:100660002D933C93100FE8A1F9A11083A88DB98DAB
:100670001D961C92F60111821082E39410CF109205
:100680003E0410923D0480919E03882309F43FC0EC
:1006900010923604609136046A3080F570E06F5F26
:1006A0007F4F8BEA93E00E945A142091300430E08F
:1006B00080915D04082E000C990B2817390791F4DE
:1006C0006091360470E08BEA93E00E945A14209106
:1006D000300430E080919603082E000C990B281707
:1006E000390731F0809136048F5F80933604D2CF82
:1006F00082E090E090933E0480933D0480913D041D
:1007000090913E04892B69F410929E0304C080915D
:100710009F03882331F040E060E086E993E00E9487
:100720009A1480913D0490913E04892B09F07BC07E
:100730008FEF8093960370905B0480903504BBE448
:10074000CB2EB4E0DB2E00E010E0EE24EA94FE2C89
:10075000912CA12CB12C071508F059C0FFEFEF1612
:10076000FF0611F5D6018D919C9197FD1DC0F801F2
:10077000EA56FC4F658570E080E090E00E94692AAF
:100780001B012C01C501B4010E94692A2BE734E149
:100790004EE25EE30E94C82A9B01AC01C201B10196
:1007A0000E94052D181664F1F6018081918197FD54
:1007B00028C0F701EE0FFF1FE55BFB4F2081318161
:1007C00082179307F4F4F801EA56FC4F658570E050
:1007D00080E090E00E94692A1B012C01C501B40150
:1007E0000E94692A2BE734E14EE25EE30E94C82AA8
:1007F0009B01AC01C201B1010E94052D18160CF439
:1008000078010F5F1F4FF2E0CF0ED11CA4CF2FEF66
:10081000E216F20641F0E092960381E090E09093B8
:100820003E0480933D0480913D0490913E040197E5
:1008300009F0AAC080919903882309F4A5C080918A
:1008400060048111A1C080913504282F30E0203A46
:10085000310524F4F8EDAF2EA80E02C0E8E7AE2E65
:10086000B0905B04BA9476E0972EB7FC8AC00B2D4B
:100870000B2C000C110BF801EA56FC4FF584FF20FD
:1008800009F47DC0F801EE0FFF1FE55BFB4F2081EF
:10089000318137FF74C0319521953109283642E402
:1008A00034070CF06CC0E0919603EE0FFF0BE55B94
:1008B000FB4F0190F081E02DC901BF010E941B2D6B
:1008C0006333710508F05BC09E9EC0019F9E900D32
:1008D00011248217930708F052C06F2D70E080E05A
:1008E00090E00E94692A1B012C016091350470E0A0
:1008F00080E090E00E94692A2AE037ED43EA5DE358
:100900000E94C82A9B01AC01C201B1010E94622A67
:1009100087FF35C051E05F1590F5C12CD12CCA146A
:1009200070F576016FEFE61AF60AB7018BEA93E0ED
:100930000E945A148091300490E08017910711F0C2
:100940000C94E10EB6018BEA93E00E945A142091B8
:10095000300430E080919603082E000C990B281784
:10096000390711F00C94E10EB0925D0482E090E042
:1009700090933E0480933D04C092360405C0BA941F
:1009800074CF8FEF80935D0480913D0490913E047D
:10099000029709F06AC280913504883208F465C272
:1009A000809136048E5F809337046091370470E045
:1009B0008091360490E00996861797070CF43FC0A3
:1009C0006F5F7F4F8BEA93E00E945A1420913004AE
:1009D00030E080915D04082E000C990B2817390730
:1009E000A1F46091370470E08BEA93E00E945A14FE
:1009F0002091300430E080919603082E000C990B72
:100A00002817390711F40C94E40E809137048F5F96
:100A1000CACF6F5F7F4F8BEA93E00E945A142091F8
:100A2000300430E080915D04082E000C990B2817EB
:100A3000390781F0809137048E5F8093370460918D
:100A4000370470E08091350490E0019768177907CA
:100A500004F314C06091370470E08BEA93E00E94C5
:100A60005A142091300430E080919603082E000C37
:100A7000990B28173907F1F60C94EA0EF12C8091A6
:100A8000350490913704891710F0F11003C081509C
:100A900080933704409137046091360486E993E0EF
:100AA0000E949A1480913604FF2049F02091370467
:100AB00030E0D901A81BB10998979CF4D6C1909158
:100AC0003504292F30E0281B3109283231050CF478
:100AD000CCC19E3F08F0ACC1BF89B23011F40C9478
:100AE000641090919E0380919D03981708F056C161
:100AF00080919A03882309F4B0C082E00E94FD1817
:100B000081E092E00E94B1188BE30E94FD1820E082
:100B100080915B042817C8F5822F90E0FC01EE0F4E
:100B2000FF1FE55BFB4F008111810115110559F194
:100B3000FC01EA56FC4F8585882329F1622F17FFB7
:100B400005C0606A11950195110901C06068E02E29
:100B500007FD04C0E02FE068EE2E01C060618FEE5B
:100B600092E02CAB0E9419116E2D8FEE92E00E9444
:100B70001911612F60688FEE92E00E9419118BE3CA
:100B80000E94FD182CA92F5FC3CF8091370480FFEE
:100B900003C084E092E002C089E792E00E94B118AD
:100BA000E0913604E0FF17C0E150E0933604E6958B
:100BB00080912F04E81728F4F0E0EA56FC4F2589CD
:100BC0002A8F6A8D8FEE92E00E941911809136046F
:100BD0008E5F80933604109136048091370481171C
:100BE00090F0E12FE69580912F04E81728F4F0E0CB
:100BF000EA56FC4F35893A8F6A8D8FEE92E00E945B
:100C000019111E5FEACF8BE30E94FD1880E292E08B
:100C10000E94B1188091960360E170E0082E000CEC
:100C2000990B0E9408198BE30E94FD1889E092E05D
:100C30000E94B11880915D0460E170E0082E000C04
:100C4000990B0E9408198BE30E94FD1886E092E040
:100C50000E94B11860E170E07BC082E00E94FD1844
:100C600088E092E00E94B1188BE30E94FD1810E02A
:100C700080915B04181758F5812F90E09C01220F9A
:100C8000331FA901455B5B4F6A01DA012D913C914D
:100C9000232BD9F0FC01EA56FC4F85858823A9F067
:100CA00080E50E94FD186AE070E0812F0E94B31871
:100CB0008DE30E94FD186AE070E0F6018081918169
:100CC0000E9408198BE30E94FD181F5FD1CF8BE0B3
:100CD00092E00E94B1181091360480913704811778
:100CE00070F0612F70E08BEA93E00E945A146AE082
:100CF00070E0809130040E94B3181F5FEECF8BE349
:100D00000E94FD188EE092E00E94B1188091960337
:100D10006AE070E0082E000C990B0E9408198BE322
:100D20000E94FD1882E192E00E94B11880915D045A
:100D30006AE070E0082E000C990B0E9408198BE302
:100D40000E94FD1886E192E00E94B1186AE070E00E
:100D5000809162040E94B3188BE30E94FD18809179
:100D60003A04882339F089E192E00E94B1188BE3BC
:100D70000E94FD1880919B03882381F0FF89F11167
:100D800003C08FE592E005C02F89223039F48BE152
:100D900092E00E94B1188BE30E94FD181092390472
:100DA00080919E03F11002C0882389F190919B03EA
:100DB000992389F090919D03891768F48DE192E061
:100DC0000E94B1186AE070E080919E030E94B318FF
:100DD0008BE30E94FD1820919E032F5F20939E03BA
:100DE000FF20A9F03F89311109C08091350490E0BE
:100DF00030913704831B910988974CF0222339F0F6
:100E0000809137048F5F0E945B1910923604909195
:100E10009E0380919D03891738F083E00E94FD189E
:100E20008CE792E00E94B11881E08093A2031AC07F
:100E3000882389F02091370430E02D3F31055CF0A4
:100E40004F89411103C0109239040CC00E945B19F4
:100E50001092360407C05F89523021F086E993E092
:100E60000E94FC1481E08093380480913804811141
:100E700089C780919703609198036EA3811103C085
:100E8000662309F47FC77EA1772309F453C58091B7
:100E90003D0490913E04029709F44CC58091920262
:100EA000811129C082E38093E20291E09093E002F5
:100EB0001092AB021092DD021092DE0287E0809366
:100EC000DF0280E88093E1028FEF8093E602809357
:100ED000E7028093E8028093E9021092EE0226E98D
:100EE00033E03093E5022093E4021092EB0210927B
:100EF000EA029093920280915E04882399F0809197
:100F0000E4029091E502FC01ED55FF4F108233970A
:100F10001082D12C11E0CC24C39477247A9487E0FA
:100F2000682EDAC18FEF8093E6028093E702809308
:100F3000E8028093E9021092EE021092EB02109206
:100F4000EA021092AB021092DD021092DE0287E0FC
:100F50008093DF02809161048093EC020091E402AF
:100F60001091E502F801EB53FF4FF08083E08F15FD
:100F700008F0D5C4B697608170E080E090E00E94F0
:100F8000692A2AE037ED43E25DE30E94C82A4B015B
:100F90005C0120E030E0A9010E94052D20E030E056
:100FA00040E05FE387FD05C0C501B4010E94F12B5D
:100FB00004C0C501B4010E94F02B0E94CF2CA801EF
:100FC000435F5F4FD801AB54BF4F212C70E0FA0153
:100FD0008191AF01861758F1E22C8E2D90E0EE2022
:100FE000F1F0FE01E80FF91FD08098012D0D311DA1
:100FF0002D0D311DF901EB54FF4F2D913C911197AF
:101000000190F081E02D2E173F074CF4E1E0F0E075
:10101000EC0FFD1FE80FF91FD082EA94DECFE1E06C
:10102000F0E0EC0FFD1FE80FF91F708323947F5F42
:1010300012967F11CCCF9E012F5F3F4F3A8B298BA9
:101040003F8F2E8FBE01675F7F4F7C8B6B8BCE01F6
:101050000D969E8B8D8B8C5F8BAB49894EA78E8DA9
:10106000841B821508F05BC4AE8DBF8D2D91BF8FA0
:10107000AE8F4091E4023091E502842F932F820FCE
:10108000911D820F911DFC01EB54FF4F2081318196
:101090003B8F2A8F1216130604F78FEF8093E60218
:1010A0008093E7028093E8028093E90235952795C3
:1010B0003BA72AA7AE014F5F5F4F5D8F4C8F18A2F1
:1010C0001AA26FEF7FEF798F688F8A8D9B8D092E23
:1010D000000CAA0BBB0B8FA798ABA9ABBAAB8C8D3E
:1010E0003EA5831B821508F0B8CFAC8DBD8D7D90D9
:1010F000BD8FAC8F3091E4022091E502832F922FB7
:10110000870D911D870D911DFC01EB54FF4F008150
:1011100011816FA578A989A99AA90E94692A4B0112
:101120005C01680117FF04C0CC24DD24C01AD10A79
:10113000EAA4FBA4EC18FD08F7FE03C0F194E194C7
:10114000F1082DEC3CEC4CE45EE3C501B4010E94D7
:10115000C82A0E94CF2C6E157F050CF0BBC2EA8C0A
:10116000FB8CEC18FD08F7FE03C0F194E194F10844
:101170002DEC3CEC4CEC5EE3C501B4010E94C82AA6
:101180000E94CF2C6E157F050CF0A1C6A8CF8D2D27
:101190000E94081AE090E402F090E502F701E056A0
:1011A000FF4F7082B50161507109C70145960E94D9
:1011B0005A14F701E656FF4F808190E02091E80233
:1011C000022E000C330B8217930709F487C6209177
:1011D000E902022E000C330B8217930709F47EC636
:1011E000E091E402F091E502E056FF4F80818F3FED
:1011F00009F400830091ED02C092EE02A090E40297
:10120000B090E502F501E156FF4F8081081708F024
:10121000F5C0E02EF12CB701C50145960E945A1485
:10122000F501E656FF4F808190E02091E602022E04
:10123000000C330B8217930709F49DC62091E70237
:10124000022E000C330B8217930709F494C6A0906A
:10125000E402B090E502F501E156FF4F208130E055
:1012600021503109E216F3060CF0C8C0DD2009F464
:10127000BCC02091E902022E000C330B82179307A9
:1012800009F4B4C6102FDD24D3948091E402909128
:10129000E502FC01E156FF4F2081021710F411E036
:1012A000100F4091DE0250E02091EC02022E000C63
:1012B000330BFC01421753070CF0A8C0E653FF4F55
:1012C0002081222309F49CC01092AB021092DD020F
:1012D0001092DE026092DF022091E4023091E5027A
:1012E000412F50E0F901E156FF4F808190E04E9789
:1012F000481759070CF013C3F901E753FF4FC08299
:10130000A12EB12CE090E402F090E502F701E15645
:10131000FF4F808190E00197A816B9060CF053C0EA
:10132000B501C70145960E945A14F701E656FF4FD2
:101330008080912C8091E702082E000C990B881672
:101340009906A1F18091E602082E000C990B8816EF
:10135000990651F5E090E402F090E502B501615084
:101360007109C70145960E945A14F701E656FF4FCE
:101370008081E80EF11CE80EF11CF701EB54FF4FE1
:101380002091E4023091E5028091E702880F990BE9
:10139000820F931FDC01AB54BF4F808191812D914F
:1013A0003C912817390714F41F5FAACF8091E702F8
:1013B000082E000C990BDD24D3948816990609F0A9
:1013C000D12C1093ED02012F2091E4023091E5021F
:1013D000F901E156FF4F808190E00197A816B90608
:1013E0000CF4D5CEBA9610829AC22091E802022E51
:1013F000000C330B8217930709F4C3C5102F45CF98
:10140000193208F461CFBA97108389C2EF55FF4FA4
:10141000108382E00E94FD188FE192E00E94B118D3
:101420008BE30E94FD1882E292E00E94B118E091E5
:10143000E602EE0FFF0BE55BFB4F6AE070E0808198
:1014400091810E9408198BE30E94FD1886E292E0C8
:101450000E94B118E091E702EE0FFF0BE55BFB4F36
:101460006AE070E0808191810E9408198BE30E94FC
:10147000FD188AE292E00E94B118E091E802EE0FB6
:10148000FF0BE55BFB4F6AE070E0808191810E9479
:1014900008198BE30E94FD188EE292E00E94B118B9
:1014A000E091E902EE0FFF0BE55BFB4F6AE070E0B5
:1014B000808191810E9408198BE30E94FD188BE0C6
:1014C00092E00E94B11880E390E3A0E089839A83C0
:1014D000AB83D12CDE0111967D0112E3A12E12E027
:1014E000B12E0D2D10E08091DD0290E02091E202FE
:1014F00008171907DCF4D21628F4F801E555FD4F5A
:10150000808101C080E01F928F93BF92AF92FF92C3
:10151000EF920E94B12EC7010E94B118D3940F9090
:101520000F900F900F900F900F90DBCFD21628F4F2
:10153000F801E555FD4FB081BCA78CA582958F7051
:101540001F928F9387E392E09F938F93FF92EF9286
:101550000E94B12EC7010E94B1188091DE028770EF
:1015600081500F900F900F900F900F900F9084303C
:10157000F0F08091E202D81628F4F801E555FD4F0D
:1015800020812DA78DA58F701F928F9387E392E006
:101590009F938F93FF92EF920E94B12EC7010E94FA
:1015A000B1180F900F900F900F900F900F908BE34A
:1015B0000E94FD188CE392E00E94B1186AE070E08E
:1015C0008091EA029091EB020E9408198BE30E943D
:1015D000FD1883E292E00E94B1186AE070E0809109
:1015E000DE020E94B3188BE30E94FD1886E192E0B0
:1015F0000E94B1186AE070E0809162040E94B31802
:101600008BE30E94FD1880919B03882349F1809110
:101610005F04811107C08FE392E00E94B1188BE351
:101620000E94FD188091ED028823D1F082E092E0C3
:101630000E94B1186AE070E08091ED020E94B31838
:101640008BE30E94FD1881E492E00E94B1186AE0E9
:1016500070E0809136040E94B3188BE30E94FD185D
:1016600080913A04882339F089E192E00E94B11810
:101670008BE30E94FD1810925E0481E08093380491
:101680008093A203809137043F89311108C02091D3
:10169000350430E0281B3109283231059CF0815097
:1016A0000E945B191092360481E08093600480915F
:1016B0009B03882339F083E492E00E94B1188BE306
:1016C0000E94FD1883E00E94FD188CE792E00E94C2
:1016D000B11830C1101611060CF0BEC47092E902A8
:1016E000BAA1BF5FBAA3E88DF98DE00FF11FF98FA2
:1016F000E88F8091E6028F3F09F4F1CC8091E802F7
:101700008F3F09F4ECCC8091E7028F3F09F4E7CCDE
:101710008091E9028F3F09F4E2CC8FEF8D878E87AD
:101720008F87888B89878A878B878C8741E050E0F9
:101730005DA34CA300E010E0BB24BA94E090E40267
:10174000F090E502F701E156FF4F808190E0081725
:1017500019070CF0C4CCB801C70145960E945A1471
:10176000F701E656FF4FD0808D2D90E02091E602E4
:10177000022E000C330BE090E402F090E502821799
:10178000930709F430C32091E702022E000C330BBB
:101790008217930709F427C32091E802022E000C58
:1017A000330B8217930709F41EC32091E902022E1E
:1017B000000C330B8217930709F415C3F701E056A9
:1017C000FF4F60819801261B31098091EC02082EA1
:1017D000000C990B821793070CF031C331960083EC
:1017E000402FC7010E949A148091E4029091E50273
:1017F0008090E9029090E702A090E8023090E60223
:10180000FC01E80DF11D87FCFA952585FC01E90D29
:10181000F11D97FCFA95C584D12CC20ED11CFC0198
:10182000EA0DF11DA7FCFA952585C21AD108FC0125
:10183000E30DF11D37FCFA9525851092EE02C21AD0
:10184000D108D7FE03C0D194C194D1080D2C000C4F
:10185000EE08FF08FC01E156FF4F8081682F70E021
:1018600078A76FA3072E000C880B990B0E94692A9A
:101870002AE037ED43E25DE30E94C82A2B013C01D8
:1018800020E030E0A9010E94052D20E030E040E09A
:101890005FE387FDB2C2C301B2010E94F12B0E9437
:1018A000CF2C6C157D058E059F050CF418CC78A106
:1018B0008AA1781314CC391409F411CCA81409F4B2
:1018C0000ECC3A1409F40BCC981409F408CC381453
:1018D00009F405CC9A1409F402CCDE011996FE0134
:1018E0003D9691918D91981709F48CC28F3F09F420
:1018F0008BC281E09F3F09F085C29BA99E1386C2DF
:10190000811187C2888D998D66E070E00E942F2D2D
:101910007093EB026093EA02AEA1A111F0CA80912C
:101920005E04882339F080913904882319F081E01E
:101930008093380480919703882309F423C280910F
:101940003D0490913E040197029708F01BC28091DC
:101950003804811117C280913504883208F412C20C
:101960008091A0039091A103892B09F49EC08091DE
:101970003604882341F040E060E086E993E00E946D
:101980009A141092360410915B04115017FD8DC00B
:10199000C12E012E000CDD08F601EE0FFF1FE55BE6
:1019A000FB4F8081918197FF03C0919581959109AB
:1019B0002091A0033091A1038217930730F3F60121
:1019C000EA56FC4F8585882301F38130A9F4E12C88
:1019D000F12CB7018BEA93E00E945A1480913004F5
:1019E00090E08C159D0589F24FEFE41AF40A5AE055
:1019F000E516F10471F702C0883038F688E280936A
:101A0000370480913504883208F44FC018E2E12E83
:101A1000F12C8091350490E00197E816F9060CF05E
:101A200044C0B7018BEA93E00E945A14E09130045D
:101A3000F0E0EE0FFF1FE55BFB4F80819181B70166
:101A40001816190674F48BEA93E00E945A14E09178
:101A50003004F0E0EE0FFF1FE55BFB4F80819181CA
:101A600010C08BEA93E00E945A14E0913004F0E039
:101A7000EE0FFF1FE55BFB4F808191819195819572
:101A800091092091A0033091A1038217930758F088
:101A900010933704412F60E086E993E00E949A1486
:101AA000FF24F39411C01F5FB2CF8091350480935F
:101AB000370480913604882331F040E060E086E905
:101AC00093E00E949A14F12C80919A03882309F4E0
:101AD00084C082E00E94FD1885E492E00E94B11863
:101AE0008BE30E94FD1820E080915B042817C8F565
:101AF000822F90E0FC01EE0FFF1FE55BFB4F0081A2
:101B000011810115110559F1FC01EA56FC4F85853B
:101B1000882329F1622F17FF05C0606A119501958E
:101B2000110901C06068E02E07FD04C0702F7068C5
:101B3000E72E01C060618FEE92E02CAB0E9419117C
:101B40006E2D8FEE92E00E941911612F60688FEE6A
:101B500092E00E9419118BE30E94FD182CA92F5FBF
:101B6000C3CF8091370480FF06C084E092E00E94DA
:101B7000B11810E014C089E792E0F9CFE12FE695A3
:101B800080912F04E81728F4F0E0EA56FC4F85898D
:101B900089A769A58FEE92E00E9419111E5F8091BE
:101BA0003704181758F38BE30E94FD1880E292E087
:101BB0000E94B1188091960360E170E0082E000C3D
:101BC000990B0E9408198BE30E94FD1886E092E0B1
:101BD0000E94B11860E170E06BC082E00E94FD18C5
:101BE00088E492E00E94B1188BE30E94FD1810E097
:101BF00080915B04181760F5812F90E09C01220F03
:101C0000331FD901A55BBB4F6D012D913C91232B57
:101C1000E9F0FC01EA56FC4F85858823B9F086ED92
:101C200091E00E94B1186AE070E0812F0E94B31821
:101C30008DE392E00E94B1186AE070E0F6018081C5
:101C400091810E9408198BE30E94FD181F5FD0CF7D
:101C50008BE092E00E94B11810E0809137041817D1
:101C600070F4612F70E08BEA93E00E945A146AE0EE
:101C700070E0809130040E94B3181F5FEECF8BE3B9
:101C80000E94FD188EE092E00E94B11880919603A8
:101C90006AE070E0082E000C990B0E9408198BE393
:101CA0000E94FD1886E192E00E94B1186AE070E09F
:101CB000809162040E94B3188BE30E94FD18109279
:101CC000390481E08093A2038093380480913A0420
:101CD000882339F089E192E00E94B1188BE30E94D9
:101CE000FD1880919B03882309F4EBC1FF89F11152
:101CF00003C08FE592E005C02F89223039F48BE1D3
:101D000092E00E94B1188BE30E94FD1880915F045D
:101D1000811107C08FE392E00E94B1188BE30E940B
:101D2000FD18FF2041F180919B03882369F083E433
:101D300092E00E94B1186AE070E080919F030E94D7
:101D4000B3188BE30E94FD1880919F038F5F8093EF
:101D50009F033F89311109C08091350490E02091A3
:101D60003704821B9109889734F0809137040E94D0
:101D70005B191092360483E00E94FD188CE792E014
:101D80000E94B11880913804811102C01092390468
:101D9000809135048E3F60F080913D0490913E0427
:101DA000892B31F48AEC92E00E944F191092390489
:101DB0008091390481118DC186E993E00E94FC1461
:101DC00088C167010C948F04809137048093360496
:101DD0000C941C0580913704815080933704FF24B4
:101DE000F3940C943F05F701E156FF4F808190E09A
:101DF00001970817190731F5E1CCC301B2010E9420
:101E0000F02B4DCD80E079CD81E077CD882309F4AA
:101E100068CD8FA198A5801B910B2091EC02022E1A
:101E2000000C330B281739070CF059C9BD86B98649
:101E3000BE86BA86BF86BB86B88ABC863FC0109273
:101E4000EE020BC08091EE02811107C0F701E0564F
:101E5000FF4F0083B1E0B093EE026CA17DA1C701FA
:101E600045960E945A14F701E656FF4F8081EAE03A
:101E7000DE9E800D11248A3008F48C5900FD03C0C9
:101E80002D899E8902C02B899C89E22FF92F90E031
:101E9000482F50E06081262F062E000C330B2417AC
:101EA000350719F06F3F19F48083292F01C02FEFF8
:101EB0009F5F943019F031962F3F61F30F5F1F4FF2
:101EC0002CA13DA12F5F3F4F3DA32CA337CC101673
:101ED00011060CF0CDC07092E70202CC0FEF010F9B
:101EE000023008F47DC9E02EF12CA090E402B090FD
:101EF000E502B70162507109C50145960E945A1466
:101F0000F501E656FF4F808190E02091E802022E15
:101F1000000C330BB701615071097B0182179307E5
:101F200049F02091E902022E000C330B821793072F
:101F300009F0A6C0A090E402B090E502B701C50187
:101F400045960E945A14F501E656FF4F808190E0B5
:101F50002091E802022E000C330B8217930709F43C
:101F60008AC02091E902022E000C330B82179307DE
:101F700009F086C080C0DC240F5F8D2D0E94081AF6
:101F80003DC97FEFE71AF70AB701C50145960E94E0
:101F90005A14F501E656FF4F208130E08091E902A6
:101FA000082E000C990B2817390709F453C0A0908C
:101FB000E402B090E502B701C50145960E945A14AB
:101FC000F501E656FF4F208130E08091E702082EB0
:101FD000000C990B2817390709F010CAE091E402A8
:101FE000F091E502E753FF4F108208CA8FEFE81A1D
:101FF000F80AB701C50145960E945A14F501E65644
:10200000FF4F208130E08091E802082E000C990BF0
:1020100028173907F9F0A090E402B090E502B70163
:10202000C50145960E945A14F501E656FF4F2081DE
:1020300030E08091E602082E000C990B2817390732
:1020400009F020C9E091E402F091E502E753FF4F67
:10205000108218C90F5F90CF7092E802F8A1FF5F5D
:10206000F8A3288D398D201B310B398F288F41CB58
:102070007092E602F3CF02508D2D0E94081A30CFE5
:10208000A090E402B090E502B701C50145960E9418
:102090005A14F501E656FF4F208130E08091E902A5
:1020A000082E000C990B2817390709F099C8E09100
:1020B000E402F091E502E056FF4F0250008300E099
:1020C000DBCFF11041CE57CE81110C941A070C943E
:1020D0003207E4960FB6F894DEBF0FBECDBFDF9196
:1020E000CF911F910F91FF90EF90DF90CF90BF9015
:1020F000AF909F908F907F906F905F904F903F90A8
:102100002F900895CF92DF92EF92FF920F931F933B
:10211000CF93DF936C017A018B01C0E0D0E0CE1544
:10212000DF0589F0D8016D918D01D601ED91FC910B
:102130000190F081E02DC6010995892B11F47E01F3
:1021400002C02196ECCFC701DF91CF911F910F9173
:10215000FF90EF90DF90CF900895089580E090E099
:102160000895FC01538D448D252F30E0842F90E09D
:10217000821B930B541710F0CF9608950197089582
:10218000FC01918D828D981761F0828DDF01A80F7F
:10219000B11D5D968C91928D9F5F9F73928F90E0A1
:1021A00008958FEF9FEF0895FC01918D828D981710
:1021B00031F0828DE80FF11D858D90E008958FEF4D
:1021C0009FEF0895FC01918D228D892F90E0805C16
:1021D0009F4F821B91098F73992708958FEE92E08C
:1021E0000E94E21021E0892B09F420E0822F08955B
:1021F000FC01848DDF01A80FB11DA35ABF4F2C91A4
:10220000848D90E001968F739927848FA689B78972
:102210002C93A089B1898C9180648C93938D848D4B
:10222000981306C00288F389E02D80818F7D80831A
:102230000895EF92FF920F931F93CF93DF93EC01DA
:1022400081E0888F9B8D8C8D981305C0E889F98972
:10225000808185FD24C0F62E0B8D10E00F5F1F4F8F
:102260000F731127E02E8C8DE8120CC00FB607FCFF
:10227000FACFE889F989808185FFF5CFCE010E94E8
:10228000F810F1CF8B8DFE01E80FF11DE35AFF4FDF
:10229000F0820B8FEA89FB898081806207C0EE891A
:1022A000FF896083E889F98980818064808381E087
:1022B00090E0DF91CF911F910F91FF90EF900895E3
:1022C000CF93DF93EC01888D8823C9F0EA89FB89DD
:1022D000808185FD05C0A889B9898C9186FD0FC0D4
:1022E0000FB607FCF5CF808185FFF2CFA889B989A9
:1022F0008C9185FFEDCFCE010E94F810E7CFDF91E2
:10230000CF91089508950895FC01099480E00895FF
:102310000E945B2EFC0180819181009711F00C944A
:10232000262A60E070E0CB0108950F931F93CF93AE
:10233000DF93EC0188819981009729F02A813B8104
:102340002617370788F48B016F5F7F4F0E94912D0E
:10235000009761F0998388831B830A832C813D81D8
:10236000232B11F4FC01108281E001C080E0DF9199
:10237000CF911F910F910895EF92FF920F931F93AA
:10238000CF93DF93EC017B018A01BA010E94951182
:102390002881398181110DC02115310519F0C9013C
:1023A0000E948E29198218821D821C821B821A8229
:1023B00006C01D830C83B701C9010E94902ECE0177
:1023C000DF91CF911F910F91FF90EF900895CF93E0
:1023D000DF93EC016115710559F0FB0101900020BC
:1023E000E9F73197AF01461B570B0E94BC110CC097
:1023F00088819981009711F00E948E291982188294
:102400001D821C821B821A82CE01DF91CF9108951A
:10241000FF920F931F93CF93DF9300D0CDB7DEB71A
:10242000FF24F3948FEE92E00E94E210892B09F4CE
:1024300046C08FEE92E00E94C0108A3041F01CF43A
:10244000882329F007C08D3011F0833219F4F092FF
:102450008C0222C089831A82009194031091950303
:102460000F5F1F4FB80180E993E00E949511882308
:1024700099F0209190033091910380919403909171
:102480009503BE016F5F7F4F820F931F0E94902EB6
:102490001093950300939403809194039091950376
:1024A0008D32914008F4BECF6DE772E080E993E091
:1024B0000E94E7118CE493E00E944F19B3CF0F9074
:1024C0000F90DF91CF911F910F91FF9008950E947F
:1024D000EE1081110C9408120895FC018081918105
:1024E0000C948E29FC0111821082138212821582B3
:1024F00014826115710551F0FB0101900020E9F78C
:102500003197AF01461B570B0C94BC1108951F92D5
:102510000F920FB60F9211242F933F934F935F9317
:102520006F937F938F939F93AF93BF93EF93FF939B
:102530008FEE92E00E94F810FF91EF91BF91AF9162
:102540009F918F917F916F915F914F913F912F91CB
:102550000F900FBE0F901F9018951F920F920FB6FD
:102560000F9211242F938F939F93EF93FF93E091FA
:10257000FF02F09100038081E0910503F0910603D2
:1025800082FD12C09081809108038F5F8F7320912C
:102590000903821751F0E0910803F0E0E151FD4F8B
:1025A000958F8093080301C08081FF91EF919F91E7
:1025B0008F912F910F900FBE0F901F9018953FB7DE
:1025C000F8948091A7029091A802A091A902B091DD
:1025D000AA0226B5A89B05C02F3F19F00196A11DA0
:1025E000B11D3FBFBA2FA92F982F8827820F911DA9
:1025F000A11DB11DBC01CD0143E0660F771F881FEF
:10260000991F4A95D1F708958F929F92AF92BF92EA
:10261000CF92DF92EF92FF926B017C010E94DF125A
:102620004B015C01C114D104E104F104F1F00E94FA
:10263000DF12DC01CB0188199909AA09BB09883E80
:102640009340A105B10570F321E0C21AD108E10859
:10265000F10888EE880E83E0981EA11CB11CC114FD
:10266000D104E104F10419F7DDCFFF90EF90DF9082
:10267000CF90BF90AF909F908F900895CF92DF92B0
:10268000EF92FF920F931F93F8940E94DF12009134
:102690008C0310918D0320918E0330918F036B0179
:1026A0007C01C01AD10AE20AF30A970186016093FD
:1026B0008C0370938D0380938E0390938F030A3560
:1026C00011052105310578F181E0C8168DE7D8069E
:1026D000E104F10410F4960102C021E03DE74A9BB9
:1026E00003C031952195310980916A048837D8F467
:1026F00080916A048F5F80936A0480916B0460917B
:1027000069040E940F2D90936B04E0916B04F0E03C
:10271000EE0FFF1FE359FB4F3183208380916B0441
:102720008F5F80936B0478941F910F91FF90EF90CF
:10273000DF90CF9008951F920F920FB60F92112441
:102740002F933F938F939F93AF93BF938091A30257
:102750009091A402A091A502B091A6023091A2028C
:1027600026E0230F2D3720F40296A11DB11D05C0D0
:1027700029E8230F0396A11DB11D2093A202809387
:10278000A3029093A402A093A502B093A602809105
:10279000A7029091A802A091A902B091AA02019665
:1027A000A11DB11D8093A7029093A802A093A90236
:1027B000B093AA02BF91AF919F918F913F912F91BA
:1027C0000F900FBE0F901F9018951F920F920FB68B
:1027D0000F9211242F933F934F935F936F937F93A7
:1027E0008F939F93AF93BF93EF93FF93E091060175
:1027F000F09107010995FF91EF91BF91AF919F91E2
:102800008F917F916F915F914F913F912F910F9099
:102810000FBE0F901F9018951F920F920FB60F9238
:1028200011242F933F934F935F936F937F938F93D5
:102830009F93AF93BF93EF93FF93E0910401F091C7
:1028400005010995FF91EF91BF91AF919F918F91F4
:102850007F916F915F914F913F912F910F900FBE9C
:102860000F901F9018951F920F920FB60F92112480
:102870002F933F934F935F936F937F938F939F9388
:10288000AF93BF93EF93FF93E0918802F091890299
:102890000995FF91EF91BF91AF919F918F917F919A
:1028A0006F915F914F913F912F910F900FBE0F90BD
:1028B0001F901895CF93DF93FC01EE57FF4F408197
:1028C000469FF001479FF00D11249F0153E036957C
:1028D00027955A95E1F7DC01AC57BF4F5C9125175E
:1028E00020F5DC01A20FB11DEC01CD57DF4F28818F
:1028F00030E0E770FF2702C035952795EA95E2F7AB
:102900003C91232330E058E0541B469F402D112476
:102910004770541B02C0359527955A95E2F7322F20
:10292000FC01EB57FF4F208301C03FEF832FDF9166
:10293000CF910895FC01E156FF4F2081222309F435
:102940005AC0E259F109DC0155961192EA17FB07CA
:10295000E1F7411102C04FEF420F262F2695542F69
:10296000569560FF13C0FC01E756FF4F60812617A4
:1029700020F4FC01E20FF11D3589632F6F70FC011B
:10298000E60FF11D65856F5F65872F5FDC01A75638
:10299000BF4F5217E8F06C91261720F4FC01E20FAC
:1029A000F11D3589E32FF0E064E0F595E7956A9530
:1029B000E1F7E80FF91F65856F5F6587632F6F701B
:1029C000FC01E60FF11D65856F5F65872F5FE1CF25
:1029D00040FD11C0FC01E756FF4F2081521720F443
:1029E000FC01E50FF11D35893F70FC01E30FF11D7E
:1029F0008585815085870895CF93DF93FC01E1564B
:102A0000FF4F1082DC01AB53BF4F1C92B796108270
:102A1000FC01158AEC56FF4F1082319610823196D8
:102A200027E02083719611821082B0962FEF2083C9
:102A3000FC012083EB54FF4FEC012D961192119273
:102A40001992EA17FB07D1F7FC01EE55FF4F1082F0
:102A5000339626E930E0318320833C9640E050E015
:102A600060E87EE3408351836283738371971082B1
:102A70003396108231961082B4961082319621E0FE
:102A8000208331961082B9971082DF91CF910895FB
:102A90000C94912B0C94892B6FEB8FEF90E00E949C
:102AA000481560E580EF90E00E94481560E081EFF6
:102AB00090E00E94481564E082EF90E00E94481583
:102AC0006FE183EF90E00E94481560E484EF90E0AE
:102AD0000E94481589E593E00C944F19CF938FEF2E
:102AE00090E00E944A15982F91709093990381FB72
:102AF000992790F99093970382FB992790F99093E7
:102B0000980383FB992790F990939A0384FB992764
:102B100090F990939B0385FB992790F9909302017C
:102B200086FB882780F980939C0380EF90E00E94C9
:102B30004A158093030182EF90E00E944A1580932A
:102B40009D0383EF90E00E944A15C82F84EF90E028
:102B50000E944A152C2FCC0F330B322F2227280F1F
:102B6000311D3093A1032093A00381EF90E00E94D8
:102B70004A15811101C081E180936104CF910895CC
:102B8000CF93C82F803120F48BE492E00E94B118DB
:102B900060E170E08C2FCF910C94B3188F929F92CC
:102BA000AF92BF92CF92DF92EF92FF928FB7F894DD
:102BB000C090A302D090A402E090A502F090A602DB
:102BC0008FBF80919E0290919F02A091A002B09130
:102BD000A102C816D906EA06FB0628F480919D02D8
:102BE0008F5F80939D02C0929E02D0929F02E092DE
:102BF000A002F092A102A0919D02B0E027E339E883
:102C000041E450E00E949F2B4B015C01C701B601DB
:102C100028EE33E040E050E00E94432DC501B401AE
:102C2000620F731F841F951FFF90EF90DF90CF906E
:102C3000BF90AF909F908F9008950F931F930E9425
:102C4000DF1200918C0310918D0320918E0330913F
:102C50008F03DC01CB01801B910BA20BB30B8230E5
:102C60009D47A105B10580F14A9903C02FEF32E8D5
:102C700002C021E03DE780916A048837D8F4809152
:102C80006A048F5F80936A0480916B046091690489
:102C90000E940F2D90936B04E0916B04F0E0EE0F17
:102CA000FF1FE359FB4F3183208380916B048F5FBB
:102CB00080936B040E94DF1260938C0370938D03EA
:102CC00080938E0390938F0380919B0290919C023E
:102CD0009C012F5F3F4F30939C0220939B02892BD6
:102CE00051F480919A0291E0980F90939A02811189
:102CF00002C00E94CE1520918B02E1E4F3E0949192
:102D0000EDE2F3E08491E9E1F3E0E491EE2309F4EC
:102D10003BC0992339F1933091F038F49130A9F008
:102D2000923001F594B59F7D12C0973091F09830A4
:102D3000A1F09430B9F4909180009F7D03C09091F0
:102D400080009F77909380000DC094B59F7794BDCD
:102D500009C09091B0009F7703C09091B0009F7D13
:102D60009093B000F0E0EE0FFF1FEA5FFC4FA591DB
:102D7000B4919FB7F894EC91211103C080958E23F4
:102D800001C08E2B8C939FBF10928B021F910F91CD
:102D90000895CF93DF93C2E0D0E0FE01E552FD4FEE
:102DA0006491CE010E9448152196CB32D105A9F736
:102DB000C0E3D0E0C13321F464E881E390E002C0D5
:102DC00060E0CE010E9448152196C833D10591F7E5
:102DD0008DE492E0DF91CF910C9411188EBD0DB46B
:102DE00007FEFDCF8EB50895CF93DF932A981C99E7
:102DF000FECF8EE70E94EE16C0E3D0E0CE010E9427
:102E00004A150E94EE162196C833D105B9F72A9AC1
:102E1000DF91CF910895CF93DF931F92CDB7DEB7A7
:102E20002A981C99FECF69830E94EE166981862F2D
:102E30000E94EE162A9A0F90DF91CF9108952A985A
:102E40001C99FECF862B0E94EE1680E00E94EE16A3
:102E50002A9A089560EC84E30C941F172A981C9911
:102E6000FECF0E94EE161C99FECF2A9A089586E3A3
:102E70000E942E1761E070E080E090E00C94041353
:102E8000E89882E891E19093050180930401809194
:102E90008A0281110E94371710926A0410926C0402
:102EA00010926B040895CF93DF930E943717CEEFF3
:102EB000CF3FC1F084E30E942E17DFEFDC0F807755
:102EC000803141F061E070E080E090E00E94041306
:102ED000CD2FEECFC11106C081E692E0DF91CF91F8
:102EE0000C941118DF91CF9108958EE393E19093A4
:102EF000050180930401809169008C7F816080933B
:102F00006900E89A80918A0281110C945317089500
:102F1000CF93DF932A9A88E390E0FC013197F1F791
:102F20002A980197F1F72A9A86E590E00197F1F740
:102F300080E30E942E176AE070E080E090E00E943B
:102F400004132A9880E40E94EE16C2E0D0E0CE017D
:102F50000E944A150E94EE162196CB32D105B9F790
:102F60002A9A80E190E00197F1F70E94F41661E05F
:102F700070E080E090E00E940413DF91CF910C9408
:102F80005317CF93C82F803120F48BE492E00E9436
:102F9000B11860E170E08C2FCF910C94B31890EDD4
:102FA000980F9A3070F09FE9980F963010F499EAD4
:102FB00005C09FEB980F963018F499EC980F01C05C
:102FC000982F892F08951F93CF93DF93C82FD0E0B8
:102FD000CE010E94C7180E94CF17182F1295107F9C
:102FE000CE0101960E94C7180E94CF17810FDF9172
:102FF000CF911F910895009769F0FC010190002086
:10300000E9F73197AF01481B590BBC018FEE92E0F5
:103010000C94821080E090E008958BE792E00C948D
:10302000FB17CF93DF930E94FB17EC010E940D1852
:103030008C0F9D1FDF91CF9108958F929F92AF9239
:10304000BF920F931F93CF93DF93CDB7DEB7A197B6
:103050000FB6F894DEBF0FBECDBF19A2423008F400
:103060004AE08E010F5D1F4F842E912CA12CB12CB4
:10307000A50194010E94432DE62FB901CA01015018
:103080001109EA3014F4E05D01C0E95CD801EC9369
:10309000232B242B252B61F7C8010E94FB17A19637
:1030A0000FB6F894DEBF0FBECDBFDF91CF911F9159
:1030B0000F91BF90AF909F908F900895DF92EF9205
:1030C000FF920F931F93CF93DF937C018B01EA0153
:1030D0004617570720F4812F8A01C62FD82F6DE796
:1030E00072E0C7010E94721280919403909195033F
:1030F00008171907E0F48C179D0708F4EC01E0911C
:103100009003F0919103EC0FFD1FD080108260912D
:10311000900370919103600F711FC7010E94E71126
:10312000E0919003F0919103EC0FFD1FD082C70155
:10313000DF91CF911F910F91FF90EF90DF90089555
:10314000CF93DF93682F70E080E090E04AE00E9428
:103150001D18EC010E940D188C0F9D1FDF91CF915F
:1031600008950C94FB17AB01672B59F4E091EF0223
:10317000F091F0020190F081E02D682F8FEE92E047
:103180000994682F70E080E090E00C941D18209165
:103190009403309195038217930760F42091900374
:1031A000309191032115310529F0F901E80FF91F3C
:1031B0008081089580E008950F931F93CF93DF934C
:1031C0008C01C0E0D0E0F801EC0FFD1F6491662394
:1031D00071F0E091EF02F091F0020190F081E02DAA
:1031E0008FEE92E00995892B11F02196ECCFCE015C
:1031F000DF91CF911F910F910895E091EF02F0912F
:10320000F0020190F081E02D682F8FEE92E009949A
:10321000CF92DF92EF92FF92CF93DF93611571050A
:1032200089F4E091EF02F091F0020190F081E02D3D
:10323000682F8FEE92E0DF91CF91FF90EF90DF90BB
:10324000CF9009946C01990FEE08FF086A30710560
:10325000D9F4F7FE17C08DE20E94FD18EC01662735
:103260007727CB016C197D098E099F094AE00E94DE
:103270001D188C0F9D1FDF91CF91FF90EF90DF9075
:10328000CF9008954AE001C0462FC701B601DF91F3
:10329000CF91FF90EF90DF90CF900C941D18CF93BB
:1032A000DF930E94DC18EC010E940D188C0F9D1F0B
:1032B000DF91CF9108950F931F93CF93109239040C
:1032C000882309F4A1C090913504992309F49CC086
:1032D000C82F492F50E0282F30E024173507A4F0DD
:1032E000981758F489E793E00E94DC1881E793E08F
:1032F0000E94DC188C2F0E94A01886E993E0CF91E1
:103300001F910F910C94FC1480912B04482F50E0D6
:103310004217530708F46EC0B90176956795B62F2A
:103320002417350739F41092AB0310922A04109237
:103330002B043BC040912A04C0FF3DC00BEA13E0C0
:10334000A62FAB1B641798F4E62FF0E0EA56FC4F6B
:103350002689522F52955F70958970E1979F900151
:103360001124252BF80121938F016F5FE9CF80FD98
:103370000CC0B0E0AA56BC4FE62FF0E0EA56FC4F76
:1033800095899295907F55969C938C1B80932B04E6
:10339000482F50E09A012150310937FD9A013595A7
:1033A000279520932A0480FD02C087E001C083E0B6
:1033B00080932C0411C0461B40932A0450E04F5FB9
:1033C0005F4F65557C4F8BEA93E00E94752E80918C
:1033D0002B048C1B80932B0481E080933904809113
:1033E0002B048093350481110FC010924604109273
:1033F00045040AC08EE792E00E94B1188C2FCF914D
:103400001F910F910C94A018CF911F910F910895C7
:103410009091DF024091DE029730A9F4442399F0A5
:10342000E091DD026E2F70E02091E20230E0215049
:10343000310962177307A4F5EF5FE093DD02F0E056
:10344000E555FD4F10825091E002652F70E0292F65
:1034500030E02F5F3F4F261B370B1216130624F464
:1034600001C0880F2A95EAF7E091DD02F0E0E5550A
:10347000FD4F2081822B80834F5F4093DE02292FF6
:10348000092E000C330B261B370B37FD04C0951B90
:103490009093DF0203C087E08093DF0281E008950C
:1034A00080E00895CF93DF93CDB7DEB7C659D10939
:1034B0000FB6F894DEBF0FBECDBF789484B582609E
:1034C00084BD84B5816084BD85B5826085BD85B5C8
:1034D000816085BD80916E00816080936E00109246
:1034E00081008091810082608093810080918100C1
:1034F0008160809381008091800081608093800052
:103500008091B10084608093B1008091B0008160AF
:103510008093B00080917A00846080937A008091DB
:103520007A00826080937A0080917A008E7F809307
:103530007A0080917A00806880937A001092C100AE
:10354000E091FF02F091000382E08083E091FB02B2
:10355000F091FC021082E091FD02F091FE0280E108
:10356000808310920703E0910303F091040386E047
:103570008083E0910103F091020380818061808368
:10358000E0910103F0910203808188608083E091E3
:103590000103F0910203808180688083E091010340
:1035A000F091020380818F7D80838CE191E00E9405
:1035B0004F195298219A259A239A2498229A80E5A5
:1035C0008CBD53982A9A2D9A2B9880E090E00E9407
:1035D0004A15833339F481E090E00E944A158D3218
:1035E00009F450C60E944C1580E090E00E944A15F4
:1035F000833311F00E94C91663E380E090E00E94DB
:1036000048156DE281E090E00E9448150E946E1519
:1036100084E191E00E94DC180E94881760E881EF45
:103620000E941F17182F8FEF810F8E3F38F083E015
:1036300091E00E94DC1810928A0207C08FEF90E0A0
:103640000E94DC1881E080938A0287EF90E00E945C
:10365000DC186AE070E0812F0E94B3188BEE90E0D6
:103660000E94DC1860E880EF0E941F170E94A018DB
:1036700080918A021E821D82882399F084E891E15C
:103680009C838B838B819C81AD81BE8180936504FB
:1036900090936604A0936704B09368048AE297E16C
:1036A00012C084E891E19C838B838B819C81AD81E6
:1036B000BE818093650490936604A0936704B093E1
:1036C000680486E891E19093640480936304539ABC
:1036D00080919B03882321F089ED90E00E944F198F
:1036E00062E370E080E090E00E94041380E1809348
:1036F00081001092800082E080938F028CE89CE32E
:1037000090938E0280938D02909387008093860021
:1037100082E1809381008DE196E19093890280930C
:10372000880281E080936F006CE271E080E993E0B1
:103730000E94951180918A02811109C00E9475171B
:1037400080919B03882399F088EC90E00EC060E89C
:1037500088E00E941F17823331F460E880E00E9405
:103760001F178D3059F383E890E00E944F199E0196
:103770002F5F3F4F1901BE016B587F4FEB967FAF14
:103780006EAFEB978DE0861BCD56DF4F8883C35914
:10379000D04080908C02882009F47CC310928C0267
:1037A00080E090E00E94C718803549F48FE291E0F4
:1037B0000E94111884EE93E00197F1F75EC38F33F6
:1037C00009F06DC081E090E00E94C718833591F444
:1037D00003E111E0D8018D919D918D010E94B118F6
:1037E00081EC91E00E94B118B1E00B311B0709F4A4
:1037F00017C2F0CF8FE30E94FD1882E292E00E9490
:10380000DC1886E50E94FD1880E20E94FD1882E522
:103810000E94FD1880E20E94FD1884E70E94FD18B6
:1038200080E20E94FD1888E50E94FD1880E20E9457
:10383000FD1886E40E94FD1880E20E94FD1883E5D1
:103840000E94FD1880E20E94FD1880E50E94FD188C
:1038500080E20E94FD1883E40E94FD1880E20E942D
:10386000FD1882E70E94FD1880E20E94FD1887E59E
:103870000E94FD1880E20E94FD1880918A02882330
:1038800009F4CEC188E70E94FD1880E20E94FD186D
:1038900085E60E94FD1880E20E94FD18C1C18635B0
:1038A00089F482E391E00E94B11880918A02882312
:1038B00021F08AE192E00E94DC188BE491E00E9402
:1038C0001118DBC2823521F580915D0590915E056E
:1038D000009711F481E695E06101C81AD90A0D2C10
:1038E000000CEE08FF08F7FE0BC08DE20E94FD18E9
:1038F00066277727CB016C197D098E099F0997C12F
:103900004AE0C701B6010E941D180E940D18B5C2F9
:10391000833509F088C10E944017A12CB12CDD2409
:10392000DA94EC961FAEEC97912C21E0C657DF4F4E
:103930002883CA58D040B6E1CB2E1BE0812E7724D5
:1039400073946EE671E0CE0181599F4F0E9472120E
:103950008091940390919503A816B90698F400916C
:10396000900310919103E1966EAD7FADE197C80190
:103970008A0D9B1D0E94972E009721F07C01E01A72
:10398000F10A03C0EE24EA94FE2CCE0181599F4F28
:103990000E946D123FEFE316F30611F40C942F26EC
:1039A0006FEFA616B60611F40C942F26C5010E94DF
:1039B000C718282F80930101C5010196CA56DF4F11
:1039C0002883C659D0400E94C718382F8093000121
:1039D000CA56DF4F2881C659D040233519F120350A
:1039E000D1F4C5010296CC56DF4F3883C459D0407C
:1039F0000E94C718CA56DF4F2881C659D040CC56FE
:103A0000DF4F3881C459D0408D3309F003C185019F
:103A10000D5F1F4F09C08D3309F0FCC085010E5F9B
:103A20001F4F02C000E010E057017FEFA71AB70A4E
:103A30002335B9F465E0D61609F4ECC0333409F443
:103A4000E6C03D3419F0323509F07BCFD394F10153
:103A5000CD9CE00DF11D112411821082758A912CEC
:103A600070CF223559F5992091F0A701B801CE0108
:103A700081599F4F0E945E18CE0181599F4F0E942D
:103A80008A11C657DF4F6883CA58D04072C07FEF93
:103A9000D71609F456CFA701B801CE0181599F4F1F
:103AA0000E945E18CE0181599F4F0E948A11F10138
:103AB000CD9CE00DF11D1124658B5BC08FEFD816F6
:103AC00009F43FCF203591F5A80141505109B801C3
:103AD00062507109CE0181599F4F0E945E18CE013C
:103AE00081599F4F0E948A11662ECE0181599F4FA6
:103AF0000E946D1298E0961508F48CC0A701B801D9
:103B0000CE0181599F4F0E945E18CE0181599F4F6F
:103B10000E948A118D9CF0011124E60DF11DEE0F1B
:103B2000FF1FE20DF31D7683658323C0243461F407
:103B3000F101CD9CE00DF11D11240283A1E0EA1AF0
:103B4000F108F482E382FDCE2334C9F4A701B80161
:103B5000CE0181599F4F0E945E18CE0181599F4F1F
:103B60000E948A11F101CD9CE00DF11D1124718399
:103B70006083CE0181599F4F0E946D12E2CE2634A0
:103B800009F0DFCEC501801B910B97FD019695953D
:103B90008795EC968FAFEC978150853008F0D1CEA9
:103BA00080918A02882309F4CCCEFE01EB58FF4FA6
:103BB0007F01CD56DF4F5880C359D0405E0C60E87E
:103BC000852D0E941F17D7018D937D01C8010E948A
:103BD000C7180E94CF17682E629450EF6522C80163
:103BE00001960E94C7180E94CF17662D680F852D79
:103BF0000E940B170E5F1F4F8E2DEA96BFADEA97FE
:103C00008B1BEC962FADEC97821798F29ACE9924E5
:103C1000939497CE8AE391E00E94DC180E94751776
:103C20008DE792E04CCE843721F40E94CE154AE015
:103C30006ACE883591F481E090E00E94C718813502
:103C400011F40E94401781E090E00E94C71885346B
:103C500009F013C10E94751710C1863409F40DC113
:103C6000833409F088C081E090E00E94C718182FC3
:103C7000873409F07AC086EA91E00E94DC188091CE
:103C800099036AE070E090E00E94081981EA91E0EF
:103C90000E94DC18809197036AE070E090E00E9437
:103CA00008198CE991E00E94DC18809198036AE081
:103CB00070E090E00E94081985E991E00E94DC180C
:103CC00080919A036AE070E090E00E940819809168
:103CD0000201811104C08EE891E00E94DC188091FD
:103CE0009C03882321F085E891E00E94DC188CE792
:103CF00091E00E94DC1880919B036AE070E090E004
:103D00000E94081984E791E00E94DC186AE070E0E4
:103D100080919D030E94B31884E691E00E94DC1814
:103D20006091A0037091A10380E090E04AE00E94BE
:103D30001D1880916104813151F086E591E00E9467
:103D4000DC186AE070E0809161040E94B3188091F1
:103D50009B03882309F464CF86E491E00E94DC1879
:103D60006AE070E0809103015BC08CEB810F8230D0
:103D700008F074C074C3873509F055C081E090E045
:103D80000E94C718182F833509F000C482E090E024
:103D90000E94C718833309F0F9C380918A028823EF
:103DA00009F4F4C383E090E00E94C718182F082E8E
:103DB000000C990B0E94602E892B09F45EC0812FA4
:103DC0000E94CF1710E3180F1E3308F056C0812F42
:103DD0000E942E17F82E61E070E080E090E00E94D3
:103DE00004138DE30E942E17082F81ED91E00E94AD
:103DF000DC18812F0E94C11784EC91E00E94DC182E
:103E000060E170E08F2D82958F700E94B3188BEB6C
:103E100091E00E94DC1860E170E0802F82958F7045
:103E20000E94B318FDCE823709F05DC481E090E0B6
:103E30000E94C718082E000C990B0E94602E892B37
:103E4000C1F082E090E00E94C718082E000C990B88
:103E50000E94602E892B09F011C40BC0133509F4A0
:103E600016C2812F110F990B0E94602E892B09F029
:103E7000E5C28FED91E00E944F1980918C02811173
:103E800006C06DE772E080E993E00E94E71181E0EF
:103E900080938B021092A20301E080916A04882330
:103EA00009F4EDC180916A04815080936A04809185
:103EB0006C04609169040E940F2D90936C04E09152
:103EC0006C0481E08E0F80936C04F0E0EE0FFF1F16
:103ED000E359FB4F808191819093910280939002EE
:103EE00010923804609135046623E9F070E0615067
:103EF00071098BEA93E00E945A148091300490E09B
:103F0000880F991F855B9B4F9093460480934504CF
:103F1000E0914304F09144048081918190933404B2
:103F20008093330404C010924604109245044091DB
:103F3000900250919102E0914304F0914404518326
:103F4000408380913504882361F0E0914504F0912D
:103F50004604309731F0208131812427352737FFFF
:103F600003C04115534864F51AE080E00E94F30154
:103F700080913504811105C01092460410924504C9
:103F800006C0115091F786E993E00E94FC1410924C
:103F90009E0310929F0320915C04E0914304F091F2
:103FA000440480819181E22FF0E0EE0FFF1FE55B7A
:103FB000FB4F918380832F5F20935C0410E015C139
:103FC0008E3F50F081E00E94F30140E060E086E91E
:103FD00093E00E949A1434C0883291F563E070E057
:103FE00070933E0460933D04809163049091640457
:103FF000009751F42091650430916604232B21F43D
:104000002091670420FF1CC0E0916504F0916604D4
:1040100040916704509168049A013595279540FFB7
:104020000AC0DC01A20FB31F4D915C91E40FF51F94
:104030000190F081E02D820F931F09958093620417
:10404000C0904304D0904404D601ED90FC90B70199
:10405000F7FE04C0662777276E197F09072E000C2C
:10406000880B990B0E94692A2DEC3CEC4CE45EE332
:104070000E94C82A0E94D62CAB0170933C04609326
:104080003B04B0905B04EBE4F4E080E090E0182F98
:104090008B1500F521913191B9016E257F2577FDB2
:1040A00017C021153105A1F0DC01AA56BC4F1D96A1
:1040B0006C91662369F0B701621B730B9B0177FF5C
:1040C00003C0319521953109421753070CF063C3A2
:1040D0000196DDCFB8E0BB1263C0E0915C04F0E074
:1040E000EA56FC4F8585833060F180913D049091C4
:1040F0003E04181619062CF51AE0F12C8091A20343
:10410000882321F01092A203FF24F39482E00E94FE
:10411000F30180913504883268F410929E03109266
:104120009F03F092A20340E060E086E993E00E94E2
:104130009A1407C08091A203882379F31150F1F6F5
:10414000ECCF10913504112359F11150E0915C042A
:10415000F0E0EA56FC4F8585882311F1612F70E06D
:104160008BEA93E00E945A149091300480915C0491
:1041700098130BC081E0810F0E945B1940E060E062
:1041800086E993E00E949A140BC01130F1F68091F9
:1041900035048E3FD0F287EB92E00E944F19D5CFC5
:1041A00010915C04E0914304F0914404808191817A
:1041B000E12FF0E0EE0FFF1FE55BFB4F9183808363
:1041C00081E0810F883019F080935C0406C0109262
:1041D0005C0480935B0410925E0480915C04909177
:1041E0005B04981710F480935B04712F80912C046A
:1041F00090912B048730B1F49923A1F0E0912A0427
:104200004E2F50E020912F0430E021503109421709
:1042100053070CF020C3EF5FE0932A04F0E0EA5666
:10422000FC4F158A60912D04462F50E0282F30E076
:104230002F5F3F4F241B350B121613062CF4712FE2
:1042400001C0770F2A95EAF7E0912A04F0E0EA56D8
:10425000FC4F2589722B758B9F5F90932B04282F21
:10426000082E000C330B241B350B37FD04C0861BB6
:1042700080932C04B8C2E7E0E0932C04B4C20E94FF
:10428000671287CA88E690E00E944F19BFC96DE3A4
:1042900072E0C1010E947212809194039091950383
:1042A000059788F0009190031091910369817A81BC
:1042B000C80104960E94972E009729F0FC01E01B8C
:1042C000F10B8F0102C00FEF1FEFC1010E946D12B1
:1042D00093E1A92E91E0B92EE12CF12C11279E2C0F
:1042E000D501CD90DD905D01A80162E070E0C101D3
:1042F0000E945E188D819E81892B49F4C114D104DE
:1043000021F021E0F60180810AC0282D12C08981A8
:104310009A81C114D10431F421E0DC018C9188230D
:1043200041F006C0B6010E94872E21E0892B09F0DA
:1043300020E0C101CA56DF4F2883C659D0400E94F1
:104340006D12CA56DF4F2881C659D0402223C9F1C9
:10435000C601CA56DF4F9882C659D0400E94B11894
:104360008DE392E00E94B118CA56DF4F2881C659EA
:10437000D040B3E09B1691F1409194035091950386
:10438000B8016F5F7F4FC1010E945E18C1010E949A
:104390008A11D62EC62EC1010E946D128D2D0E944B
:1043A000A018F701E25FFE4F80816D2D90E00E9422
:1043B0004815992081F0292D213089F4D09261048B
:1043C0005CCDEFEFEE1AFE0AF4E0EF16F10409F00F
:1043D00086CF24E003C0D09203014FCDC12C223000
:1043E00019F4C0929D0349CD233009F019CC4091B6
:1043F000940350919503B8016F5F7F4FC1010E94F4
:104400005E18C1010E948A117093A1036093A003FA
:10441000C1010E946D126091A10383EF90E00E94A0
:1044200048156091A00384EF90E00E9448156091C8
:10443000A0037091A10380E090E0F9CB82E090E0CE
:104440000E94C718082E000C990B0E94602E892B21
:1044500009F40FCD80918A0281111DC00ACD82E03E
:1044600090E00E94C718833509F409C6853509F420
:10447000F4C5833409F4F4C5823509F4F4C58434F1
:1044800009F4F4C58C3409F4F4C5863409F0F4C594
:10449000ECE9F3E0F6C581E00E94E317182F83E012
:1044A00090E00E94C7188E3669F484E090E00E9484
:1044B000C718082F082E000C990B0E94602E892B1C
:1044C00009F0B5C01E33A8F41F3210F460E801C033
:1044D00060EC812F0E941F17082F80E292E00E945B
:1044E000B118812F0E94C1178AE891E00E94B1188B
:1044F0009AC01E3321F584EB91E00E94DC182A98C3
:104500001C99FECF8EEF0E94EE168101710188E0AA
:10451000D82ED20C80E00E94EE16D7018D937D013B
:10452000DA12F8CF2A9AF80181918F010E94C117FF
:1045300081EC91E00E94B118D012F5CF71CB1939FE
:1045400009F09BCC10E0112341F0103111F0103232
:1045500079F481EC91E00E94B1188DEA91E00E941B
:10456000DC18812F0E94C1178AEA91E00E94DC18B2
:1045700060E8812F0E941F170E94C11781EC91E013
:104580000E94B1181F5F1F32F1F64ACB812F110F25
:10459000990B0E94602E892B09F46BCC82E090E08D
:1045A0000E94C718082E000C990B0E94602E892BC0
:1045B00009F45FCC83E090E00E94C718082E000C3D
:1045C000990B0E94602E892B09F453CC84E090E073
:1045D0000E94C718082E000C990B0E94602E892B90
:1045E00009F447CC81E00E94E317182F83E00E9472
:1045F000E317082F682F812F90E00E9448158091C3
:104600008A02882309F439CC8EEF810F8E3308F0AB
:1046100034CC602F0E940B178EE891E00E94B118F5
:10462000812F0E94C117802F0E94C117F9CA802FC5
:104630000E94CF17082F1F3208F01FCC80E292E0B3
:104640000E94B118812F0E94C11781EA91E00E9457
:10465000B1180E5F802F0E94C1178DE392E00E9477
:10466000B118F12CF01608F0DBCA60E88F2D810F2D
:104670000E941F170E94C117F394F4CF81E00E949B
:10468000E317082F82E192E00E94DC18802F0E943D
:10469000C01583E090E00E94C71810E08E36C9F480
:1046A0008FE092E00E94DC18E12CF12C81EC91E08B
:1046B0000E94B118C701800F911F0E944A150E94E5
:1046C000C015FFEFEF1AFF0A20E1E216F10471F7BF
:1046D000A7CA8BE092E00E94DC18C8010E944A152C
:1046E0000E94C0159DCA8837F1F581E090E00E94D4
:1046F000C718082E000C990B0E94602E892B09F414
:10470000B8CB82E090E00E94C718082E000C990BED
:104710000E94602E892B09F4ACCB80918A028823F9
:1047200009F4A7CB81E00E94E317F82E00E310E024
:10473000013321F46F2D81E390E002C060E0C801F5
:104740000E9448150F5F1F4F0833110589F70E941B
:10475000F41684E092E00E94DC188F2D0E94C015B0
:1047600083EF91E088CB853609F083CB81E090E040
:104770000E94C718833429F40E944C150E946E15BC
:104780007CCB80918A02882309F473CB0E94C916DE
:104790000E94881772CB17FD9DCC812F880F990B33
:1047A000DC01A55BBB4F7D016D917C91AB01770F67
:1047B000660B770BF60180819181092E000CAA0B04
:1047C000BB0B5A016B01A80EB91ECA1EDB1EC60127
:1047D000B50122E030E040E050E00E94652DD701B5
:1047E0002D933C9302CD809135048F5F80933504E7
:1047F000E0914304F09144048081918190933204CC
:1048000080933104E12F110FFF0BEA56FC4F858591
:104810008F5F858780919B03882389F08091A20315
:10482000882369F010916A0480910301811738F49C
:1048300086EC92E00E94DC18812F0E94A0188091E3
:10484000A203882329F080910201811100938B0239
:104850001092A20322CB82EB92E00E94DC186AE065
:1048600070E0812F0E94B31888EA92E00E94DC1861
:104870006AE070E080912A040E94B31884E992E013
:104880000E944F198BED91E00E94B118E0915D04F8
:10489000E7FDD4C0EE0FFF0BE55BFB4F6AE070E075
:1048A000808191810E94081980E991E00E94B118ED
:1048B000E0915D04EE0FFF0BE55BFB4F60817181C2
:1048C000072E000C880B990B0E94692A6B017C0152
:1048D000E0919603EE0FFF0BE55BFB4F608171816A
:1048E000072E000C880B990B0E94692A9B01AC01D2
:1048F000C701B6010E945D2C6B017C014B015C017C
:104900009B01AC010E940A2D882319F08FE991E0E8
:104910001AC026013701E89477F82FEF3FEF4FE7F1
:104920005FE7C301B2010E940A2D81110FC02FEF72
:104930003FEF4FE75FE7C301B2010E94622A1816FA
:104940002CF483EA91E00E94FB1774C02FEF3FEF35
:104950004FE75FE4C701B6010E94052D18161CF44D
:1049600087EA91E0F0CF2FEF3FEF4FE75FECC70111
:10497000B6010E94622A87FDF3CF20E030E0A90152
:10498000C701B6010E94622A87FF09C08DE20E941A
:10499000FD1846015701B7FAB094B7F8B0942AE071
:1049A00037ED43EA5BE3C501B4010E94F12B4B01F3
:1049B0005C010E94D62C6B017C010E94672A9B013E
:1049C000AC01C501B4010E94F02B4B015C014AE02F
:1049D000C701B6010E941D188EE20E94FD1820E05A
:1049E00030E040E251E4C501B4010E94C82A6B01E5
:1049F0007C010E94D62C4B01A12CB12C4AE0C501B0
:104A0000B4010E941D18C501B4010E94672A9B01D0
:104A1000AC01C701B6010E94F02B20E030E040E27B
:104A200051E40E94C82A0E94D62C80E090E04AE01F
:104A30000E941D188BEA91E00E94B1188DEA91E066
:104A40000E94B118E0919603E7FD0BC0EE0FFF0B3B
:104A5000E55BFB4F6AE070E0808191810E9408195C
:104A600004C086EB91E00E94B11888E892E00E94B1
:104A7000DC186AE070E080915B040E94B3188BEB55
:104A800091E00E94B1186AE070E080915C040E949D
:104A9000B3188EEB91E00E94B11884E792E00E9477
:104AA000DC18E0914304F09144046AE070E08081F6
:104AB00091810E94081980EC91E00E94B118E09168
:104AC0004504F09146046AE070E0808191810E9483
:104AD000081980EC91E00E94B1186AE070E08091C2
:104AE0003104909132040E94081980EC91E00E94F8
:104AF000B1186AE070E080913304909134040E9410
:104B0000081989E692E00E94DC186AE070E0809162
:104B100036040E94B31880E692E00E94DC186AE036
:104B200070E0809137040E94B31885E592E00E94FE
:104B3000DC186AE070E080912B040E94B3188DE4C9
:104B400092E00E94DC1880915E046AE070E090E0E0
:104B50000E94081982E492E00E94DC1880913904D6
:104B60006AE070E090E00E94081988E392E00E94F9
:104B7000DC186AE070E080913D0490913E040E9450
:104B800008190E940D188FE292E00E94DC18F12CA7
:104B900080913504F81688F46F2D70E08BEA93E06D
:104BA0000E945A14809130046AE070E0082E000CD4
:104BB000990B0E940819F394EBCF83EC91E00E94CB
:104BC000B11886EC91E00E94B1186AE070E0809123
:104BD00035040E94B31889EC91E00E9411188BEC07
:104BE00091E00E94B118F12C80915B04F81670F5E9
:104BF00085ED91E00E94B1186AE070E08F2D0E946F
:104C0000B3188FED91E00E94B118CF2CD12CF60192
:104C1000EA56FC4F6AE070E085850E94B31888ED83
:104C200091E00E94B118F601EE0FFF1FE55BFB4F0C
:104C300080819181009721F06AE070E00E9408195C
:104C400089EC91E00E94B118F394CECF8DE792E009
:104C50000E9411188DE792E00E941118C9CD809131
:104C60008A028823F1F08BE30E942E170E943717E7
:104C70001EEF1F3FB1F085E30E942E170FEF010FCB
:104C80008077803241F061E070E080E090E00E9447
:104C90000413102FEECF111104C080E791E00E94A1
:104CA0001118EE961FAEEE97EE963FADEE97C657F3
:104CB000DF4FA880CA58D0403A1509F48DC1ED964F
:104CC0001FAEED9786E1ED96AFACED978A9D900112
:104CD0001124F101E20FF31F80819181892B31F1C1
:104CE00010E09F012B5E3F4FC357DF4F398328836E
:104CF000CD58D040C258DF4FF983E883CE57D0401B
:104D00003396C157DF4FF983E883CF58D040C2585C
:104D1000DF4F28813981CE57D0402E5F3F4FCF568D
:104D2000DF4F39832883C159D040C5C0C12CBF0192
:104D30006B5E7F4FC258DF4F79836883CE57D04078
:104D4000C90105965101A80EB91EC058DF4FB9829E
:104D5000A882C058D0409F012D5F3F4FCC57DF4FF6
:104D600039832883C458D04021503109CA57DF4FB6
:104D700039832883C658D040C258DF4FA881B981F3
:104D8000CE57D0408C91C81608F09FC0CC57DF4F4B
:104D9000A881B981C458D0408D909C90CA57DF4FEC
:104DA000E881F981C658D04000810E94DF122B01B2
:104DB0003C0110E08016910670F1C8010E94C718EE
:104DC0008053C058DF4FE881F981C058D040E80FC8
:104DD000F11DE80FF11DA080B1807501B7FE04C080
:104DE000EE24FF24EA18FB080E94DF126415750503
:104DF00086059705C8F3B7FE02C05B9801C05B9AB1
:104E0000C701FF0CAA0BBB0B480E591E6A1E7B1E66
:104E10000F5F1F4FCFCF0E94DF1264157505860507
:104E20009705C8F3C394A8CF112331F061E070E077
:104E300080E090E00E940413C258DF4FA881B9813E
:104E4000CE57D040ED90FC90C157DF4FE881F981FB
:104E5000CF58D040F081CC57DF4FF883C458D040B2
:104E6000CF56DF4FA881B981C159D0400C910E9423
:104E7000DF124B015C01B701FF0C880B990BC05886
:104E8000DF4F688379838A839B83C058D040660F45
:104E9000771F881F991FCA57DF4F688379838A83DA
:104EA0009B83C658D040CC57DF4FC880C458D040F1
:104EB000C016F0F41F5FC357DF4FA881B981CD58EA
:104EC000D0408C91181708F4AFCF5B98ED962FADBA
:104ED000ED972F5FED962FAFED97D21608F0F2CE3B
:104EE000EE962FADEE972F5FEE962FAFEE97DCCEBE
:104EF000802F90E00E94C7188A3314F097E301C016
:104F000090E3891B44E050E028E0C22E282F880F50
:104F1000330BC557DF4F39832883CB58D04024014A
:104F2000350120E0EC2CF12CC557DF4FA881B98169
:104F3000CB58D040EA22FB22E114F104C1F15B9886
:104F4000C058DF4F688179818A819B81C058D040E9
:104F5000460E571E681E791ECA56DF4F2883C65953
:104F6000D040CC56DF4F4883C459D040CB56DF4F9A
:104F70005883C559D0400E94DF12CA56DF4F28819E
:104F8000C659D040CC56DF4F4881C459D040CB568B
:104F9000DF4F5881C559D0406415750586059705C2
:104FA000D8F2213031F021E0E114F10441F25B9AB2
:104FB000C7CFCA57DF4F88819981AA81BB81C65864
:104FC000D040880E991EAA1EBB1EC694415051099E
:104FD00009F0A5CF0F5F67CF4091940350919503DF
:104FE00060919003709191038FEE92E00E94821085
:104FF000EC96BFACEC97BB2011F40C940E1E88E22B
:1050000091E00E94DC188E010B581F4F8CE0F82EA7
:10501000EA96CFACEA97FC18802FEA96BFADEA97E4
:105020008B1BEC96AFACEC978A1510F00C940E1E0F
:10503000D8016D918D01862FCC56DF4F6883C459FE
:10504000D0400E94C015CC56DF4F6881C459D04073
:105050008F2D800F0E940B17DFCFE7E9F3E011C01F
:10506000E8E9F3E00EC0EAE9F3E00BC0EBE9F3E0B6
:1050700008C0E2E0F1E005C0E0E0F0E002C0E9E9EC
:10508000F3E0153419F481E0808301C0108260914F
:105090009903962F906860919703660F692B909102
:1050A000980324E0929FC0011124682B90919A03E9
:1050B00038E0939FF00111246E2B90919B0370E1D7
:1050C000979FA0011124642B9091020180E2989F88
:1050D00090011124622B90919C03A0E49A9FC0013F
:1050E0001124682B8FEF90E00E9448150C943D1F0F
:1050F00080E993E00C946D12CF93DF93EFEEF2E032
:105100001382128288EE93E0A0E0B0E0848395835E
:10511000A683B78381E291E09183808385EC90E060
:105120009587848784EC90E09787868780EC90E071
:10513000918B808B81EC90E0938B828B82EC90E062
:10514000958B848B86EC90E0978B868B118E128EDC
:10515000138E148EE9E6F4E088E7808311821382CF
:105160001282C6E9D3E08FE780932F0484E0809316
:105170002D041D8A10922A0410922B0487E080933C
:105180002C0480EF80932E04EFE3F4E0F0934404CA
:10519000E093430481E494E09093460480934504B3
:1051A00010926404109263041092660410926504D5
:1051B000109268041092670411821082CE010E943E
:1051C000FC1481E180936104188619866DE772E012
:1051D00080E993E00E9472120E94DF1260938C03B8
:1051E00070938D0380938E0390938F03DF91CF9103
:1051F0000895CF93DF938230910510F482E090E020
:10520000E0915F05F091600520E030E0C0E0D0E083
:10521000309711F14081518148175907C0F0481764
:10522000590761F482819381209719F09B838A83C7
:105230002BC09093600580935F0526C02115310532
:1052400019F04217530718F49A01BE01DF01EF016C
:105250000280F381E02DDCCF2115310509F1281BF7
:10526000390B2430310590F412968D919C9113974F
:105270006115710521F0FB019383828304C0909333
:10528000600580935F05FD01329644C0FD01E20F89
:10529000F31F81939193225031092D933C933AC08F
:1052A00020915D0530915E05232B41F420910A0188
:1052B00030910B0130935E0520935D05209108012C
:1052C000309109012115310541F42DB73EB74091C8
:1052D0000C0150910D01241B350BE0915D05F091FF
:1052E0005E05E217F307A0F42E1B3F0B28173907C2
:1052F00078F0AC014E5F5F4F2417350748F04E0F32
:105300005F1F50935E0540935D058193919302C0AA
:10531000E0E0F0E0CF01DF91CF9108950F931F936C
:10532000CF93DF93009709F48CC0FC01329713826E
:10533000128200915F05109160050115110581F43D
:1053400020813181820F931F20915D0530915E0590
:105350002817390779F5F0935E05E0935D0571C074
:10536000D80140E050E0AE17BF0750F412962D91DF
:105370003C911397AD012115310509F1D901F3CF06
:105380009D01DA013383228360817181860F971F2B
:105390008217930769F4EC0128813981260F371FA2
:1053A0002E5F3F4F318320838A819B819383828349
:1053B000452B29F4F0936005E0935F0542C01396F6
:1053C000FC93EE931297ED01499159919E01240FA0
:1053D000351FE217F30771F480819181840F951FC7
:1053E000029611969C938E938281938113969C933F
:1053F0008E931297E0E0F0E0D80112968D919C9187
:105400001397009719F0F8018C01F6CF8D919C91BC
:1054100098012E5F3F4F820F931F20915D053091C1
:105420005E052817390769F4309729F41092600552
:1054300010925F0502C01382128210935E050093E2
:105440005D05DF91CF911F910F9108951F93FC018E
:1054500099278827BC01E89411911032E9F319309B
:1054600010F01E30C8F31B3251F01D3249F468941D
:1054700006C00E944D2A610F711D811D911D119161
:1054800010531A30B0F33EF4909580957095619565
:105490007F4F8F4F9F4F1F910895592F482F372FC0
:1054A000262F660F771F881F991F660F771F881F8B
:1054B000991F620F731F841F951F660F771F881F28
:1054C000991F08950E94A42A08F481E00895E894A1
:1054D00009C097FB3EF490958095709561957F4F3C
:1054E0008F4F9F4F9923A9F0F92F96E9BB279395EA
:1054F000F695879577956795B795F111F8CFFAF4FA
:10550000BB0F11F460FF1BC06F5F7F4F8F4F9F4F2A
:1055100016C0882311F096E911C0772321F09EE888
:10552000872F762F05C0662371F096E8862F70E0EE
:1055300060E02AF09A95660F771F881FDAF7880FC8
:105540009695879597F90895990F0008550FAA0B1E
:10555000E0E8FEEF16161706E807F907C0F0121686
:105560001306E407F50798F0621B730B840B950B89
:1055700039F40A2661F0232B242B252B21F40895DE
:105580000A2609F4A140A6958FEF811D811D08957B
:105590000E94DB2A0C944F2B0E94412B38F00E9472
:1055A000482B20F0952311F00C94382B0C943E2BB3
:1055B00011240C94832B0E94602B70F3959FC1F3F0
:1055C000950F50E0551F629FF001729FBB27F00DB1
:1055D000B11D639FAA27F00DB11DAA1F649F662706
:1055E000B00DA11D661F829F2227B00DA11D621F55
:1055F000739FB00DA11D621F839FA00D611D221F0F
:10560000749F3327A00D611D231F849F600D211DF2
:10561000822F762F6A2F11249F5750409AF0F1F075
:1056200088234AF0EE0FFF1FBB1F661F771F881FDE
:1056300091505040A9F79E3F510580F00C94382BB3
:105640000C94832B5F3FE4F3983ED4F386957795D3
:105650006795B795F795E7959F5FC1F7FE2B880F84
:10566000911D9695879597F908959927882708950C
:1056700097F99F6780E870E060E008959FEF80EC05
:10568000089500240A9416161706180609060895A8
:1056900000240A9412161306140605060895092E0E
:1056A0000394000C11F4882352F0BB0F40F4BF2B7D
:1056B00011F460FF04C06F5F7F4F8F4F9F4F0895BD
:1056C00057FD9058440F551F59F05F3F71F04795B3
:1056D000880F97FB991F61F09F3F79F08795089598
:1056E000121613061406551FF2CF4695F1DF08C0B7
:1056F000161617061806991FF1CF869571056105D4
:1057000008940895E894BB2766277727CB0197F97B
:105710000895F999FECF92BD81BDF89A992780B579
:105720000895262FF999FECF1FBA92BD81BD20BDE5
:105730000FB6F894FA9AF99A0FBE019608950E944E
:10574000E12BA59F900DB49F900DA49F800D911DFE
:10575000112408952F923F924F925F926F927F9201
:105760008F929F92AF92BF92CF92DF92EF92FF9271
:105770000F931F93CF93DF93CDB7DEB7CA1BDB0B1D
:105780000FB6F894DEBF0FBECDBF09942A883988C2
:1057900048885F846E847D848C849B84AA84B984C9
:1057A000C884DF80EE80FD800C811B81AA81B981D5
:1057B000CE0FD11D0FB6F894DEBF0FBECDBFED01E9
:1057C0000895A29FB001B39FC001A39F700D811DDA
:1057D0001124911DB29F700D811D1124911D0895FA
:1057E0005058BB27AA270E94082C0C944F2B0E94CC
:1057F000412B38F00E94482B20F039F49F3F19F4D8
:1058000026F40C943E2B0EF4E095E7FB0C94382B19
:10581000E92F0E94602B58F3BA17620773078407B9
:10582000950720F079F4A6F50C94822B0EF4E09500
:105830000B2EBA2FA02D0B01B90190010C01CA014A
:10584000A0011124FF27591B99F0593F50F4503EF5
:1058500068F11A16F040A22F232F342F4427585FE7
:10586000F3CF469537952795A795F0405395C9F7FF
:105870007EF41F16BA0B620B730B840BBAF09150B7
:10588000A1F0FF0FBB1F661F771F881FC2F70EC056
:10589000BA0F621F731F841F48F487957795679529
:1058A000B795F7959E3F08F0B0CF9395880F08F015
:1058B0009927EE0F9795879508950E94712C0C9467
:1058C0004F2B0E94482B58F00E94412B40F029F4A6
:1058D0005F3F29F00C94382B51110C94832B0C94BE
:1058E0003E2B0E94602B68F39923B1F3552391F36B
:1058F000951B550BBB27AA2762177307840738F03F
:105900009F5F5F4F220F331F441FAA1FA9F335D09B
:105910000E2E3AF0E0E832D091505040E695001C4F
:10592000CAF72BD0FE2F29D0660F771F881FBB1F09
:10593000261737074807AB07B0E809F0BB0B802DE7
:10594000BF01FF2793585F4F3AF09E3F510578F013
:105950000C94382B0C94832B5F3FE4F3983ED4F3E4
:10596000869577956795B795F7959F5FC9F7880FE7
:10597000911D9695879597F90895E1E0660F771F39
:10598000881FBB1F621773078407BA0720F0621BCA
:10599000730B840BBA0BEE1F88F7E09508950E94F5
:1059A000D62C6894B1110C94832B08950E94682B17
:1059B00088F09F5798F0B92F9927B751B0F0E1F0D0
:1059C000660F771F881F991F1AF0BA95C9F714C080
:1059D000B13091F00E94822BB1E008950C94822B9B
:1059E000672F782F8827B85F39F0B93FCCF38695B9
:1059F00077956795B395D9F73EF490958095709516
:105A000061957F4F8F4F9F4F08950E94A42A08F4FD
:105A10008FEF08950E94A42A880B990B0895991B73
:105A200079E004C0991F961708F0961B881F7A9595
:105A3000C9F780950895AA1BBB1B51E107C0AA1F97
:105A4000BB1FA617B70710F0A61BB70B881F991F1F
:105A50005A95A9F780959095BC01CD01089597FBC3
:105A6000072E16F4009407D077FD09D00E941B2D55
:105A700007FC05D03EF4909581959F4F0895709551
:105A800061957F4F0895A1E21A2EAA1BBB1BFD0151
:105A90000DC0AA1FBB1FEE1FFF1FA217B307E4070D
:105AA000F50720F0A21BB30BE40BF50B661F771F65
:105AB000881F991F1A9469F7609570958095909545
:105AC0009B01AC01BD01CF010895052E97FB1EF48B
:105AD00000940E947C2D57FD07D00E94432D07FCA7
